{
	"contracts/hangman2.sol": {
		"Hangman": {
			"abi": [
				{
					"anonymous": false,
					"inputs": [
						{
							"indexed": false,
							"internalType": "string",
							"name": "reason",
							"type": "string"
						}
					],
					"name": "GameEnded",
					"type": "event"
				},
				{
					"anonymous": false,
					"inputs": [
						{
							"indexed": false,
							"internalType": "uint256",
							"name": "startTime",
							"type": "uint256"
						},
						{
							"indexed": false,
							"internalType": "uint256",
							"name": "duration",
							"type": "uint256"
						}
					],
					"name": "GameStarted",
					"type": "event"
				},
				{
					"anonymous": false,
					"inputs": [
						{
							"indexed": false,
							"internalType": "string",
							"name": "reason",
							"type": "string"
						}
					],
					"name": "GameTimeLeft",
					"type": "event"
				},
				{
					"anonymous": false,
					"inputs": [
						{
							"indexed": false,
							"internalType": "string",
							"name": "hangmanWord",
							"type": "string"
						},
						{
							"indexed": false,
							"internalType": "uint256",
							"name": "attemptsLeft",
							"type": "uint256"
						},
						{
							"indexed": false,
							"internalType": "string",
							"name": "wrongGuesses",
							"type": "string"
						},
						{
							"indexed": false,
							"internalType": "string",
							"name": "hangmanFigure",
							"type": "string"
						}
					],
					"name": "GuessMade",
					"type": "event"
				},
				{
					"inputs": [],
					"name": "checkGameTimeout",
					"outputs": [],
					"stateMutability": "nonpayable",
					"type": "function"
				},
				{
					"inputs": [],
					"name": "getGameState",
					"outputs": [
						{
							"internalType": "string",
							"name": "",
							"type": "string"
						},
						{
							"internalType": "uint256",
							"name": "",
							"type": "uint256"
						},
						{
							"internalType": "string",
							"name": "",
							"type": "string"
						},
						{
							"internalType": "string",
							"name": "",
							"type": "string"
						}
					],
					"stateMutability": "view",
					"type": "function"
				},
				{
					"inputs": [
						{
							"internalType": "string",
							"name": "input",
							"type": "string"
						}
					],
					"name": "guess",
					"outputs": [
						{
							"internalType": "string",
							"name": "",
							"type": "string"
						},
						{
							"internalType": "uint256",
							"name": "",
							"type": "uint256"
						},
						{
							"internalType": "string",
							"name": "",
							"type": "string"
						},
						{
							"internalType": "string",
							"name": "",
							"type": "string"
						}
					],
					"stateMutability": "nonpayable",
					"type": "function"
				},
				{
					"inputs": [],
					"name": "quit",
					"outputs": [],
					"stateMutability": "nonpayable",
					"type": "function"
				},
				{
					"inputs": [],
					"name": "startGame",
					"outputs": [],
					"stateMutability": "nonpayable",
					"type": "function"
				}
			],
			"devdoc": {
				"kind": "dev",
				"methods": {},
				"version": 1
			},
			"evm": {
				"assembly": "    /* \"contracts/hangman2.sol\":60:6647  contract Hangman {... */\n  mstore(0x40, 0x80)\n    /* \"contracts/hangman2.sol\":84:982  string[50] wordDict = [... */\n  mload(0x40)\n  dup1\n  0x0640\n  add\n  0x40\n  mstore\n  dup1\n  mload(0x40)\n  dup1\n  0x40\n  add\n  0x40\n  mstore\n  dup1\n  0x09\n  dup2\n  mstore\n  0x20\n  add\n  0x6170706c65207069650000000000000000000000000000000000000000000000\n  dup2\n  mstore\n  pop\n  dup2\n  mstore\n  0x20\n  add\n  mload(0x40)\n  dup1\n  0x40\n  add\n  0x40\n  mstore\n  dup1\n  0x09\n  dup2\n  mstore\n  0x20\n  add\n  0x6861707079206361740000000000000000000000000000000000000000000000\n  dup2\n  mstore\n  pop\n  dup2\n  mstore\n  0x20\n  add\n  mload(0x40)\n  dup1\n  0x40\n  add\n  0x40\n  mstore\n  dup1\n  0x08\n  dup2\n  mstore\n  0x20\n  add\n  0x6269672062656172000000000000000000000000000000000000000000000000\n  dup2\n  mstore\n  pop\n  dup2\n  mstore\n  0x20\n  add\n  mload(0x40)\n  dup1\n  0x40\n  add\n  0x40\n  mstore\n  dup1\n  0x0b\n  dup2\n  mstore\n  0x20\n  add\n  0x7261696e626f7720736b79000000000000000000000000000000000000000000\n  dup2\n  mstore\n  pop\n  dup2\n  mstore\n  0x20\n  add\n  mload(0x40)\n  dup1\n  0x40\n  add\n  0x40\n  mstore\n  dup1\n  0x09\n  dup2\n  mstore\n  0x20\n  add\n  0x6d61676963206861740000000000000000000000000000000000000000000000\n  dup2\n  mstore\n  pop\n  dup2\n  mstore\n  0x20\n  add\n  mload(0x40)\n  dup1\n  0x40\n  add\n  0x40\n  mstore\n  dup1\n  0x09\n  dup2\n  mstore\n  0x20\n  add\n  0x73756e6e79206461790000000000000000000000000000000000000000000000\n  dup2\n  mstore\n  pop\n  dup2\n  mstore\n  0x20\n  add\n  mload(0x40)\n  dup1\n  0x40\n  add\n  0x40\n  mstore\n  dup1\n  0x0a\n  dup2\n  mstore\n  0x20\n  add\n  0x74696e7920686f75736500000000000000000000000000000000000000000000\n  dup2\n  mstore\n  pop\n  dup2\n  mstore\n  0x20\n  add\n  mload(0x40)\n  dup1\n  0x40\n  add\n  0x40\n  mstore\n  dup1\n  0x09\n  dup2\n  mstore\n  0x20\n  add\n  0x6c656d6f6e207465610000000000000000000000000000000000000000000000\n  dup2\n  mstore\n  pop\n  dup2\n  mstore\n  0x20\n  add\n  mload(0x40)\n  dup1\n  0x40\n  add\n  0x40\n  mstore\n  dup1\n  0x0a\n  dup2\n  mstore\n  0x20\n  add\n  0x7075707079206c6f766500000000000000000000000000000000000000000000\n  dup2\n  mstore\n  pop\n  dup2\n  mstore\n  0x20\n  add\n  mload(0x40)\n  dup1\n  0x40\n  add\n  0x40\n  mstore\n  dup1\n  0x09\n  dup2\n  mstore\n  0x20\n  add\n  0x77696c6420776573740000000000000000000000000000000000000000000000\n  dup2\n  mstore\n  pop\n  dup2\n  mstore\n  0x20\n  add\n  mload(0x40)\n  dup1\n  0x40\n  add\n  0x40\n  mstore\n  dup1\n  0x0b\n  dup2\n  mstore\n  0x20\n  add\n  0x6f72616e6765206d6f6f6e000000000000000000000000000000000000000000\n  dup2\n  mstore\n  pop\n  dup2\n  mstore\n  0x20\n  add\n  mload(0x40)\n  dup1\n  0x40\n  add\n  0x40\n  mstore\n  dup1\n  0x0b\n  dup2\n  mstore\n  0x20\n  add\n  0x73696c7665722073746172000000000000000000000000000000000000000000\n  dup2\n  mstore\n  pop\n  dup2\n  mstore\n  0x20\n  add\n  mload(0x40)\n  dup1\n  0x40\n  add\n  0x40\n  mstore\n  dup1\n  0x0c\n  dup2\n  mstore\n  0x20\n  add\n  0x6c61756768696e67206f776c0000000000000000000000000000000000000000\n  dup2\n  mstore\n  pop\n  dup2\n  mstore\n  0x20\n  add\n  mload(0x40)\n  dup1\n  0x40\n  add\n  0x40\n  mstore\n  dup1\n  0x0b\n  dup2\n  mstore\n  0x20\n  add\n  0x666f726573742070617468000000000000000000000000000000000000000000\n  dup2\n  mstore\n  pop\n  dup2\n  mstore\n  0x20\n  add\n  mload(0x40)\n  dup1\n  0x40\n  add\n  0x40\n  mstore\n  dup1\n  0x0b\n  dup2\n  mstore\n  0x20\n  add\n  0x666c79696e672066697368000000000000000000000000000000000000000000\n  dup2\n  mstore\n  pop\n  dup2\n  mstore\n  0x20\n  add\n  mload(0x40)\n  dup1\n  0x40\n  add\n  0x40\n  mstore\n  dup1\n  0x0c\n  dup2\n  mstore\n  0x20\n  add\n  0x636f74746f6e20636c6f75640000000000000000000000000000000000000000\n  dup2\n  mstore\n  pop\n  dup2\n  mstore\n  0x20\n  add\n  mload(0x40)\n  dup1\n  0x40\n  add\n  0x40\n  mstore\n  dup1\n  0x0b\n  dup2\n  mstore\n  0x20\n  add\n  0x6368657272792074726565000000000000000000000000000000000000000000\n  dup2\n  mstore\n  pop\n  dup2\n  mstore\n  0x20\n  add\n  mload(0x40)\n  dup1\n  0x40\n  add\n  0x40\n  mstore\n  dup1\n  0x0a\n  dup2\n  mstore\n  0x20\n  add\n  0x736563726574206b657900000000000000000000000000000000000000000000\n  dup2\n  mstore\n  pop\n  dup2\n  mstore\n  0x20\n  add\n  mload(0x40)\n  dup1\n  0x40\n  add\n  0x40\n  mstore\n  dup1\n  0x0c\n  dup2\n  mstore\n  0x20\n  add\n  0x6272617665206b6e696768740000000000000000000000000000000000000000\n  dup2\n  mstore\n  pop\n  dup2\n  mstore\n  0x20\n  add\n  mload(0x40)\n  dup1\n  0x40\n  add\n  0x40\n  mstore\n  dup1\n  0x0a\n  dup2\n  mstore\n  0x20\n  add\n  0x626c7565206f6365616e00000000000000000000000000000000000000000000\n  dup2\n  mstore\n  pop\n  dup2\n  mstore\n  0x20\n  add\n  mload(0x40)\n  dup1\n  0x40\n  add\n  0x40\n  mstore\n  dup1\n  0x0f\n  dup2\n  mstore\n  0x20\n  add\n  0x7477696e6b6c696e67206c696768740000000000000000000000000000000000\n  dup2\n  mstore\n  pop\n  dup2\n  mstore\n  0x20\n  add\n  mload(0x40)\n  dup1\n  0x40\n  add\n  0x40\n  mstore\n  dup1\n  0x0b\n  dup2\n  mstore\n  0x20\n  add\n  0x736e6f7779206e69676874000000000000000000000000000000000000000000\n  dup2\n  mstore\n  pop\n  dup2\n  mstore\n  0x20\n  add\n  mload(0x40)\n  dup1\n  0x40\n  add\n  0x40\n  mstore\n  dup1\n  0x0c\n  dup2\n  mstore\n  0x20\n  add\n  0x6769616e7420747572746c650000000000000000000000000000000000000000\n  dup2\n  mstore\n  pop\n  dup2\n  mstore\n  0x20\n  add\n  mload(0x40)\n  dup1\n  0x40\n  add\n  0x40\n  mstore\n  dup1\n  0x0a\n  dup2\n  mstore\n  0x20\n  add\n  0x66616972792074616c6500000000000000000000000000000000000000000000\n  dup2\n  mstore\n  pop\n  dup2\n  mstore\n  0x20\n  add\n  mload(0x40)\n  dup1\n  0x40\n  add\n  0x40\n  mstore\n  dup1\n  0x0f\n  dup2\n  mstore\n  0x20\n  add\n  0x68696464656e2074726561737572650000000000000000000000000000000000\n  dup2\n  mstore\n  pop\n  dup2\n  mstore\n  0x20\n  add\n  mload(0x40)\n  dup1\n  0x40\n  add\n  0x40\n  mstore\n  dup1\n  0x0c\n  dup2\n  mstore\n  0x20\n  add\n  0x73696c656e742072697665720000000000000000000000000000000000000000\n  dup2\n  mstore\n  pop\n  dup2\n  mstore\n  0x20\n  add\n  mload(0x40)\n  dup1\n  0x40\n  add\n  0x40\n  mstore\n  dup1\n  0x0c\n  dup2\n  mstore\n  0x20\n  add\n  0x637564646c792062756e6e790000000000000000000000000000000000000000\n  dup2\n  mstore\n  pop\n  dup2\n  mstore\n  0x20\n  add\n  mload(0x40)\n  dup1\n  0x40\n  add\n  0x40\n  mstore\n  dup1\n  0x0f\n  dup2\n  mstore\n  0x20\n  add\n  0x64616e63696e6720646f6c7068696e0000000000000000000000000000000000\n  dup2\n  mstore\n  pop\n  dup2\n  mstore\n  0x20\n  add\n  mload(0x40)\n  dup1\n  0x40\n  add\n  0x40\n  mstore\n  dup1\n  0x0b\n  dup2\n  mstore\n  0x20\n  add\n  0x66726f7a656e206c616b65000000000000000000000000000000000000000000\n  dup2\n  mstore\n  pop\n  dup2\n  mstore\n  0x20\n  add\n  mload(0x40)\n  dup1\n  0x40\n  add\n  0x40\n  mstore\n  dup1\n  0x0e\n  dup2\n  mstore\n  0x20\n  add\n  0x63686f636f6c6174652063616b65000000000000000000000000000000000000\n  dup2\n  mstore\n  pop\n  dup2\n  mstore\n  0x20\n  add\n  mload(0x40)\n  dup1\n  0x40\n  add\n  0x40\n  mstore\n  dup1\n  0x0e\n  dup2\n  mstore\n  0x20\n  add\n  0x667269656e646c792067686f7374000000000000000000000000000000000000\n  dup2\n  mstore\n  pop\n  dup2\n  mstore\n  0x20\n  add\n  mload(0x40)\n  dup1\n  0x40\n  add\n  0x40\n  mstore\n  dup1\n  0x0b\n  dup2\n  mstore\n  0x20\n  add\n  0x676f6c64656e2072696e67000000000000000000000000000000000000000000\n  dup2\n  mstore\n  pop\n  dup2\n  mstore\n  0x20\n  add\n  mload(0x40)\n  dup1\n  0x40\n  add\n  0x40\n  mstore\n  dup1\n  0x0f\n  dup2\n  mstore\n  0x20\n  add\n  0x706561636566756c2067617264656e0000000000000000000000000000000000\n  dup2\n  mstore\n  pop\n  dup2\n  mstore\n  0x20\n  add\n  mload(0x40)\n  dup1\n  0x40\n  add\n  0x40\n  mstore\n  dup1\n  0x0f\n  dup2\n  mstore\n  0x20\n  add\n  0x77686973706572696e672077696e640000000000000000000000000000000000\n  dup2\n  mstore\n  pop\n  dup2\n  mstore\n  0x20\n  add\n  mload(0x40)\n  dup1\n  0x40\n  add\n  0x40\n  mstore\n  dup1\n  0x0b\n  dup2\n  mstore\n  0x20\n  add\n  0x7368696e792070656e6e79000000000000000000000000000000000000000000\n  dup2\n  mstore\n  pop\n  dup2\n  mstore\n  0x20\n  add\n  mload(0x40)\n  dup1\n  0x40\n  add\n  0x40\n  mstore\n  dup1\n  0x0d\n  dup2\n  mstore\n  0x20\n  add\n  0x6d6f756e7461696e207065616b00000000000000000000000000000000000000\n  dup2\n  mstore\n  pop\n  dup2\n  mstore\n  0x20\n  add\n  mload(0x40)\n  dup1\n  0x40\n  add\n  0x40\n  mstore\n  dup1\n  0x0b\n  dup2\n  mstore\n  0x20\n  add\n  0x63616c6d20776174657273000000000000000000000000000000000000000000\n  dup2\n  mstore\n  pop\n  dup2\n  mstore\n  0x20\n  add\n  mload(0x40)\n  dup1\n  0x40\n  add\n  0x40\n  mstore\n  dup1\n  0x0a\n  dup2\n  mstore\n  0x20\n  add\n  0x6272696768742073756e00000000000000000000000000000000000000000000\n  dup2\n  mstore\n  pop\n  dup2\n  mstore\n  0x20\n  add\n  mload(0x40)\n  dup1\n  0x40\n  add\n  0x40\n  mstore\n  dup1\n  0x0a\n  dup2\n  mstore\n  0x20\n  add\n  0x736c6565707920666f7800000000000000000000000000000000000000000000\n  dup2\n  mstore\n  pop\n  dup2\n  mstore\n  0x20\n  add\n  mload(0x40)\n  dup1\n  0x40\n  add\n  0x40\n  mstore\n  dup1\n  0x0a\n  dup2\n  mstore\n  0x20\n  add\n  0x73746172727920736b7900000000000000000000000000000000000000000000\n  dup2\n  mstore\n  pop\n  dup2\n  mstore\n  0x20\n  add\n  mload(0x40)\n  dup1\n  0x40\n  add\n  0x40\n  mstore\n  dup1\n  0x0b\n  dup2\n  mstore\n  0x20\n  add\n  0x74696e7920666c6f776572000000000000000000000000000000000000000000\n  dup2\n  mstore\n  pop\n  dup2\n  mstore\n  0x20\n  add\n  mload(0x40)\n  dup1\n  0x40\n  add\n  0x40\n  mstore\n  dup1\n  0x0d\n  dup2\n  mstore\n  0x20\n  add\n  0x67656e746c6520627265657a6500000000000000000000000000000000000000\n  dup2\n  mstore\n  pop\n  dup2\n  mstore\n  0x20\n  add\n  mload(0x40)\n  dup1\n  0x40\n  add\n  0x40\n  mstore\n  dup1\n  0x0c\n  dup2\n  mstore\n  0x20\n  add\n  0x7261696e626f7720666973680000000000000000000000000000000000000000\n  dup2\n  mstore\n  pop\n  dup2\n  mstore\n  0x20\n  add\n  mload(0x40)\n  dup1\n  0x40\n  add\n  0x40\n  mstore\n  dup1\n  0x0c\n  dup2\n  mstore\n  0x20\n  add\n  0x73696e67696e6720626972640000000000000000000000000000000000000000\n  dup2\n  mstore\n  pop\n  dup2\n  mstore\n  0x20\n  add\n  mload(0x40)\n  dup1\n  0x40\n  add\n  0x40\n  mstore\n  dup1\n  0x0a\n  dup2\n  mstore\n  0x20\n  add\n  0x626f6c6420746967657200000000000000000000000000000000000000000000\n  dup2\n  mstore\n  pop\n  dup2\n  mstore\n  0x20\n  add\n  mload(0x40)\n  dup1\n  0x40\n  add\n  0x40\n  mstore\n  dup1\n  0x0e\n  dup2\n  mstore\n  0x20\n  add\n  0x7370696e6e696e6720776865656c000000000000000000000000000000000000\n  dup2\n  mstore\n  pop\n  dup2\n  mstore\n  0x20\n  add\n  mload(0x40)\n  dup1\n  0x40\n  add\n  0x40\n  mstore\n  dup1\n  0x0d\n  dup2\n  mstore\n  0x20\n  add\n  0x736861646f772070757070657400000000000000000000000000000000000000\n  dup2\n  mstore\n  pop\n  dup2\n  mstore\n  0x20\n  add\n  mload(0x40)\n  dup1\n  0x40\n  add\n  0x40\n  mstore\n  dup1\n  0x0c\n  dup2\n  mstore\n  0x20\n  add\n  0x677265656e2076616c6c65790000000000000000000000000000000000000000\n  dup2\n  mstore\n  pop\n  dup2\n  mstore\n  0x20\n  add\n  mload(0x40)\n  dup1\n  0x40\n  add\n  0x40\n  mstore\n  dup1\n  0x14\n  dup2\n  mstore\n  0x20\n  add\n  0x666c7574746572696e6720627574746572666c79000000000000000000000000\n  dup2\n  mstore\n  pop\n  dup2\n  mstore\n  0x20\n  add\n  mload(0x40)\n  dup1\n  0x40\n  add\n  0x40\n  mstore\n  dup1\n  0x0b\n  dup2\n  mstore\n  0x20\n  add\n  0x7365637265742063617665000000000000000000000000000000000000000000\n  dup2\n  mstore\n  pop\n  dup2\n  mstore\n  pop\n  0x00\n  swap1\n  0x32\n  tag_1\n  swap3\n  swap2\n  swap1\n  tag_2\n  jump\t// in\ntag_1:\n  pop\n    /* \"contracts/hangman2.sol\":1165:1174  1 minutes */\n  0x3c\n    /* \"contracts/hangman2.sol\":1142:1174  uint256 gameDuration = 1 minutes */\n  0x38\n  sstore\n    /* \"contracts/hangman2.sol\":1216:1666  string[8] hangmanStages = [... */\n  mload(0x40)\n  dup1\n  0x0100\n  add\n  0x40\n  mstore\n  dup1\n  mload(0x40)\n  dup1\n  0x40\n  add\n  0x40\n  mstore\n  dup1\n  0x02\n  dup2\n  mstore\n  0x20\n  add\n  0x207c000000000000000000000000000000000000000000000000000000000000\n  dup2\n  mstore\n  pop\n  dup2\n  mstore\n  0x20\n  add\n  mload(0x40)\n  dup1\n  0x40\n  add\n  0x40\n  mstore\n  dup1\n  0x03\n  dup2\n  mstore\n  0x20\n  add\n  0x207c2d0000000000000000000000000000000000000000000000000000000000\n  dup2\n  mstore\n  pop\n  dup2\n  mstore\n  0x20\n  add\n  mload(0x40)\n  dup1\n  0x40\n  add\n  0x40\n  mstore\n  dup1\n  0x04\n  dup2\n  mstore\n  0x20\n  add\n  0x207c2d6f00000000000000000000000000000000000000000000000000000000\n  dup2\n  mstore\n  pop\n  dup2\n  mstore\n  0x20\n  add\n  mload(0x40)\n  dup1\n  0x40\n  add\n  0x40\n  mstore\n  dup1\n  0x05\n  dup2\n  mstore\n  0x20\n  add\n  0x207c2d6f2d000000000000000000000000000000000000000000000000000000\n  dup2\n  mstore\n  pop\n  dup2\n  mstore\n  0x20\n  add\n  mload(0x40)\n  dup1\n  0x40\n  add\n  0x40\n  mstore\n  dup1\n  0x05\n  dup2\n  mstore\n  0x20\n  add\n  0x207c2d6f3c000000000000000000000000000000000000000000000000000000\n  dup2\n  mstore\n  pop\n  dup2\n  mstore\n  0x20\n  add\n  mload(0x40)\n  dup1\n  0x40\n  add\n  0x40\n  mstore\n  dup1\n  0x06\n  dup2\n  mstore\n  0x20\n  add\n  0x207c2d6f3c2d0000000000000000000000000000000000000000000000000000\n  dup2\n  mstore\n  pop\n  dup2\n  mstore\n  0x20\n  add\n  mload(0x40)\n  dup1\n  0x40\n  add\n  0x40\n  mstore\n  dup1\n  0x07\n  dup2\n  mstore\n  0x20\n  add\n  0x207c2d6f3c2d2d00000000000000000000000000000000000000000000000000\n  dup2\n  mstore\n  pop\n  dup2\n  mstore\n  0x20\n  add\n  mload(0x40)\n  dup1\n  0x40\n  add\n  0x40\n  mstore\n  dup1\n  0x07\n  dup2\n  mstore\n  0x20\n  add\n  0x207c2d6f3c2d3c00000000000000000000000000000000000000000000000000\n  dup2\n  mstore\n  pop\n  dup2\n  mstore\n  pop\n  0x39\n  swap1\n  0x08\n  tag_3\n  swap3\n  swap2\n  swap1\n  tag_4\n  jump\t// in\ntag_3:\n  pop\n    /* \"contracts/hangman2.sol\":60:6647  contract Hangman {... */\n  callvalue\n  dup1\n  iszero\n  tag_5\n  jumpi\n  0x00\n  dup1\n  revert\ntag_5:\n  pop\n  jump(tag_6)\ntag_2:\n  dup3\n  0x32\n  dup2\n  add\n  swap3\n  dup3\n  iszero\n  tag_7\n  jumpi\n  swap2\n  0x20\n  mul\n  dup3\n  add\ntag_8:\n  dup3\n  dup2\n  gt\n  iszero\n  tag_9\n  jumpi\n  dup3\n  mload\n  dup3\n  swap1\n  dup2\n  tag_10\n  swap2\n  swap1\n  tag_11\n  jump\t// in\ntag_10:\n  pop\n  swap2\n  0x20\n  add\n  swap2\n  swap1\n  0x01\n  add\n  swap1\n  jump(tag_8)\ntag_9:\ntag_7:\n  pop\n  swap1\n  pop\n  tag_12\n  swap2\n  swap1\n  tag_13\n  jump\t// in\ntag_12:\n  pop\n  swap1\n  jump\t// out\ntag_4:\n  dup3\n  0x08\n  dup2\n  add\n  swap3\n  dup3\n  iszero\n  tag_14\n  jumpi\n  swap2\n  0x20\n  mul\n  dup3\n  add\ntag_15:\n  dup3\n  dup2\n  gt\n  iszero\n  tag_16\n  jumpi\n  dup3\n  mload\n  dup3\n  swap1\n  dup2\n  tag_17\n  swap2\n  swap1\n  tag_11\n  jump\t// in\ntag_17:\n  pop\n  swap2\n  0x20\n  add\n  swap2\n  swap1\n  0x01\n  add\n  swap1\n  jump(tag_15)\ntag_16:\ntag_14:\n  pop\n  swap1\n  pop\n  tag_18\n  swap2\n  swap1\n  tag_13\n  jump\t// in\ntag_18:\n  pop\n  swap1\n  jump\t// out\ntag_13:\ntag_19:\n  dup1\n  dup3\n  gt\n  iszero\n  tag_20\n  jumpi\n  0x00\n  dup2\n  dup2\n  tag_21\n  swap2\n  swap1\n  tag_22\n  jump\t// in\ntag_21:\n  pop\n  0x01\n  add\n  jump(tag_19)\ntag_20:\n  pop\n  swap1\n  jump\t// out\ntag_22:\n  pop\n  dup1\n  sload\n  tag_23\n  swap1\n  tag_24\n  jump\t// in\ntag_23:\n  0x00\n  dup3\n  sstore\n  dup1\n  0x1f\n  lt\n  tag_26\n  jumpi\n  pop\n  jump(tag_25)\ntag_26:\n  0x1f\n  add\n  0x20\n  swap1\n  div\n  swap1\n  0x00\n  mstore\n  keccak256(0x00, 0x20)\n  swap1\n  dup2\n  add\n  swap1\n  tag_27\n  swap2\n  swap1\n  tag_28\n  jump\t// in\ntag_27:\ntag_25:\n  pop\n  jump\t// out\ntag_28:\ntag_29:\n  dup1\n  dup3\n  gt\n  iszero\n  tag_30\n  jumpi\n  0x00\n  dup2\n  0x00\n  swap1\n  sstore\n  pop\n  0x01\n  add\n  jump(tag_29)\ntag_30:\n  pop\n  swap1\n  jump\t// out\n    /* \"#utility.yul\":7:106   */\ntag_31:\n    /* \"#utility.yul\":59:65   */\n  0x00\n    /* \"#utility.yul\":93:98   */\n  dup2\n    /* \"#utility.yul\":87:99   */\n  mload\n    /* \"#utility.yul\":77:99   */\n  swap1\n  pop\n    /* \"#utility.yul\":7:106   */\n  swap2\n  swap1\n  pop\n  jump\t// out\n    /* \"#utility.yul\":112:292   */\ntag_32:\n    /* \"#utility.yul\":160:237   */\n  0x4e487b7100000000000000000000000000000000000000000000000000000000\n    /* \"#utility.yul\":157:158   */\n  0x00\n    /* \"#utility.yul\":150:238   */\n  mstore\n    /* \"#utility.yul\":257:261   */\n  0x41\n    /* \"#utility.yul\":254:255   */\n  0x04\n    /* \"#utility.yul\":247:262   */\n  mstore\n    /* \"#utility.yul\":281:285   */\n  0x24\n    /* \"#utility.yul\":278:279   */\n  0x00\n    /* \"#utility.yul\":271:286   */\n  revert\n    /* \"#utility.yul\":298:478   */\ntag_33:\n    /* \"#utility.yul\":346:423   */\n  0x4e487b7100000000000000000000000000000000000000000000000000000000\n    /* \"#utility.yul\":343:344   */\n  0x00\n    /* \"#utility.yul\":336:424   */\n  mstore\n    /* \"#utility.yul\":443:447   */\n  0x22\n    /* \"#utility.yul\":440:441   */\n  0x04\n    /* \"#utility.yul\":433:448   */\n  mstore\n    /* \"#utility.yul\":467:471   */\n  0x24\n    /* \"#utility.yul\":464:465   */\n  0x00\n    /* \"#utility.yul\":457:472   */\n  revert\n    /* \"#utility.yul\":484:804   */\ntag_24:\n    /* \"#utility.yul\":528:534   */\n  0x00\n    /* \"#utility.yul\":565:566   */\n  0x02\n    /* \"#utility.yul\":559:563   */\n  dup3\n    /* \"#utility.yul\":555:567   */\n  div\n    /* \"#utility.yul\":545:567   */\n  swap1\n  pop\n    /* \"#utility.yul\":612:613   */\n  0x01\n    /* \"#utility.yul\":606:610   */\n  dup3\n    /* \"#utility.yul\":602:614   */\n  and\n    /* \"#utility.yul\":633:651   */\n  dup1\n    /* \"#utility.yul\":623:704   */\n  tag_55\n  jumpi\n    /* \"#utility.yul\":689:693   */\n  0x7f\n    /* \"#utility.yul\":681:687   */\n  dup3\n    /* \"#utility.yul\":677:694   */\n  and\n    /* \"#utility.yul\":667:694   */\n  swap2\n  pop\n    /* \"#utility.yul\":623:704   */\ntag_55:\n    /* \"#utility.yul\":751:753   */\n  0x20\n    /* \"#utility.yul\":743:749   */\n  dup3\n    /* \"#utility.yul\":740:754   */\n  lt\n    /* \"#utility.yul\":720:738   */\n  dup2\n    /* \"#utility.yul\":717:755   */\n  sub\n    /* \"#utility.yul\":714:798   */\n  tag_56\n  jumpi\n    /* \"#utility.yul\":770:788   */\n  tag_57\n  tag_33\n  jump\t// in\ntag_57:\n    /* \"#utility.yul\":714:798   */\ntag_56:\n    /* \"#utility.yul\":535:804   */\n  pop\n    /* \"#utility.yul\":484:804   */\n  swap2\n  swap1\n  pop\n  jump\t// out\n    /* \"#utility.yul\":810:951   */\ntag_34:\n    /* \"#utility.yul\":859:863   */\n  0x00\n    /* \"#utility.yul\":882:885   */\n  dup2\n    /* \"#utility.yul\":874:885   */\n  swap1\n  pop\n    /* \"#utility.yul\":905:908   */\n  dup2\n    /* \"#utility.yul\":902:903   */\n  0x00\n    /* \"#utility.yul\":895:909   */\n  mstore\n    /* \"#utility.yul\":939:943   */\n  0x20\n    /* \"#utility.yul\":936:937   */\n  0x00\n    /* \"#utility.yul\":926:944   */\n  keccak256\n    /* \"#utility.yul\":918:944   */\n  swap1\n  pop\n    /* \"#utility.yul\":810:951   */\n  swap2\n  swap1\n  pop\n  jump\t// out\n    /* \"#utility.yul\":957:1050   */\ntag_35:\n    /* \"#utility.yul\":994:1000   */\n  0x00\n    /* \"#utility.yul\":1041:1043   */\n  0x20\n    /* \"#utility.yul\":1036:1038   */\n  0x1f\n    /* \"#utility.yul\":1029:1034   */\n  dup4\n    /* \"#utility.yul\":1025:1039   */\n  add\n    /* \"#utility.yul\":1021:1044   */\n  div\n    /* \"#utility.yul\":1011:1044   */\n  swap1\n  pop\n    /* \"#utility.yul\":957:1050   */\n  swap2\n  swap1\n  pop\n  jump\t// out\n    /* \"#utility.yul\":1056:1163   */\ntag_36:\n    /* \"#utility.yul\":1100:1108   */\n  0x00\n    /* \"#utility.yul\":1150:1155   */\n  dup3\n    /* \"#utility.yul\":1144:1148   */\n  dup3\n    /* \"#utility.yul\":1140:1156   */\n  shl\n    /* \"#utility.yul\":1119:1156   */\n  swap1\n  pop\n    /* \"#utility.yul\":1056:1163   */\n  swap3\n  swap2\n  pop\n  pop\n  jump\t// out\n    /* \"#utility.yul\":1169:1562   */\ntag_37:\n    /* \"#utility.yul\":1238:1244   */\n  0x00\n    /* \"#utility.yul\":1288:1289   */\n  0x08\n    /* \"#utility.yul\":1276:1286   */\n  dup4\n    /* \"#utility.yul\":1272:1290   */\n  mul\n    /* \"#utility.yul\":1311:1408   */\n  tag_62\n    /* \"#utility.yul\":1341:1407   */\n  0xffffffffffffffffffffffffffffffffffffffffffffffffffffffffffffffff\n    /* \"#utility.yul\":1330:1339   */\n  dup3\n    /* \"#utility.yul\":1311:1408   */\n  tag_36\n  jump\t// in\ntag_62:\n    /* \"#utility.yul\":1429:1468   */\n  tag_63\n    /* \"#utility.yul\":1459:1467   */\n  dup7\n    /* \"#utility.yul\":1448:1457   */\n  dup4\n    /* \"#utility.yul\":1429:1468   */\n  tag_36\n  jump\t// in\ntag_63:\n    /* \"#utility.yul\":1417:1468   */\n  swap6\n  pop\n    /* \"#utility.yul\":1501:1505   */\n  dup1\n    /* \"#utility.yul\":1497:1506   */\n  not\n    /* \"#utility.yul\":1490:1495   */\n  dup5\n    /* \"#utility.yul\":1486:1507   */\n  and\n    /* \"#utility.yul\":1477:1507   */\n  swap4\n  pop\n    /* \"#utility.yul\":1550:1554   */\n  dup1\n    /* \"#utility.yul\":1540:1548   */\n  dup7\n    /* \"#utility.yul\":1536:1555   */\n  and\n    /* \"#utility.yul\":1529:1534   */\n  dup5\n    /* \"#utility.yul\":1526:1556   */\n  or\n    /* \"#utility.yul\":1516:1556   */\n  swap3\n  pop\n    /* \"#utility.yul\":1245:1562   */\n  pop\n  pop\n    /* \"#utility.yul\":1169:1562   */\n  swap4\n  swap3\n  pop\n  pop\n  pop\n  jump\t// out\n    /* \"#utility.yul\":1568:1645   */\ntag_38:\n    /* \"#utility.yul\":1605:1612   */\n  0x00\n    /* \"#utility.yul\":1634:1639   */\n  dup2\n    /* \"#utility.yul\":1623:1639   */\n  swap1\n  pop\n    /* \"#utility.yul\":1568:1645   */\n  swap2\n  swap1\n  pop\n  jump\t// out\n    /* \"#utility.yul\":1651:1711   */\ntag_39:\n    /* \"#utility.yul\":1679:1682   */\n  0x00\n    /* \"#utility.yul\":1700:1705   */\n  dup2\n    /* \"#utility.yul\":1693:1705   */\n  swap1\n  pop\n    /* \"#utility.yul\":1651:1711   */\n  swap2\n  swap1\n  pop\n  jump\t// out\n    /* \"#utility.yul\":1717:1859   */\ntag_40:\n    /* \"#utility.yul\":1767:1776   */\n  0x00\n    /* \"#utility.yul\":1800:1853   */\n  tag_67\n    /* \"#utility.yul\":1818:1852   */\n  tag_68\n    /* \"#utility.yul\":1827:1851   */\n  tag_69\n    /* \"#utility.yul\":1845:1850   */\n  dup5\n    /* \"#utility.yul\":1827:1851   */\n  tag_38\n  jump\t// in\ntag_69:\n    /* \"#utility.yul\":1818:1852   */\n  tag_39\n  jump\t// in\ntag_68:\n    /* \"#utility.yul\":1800:1853   */\n  tag_38\n  jump\t// in\ntag_67:\n    /* \"#utility.yul\":1787:1853   */\n  swap1\n  pop\n    /* \"#utility.yul\":1717:1859   */\n  swap2\n  swap1\n  pop\n  jump\t// out\n    /* \"#utility.yul\":1865:1940   */\ntag_41:\n    /* \"#utility.yul\":1908:1911   */\n  0x00\n    /* \"#utility.yul\":1929:1934   */\n  dup2\n    /* \"#utility.yul\":1922:1934   */\n  swap1\n  pop\n    /* \"#utility.yul\":1865:1940   */\n  swap2\n  swap1\n  pop\n  jump\t// out\n    /* \"#utility.yul\":1946:2215   */\ntag_42:\n    /* \"#utility.yul\":2056:2095   */\n  tag_72\n    /* \"#utility.yul\":2087:2094   */\n  dup4\n    /* \"#utility.yul\":2056:2095   */\n  tag_40\n  jump\t// in\ntag_72:\n    /* \"#utility.yul\":2117:2208   */\n  tag_73\n    /* \"#utility.yul\":2166:2207   */\n  tag_74\n    /* \"#utility.yul\":2190:2206   */\n  dup3\n    /* \"#utility.yul\":2166:2207   */\n  tag_41\n  jump\t// in\ntag_74:\n    /* \"#utility.yul\":2158:2164   */\n  dup5\n    /* \"#utility.yul\":2151:2155   */\n  dup5\n    /* \"#utility.yul\":2145:2156   */\n  sload\n    /* \"#utility.yul\":2117:2208   */\n  tag_37\n  jump\t// in\ntag_73:\n    /* \"#utility.yul\":2111:2115   */\n  dup3\n    /* \"#utility.yul\":2104:2209   */\n  sstore\n    /* \"#utility.yul\":2022:2215   */\n  pop\n    /* \"#utility.yul\":1946:2215   */\n  pop\n  pop\n  pop\n  jump\t// out\n    /* \"#utility.yul\":2221:2294   */\ntag_43:\n    /* \"#utility.yul\":2266:2269   */\n  0x00\n    /* \"#utility.yul\":2221:2294   */\n  swap1\n  jump\t// out\n    /* \"#utility.yul\":2300:2489   */\ntag_44:\n    /* \"#utility.yul\":2377:2409   */\n  tag_77\n  tag_43\n  jump\t// in\ntag_77:\n    /* \"#utility.yul\":2418:2483   */\n  tag_78\n    /* \"#utility.yul\":2476:2482   */\n  dup2\n    /* \"#utility.yul\":2468:2474   */\n  dup5\n    /* \"#utility.yul\":2462:2466   */\n  dup5\n    /* \"#utility.yul\":2418:2483   */\n  tag_42\n  jump\t// in\ntag_78:\n    /* \"#utility.yul\":2353:2489   */\n  pop\n    /* \"#utility.yul\":2300:2489   */\n  pop\n  pop\n  jump\t// out\n    /* \"#utility.yul\":2495:2681   */\ntag_45:\n    /* \"#utility.yul\":2555:2675   */\ntag_80:\n    /* \"#utility.yul\":2572:2575   */\n  dup2\n    /* \"#utility.yul\":2565:2570   */\n  dup2\n    /* \"#utility.yul\":2562:2576   */\n  lt\n    /* \"#utility.yul\":2555:2675   */\n  iszero\n  tag_82\n  jumpi\n    /* \"#utility.yul\":2626:2665   */\n  tag_83\n    /* \"#utility.yul\":2663:2664   */\n  0x00\n    /* \"#utility.yul\":2656:2661   */\n  dup3\n    /* \"#utility.yul\":2626:2665   */\n  tag_44\n  jump\t// in\ntag_83:\n    /* \"#utility.yul\":2599:2600   */\n  0x01\n    /* \"#utility.yul\":2592:2597   */\n  dup2\n    /* \"#utility.yul\":2588:2601   */\n  add\n    /* \"#utility.yul\":2579:2601   */\n  swap1\n  pop\n    /* \"#utility.yul\":2555:2675   */\n  jump(tag_80)\ntag_82:\n    /* \"#utility.yul\":2495:2681   */\n  pop\n  pop\n  jump\t// out\n    /* \"#utility.yul\":2687:3230   */\ntag_46:\n    /* \"#utility.yul\":2788:2790   */\n  0x1f\n    /* \"#utility.yul\":2783:2786   */\n  dup3\n    /* \"#utility.yul\":2780:2791   */\n  gt\n    /* \"#utility.yul\":2777:3223   */\n  iszero\n  tag_85\n  jumpi\n    /* \"#utility.yul\":2822:2860   */\n  tag_86\n    /* \"#utility.yul\":2854:2859   */\n  dup2\n    /* \"#utility.yul\":2822:2860   */\n  tag_34\n  jump\t// in\ntag_86:\n    /* \"#utility.yul\":2906:2935   */\n  tag_87\n    /* \"#utility.yul\":2924:2934   */\n  dup5\n    /* \"#utility.yul\":2906:2935   */\n  tag_35\n  jump\t// in\ntag_87:\n    /* \"#utility.yul\":2896:2904   */\n  dup2\n    /* \"#utility.yul\":2892:2936   */\n  add\n    /* \"#utility.yul\":3089:3091   */\n  0x20\n    /* \"#utility.yul\":3077:3087   */\n  dup6\n    /* \"#utility.yul\":3074:3092   */\n  lt\n    /* \"#utility.yul\":3071:3120   */\n  iszero\n  tag_88\n  jumpi\n    /* \"#utility.yul\":3110:3118   */\n  dup2\n    /* \"#utility.yul\":3095:3118   */\n  swap1\n  pop\n    /* \"#utility.yul\":3071:3120   */\ntag_88:\n    /* \"#utility.yul\":3133:3213   */\n  tag_89\n    /* \"#utility.yul\":3189:3211   */\n  tag_90\n    /* \"#utility.yul\":3207:3210   */\n  dup6\n    /* \"#utility.yul\":3189:3211   */\n  tag_35\n  jump\t// in\ntag_90:\n    /* \"#utility.yul\":3179:3187   */\n  dup4\n    /* \"#utility.yul\":3175:3212   */\n  add\n    /* \"#utility.yul\":3162:3173   */\n  dup3\n    /* \"#utility.yul\":3133:3213   */\n  tag_45\n  jump\t// in\ntag_89:\n    /* \"#utility.yul\":2792:3223   */\n  pop\n  pop\n    /* \"#utility.yul\":2777:3223   */\ntag_85:\n    /* \"#utility.yul\":2687:3230   */\n  pop\n  pop\n  pop\n  jump\t// out\n    /* \"#utility.yul\":3236:3353   */\ntag_47:\n    /* \"#utility.yul\":3290:3298   */\n  0x00\n    /* \"#utility.yul\":3340:3345   */\n  dup3\n    /* \"#utility.yul\":3334:3338   */\n  dup3\n    /* \"#utility.yul\":3330:3346   */\n  shr\n    /* \"#utility.yul\":3309:3346   */\n  swap1\n  pop\n    /* \"#utility.yul\":3236:3353   */\n  swap3\n  swap2\n  pop\n  pop\n  jump\t// out\n    /* \"#utility.yul\":3359:3528   */\ntag_48:\n    /* \"#utility.yul\":3403:3409   */\n  0x00\n    /* \"#utility.yul\":3436:3487   */\n  tag_93\n    /* \"#utility.yul\":3484:3485   */\n  0x00\n    /* \"#utility.yul\":3480:3486   */\n  not\n    /* \"#utility.yul\":3472:3477   */\n  dup5\n    /* \"#utility.yul\":3469:3470   */\n  0x08\n    /* \"#utility.yul\":3465:3478   */\n  mul\n    /* \"#utility.yul\":3436:3487   */\n  tag_47\n  jump\t// in\ntag_93:\n    /* \"#utility.yul\":3432:3488   */\n  not\n    /* \"#utility.yul\":3517:3521   */\n  dup1\n    /* \"#utility.yul\":3511:3515   */\n  dup4\n    /* \"#utility.yul\":3507:3522   */\n  and\n    /* \"#utility.yul\":3497:3522   */\n  swap2\n  pop\n    /* \"#utility.yul\":3410:3528   */\n  pop\n    /* \"#utility.yul\":3359:3528   */\n  swap3\n  swap2\n  pop\n  pop\n  jump\t// out\n    /* \"#utility.yul\":3533:3828   */\ntag_49:\n    /* \"#utility.yul\":3609:3613   */\n  0x00\n    /* \"#utility.yul\":3755:3784   */\n  tag_95\n    /* \"#utility.yul\":3780:3783   */\n  dup4\n    /* \"#utility.yul\":3774:3778   */\n  dup4\n    /* \"#utility.yul\":3755:3784   */\n  tag_48\n  jump\t// in\ntag_95:\n    /* \"#utility.yul\":3747:3784   */\n  swap2\n  pop\n    /* \"#utility.yul\":3817:3820   */\n  dup3\n    /* \"#utility.yul\":3814:3815   */\n  0x02\n    /* \"#utility.yul\":3810:3821   */\n  mul\n    /* \"#utility.yul\":3804:3808   */\n  dup3\n    /* \"#utility.yul\":3801:3822   */\n  or\n    /* \"#utility.yul\":3793:3822   */\n  swap1\n  pop\n    /* \"#utility.yul\":3533:3828   */\n  swap3\n  swap2\n  pop\n  pop\n  jump\t// out\n    /* \"#utility.yul\":3833:5228   */\ntag_11:\n    /* \"#utility.yul\":3950:3987   */\n  tag_97\n    /* \"#utility.yul\":3983:3986   */\n  dup3\n    /* \"#utility.yul\":3950:3987   */\n  tag_31\n  jump\t// in\ntag_97:\n    /* \"#utility.yul\":4052:4070   */\n  0xffffffffffffffff\n    /* \"#utility.yul\":4044:4050   */\n  dup2\n    /* \"#utility.yul\":4041:4071   */\n  gt\n    /* \"#utility.yul\":4038:4094   */\n  iszero\n  tag_98\n  jumpi\n    /* \"#utility.yul\":4074:4092   */\n  tag_99\n  tag_32\n  jump\t// in\ntag_99:\n    /* \"#utility.yul\":4038:4094   */\ntag_98:\n    /* \"#utility.yul\":4118:4156   */\n  tag_100\n    /* \"#utility.yul\":4150:4154   */\n  dup3\n    /* \"#utility.yul\":4144:4155   */\n  sload\n    /* \"#utility.yul\":4118:4156   */\n  tag_24\n  jump\t// in\ntag_100:\n    /* \"#utility.yul\":4203:4270   */\n  tag_101\n    /* \"#utility.yul\":4263:4269   */\n  dup3\n    /* \"#utility.yul\":4255:4261   */\n  dup3\n    /* \"#utility.yul\":4249:4253   */\n  dup6\n    /* \"#utility.yul\":4203:4270   */\n  tag_46\n  jump\t// in\ntag_101:\n    /* \"#utility.yul\":4297:4298   */\n  0x00\n    /* \"#utility.yul\":4321:4325   */\n  0x20\n    /* \"#utility.yul\":4308:4325   */\n  swap1\n  pop\n    /* \"#utility.yul\":4353:4355   */\n  0x1f\n    /* \"#utility.yul\":4345:4351   */\n  dup4\n    /* \"#utility.yul\":4342:4356   */\n  gt\n    /* \"#utility.yul\":4370:4371   */\n  0x01\n    /* \"#utility.yul\":4365:4983   */\n  dup2\n  eq\n  tag_103\n  jumpi\n    /* \"#utility.yul\":5027:5028   */\n  0x00\n    /* \"#utility.yul\":5044:5050   */\n  dup5\n    /* \"#utility.yul\":5041:5118   */\n  iszero\n  tag_104\n  jumpi\n    /* \"#utility.yul\":5093:5102   */\n  dup3\n    /* \"#utility.yul\":5088:5091   */\n  dup8\n    /* \"#utility.yul\":5084:5103   */\n  add\n    /* \"#utility.yul\":5078:5104   */\n  mload\n    /* \"#utility.yul\":5069:5104   */\n  swap1\n  pop\n    /* \"#utility.yul\":5041:5118   */\ntag_104:\n    /* \"#utility.yul\":5144:5211   */\n  tag_105\n    /* \"#utility.yul\":5204:5210   */\n  dup6\n    /* \"#utility.yul\":5197:5202   */\n  dup3\n    /* \"#utility.yul\":5144:5211   */\n  tag_49\n  jump\t// in\ntag_105:\n    /* \"#utility.yul\":5138:5142   */\n  dup7\n    /* \"#utility.yul\":5131:5212   */\n  sstore\n    /* \"#utility.yul\":5000:5222   */\n  pop\n    /* \"#utility.yul\":4335:5222   */\n  jump(tag_102)\n    /* \"#utility.yul\":4365:4983   */\ntag_103:\n    /* \"#utility.yul\":4417:4421   */\n  0x1f\n    /* \"#utility.yul\":4413:4422   */\n  not\n    /* \"#utility.yul\":4405:4411   */\n  dup5\n    /* \"#utility.yul\":4401:4423   */\n  and\n    /* \"#utility.yul\":4451:4488   */\n  tag_106\n    /* \"#utility.yul\":4483:4487   */\n  dup7\n    /* \"#utility.yul\":4451:4488   */\n  tag_34\n  jump\t// in\ntag_106:\n    /* \"#utility.yul\":4510:4511   */\n  0x00\n    /* \"#utility.yul\":4524:4732   */\ntag_107:\n    /* \"#utility.yul\":4538:4545   */\n  dup3\n    /* \"#utility.yul\":4535:4536   */\n  dup2\n    /* \"#utility.yul\":4532:4546   */\n  lt\n    /* \"#utility.yul\":4524:4732   */\n  iszero\n  tag_109\n  jumpi\n    /* \"#utility.yul\":4617:4626   */\n  dup5\n    /* \"#utility.yul\":4612:4615   */\n  dup10\n    /* \"#utility.yul\":4608:4627   */\n  add\n    /* \"#utility.yul\":4602:4628   */\n  mload\n    /* \"#utility.yul\":4594:4600   */\n  dup3\n    /* \"#utility.yul\":4587:4629   */\n  sstore\n    /* \"#utility.yul\":4668:4669   */\n  0x01\n    /* \"#utility.yul\":4660:4666   */\n  dup3\n    /* \"#utility.yul\":4656:4670   */\n  add\n    /* \"#utility.yul\":4646:4670   */\n  swap2\n  pop\n    /* \"#utility.yul\":4715:4717   */\n  0x20\n    /* \"#utility.yul\":4704:4713   */\n  dup6\n    /* \"#utility.yul\":4700:4718   */\n  add\n    /* \"#utility.yul\":4687:4718   */\n  swap5\n  pop\n    /* \"#utility.yul\":4561:4565   */\n  0x20\n    /* \"#utility.yul\":4558:4559   */\n  dup2\n    /* \"#utility.yul\":4554:4566   */\n  add\n    /* \"#utility.yul\":4549:4566   */\n  swap1\n  pop\n    /* \"#utility.yul\":4524:4732   */\n  jump(tag_107)\ntag_109:\n    /* \"#utility.yul\":4760:4766   */\n  dup7\n    /* \"#utility.yul\":4751:4758   */\n  dup4\n    /* \"#utility.yul\":4748:4767   */\n  lt\n    /* \"#utility.yul\":4745:4924   */\n  iszero\n  tag_110\n  jumpi\n    /* \"#utility.yul\":4818:4827   */\n  dup5\n    /* \"#utility.yul\":4813:4816   */\n  dup10\n    /* \"#utility.yul\":4809:4828   */\n  add\n    /* \"#utility.yul\":4803:4829   */\n  mload\n    /* \"#utility.yul\":4861:4909   */\n  tag_111\n    /* \"#utility.yul\":4903:4907   */\n  0x1f\n    /* \"#utility.yul\":4895:4901   */\n  dup10\n    /* \"#utility.yul\":4891:4908   */\n  and\n    /* \"#utility.yul\":4880:4889   */\n  dup3\n    /* \"#utility.yul\":4861:4909   */\n  tag_48\n  jump\t// in\ntag_111:\n    /* \"#utility.yul\":4853:4859   */\n  dup4\n    /* \"#utility.yul\":4846:4910   */\n  sstore\n    /* \"#utility.yul\":4768:4924   */\n  pop\n    /* \"#utility.yul\":4745:4924   */\ntag_110:\n    /* \"#utility.yul\":4970:4971   */\n  0x01\n    /* \"#utility.yul\":4966:4967   */\n  0x02\n    /* \"#utility.yul\":4958:4964   */\n  dup9\n    /* \"#utility.yul\":4954:4968   */\n  mul\n    /* \"#utility.yul\":4950:4972   */\n  add\n    /* \"#utility.yul\":4944:4948   */\n  dup9\n    /* \"#utility.yul\":4937:4973   */\n  sstore\n    /* \"#utility.yul\":4372:4983   */\n  pop\n  pop\n  pop\n    /* \"#utility.yul\":4335:5222   */\ntag_102:\n  pop\n    /* \"#utility.yul\":3925:5228   */\n  pop\n  pop\n  pop\n    /* \"#utility.yul\":3833:5228   */\n  pop\n  pop\n  jump\t// out\n    /* \"contracts/hangman2.sol\":60:6647  contract Hangman {... */\ntag_6:\n  dataSize(sub_0)\n  dup1\n  dataOffset(sub_0)\n  0x00\n  codecopy\n  0x00\n  return\nstop\n\nsub_0: assembly {\n        /* \"contracts/hangman2.sol\":60:6647  contract Hangman {... */\n      mstore(0x40, 0x80)\n      callvalue\n      dup1\n      iszero\n      tag_1\n      jumpi\n      0x00\n      dup1\n      revert\n    tag_1:\n      pop\n      jumpi(tag_2, lt(calldatasize, 0x04))\n      shr(0xe0, calldataload(0x00))\n      dup1\n      0x2b6055df\n      eq\n      tag_3\n      jumpi\n      dup1\n      0x4eee59b3\n      eq\n      tag_4\n      jumpi\n      dup1\n      0xb7d0628b\n      eq\n      tag_5\n      jumpi\n      dup1\n      0xd65ab5f2\n      eq\n      tag_6\n      jumpi\n      dup1\n      0xfc2b8cc3\n      eq\n      tag_7\n      jumpi\n    tag_2:\n      0x00\n      dup1\n      revert\n        /* \"contracts/hangman2.sol\":5415:5965  function checkGameTimeout() public {... */\n    tag_3:\n      tag_8\n      tag_9\n      jump\t// in\n    tag_8:\n      stop\n        /* \"contracts/hangman2.sol\":3866:5249  function guess(string memory input) public returns (string memory, uint, string memory, string memory) {... */\n    tag_4:\n      tag_10\n      0x04\n      dup1\n      calldatasize\n      sub\n      dup2\n      add\n      swap1\n      tag_11\n      swap2\n      swap1\n      tag_12\n      jump\t// in\n    tag_11:\n      tag_13\n      jump\t// in\n    tag_10:\n      mload(0x40)\n      tag_14\n      swap5\n      swap4\n      swap3\n      swap2\n      swap1\n      tag_15\n      jump\t// in\n    tag_14:\n      mload(0x40)\n      dup1\n      swap2\n      sub\n      swap1\n      return\n        /* \"contracts/hangman2.sol\":2878:3061  function getGameState() public view returns (string memory, uint, string memory, string memory) {... */\n    tag_5:\n      tag_16\n      tag_17\n      jump\t// in\n    tag_16:\n      mload(0x40)\n      tag_18\n      swap5\n      swap4\n      swap3\n      swap2\n      swap1\n      tag_15\n      jump\t// in\n    tag_18:\n      mload(0x40)\n      dup1\n      swap2\n      sub\n      swap1\n      return\n        /* \"contracts/hangman2.sol\":1919:2870  function startGame() public {... */\n    tag_6:\n      tag_19\n      tag_20\n      jump\t// in\n    tag_19:\n      stop\n        /* \"contracts/hangman2.sol\":5973:6138  function quit() public {... */\n    tag_7:\n      tag_21\n      tag_22\n      jump\t// in\n    tag_21:\n      stop\n        /* \"contracts/hangman2.sol\":5415:5965  function checkGameTimeout() public {... */\n    tag_9:\n        /* \"contracts/hangman2.sol\":5469:5479  gameActive */\n      0x36\n      0x00\n      swap1\n      sload\n      swap1\n      0x0100\n      exp\n      swap1\n      div\n      0xff\n      and\n        /* \"contracts/hangman2.sol\":5461:5506  require(gameActive, \"No active game to end.\") */\n      tag_24\n      jumpi\n      mload(0x40)\n      0x08c379a000000000000000000000000000000000000000000000000000000000\n      dup2\n      mstore\n      0x04\n      add\n      tag_25\n      swap1\n      tag_26\n      jump\t// in\n    tag_25:\n      mload(0x40)\n      dup1\n      swap2\n      sub\n      swap1\n      revert\n    tag_24:\n        /* \"contracts/hangman2.sol\":5555:5567  gameDuration */\n      sload(0x38)\n        /* \"contracts/hangman2.sol\":5539:5552  gameStartTime */\n      sload(0x37)\n        /* \"contracts/hangman2.sol\":5539:5567  gameStartTime + gameDuration */\n      tag_27\n      swap2\n      swap1\n      tag_28\n      jump\t// in\n    tag_27:\n        /* \"contracts/hangman2.sol\":5521:5536  block.timestamp */\n      timestamp\n        /* \"contracts/hangman2.sol\":5521:5567  block.timestamp > gameStartTime + gameDuration */\n      gt\n        /* \"contracts/hangman2.sol\":5517:5958  if (block.timestamp > gameStartTime + gameDuration) {... */\n      iszero\n      tag_29\n      jumpi\n        /* \"contracts/hangman2.sol\":5589:5624  GameTimeLeft(\"Time limit reached.\") */\n      0xaf1ade955695dd7cb8833b69ad71fc489f552aca5609812e9f4567e5e45088\n      mload(0x40)\n      tag_30\n      swap1\n      tag_31\n      jump\t// in\n    tag_30:\n      mload(0x40)\n      dup1\n      swap2\n      sub\n      swap1\n      log1\n        /* \"contracts/hangman2.sol\":5652:5657  false */\n      0x00\n        /* \"contracts/hangman2.sol\":5639:5649  gameActive */\n      0x36\n      0x00\n        /* \"contracts/hangman2.sol\":5639:5657  gameActive = false */\n      0x0100\n      exp\n      dup2\n      sload\n      dup2\n      0xff\n      mul\n      not\n      and\n      swap1\n      dup4\n      iszero\n      iszero\n      mul\n      or\n      swap1\n      sstore\n      pop\n        /* \"contracts/hangman2.sol\":5677:5736  GameEnded(\"Game over. You didn't finish the game in time.\") */\n      0x056e3895424a85ef26c4c78d9988dea28d97c77c140b919289906403e8017170\n      mload(0x40)\n      tag_32\n      swap1\n      tag_33\n      jump\t// in\n    tag_32:\n      mload(0x40)\n      dup1\n      swap2\n      sub\n      swap1\n      log1\n        /* \"contracts/hangman2.sol\":5517:5958  if (block.timestamp > gameStartTime + gameDuration) {... */\n      jump(tag_34)\n    tag_29:\n        /* \"contracts/hangman2.sol\":5769:5785  uint256 timeLeft */\n      0x00\n        /* \"contracts/hangman2.sol\":5819:5834  block.timestamp */\n      timestamp\n        /* \"contracts/hangman2.sol\":5804:5816  gameDuration */\n      sload(0x38)\n        /* \"contracts/hangman2.sol\":5788:5801  gameStartTime */\n      sload(0x37)\n        /* \"contracts/hangman2.sol\":5788:5816  gameStartTime + gameDuration */\n      tag_35\n      swap2\n      swap1\n      tag_28\n      jump\t// in\n    tag_35:\n        /* \"contracts/hangman2.sol\":5788:5834  gameStartTime + gameDuration - block.timestamp */\n      tag_36\n      swap2\n      swap1\n      tag_37\n      jump\t// in\n    tag_36:\n        /* \"contracts/hangman2.sol\":5769:5834  uint256 timeLeft = gameStartTime + gameDuration - block.timestamp */\n      swap1\n      pop\n        /* \"contracts/hangman2.sol\":5854:5946  GameTimeLeft(string(abi.encodePacked(\"You have \", uintToString(timeLeft), \" seconds left\"))) */\n      0xaf1ade955695dd7cb8833b69ad71fc489f552aca5609812e9f4567e5e45088\n        /* \"contracts/hangman2.sol\":5904:5926  uintToString(timeLeft) */\n      tag_38\n        /* \"contracts/hangman2.sol\":5917:5925  timeLeft */\n      dup3\n        /* \"contracts/hangman2.sol\":5904:5916  uintToString */\n      tag_39\n        /* \"contracts/hangman2.sol\":5904:5926  uintToString(timeLeft) */\n      jump\t// in\n    tag_38:\n        /* \"contracts/hangman2.sol\":5874:5944  abi.encodePacked(\"You have \", uintToString(timeLeft), \" seconds left\") */\n      add(0x20, mload(0x40))\n      tag_40\n      swap2\n      swap1\n      tag_41\n      jump\t// in\n    tag_40:\n      mload(0x40)\n      0x20\n      dup2\n      dup4\n      sub\n      sub\n      dup2\n      mstore\n      swap1\n      0x40\n      mstore\n        /* \"contracts/hangman2.sol\":5854:5946  GameTimeLeft(string(abi.encodePacked(\"You have \", uintToString(timeLeft), \" seconds left\"))) */\n      mload(0x40)\n      tag_42\n      swap2\n      swap1\n      tag_43\n      jump\t// in\n    tag_42:\n      mload(0x40)\n      dup1\n      swap2\n      sub\n      swap1\n      log1\n        /* \"contracts/hangman2.sol\":5754:5958  {... */\n      pop\n        /* \"contracts/hangman2.sol\":5517:5958  if (block.timestamp > gameStartTime + gameDuration) {... */\n    tag_34:\n        /* \"contracts/hangman2.sol\":5415:5965  function checkGameTimeout() public {... */\n      jump\t// out\n        /* \"contracts/hangman2.sol\":3866:5249  function guess(string memory input) public returns (string memory, uint, string memory, string memory) {... */\n    tag_13:\n        /* \"contracts/hangman2.sol\":3918:3931  string memory */\n      0x60\n        /* \"contracts/hangman2.sol\":3933:3937  uint */\n      0x00\n        /* \"contracts/hangman2.sol\":3939:3952  string memory */\n      0x60\n        /* \"contracts/hangman2.sol\":3954:3967  string memory */\n      dup1\n        /* \"contracts/hangman2.sol\":3980:4003  bytes memory inputBytes */\n      0x00\n        /* \"contracts/hangman2.sol\":4012:4017  input */\n      dup6\n        /* \"contracts/hangman2.sol\":3980:4018  bytes memory inputBytes = bytes(input) */\n      swap1\n      pop\n        /* \"contracts/hangman2.sol\":4058:4059  1 */\n      0x01\n        /* \"contracts/hangman2.sol\":4037:4047  inputBytes */\n      dup2\n        /* \"contracts/hangman2.sol\":4037:4054  inputBytes.length */\n      mload\n        /* \"contracts/hangman2.sol\":4037:4059  inputBytes.length == 1 */\n      eq\n        /* \"contracts/hangman2.sol\":4029:4096  require(inputBytes.length == 1, \"Input must be a single character\") */\n      tag_45\n      jumpi\n      mload(0x40)\n      0x08c379a000000000000000000000000000000000000000000000000000000000\n      dup2\n      mstore\n      0x04\n      add\n      tag_46\n      swap1\n      tag_47\n      jump\t// in\n    tag_46:\n      mload(0x40)\n      dup1\n      swap2\n      sub\n      swap1\n      revert\n    tag_45:\n        /* \"contracts/hangman2.sol\":4109:4126  bool correctGuess */\n      0x00\n        /* \"contracts/hangman2.sol\":4145:4170  bytes memory hangmanBytes */\n      dup1\n        /* \"contracts/hangman2.sol\":4179:4190  hangmanWord */\n      0x33\n        /* \"contracts/hangman2.sol\":4145:4191  bytes memory hangmanBytes = bytes(hangmanWord) */\n      dup1\n      sload\n      tag_48\n      swap1\n      tag_49\n      jump\t// in\n    tag_48:\n      dup1\n      0x1f\n      add\n      0x20\n      dup1\n      swap2\n      div\n      mul\n      0x20\n      add\n      mload(0x40)\n      swap1\n      dup2\n      add\n      0x40\n      mstore\n      dup1\n      swap3\n      swap2\n      swap1\n      dup2\n      dup2\n      mstore\n      0x20\n      add\n      dup3\n      dup1\n      sload\n      tag_50\n      swap1\n      tag_49\n      jump\t// in\n    tag_50:\n      dup1\n      iszero\n      tag_51\n      jumpi\n      dup1\n      0x1f\n      lt\n      tag_52\n      jumpi\n      0x0100\n      dup1\n      dup4\n      sload\n      div\n      mul\n      dup4\n      mstore\n      swap2\n      0x20\n      add\n      swap2\n      jump(tag_51)\n    tag_52:\n      dup3\n      add\n      swap2\n      swap1\n      0x00\n      mstore\n      keccak256(0x00, 0x20)\n      swap1\n    tag_53:\n      dup2\n      sload\n      dup2\n      mstore\n      swap1\n      0x01\n      add\n      swap1\n      0x20\n      add\n      dup1\n      dup4\n      gt\n      tag_53\n      jumpi\n      dup3\n      swap1\n      sub\n      0x1f\n      and\n      dup3\n      add\n      swap2\n    tag_51:\n      pop\n      pop\n      pop\n      pop\n      pop\n      swap1\n      pop\n        /* \"contracts/hangman2.sol\":4209:4215  uint i */\n      0x00\n        /* \"contracts/hangman2.sol\":4204:4429  for (uint i = 0; i < bytes(currWord).length; i++) {... */\n    tag_54:\n        /* \"contracts/hangman2.sol\":4231:4239  currWord */\n      0x32\n        /* \"contracts/hangman2.sol\":4225:4247  bytes(currWord).length */\n      dup1\n      sload\n      tag_57\n      swap1\n      tag_49\n      jump\t// in\n    tag_57:\n      swap1\n      pop\n        /* \"contracts/hangman2.sol\":4221:4222  i */\n      dup2\n        /* \"contracts/hangman2.sol\":4221:4247  i < bytes(currWord).length */\n      lt\n        /* \"contracts/hangman2.sol\":4204:4429  for (uint i = 0; i < bytes(currWord).length; i++) {... */\n      iszero\n      tag_55\n      jumpi\n        /* \"contracts/hangman2.sol\":4295:4305  inputBytes */\n      dup4\n        /* \"contracts/hangman2.sol\":4306:4307  0 */\n      0x00\n        /* \"contracts/hangman2.sol\":4295:4308  inputBytes[0] */\n      dup2\n      mload\n      dup2\n      lt\n      tag_58\n      jumpi\n      tag_59\n      tag_60\n      jump\t// in\n    tag_59:\n    tag_58:\n      0x20\n      add\n      add\n      mload\n      0xf8\n      shr\n      0xf8\n      shl\n        /* \"contracts/hangman2.sol\":4273:4308  bytes(currWord)[i] == inputBytes[0] */\n      not(0xffffffffffffffffffffffffffffffffffffffffffffffffffffffffffffff)\n      and\n        /* \"contracts/hangman2.sol\":4279:4287  currWord */\n      0x32\n        /* \"contracts/hangman2.sol\":4289:4290  i */\n      dup3\n        /* \"contracts/hangman2.sol\":4273:4291  bytes(currWord)[i] */\n      dup2\n      sload\n      tag_61\n      swap1\n      tag_49\n      jump\t// in\n    tag_61:\n      dup2\n      lt\n      tag_62\n      jumpi\n      tag_63\n      tag_60\n      jump\t// in\n    tag_63:\n    tag_62:\n      dup2\n      sload\n      0x01\n      and\n      iszero\n      tag_64\n      jumpi\n      swap1\n      0x00\n      mstore\n      keccak256(0x00, 0x20)\n      swap1\n      0x20\n      swap2\n      dup3\n      dup3\n      div\n      add\n      swap2\n      swap1\n      mod\n    tag_64:\n      swap1\n      sload\n      swap1\n      byte\n      0x0100000000000000000000000000000000000000000000000000000000000000\n      mul\n        /* \"contracts/hangman2.sol\":4273:4308  bytes(currWord)[i] == inputBytes[0] */\n      not(0xffffffffffffffffffffffffffffffffffffffffffffffffffffffffffffff)\n      and\n      sub\n        /* \"contracts/hangman2.sol\":4269:4418  if (bytes(currWord)[i] == inputBytes[0]) {... */\n      tag_65\n      jumpi\n        /* \"contracts/hangman2.sol\":4351:4361  inputBytes */\n      dup4\n        /* \"contracts/hangman2.sol\":4362:4363  0 */\n      0x00\n        /* \"contracts/hangman2.sol\":4351:4364  inputBytes[0] */\n      dup2\n      mload\n      dup2\n      lt\n      tag_66\n      jumpi\n      tag_67\n      tag_60\n      jump\t// in\n    tag_67:\n    tag_66:\n      0x20\n      add\n      add\n      mload\n      0xf8\n      shr\n      0xf8\n      shl\n        /* \"contracts/hangman2.sol\":4329:4341  hangmanBytes */\n      dup3\n        /* \"contracts/hangman2.sol\":4346:4347  2 */\n      0x02\n        /* \"contracts/hangman2.sol\":4342:4343  i */\n      dup4\n        /* \"contracts/hangman2.sol\":4342:4347  i * 2 */\n      tag_68\n      swap2\n      swap1\n      tag_69\n      jump\t// in\n    tag_68:\n        /* \"contracts/hangman2.sol\":4329:4348  hangmanBytes[i * 2] */\n      dup2\n      mload\n      dup2\n      lt\n      tag_70\n      jumpi\n      tag_71\n      tag_60\n      jump\t// in\n    tag_71:\n    tag_70:\n      0x20\n      add\n      add\n        /* \"contracts/hangman2.sol\":4329:4364  hangmanBytes[i * 2] = inputBytes[0] */\n      swap1\n      not(0xffffffffffffffffffffffffffffffffffffffffffffffffffffffffffffff)\n      and\n      swap1\n      dup2\n      0x00\n      byte\n      swap1\n      mstore8\n      pop\n        /* \"contracts/hangman2.sol\":4398:4402  true */\n      0x01\n        /* \"contracts/hangman2.sol\":4383:4402  correctGuess = true */\n      swap3\n      pop\n        /* \"contracts/hangman2.sol\":4269:4418  if (bytes(currWord)[i] == inputBytes[0]) {... */\n    tag_65:\n        /* \"contracts/hangman2.sol\":4249:4252  i++ */\n      dup1\n      dup1\n      0x01\n      add\n      swap2\n      pop\n      pop\n        /* \"contracts/hangman2.sol\":4204:4429  for (uint i = 0; i < bytes(currWord).length; i++) {... */\n      jump(tag_54)\n    tag_55:\n      pop\n        /* \"contracts/hangman2.sol\":4462:4474  hangmanBytes */\n      dup1\n        /* \"contracts/hangman2.sol\":4441:4452  hangmanWord */\n      0x33\n        /* \"contracts/hangman2.sol\":4441:4475  hangmanWord = string(hangmanBytes) */\n      swap1\n      dup2\n      tag_72\n      swap2\n      swap1\n      tag_73\n      jump\t// in\n    tag_72:\n      pop\n        /* \"contracts/hangman2.sol\":4493:4505  correctGuess */\n      dup2\n        /* \"contracts/hangman2.sol\":4488:5073  if (!correctGuess) {... */\n      tag_74\n      jumpi\n        /* \"contracts/hangman2.sol\":4527:4556  contains(wrongGuesses, input) */\n      tag_75\n        /* \"contracts/hangman2.sol\":4536:4548  wrongGuesses */\n      0x35\n        /* \"contracts/hangman2.sol\":4527:4556  contains(wrongGuesses, input) */\n      dup1\n      sload\n      tag_76\n      swap1\n      tag_49\n      jump\t// in\n    tag_76:\n      dup1\n      0x1f\n      add\n      0x20\n      dup1\n      swap2\n      div\n      mul\n      0x20\n      add\n      mload(0x40)\n      swap1\n      dup2\n      add\n      0x40\n      mstore\n      dup1\n      swap3\n      swap2\n      swap1\n      dup2\n      dup2\n      mstore\n      0x20\n      add\n      dup3\n      dup1\n      sload\n      tag_77\n      swap1\n      tag_49\n      jump\t// in\n    tag_77:\n      dup1\n      iszero\n      tag_78\n      jumpi\n      dup1\n      0x1f\n      lt\n      tag_79\n      jumpi\n      0x0100\n      dup1\n      dup4\n      sload\n      div\n      mul\n      dup4\n      mstore\n      swap2\n      0x20\n      add\n      swap2\n      jump(tag_78)\n    tag_79:\n      dup3\n      add\n      swap2\n      swap1\n      0x00\n      mstore\n      keccak256(0x00, 0x20)\n      swap1\n    tag_80:\n      dup2\n      sload\n      dup2\n      mstore\n      swap1\n      0x01\n      add\n      swap1\n      0x20\n      add\n      dup1\n      dup4\n      gt\n      tag_80\n      jumpi\n      dup3\n      swap1\n      sub\n      0x1f\n      and\n      dup3\n      add\n      swap2\n    tag_78:\n      pop\n      pop\n      pop\n      pop\n      pop\n        /* \"contracts/hangman2.sol\":4550:4555  input */\n      dup10\n        /* \"contracts/hangman2.sol\":4527:4535  contains */\n      tag_81\n        /* \"contracts/hangman2.sol\":4527:4556  contains(wrongGuesses, input) */\n      jump\t// in\n    tag_75:\n        /* \"contracts/hangman2.sol\":4522:4658  if (!contains(wrongGuesses, input)) {... */\n      tag_82\n      jumpi\n        /* \"contracts/hangman2.sol\":4616:4628  wrongGuesses */\n      0x35\n        /* \"contracts/hangman2.sol\":4630:4635  input */\n      dup9\n        /* \"contracts/hangman2.sol\":4599:4641  abi.encodePacked(wrongGuesses, input, \" \") */\n      add(0x20, mload(0x40))\n      tag_83\n      swap3\n      swap2\n      swap1\n      tag_84\n      jump\t// in\n    tag_83:\n      mload(0x40)\n      0x20\n      dup2\n      dup4\n      sub\n      sub\n      dup2\n      mstore\n      swap1\n      0x40\n      mstore\n        /* \"contracts/hangman2.sol\":4577:4589  wrongGuesses */\n      0x35\n        /* \"contracts/hangman2.sol\":4577:4642  wrongGuesses = string(abi.encodePacked(wrongGuesses, input, \" \")) */\n      swap1\n      dup2\n      tag_85\n      swap2\n      swap1\n      tag_73\n      jump\t// in\n    tag_85:\n      pop\n        /* \"contracts/hangman2.sol\":4522:4658  if (!contains(wrongGuesses, input)) {... */\n    tag_82:\n        /* \"contracts/hangman2.sol\":4672:4684  attemptsLeft */\n      0x34\n      0x00\n        /* \"contracts/hangman2.sol\":4672:4686  attemptsLeft-- */\n      dup2\n      sload\n      dup1\n      swap3\n      swap2\n      swap1\n      tag_86\n      swap1\n      tag_87\n      jump\t// in\n    tag_86:\n      swap2\n      swap1\n      pop\n      sstore\n      pop\n        /* \"contracts/hangman2.sol\":4723:4724  0 */\n      0x00\n        /* \"contracts/hangman2.sol\":4707:4719  attemptsLeft */\n      sload(0x34)\n        /* \"contracts/hangman2.sol\":4707:4724  attemptsLeft == 0 */\n      sub\n        /* \"contracts/hangman2.sol\":4703:5062  if (attemptsLeft == 0) {... */\n      tag_88\n      jumpi\n        /* \"contracts/hangman2.sol\":4758:4763  false */\n      0x00\n        /* \"contracts/hangman2.sol\":4745:4755  gameActive */\n      0x36\n      0x00\n        /* \"contracts/hangman2.sol\":4745:4763  gameActive = false */\n      0x0100\n      exp\n      dup2\n      sload\n      dup2\n      0xff\n      mul\n      not\n      and\n      swap1\n      dup4\n      iszero\n      iszero\n      mul\n      or\n      swap1\n      sstore\n      pop\n        /* \"contracts/hangman2.sol\":4808:4878  GuessMade(hangmanWord, attemptsLeft, wrongGuesses, getHangmanFigure()) */\n      0x1512161b9f23a85fd9ccec12d9cd3abeb7333bf293dc69250460c4c054a27fc6\n        /* \"contracts/hangman2.sol\":4818:4829  hangmanWord */\n      0x33\n        /* \"contracts/hangman2.sol\":4831:4843  attemptsLeft */\n      sload(0x34)\n        /* \"contracts/hangman2.sol\":4845:4857  wrongGuesses */\n      0x35\n        /* \"contracts/hangman2.sol\":4859:4877  getHangmanFigure() */\n      tag_89\n        /* \"contracts/hangman2.sol\":4859:4875  getHangmanFigure */\n      tag_90\n        /* \"contracts/hangman2.sol\":4859:4877  getHangmanFigure() */\n      jump\t// in\n    tag_89:\n        /* \"contracts/hangman2.sol\":4808:4878  GuessMade(hangmanWord, attemptsLeft, wrongGuesses, getHangmanFigure()) */\n      mload(0x40)\n      tag_91\n      swap5\n      swap4\n      swap3\n      swap2\n      swap1\n      tag_92\n      jump\t// in\n    tag_91:\n      mload(0x40)\n      dup1\n      swap2\n      sub\n      swap1\n      log1\n        /* \"contracts/hangman2.sol\":4902:4959  GameEnded(\"Game over. You don't have any attempts left.\") */\n      0x056e3895424a85ef26c4c78d9988dea28d97c77c140b919289906403e8017170\n      mload(0x40)\n      tag_93\n      swap1\n      tag_94\n      jump\t// in\n    tag_93:\n      mload(0x40)\n      dup1\n      swap2\n      sub\n      swap1\n      log1\n        /* \"contracts/hangman2.sol\":4986:4997  hangmanWord */\n      0x33\n        /* \"contracts/hangman2.sol\":4999:5011  attemptsLeft */\n      sload(0x34)\n        /* \"contracts/hangman2.sol\":5013:5025  wrongGuesses */\n      0x35\n        /* \"contracts/hangman2.sol\":5027:5045  getHangmanFigure() */\n      tag_95\n        /* \"contracts/hangman2.sol\":5027:5043  getHangmanFigure */\n      tag_90\n        /* \"contracts/hangman2.sol\":5027:5045  getHangmanFigure() */\n      jump\t// in\n    tag_95:\n        /* \"contracts/hangman2.sol\":4978:5046  return (hangmanWord, attemptsLeft, wrongGuesses, getHangmanFigure()) */\n      dup4\n      dup1\n      sload\n      tag_96\n      swap1\n      tag_49\n      jump\t// in\n    tag_96:\n      dup1\n      0x1f\n      add\n      0x20\n      dup1\n      swap2\n      div\n      mul\n      0x20\n      add\n      mload(0x40)\n      swap1\n      dup2\n      add\n      0x40\n      mstore\n      dup1\n      swap3\n      swap2\n      swap1\n      dup2\n      dup2\n      mstore\n      0x20\n      add\n      dup3\n      dup1\n      sload\n      tag_97\n      swap1\n      tag_49\n      jump\t// in\n    tag_97:\n      dup1\n      iszero\n      tag_98\n      jumpi\n      dup1\n      0x1f\n      lt\n      tag_99\n      jumpi\n      0x0100\n      dup1\n      dup4\n      sload\n      div\n      mul\n      dup4\n      mstore\n      swap2\n      0x20\n      add\n      swap2\n      jump(tag_98)\n    tag_99:\n      dup3\n      add\n      swap2\n      swap1\n      0x00\n      mstore\n      keccak256(0x00, 0x20)\n      swap1\n    tag_100:\n      dup2\n      sload\n      dup2\n      mstore\n      swap1\n      0x01\n      add\n      swap1\n      0x20\n      add\n      dup1\n      dup4\n      gt\n      tag_100\n      jumpi\n      dup3\n      swap1\n      sub\n      0x1f\n      and\n      dup3\n      add\n      swap2\n    tag_98:\n      pop\n      pop\n      pop\n      pop\n      pop\n      swap4\n      pop\n      dup2\n      dup1\n      sload\n      tag_101\n      swap1\n      tag_49\n      jump\t// in\n    tag_101:\n      dup1\n      0x1f\n      add\n      0x20\n      dup1\n      swap2\n      div\n      mul\n      0x20\n      add\n      mload(0x40)\n      swap1\n      dup2\n      add\n      0x40\n      mstore\n      dup1\n      swap3\n      swap2\n      swap1\n      dup2\n      dup2\n      mstore\n      0x20\n      add\n      dup3\n      dup1\n      sload\n      tag_102\n      swap1\n      tag_49\n      jump\t// in\n    tag_102:\n      dup1\n      iszero\n      tag_103\n      jumpi\n      dup1\n      0x1f\n      lt\n      tag_104\n      jumpi\n      0x0100\n      dup1\n      dup4\n      sload\n      div\n      mul\n      dup4\n      mstore\n      swap2\n      0x20\n      add\n      swap2\n      jump(tag_103)\n    tag_104:\n      dup3\n      add\n      swap2\n      swap1\n      0x00\n      mstore\n      keccak256(0x00, 0x20)\n      swap1\n    tag_105:\n      dup2\n      sload\n      dup2\n      mstore\n      swap1\n      0x01\n      add\n      swap1\n      0x20\n      add\n      dup1\n      dup4\n      gt\n      tag_105\n      jumpi\n      dup3\n      swap1\n      sub\n      0x1f\n      and\n      dup3\n      add\n      swap2\n    tag_103:\n      pop\n      pop\n      pop\n      pop\n      pop\n      swap2\n      pop\n      swap7\n      pop\n      swap7\n      pop\n      swap7\n      pop\n      swap7\n      pop\n      pop\n      pop\n      pop\n      jump(tag_44)\n        /* \"contracts/hangman2.sol\":4703:5062  if (attemptsLeft == 0) {... */\n    tag_88:\n        /* \"contracts/hangman2.sol\":4488:5073  if (!correctGuess) {... */\n    tag_74:\n        /* \"contracts/hangman2.sol\":5090:5160  GuessMade(hangmanWord, attemptsLeft, wrongGuesses, getHangmanFigure()) */\n      0x1512161b9f23a85fd9ccec12d9cd3abeb7333bf293dc69250460c4c054a27fc6\n        /* \"contracts/hangman2.sol\":5100:5111  hangmanWord */\n      0x33\n        /* \"contracts/hangman2.sol\":5113:5125  attemptsLeft */\n      sload(0x34)\n        /* \"contracts/hangman2.sol\":5127:5139  wrongGuesses */\n      0x35\n        /* \"contracts/hangman2.sol\":5141:5159  getHangmanFigure() */\n      tag_106\n        /* \"contracts/hangman2.sol\":5141:5157  getHangmanFigure */\n      tag_90\n        /* \"contracts/hangman2.sol\":5141:5159  getHangmanFigure() */\n      jump\t// in\n    tag_106:\n        /* \"contracts/hangman2.sol\":5090:5160  GuessMade(hangmanWord, attemptsLeft, wrongGuesses, getHangmanFigure()) */\n      mload(0x40)\n      tag_107\n      swap5\n      swap4\n      swap3\n      swap2\n      swap1\n      tag_92\n      jump\t// in\n    tag_107:\n      mload(0x40)\n      dup1\n      swap2\n      sub\n      swap1\n      log1\n        /* \"contracts/hangman2.sol\":5181:5192  hangmanWord */\n      0x33\n        /* \"contracts/hangman2.sol\":5194:5206  attemptsLeft */\n      sload(0x34)\n        /* \"contracts/hangman2.sol\":5208:5220  wrongGuesses */\n      0x35\n        /* \"contracts/hangman2.sol\":5222:5240  getHangmanFigure() */\n      tag_108\n        /* \"contracts/hangman2.sol\":5222:5238  getHangmanFigure */\n      tag_90\n        /* \"contracts/hangman2.sol\":5222:5240  getHangmanFigure() */\n      jump\t// in\n    tag_108:\n        /* \"contracts/hangman2.sol\":5173:5241  return (hangmanWord, attemptsLeft, wrongGuesses, getHangmanFigure()) */\n      dup4\n      dup1\n      sload\n      tag_109\n      swap1\n      tag_49\n      jump\t// in\n    tag_109:\n      dup1\n      0x1f\n      add\n      0x20\n      dup1\n      swap2\n      div\n      mul\n      0x20\n      add\n      mload(0x40)\n      swap1\n      dup2\n      add\n      0x40\n      mstore\n      dup1\n      swap3\n      swap2\n      swap1\n      dup2\n      dup2\n      mstore\n      0x20\n      add\n      dup3\n      dup1\n      sload\n      tag_110\n      swap1\n      tag_49\n      jump\t// in\n    tag_110:\n      dup1\n      iszero\n      tag_111\n      jumpi\n      dup1\n      0x1f\n      lt\n      tag_112\n      jumpi\n      0x0100\n      dup1\n      dup4\n      sload\n      div\n      mul\n      dup4\n      mstore\n      swap2\n      0x20\n      add\n      swap2\n      jump(tag_111)\n    tag_112:\n      dup3\n      add\n      swap2\n      swap1\n      0x00\n      mstore\n      keccak256(0x00, 0x20)\n      swap1\n    tag_113:\n      dup2\n      sload\n      dup2\n      mstore\n      swap1\n      0x01\n      add\n      swap1\n      0x20\n      add\n      dup1\n      dup4\n      gt\n      tag_113\n      jumpi\n      dup3\n      swap1\n      sub\n      0x1f\n      and\n      dup3\n      add\n      swap2\n    tag_111:\n      pop\n      pop\n      pop\n      pop\n      pop\n      swap4\n      pop\n      dup2\n      dup1\n      sload\n      tag_114\n      swap1\n      tag_49\n      jump\t// in\n    tag_114:\n      dup1\n      0x1f\n      add\n      0x20\n      dup1\n      swap2\n      div\n      mul\n      0x20\n      add\n      mload(0x40)\n      swap1\n      dup2\n      add\n      0x40\n      mstore\n      dup1\n      swap3\n      swap2\n      swap1\n      dup2\n      dup2\n      mstore\n      0x20\n      add\n      dup3\n      dup1\n      sload\n      tag_115\n      swap1\n      tag_49\n      jump\t// in\n    tag_115:\n      dup1\n      iszero\n      tag_116\n      jumpi\n      dup1\n      0x1f\n      lt\n      tag_117\n      jumpi\n      0x0100\n      dup1\n      dup4\n      sload\n      div\n      mul\n      dup4\n      mstore\n      swap2\n      0x20\n      add\n      swap2\n      jump(tag_116)\n    tag_117:\n      dup3\n      add\n      swap2\n      swap1\n      0x00\n      mstore\n      keccak256(0x00, 0x20)\n      swap1\n    tag_118:\n      dup2\n      sload\n      dup2\n      mstore\n      swap1\n      0x01\n      add\n      swap1\n      0x20\n      add\n      dup1\n      dup4\n      gt\n      tag_118\n      jumpi\n      dup3\n      swap1\n      sub\n      0x1f\n      and\n      dup3\n      add\n      swap2\n    tag_116:\n      pop\n      pop\n      pop\n      pop\n      pop\n      swap2\n      pop\n      swap7\n      pop\n      swap7\n      pop\n      swap7\n      pop\n      swap7\n      pop\n      pop\n      pop\n      pop\n        /* \"contracts/hangman2.sol\":3866:5249  function guess(string memory input) public returns (string memory, uint, string memory, string memory) {... */\n    tag_44:\n      swap2\n      swap4\n      pop\n      swap2\n      swap4\n      jump\t// out\n        /* \"contracts/hangman2.sol\":2878:3061  function getGameState() public view returns (string memory, uint, string memory, string memory) {... */\n    tag_17:\n        /* \"contracts/hangman2.sol\":2923:2936  string memory */\n      0x60\n        /* \"contracts/hangman2.sol\":2938:2942  uint */\n      0x00\n        /* \"contracts/hangman2.sol\":2944:2957  string memory */\n      0x60\n        /* \"contracts/hangman2.sol\":2959:2972  string memory */\n      dup1\n        /* \"contracts/hangman2.sol\":2993:3004  hangmanWord */\n      0x33\n        /* \"contracts/hangman2.sol\":3006:3018  attemptsLeft */\n      sload(0x34)\n        /* \"contracts/hangman2.sol\":3020:3032  wrongGuesses */\n      0x35\n        /* \"contracts/hangman2.sol\":3034:3052  getHangmanFigure() */\n      tag_120\n        /* \"contracts/hangman2.sol\":3034:3050  getHangmanFigure */\n      tag_90\n        /* \"contracts/hangman2.sol\":3034:3052  getHangmanFigure() */\n      jump\t// in\n    tag_120:\n        /* \"contracts/hangman2.sol\":2985:3053  return (hangmanWord, attemptsLeft, wrongGuesses, getHangmanFigure()) */\n      dup4\n      dup1\n      sload\n      tag_121\n      swap1\n      tag_49\n      jump\t// in\n    tag_121:\n      dup1\n      0x1f\n      add\n      0x20\n      dup1\n      swap2\n      div\n      mul\n      0x20\n      add\n      mload(0x40)\n      swap1\n      dup2\n      add\n      0x40\n      mstore\n      dup1\n      swap3\n      swap2\n      swap1\n      dup2\n      dup2\n      mstore\n      0x20\n      add\n      dup3\n      dup1\n      sload\n      tag_122\n      swap1\n      tag_49\n      jump\t// in\n    tag_122:\n      dup1\n      iszero\n      tag_123\n      jumpi\n      dup1\n      0x1f\n      lt\n      tag_124\n      jumpi\n      0x0100\n      dup1\n      dup4\n      sload\n      div\n      mul\n      dup4\n      mstore\n      swap2\n      0x20\n      add\n      swap2\n      jump(tag_123)\n    tag_124:\n      dup3\n      add\n      swap2\n      swap1\n      0x00\n      mstore\n      keccak256(0x00, 0x20)\n      swap1\n    tag_125:\n      dup2\n      sload\n      dup2\n      mstore\n      swap1\n      0x01\n      add\n      swap1\n      0x20\n      add\n      dup1\n      dup4\n      gt\n      tag_125\n      jumpi\n      dup3\n      swap1\n      sub\n      0x1f\n      and\n      dup3\n      add\n      swap2\n    tag_123:\n      pop\n      pop\n      pop\n      pop\n      pop\n      swap4\n      pop\n      dup2\n      dup1\n      sload\n      tag_126\n      swap1\n      tag_49\n      jump\t// in\n    tag_126:\n      dup1\n      0x1f\n      add\n      0x20\n      dup1\n      swap2\n      div\n      mul\n      0x20\n      add\n      mload(0x40)\n      swap1\n      dup2\n      add\n      0x40\n      mstore\n      dup1\n      swap3\n      swap2\n      swap1\n      dup2\n      dup2\n      mstore\n      0x20\n      add\n      dup3\n      dup1\n      sload\n      tag_127\n      swap1\n      tag_49\n      jump\t// in\n    tag_127:\n      dup1\n      iszero\n      tag_128\n      jumpi\n      dup1\n      0x1f\n      lt\n      tag_129\n      jumpi\n      0x0100\n      dup1\n      dup4\n      sload\n      div\n      mul\n      dup4\n      mstore\n      swap2\n      0x20\n      add\n      swap2\n      jump(tag_128)\n    tag_129:\n      dup3\n      add\n      swap2\n      swap1\n      0x00\n      mstore\n      keccak256(0x00, 0x20)\n      swap1\n    tag_130:\n      dup2\n      sload\n      dup2\n      mstore\n      swap1\n      0x01\n      add\n      swap1\n      0x20\n      add\n      dup1\n      dup4\n      gt\n      tag_130\n      jumpi\n      dup3\n      swap1\n      sub\n      0x1f\n      and\n      dup3\n      add\n      swap2\n    tag_128:\n      pop\n      pop\n      pop\n      pop\n      pop\n      swap2\n      pop\n      swap4\n      pop\n      swap4\n      pop\n      swap4\n      pop\n      swap4\n      pop\n        /* \"contracts/hangman2.sol\":2878:3061  function getGameState() public view returns (string memory, uint, string memory, string memory) {... */\n      swap1\n      swap2\n      swap3\n      swap4\n      jump\t// out\n        /* \"contracts/hangman2.sol\":1919:2870  function startGame() public {... */\n    tag_20:\n        /* \"contracts/hangman2.sol\":1967:1977  gameActive */\n      0x36\n      0x00\n      swap1\n      sload\n      swap1\n      0x0100\n      exp\n      swap1\n      div\n      0xff\n      and\n        /* \"contracts/hangman2.sol\":1966:1977  !gameActive */\n      iszero\n        /* \"contracts/hangman2.sol\":1958:2021  require(!gameActive, \"Game already in progress. End it first.\") */\n      tag_132\n      jumpi\n      mload(0x40)\n      0x08c379a000000000000000000000000000000000000000000000000000000000\n      dup2\n      mstore\n      0x04\n      add\n      tag_133\n      swap1\n      tag_134\n      jump\t// in\n    tag_133:\n      mload(0x40)\n      dup1\n      swap2\n      sub\n      swap1\n      revert\n    tag_132:\n        /* \"contracts/hangman2.sol\":2047:2051  true */\n      0x01\n        /* \"contracts/hangman2.sol\":2034:2044  gameActive */\n      0x36\n      0x00\n        /* \"contracts/hangman2.sol\":2034:2051  gameActive = true */\n      0x0100\n      exp\n      dup2\n      sload\n      dup2\n      0xff\n      mul\n      not\n      and\n      swap1\n      dup4\n      iszero\n      iszero\n      mul\n      or\n      swap1\n      sstore\n      pop\n        /* \"contracts/hangman2.sol\":2078:2093  block.timestamp */\n      timestamp\n        /* \"contracts/hangman2.sol\":2062:2075  gameStartTime */\n      0x37\n        /* \"contracts/hangman2.sol\":2062:2093  gameStartTime = block.timestamp */\n      dup2\n      swap1\n      sstore\n      pop\n        /* \"contracts/hangman2.sol\":2109:2149  GameStarted(gameStartTime, gameDuration) */\n      0xa2dfaa3573b86004ec9d4d4abe5068d942579c59da4da8cd0d9e45e71a393bc1\n        /* \"contracts/hangman2.sol\":2121:2134  gameStartTime */\n      sload(0x37)\n        /* \"contracts/hangman2.sol\":2136:2148  gameDuration */\n      sload(0x38)\n        /* \"contracts/hangman2.sol\":2109:2149  GameStarted(gameStartTime, gameDuration) */\n      mload(0x40)\n      tag_135\n      swap3\n      swap2\n      swap1\n      tag_136\n      jump\t// in\n    tag_135:\n      mload(0x40)\n      dup1\n      swap2\n      sub\n      swap1\n      log1\n        /* \"contracts/hangman2.sol\":2162:2181  uint256 randomIndex */\n      0x00\n        /* \"contracts/hangman2.sol\":2252:2267  wordDict.length */\n      0x32\n        /* \"contracts/hangman2.sol\":2219:2234  block.timestamp */\n      timestamp\n        /* \"contracts/hangman2.sol\":2236:2246  msg.sender */\n      caller\n        /* \"contracts/hangman2.sol\":2202:2247  abi.encodePacked(block.timestamp, msg.sender) */\n      add(0x20, mload(0x40))\n      tag_137\n      swap3\n      swap2\n      swap1\n      tag_138\n      jump\t// in\n    tag_137:\n      mload(0x40)\n      0x20\n      dup2\n      dup4\n      sub\n      sub\n      dup2\n      mstore\n      swap1\n      0x40\n      mstore\n        /* \"contracts/hangman2.sol\":2192:2248  keccak256(abi.encodePacked(block.timestamp, msg.sender)) */\n      dup1\n      mload\n      swap1\n      0x20\n      add\n      keccak256\n        /* \"contracts/hangman2.sol\":2184:2249  uint256(keccak256(abi.encodePacked(block.timestamp, msg.sender))) */\n      0x00\n      shr\n        /* \"contracts/hangman2.sol\":2184:2267  uint256(keccak256(abi.encodePacked(block.timestamp, msg.sender))) % wordDict.length */\n      tag_139\n      swap2\n      swap1\n      tag_140\n      jump\t// in\n    tag_139:\n        /* \"contracts/hangman2.sol\":2162:2267  uint256 randomIndex = uint256(keccak256(abi.encodePacked(block.timestamp, msg.sender))) % wordDict.length */\n      swap1\n      pop\n        /* \"contracts/hangman2.sol\":2289:2297  wordDict */\n      0x00\n        /* \"contracts/hangman2.sol\":2298:2309  randomIndex */\n      dup2\n        /* \"contracts/hangman2.sol\":2289:2310  wordDict[randomIndex] */\n      0x32\n      dup2\n      lt\n      tag_141\n      jumpi\n      tag_142\n      tag_60\n      jump\t// in\n    tag_142:\n    tag_141:\n      add\n        /* \"contracts/hangman2.sol\":2278:2286  currWord */\n      0x32\n        /* \"contracts/hangman2.sol\":2278:2310  currWord = wordDict[randomIndex] */\n      swap1\n      dup2\n      tag_144\n      swap2\n      swap1\n      tag_145\n      jump\t// in\n    tag_144:\n      pop\n        /* \"contracts/hangman2.sol\":2323:2345  bytes memory wordBytes */\n      0x00\n        /* \"contracts/hangman2.sol\":2354:2362  currWord */\n      0x32\n        /* \"contracts/hangman2.sol\":2323:2363  bytes memory wordBytes = bytes(currWord) */\n      dup1\n      sload\n      tag_146\n      swap1\n      tag_49\n      jump\t// in\n    tag_146:\n      dup1\n      0x1f\n      add\n      0x20\n      dup1\n      swap2\n      div\n      mul\n      0x20\n      add\n      mload(0x40)\n      swap1\n      dup2\n      add\n      0x40\n      mstore\n      dup1\n      swap3\n      swap2\n      swap1\n      dup2\n      dup2\n      mstore\n      0x20\n      add\n      dup3\n      dup1\n      sload\n      tag_147\n      swap1\n      tag_49\n      jump\t// in\n    tag_147:\n      dup1\n      iszero\n      tag_148\n      jumpi\n      dup1\n      0x1f\n      lt\n      tag_149\n      jumpi\n      0x0100\n      dup1\n      dup4\n      sload\n      div\n      mul\n      dup4\n      mstore\n      swap2\n      0x20\n      add\n      swap2\n      jump(tag_148)\n    tag_149:\n      dup3\n      add\n      swap2\n      swap1\n      0x00\n      mstore\n      keccak256(0x00, 0x20)\n      swap1\n    tag_150:\n      dup2\n      sload\n      dup2\n      mstore\n      swap1\n      0x01\n      add\n      swap1\n      0x20\n      add\n      dup1\n      dup4\n      gt\n      tag_150\n      jumpi\n      dup3\n      swap1\n      sub\n      0x1f\n      and\n      dup3\n      add\n      swap2\n    tag_148:\n      pop\n      pop\n      pop\n      pop\n      pop\n      swap1\n      pop\n        /* \"contracts/hangman2.sol\":2374:2399  bytes memory hangmanBytes */\n      0x00\n        /* \"contracts/hangman2.sol\":2431:2432  2 */\n      0x02\n        /* \"contracts/hangman2.sol\":2412:2421  wordBytes */\n      dup3\n        /* \"contracts/hangman2.sol\":2412:2428  wordBytes.length */\n      mload\n        /* \"contracts/hangman2.sol\":2412:2432  wordBytes.length * 2 */\n      tag_151\n      swap2\n      swap1\n      tag_69\n      jump\t// in\n    tag_151:\n        /* \"contracts/hangman2.sol\":2402:2433  new bytes(wordBytes.length * 2) */\n      0xffffffffffffffff\n      dup2\n      gt\n      iszero\n      tag_152\n      jumpi\n      tag_153\n      tag_154\n      jump\t// in\n    tag_153:\n    tag_152:\n      mload(0x40)\n      swap1\n      dup1\n      dup3\n      mstore\n      dup1\n      0x1f\n      add\n      not(0x1f)\n      and\n      0x20\n      add\n      dup3\n      add\n      0x40\n      mstore\n      dup1\n      iszero\n      tag_155\n      jumpi\n      dup2\n      0x20\n      add\n      0x01\n      dup3\n      mul\n      dup1\n      calldatasize\n      dup4\n      calldatacopy\n      dup1\n      dup3\n      add\n      swap2\n      pop\n      pop\n      swap1\n      pop\n    tag_155:\n      pop\n        /* \"contracts/hangman2.sol\":2374:2433  bytes memory hangmanBytes = new bytes(wordBytes.length * 2) */\n      swap1\n      pop\n        /* \"contracts/hangman2.sol\":2444:2461  wrongGuesses = \"\" */\n      mload(0x40)\n      dup1\n      0x20\n      add\n      0x40\n      mstore\n      dup1\n      0x00\n      dup2\n      mstore\n      pop\n        /* \"contracts/hangman2.sol\":2444:2456  wrongGuesses */\n      0x35\n        /* \"contracts/hangman2.sol\":2444:2461  wrongGuesses = \"\" */\n      swap1\n      dup2\n      tag_156\n      swap2\n      swap1\n      tag_73\n      jump\t// in\n    tag_156:\n      pop\n        /* \"contracts/hangman2.sol\":2487:2488  7 */\n      0x07\n        /* \"contracts/hangman2.sol\":2472:2484  attemptsLeft */\n      0x34\n        /* \"contracts/hangman2.sol\":2472:2488  attemptsLeft = 7 */\n      dup2\n      swap1\n      sstore\n      pop\n        /* \"contracts/hangman2.sol\":2506:2512  uint i */\n      0x00\n        /* \"contracts/hangman2.sol\":2501:2818  for (uint i = 0; i < wordBytes.length; i++) {... */\n    tag_157:\n        /* \"contracts/hangman2.sol\":2522:2531  wordBytes */\n      dup3\n        /* \"contracts/hangman2.sol\":2522:2538  wordBytes.length */\n      mload\n        /* \"contracts/hangman2.sol\":2518:2519  i */\n      dup2\n        /* \"contracts/hangman2.sol\":2518:2538  i < wordBytes.length */\n      lt\n        /* \"contracts/hangman2.sol\":2501:2818  for (uint i = 0; i < wordBytes.length; i++) {... */\n      iszero\n      tag_158\n      jumpi\n        /* \"contracts/hangman2.sol\":2564:2583  wordBytes[i] == \" \" */\n      0x2000000000000000000000000000000000000000000000000000000000000000\n        /* \"contracts/hangman2.sol\":2564:2573  wordBytes */\n      dup4\n        /* \"contracts/hangman2.sol\":2574:2575  i */\n      dup3\n        /* \"contracts/hangman2.sol\":2564:2576  wordBytes[i] */\n      dup2\n      mload\n      dup2\n      lt\n      tag_160\n      jumpi\n      tag_161\n      tag_60\n      jump\t// in\n    tag_161:\n    tag_160:\n      0x20\n      add\n      add\n      mload\n      0xf8\n      shr\n      0xf8\n      shl\n        /* \"contracts/hangman2.sol\":2564:2583  wordBytes[i] == \" \" */\n      not(0xffffffffffffffffffffffffffffffffffffffffffffffffffffffffffffff)\n      and\n      sub\n        /* \"contracts/hangman2.sol\":2560:2807  if (wordBytes[i] == \" \") {... */\n      tag_162\n      jumpi\n        /* \"contracts/hangman2.sol\":2604:2629  hangmanBytes[i * 2] = \"|\" */\n      0x7c00000000000000000000000000000000000000000000000000000000000000\n        /* \"contracts/hangman2.sol\":2604:2616  hangmanBytes */\n      dup3\n        /* \"contracts/hangman2.sol\":2621:2622  2 */\n      0x02\n        /* \"contracts/hangman2.sol\":2617:2618  i */\n      dup4\n        /* \"contracts/hangman2.sol\":2617:2622  i * 2 */\n      tag_163\n      swap2\n      swap1\n      tag_69\n      jump\t// in\n    tag_163:\n        /* \"contracts/hangman2.sol\":2604:2623  hangmanBytes[i * 2] */\n      dup2\n      mload\n      dup2\n      lt\n      tag_164\n      jumpi\n      tag_165\n      tag_60\n      jump\t// in\n    tag_165:\n    tag_164:\n      0x20\n      add\n      add\n        /* \"contracts/hangman2.sol\":2604:2629  hangmanBytes[i * 2] = \"|\" */\n      swap1\n      not(0xffffffffffffffffffffffffffffffffffffffffffffffffffffffffffffff)\n      and\n      swap1\n      dup2\n      0x00\n      byte\n      swap1\n      mstore8\n      pop\n        /* \"contracts/hangman2.sol\":2648:2677  hangmanBytes[i * 2 + 1] = \"|\" */\n      0x7c00000000000000000000000000000000000000000000000000000000000000\n        /* \"contracts/hangman2.sol\":2648:2660  hangmanBytes */\n      dup3\n        /* \"contracts/hangman2.sol\":2669:2670  1 */\n      0x01\n        /* \"contracts/hangman2.sol\":2665:2666  2 */\n      0x02\n        /* \"contracts/hangman2.sol\":2661:2662  i */\n      dup5\n        /* \"contracts/hangman2.sol\":2661:2666  i * 2 */\n      tag_166\n      swap2\n      swap1\n      tag_69\n      jump\t// in\n    tag_166:\n        /* \"contracts/hangman2.sol\":2661:2670  i * 2 + 1 */\n      tag_167\n      swap2\n      swap1\n      tag_28\n      jump\t// in\n    tag_167:\n        /* \"contracts/hangman2.sol\":2648:2671  hangmanBytes[i * 2 + 1] */\n      dup2\n      mload\n      dup2\n      lt\n      tag_168\n      jumpi\n      tag_169\n      tag_60\n      jump\t// in\n    tag_169:\n    tag_168:\n      0x20\n      add\n      add\n        /* \"contracts/hangman2.sol\":2648:2677  hangmanBytes[i * 2 + 1] = \"|\" */\n      swap1\n      not(0xffffffffffffffffffffffffffffffffffffffffffffffffffffffffffffff)\n      and\n      swap1\n      dup2\n      0x00\n      byte\n      swap1\n      mstore8\n      pop\n        /* \"contracts/hangman2.sol\":2560:2807  if (wordBytes[i] == \" \") {... */\n      jump(tag_170)\n    tag_162:\n        /* \"contracts/hangman2.sol\":2718:2743  hangmanBytes[i * 2] = \"_\" */\n      0x5f00000000000000000000000000000000000000000000000000000000000000\n        /* \"contracts/hangman2.sol\":2718:2730  hangmanBytes */\n      dup3\n        /* \"contracts/hangman2.sol\":2735:2736  2 */\n      0x02\n        /* \"contracts/hangman2.sol\":2731:2732  i */\n      dup4\n        /* \"contracts/hangman2.sol\":2731:2736  i * 2 */\n      tag_171\n      swap2\n      swap1\n      tag_69\n      jump\t// in\n    tag_171:\n        /* \"contracts/hangman2.sol\":2718:2737  hangmanBytes[i * 2] */\n      dup2\n      mload\n      dup2\n      lt\n      tag_172\n      jumpi\n      tag_173\n      tag_60\n      jump\t// in\n    tag_173:\n    tag_172:\n      0x20\n      add\n      add\n        /* \"contracts/hangman2.sol\":2718:2743  hangmanBytes[i * 2] = \"_\" */\n      swap1\n      not(0xffffffffffffffffffffffffffffffffffffffffffffffffffffffffffffff)\n      and\n      swap1\n      dup2\n      0x00\n      byte\n      swap1\n      mstore8\n      pop\n        /* \"contracts/hangman2.sol\":2762:2791  hangmanBytes[i * 2 + 1] = \" \" */\n      0x2000000000000000000000000000000000000000000000000000000000000000\n        /* \"contracts/hangman2.sol\":2762:2774  hangmanBytes */\n      dup3\n        /* \"contracts/hangman2.sol\":2783:2784  1 */\n      0x01\n        /* \"contracts/hangman2.sol\":2779:2780  2 */\n      0x02\n        /* \"contracts/hangman2.sol\":2775:2776  i */\n      dup5\n        /* \"contracts/hangman2.sol\":2775:2780  i * 2 */\n      tag_174\n      swap2\n      swap1\n      tag_69\n      jump\t// in\n    tag_174:\n        /* \"contracts/hangman2.sol\":2775:2784  i * 2 + 1 */\n      tag_175\n      swap2\n      swap1\n      tag_28\n      jump\t// in\n    tag_175:\n        /* \"contracts/hangman2.sol\":2762:2785  hangmanBytes[i * 2 + 1] */\n      dup2\n      mload\n      dup2\n      lt\n      tag_176\n      jumpi\n      tag_177\n      tag_60\n      jump\t// in\n    tag_177:\n    tag_176:\n      0x20\n      add\n      add\n        /* \"contracts/hangman2.sol\":2762:2791  hangmanBytes[i * 2 + 1] = \" \" */\n      swap1\n      not(0xffffffffffffffffffffffffffffffffffffffffffffffffffffffffffffff)\n      and\n      swap1\n      dup2\n      0x00\n      byte\n      swap1\n      mstore8\n      pop\n        /* \"contracts/hangman2.sol\":2560:2807  if (wordBytes[i] == \" \") {... */\n    tag_170:\n        /* \"contracts/hangman2.sol\":2540:2543  i++ */\n      dup1\n      dup1\n      0x01\n      add\n      swap2\n      pop\n      pop\n        /* \"contracts/hangman2.sol\":2501:2818  for (uint i = 0; i < wordBytes.length; i++) {... */\n      jump(tag_157)\n    tag_158:\n      pop\n        /* \"contracts/hangman2.sol\":2849:2861  hangmanBytes */\n      dup1\n        /* \"contracts/hangman2.sol\":2828:2839  hangmanWord */\n      0x33\n        /* \"contracts/hangman2.sol\":2828:2862  hangmanWord = string(hangmanBytes) */\n      swap1\n      dup2\n      tag_178\n      swap2\n      swap1\n      tag_73\n      jump\t// in\n    tag_178:\n      pop\n        /* \"contracts/hangman2.sol\":1947:2870  {... */\n      pop\n      pop\n      pop\n        /* \"contracts/hangman2.sol\":1919:2870  function startGame() public {... */\n      jump\t// out\n        /* \"contracts/hangman2.sol\":5973:6138  function quit() public {... */\n    tag_22:\n        /* \"contracts/hangman2.sol\":6015:6025  gameActive */\n      0x36\n      0x00\n      swap1\n      sload\n      swap1\n      0x0100\n      exp\n      swap1\n      div\n      0xff\n      and\n        /* \"contracts/hangman2.sol\":6007:6052  require(gameActive, \"No active game to end.\") */\n      tag_180\n      jumpi\n      mload(0x40)\n      0x08c379a000000000000000000000000000000000000000000000000000000000\n      dup2\n      mstore\n      0x04\n      add\n      tag_181\n      swap1\n      tag_26\n      jump\t// in\n    tag_181:\n      mload(0x40)\n      dup1\n      swap2\n      sub\n      swap1\n      revert\n    tag_180:\n        /* \"contracts/hangman2.sol\":6076:6081  false */\n      0x00\n        /* \"contracts/hangman2.sol\":6063:6073  gameActive */\n      0x36\n      0x00\n        /* \"contracts/hangman2.sol\":6063:6081  gameActive = false */\n      0x0100\n      exp\n      dup2\n      sload\n      dup2\n      0xff\n      mul\n      not\n      and\n      swap1\n      dup4\n      iszero\n      iszero\n      mul\n      or\n      swap1\n      sstore\n      pop\n        /* \"contracts/hangman2.sol\":6097:6130  GameEnded(\"Game over. You quit.\") */\n      0x056e3895424a85ef26c4c78d9988dea28d97c77c140b919289906403e8017170\n      mload(0x40)\n      tag_182\n      swap1\n      tag_183\n      jump\t// in\n    tag_182:\n      mload(0x40)\n      dup1\n      swap2\n      sub\n      swap1\n      log1\n        /* \"contracts/hangman2.sol\":5973:6138  function quit() public {... */\n      jump\t// out\n        /* \"contracts/hangman2.sol\":6146:6644  function uintToString(uint256 value) internal pure returns (string memory) {... */\n    tag_39:\n        /* \"contracts/hangman2.sol\":6206:6219  string memory */\n      0x60\n        /* \"contracts/hangman2.sol\":6245:6246  0 */\n      0x00\n        /* \"contracts/hangman2.sol\":6236:6241  value */\n      dup3\n        /* \"contracts/hangman2.sol\":6236:6246  value == 0 */\n      sub\n        /* \"contracts/hangman2.sol\":6232:6258  if (value == 0) return \"0\" */\n      tag_185\n      jumpi\n        /* \"contracts/hangman2.sol\":6248:6258  return \"0\" */\n      mload(0x40)\n      dup1\n      0x40\n      add\n      0x40\n      mstore\n      dup1\n      0x01\n      dup2\n      mstore\n      0x20\n      add\n      0x3000000000000000000000000000000000000000000000000000000000000000\n      dup2\n      mstore\n      pop\n      swap1\n      pop\n      jump(tag_184)\n        /* \"contracts/hangman2.sol\":6232:6258  if (value == 0) return \"0\" */\n    tag_185:\n        /* \"contracts/hangman2.sol\":6269:6281  uint256 temp */\n      0x00\n        /* \"contracts/hangman2.sol\":6284:6289  value */\n      dup3\n        /* \"contracts/hangman2.sol\":6269:6289  uint256 temp = value */\n      swap1\n      pop\n        /* \"contracts/hangman2.sol\":6300:6314  uint256 digits */\n      0x00\n        /* \"contracts/hangman2.sol\":6325:6403  while (temp != 0) {... */\n    tag_186:\n        /* \"contracts/hangman2.sol\":6340:6341  0 */\n      0x00\n        /* \"contracts/hangman2.sol\":6332:6336  temp */\n      dup3\n        /* \"contracts/hangman2.sol\":6332:6341  temp != 0 */\n      eq\n        /* \"contracts/hangman2.sol\":6325:6403  while (temp != 0) {... */\n      tag_187\n      jumpi\n        /* \"contracts/hangman2.sol\":6358:6366  digits++ */\n      dup1\n      dup1\n      tag_188\n      swap1\n      tag_189\n      jump\t// in\n    tag_188:\n      swap2\n      pop\n      pop\n        /* \"contracts/hangman2.sol\":6389:6391  10 */\n      0x0a\n        /* \"contracts/hangman2.sol\":6381:6391  temp /= 10 */\n      dup3\n      tag_190\n      swap2\n      swap1\n      tag_191\n      jump\t// in\n    tag_190:\n      swap2\n      pop\n        /* \"contracts/hangman2.sol\":6325:6403  while (temp != 0) {... */\n      jump(tag_186)\n    tag_187:\n        /* \"contracts/hangman2.sol\":6413:6432  bytes memory buffer */\n      0x00\n        /* \"contracts/hangman2.sol\":6445:6451  digits */\n      dup2\n        /* \"contracts/hangman2.sol\":6435:6452  new bytes(digits) */\n      0xffffffffffffffff\n      dup2\n      gt\n      iszero\n      tag_192\n      jumpi\n      tag_193\n      tag_154\n      jump\t// in\n    tag_193:\n    tag_192:\n      mload(0x40)\n      swap1\n      dup1\n      dup3\n      mstore\n      dup1\n      0x1f\n      add\n      not(0x1f)\n      and\n      0x20\n      add\n      dup3\n      add\n      0x40\n      mstore\n      dup1\n      iszero\n      tag_194\n      jumpi\n      dup2\n      0x20\n      add\n      0x01\n      dup3\n      mul\n      dup1\n      calldatasize\n      dup4\n      calldatacopy\n      dup1\n      dup3\n      add\n      swap2\n      pop\n      pop\n      swap1\n      pop\n    tag_194:\n      pop\n        /* \"contracts/hangman2.sol\":6413:6452  bytes memory buffer = new bytes(digits) */\n      swap1\n      pop\n        /* \"contracts/hangman2.sol\":6463:6605  while (value != 0) {... */\n    tag_195:\n        /* \"contracts/hangman2.sol\":6479:6480  0 */\n      0x00\n        /* \"contracts/hangman2.sol\":6470:6475  value */\n      dup6\n        /* \"contracts/hangman2.sol\":6470:6480  value != 0 */\n      eq\n        /* \"contracts/hangman2.sol\":6463:6605  while (value != 0) {... */\n      tag_196\n      jumpi\n        /* \"contracts/hangman2.sol\":6497:6505  digits-- */\n      dup2\n      dup1\n      tag_197\n      swap1\n      tag_87\n      jump\t// in\n    tag_197:\n      swap3\n      pop\n      pop\n        /* \"contracts/hangman2.sol\":6563:6565  10 */\n      0x0a\n        /* \"contracts/hangman2.sol\":6555:6560  value */\n      dup6\n        /* \"contracts/hangman2.sol\":6555:6565  value % 10 */\n      tag_198\n      swap2\n      swap1\n      tag_140\n      jump\t// in\n    tag_198:\n        /* \"contracts/hangman2.sol\":6550:6552  48 */\n      0x30\n        /* \"contracts/hangman2.sol\":6550:6565  48 + value % 10 */\n      tag_199\n      swap2\n      swap1\n      tag_28\n      jump\t// in\n    tag_199:\n        /* \"contracts/hangman2.sol\":6537:6567  bytes1(uint8(48 + value % 10)) */\n      0xf8\n      shl\n        /* \"contracts/hangman2.sol\":6520:6526  buffer */\n      dup2\n        /* \"contracts/hangman2.sol\":6527:6533  digits */\n      dup4\n        /* \"contracts/hangman2.sol\":6520:6534  buffer[digits] */\n      dup2\n      mload\n      dup2\n      lt\n      tag_200\n      jumpi\n      tag_201\n      tag_60\n      jump\t// in\n    tag_201:\n    tag_200:\n      0x20\n      add\n      add\n        /* \"contracts/hangman2.sol\":6520:6567  buffer[digits] = bytes1(uint8(48 + value % 10)) */\n      swap1\n      not(0xffffffffffffffffffffffffffffffffffffffffffffffffffffffffffffff)\n      and\n      swap1\n      dup2\n      0x00\n      byte\n      swap1\n      mstore8\n      pop\n        /* \"contracts/hangman2.sol\":6591:6593  10 */\n      0x0a\n        /* \"contracts/hangman2.sol\":6582:6593  value /= 10 */\n      dup6\n      tag_202\n      swap2\n      swap1\n      tag_191\n      jump\t// in\n    tag_202:\n      swap5\n      pop\n        /* \"contracts/hangman2.sol\":6463:6605  while (value != 0) {... */\n      jump(tag_195)\n    tag_196:\n        /* \"contracts/hangman2.sol\":6629:6635  buffer */\n      dup1\n        /* \"contracts/hangman2.sol\":6615:6636  return string(buffer) */\n      swap4\n      pop\n      pop\n      pop\n      pop\n        /* \"contracts/hangman2.sol\":6146:6644  function uintToString(uint256 value) internal pure returns (string memory) {... */\n    tag_184:\n      swap2\n      swap1\n      pop\n      jump\t// out\n        /* \"contracts/hangman2.sol\":3069:3858  function contains(string memory haystack, string memory needle) internal pure returns (bool) {... */\n    tag_81:\n        /* \"contracts/hangman2.sol\":3156:3160  bool */\n      0x00\n        /* \"contracts/hangman2.sol\":3173:3199  bytes memory haystackBytes */\n      dup1\n        /* \"contracts/hangman2.sol\":3208:3216  haystack */\n      dup4\n        /* \"contracts/hangman2.sol\":3173:3217  bytes memory haystackBytes = bytes(haystack) */\n      swap1\n      pop\n        /* \"contracts/hangman2.sol\":3228:3252  bytes memory needleBytes */\n      0x00\n        /* \"contracts/hangman2.sol\":3261:3267  needle */\n      dup4\n        /* \"contracts/hangman2.sol\":3228:3268  bytes memory needleBytes = bytes(needle) */\n      swap1\n      pop\n        /* \"contracts/hangman2.sol\":3307:3308  0 */\n      0x00\n        /* \"contracts/hangman2.sol\":3285:3296  needleBytes */\n      dup2\n        /* \"contracts/hangman2.sol\":3285:3303  needleBytes.length */\n      mload\n        /* \"contracts/hangman2.sol\":3285:3308  needleBytes.length == 0 */\n      eq\n        /* \"contracts/hangman2.sol\":3285:3353  needleBytes.length == 0 || haystackBytes.length < needleBytes.length */\n      dup1\n      tag_204\n      jumpi\n      pop\n        /* \"contracts/hangman2.sol\":3335:3346  needleBytes */\n      dup1\n        /* \"contracts/hangman2.sol\":3335:3353  needleBytes.length */\n      mload\n        /* \"contracts/hangman2.sol\":3312:3325  haystackBytes */\n      dup3\n        /* \"contracts/hangman2.sol\":3312:3332  haystackBytes.length */\n      mload\n        /* \"contracts/hangman2.sol\":3312:3353  haystackBytes.length < needleBytes.length */\n      lt\n        /* \"contracts/hangman2.sol\":3285:3353  needleBytes.length == 0 || haystackBytes.length < needleBytes.length */\n    tag_204:\n        /* \"contracts/hangman2.sol\":3281:3394  if (needleBytes.length == 0 || haystackBytes.length < needleBytes.length) {... */\n      iszero\n      tag_205\n      jumpi\n        /* \"contracts/hangman2.sol\":3377:3382  false */\n      0x00\n        /* \"contracts/hangman2.sol\":3370:3382  return false */\n      swap3\n      pop\n      pop\n      pop\n      jump(tag_203)\n        /* \"contracts/hangman2.sol\":3281:3394  if (needleBytes.length == 0 || haystackBytes.length < needleBytes.length) {... */\n    tag_205:\n        /* \"contracts/hangman2.sol\":3411:3417  uint i */\n      0x00\n        /* \"contracts/hangman2.sol\":3406:3828  for (uint i = 0; i <= haystackBytes.length - needleBytes.length; i++) {... */\n    tag_206:\n        /* \"contracts/hangman2.sol\":3451:3462  needleBytes */\n      dup2\n        /* \"contracts/hangman2.sol\":3451:3469  needleBytes.length */\n      mload\n        /* \"contracts/hangman2.sol\":3428:3441  haystackBytes */\n      dup4\n        /* \"contracts/hangman2.sol\":3428:3448  haystackBytes.length */\n      mload\n        /* \"contracts/hangman2.sol\":3428:3469  haystackBytes.length - needleBytes.length */\n      tag_209\n      swap2\n      swap1\n      tag_37\n      jump\t// in\n    tag_209:\n        /* \"contracts/hangman2.sol\":3423:3424  i */\n      dup2\n        /* \"contracts/hangman2.sol\":3423:3469  i <= haystackBytes.length - needleBytes.length */\n      gt\n        /* \"contracts/hangman2.sol\":3406:3828  for (uint i = 0; i <= haystackBytes.length - needleBytes.length; i++) {... */\n      tag_207\n      jumpi\n        /* \"contracts/hangman2.sol\":3491:3506  bool matchFound */\n      0x00\n        /* \"contracts/hangman2.sol\":3509:3513  true */\n      0x01\n        /* \"contracts/hangman2.sol\":3491:3513  bool matchFound = true */\n      swap1\n      pop\n        /* \"contracts/hangman2.sol\":3533:3539  uint j */\n      0x00\n        /* \"contracts/hangman2.sol\":3528:3741  for (uint j = 0; j < needleBytes.length; j++) {... */\n    tag_210:\n        /* \"contracts/hangman2.sol\":3549:3560  needleBytes */\n      dup4\n        /* \"contracts/hangman2.sol\":3549:3567  needleBytes.length */\n      mload\n        /* \"contracts/hangman2.sol\":3545:3546  j */\n      dup2\n        /* \"contracts/hangman2.sol\":3545:3567  j < needleBytes.length */\n      lt\n        /* \"contracts/hangman2.sol\":3528:3741  for (uint j = 0; j < needleBytes.length; j++) {... */\n      iszero\n      tag_211\n      jumpi\n        /* \"contracts/hangman2.sol\":3621:3632  needleBytes */\n      dup4\n        /* \"contracts/hangman2.sol\":3633:3634  j */\n      dup2\n        /* \"contracts/hangman2.sol\":3621:3635  needleBytes[j] */\n      dup2\n      mload\n      dup2\n      lt\n      tag_213\n      jumpi\n      tag_214\n      tag_60\n      jump\t// in\n    tag_214:\n    tag_213:\n      0x20\n      add\n      add\n      mload\n      0xf8\n      shr\n      0xf8\n      shl\n        /* \"contracts/hangman2.sol\":3597:3635  haystackBytes[i + j] != needleBytes[j] */\n      not(0xffffffffffffffffffffffffffffffffffffffffffffffffffffffffffffff)\n      and\n        /* \"contracts/hangman2.sol\":3597:3610  haystackBytes */\n      dup6\n        /* \"contracts/hangman2.sol\":3615:3616  j */\n      dup3\n        /* \"contracts/hangman2.sol\":3611:3612  i */\n      dup6\n        /* \"contracts/hangman2.sol\":3611:3616  i + j */\n      tag_215\n      swap2\n      swap1\n      tag_28\n      jump\t// in\n    tag_215:\n        /* \"contracts/hangman2.sol\":3597:3617  haystackBytes[i + j] */\n      dup2\n      mload\n      dup2\n      lt\n      tag_216\n      jumpi\n      tag_217\n      tag_60\n      jump\t// in\n    tag_217:\n    tag_216:\n      0x20\n      add\n      add\n      mload\n      0xf8\n      shr\n      0xf8\n      shl\n        /* \"contracts/hangman2.sol\":3597:3635  haystackBytes[i + j] != needleBytes[j] */\n      not(0xffffffffffffffffffffffffffffffffffffffffffffffffffffffffffffff)\n      and\n      eq\n        /* \"contracts/hangman2.sol\":3593:3726  if (haystackBytes[i + j] != needleBytes[j]) {... */\n      tag_218\n      jumpi\n        /* \"contracts/hangman2.sol\":3673:3678  false */\n      0x00\n        /* \"contracts/hangman2.sol\":3660:3678  matchFound = false */\n      swap2\n      pop\n        /* \"contracts/hangman2.sol\":3701:3706  break */\n      jump(tag_211)\n        /* \"contracts/hangman2.sol\":3593:3726  if (haystackBytes[i + j] != needleBytes[j]) {... */\n    tag_218:\n        /* \"contracts/hangman2.sol\":3569:3572  j++ */\n      dup1\n      dup1\n      0x01\n      add\n      swap2\n      pop\n      pop\n        /* \"contracts/hangman2.sol\":3528:3741  for (uint j = 0; j < needleBytes.length; j++) {... */\n      jump(tag_210)\n    tag_211:\n      pop\n        /* \"contracts/hangman2.sol\":3759:3769  matchFound */\n      dup1\n        /* \"contracts/hangman2.sol\":3755:3817  if (matchFound) {... */\n      iszero\n      tag_219\n      jumpi\n        /* \"contracts/hangman2.sol\":3797:3801  true */\n      0x01\n        /* \"contracts/hangman2.sol\":3790:3801  return true */\n      swap5\n      pop\n      pop\n      pop\n      pop\n      pop\n      jump(tag_203)\n        /* \"contracts/hangman2.sol\":3755:3817  if (matchFound) {... */\n    tag_219:\n        /* \"contracts/hangman2.sol\":3476:3828  {... */\n      pop\n        /* \"contracts/hangman2.sol\":3471:3474  i++ */\n      dup1\n      dup1\n      tag_220\n      swap1\n      tag_189\n      jump\t// in\n    tag_220:\n      swap2\n      pop\n      pop\n        /* \"contracts/hangman2.sol\":3406:3828  for (uint i = 0; i <= haystackBytes.length - needleBytes.length; i++) {... */\n      jump(tag_206)\n    tag_207:\n      pop\n        /* \"contracts/hangman2.sol\":3845:3850  false */\n      0x00\n        /* \"contracts/hangman2.sol\":3838:3850  return false */\n      swap3\n      pop\n      pop\n      pop\n        /* \"contracts/hangman2.sol\":3069:3858  function contains(string memory haystack, string memory needle) internal pure returns (bool) {... */\n    tag_203:\n      swap3\n      swap2\n      pop\n      pop\n      jump\t// out\n        /* \"contracts/hangman2.sol\":5257:5407  function getHangmanFigure() internal view returns (string memory) {... */\n    tag_90:\n        /* \"contracts/hangman2.sol\":5308:5321  string memory */\n      0x60\n        /* \"contracts/hangman2.sol\":5341:5354  hangmanStages */\n      0x39\n        /* \"contracts/hangman2.sol\":5359:5371  attemptsLeft */\n      sload(0x34)\n        /* \"contracts/hangman2.sol\":5355:5356  7 */\n      0x07\n        /* \"contracts/hangman2.sol\":5355:5371  7 - attemptsLeft */\n      tag_222\n      swap2\n      swap1\n      tag_37\n      jump\t// in\n    tag_222:\n        /* \"contracts/hangman2.sol\":5341:5372  hangmanStages[7 - attemptsLeft] */\n      0x08\n      dup2\n      lt\n      tag_223\n      jumpi\n      tag_224\n      tag_60\n      jump\t// in\n    tag_224:\n    tag_223:\n      add\n        /* \"contracts/hangman2.sol\":5334:5372  return hangmanStages[7 - attemptsLeft] */\n      dup1\n      sload\n      tag_226\n      swap1\n      tag_49\n      jump\t// in\n    tag_226:\n      dup1\n      0x1f\n      add\n      0x20\n      dup1\n      swap2\n      div\n      mul\n      0x20\n      add\n      mload(0x40)\n      swap1\n      dup2\n      add\n      0x40\n      mstore\n      dup1\n      swap3\n      swap2\n      swap1\n      dup2\n      dup2\n      mstore\n      0x20\n      add\n      dup3\n      dup1\n      sload\n      tag_227\n      swap1\n      tag_49\n      jump\t// in\n    tag_227:\n      dup1\n      iszero\n      tag_228\n      jumpi\n      dup1\n      0x1f\n      lt\n      tag_229\n      jumpi\n      0x0100\n      dup1\n      dup4\n      sload\n      div\n      mul\n      dup4\n      mstore\n      swap2\n      0x20\n      add\n      swap2\n      jump(tag_228)\n    tag_229:\n      dup3\n      add\n      swap2\n      swap1\n      0x00\n      mstore\n      keccak256(0x00, 0x20)\n      swap1\n    tag_230:\n      dup2\n      sload\n      dup2\n      mstore\n      swap1\n      0x01\n      add\n      swap1\n      0x20\n      add\n      dup1\n      dup4\n      gt\n      tag_230\n      jumpi\n      dup3\n      swap1\n      sub\n      0x1f\n      and\n      dup3\n      add\n      swap2\n    tag_228:\n      pop\n      pop\n      pop\n      pop\n      pop\n      swap1\n      pop\n        /* \"contracts/hangman2.sol\":5257:5407  function getHangmanFigure() internal view returns (string memory) {... */\n      swap1\n      jump\t// out\n        /* \"#utility.yul\":7:82   */\n    tag_231:\n        /* \"#utility.yul\":40:46   */\n      0x00\n        /* \"#utility.yul\":73:75   */\n      0x40\n        /* \"#utility.yul\":67:76   */\n      mload\n        /* \"#utility.yul\":57:76   */\n      swap1\n      pop\n        /* \"#utility.yul\":7:82   */\n      swap1\n      jump\t// out\n        /* \"#utility.yul\":88:205   */\n    tag_232:\n        /* \"#utility.yul\":197:198   */\n      0x00\n        /* \"#utility.yul\":194:195   */\n      dup1\n        /* \"#utility.yul\":187:199   */\n      revert\n        /* \"#utility.yul\":211:328   */\n    tag_233:\n        /* \"#utility.yul\":320:321   */\n      0x00\n        /* \"#utility.yul\":317:318   */\n      dup1\n        /* \"#utility.yul\":310:322   */\n      revert\n        /* \"#utility.yul\":334:451   */\n    tag_234:\n        /* \"#utility.yul\":443:444   */\n      0x00\n        /* \"#utility.yul\":440:441   */\n      dup1\n        /* \"#utility.yul\":433:445   */\n      revert\n        /* \"#utility.yul\":457:574   */\n    tag_235:\n        /* \"#utility.yul\":566:567   */\n      0x00\n        /* \"#utility.yul\":563:564   */\n      dup1\n        /* \"#utility.yul\":556:568   */\n      revert\n        /* \"#utility.yul\":580:682   */\n    tag_236:\n        /* \"#utility.yul\":621:627   */\n      0x00\n        /* \"#utility.yul\":672:674   */\n      0x1f\n        /* \"#utility.yul\":668:675   */\n      not\n        /* \"#utility.yul\":663:665   */\n      0x1f\n        /* \"#utility.yul\":656:661   */\n      dup4\n        /* \"#utility.yul\":652:666   */\n      add\n        /* \"#utility.yul\":648:676   */\n      and\n        /* \"#utility.yul\":638:676   */\n      swap1\n      pop\n        /* \"#utility.yul\":580:682   */\n      swap2\n      swap1\n      pop\n      jump\t// out\n        /* \"#utility.yul\":688:868   */\n    tag_154:\n        /* \"#utility.yul\":736:813   */\n      0x4e487b7100000000000000000000000000000000000000000000000000000000\n        /* \"#utility.yul\":733:734   */\n      0x00\n        /* \"#utility.yul\":726:814   */\n      mstore\n        /* \"#utility.yul\":833:837   */\n      0x41\n        /* \"#utility.yul\":830:831   */\n      0x04\n        /* \"#utility.yul\":823:838   */\n      mstore\n        /* \"#utility.yul\":857:861   */\n      0x24\n        /* \"#utility.yul\":854:855   */\n      0x00\n        /* \"#utility.yul\":847:862   */\n      revert\n        /* \"#utility.yul\":874:1155   */\n    tag_237:\n        /* \"#utility.yul\":957:984   */\n      tag_310\n        /* \"#utility.yul\":979:983   */\n      dup3\n        /* \"#utility.yul\":957:984   */\n      tag_236\n      jump\t// in\n    tag_310:\n        /* \"#utility.yul\":949:955   */\n      dup2\n        /* \"#utility.yul\":945:985   */\n      add\n        /* \"#utility.yul\":1087:1093   */\n      dup2\n        /* \"#utility.yul\":1075:1085   */\n      dup2\n        /* \"#utility.yul\":1072:1094   */\n      lt\n        /* \"#utility.yul\":1051:1069   */\n      0xffffffffffffffff\n        /* \"#utility.yul\":1039:1049   */\n      dup3\n        /* \"#utility.yul\":1036:1070   */\n      gt\n        /* \"#utility.yul\":1033:1095   */\n      or\n        /* \"#utility.yul\":1030:1118   */\n      iszero\n      tag_311\n      jumpi\n        /* \"#utility.yul\":1098:1116   */\n      tag_312\n      tag_154\n      jump\t// in\n    tag_312:\n        /* \"#utility.yul\":1030:1118   */\n    tag_311:\n        /* \"#utility.yul\":1138:1148   */\n      dup1\n        /* \"#utility.yul\":1134:1136   */\n      0x40\n        /* \"#utility.yul\":1127:1149   */\n      mstore\n        /* \"#utility.yul\":917:1155   */\n      pop\n        /* \"#utility.yul\":874:1155   */\n      pop\n      pop\n      jump\t// out\n        /* \"#utility.yul\":1161:1290   */\n    tag_238:\n        /* \"#utility.yul\":1195:1201   */\n      0x00\n        /* \"#utility.yul\":1222:1242   */\n      tag_314\n      tag_231\n      jump\t// in\n    tag_314:\n        /* \"#utility.yul\":1212:1242   */\n      swap1\n      pop\n        /* \"#utility.yul\":1251:1284   */\n      tag_315\n        /* \"#utility.yul\":1279:1283   */\n      dup3\n        /* \"#utility.yul\":1271:1277   */\n      dup3\n        /* \"#utility.yul\":1251:1284   */\n      tag_237\n      jump\t// in\n    tag_315:\n        /* \"#utility.yul\":1161:1290   */\n      swap2\n      swap1\n      pop\n      jump\t// out\n        /* \"#utility.yul\":1296:1604   */\n    tag_239:\n        /* \"#utility.yul\":1358:1362   */\n      0x00\n        /* \"#utility.yul\":1448:1466   */\n      0xffffffffffffffff\n        /* \"#utility.yul\":1440:1446   */\n      dup3\n        /* \"#utility.yul\":1437:1467   */\n      gt\n        /* \"#utility.yul\":1434:1490   */\n      iszero\n      tag_317\n      jumpi\n        /* \"#utility.yul\":1470:1488   */\n      tag_318\n      tag_154\n      jump\t// in\n    tag_318:\n        /* \"#utility.yul\":1434:1490   */\n    tag_317:\n        /* \"#utility.yul\":1508:1537   */\n      tag_319\n        /* \"#utility.yul\":1530:1536   */\n      dup3\n        /* \"#utility.yul\":1508:1537   */\n      tag_236\n      jump\t// in\n    tag_319:\n        /* \"#utility.yul\":1500:1537   */\n      swap1\n      pop\n        /* \"#utility.yul\":1592:1596   */\n      0x20\n        /* \"#utility.yul\":1586:1590   */\n      dup2\n        /* \"#utility.yul\":1582:1597   */\n      add\n        /* \"#utility.yul\":1574:1597   */\n      swap1\n      pop\n        /* \"#utility.yul\":1296:1604   */\n      swap2\n      swap1\n      pop\n      jump\t// out\n        /* \"#utility.yul\":1610:1758   */\n    tag_240:\n        /* \"#utility.yul\":1708:1714   */\n      dup3\n        /* \"#utility.yul\":1703:1706   */\n      dup2\n        /* \"#utility.yul\":1698:1701   */\n      dup4\n        /* \"#utility.yul\":1685:1715   */\n      calldatacopy\n        /* \"#utility.yul\":1749:1750   */\n      0x00\n        /* \"#utility.yul\":1740:1746   */\n      dup4\n        /* \"#utility.yul\":1735:1738   */\n      dup4\n        /* \"#utility.yul\":1731:1747   */\n      add\n        /* \"#utility.yul\":1724:1751   */\n      mstore\n        /* \"#utility.yul\":1610:1758   */\n      pop\n      pop\n      pop\n      jump\t// out\n        /* \"#utility.yul\":1764:2189   */\n    tag_241:\n        /* \"#utility.yul\":1842:1847   */\n      0x00\n        /* \"#utility.yul\":1867:1933   */\n      tag_322\n        /* \"#utility.yul\":1883:1932   */\n      tag_323\n        /* \"#utility.yul\":1925:1931   */\n      dup5\n        /* \"#utility.yul\":1883:1932   */\n      tag_239\n      jump\t// in\n    tag_323:\n        /* \"#utility.yul\":1867:1933   */\n      tag_238\n      jump\t// in\n    tag_322:\n        /* \"#utility.yul\":1858:1933   */\n      swap1\n      pop\n        /* \"#utility.yul\":1956:1962   */\n      dup3\n        /* \"#utility.yul\":1949:1954   */\n      dup2\n        /* \"#utility.yul\":1942:1963   */\n      mstore\n        /* \"#utility.yul\":1994:1998   */\n      0x20\n        /* \"#utility.yul\":1987:1992   */\n      dup2\n        /* \"#utility.yul\":1983:1999   */\n      add\n        /* \"#utility.yul\":2032:2035   */\n      dup5\n        /* \"#utility.yul\":2023:2029   */\n      dup5\n        /* \"#utility.yul\":2018:2021   */\n      dup5\n        /* \"#utility.yul\":2014:2030   */\n      add\n        /* \"#utility.yul\":2011:2036   */\n      gt\n        /* \"#utility.yul\":2008:2120   */\n      iszero\n      tag_324\n      jumpi\n        /* \"#utility.yul\":2039:2118   */\n      tag_325\n      tag_235\n      jump\t// in\n    tag_325:\n        /* \"#utility.yul\":2008:2120   */\n    tag_324:\n        /* \"#utility.yul\":2129:2183   */\n      tag_326\n        /* \"#utility.yul\":2176:2182   */\n      dup5\n        /* \"#utility.yul\":2171:2174   */\n      dup3\n        /* \"#utility.yul\":2166:2169   */\n      dup6\n        /* \"#utility.yul\":2129:2183   */\n      tag_240\n      jump\t// in\n    tag_326:\n        /* \"#utility.yul\":1848:2189   */\n      pop\n        /* \"#utility.yul\":1764:2189   */\n      swap4\n      swap3\n      pop\n      pop\n      pop\n      jump\t// out\n        /* \"#utility.yul\":2209:2549   */\n    tag_242:\n        /* \"#utility.yul\":2265:2270   */\n      0x00\n        /* \"#utility.yul\":2314:2317   */\n      dup3\n        /* \"#utility.yul\":2307:2311   */\n      0x1f\n        /* \"#utility.yul\":2299:2305   */\n      dup4\n        /* \"#utility.yul\":2295:2312   */\n      add\n        /* \"#utility.yul\":2291:2318   */\n      slt\n        /* \"#utility.yul\":2281:2403   */\n      tag_328\n      jumpi\n        /* \"#utility.yul\":2322:2401   */\n      tag_329\n      tag_234\n      jump\t// in\n    tag_329:\n        /* \"#utility.yul\":2281:2403   */\n    tag_328:\n        /* \"#utility.yul\":2439:2445   */\n      dup2\n        /* \"#utility.yul\":2426:2446   */\n      calldataload\n        /* \"#utility.yul\":2464:2543   */\n      tag_330\n        /* \"#utility.yul\":2539:2542   */\n      dup5\n        /* \"#utility.yul\":2531:2537   */\n      dup3\n        /* \"#utility.yul\":2524:2528   */\n      0x20\n        /* \"#utility.yul\":2516:2522   */\n      dup7\n        /* \"#utility.yul\":2512:2529   */\n      add\n        /* \"#utility.yul\":2464:2543   */\n      tag_241\n      jump\t// in\n    tag_330:\n        /* \"#utility.yul\":2455:2543   */\n      swap2\n      pop\n        /* \"#utility.yul\":2271:2549   */\n      pop\n        /* \"#utility.yul\":2209:2549   */\n      swap3\n      swap2\n      pop\n      pop\n      jump\t// out\n        /* \"#utility.yul\":2555:3064   */\n    tag_12:\n        /* \"#utility.yul\":2624:2630   */\n      0x00\n        /* \"#utility.yul\":2673:2675   */\n      0x20\n        /* \"#utility.yul\":2661:2670   */\n      dup3\n        /* \"#utility.yul\":2652:2659   */\n      dup5\n        /* \"#utility.yul\":2648:2671   */\n      sub\n        /* \"#utility.yul\":2644:2676   */\n      slt\n        /* \"#utility.yul\":2641:2760   */\n      iszero\n      tag_332\n      jumpi\n        /* \"#utility.yul\":2679:2758   */\n      tag_333\n      tag_232\n      jump\t// in\n    tag_333:\n        /* \"#utility.yul\":2641:2760   */\n    tag_332:\n        /* \"#utility.yul\":2827:2828   */\n      0x00\n        /* \"#utility.yul\":2816:2825   */\n      dup3\n        /* \"#utility.yul\":2812:2829   */\n      add\n        /* \"#utility.yul\":2799:2830   */\n      calldataload\n        /* \"#utility.yul\":2857:2875   */\n      0xffffffffffffffff\n        /* \"#utility.yul\":2849:2855   */\n      dup2\n        /* \"#utility.yul\":2846:2876   */\n      gt\n        /* \"#utility.yul\":2843:2960   */\n      iszero\n      tag_334\n      jumpi\n        /* \"#utility.yul\":2879:2958   */\n      tag_335\n      tag_233\n      jump\t// in\n    tag_335:\n        /* \"#utility.yul\":2843:2960   */\n    tag_334:\n        /* \"#utility.yul\":2984:3047   */\n      tag_336\n        /* \"#utility.yul\":3039:3046   */\n      dup5\n        /* \"#utility.yul\":3030:3036   */\n      dup3\n        /* \"#utility.yul\":3019:3028   */\n      dup6\n        /* \"#utility.yul\":3015:3037   */\n      add\n        /* \"#utility.yul\":2984:3047   */\n      tag_242\n      jump\t// in\n    tag_336:\n        /* \"#utility.yul\":2974:3047   */\n      swap2\n      pop\n        /* \"#utility.yul\":2770:3057   */\n      pop\n        /* \"#utility.yul\":2555:3064   */\n      swap3\n      swap2\n      pop\n      pop\n      jump\t// out\n        /* \"#utility.yul\":3070:3169   */\n    tag_243:\n        /* \"#utility.yul\":3122:3128   */\n      0x00\n        /* \"#utility.yul\":3156:3161   */\n      dup2\n        /* \"#utility.yul\":3150:3162   */\n      mload\n        /* \"#utility.yul\":3140:3162   */\n      swap1\n      pop\n        /* \"#utility.yul\":3070:3169   */\n      swap2\n      swap1\n      pop\n      jump\t// out\n        /* \"#utility.yul\":3175:3344   */\n    tag_244:\n        /* \"#utility.yul\":3259:3270   */\n      0x00\n        /* \"#utility.yul\":3293:3299   */\n      dup3\n        /* \"#utility.yul\":3288:3291   */\n      dup3\n        /* \"#utility.yul\":3281:3300   */\n      mstore\n        /* \"#utility.yul\":3333:3337   */\n      0x20\n        /* \"#utility.yul\":3328:3331   */\n      dup3\n        /* \"#utility.yul\":3324:3338   */\n      add\n        /* \"#utility.yul\":3309:3338   */\n      swap1\n      pop\n        /* \"#utility.yul\":3175:3344   */\n      swap3\n      swap2\n      pop\n      pop\n      jump\t// out\n        /* \"#utility.yul\":3350:3489   */\n    tag_245:\n        /* \"#utility.yul\":3439:3445   */\n      dup3\n        /* \"#utility.yul\":3434:3437   */\n      dup2\n        /* \"#utility.yul\":3429:3432   */\n      dup4\n        /* \"#utility.yul\":3423:3446   */\n      mcopy\n        /* \"#utility.yul\":3480:3481   */\n      0x00\n        /* \"#utility.yul\":3471:3477   */\n      dup4\n        /* \"#utility.yul\":3466:3469   */\n      dup4\n        /* \"#utility.yul\":3462:3478   */\n      add\n        /* \"#utility.yul\":3455:3482   */\n      mstore\n        /* \"#utility.yul\":3350:3489   */\n      pop\n      pop\n      pop\n      jump\t// out\n        /* \"#utility.yul\":3495:3872   */\n    tag_246:\n        /* \"#utility.yul\":3583:3586   */\n      0x00\n        /* \"#utility.yul\":3611:3650   */\n      tag_341\n        /* \"#utility.yul\":3644:3649   */\n      dup3\n        /* \"#utility.yul\":3611:3650   */\n      tag_243\n      jump\t// in\n    tag_341:\n        /* \"#utility.yul\":3666:3737   */\n      tag_342\n        /* \"#utility.yul\":3730:3736   */\n      dup2\n        /* \"#utility.yul\":3725:3728   */\n      dup6\n        /* \"#utility.yul\":3666:3737   */\n      tag_244\n      jump\t// in\n    tag_342:\n        /* \"#utility.yul\":3659:3737   */\n      swap4\n      pop\n        /* \"#utility.yul\":3746:3811   */\n      tag_343\n        /* \"#utility.yul\":3804:3810   */\n      dup2\n        /* \"#utility.yul\":3799:3802   */\n      dup6\n        /* \"#utility.yul\":3792:3796   */\n      0x20\n        /* \"#utility.yul\":3785:3790   */\n      dup7\n        /* \"#utility.yul\":3781:3797   */\n      add\n        /* \"#utility.yul\":3746:3811   */\n      tag_245\n      jump\t// in\n    tag_343:\n        /* \"#utility.yul\":3836:3865   */\n      tag_344\n        /* \"#utility.yul\":3858:3864   */\n      dup2\n        /* \"#utility.yul\":3836:3865   */\n      tag_236\n      jump\t// in\n    tag_344:\n        /* \"#utility.yul\":3831:3834   */\n      dup5\n        /* \"#utility.yul\":3827:3866   */\n      add\n        /* \"#utility.yul\":3820:3866   */\n      swap2\n      pop\n        /* \"#utility.yul\":3587:3872   */\n      pop\n        /* \"#utility.yul\":3495:3872   */\n      swap3\n      swap2\n      pop\n      pop\n      jump\t// out\n        /* \"#utility.yul\":3878:3955   */\n    tag_247:\n        /* \"#utility.yul\":3915:3922   */\n      0x00\n        /* \"#utility.yul\":3944:3949   */\n      dup2\n        /* \"#utility.yul\":3933:3949   */\n      swap1\n      pop\n        /* \"#utility.yul\":3878:3955   */\n      swap2\n      swap1\n      pop\n      jump\t// out\n        /* \"#utility.yul\":3961:4079   */\n    tag_248:\n        /* \"#utility.yul\":4048:4072   */\n      tag_347\n        /* \"#utility.yul\":4066:4071   */\n      dup2\n        /* \"#utility.yul\":4048:4072   */\n      tag_247\n      jump\t// in\n    tag_347:\n        /* \"#utility.yul\":4043:4046   */\n      dup3\n        /* \"#utility.yul\":4036:4073   */\n      mstore\n        /* \"#utility.yul\":3961:4079   */\n      pop\n      pop\n      jump\t// out\n        /* \"#utility.yul\":4085:4911   */\n    tag_15:\n        /* \"#utility.yul\":4322:4326   */\n      0x00\n        /* \"#utility.yul\":4360:4363   */\n      0x80\n        /* \"#utility.yul\":4349:4358   */\n      dup3\n        /* \"#utility.yul\":4345:4364   */\n      add\n        /* \"#utility.yul\":4337:4364   */\n      swap1\n      pop\n        /* \"#utility.yul\":4410:4419   */\n      dup2\n        /* \"#utility.yul\":4404:4408   */\n      dup2\n        /* \"#utility.yul\":4400:4420   */\n      sub\n        /* \"#utility.yul\":4396:4397   */\n      0x00\n        /* \"#utility.yul\":4385:4394   */\n      dup4\n        /* \"#utility.yul\":4381:4398   */\n      add\n        /* \"#utility.yul\":4374:4421   */\n      mstore\n        /* \"#utility.yul\":4438:4516   */\n      tag_349\n        /* \"#utility.yul\":4511:4515   */\n      dup2\n        /* \"#utility.yul\":4502:4508   */\n      dup8\n        /* \"#utility.yul\":4438:4516   */\n      tag_246\n      jump\t// in\n    tag_349:\n        /* \"#utility.yul\":4430:4516   */\n      swap1\n      pop\n        /* \"#utility.yul\":4526:4598   */\n      tag_350\n        /* \"#utility.yul\":4594:4596   */\n      0x20\n        /* \"#utility.yul\":4583:4592   */\n      dup4\n        /* \"#utility.yul\":4579:4597   */\n      add\n        /* \"#utility.yul\":4570:4576   */\n      dup7\n        /* \"#utility.yul\":4526:4598   */\n      tag_248\n      jump\t// in\n    tag_350:\n        /* \"#utility.yul\":4645:4654   */\n      dup2\n        /* \"#utility.yul\":4639:4643   */\n      dup2\n        /* \"#utility.yul\":4635:4655   */\n      sub\n        /* \"#utility.yul\":4630:4632   */\n      0x40\n        /* \"#utility.yul\":4619:4628   */\n      dup4\n        /* \"#utility.yul\":4615:4633   */\n      add\n        /* \"#utility.yul\":4608:4656   */\n      mstore\n        /* \"#utility.yul\":4673:4751   */\n      tag_351\n        /* \"#utility.yul\":4746:4750   */\n      dup2\n        /* \"#utility.yul\":4737:4743   */\n      dup6\n        /* \"#utility.yul\":4673:4751   */\n      tag_246\n      jump\t// in\n    tag_351:\n        /* \"#utility.yul\":4665:4751   */\n      swap1\n      pop\n        /* \"#utility.yul\":4798:4807   */\n      dup2\n        /* \"#utility.yul\":4792:4796   */\n      dup2\n        /* \"#utility.yul\":4788:4808   */\n      sub\n        /* \"#utility.yul\":4783:4785   */\n      0x60\n        /* \"#utility.yul\":4772:4781   */\n      dup4\n        /* \"#utility.yul\":4768:4786   */\n      add\n        /* \"#utility.yul\":4761:4809   */\n      mstore\n        /* \"#utility.yul\":4826:4904   */\n      tag_352\n        /* \"#utility.yul\":4899:4903   */\n      dup2\n        /* \"#utility.yul\":4890:4896   */\n      dup5\n        /* \"#utility.yul\":4826:4904   */\n      tag_246\n      jump\t// in\n    tag_352:\n        /* \"#utility.yul\":4818:4904   */\n      swap1\n      pop\n        /* \"#utility.yul\":4085:4911   */\n      swap6\n      swap5\n      pop\n      pop\n      pop\n      pop\n      pop\n      jump\t// out\n        /* \"#utility.yul\":4917:5089   */\n    tag_249:\n        /* \"#utility.yul\":5057:5081   */\n      0x4e6f206163746976652067616d6520746f20656e642e00000000000000000000\n        /* \"#utility.yul\":5053:5054   */\n      0x00\n        /* \"#utility.yul\":5045:5051   */\n      dup3\n        /* \"#utility.yul\":5041:5055   */\n      add\n        /* \"#utility.yul\":5034:5082   */\n      mstore\n        /* \"#utility.yul\":4917:5089   */\n      pop\n      jump\t// out\n        /* \"#utility.yul\":5095:5461   */\n    tag_250:\n        /* \"#utility.yul\":5237:5240   */\n      0x00\n        /* \"#utility.yul\":5258:5325   */\n      tag_355\n        /* \"#utility.yul\":5322:5324   */\n      0x16\n        /* \"#utility.yul\":5317:5320   */\n      dup4\n        /* \"#utility.yul\":5258:5325   */\n      tag_244\n      jump\t// in\n    tag_355:\n        /* \"#utility.yul\":5251:5325   */\n      swap2\n      pop\n        /* \"#utility.yul\":5334:5427   */\n      tag_356\n        /* \"#utility.yul\":5423:5426   */\n      dup3\n        /* \"#utility.yul\":5334:5427   */\n      tag_249\n      jump\t// in\n    tag_356:\n        /* \"#utility.yul\":5452:5454   */\n      0x20\n        /* \"#utility.yul\":5447:5450   */\n      dup3\n        /* \"#utility.yul\":5443:5455   */\n      add\n        /* \"#utility.yul\":5436:5455   */\n      swap1\n      pop\n        /* \"#utility.yul\":5095:5461   */\n      swap2\n      swap1\n      pop\n      jump\t// out\n        /* \"#utility.yul\":5467:5886   */\n    tag_26:\n        /* \"#utility.yul\":5633:5637   */\n      0x00\n        /* \"#utility.yul\":5671:5673   */\n      0x20\n        /* \"#utility.yul\":5660:5669   */\n      dup3\n        /* \"#utility.yul\":5656:5674   */\n      add\n        /* \"#utility.yul\":5648:5674   */\n      swap1\n      pop\n        /* \"#utility.yul\":5720:5729   */\n      dup2\n        /* \"#utility.yul\":5714:5718   */\n      dup2\n        /* \"#utility.yul\":5710:5730   */\n      sub\n        /* \"#utility.yul\":5706:5707   */\n      0x00\n        /* \"#utility.yul\":5695:5704   */\n      dup4\n        /* \"#utility.yul\":5691:5708   */\n      add\n        /* \"#utility.yul\":5684:5731   */\n      mstore\n        /* \"#utility.yul\":5748:5879   */\n      tag_358\n        /* \"#utility.yul\":5874:5878   */\n      dup2\n        /* \"#utility.yul\":5748:5879   */\n      tag_250\n      jump\t// in\n    tag_358:\n        /* \"#utility.yul\":5740:5879   */\n      swap1\n      pop\n        /* \"#utility.yul\":5467:5886   */\n      swap2\n      swap1\n      pop\n      jump\t// out\n        /* \"#utility.yul\":5892:6072   */\n    tag_251:\n        /* \"#utility.yul\":5940:6017   */\n      0x4e487b7100000000000000000000000000000000000000000000000000000000\n        /* \"#utility.yul\":5937:5938   */\n      0x00\n        /* \"#utility.yul\":5930:6018   */\n      mstore\n        /* \"#utility.yul\":6037:6041   */\n      0x11\n        /* \"#utility.yul\":6034:6035   */\n      0x04\n        /* \"#utility.yul\":6027:6042   */\n      mstore\n        /* \"#utility.yul\":6061:6065   */\n      0x24\n        /* \"#utility.yul\":6058:6059   */\n      0x00\n        /* \"#utility.yul\":6051:6066   */\n      revert\n        /* \"#utility.yul\":6078:6269   */\n    tag_28:\n        /* \"#utility.yul\":6118:6121   */\n      0x00\n        /* \"#utility.yul\":6137:6157   */\n      tag_361\n        /* \"#utility.yul\":6155:6156   */\n      dup3\n        /* \"#utility.yul\":6137:6157   */\n      tag_247\n      jump\t// in\n    tag_361:\n        /* \"#utility.yul\":6132:6157   */\n      swap2\n      pop\n        /* \"#utility.yul\":6171:6191   */\n      tag_362\n        /* \"#utility.yul\":6189:6190   */\n      dup4\n        /* \"#utility.yul\":6171:6191   */\n      tag_247\n      jump\t// in\n    tag_362:\n        /* \"#utility.yul\":6166:6191   */\n      swap3\n      pop\n        /* \"#utility.yul\":6214:6215   */\n      dup3\n        /* \"#utility.yul\":6211:6212   */\n      dup3\n        /* \"#utility.yul\":6207:6216   */\n      add\n        /* \"#utility.yul\":6200:6216   */\n      swap1\n      pop\n        /* \"#utility.yul\":6235:6238   */\n      dup1\n        /* \"#utility.yul\":6232:6233   */\n      dup3\n        /* \"#utility.yul\":6229:6239   */\n      gt\n        /* \"#utility.yul\":6226:6262   */\n      iszero\n      tag_363\n      jumpi\n        /* \"#utility.yul\":6242:6260   */\n      tag_364\n      tag_251\n      jump\t// in\n    tag_364:\n        /* \"#utility.yul\":6226:6262   */\n    tag_363:\n        /* \"#utility.yul\":6078:6269   */\n      swap3\n      swap2\n      pop\n      pop\n      jump\t// out\n        /* \"#utility.yul\":6275:6444   */\n    tag_252:\n        /* \"#utility.yul\":6415:6436   */\n      0x54696d65206c696d697420726561636865642e00000000000000000000000000\n        /* \"#utility.yul\":6411:6412   */\n      0x00\n        /* \"#utility.yul\":6403:6409   */\n      dup3\n        /* \"#utility.yul\":6399:6413   */\n      add\n        /* \"#utility.yul\":6392:6437   */\n      mstore\n        /* \"#utility.yul\":6275:6444   */\n      pop\n      jump\t// out\n        /* \"#utility.yul\":6450:6816   */\n    tag_253:\n        /* \"#utility.yul\":6592:6595   */\n      0x00\n        /* \"#utility.yul\":6613:6680   */\n      tag_367\n        /* \"#utility.yul\":6677:6679   */\n      0x13\n        /* \"#utility.yul\":6672:6675   */\n      dup4\n        /* \"#utility.yul\":6613:6680   */\n      tag_244\n      jump\t// in\n    tag_367:\n        /* \"#utility.yul\":6606:6680   */\n      swap2\n      pop\n        /* \"#utility.yul\":6689:6782   */\n      tag_368\n        /* \"#utility.yul\":6778:6781   */\n      dup3\n        /* \"#utility.yul\":6689:6782   */\n      tag_252\n      jump\t// in\n    tag_368:\n        /* \"#utility.yul\":6807:6809   */\n      0x20\n        /* \"#utility.yul\":6802:6805   */\n      dup3\n        /* \"#utility.yul\":6798:6810   */\n      add\n        /* \"#utility.yul\":6791:6810   */\n      swap1\n      pop\n        /* \"#utility.yul\":6450:6816   */\n      swap2\n      swap1\n      pop\n      jump\t// out\n        /* \"#utility.yul\":6822:7241   */\n    tag_31:\n        /* \"#utility.yul\":6988:6992   */\n      0x00\n        /* \"#utility.yul\":7026:7028   */\n      0x20\n        /* \"#utility.yul\":7015:7024   */\n      dup3\n        /* \"#utility.yul\":7011:7029   */\n      add\n        /* \"#utility.yul\":7003:7029   */\n      swap1\n      pop\n        /* \"#utility.yul\":7075:7084   */\n      dup2\n        /* \"#utility.yul\":7069:7073   */\n      dup2\n        /* \"#utility.yul\":7065:7085   */\n      sub\n        /* \"#utility.yul\":7061:7062   */\n      0x00\n        /* \"#utility.yul\":7050:7059   */\n      dup4\n        /* \"#utility.yul\":7046:7063   */\n      add\n        /* \"#utility.yul\":7039:7086   */\n      mstore\n        /* \"#utility.yul\":7103:7234   */\n      tag_370\n        /* \"#utility.yul\":7229:7233   */\n      dup2\n        /* \"#utility.yul\":7103:7234   */\n      tag_253\n      jump\t// in\n    tag_370:\n        /* \"#utility.yul\":7095:7234   */\n      swap1\n      pop\n        /* \"#utility.yul\":6822:7241   */\n      swap2\n      swap1\n      pop\n      jump\t// out\n        /* \"#utility.yul\":7247:7480   */\n    tag_254:\n        /* \"#utility.yul\":7387:7421   */\n      0x47616d65206f7665722e20596f75206469646e27742066696e69736820746865\n        /* \"#utility.yul\":7383:7384   */\n      0x00\n        /* \"#utility.yul\":7375:7381   */\n      dup3\n        /* \"#utility.yul\":7371:7385   */\n      add\n        /* \"#utility.yul\":7364:7422   */\n      mstore\n        /* \"#utility.yul\":7456:7472   */\n      0x2067616d6520696e2074696d652e000000000000000000000000000000000000\n        /* \"#utility.yul\":7451:7453   */\n      0x20\n        /* \"#utility.yul\":7443:7449   */\n      dup3\n        /* \"#utility.yul\":7439:7454   */\n      add\n        /* \"#utility.yul\":7432:7473   */\n      mstore\n        /* \"#utility.yul\":7247:7480   */\n      pop\n      jump\t// out\n        /* \"#utility.yul\":7486:7852   */\n    tag_255:\n        /* \"#utility.yul\":7628:7631   */\n      0x00\n        /* \"#utility.yul\":7649:7716   */\n      tag_373\n        /* \"#utility.yul\":7713:7715   */\n      0x2e\n        /* \"#utility.yul\":7708:7711   */\n      dup4\n        /* \"#utility.yul\":7649:7716   */\n      tag_244\n      jump\t// in\n    tag_373:\n        /* \"#utility.yul\":7642:7716   */\n      swap2\n      pop\n        /* \"#utility.yul\":7725:7818   */\n      tag_374\n        /* \"#utility.yul\":7814:7817   */\n      dup3\n        /* \"#utility.yul\":7725:7818   */\n      tag_254\n      jump\t// in\n    tag_374:\n        /* \"#utility.yul\":7843:7845   */\n      0x40\n        /* \"#utility.yul\":7838:7841   */\n      dup3\n        /* \"#utility.yul\":7834:7846   */\n      add\n        /* \"#utility.yul\":7827:7846   */\n      swap1\n      pop\n        /* \"#utility.yul\":7486:7852   */\n      swap2\n      swap1\n      pop\n      jump\t// out\n        /* \"#utility.yul\":7858:8277   */\n    tag_33:\n        /* \"#utility.yul\":8024:8028   */\n      0x00\n        /* \"#utility.yul\":8062:8064   */\n      0x20\n        /* \"#utility.yul\":8051:8060   */\n      dup3\n        /* \"#utility.yul\":8047:8065   */\n      add\n        /* \"#utility.yul\":8039:8065   */\n      swap1\n      pop\n        /* \"#utility.yul\":8111:8120   */\n      dup2\n        /* \"#utility.yul\":8105:8109   */\n      dup2\n        /* \"#utility.yul\":8101:8121   */\n      sub\n        /* \"#utility.yul\":8097:8098   */\n      0x00\n        /* \"#utility.yul\":8086:8095   */\n      dup4\n        /* \"#utility.yul\":8082:8099   */\n      add\n        /* \"#utility.yul\":8075:8122   */\n      mstore\n        /* \"#utility.yul\":8139:8270   */\n      tag_376\n        /* \"#utility.yul\":8265:8269   */\n      dup2\n        /* \"#utility.yul\":8139:8270   */\n      tag_255\n      jump\t// in\n    tag_376:\n        /* \"#utility.yul\":8131:8270   */\n      swap1\n      pop\n        /* \"#utility.yul\":7858:8277   */\n      swap2\n      swap1\n      pop\n      jump\t// out\n        /* \"#utility.yul\":8283:8477   */\n    tag_37:\n        /* \"#utility.yul\":8323:8327   */\n      0x00\n        /* \"#utility.yul\":8343:8363   */\n      tag_378\n        /* \"#utility.yul\":8361:8362   */\n      dup3\n        /* \"#utility.yul\":8343:8363   */\n      tag_247\n      jump\t// in\n    tag_378:\n        /* \"#utility.yul\":8338:8363   */\n      swap2\n      pop\n        /* \"#utility.yul\":8377:8397   */\n      tag_379\n        /* \"#utility.yul\":8395:8396   */\n      dup4\n        /* \"#utility.yul\":8377:8397   */\n      tag_247\n      jump\t// in\n    tag_379:\n        /* \"#utility.yul\":8372:8397   */\n      swap3\n      pop\n        /* \"#utility.yul\":8421:8422   */\n      dup3\n        /* \"#utility.yul\":8418:8419   */\n      dup3\n        /* \"#utility.yul\":8414:8423   */\n      sub\n        /* \"#utility.yul\":8406:8423   */\n      swap1\n      pop\n        /* \"#utility.yul\":8445:8446   */\n      dup2\n        /* \"#utility.yul\":8439:8443   */\n      dup2\n        /* \"#utility.yul\":8436:8447   */\n      gt\n        /* \"#utility.yul\":8433:8470   */\n      iszero\n      tag_380\n      jumpi\n        /* \"#utility.yul\":8450:8468   */\n      tag_381\n      tag_251\n      jump\t// in\n    tag_381:\n        /* \"#utility.yul\":8433:8470   */\n    tag_380:\n        /* \"#utility.yul\":8283:8477   */\n      swap3\n      swap2\n      pop\n      pop\n      jump\t// out\n        /* \"#utility.yul\":8483:8631   */\n    tag_256:\n        /* \"#utility.yul\":8585:8596   */\n      0x00\n        /* \"#utility.yul\":8622:8625   */\n      dup2\n        /* \"#utility.yul\":8607:8625   */\n      swap1\n      pop\n        /* \"#utility.yul\":8483:8631   */\n      swap3\n      swap2\n      pop\n      pop\n      jump\t// out\n        /* \"#utility.yul\":8637:8796   */\n    tag_257:\n        /* \"#utility.yul\":8777:8788   */\n      0x596f752068617665200000000000000000000000000000000000000000000000\n        /* \"#utility.yul\":8773:8774   */\n      0x00\n        /* \"#utility.yul\":8765:8771   */\n      dup3\n        /* \"#utility.yul\":8761:8775   */\n      add\n        /* \"#utility.yul\":8754:8789   */\n      mstore\n        /* \"#utility.yul\":8637:8796   */\n      pop\n      jump\t// out\n        /* \"#utility.yul\":8802:9202   */\n    tag_258:\n        /* \"#utility.yul\":8962:8965   */\n      0x00\n        /* \"#utility.yul\":8983:9067   */\n      tag_385\n        /* \"#utility.yul\":9065:9066   */\n      0x09\n        /* \"#utility.yul\":9060:9063   */\n      dup4\n        /* \"#utility.yul\":8983:9067   */\n      tag_256\n      jump\t// in\n    tag_385:\n        /* \"#utility.yul\":8976:9067   */\n      swap2\n      pop\n        /* \"#utility.yul\":9076:9169   */\n      tag_386\n        /* \"#utility.yul\":9165:9168   */\n      dup3\n        /* \"#utility.yul\":9076:9169   */\n      tag_257\n      jump\t// in\n    tag_386:\n        /* \"#utility.yul\":9194:9195   */\n      0x09\n        /* \"#utility.yul\":9189:9192   */\n      dup3\n        /* \"#utility.yul\":9185:9196   */\n      add\n        /* \"#utility.yul\":9178:9196   */\n      swap1\n      pop\n        /* \"#utility.yul\":8802:9202   */\n      swap2\n      swap1\n      pop\n      jump\t// out\n        /* \"#utility.yul\":9208:9598   */\n    tag_259:\n        /* \"#utility.yul\":9314:9317   */\n      0x00\n        /* \"#utility.yul\":9342:9381   */\n      tag_388\n        /* \"#utility.yul\":9375:9380   */\n      dup3\n        /* \"#utility.yul\":9342:9381   */\n      tag_243\n      jump\t// in\n    tag_388:\n        /* \"#utility.yul\":9397:9486   */\n      tag_389\n        /* \"#utility.yul\":9479:9485   */\n      dup2\n        /* \"#utility.yul\":9474:9477   */\n      dup6\n        /* \"#utility.yul\":9397:9486   */\n      tag_256\n      jump\t// in\n    tag_389:\n        /* \"#utility.yul\":9390:9486   */\n      swap4\n      pop\n        /* \"#utility.yul\":9495:9560   */\n      tag_390\n        /* \"#utility.yul\":9553:9559   */\n      dup2\n        /* \"#utility.yul\":9548:9551   */\n      dup6\n        /* \"#utility.yul\":9541:9545   */\n      0x20\n        /* \"#utility.yul\":9534:9539   */\n      dup7\n        /* \"#utility.yul\":9530:9546   */\n      add\n        /* \"#utility.yul\":9495:9560   */\n      tag_245\n      jump\t// in\n    tag_390:\n        /* \"#utility.yul\":9585:9591   */\n      dup1\n        /* \"#utility.yul\":9580:9583   */\n      dup5\n        /* \"#utility.yul\":9576:9592   */\n      add\n        /* \"#utility.yul\":9569:9592   */\n      swap2\n      pop\n        /* \"#utility.yul\":9318:9598   */\n      pop\n        /* \"#utility.yul\":9208:9598   */\n      swap3\n      swap2\n      pop\n      pop\n      jump\t// out\n        /* \"#utility.yul\":9604:9767   */\n    tag_260:\n        /* \"#utility.yul\":9744:9759   */\n      0x207365636f6e6473206c65667400000000000000000000000000000000000000\n        /* \"#utility.yul\":9740:9741   */\n      0x00\n        /* \"#utility.yul\":9732:9738   */\n      dup3\n        /* \"#utility.yul\":9728:9742   */\n      add\n        /* \"#utility.yul\":9721:9760   */\n      mstore\n        /* \"#utility.yul\":9604:9767   */\n      pop\n      jump\t// out\n        /* \"#utility.yul\":9773:10175   */\n    tag_261:\n        /* \"#utility.yul\":9933:9936   */\n      0x00\n        /* \"#utility.yul\":9954:10039   */\n      tag_393\n        /* \"#utility.yul\":10036:10038   */\n      0x0d\n        /* \"#utility.yul\":10031:10034   */\n      dup4\n        /* \"#utility.yul\":9954:10039   */\n      tag_256\n      jump\t// in\n    tag_393:\n        /* \"#utility.yul\":9947:10039   */\n      swap2\n      pop\n        /* \"#utility.yul\":10048:10141   */\n      tag_394\n        /* \"#utility.yul\":10137:10140   */\n      dup3\n        /* \"#utility.yul\":10048:10141   */\n      tag_260\n      jump\t// in\n    tag_394:\n        /* \"#utility.yul\":10166:10168   */\n      0x0d\n        /* \"#utility.yul\":10161:10164   */\n      dup3\n        /* \"#utility.yul\":10157:10169   */\n      add\n        /* \"#utility.yul\":10150:10169   */\n      swap1\n      pop\n        /* \"#utility.yul\":9773:10175   */\n      swap2\n      swap1\n      pop\n      jump\t// out\n        /* \"#utility.yul\":10181:10988   */\n    tag_41:\n        /* \"#utility.yul\":10515:10518   */\n      0x00\n        /* \"#utility.yul\":10537:10685   */\n      tag_396\n        /* \"#utility.yul\":10681:10684   */\n      dup3\n        /* \"#utility.yul\":10537:10685   */\n      tag_258\n      jump\t// in\n    tag_396:\n        /* \"#utility.yul\":10530:10685   */\n      swap2\n      pop\n        /* \"#utility.yul\":10702:10797   */\n      tag_397\n        /* \"#utility.yul\":10793:10796   */\n      dup3\n        /* \"#utility.yul\":10784:10790   */\n      dup5\n        /* \"#utility.yul\":10702:10797   */\n      tag_259\n      jump\t// in\n    tag_397:\n        /* \"#utility.yul\":10695:10797   */\n      swap2\n      pop\n        /* \"#utility.yul\":10814:10962   */\n      tag_398\n        /* \"#utility.yul\":10958:10961   */\n      dup3\n        /* \"#utility.yul\":10814:10962   */\n      tag_261\n      jump\t// in\n    tag_398:\n        /* \"#utility.yul\":10807:10962   */\n      swap2\n      pop\n        /* \"#utility.yul\":10979:10982   */\n      dup2\n        /* \"#utility.yul\":10972:10982   */\n      swap1\n      pop\n        /* \"#utility.yul\":10181:10988   */\n      swap3\n      swap2\n      pop\n      pop\n      jump\t// out\n        /* \"#utility.yul\":10994:11307   */\n    tag_43:\n        /* \"#utility.yul\":11107:11111   */\n      0x00\n        /* \"#utility.yul\":11145:11147   */\n      0x20\n        /* \"#utility.yul\":11134:11143   */\n      dup3\n        /* \"#utility.yul\":11130:11148   */\n      add\n        /* \"#utility.yul\":11122:11148   */\n      swap1\n      pop\n        /* \"#utility.yul\":11194:11203   */\n      dup2\n        /* \"#utility.yul\":11188:11192   */\n      dup2\n        /* \"#utility.yul\":11184:11204   */\n      sub\n        /* \"#utility.yul\":11180:11181   */\n      0x00\n        /* \"#utility.yul\":11169:11178   */\n      dup4\n        /* \"#utility.yul\":11165:11182   */\n      add\n        /* \"#utility.yul\":11158:11205   */\n      mstore\n        /* \"#utility.yul\":11222:11300   */\n      tag_400\n        /* \"#utility.yul\":11295:11299   */\n      dup2\n        /* \"#utility.yul\":11286:11292   */\n      dup5\n        /* \"#utility.yul\":11222:11300   */\n      tag_246\n      jump\t// in\n    tag_400:\n        /* \"#utility.yul\":11214:11300   */\n      swap1\n      pop\n        /* \"#utility.yul\":10994:11307   */\n      swap3\n      swap2\n      pop\n      pop\n      jump\t// out\n        /* \"#utility.yul\":11313:11495   */\n    tag_262:\n        /* \"#utility.yul\":11453:11487   */\n      0x496e707574206d75737420626520612073696e676c6520636861726163746572\n        /* \"#utility.yul\":11449:11450   */\n      0x00\n        /* \"#utility.yul\":11441:11447   */\n      dup3\n        /* \"#utility.yul\":11437:11451   */\n      add\n        /* \"#utility.yul\":11430:11488   */\n      mstore\n        /* \"#utility.yul\":11313:11495   */\n      pop\n      jump\t// out\n        /* \"#utility.yul\":11501:11867   */\n    tag_263:\n        /* \"#utility.yul\":11643:11646   */\n      0x00\n        /* \"#utility.yul\":11664:11731   */\n      tag_403\n        /* \"#utility.yul\":11728:11730   */\n      0x20\n        /* \"#utility.yul\":11723:11726   */\n      dup4\n        /* \"#utility.yul\":11664:11731   */\n      tag_244\n      jump\t// in\n    tag_403:\n        /* \"#utility.yul\":11657:11731   */\n      swap2\n      pop\n        /* \"#utility.yul\":11740:11833   */\n      tag_404\n        /* \"#utility.yul\":11829:11832   */\n      dup3\n        /* \"#utility.yul\":11740:11833   */\n      tag_262\n      jump\t// in\n    tag_404:\n        /* \"#utility.yul\":11858:11860   */\n      0x20\n        /* \"#utility.yul\":11853:11856   */\n      dup3\n        /* \"#utility.yul\":11849:11861   */\n      add\n        /* \"#utility.yul\":11842:11861   */\n      swap1\n      pop\n        /* \"#utility.yul\":11501:11867   */\n      swap2\n      swap1\n      pop\n      jump\t// out\n        /* \"#utility.yul\":11873:12292   */\n    tag_47:\n        /* \"#utility.yul\":12039:12043   */\n      0x00\n        /* \"#utility.yul\":12077:12079   */\n      0x20\n        /* \"#utility.yul\":12066:12075   */\n      dup3\n        /* \"#utility.yul\":12062:12080   */\n      add\n        /* \"#utility.yul\":12054:12080   */\n      swap1\n      pop\n        /* \"#utility.yul\":12126:12135   */\n      dup2\n        /* \"#utility.yul\":12120:12124   */\n      dup2\n        /* \"#utility.yul\":12116:12136   */\n      sub\n        /* \"#utility.yul\":12112:12113   */\n      0x00\n        /* \"#utility.yul\":12101:12110   */\n      dup4\n        /* \"#utility.yul\":12097:12114   */\n      add\n        /* \"#utility.yul\":12090:12137   */\n      mstore\n        /* \"#utility.yul\":12154:12285   */\n      tag_406\n        /* \"#utility.yul\":12280:12284   */\n      dup2\n        /* \"#utility.yul\":12154:12285   */\n      tag_263\n      jump\t// in\n    tag_406:\n        /* \"#utility.yul\":12146:12285   */\n      swap1\n      pop\n        /* \"#utility.yul\":11873:12292   */\n      swap2\n      swap1\n      pop\n      jump\t// out\n        /* \"#utility.yul\":12298:12478   */\n    tag_264:\n        /* \"#utility.yul\":12346:12423   */\n      0x4e487b7100000000000000000000000000000000000000000000000000000000\n        /* \"#utility.yul\":12343:12344   */\n      0x00\n        /* \"#utility.yul\":12336:12424   */\n      mstore\n        /* \"#utility.yul\":12443:12447   */\n      0x22\n        /* \"#utility.yul\":12440:12441   */\n      0x04\n        /* \"#utility.yul\":12433:12448   */\n      mstore\n        /* \"#utility.yul\":12467:12471   */\n      0x24\n        /* \"#utility.yul\":12464:12465   */\n      0x00\n        /* \"#utility.yul\":12457:12472   */\n      revert\n        /* \"#utility.yul\":12484:12804   */\n    tag_49:\n        /* \"#utility.yul\":12528:12534   */\n      0x00\n        /* \"#utility.yul\":12565:12566   */\n      0x02\n        /* \"#utility.yul\":12559:12563   */\n      dup3\n        /* \"#utility.yul\":12555:12567   */\n      div\n        /* \"#utility.yul\":12545:12567   */\n      swap1\n      pop\n        /* \"#utility.yul\":12612:12613   */\n      0x01\n        /* \"#utility.yul\":12606:12610   */\n      dup3\n        /* \"#utility.yul\":12602:12614   */\n      and\n        /* \"#utility.yul\":12633:12651   */\n      dup1\n        /* \"#utility.yul\":12623:12704   */\n      tag_409\n      jumpi\n        /* \"#utility.yul\":12689:12693   */\n      0x7f\n        /* \"#utility.yul\":12681:12687   */\n      dup3\n        /* \"#utility.yul\":12677:12694   */\n      and\n        /* \"#utility.yul\":12667:12694   */\n      swap2\n      pop\n        /* \"#utility.yul\":12623:12704   */\n    tag_409:\n        /* \"#utility.yul\":12751:12753   */\n      0x20\n        /* \"#utility.yul\":12743:12749   */\n      dup3\n        /* \"#utility.yul\":12740:12754   */\n      lt\n        /* \"#utility.yul\":12720:12738   */\n      dup2\n        /* \"#utility.yul\":12717:12755   */\n      sub\n        /* \"#utility.yul\":12714:12798   */\n      tag_410\n      jumpi\n        /* \"#utility.yul\":12770:12788   */\n      tag_411\n      tag_264\n      jump\t// in\n    tag_411:\n        /* \"#utility.yul\":12714:12798   */\n    tag_410:\n        /* \"#utility.yul\":12535:12804   */\n      pop\n        /* \"#utility.yul\":12484:12804   */\n      swap2\n      swap1\n      pop\n      jump\t// out\n        /* \"#utility.yul\":12810:12990   */\n    tag_60:\n        /* \"#utility.yul\":12858:12935   */\n      0x4e487b7100000000000000000000000000000000000000000000000000000000\n        /* \"#utility.yul\":12855:12856   */\n      0x00\n        /* \"#utility.yul\":12848:12936   */\n      mstore\n        /* \"#utility.yul\":12955:12959   */\n      0x32\n        /* \"#utility.yul\":12952:12953   */\n      0x04\n        /* \"#utility.yul\":12945:12960   */\n      mstore\n        /* \"#utility.yul\":12979:12983   */\n      0x24\n        /* \"#utility.yul\":12976:12977   */\n      0x00\n        /* \"#utility.yul\":12969:12984   */\n      revert\n        /* \"#utility.yul\":12996:13406   */\n    tag_69:\n        /* \"#utility.yul\":13036:13043   */\n      0x00\n        /* \"#utility.yul\":13059:13079   */\n      tag_414\n        /* \"#utility.yul\":13077:13078   */\n      dup3\n        /* \"#utility.yul\":13059:13079   */\n      tag_247\n      jump\t// in\n    tag_414:\n        /* \"#utility.yul\":13054:13079   */\n      swap2\n      pop\n        /* \"#utility.yul\":13093:13113   */\n      tag_415\n        /* \"#utility.yul\":13111:13112   */\n      dup4\n        /* \"#utility.yul\":13093:13113   */\n      tag_247\n      jump\t// in\n    tag_415:\n        /* \"#utility.yul\":13088:13113   */\n      swap3\n      pop\n        /* \"#utility.yul\":13148:13149   */\n      dup3\n        /* \"#utility.yul\":13145:13146   */\n      dup3\n        /* \"#utility.yul\":13141:13150   */\n      mul\n        /* \"#utility.yul\":13170:13200   */\n      tag_416\n        /* \"#utility.yul\":13188:13199   */\n      dup2\n        /* \"#utility.yul\":13170:13200   */\n      tag_247\n      jump\t// in\n    tag_416:\n        /* \"#utility.yul\":13159:13200   */\n      swap2\n      pop\n        /* \"#utility.yul\":13349:13350   */\n      dup3\n        /* \"#utility.yul\":13340:13347   */\n      dup3\n        /* \"#utility.yul\":13336:13351   */\n      div\n        /* \"#utility.yul\":13333:13334   */\n      dup5\n        /* \"#utility.yul\":13330:13352   */\n      eq\n        /* \"#utility.yul\":13310:13311   */\n      dup4\n        /* \"#utility.yul\":13303:13312   */\n      iszero\n        /* \"#utility.yul\":13283:13366   */\n      or\n        /* \"#utility.yul\":13260:13399   */\n      tag_417\n      jumpi\n        /* \"#utility.yul\":13379:13397   */\n      tag_418\n      tag_251\n      jump\t// in\n    tag_418:\n        /* \"#utility.yul\":13260:13399   */\n    tag_417:\n        /* \"#utility.yul\":13044:13406   */\n      pop\n        /* \"#utility.yul\":12996:13406   */\n      swap3\n      swap2\n      pop\n      pop\n      jump\t// out\n        /* \"#utility.yul\":13412:13553   */\n    tag_265:\n        /* \"#utility.yul\":13461:13465   */\n      0x00\n        /* \"#utility.yul\":13484:13487   */\n      dup2\n        /* \"#utility.yul\":13476:13487   */\n      swap1\n      pop\n        /* \"#utility.yul\":13507:13510   */\n      dup2\n        /* \"#utility.yul\":13504:13505   */\n      0x00\n        /* \"#utility.yul\":13497:13511   */\n      mstore\n        /* \"#utility.yul\":13541:13545   */\n      0x20\n        /* \"#utility.yul\":13538:13539   */\n      0x00\n        /* \"#utility.yul\":13528:13546   */\n      keccak256\n        /* \"#utility.yul\":13520:13546   */\n      swap1\n      pop\n        /* \"#utility.yul\":13412:13553   */\n      swap2\n      swap1\n      pop\n      jump\t// out\n        /* \"#utility.yul\":13559:13652   */\n    tag_266:\n        /* \"#utility.yul\":13596:13602   */\n      0x00\n        /* \"#utility.yul\":13643:13645   */\n      0x20\n        /* \"#utility.yul\":13638:13640   */\n      0x1f\n        /* \"#utility.yul\":13631:13636   */\n      dup4\n        /* \"#utility.yul\":13627:13641   */\n      add\n        /* \"#utility.yul\":13623:13646   */\n      div\n        /* \"#utility.yul\":13613:13646   */\n      swap1\n      pop\n        /* \"#utility.yul\":13559:13652   */\n      swap2\n      swap1\n      pop\n      jump\t// out\n        /* \"#utility.yul\":13658:13765   */\n    tag_267:\n        /* \"#utility.yul\":13702:13710   */\n      0x00\n        /* \"#utility.yul\":13752:13757   */\n      dup3\n        /* \"#utility.yul\":13746:13750   */\n      dup3\n        /* \"#utility.yul\":13742:13758   */\n      shl\n        /* \"#utility.yul\":13721:13758   */\n      swap1\n      pop\n        /* \"#utility.yul\":13658:13765   */\n      swap3\n      swap2\n      pop\n      pop\n      jump\t// out\n        /* \"#utility.yul\":13771:14164   */\n    tag_268:\n        /* \"#utility.yul\":13840:13846   */\n      0x00\n        /* \"#utility.yul\":13890:13891   */\n      0x08\n        /* \"#utility.yul\":13878:13888   */\n      dup4\n        /* \"#utility.yul\":13874:13892   */\n      mul\n        /* \"#utility.yul\":13913:14010   */\n      tag_423\n        /* \"#utility.yul\":13943:14009   */\n      0xffffffffffffffffffffffffffffffffffffffffffffffffffffffffffffffff\n        /* \"#utility.yul\":13932:13941   */\n      dup3\n        /* \"#utility.yul\":13913:14010   */\n      tag_267\n      jump\t// in\n    tag_423:\n        /* \"#utility.yul\":14031:14070   */\n      tag_424\n        /* \"#utility.yul\":14061:14069   */\n      dup7\n        /* \"#utility.yul\":14050:14059   */\n      dup4\n        /* \"#utility.yul\":14031:14070   */\n      tag_267\n      jump\t// in\n    tag_424:\n        /* \"#utility.yul\":14019:14070   */\n      swap6\n      pop\n        /* \"#utility.yul\":14103:14107   */\n      dup1\n        /* \"#utility.yul\":14099:14108   */\n      not\n        /* \"#utility.yul\":14092:14097   */\n      dup5\n        /* \"#utility.yul\":14088:14109   */\n      and\n        /* \"#utility.yul\":14079:14109   */\n      swap4\n      pop\n        /* \"#utility.yul\":14152:14156   */\n      dup1\n        /* \"#utility.yul\":14142:14150   */\n      dup7\n        /* \"#utility.yul\":14138:14157   */\n      and\n        /* \"#utility.yul\":14131:14136   */\n      dup5\n        /* \"#utility.yul\":14128:14158   */\n      or\n        /* \"#utility.yul\":14118:14158   */\n      swap3\n      pop\n        /* \"#utility.yul\":13847:14164   */\n      pop\n      pop\n        /* \"#utility.yul\":13771:14164   */\n      swap4\n      swap3\n      pop\n      pop\n      pop\n      jump\t// out\n        /* \"#utility.yul\":14170:14230   */\n    tag_269:\n        /* \"#utility.yul\":14198:14201   */\n      0x00\n        /* \"#utility.yul\":14219:14224   */\n      dup2\n        /* \"#utility.yul\":14212:14224   */\n      swap1\n      pop\n        /* \"#utility.yul\":14170:14230   */\n      swap2\n      swap1\n      pop\n      jump\t// out\n        /* \"#utility.yul\":14236:14378   */\n    tag_270:\n        /* \"#utility.yul\":14286:14295   */\n      0x00\n        /* \"#utility.yul\":14319:14372   */\n      tag_427\n        /* \"#utility.yul\":14337:14371   */\n      tag_428\n        /* \"#utility.yul\":14346:14370   */\n      tag_429\n        /* \"#utility.yul\":14364:14369   */\n      dup5\n        /* \"#utility.yul\":14346:14370   */\n      tag_247\n      jump\t// in\n    tag_429:\n        /* \"#utility.yul\":14337:14371   */\n      tag_269\n      jump\t// in\n    tag_428:\n        /* \"#utility.yul\":14319:14372   */\n      tag_247\n      jump\t// in\n    tag_427:\n        /* \"#utility.yul\":14306:14372   */\n      swap1\n      pop\n        /* \"#utility.yul\":14236:14378   */\n      swap2\n      swap1\n      pop\n      jump\t// out\n        /* \"#utility.yul\":14384:14459   */\n    tag_271:\n        /* \"#utility.yul\":14427:14430   */\n      0x00\n        /* \"#utility.yul\":14448:14453   */\n      dup2\n        /* \"#utility.yul\":14441:14453   */\n      swap1\n      pop\n        /* \"#utility.yul\":14384:14459   */\n      swap2\n      swap1\n      pop\n      jump\t// out\n        /* \"#utility.yul\":14465:14734   */\n    tag_272:\n        /* \"#utility.yul\":14575:14614   */\n      tag_432\n        /* \"#utility.yul\":14606:14613   */\n      dup4\n        /* \"#utility.yul\":14575:14614   */\n      tag_270\n      jump\t// in\n    tag_432:\n        /* \"#utility.yul\":14636:14727   */\n      tag_433\n        /* \"#utility.yul\":14685:14726   */\n      tag_434\n        /* \"#utility.yul\":14709:14725   */\n      dup3\n        /* \"#utility.yul\":14685:14726   */\n      tag_271\n      jump\t// in\n    tag_434:\n        /* \"#utility.yul\":14677:14683   */\n      dup5\n        /* \"#utility.yul\":14670:14674   */\n      dup5\n        /* \"#utility.yul\":14664:14675   */\n      sload\n        /* \"#utility.yul\":14636:14727   */\n      tag_268\n      jump\t// in\n    tag_433:\n        /* \"#utility.yul\":14630:14634   */\n      dup3\n        /* \"#utility.yul\":14623:14728   */\n      sstore\n        /* \"#utility.yul\":14541:14734   */\n      pop\n        /* \"#utility.yul\":14465:14734   */\n      pop\n      pop\n      pop\n      jump\t// out\n        /* \"#utility.yul\":14740:14813   */\n    tag_273:\n        /* \"#utility.yul\":14785:14788   */\n      0x00\n        /* \"#utility.yul\":14740:14813   */\n      swap1\n      jump\t// out\n        /* \"#utility.yul\":14819:15008   */\n    tag_274:\n        /* \"#utility.yul\":14896:14928   */\n      tag_437\n      tag_273\n      jump\t// in\n    tag_437:\n        /* \"#utility.yul\":14937:15002   */\n      tag_438\n        /* \"#utility.yul\":14995:15001   */\n      dup2\n        /* \"#utility.yul\":14987:14993   */\n      dup5\n        /* \"#utility.yul\":14981:14985   */\n      dup5\n        /* \"#utility.yul\":14937:15002   */\n      tag_272\n      jump\t// in\n    tag_438:\n        /* \"#utility.yul\":14872:15008   */\n      pop\n        /* \"#utility.yul\":14819:15008   */\n      pop\n      pop\n      jump\t// out\n        /* \"#utility.yul\":15014:15200   */\n    tag_275:\n        /* \"#utility.yul\":15074:15194   */\n    tag_440:\n        /* \"#utility.yul\":15091:15094   */\n      dup2\n        /* \"#utility.yul\":15084:15089   */\n      dup2\n        /* \"#utility.yul\":15081:15095   */\n      lt\n        /* \"#utility.yul\":15074:15194   */\n      iszero\n      tag_442\n      jumpi\n        /* \"#utility.yul\":15145:15184   */\n      tag_443\n        /* \"#utility.yul\":15182:15183   */\n      0x00\n        /* \"#utility.yul\":15175:15180   */\n      dup3\n        /* \"#utility.yul\":15145:15184   */\n      tag_274\n      jump\t// in\n    tag_443:\n        /* \"#utility.yul\":15118:15119   */\n      0x01\n        /* \"#utility.yul\":15111:15116   */\n      dup2\n        /* \"#utility.yul\":15107:15120   */\n      add\n        /* \"#utility.yul\":15098:15120   */\n      swap1\n      pop\n        /* \"#utility.yul\":15074:15194   */\n      jump(tag_440)\n    tag_442:\n        /* \"#utility.yul\":15014:15200   */\n      pop\n      pop\n      jump\t// out\n        /* \"#utility.yul\":15206:15749   */\n    tag_276:\n        /* \"#utility.yul\":15307:15309   */\n      0x1f\n        /* \"#utility.yul\":15302:15305   */\n      dup3\n        /* \"#utility.yul\":15299:15310   */\n      gt\n        /* \"#utility.yul\":15296:15742   */\n      iszero\n      tag_445\n      jumpi\n        /* \"#utility.yul\":15341:15379   */\n      tag_446\n        /* \"#utility.yul\":15373:15378   */\n      dup2\n        /* \"#utility.yul\":15341:15379   */\n      tag_265\n      jump\t// in\n    tag_446:\n        /* \"#utility.yul\":15425:15454   */\n      tag_447\n        /* \"#utility.yul\":15443:15453   */\n      dup5\n        /* \"#utility.yul\":15425:15454   */\n      tag_266\n      jump\t// in\n    tag_447:\n        /* \"#utility.yul\":15415:15423   */\n      dup2\n        /* \"#utility.yul\":15411:15455   */\n      add\n        /* \"#utility.yul\":15608:15610   */\n      0x20\n        /* \"#utility.yul\":15596:15606   */\n      dup6\n        /* \"#utility.yul\":15593:15611   */\n      lt\n        /* \"#utility.yul\":15590:15639   */\n      iszero\n      tag_448\n      jumpi\n        /* \"#utility.yul\":15629:15637   */\n      dup2\n        /* \"#utility.yul\":15614:15637   */\n      swap1\n      pop\n        /* \"#utility.yul\":15590:15639   */\n    tag_448:\n        /* \"#utility.yul\":15652:15732   */\n      tag_449\n        /* \"#utility.yul\":15708:15730   */\n      tag_450\n        /* \"#utility.yul\":15726:15729   */\n      dup6\n        /* \"#utility.yul\":15708:15730   */\n      tag_266\n      jump\t// in\n    tag_450:\n        /* \"#utility.yul\":15698:15706   */\n      dup4\n        /* \"#utility.yul\":15694:15731   */\n      add\n        /* \"#utility.yul\":15681:15692   */\n      dup3\n        /* \"#utility.yul\":15652:15732   */\n      tag_275\n      jump\t// in\n    tag_449:\n        /* \"#utility.yul\":15311:15742   */\n      pop\n      pop\n        /* \"#utility.yul\":15296:15742   */\n    tag_445:\n        /* \"#utility.yul\":15206:15749   */\n      pop\n      pop\n      pop\n      jump\t// out\n        /* \"#utility.yul\":15755:15872   */\n    tag_277:\n        /* \"#utility.yul\":15809:15817   */\n      0x00\n        /* \"#utility.yul\":15859:15864   */\n      dup3\n        /* \"#utility.yul\":15853:15857   */\n      dup3\n        /* \"#utility.yul\":15849:15865   */\n      shr\n        /* \"#utility.yul\":15828:15865   */\n      swap1\n      pop\n        /* \"#utility.yul\":15755:15872   */\n      swap3\n      swap2\n      pop\n      pop\n      jump\t// out\n        /* \"#utility.yul\":15878:16047   */\n    tag_278:\n        /* \"#utility.yul\":15922:15928   */\n      0x00\n        /* \"#utility.yul\":15955:16006   */\n      tag_453\n        /* \"#utility.yul\":16003:16004   */\n      0x00\n        /* \"#utility.yul\":15999:16005   */\n      not\n        /* \"#utility.yul\":15991:15996   */\n      dup5\n        /* \"#utility.yul\":15988:15989   */\n      0x08\n        /* \"#utility.yul\":15984:15997   */\n      mul\n        /* \"#utility.yul\":15955:16006   */\n      tag_277\n      jump\t// in\n    tag_453:\n        /* \"#utility.yul\":15951:16007   */\n      not\n        /* \"#utility.yul\":16036:16040   */\n      dup1\n        /* \"#utility.yul\":16030:16034   */\n      dup4\n        /* \"#utility.yul\":16026:16041   */\n      and\n        /* \"#utility.yul\":16016:16041   */\n      swap2\n      pop\n        /* \"#utility.yul\":15929:16047   */\n      pop\n        /* \"#utility.yul\":15878:16047   */\n      swap3\n      swap2\n      pop\n      pop\n      jump\t// out\n        /* \"#utility.yul\":16052:16347   */\n    tag_279:\n        /* \"#utility.yul\":16128:16132   */\n      0x00\n        /* \"#utility.yul\":16274:16303   */\n      tag_455\n        /* \"#utility.yul\":16299:16302   */\n      dup4\n        /* \"#utility.yul\":16293:16297   */\n      dup4\n        /* \"#utility.yul\":16274:16303   */\n      tag_278\n      jump\t// in\n    tag_455:\n        /* \"#utility.yul\":16266:16303   */\n      swap2\n      pop\n        /* \"#utility.yul\":16336:16339   */\n      dup3\n        /* \"#utility.yul\":16333:16334   */\n      0x02\n        /* \"#utility.yul\":16329:16340   */\n      mul\n        /* \"#utility.yul\":16323:16327   */\n      dup3\n        /* \"#utility.yul\":16320:16341   */\n      or\n        /* \"#utility.yul\":16312:16341   */\n      swap1\n      pop\n        /* \"#utility.yul\":16052:16347   */\n      swap3\n      swap2\n      pop\n      pop\n      jump\t// out\n        /* \"#utility.yul\":16352:17747   */\n    tag_73:\n        /* \"#utility.yul\":16469:16506   */\n      tag_457\n        /* \"#utility.yul\":16502:16505   */\n      dup3\n        /* \"#utility.yul\":16469:16506   */\n      tag_243\n      jump\t// in\n    tag_457:\n        /* \"#utility.yul\":16571:16589   */\n      0xffffffffffffffff\n        /* \"#utility.yul\":16563:16569   */\n      dup2\n        /* \"#utility.yul\":16560:16590   */\n      gt\n        /* \"#utility.yul\":16557:16613   */\n      iszero\n      tag_458\n      jumpi\n        /* \"#utility.yul\":16593:16611   */\n      tag_459\n      tag_154\n      jump\t// in\n    tag_459:\n        /* \"#utility.yul\":16557:16613   */\n    tag_458:\n        /* \"#utility.yul\":16637:16675   */\n      tag_460\n        /* \"#utility.yul\":16669:16673   */\n      dup3\n        /* \"#utility.yul\":16663:16674   */\n      sload\n        /* \"#utility.yul\":16637:16675   */\n      tag_49\n      jump\t// in\n    tag_460:\n        /* \"#utility.yul\":16722:16789   */\n      tag_461\n        /* \"#utility.yul\":16782:16788   */\n      dup3\n        /* \"#utility.yul\":16774:16780   */\n      dup3\n        /* \"#utility.yul\":16768:16772   */\n      dup6\n        /* \"#utility.yul\":16722:16789   */\n      tag_276\n      jump\t// in\n    tag_461:\n        /* \"#utility.yul\":16816:16817   */\n      0x00\n        /* \"#utility.yul\":16840:16844   */\n      0x20\n        /* \"#utility.yul\":16827:16844   */\n      swap1\n      pop\n        /* \"#utility.yul\":16872:16874   */\n      0x1f\n        /* \"#utility.yul\":16864:16870   */\n      dup4\n        /* \"#utility.yul\":16861:16875   */\n      gt\n        /* \"#utility.yul\":16889:16890   */\n      0x01\n        /* \"#utility.yul\":16884:17502   */\n      dup2\n      eq\n      tag_463\n      jumpi\n        /* \"#utility.yul\":17546:17547   */\n      0x00\n        /* \"#utility.yul\":17563:17569   */\n      dup5\n        /* \"#utility.yul\":17560:17637   */\n      iszero\n      tag_464\n      jumpi\n        /* \"#utility.yul\":17612:17621   */\n      dup3\n        /* \"#utility.yul\":17607:17610   */\n      dup8\n        /* \"#utility.yul\":17603:17622   */\n      add\n        /* \"#utility.yul\":17597:17623   */\n      mload\n        /* \"#utility.yul\":17588:17623   */\n      swap1\n      pop\n        /* \"#utility.yul\":17560:17637   */\n    tag_464:\n        /* \"#utility.yul\":17663:17730   */\n      tag_465\n        /* \"#utility.yul\":17723:17729   */\n      dup6\n        /* \"#utility.yul\":17716:17721   */\n      dup3\n        /* \"#utility.yul\":17663:17730   */\n      tag_279\n      jump\t// in\n    tag_465:\n        /* \"#utility.yul\":17657:17661   */\n      dup7\n        /* \"#utility.yul\":17650:17731   */\n      sstore\n        /* \"#utility.yul\":17519:17741   */\n      pop\n        /* \"#utility.yul\":16854:17741   */\n      jump(tag_462)\n        /* \"#utility.yul\":16884:17502   */\n    tag_463:\n        /* \"#utility.yul\":16936:16940   */\n      0x1f\n        /* \"#utility.yul\":16932:16941   */\n      not\n        /* \"#utility.yul\":16924:16930   */\n      dup5\n        /* \"#utility.yul\":16920:16942   */\n      and\n        /* \"#utility.yul\":16970:17007   */\n      tag_466\n        /* \"#utility.yul\":17002:17006   */\n      dup7\n        /* \"#utility.yul\":16970:17007   */\n      tag_265\n      jump\t// in\n    tag_466:\n        /* \"#utility.yul\":17029:17030   */\n      0x00\n        /* \"#utility.yul\":17043:17251   */\n    tag_467:\n        /* \"#utility.yul\":17057:17064   */\n      dup3\n        /* \"#utility.yul\":17054:17055   */\n      dup2\n        /* \"#utility.yul\":17051:17065   */\n      lt\n        /* \"#utility.yul\":17043:17251   */\n      iszero\n      tag_469\n      jumpi\n        /* \"#utility.yul\":17136:17145   */\n      dup5\n        /* \"#utility.yul\":17131:17134   */\n      dup10\n        /* \"#utility.yul\":17127:17146   */\n      add\n        /* \"#utility.yul\":17121:17147   */\n      mload\n        /* \"#utility.yul\":17113:17119   */\n      dup3\n        /* \"#utility.yul\":17106:17148   */\n      sstore\n        /* \"#utility.yul\":17187:17188   */\n      0x01\n        /* \"#utility.yul\":17179:17185   */\n      dup3\n        /* \"#utility.yul\":17175:17189   */\n      add\n        /* \"#utility.yul\":17165:17189   */\n      swap2\n      pop\n        /* \"#utility.yul\":17234:17236   */\n      0x20\n        /* \"#utility.yul\":17223:17232   */\n      dup6\n        /* \"#utility.yul\":17219:17237   */\n      add\n        /* \"#utility.yul\":17206:17237   */\n      swap5\n      pop\n        /* \"#utility.yul\":17080:17084   */\n      0x20\n        /* \"#utility.yul\":17077:17078   */\n      dup2\n        /* \"#utility.yul\":17073:17085   */\n      add\n        /* \"#utility.yul\":17068:17085   */\n      swap1\n      pop\n        /* \"#utility.yul\":17043:17251   */\n      jump(tag_467)\n    tag_469:\n        /* \"#utility.yul\":17279:17285   */\n      dup7\n        /* \"#utility.yul\":17270:17277   */\n      dup4\n        /* \"#utility.yul\":17267:17286   */\n      lt\n        /* \"#utility.yul\":17264:17443   */\n      iszero\n      tag_470\n      jumpi\n        /* \"#utility.yul\":17337:17346   */\n      dup5\n        /* \"#utility.yul\":17332:17335   */\n      dup10\n        /* \"#utility.yul\":17328:17347   */\n      add\n        /* \"#utility.yul\":17322:17348   */\n      mload\n        /* \"#utility.yul\":17380:17428   */\n      tag_471\n        /* \"#utility.yul\":17422:17426   */\n      0x1f\n        /* \"#utility.yul\":17414:17420   */\n      dup10\n        /* \"#utility.yul\":17410:17427   */\n      and\n        /* \"#utility.yul\":17399:17408   */\n      dup3\n        /* \"#utility.yul\":17380:17428   */\n      tag_278\n      jump\t// in\n    tag_471:\n        /* \"#utility.yul\":17372:17378   */\n      dup4\n        /* \"#utility.yul\":17365:17429   */\n      sstore\n        /* \"#utility.yul\":17287:17443   */\n      pop\n        /* \"#utility.yul\":17264:17443   */\n    tag_470:\n        /* \"#utility.yul\":17489:17490   */\n      0x01\n        /* \"#utility.yul\":17485:17486   */\n      0x02\n        /* \"#utility.yul\":17477:17483   */\n      dup9\n        /* \"#utility.yul\":17473:17487   */\n      mul\n        /* \"#utility.yul\":17469:17491   */\n      add\n        /* \"#utility.yul\":17463:17467   */\n      dup9\n        /* \"#utility.yul\":17456:17492   */\n      sstore\n        /* \"#utility.yul\":16891:17502   */\n      pop\n      pop\n      pop\n        /* \"#utility.yul\":16854:17741   */\n    tag_462:\n      pop\n        /* \"#utility.yul\":16444:17747   */\n      pop\n      pop\n      pop\n        /* \"#utility.yul\":16352:17747   */\n      pop\n      pop\n      jump\t// out\n        /* \"#utility.yul\":17777:18651   */\n    tag_280:\n        /* \"#utility.yul\":17880:17883   */\n      0x00\n        /* \"#utility.yul\":17917:17922   */\n      dup2\n        /* \"#utility.yul\":17911:17923   */\n      sload\n        /* \"#utility.yul\":17946:17982   */\n      tag_473\n        /* \"#utility.yul\":17972:17981   */\n      dup2\n        /* \"#utility.yul\":17946:17982   */\n      tag_49\n      jump\t// in\n    tag_473:\n        /* \"#utility.yul\":17998:18087   */\n      tag_474\n        /* \"#utility.yul\":18080:18086   */\n      dup2\n        /* \"#utility.yul\":18075:18078   */\n      dup7\n        /* \"#utility.yul\":17998:18087   */\n      tag_256\n      jump\t// in\n    tag_474:\n        /* \"#utility.yul\":17991:18087   */\n      swap5\n      pop\n        /* \"#utility.yul\":18118:18119   */\n      0x01\n        /* \"#utility.yul\":18107:18116   */\n      dup3\n        /* \"#utility.yul\":18103:18120   */\n      and\n        /* \"#utility.yul\":18134:18135   */\n      0x00\n        /* \"#utility.yul\":18129:18295   */\n      dup2\n      eq\n      tag_476\n      jumpi\n        /* \"#utility.yul\":18309:18310   */\n      0x01\n        /* \"#utility.yul\":18304:18645   */\n      dup2\n      eq\n      tag_477\n      jumpi\n        /* \"#utility.yul\":18096:18645   */\n      jump(tag_475)\n        /* \"#utility.yul\":18129:18295   */\n    tag_476:\n        /* \"#utility.yul\":18213:18217   */\n      0xff\n        /* \"#utility.yul\":18209:18218   */\n      not\n        /* \"#utility.yul\":18198:18207   */\n      dup4\n        /* \"#utility.yul\":18194:18219   */\n      and\n        /* \"#utility.yul\":18189:18192   */\n      dup7\n        /* \"#utility.yul\":18182:18220   */\n      mstore\n        /* \"#utility.yul\":18275:18281   */\n      dup2\n        /* \"#utility.yul\":18268:18282   */\n      iszero\n        /* \"#utility.yul\":18261:18283   */\n      iszero\n        /* \"#utility.yul\":18253:18259   */\n      dup3\n        /* \"#utility.yul\":18249:18284   */\n      mul\n        /* \"#utility.yul\":18244:18247   */\n      dup7\n        /* \"#utility.yul\":18240:18285   */\n      add\n        /* \"#utility.yul\":18233:18285   */\n      swap4\n      pop\n        /* \"#utility.yul\":18129:18295   */\n      jump(tag_475)\n        /* \"#utility.yul\":18304:18645   */\n    tag_477:\n        /* \"#utility.yul\":18371:18409   */\n      tag_478\n        /* \"#utility.yul\":18403:18408   */\n      dup6\n        /* \"#utility.yul\":18371:18409   */\n      tag_265\n      jump\t// in\n    tag_478:\n        /* \"#utility.yul\":18431:18432   */\n      0x00\n        /* \"#utility.yul\":18445:18599   */\n    tag_479:\n        /* \"#utility.yul\":18459:18465   */\n      dup4\n        /* \"#utility.yul\":18456:18457   */\n      dup2\n        /* \"#utility.yul\":18453:18466   */\n      lt\n        /* \"#utility.yul\":18445:18599   */\n      iszero\n      tag_481\n      jumpi\n        /* \"#utility.yul\":18533:18540   */\n      dup2\n        /* \"#utility.yul\":18527:18541   */\n      sload\n        /* \"#utility.yul\":18523:18524   */\n      dup2\n        /* \"#utility.yul\":18518:18521   */\n      dup10\n        /* \"#utility.yul\":18514:18525   */\n      add\n        /* \"#utility.yul\":18507:18542   */\n      mstore\n        /* \"#utility.yul\":18583:18584   */\n      0x01\n        /* \"#utility.yul\":18574:18581   */\n      dup3\n        /* \"#utility.yul\":18570:18585   */\n      add\n        /* \"#utility.yul\":18559:18585   */\n      swap2\n      pop\n        /* \"#utility.yul\":18481:18485   */\n      0x20\n        /* \"#utility.yul\":18478:18479   */\n      dup2\n        /* \"#utility.yul\":18474:18486   */\n      add\n        /* \"#utility.yul\":18469:18486   */\n      swap1\n      pop\n        /* \"#utility.yul\":18445:18599   */\n      jump(tag_479)\n    tag_481:\n        /* \"#utility.yul\":18628:18634   */\n      dup4\n        /* \"#utility.yul\":18623:18626   */\n      dup9\n        /* \"#utility.yul\":18619:18635   */\n      add\n        /* \"#utility.yul\":18612:18635   */\n      swap6\n      pop\n        /* \"#utility.yul\":18311:18645   */\n      pop\n      pop\n        /* \"#utility.yul\":18096:18645   */\n    tag_475:\n      pop\n        /* \"#utility.yul\":17884:18651   */\n      pop\n      pop\n        /* \"#utility.yul\":17777:18651   */\n      swap3\n      swap2\n      pop\n      pop\n      jump\t// out\n        /* \"#utility.yul\":18657:18808   */\n    tag_281:\n        /* \"#utility.yul\":18797:18800   */\n      0x2000000000000000000000000000000000000000000000000000000000000000\n        /* \"#utility.yul\":18793:18794   */\n      0x00\n        /* \"#utility.yul\":18785:18791   */\n      dup3\n        /* \"#utility.yul\":18781:18795   */\n      add\n        /* \"#utility.yul\":18774:18801   */\n      mstore\n        /* \"#utility.yul\":18657:18808   */\n      pop\n      jump\t// out\n        /* \"#utility.yul\":18814:19214   */\n    tag_282:\n        /* \"#utility.yul\":18974:18977   */\n      0x00\n        /* \"#utility.yul\":18995:19079   */\n      tag_484\n        /* \"#utility.yul\":19077:19078   */\n      0x01\n        /* \"#utility.yul\":19072:19075   */\n      dup4\n        /* \"#utility.yul\":18995:19079   */\n      tag_256\n      jump\t// in\n    tag_484:\n        /* \"#utility.yul\":18988:19079   */\n      swap2\n      pop\n        /* \"#utility.yul\":19088:19181   */\n      tag_485\n        /* \"#utility.yul\":19177:19180   */\n      dup3\n        /* \"#utility.yul\":19088:19181   */\n      tag_281\n      jump\t// in\n    tag_485:\n        /* \"#utility.yul\":19206:19207   */\n      0x01\n        /* \"#utility.yul\":19201:19204   */\n      dup3\n        /* \"#utility.yul\":19197:19208   */\n      add\n        /* \"#utility.yul\":19190:19208   */\n      swap1\n      pop\n        /* \"#utility.yul\":18814:19214   */\n      swap2\n      swap1\n      pop\n      jump\t// out\n        /* \"#utility.yul\":19220:19915   */\n    tag_84:\n        /* \"#utility.yul\":19498:19501   */\n      0x00\n        /* \"#utility.yul\":19520:19612   */\n      tag_487\n        /* \"#utility.yul\":19608:19611   */\n      dup3\n        /* \"#utility.yul\":19599:19605   */\n      dup6\n        /* \"#utility.yul\":19520:19612   */\n      tag_280\n      jump\t// in\n    tag_487:\n        /* \"#utility.yul\":19513:19612   */\n      swap2\n      pop\n        /* \"#utility.yul\":19629:19724   */\n      tag_488\n        /* \"#utility.yul\":19720:19723   */\n      dup3\n        /* \"#utility.yul\":19711:19717   */\n      dup5\n        /* \"#utility.yul\":19629:19724   */\n      tag_259\n      jump\t// in\n    tag_488:\n        /* \"#utility.yul\":19622:19724   */\n      swap2\n      pop\n        /* \"#utility.yul\":19741:19889   */\n      tag_489\n        /* \"#utility.yul\":19885:19888   */\n      dup3\n        /* \"#utility.yul\":19741:19889   */\n      tag_282\n      jump\t// in\n    tag_489:\n        /* \"#utility.yul\":19734:19889   */\n      swap2\n      pop\n        /* \"#utility.yul\":19906:19909   */\n      dup2\n        /* \"#utility.yul\":19899:19909   */\n      swap1\n      pop\n        /* \"#utility.yul\":19220:19915   */\n      swap4\n      swap3\n      pop\n      pop\n      pop\n      jump\t// out\n        /* \"#utility.yul\":19921:20092   */\n    tag_87:\n        /* \"#utility.yul\":19960:19963   */\n      0x00\n        /* \"#utility.yul\":19983:20007   */\n      tag_491\n        /* \"#utility.yul\":20001:20006   */\n      dup3\n        /* \"#utility.yul\":19983:20007   */\n      tag_247\n      jump\t// in\n    tag_491:\n        /* \"#utility.yul\":19974:20007   */\n      swap2\n      pop\n        /* \"#utility.yul\":20029:20033   */\n      0x00\n        /* \"#utility.yul\":20022:20027   */\n      dup3\n        /* \"#utility.yul\":20019:20034   */\n      sub\n        /* \"#utility.yul\":20016:20057   */\n      tag_492\n      jumpi\n        /* \"#utility.yul\":20037:20055   */\n      tag_493\n      tag_251\n      jump\t// in\n    tag_493:\n        /* \"#utility.yul\":20016:20057   */\n    tag_492:\n        /* \"#utility.yul\":20084:20085   */\n      0x01\n        /* \"#utility.yul\":20077:20082   */\n      dup3\n        /* \"#utility.yul\":20073:20086   */\n      sub\n        /* \"#utility.yul\":20066:20086   */\n      swap1\n      pop\n        /* \"#utility.yul\":19921:20092   */\n      swap2\n      swap1\n      pop\n      jump\t// out\n        /* \"#utility.yul\":20122:20953   */\n    tag_283:\n        /* \"#utility.yul\":20207:20210   */\n      0x00\n        /* \"#utility.yul\":20244:20249   */\n      dup2\n        /* \"#utility.yul\":20238:20250   */\n      sload\n        /* \"#utility.yul\":20273:20309   */\n      tag_495\n        /* \"#utility.yul\":20299:20308   */\n      dup2\n        /* \"#utility.yul\":20273:20309   */\n      tag_49\n      jump\t// in\n    tag_495:\n        /* \"#utility.yul\":20325:20396   */\n      tag_496\n        /* \"#utility.yul\":20389:20395   */\n      dup2\n        /* \"#utility.yul\":20384:20387   */\n      dup7\n        /* \"#utility.yul\":20325:20396   */\n      tag_244\n      jump\t// in\n    tag_496:\n        /* \"#utility.yul\":20318:20396   */\n      swap5\n      pop\n        /* \"#utility.yul\":20427:20428   */\n      0x01\n        /* \"#utility.yul\":20416:20425   */\n      dup3\n        /* \"#utility.yul\":20412:20429   */\n      and\n        /* \"#utility.yul\":20443:20444   */\n      0x00\n        /* \"#utility.yul\":20438:20602   */\n      dup2\n      eq\n      tag_498\n      jumpi\n        /* \"#utility.yul\":20616:20617   */\n      0x01\n        /* \"#utility.yul\":20611:20947   */\n      dup2\n      eq\n      tag_499\n      jumpi\n        /* \"#utility.yul\":20405:20947   */\n      jump(tag_497)\n        /* \"#utility.yul\":20438:20602   */\n    tag_498:\n        /* \"#utility.yul\":20522:20526   */\n      0xff\n        /* \"#utility.yul\":20518:20527   */\n      not\n        /* \"#utility.yul\":20507:20516   */\n      dup4\n        /* \"#utility.yul\":20503:20528   */\n      and\n        /* \"#utility.yul\":20498:20501   */\n      dup7\n        /* \"#utility.yul\":20491:20529   */\n      mstore\n        /* \"#utility.yul\":20582:20588   */\n      dup2\n        /* \"#utility.yul\":20575:20589   */\n      iszero\n        /* \"#utility.yul\":20568:20590   */\n      iszero\n        /* \"#utility.yul\":20562:20566   */\n      0x20\n        /* \"#utility.yul\":20558:20591   */\n      mul\n        /* \"#utility.yul\":20553:20556   */\n      dup7\n        /* \"#utility.yul\":20549:20592   */\n      add\n        /* \"#utility.yul\":20542:20592   */\n      swap4\n      pop\n        /* \"#utility.yul\":20438:20602   */\n      jump(tag_497)\n        /* \"#utility.yul\":20611:20947   */\n    tag_499:\n        /* \"#utility.yul\":20678:20716   */\n      tag_500\n        /* \"#utility.yul\":20710:20715   */\n      dup6\n        /* \"#utility.yul\":20678:20716   */\n      tag_265\n      jump\t// in\n    tag_500:\n        /* \"#utility.yul\":20738:20739   */\n      0x00\n        /* \"#utility.yul\":20752:20906   */\n    tag_501:\n        /* \"#utility.yul\":20766:20772   */\n      dup4\n        /* \"#utility.yul\":20763:20764   */\n      dup2\n        /* \"#utility.yul\":20760:20773   */\n      lt\n        /* \"#utility.yul\":20752:20906   */\n      iszero\n      tag_503\n      jumpi\n        /* \"#utility.yul\":20840:20847   */\n      dup2\n        /* \"#utility.yul\":20834:20848   */\n      sload\n        /* \"#utility.yul\":20830:20831   */\n      dup2\n        /* \"#utility.yul\":20825:20828   */\n      dup10\n        /* \"#utility.yul\":20821:20832   */\n      add\n        /* \"#utility.yul\":20814:20849   */\n      mstore\n        /* \"#utility.yul\":20890:20891   */\n      0x01\n        /* \"#utility.yul\":20881:20888   */\n      dup3\n        /* \"#utility.yul\":20877:20892   */\n      add\n        /* \"#utility.yul\":20866:20892   */\n      swap2\n      pop\n        /* \"#utility.yul\":20788:20792   */\n      0x20\n        /* \"#utility.yul\":20785:20786   */\n      dup2\n        /* \"#utility.yul\":20781:20793   */\n      add\n        /* \"#utility.yul\":20776:20793   */\n      swap1\n      pop\n        /* \"#utility.yul\":20752:20906   */\n      jump(tag_501)\n    tag_503:\n        /* \"#utility.yul\":20935:20936   */\n      dup1\n        /* \"#utility.yul\":20930:20933   */\n      dup9\n        /* \"#utility.yul\":20926:20937   */\n      add\n        /* \"#utility.yul\":20919:20937   */\n      swap6\n      pop\n        /* \"#utility.yul\":20618:20947   */\n      pop\n      pop\n        /* \"#utility.yul\":20405:20947   */\n    tag_497:\n      pop\n        /* \"#utility.yul\":20211:20953   */\n      pop\n      pop\n        /* \"#utility.yul\":20122:20953   */\n      swap3\n      swap2\n      pop\n      pop\n      jump\t// out\n        /* \"#utility.yul\":20959:21773   */\n    tag_92:\n        /* \"#utility.yul\":21190:21194   */\n      0x00\n        /* \"#utility.yul\":21228:21231   */\n      0x80\n        /* \"#utility.yul\":21217:21226   */\n      dup3\n        /* \"#utility.yul\":21213:21232   */\n      add\n        /* \"#utility.yul\":21205:21232   */\n      swap1\n      pop\n        /* \"#utility.yul\":21278:21287   */\n      dup2\n        /* \"#utility.yul\":21272:21276   */\n      dup2\n        /* \"#utility.yul\":21268:21288   */\n      sub\n        /* \"#utility.yul\":21264:21265   */\n      0x00\n        /* \"#utility.yul\":21253:21262   */\n      dup4\n        /* \"#utility.yul\":21249:21266   */\n      add\n        /* \"#utility.yul\":21242:21289   */\n      mstore\n        /* \"#utility.yul\":21306:21381   */\n      tag_505\n        /* \"#utility.yul\":21376:21380   */\n      dup2\n        /* \"#utility.yul\":21367:21373   */\n      dup8\n        /* \"#utility.yul\":21306:21381   */\n      tag_283\n      jump\t// in\n    tag_505:\n        /* \"#utility.yul\":21298:21381   */\n      swap1\n      pop\n        /* \"#utility.yul\":21391:21463   */\n      tag_506\n        /* \"#utility.yul\":21459:21461   */\n      0x20\n        /* \"#utility.yul\":21448:21457   */\n      dup4\n        /* \"#utility.yul\":21444:21462   */\n      add\n        /* \"#utility.yul\":21435:21441   */\n      dup7\n        /* \"#utility.yul\":21391:21463   */\n      tag_248\n      jump\t// in\n    tag_506:\n        /* \"#utility.yul\":21510:21519   */\n      dup2\n        /* \"#utility.yul\":21504:21508   */\n      dup2\n        /* \"#utility.yul\":21500:21520   */\n      sub\n        /* \"#utility.yul\":21495:21497   */\n      0x40\n        /* \"#utility.yul\":21484:21493   */\n      dup4\n        /* \"#utility.yul\":21480:21498   */\n      add\n        /* \"#utility.yul\":21473:21521   */\n      mstore\n        /* \"#utility.yul\":21538:21613   */\n      tag_507\n        /* \"#utility.yul\":21608:21612   */\n      dup2\n        /* \"#utility.yul\":21599:21605   */\n      dup6\n        /* \"#utility.yul\":21538:21613   */\n      tag_283\n      jump\t// in\n    tag_507:\n        /* \"#utility.yul\":21530:21613   */\n      swap1\n      pop\n        /* \"#utility.yul\":21660:21669   */\n      dup2\n        /* \"#utility.yul\":21654:21658   */\n      dup2\n        /* \"#utility.yul\":21650:21670   */\n      sub\n        /* \"#utility.yul\":21645:21647   */\n      0x60\n        /* \"#utility.yul\":21634:21643   */\n      dup4\n        /* \"#utility.yul\":21630:21648   */\n      add\n        /* \"#utility.yul\":21623:21671   */\n      mstore\n        /* \"#utility.yul\":21688:21766   */\n      tag_508\n        /* \"#utility.yul\":21761:21765   */\n      dup2\n        /* \"#utility.yul\":21752:21758   */\n      dup5\n        /* \"#utility.yul\":21688:21766   */\n      tag_246\n      jump\t// in\n    tag_508:\n        /* \"#utility.yul\":21680:21766   */\n      swap1\n      pop\n        /* \"#utility.yul\":20959:21773   */\n      swap6\n      swap5\n      pop\n      pop\n      pop\n      pop\n      pop\n      jump\t// out\n        /* \"#utility.yul\":21779:22010   */\n    tag_284:\n        /* \"#utility.yul\":21919:21953   */\n      0x47616d65206f7665722e20596f7520646f6e2774206861766520616e79206174\n        /* \"#utility.yul\":21915:21916   */\n      0x00\n        /* \"#utility.yul\":21907:21913   */\n      dup3\n        /* \"#utility.yul\":21903:21917   */\n      add\n        /* \"#utility.yul\":21896:21954   */\n      mstore\n        /* \"#utility.yul\":21988:22002   */\n      0x74656d707473206c6566742e0000000000000000000000000000000000000000\n        /* \"#utility.yul\":21983:21985   */\n      0x20\n        /* \"#utility.yul\":21975:21981   */\n      dup3\n        /* \"#utility.yul\":21971:21986   */\n      add\n        /* \"#utility.yul\":21964:22003   */\n      mstore\n        /* \"#utility.yul\":21779:22010   */\n      pop\n      jump\t// out\n        /* \"#utility.yul\":22016:22382   */\n    tag_285:\n        /* \"#utility.yul\":22158:22161   */\n      0x00\n        /* \"#utility.yul\":22179:22246   */\n      tag_511\n        /* \"#utility.yul\":22243:22245   */\n      0x2c\n        /* \"#utility.yul\":22238:22241   */\n      dup4\n        /* \"#utility.yul\":22179:22246   */\n      tag_244\n      jump\t// in\n    tag_511:\n        /* \"#utility.yul\":22172:22246   */\n      swap2\n      pop\n        /* \"#utility.yul\":22255:22348   */\n      tag_512\n        /* \"#utility.yul\":22344:22347   */\n      dup3\n        /* \"#utility.yul\":22255:22348   */\n      tag_284\n      jump\t// in\n    tag_512:\n        /* \"#utility.yul\":22373:22375   */\n      0x40\n        /* \"#utility.yul\":22368:22371   */\n      dup3\n        /* \"#utility.yul\":22364:22376   */\n      add\n        /* \"#utility.yul\":22357:22376   */\n      swap1\n      pop\n        /* \"#utility.yul\":22016:22382   */\n      swap2\n      swap1\n      pop\n      jump\t// out\n        /* \"#utility.yul\":22388:22807   */\n    tag_94:\n        /* \"#utility.yul\":22554:22558   */\n      0x00\n        /* \"#utility.yul\":22592:22594   */\n      0x20\n        /* \"#utility.yul\":22581:22590   */\n      dup3\n        /* \"#utility.yul\":22577:22595   */\n      add\n        /* \"#utility.yul\":22569:22595   */\n      swap1\n      pop\n        /* \"#utility.yul\":22641:22650   */\n      dup2\n        /* \"#utility.yul\":22635:22639   */\n      dup2\n        /* \"#utility.yul\":22631:22651   */\n      sub\n        /* \"#utility.yul\":22627:22628   */\n      0x00\n        /* \"#utility.yul\":22616:22625   */\n      dup4\n        /* \"#utility.yul\":22612:22629   */\n      add\n        /* \"#utility.yul\":22605:22652   */\n      mstore\n        /* \"#utility.yul\":22669:22800   */\n      tag_514\n        /* \"#utility.yul\":22795:22799   */\n      dup2\n        /* \"#utility.yul\":22669:22800   */\n      tag_285\n      jump\t// in\n    tag_514:\n        /* \"#utility.yul\":22661:22800   */\n      swap1\n      pop\n        /* \"#utility.yul\":22388:22807   */\n      swap2\n      swap1\n      pop\n      jump\t// out\n        /* \"#utility.yul\":22813:23039   */\n    tag_286:\n        /* \"#utility.yul\":22953:22987   */\n      0x47616d6520616c726561647920696e2070726f67726573732e20456e64206974\n        /* \"#utility.yul\":22949:22950   */\n      0x00\n        /* \"#utility.yul\":22941:22947   */\n      dup3\n        /* \"#utility.yul\":22937:22951   */\n      add\n        /* \"#utility.yul\":22930:22988   */\n      mstore\n        /* \"#utility.yul\":23022:23031   */\n      0x2066697273742e00000000000000000000000000000000000000000000000000\n        /* \"#utility.yul\":23017:23019   */\n      0x20\n        /* \"#utility.yul\":23009:23015   */\n      dup3\n        /* \"#utility.yul\":23005:23020   */\n      add\n        /* \"#utility.yul\":22998:23032   */\n      mstore\n        /* \"#utility.yul\":22813:23039   */\n      pop\n      jump\t// out\n        /* \"#utility.yul\":23045:23411   */\n    tag_287:\n        /* \"#utility.yul\":23187:23190   */\n      0x00\n        /* \"#utility.yul\":23208:23275   */\n      tag_517\n        /* \"#utility.yul\":23272:23274   */\n      0x27\n        /* \"#utility.yul\":23267:23270   */\n      dup4\n        /* \"#utility.yul\":23208:23275   */\n      tag_244\n      jump\t// in\n    tag_517:\n        /* \"#utility.yul\":23201:23275   */\n      swap2\n      pop\n        /* \"#utility.yul\":23284:23377   */\n      tag_518\n        /* \"#utility.yul\":23373:23376   */\n      dup3\n        /* \"#utility.yul\":23284:23377   */\n      tag_286\n      jump\t// in\n    tag_518:\n        /* \"#utility.yul\":23402:23404   */\n      0x40\n        /* \"#utility.yul\":23397:23400   */\n      dup3\n        /* \"#utility.yul\":23393:23405   */\n      add\n        /* \"#utility.yul\":23386:23405   */\n      swap1\n      pop\n        /* \"#utility.yul\":23045:23411   */\n      swap2\n      swap1\n      pop\n      jump\t// out\n        /* \"#utility.yul\":23417:23836   */\n    tag_134:\n        /* \"#utility.yul\":23583:23587   */\n      0x00\n        /* \"#utility.yul\":23621:23623   */\n      0x20\n        /* \"#utility.yul\":23610:23619   */\n      dup3\n        /* \"#utility.yul\":23606:23624   */\n      add\n        /* \"#utility.yul\":23598:23624   */\n      swap1\n      pop\n        /* \"#utility.yul\":23670:23679   */\n      dup2\n        /* \"#utility.yul\":23664:23668   */\n      dup2\n        /* \"#utility.yul\":23660:23680   */\n      sub\n        /* \"#utility.yul\":23656:23657   */\n      0x00\n        /* \"#utility.yul\":23645:23654   */\n      dup4\n        /* \"#utility.yul\":23641:23658   */\n      add\n        /* \"#utility.yul\":23634:23681   */\n      mstore\n        /* \"#utility.yul\":23698:23829   */\n      tag_520\n        /* \"#utility.yul\":23824:23828   */\n      dup2\n        /* \"#utility.yul\":23698:23829   */\n      tag_287\n      jump\t// in\n    tag_520:\n        /* \"#utility.yul\":23690:23829   */\n      swap1\n      pop\n        /* \"#utility.yul\":23417:23836   */\n      swap2\n      swap1\n      pop\n      jump\t// out\n        /* \"#utility.yul\":23842:24174   */\n    tag_136:\n        /* \"#utility.yul\":23963:23967   */\n      0x00\n        /* \"#utility.yul\":24001:24003   */\n      0x40\n        /* \"#utility.yul\":23990:23999   */\n      dup3\n        /* \"#utility.yul\":23986:24004   */\n      add\n        /* \"#utility.yul\":23978:24004   */\n      swap1\n      pop\n        /* \"#utility.yul\":24014:24085   */\n      tag_522\n        /* \"#utility.yul\":24082:24083   */\n      0x00\n        /* \"#utility.yul\":24071:24080   */\n      dup4\n        /* \"#utility.yul\":24067:24084   */\n      add\n        /* \"#utility.yul\":24058:24064   */\n      dup6\n        /* \"#utility.yul\":24014:24085   */\n      tag_248\n      jump\t// in\n    tag_522:\n        /* \"#utility.yul\":24095:24167   */\n      tag_523\n        /* \"#utility.yul\":24163:24165   */\n      0x20\n        /* \"#utility.yul\":24152:24161   */\n      dup4\n        /* \"#utility.yul\":24148:24166   */\n      add\n        /* \"#utility.yul\":24139:24145   */\n      dup5\n        /* \"#utility.yul\":24095:24167   */\n      tag_248\n      jump\t// in\n    tag_523:\n        /* \"#utility.yul\":23842:24174   */\n      swap4\n      swap3\n      pop\n      pop\n      pop\n      jump\t// out\n        /* \"#utility.yul\":24180:24259   */\n    tag_288:\n        /* \"#utility.yul\":24219:24226   */\n      0x00\n        /* \"#utility.yul\":24248:24253   */\n      dup2\n        /* \"#utility.yul\":24237:24253   */\n      swap1\n      pop\n        /* \"#utility.yul\":24180:24259   */\n      swap2\n      swap1\n      pop\n      jump\t// out\n        /* \"#utility.yul\":24265:24422   */\n    tag_289:\n        /* \"#utility.yul\":24370:24415   */\n      tag_526\n        /* \"#utility.yul\":24390:24414   */\n      tag_527\n        /* \"#utility.yul\":24408:24413   */\n      dup3\n        /* \"#utility.yul\":24390:24414   */\n      tag_247\n      jump\t// in\n    tag_527:\n        /* \"#utility.yul\":24370:24415   */\n      tag_288\n      jump\t// in\n    tag_526:\n        /* \"#utility.yul\":24365:24368   */\n      dup3\n        /* \"#utility.yul\":24358:24416   */\n      mstore\n        /* \"#utility.yul\":24265:24422   */\n      pop\n      pop\n      jump\t// out\n        /* \"#utility.yul\":24428:24554   */\n    tag_290:\n        /* \"#utility.yul\":24465:24472   */\n      0x00\n        /* \"#utility.yul\":24505:24547   */\n      0xffffffffffffffffffffffffffffffffffffffff\n        /* \"#utility.yul\":24498:24503   */\n      dup3\n        /* \"#utility.yul\":24494:24548   */\n      and\n        /* \"#utility.yul\":24483:24548   */\n      swap1\n      pop\n        /* \"#utility.yul\":24428:24554   */\n      swap2\n      swap1\n      pop\n      jump\t// out\n        /* \"#utility.yul\":24560:24656   */\n    tag_291:\n        /* \"#utility.yul\":24597:24604   */\n      0x00\n        /* \"#utility.yul\":24626:24650   */\n      tag_530\n        /* \"#utility.yul\":24644:24649   */\n      dup3\n        /* \"#utility.yul\":24626:24650   */\n      tag_290\n      jump\t// in\n    tag_530:\n        /* \"#utility.yul\":24615:24650   */\n      swap1\n      pop\n        /* \"#utility.yul\":24560:24656   */\n      swap2\n      swap1\n      pop\n      jump\t// out\n        /* \"#utility.yul\":24662:24756   */\n    tag_292:\n        /* \"#utility.yul\":24695:24703   */\n      0x00\n        /* \"#utility.yul\":24743:24748   */\n      dup2\n        /* \"#utility.yul\":24739:24741   */\n      0x60\n        /* \"#utility.yul\":24735:24749   */\n      shl\n        /* \"#utility.yul\":24714:24749   */\n      swap1\n      pop\n        /* \"#utility.yul\":24662:24756   */\n      swap2\n      swap1\n      pop\n      jump\t// out\n        /* \"#utility.yul\":24762:24856   */\n    tag_293:\n        /* \"#utility.yul\":24801:24808   */\n      0x00\n        /* \"#utility.yul\":24830:24850   */\n      tag_533\n        /* \"#utility.yul\":24844:24849   */\n      dup3\n        /* \"#utility.yul\":24830:24850   */\n      tag_292\n      jump\t// in\n    tag_533:\n        /* \"#utility.yul\":24819:24850   */\n      swap1\n      pop\n        /* \"#utility.yul\":24762:24856   */\n      swap2\n      swap1\n      pop\n      jump\t// out\n        /* \"#utility.yul\":24862:24962   */\n    tag_294:\n        /* \"#utility.yul\":24901:24908   */\n      0x00\n        /* \"#utility.yul\":24930:24956   */\n      tag_535\n        /* \"#utility.yul\":24950:24955   */\n      dup3\n        /* \"#utility.yul\":24930:24956   */\n      tag_293\n      jump\t// in\n    tag_535:\n        /* \"#utility.yul\":24919:24956   */\n      swap1\n      pop\n        /* \"#utility.yul\":24862:24962   */\n      swap2\n      swap1\n      pop\n      jump\t// out\n        /* \"#utility.yul\":24968:25125   */\n    tag_295:\n        /* \"#utility.yul\":25073:25118   */\n      tag_537\n        /* \"#utility.yul\":25093:25117   */\n      tag_538\n        /* \"#utility.yul\":25111:25116   */\n      dup3\n        /* \"#utility.yul\":25093:25117   */\n      tag_291\n      jump\t// in\n    tag_538:\n        /* \"#utility.yul\":25073:25118   */\n      tag_294\n      jump\t// in\n    tag_537:\n        /* \"#utility.yul\":25068:25071   */\n      dup3\n        /* \"#utility.yul\":25061:25119   */\n      mstore\n        /* \"#utility.yul\":24968:25125   */\n      pop\n      pop\n      jump\t// out\n        /* \"#utility.yul\":25131:25528   */\n    tag_138:\n        /* \"#utility.yul\":25271:25274   */\n      0x00\n        /* \"#utility.yul\":25286:25361   */\n      tag_540\n        /* \"#utility.yul\":25357:25360   */\n      dup3\n        /* \"#utility.yul\":25348:25354   */\n      dup6\n        /* \"#utility.yul\":25286:25361   */\n      tag_289\n      jump\t// in\n    tag_540:\n        /* \"#utility.yul\":25386:25388   */\n      0x20\n        /* \"#utility.yul\":25381:25384   */\n      dup3\n        /* \"#utility.yul\":25377:25389   */\n      add\n        /* \"#utility.yul\":25370:25389   */\n      swap2\n      pop\n        /* \"#utility.yul\":25399:25474   */\n      tag_541\n        /* \"#utility.yul\":25470:25473   */\n      dup3\n        /* \"#utility.yul\":25461:25467   */\n      dup5\n        /* \"#utility.yul\":25399:25474   */\n      tag_295\n      jump\t// in\n    tag_541:\n        /* \"#utility.yul\":25499:25501   */\n      0x14\n        /* \"#utility.yul\":25494:25497   */\n      dup3\n        /* \"#utility.yul\":25490:25502   */\n      add\n        /* \"#utility.yul\":25483:25502   */\n      swap2\n      pop\n        /* \"#utility.yul\":25519:25522   */\n      dup2\n        /* \"#utility.yul\":25512:25522   */\n      swap1\n      pop\n        /* \"#utility.yul\":25131:25528   */\n      swap4\n      swap3\n      pop\n      pop\n      pop\n      jump\t// out\n        /* \"#utility.yul\":25534:25714   */\n    tag_296:\n        /* \"#utility.yul\":25582:25659   */\n      0x4e487b7100000000000000000000000000000000000000000000000000000000\n        /* \"#utility.yul\":25579:25580   */\n      0x00\n        /* \"#utility.yul\":25572:25660   */\n      mstore\n        /* \"#utility.yul\":25679:25683   */\n      0x12\n        /* \"#utility.yul\":25676:25677   */\n      0x04\n        /* \"#utility.yul\":25669:25684   */\n      mstore\n        /* \"#utility.yul\":25703:25707   */\n      0x24\n        /* \"#utility.yul\":25700:25701   */\n      0x00\n        /* \"#utility.yul\":25693:25708   */\n      revert\n        /* \"#utility.yul\":25720:25896   */\n    tag_140:\n        /* \"#utility.yul\":25752:25753   */\n      0x00\n        /* \"#utility.yul\":25769:25789   */\n      tag_544\n        /* \"#utility.yul\":25787:25788   */\n      dup3\n        /* \"#utility.yul\":25769:25789   */\n      tag_247\n      jump\t// in\n    tag_544:\n        /* \"#utility.yul\":25764:25789   */\n      swap2\n      pop\n        /* \"#utility.yul\":25803:25823   */\n      tag_545\n        /* \"#utility.yul\":25821:25822   */\n      dup4\n        /* \"#utility.yul\":25803:25823   */\n      tag_247\n      jump\t// in\n    tag_545:\n        /* \"#utility.yul\":25798:25823   */\n      swap3\n      pop\n        /* \"#utility.yul\":25842:25843   */\n      dup3\n        /* \"#utility.yul\":25832:25867   */\n      tag_546\n      jumpi\n        /* \"#utility.yul\":25847:25865   */\n      tag_547\n      tag_296\n      jump\t// in\n    tag_547:\n        /* \"#utility.yul\":25832:25867   */\n    tag_546:\n        /* \"#utility.yul\":25888:25889   */\n      dup3\n        /* \"#utility.yul\":25885:25886   */\n      dup3\n        /* \"#utility.yul\":25881:25890   */\n      mod\n        /* \"#utility.yul\":25876:25890   */\n      swap1\n      pop\n        /* \"#utility.yul\":25720:25896   */\n      swap3\n      swap2\n      pop\n      pop\n      jump\t// out\n        /* \"#utility.yul\":25902:26055   */\n    tag_297:\n        /* \"#utility.yul\":25955:25961   */\n      0x00\n        /* \"#utility.yul\":25989:25994   */\n      dup2\n        /* \"#utility.yul\":25983:25995   */\n      sload\n        /* \"#utility.yul\":25973:25995   */\n      swap1\n      pop\n        /* \"#utility.yul\":26015:26048   */\n      tag_549\n        /* \"#utility.yul\":26041:26047   */\n      dup2\n        /* \"#utility.yul\":26015:26048   */\n      tag_49\n      jump\t// in\n    tag_549:\n        /* \"#utility.yul\":26005:26048   */\n      swap1\n      pop\n        /* \"#utility.yul\":25902:26055   */\n      swap2\n      swap1\n      pop\n      jump\t// out\n        /* \"#utility.yul\":26061:26206   */\n    tag_298:\n        /* \"#utility.yul\":26114:26118   */\n      0x00\n        /* \"#utility.yul\":26137:26140   */\n      dup2\n        /* \"#utility.yul\":26129:26140   */\n      swap1\n      pop\n        /* \"#utility.yul\":26160:26163   */\n      dup2\n        /* \"#utility.yul\":26157:26158   */\n      0x00\n        /* \"#utility.yul\":26150:26164   */\n      mstore\n        /* \"#utility.yul\":26194:26198   */\n      0x20\n        /* \"#utility.yul\":26191:26192   */\n      0x00\n        /* \"#utility.yul\":26181:26199   */\n      keccak256\n        /* \"#utility.yul\":26173:26199   */\n      swap1\n      pop\n        /* \"#utility.yul\":26061:26206   */\n      swap2\n      swap1\n      pop\n      jump\t// out\n        /* \"#utility.yul\":26212:27675   */\n    tag_145:\n        /* \"#utility.yul\":26327:26330   */\n      dup2\n        /* \"#utility.yul\":26321:26325   */\n      dup2\n        /* \"#utility.yul\":26318:26331   */\n      sub\n        /* \"#utility.yul\":26315:26341   */\n      tag_552\n      jumpi\n        /* \"#utility.yul\":26334:26339   */\n      pop\n      pop\n      jump(tag_551)\n        /* \"#utility.yul\":26315:26341   */\n    tag_552:\n        /* \"#utility.yul\":26365:26403   */\n      tag_553\n        /* \"#utility.yul\":26399:26402   */\n      dup3\n        /* \"#utility.yul\":26365:26403   */\n      tag_297\n      jump\t// in\n    tag_553:\n        /* \"#utility.yul\":26468:26486   */\n      0xffffffffffffffff\n        /* \"#utility.yul\":26460:26466   */\n      dup2\n        /* \"#utility.yul\":26457:26487   */\n      gt\n        /* \"#utility.yul\":26454:26510   */\n      iszero\n      tag_554\n      jumpi\n        /* \"#utility.yul\":26490:26508   */\n      tag_555\n      tag_154\n      jump\t// in\n    tag_555:\n        /* \"#utility.yul\":26454:26510   */\n    tag_554:\n        /* \"#utility.yul\":26534:26572   */\n      tag_556\n        /* \"#utility.yul\":26566:26570   */\n      dup3\n        /* \"#utility.yul\":26560:26571   */\n      sload\n        /* \"#utility.yul\":26534:26572   */\n      tag_49\n      jump\t// in\n    tag_556:\n        /* \"#utility.yul\":26619:26686   */\n      tag_557\n        /* \"#utility.yul\":26679:26685   */\n      dup3\n        /* \"#utility.yul\":26671:26677   */\n      dup3\n        /* \"#utility.yul\":26665:26669   */\n      dup6\n        /* \"#utility.yul\":26619:26686   */\n      tag_276\n      jump\t// in\n    tag_557:\n        /* \"#utility.yul\":26713:26714   */\n      0x00\n        /* \"#utility.yul\":26742:26744   */\n      0x1f\n        /* \"#utility.yul\":26734:26740   */\n      dup4\n        /* \"#utility.yul\":26731:26745   */\n      gt\n        /* \"#utility.yul\":26759:26760   */\n      0x01\n        /* \"#utility.yul\":26754:27430   */\n      dup2\n      eq\n      tag_559\n      jumpi\n        /* \"#utility.yul\":27474:27475   */\n      0x00\n        /* \"#utility.yul\":27491:27497   */\n      dup5\n        /* \"#utility.yul\":27488:27565   */\n      iszero\n      tag_560\n      jumpi\n        /* \"#utility.yul\":27540:27549   */\n      dup3\n        /* \"#utility.yul\":27535:27538   */\n      dup8\n        /* \"#utility.yul\":27531:27550   */\n      add\n        /* \"#utility.yul\":27525:27551   */\n      sload\n        /* \"#utility.yul\":27516:27551   */\n      swap1\n      pop\n        /* \"#utility.yul\":27488:27565   */\n    tag_560:\n        /* \"#utility.yul\":27591:27658   */\n      tag_561\n        /* \"#utility.yul\":27651:27657   */\n      dup6\n        /* \"#utility.yul\":27644:27649   */\n      dup3\n        /* \"#utility.yul\":27591:27658   */\n      tag_279\n      jump\t// in\n    tag_561:\n        /* \"#utility.yul\":27585:27589   */\n      dup7\n        /* \"#utility.yul\":27578:27659   */\n      sstore\n        /* \"#utility.yul\":27447:27669   */\n      pop\n        /* \"#utility.yul\":26724:27669   */\n      jump(tag_558)\n        /* \"#utility.yul\":26754:27430   */\n    tag_559:\n        /* \"#utility.yul\":26806:26810   */\n      0x1f\n        /* \"#utility.yul\":26802:26811   */\n      not\n        /* \"#utility.yul\":26794:26800   */\n      dup5\n        /* \"#utility.yul\":26790:26812   */\n      and\n        /* \"#utility.yul\":26832:26872   */\n      tag_562\n        /* \"#utility.yul\":26868:26871   */\n      dup8\n        /* \"#utility.yul\":26832:26872   */\n      tag_298\n      jump\t// in\n    tag_562:\n        /* \"#utility.yul\":26825:26872   */\n      swap7\n      pop\n        /* \"#utility.yul\":26899:26936   */\n      tag_563\n        /* \"#utility.yul\":26931:26935   */\n      dup7\n        /* \"#utility.yul\":26899:26936   */\n      tag_265\n      jump\t// in\n    tag_563:\n        /* \"#utility.yul\":26958:26959   */\n      0x00\n        /* \"#utility.yul\":26972:27179   */\n    tag_564:\n        /* \"#utility.yul\":26986:26993   */\n      dup3\n        /* \"#utility.yul\":26983:26984   */\n      dup2\n        /* \"#utility.yul\":26980:26994   */\n      lt\n        /* \"#utility.yul\":26972:27179   */\n      iszero\n      tag_566\n      jumpi\n        /* \"#utility.yul\":27065:27074   */\n      dup5\n        /* \"#utility.yul\":27060:27063   */\n      dup10\n        /* \"#utility.yul\":27056:27075   */\n      add\n        /* \"#utility.yul\":27050:27076   */\n      sload\n        /* \"#utility.yul\":27042:27048   */\n      dup3\n        /* \"#utility.yul\":27035:27077   */\n      sstore\n        /* \"#utility.yul\":27116:27117   */\n      0x01\n        /* \"#utility.yul\":27108:27114   */\n      dup3\n        /* \"#utility.yul\":27104:27118   */\n      add\n        /* \"#utility.yul\":27094:27118   */\n      swap2\n      pop\n        /* \"#utility.yul\":27163:27164   */\n      0x01\n        /* \"#utility.yul\":27152:27161   */\n      dup6\n        /* \"#utility.yul\":27148:27165   */\n      add\n        /* \"#utility.yul\":27135:27165   */\n      swap5\n      pop\n        /* \"#utility.yul\":27009:27013   */\n      0x20\n        /* \"#utility.yul\":27006:27007   */\n      dup2\n        /* \"#utility.yul\":27002:27014   */\n      add\n        /* \"#utility.yul\":26997:27014   */\n      swap1\n      pop\n        /* \"#utility.yul\":26972:27179   */\n      jump(tag_564)\n    tag_566:\n        /* \"#utility.yul\":27207:27213   */\n      dup7\n        /* \"#utility.yul\":27198:27205   */\n      dup4\n        /* \"#utility.yul\":27195:27214   */\n      lt\n        /* \"#utility.yul\":27192:27371   */\n      iszero\n      tag_567\n      jumpi\n        /* \"#utility.yul\":27265:27274   */\n      dup5\n        /* \"#utility.yul\":27260:27263   */\n      dup10\n        /* \"#utility.yul\":27256:27275   */\n      add\n        /* \"#utility.yul\":27250:27276   */\n      sload\n        /* \"#utility.yul\":27308:27356   */\n      tag_568\n        /* \"#utility.yul\":27350:27354   */\n      0x1f\n        /* \"#utility.yul\":27342:27348   */\n      dup10\n        /* \"#utility.yul\":27338:27355   */\n      and\n        /* \"#utility.yul\":27327:27336   */\n      dup3\n        /* \"#utility.yul\":27308:27356   */\n      tag_278\n      jump\t// in\n    tag_568:\n        /* \"#utility.yul\":27300:27306   */\n      dup4\n        /* \"#utility.yul\":27293:27357   */\n      sstore\n        /* \"#utility.yul\":27215:27371   */\n      pop\n        /* \"#utility.yul\":27192:27371   */\n    tag_567:\n        /* \"#utility.yul\":27417:27418   */\n      0x01\n        /* \"#utility.yul\":27413:27414   */\n      0x02\n        /* \"#utility.yul\":27405:27411   */\n      dup9\n        /* \"#utility.yul\":27401:27415   */\n      mul\n        /* \"#utility.yul\":27397:27419   */\n      add\n        /* \"#utility.yul\":27391:27395   */\n      dup9\n        /* \"#utility.yul\":27384:27420   */\n      sstore\n        /* \"#utility.yul\":26761:27430   */\n      pop\n      pop\n      pop\n        /* \"#utility.yul\":26724:27669   */\n    tag_558:\n      pop\n        /* \"#utility.yul\":26305:27675   */\n      pop\n      pop\n      pop\n        /* \"#utility.yul\":26212:27675   */\n      pop\n      pop\n    tag_551:\n      jump\t// out\n        /* \"#utility.yul\":27681:27851   */\n    tag_299:\n        /* \"#utility.yul\":27821:27843   */\n      0x47616d65206f7665722e20596f7520717569742e000000000000000000000000\n        /* \"#utility.yul\":27817:27818   */\n      0x00\n        /* \"#utility.yul\":27809:27815   */\n      dup3\n        /* \"#utility.yul\":27805:27819   */\n      add\n        /* \"#utility.yul\":27798:27844   */\n      mstore\n        /* \"#utility.yul\":27681:27851   */\n      pop\n      jump\t// out\n        /* \"#utility.yul\":27857:28223   */\n    tag_300:\n        /* \"#utility.yul\":27999:28002   */\n      0x00\n        /* \"#utility.yul\":28020:28087   */\n      tag_571\n        /* \"#utility.yul\":28084:28086   */\n      0x14\n        /* \"#utility.yul\":28079:28082   */\n      dup4\n        /* \"#utility.yul\":28020:28087   */\n      tag_244\n      jump\t// in\n    tag_571:\n        /* \"#utility.yul\":28013:28087   */\n      swap2\n      pop\n        /* \"#utility.yul\":28096:28189   */\n      tag_572\n        /* \"#utility.yul\":28185:28188   */\n      dup3\n        /* \"#utility.yul\":28096:28189   */\n      tag_299\n      jump\t// in\n    tag_572:\n        /* \"#utility.yul\":28214:28216   */\n      0x20\n        /* \"#utility.yul\":28209:28212   */\n      dup3\n        /* \"#utility.yul\":28205:28217   */\n      add\n        /* \"#utility.yul\":28198:28217   */\n      swap1\n      pop\n        /* \"#utility.yul\":27857:28223   */\n      swap2\n      swap1\n      pop\n      jump\t// out\n        /* \"#utility.yul\":28229:28648   */\n    tag_183:\n        /* \"#utility.yul\":28395:28399   */\n      0x00\n        /* \"#utility.yul\":28433:28435   */\n      0x20\n        /* \"#utility.yul\":28422:28431   */\n      dup3\n        /* \"#utility.yul\":28418:28436   */\n      add\n        /* \"#utility.yul\":28410:28436   */\n      swap1\n      pop\n        /* \"#utility.yul\":28482:28491   */\n      dup2\n        /* \"#utility.yul\":28476:28480   */\n      dup2\n        /* \"#utility.yul\":28472:28492   */\n      sub\n        /* \"#utility.yul\":28468:28469   */\n      0x00\n        /* \"#utility.yul\":28457:28466   */\n      dup4\n        /* \"#utility.yul\":28453:28470   */\n      add\n        /* \"#utility.yul\":28446:28493   */\n      mstore\n        /* \"#utility.yul\":28510:28641   */\n      tag_574\n        /* \"#utility.yul\":28636:28640   */\n      dup2\n        /* \"#utility.yul\":28510:28641   */\n      tag_300\n      jump\t// in\n    tag_574:\n        /* \"#utility.yul\":28502:28641   */\n      swap1\n      pop\n        /* \"#utility.yul\":28229:28648   */\n      swap2\n      swap1\n      pop\n      jump\t// out\n        /* \"#utility.yul\":28654:28887   */\n    tag_189:\n        /* \"#utility.yul\":28693:28696   */\n      0x00\n        /* \"#utility.yul\":28716:28740   */\n      tag_576\n        /* \"#utility.yul\":28734:28739   */\n      dup3\n        /* \"#utility.yul\":28716:28740   */\n      tag_247\n      jump\t// in\n    tag_576:\n        /* \"#utility.yul\":28707:28740   */\n      swap2\n      pop\n        /* \"#utility.yul\":28762:28828   */\n      0xffffffffffffffffffffffffffffffffffffffffffffffffffffffffffffffff\n        /* \"#utility.yul\":28755:28760   */\n      dup3\n        /* \"#utility.yul\":28752:28829   */\n      sub\n        /* \"#utility.yul\":28749:28852   */\n      tag_577\n      jumpi\n        /* \"#utility.yul\":28832:28850   */\n      tag_578\n      tag_251\n      jump\t// in\n    tag_578:\n        /* \"#utility.yul\":28749:28852   */\n    tag_577:\n        /* \"#utility.yul\":28879:28880   */\n      0x01\n        /* \"#utility.yul\":28872:28877   */\n      dup3\n        /* \"#utility.yul\":28868:28881   */\n      add\n        /* \"#utility.yul\":28861:28881   */\n      swap1\n      pop\n        /* \"#utility.yul\":28654:28887   */\n      swap2\n      swap1\n      pop\n      jump\t// out\n        /* \"#utility.yul\":28893:29078   */\n    tag_191:\n        /* \"#utility.yul\":28933:28934   */\n      0x00\n        /* \"#utility.yul\":28950:28970   */\n      tag_580\n        /* \"#utility.yul\":28968:28969   */\n      dup3\n        /* \"#utility.yul\":28950:28970   */\n      tag_247\n      jump\t// in\n    tag_580:\n        /* \"#utility.yul\":28945:28970   */\n      swap2\n      pop\n        /* \"#utility.yul\":28984:29004   */\n      tag_581\n        /* \"#utility.yul\":29002:29003   */\n      dup4\n        /* \"#utility.yul\":28984:29004   */\n      tag_247\n      jump\t// in\n    tag_581:\n        /* \"#utility.yul\":28979:29004   */\n      swap3\n      pop\n        /* \"#utility.yul\":29023:29024   */\n      dup3\n        /* \"#utility.yul\":29013:29048   */\n      tag_582\n      jumpi\n        /* \"#utility.yul\":29028:29046   */\n      tag_583\n      tag_296\n      jump\t// in\n    tag_583:\n        /* \"#utility.yul\":29013:29048   */\n    tag_582:\n        /* \"#utility.yul\":29070:29071   */\n      dup3\n        /* \"#utility.yul\":29067:29068   */\n      dup3\n        /* \"#utility.yul\":29063:29072   */\n      div\n        /* \"#utility.yul\":29058:29072   */\n      swap1\n      pop\n        /* \"#utility.yul\":28893:29078   */\n      swap3\n      swap2\n      pop\n      pop\n      jump\t// out\n\n    auxdata: 0xa264697066735822122010d9b17e96b6f6a0ec51073df61f65cbf206362a400608d146ea3a7ed32e3e5564736f6c634300081a0033\n}\n",
				"bytecode": {
					"linkReferences": {},
					"object": "60806040526040518061064001604052806040518060400160405280600981526020017f6170706c6520706965000000000000000000000000000000000000000000000081525081526020016040518060400160405280600981526020017f686170707920636174000000000000000000000000000000000000000000000081525081526020016040518060400160405280600881526020017f626967206265617200000000000000000000000000000000000000000000000081525081526020016040518060400160405280600b81526020017f7261696e626f7720736b7900000000000000000000000000000000000000000081525081526020016040518060400160405280600981526020017f6d6167696320686174000000000000000000000000000000000000000000000081525081526020016040518060400160405280600981526020017f73756e6e7920646179000000000000000000000000000000000000000000000081525081526020016040518060400160405280600a81526020017f74696e7920686f7573650000000000000000000000000000000000000000000081525081526020016040518060400160405280600981526020017f6c656d6f6e20746561000000000000000000000000000000000000000000000081525081526020016040518060400160405280600a81526020017f7075707079206c6f76650000000000000000000000000000000000000000000081525081526020016040518060400160405280600981526020017f77696c642077657374000000000000000000000000000000000000000000000081525081526020016040518060400160405280600b81526020017f6f72616e6765206d6f6f6e00000000000000000000000000000000000000000081525081526020016040518060400160405280600b81526020017f73696c766572207374617200000000000000000000000000000000000000000081525081526020016040518060400160405280600c81526020017f6c61756768696e67206f776c000000000000000000000000000000000000000081525081526020016040518060400160405280600b81526020017f666f72657374207061746800000000000000000000000000000000000000000081525081526020016040518060400160405280600b81526020017f666c79696e67206669736800000000000000000000000000000000000000000081525081526020016040518060400160405280600c81526020017f636f74746f6e20636c6f7564000000000000000000000000000000000000000081525081526020016040518060400160405280600b81526020017f636865727279207472656500000000000000000000000000000000000000000081525081526020016040518060400160405280600a81526020017f736563726574206b65790000000000000000000000000000000000000000000081525081526020016040518060400160405280600c81526020017f6272617665206b6e69676874000000000000000000000000000000000000000081525081526020016040518060400160405280600a81526020017f626c7565206f6365616e0000000000000000000000000000000000000000000081525081526020016040518060400160405280600f81526020017f7477696e6b6c696e67206c69676874000000000000000000000000000000000081525081526020016040518060400160405280600b81526020017f736e6f7779206e6967687400000000000000000000000000000000000000000081525081526020016040518060400160405280600c81526020017f6769616e7420747572746c65000000000000000000000000000000000000000081525081526020016040518060400160405280600a81526020017f66616972792074616c650000000000000000000000000000000000000000000081525081526020016040518060400160405280600f81526020017f68696464656e207472656173757265000000000000000000000000000000000081525081526020016040518060400160405280600c81526020017f73696c656e74207269766572000000000000000000000000000000000000000081525081526020016040518060400160405280600c81526020017f637564646c792062756e6e79000000000000000000000000000000000000000081525081526020016040518060400160405280600f81526020017f64616e63696e6720646f6c7068696e000000000000000000000000000000000081525081526020016040518060400160405280600b81526020017f66726f7a656e206c616b6500000000000000000000000000000000000000000081525081526020016040518060400160405280600e81526020017f63686f636f6c6174652063616b6500000000000000000000000000000000000081525081526020016040518060400160405280600e81526020017f667269656e646c792067686f737400000000000000000000000000000000000081525081526020016040518060400160405280600b81526020017f676f6c64656e2072696e6700000000000000000000000000000000000000000081525081526020016040518060400160405280600f81526020017f706561636566756c2067617264656e000000000000000000000000000000000081525081526020016040518060400160405280600f81526020017f77686973706572696e672077696e64000000000000000000000000000000000081525081526020016040518060400160405280600b81526020017f7368696e792070656e6e7900000000000000000000000000000000000000000081525081526020016040518060400160405280600d81526020017f6d6f756e7461696e207065616b0000000000000000000000000000000000000081525081526020016040518060400160405280600b81526020017f63616c6d2077617465727300000000000000000000000000000000000000000081525081526020016040518060400160405280600a81526020017f6272696768742073756e0000000000000000000000000000000000000000000081525081526020016040518060400160405280600a81526020017f736c6565707920666f780000000000000000000000000000000000000000000081525081526020016040518060400160405280600a81526020017f73746172727920736b790000000000000000000000000000000000000000000081525081526020016040518060400160405280600b81526020017f74696e7920666c6f77657200000000000000000000000000000000000000000081525081526020016040518060400160405280600d81526020017f67656e746c6520627265657a650000000000000000000000000000000000000081525081526020016040518060400160405280600c81526020017f7261696e626f772066697368000000000000000000000000000000000000000081525081526020016040518060400160405280600c81526020017f73696e67696e672062697264000000000000000000000000000000000000000081525081526020016040518060400160405280600a81526020017f626f6c642074696765720000000000000000000000000000000000000000000081525081526020016040518060400160405280600e81526020017f7370696e6e696e6720776865656c00000000000000000000000000000000000081525081526020016040518060400160405280600d81526020017f736861646f77207075707065740000000000000000000000000000000000000081525081526020016040518060400160405280600c81526020017f677265656e2076616c6c6579000000000000000000000000000000000000000081525081526020016040518060400160405280601481526020017f666c7574746572696e6720627574746572666c7900000000000000000000000081525081526020016040518060400160405280600b81526020017f73656372657420636176650000000000000000000000000000000000000000008152508152505f906032610ba3929190610dad565b50603c6038556040518061010001604052806040518060400160405280600281526020017f207c00000000000000000000000000000000000000000000000000000000000081525081526020016040518060400160405280600381526020017f207c2d000000000000000000000000000000000000000000000000000000000081525081526020016040518060400160405280600481526020017f207c2d6f0000000000000000000000000000000000000000000000000000000081525081526020016040518060400160405280600581526020017f207c2d6f2d00000000000000000000000000000000000000000000000000000081525081526020016040518060400160405280600581526020017f207c2d6f3c00000000000000000000000000000000000000000000000000000081525081526020016040518060400160405280600681526020017f207c2d6f3c2d000000000000000000000000000000000000000000000000000081525081526020016040518060400160405280600781526020017f207c2d6f3c2d2d0000000000000000000000000000000000000000000000000081525081526020016040518060400160405280600781526020017f207c2d6f3c2d3c000000000000000000000000000000000000000000000000008152508152506039906008610d9b929190610df9565b50348015610da7575f80fd5b506111c9565b8260328101928215610de8579160200282015b82811115610de7578251829081610dd791906110fa565b5091602001919060010190610dc0565b5b509050610df59190610e45565b5090565b8260088101928215610e34579160200282015b82811115610e33578251829081610e2391906110fa565b5091602001919060010190610e0c565b5b509050610e419190610e45565b5090565b5b80821115610e64575f8181610e5b9190610e68565b50600101610e46565b5090565b508054610e7490610f24565b5f825580601f10610e855750610ea2565b601f0160209004905f5260205f2090810190610ea19190610ea5565b5b50565b5b80821115610ebc575f815f905550600101610ea6565b5090565b5f81519050919050565b7f4e487b71000000000000000000000000000000000000000000000000000000005f52604160045260245ffd5b7f4e487b71000000000000000000000000000000000000000000000000000000005f52602260045260245ffd5b5f6002820490506001821680610f3b57607f821691505b602082108103610f4e57610f4d610ef7565b5b50919050565b5f819050815f5260205f209050919050565b5f6020601f8301049050919050565b5f82821b905092915050565b5f60088302610fb07fffffffffffffffffffffffffffffffffffffffffffffffffffffffffffffffff82610f75565b610fba8683610f75565b95508019841693508086168417925050509392505050565b5f819050919050565b5f819050919050565b5f610ffe610ff9610ff484610fd2565b610fdb565b610fd2565b9050919050565b5f819050919050565b61101783610fe4565b61102b61102382611005565b848454610f81565b825550505050565b5f90565b61103f611033565b61104a81848461100e565b505050565b5b8181101561106d576110625f82611037565b600181019050611050565b5050565b601f8211156110b25761108381610f54565b61108c84610f66565b8101602085101561109b578190505b6110af6110a785610f66565b83018261104f565b50505b505050565b5f82821c905092915050565b5f6110d25f19846008026110b7565b1980831691505092915050565b5f6110ea83836110c3565b9150826002028217905092915050565b61110382610ec0565b67ffffffffffffffff81111561111c5761111b610eca565b5b6111268254610f24565b611131828285611071565b5f60209050601f831160018114611162575f8415611150578287015190505b61115a85826110df565b8655506111c1565b601f19841661117086610f54565b5f5b8281101561119757848901518255600182019150602085019450602081019050611172565b868310156111b457848901516111b0601f8916826110c3565b8355505b6001600288020188555050505b505050505050565b6121c4806111d65f395ff3fe608060405234801561000f575f80fd5b5060043610610055575f3560e01c80632b6055df146100595780634eee59b314610063578063b7d0628b14610096578063d65ab5f2146100b7578063fc2b8cc3146100c1575b5f80fd5b6100616100cb565b005b61007d6004803603810190610078919061138a565b610236565b60405161008d9493929190611449565b60405180910390f35b61009e6108b4565b6040516100ae9493929190611449565b60405180910390f35b6100bf6109eb565b005b6100c9610e6e565b005b60365f9054906101000a900460ff16610119576040517f08c379a0000000000000000000000000000000000000000000000000000000008152600401610110906114eb565b60405180910390fd5b6038546037546101299190611536565b4211156101b7577eaf1ade955695dd7cb8833b69ad71fc489f552aca5609812e9f4567e5e4508860405161015c906115b3565b60405180910390a15f60365f6101000a81548160ff0219169083151502179055507f056e3895424a85ef26c4c78d9988dea28d97c77c140b919289906403e80171706040516101aa90611641565b60405180910390a1610234565b5f426038546037546101c99190611536565b6101d3919061165f565b90507eaf1ade955695dd7cb8833b69ad71fc489f552aca5609812e9f4567e5e450886101fe82610f0c565b60405160200161020e9190611760565b60405160208183030381529060405260405161022a919061178c565b60405180910390a1505b565b60605f6060805f8590506001815114610284576040517f08c379a000000000000000000000000000000000000000000000000000000000815260040161027b906117f6565b60405180910390fd5b5f806033805461029390611841565b80601f01602080910402602001604051908101604052809291908181526020018280546102bf90611841565b801561030a5780601f106102e15761010080835404028352916020019161030a565b820191905f5260205f20905b8154815290600101906020018083116102ed57829003601f168201915b505050505090505f5b6032805461032090611841565b905081101561046d57835f8151811061033c5761033b611871565b5b602001015160f81c60f81b7effffffffffffffffffffffffffffffffffffffffffffffffffffffffffffff1916603282815461037790611841565b811061038657610385611871565b5b8154600116156103a357905f5260205f2090602091828204019190065b9054901a7f0100000000000000000000000000000000000000000000000000000000000000027effffffffffffffffffffffffffffffffffffffffffffffffffffffffffffff19160361046057835f8151811061040357610402611871565b5b602001015160f81c60f81b8260028361041c919061189e565b8151811061042d5761042c611871565b5b60200101907effffffffffffffffffffffffffffffffffffffffffffffffffffffffffffff191690815f1a905350600192505b8080600101915050610313565b50806033908161047d9190611a7c565b5081610736576105156035805461049390611841565b80601f01602080910402602001604051908101604052809291908181526020018280546104bf90611841565b801561050a5780601f106104e15761010080835404028352916020019161050a565b820191905f5260205f20905b8154815290600101906020018083116104ed57829003601f168201915b505050505089611064565b61054c5760358860405160200161052d929190611c15565b6040516020818303038152906040526035908161054a9190611a7c565b505b60345f81548092919061055e90611c43565b91905055505f60345403610735575f60365f6101000a81548160ff0219169083151502179055507f1512161b9f23a85fd9ccec12d9cd3abeb7333bf293dc69250460c4c054a27fc6603360345460356105b561118c565b6040516105c59493929190611ceb565b60405180910390a17f056e3895424a85ef26c4c78d9988dea28d97c77c140b919289906403e80171706040516105fa90611db3565b60405180910390a16033603454603561061161118c565b83805461061d90611841565b80601f016020809104026020016040519081016040528092919081815260200182805461064990611841565b80156106945780601f1061066b57610100808354040283529160200191610694565b820191905f5260205f20905b81548152906001019060200180831161067757829003601f168201915b505050505093508180546106a790611841565b80601f01602080910402602001604051908101604052809291908181526020018280546106d390611841565b801561071e5780601f106106f55761010080835404028352916020019161071e565b820191905f5260205f20905b81548152906001019060200180831161070157829003601f168201915b5050505050915096509650965096505050506108ad565b5b7f1512161b9f23a85fd9ccec12d9cd3abeb7333bf293dc69250460c4c054a27fc66033603454603561076661118c565b6040516107769493929190611ceb565b60405180910390a16033603454603561078d61118c565b83805461079990611841565b80601f01602080910402602001604051908101604052809291908181526020018280546107c590611841565b80156108105780601f106107e757610100808354040283529160200191610810565b820191905f5260205f20905b8154815290600101906020018083116107f357829003601f168201915b5050505050935081805461082390611841565b80601f016020809104026020016040519081016040528092919081815260200182805461084f90611841565b801561089a5780601f106108715761010080835404028352916020019161089a565b820191905f5260205f20905b81548152906001019060200180831161087d57829003601f168201915b5050505050915096509650965096505050505b9193509193565b60605f606080603360345460356108c961118c565b8380546108d590611841565b80601f016020809104026020016040519081016040528092919081815260200182805461090190611841565b801561094c5780601f106109235761010080835404028352916020019161094c565b820191905f5260205f20905b81548152906001019060200180831161092f57829003601f168201915b5050505050935081805461095f90611841565b80601f016020809104026020016040519081016040528092919081815260200182805461098b90611841565b80156109d65780601f106109ad576101008083540402835291602001916109d6565b820191905f5260205f20905b8154815290600101906020018083116109b957829003601f168201915b50505050509150935093509350935090919293565b60365f9054906101000a900460ff1615610a3a576040517f08c379a0000000000000000000000000000000000000000000000000000000008152600401610a3190611e41565b60405180910390fd5b600160365f6101000a81548160ff021916908315150217905550426037819055507fa2dfaa3573b86004ec9d4d4abe5068d942579c59da4da8cd0d9e45e71a393bc1603754603854604051610a90929190611e5f565b60405180910390a15f60324233604051602001610aae929190611f1b565b604051602081830303815290604052805190602001205f1c610ad09190611f73565b90505f8160328110610ae557610ae4611871565b5b0160329081610af49190611fca565b505f60328054610b0390611841565b80601f0160208091040260200160405190810160405280929190818152602001828054610b2f90611841565b8015610b7a5780601f10610b5157610100808354040283529160200191610b7a565b820191905f5260205f20905b815481529060010190602001808311610b5d57829003601f168201915b505050505090505f60028251610b90919061189e565b67ffffffffffffffff811115610ba957610ba8611266565b5b6040519080825280601f01601f191660200182016040528015610bdb5781602001600182028036833780820191505090505b50905060405180602001604052805f81525060359081610bfb9190611a7c565b5060076034819055505f5b8251811015610e58577f2000000000000000000000000000000000000000000000000000000000000000838281518110610c4357610c42611871565b5b602001015160f81c60f81b7effffffffffffffffffffffffffffffffffffffffffffffffffffffffffffff191603610d62577f7c0000000000000000000000000000000000000000000000000000000000000082600283610ca4919061189e565b81518110610cb557610cb4611871565b5b60200101907effffffffffffffffffffffffffffffffffffffffffffffffffffffffffffff191690815f1a9053507f7c00000000000000000000000000000000000000000000000000000000000000826001600284610d14919061189e565b610d1e9190611536565b81518110610d2f57610d2e611871565b5b60200101907effffffffffffffffffffffffffffffffffffffffffffffffffffffffffffff191690815f1a905350610e4b565b7f5f0000000000000000000000000000000000000000000000000000000000000082600283610d91919061189e565b81518110610da257610da1611871565b5b60200101907effffffffffffffffffffffffffffffffffffffffffffffffffffffffffffff191690815f1a9053507f2000000000000000000000000000000000000000000000000000000000000000826001600284610e01919061189e565b610e0b9190611536565b81518110610e1c57610e1b611871565b5b60200101907effffffffffffffffffffffffffffffffffffffffffffffffffffffffffffff191690815f1a9053505b8080600101915050610c06565b508060339081610e689190611a7c565b50505050565b60365f9054906101000a900460ff16610ebc576040517f08c379a0000000000000000000000000000000000000000000000000000000008152600401610eb3906114eb565b60405180910390fd5b5f60365f6101000a81548160ff0219169083151502179055507f056e3895424a85ef26c4c78d9988dea28d97c77c140b919289906403e8017170604051610f02906120f9565b60405180910390a1565b60605f8203610f52576040518060400160405280600181526020017f3000000000000000000000000000000000000000000000000000000000000000815250905061105f565b5f8290505f5b5f8214610f81578080610f6a90612117565b915050600a82610f7a919061215e565b9150610f58565b5f8167ffffffffffffffff811115610f9c57610f9b611266565b5b6040519080825280601f01601f191660200182016040528015610fce5781602001600182028036833780820191505090505b5090505b5f8514611058578180610fe490611c43565b925050600a85610ff49190611f73565b60306110009190611536565b60f81b81838151811061101657611015611871565b5b60200101907effffffffffffffffffffffffffffffffffffffffffffffffffffffffffffff191690815f1a905350600a85611051919061215e565b9450610fd2565b8093505050505b919050565b5f808390505f8390505f8151148061107d575080518251105b1561108c575f92505050611186565b5f5b8151835161109c919061165f565b811161117f575f600190505f5b8351811015611157578381815181106110c5576110c4611871565b5b602001015160f81c60f81b7effffffffffffffffffffffffffffffffffffffffffffffffffffffffffffff19168582856110ff9190611536565b815181106111105761110f611871565b5b602001015160f81c60f81b7effffffffffffffffffffffffffffffffffffffffffffffffffffffffffffff19161461114a575f9150611157565b80806001019150506110a9565b50801561116b576001945050505050611186565b50808061117790612117565b91505061108e565b505f925050505b92915050565b60606039603454600761119f919061165f565b600881106111b0576111af611871565b5b0180546111bc90611841565b80601f01602080910402602001604051908101604052809291908181526020018280546111e890611841565b80156112335780601f1061120a57610100808354040283529160200191611233565b820191905f5260205f20905b81548152906001019060200180831161121657829003601f168201915b5050505050905090565b5f604051905090565b5f80fd5b5f80fd5b5f80fd5b5f80fd5b5f601f19601f8301169050919050565b7f4e487b71000000000000000000000000000000000000000000000000000000005f52604160045260245ffd5b61129c82611256565b810181811067ffffffffffffffff821117156112bb576112ba611266565b5b80604052505050565b5f6112cd61123d565b90506112d98282611293565b919050565b5f67ffffffffffffffff8211156112f8576112f7611266565b5b61130182611256565b9050602081019050919050565b828183375f83830152505050565b5f61132e611329846112de565b6112c4565b90508281526020810184848401111561134a57611349611252565b5b61135584828561130e565b509392505050565b5f82601f8301126113715761137061124e565b5b813561138184826020860161131c565b91505092915050565b5f6020828403121561139f5761139e611246565b5b5f82013567ffffffffffffffff8111156113bc576113bb61124a565b5b6113c88482850161135d565b91505092915050565b5f81519050919050565b5f82825260208201905092915050565b8281835e5f83830152505050565b5f611403826113d1565b61140d81856113db565b935061141d8185602086016113eb565b61142681611256565b840191505092915050565b5f819050919050565b61144381611431565b82525050565b5f6080820190508181035f83015261146181876113f9565b9050611470602083018661143a565b818103604083015261148281856113f9565b9050818103606083015261149681846113f9565b905095945050505050565b7f4e6f206163746976652067616d6520746f20656e642e000000000000000000005f82015250565b5f6114d56016836113db565b91506114e0826114a1565b602082019050919050565b5f6020820190508181035f830152611502816114c9565b9050919050565b7f4e487b71000000000000000000000000000000000000000000000000000000005f52601160045260245ffd5b5f61154082611431565b915061154b83611431565b925082820190508082111561156357611562611509565b5b92915050565b7f54696d65206c696d697420726561636865642e000000000000000000000000005f82015250565b5f61159d6013836113db565b91506115a882611569565b602082019050919050565b5f6020820190508181035f8301526115ca81611591565b9050919050565b7f47616d65206f7665722e20596f75206469646e27742066696e697368207468655f8201527f2067616d6520696e2074696d652e000000000000000000000000000000000000602082015250565b5f61162b602e836113db565b9150611636826115d1565b604082019050919050565b5f6020820190508181035f8301526116588161161f565b9050919050565b5f61166982611431565b915061167483611431565b925082820390508181111561168c5761168b611509565b5b92915050565b5f81905092915050565b7f596f7520686176652000000000000000000000000000000000000000000000005f82015250565b5f6116d0600983611692565b91506116db8261169c565b600982019050919050565b5f6116f0826113d1565b6116fa8185611692565b935061170a8185602086016113eb565b80840191505092915050565b7f207365636f6e6473206c656674000000000000000000000000000000000000005f82015250565b5f61174a600d83611692565b915061175582611716565b600d82019050919050565b5f61176a826116c4565b915061177682846116e6565b91506117818261173e565b915081905092915050565b5f6020820190508181035f8301526117a481846113f9565b905092915050565b7f496e707574206d75737420626520612073696e676c65206368617261637465725f82015250565b5f6117e06020836113db565b91506117eb826117ac565b602082019050919050565b5f6020820190508181035f83015261180d816117d4565b9050919050565b7f4e487b71000000000000000000000000000000000000000000000000000000005f52602260045260245ffd5b5f600282049050600182168061185857607f821691505b60208210810361186b5761186a611814565b5b50919050565b7f4e487b71000000000000000000000000000000000000000000000000000000005f52603260045260245ffd5b5f6118a882611431565b91506118b383611431565b92508282026118c181611431565b915082820484148315176118d8576118d7611509565b5b5092915050565b5f819050815f5260205f209050919050565b5f6020601f8301049050919050565b5f82821b905092915050565b5f6008830261193b7fffffffffffffffffffffffffffffffffffffffffffffffffffffffffffffffff82611900565b6119458683611900565b95508019841693508086168417925050509392505050565b5f819050919050565b5f61198061197b61197684611431565b61195d565b611431565b9050919050565b5f819050919050565b61199983611966565b6119ad6119a582611987565b84845461190c565b825550505050565b5f90565b6119c16119b5565b6119cc818484611990565b505050565b5b818110156119ef576119e45f826119b9565b6001810190506119d2565b5050565b601f821115611a3457611a05816118df565b611a0e846118f1565b81016020851015611a1d578190505b611a31611a29856118f1565b8301826119d1565b50505b505050565b5f82821c905092915050565b5f611a545f1984600802611a39565b1980831691505092915050565b5f611a6c8383611a45565b9150826002028217905092915050565b611a85826113d1565b67ffffffffffffffff811115611a9e57611a9d611266565b5b611aa88254611841565b611ab38282856119f3565b5f60209050601f831160018114611ae4575f8415611ad2578287015190505b611adc8582611a61565b865550611b43565b601f198416611af2866118df565b5f5b82811015611b1957848901518255600182019150602085019450602081019050611af4565b86831015611b365784890151611b32601f891682611a45565b8355505b6001600288020188555050505b505050505050565b5f8154611b5781611841565b611b618186611692565b9450600182165f8114611b7b5760018114611b9057611bc2565b60ff1983168652811515820286019350611bc2565b611b99856118df565b5f5b83811015611bba57815481890152600182019150602081019050611b9b565b838801955050505b50505092915050565b7f20000000000000000000000000000000000000000000000000000000000000005f82015250565b5f611bff600183611692565b9150611c0a82611bcb565b600182019050919050565b5f611c208285611b4b565b9150611c2c82846116e6565b9150611c3782611bf3565b91508190509392505050565b5f611c4d82611431565b91505f8203611c5f57611c5e611509565b5b600182039050919050565b5f8154611c7681611841565b611c8081866113db565b9450600182165f8114611c9a5760018114611cb057611ce2565b60ff198316865281151560200286019350611ce2565b611cb9856118df565b5f5b83811015611cda57815481890152600182019150602081019050611cbb565b808801955050505b50505092915050565b5f6080820190508181035f830152611d038187611c6a565b9050611d12602083018661143a565b8181036040830152611d248185611c6a565b90508181036060830152611d3881846113f9565b905095945050505050565b7f47616d65206f7665722e20596f7520646f6e2774206861766520616e792061745f8201527f74656d707473206c6566742e0000000000000000000000000000000000000000602082015250565b5f611d9d602c836113db565b9150611da882611d43565b604082019050919050565b5f6020820190508181035f830152611dca81611d91565b9050919050565b7f47616d6520616c726561647920696e2070726f67726573732e20456e642069745f8201527f2066697273742e00000000000000000000000000000000000000000000000000602082015250565b5f611e2b6027836113db565b9150611e3682611dd1565b604082019050919050565b5f6020820190508181035f830152611e5881611e1f565b9050919050565b5f604082019050611e725f83018561143a565b611e7f602083018461143a565b9392505050565b5f819050919050565b611ea0611e9b82611431565b611e86565b82525050565b5f73ffffffffffffffffffffffffffffffffffffffff82169050919050565b5f611ecf82611ea6565b9050919050565b5f8160601b9050919050565b5f611eec82611ed6565b9050919050565b5f611efd82611ee2565b9050919050565b611f15611f1082611ec5565b611ef3565b82525050565b5f611f268285611e8f565b602082019150611f368284611f04565b6014820191508190509392505050565b7f4e487b71000000000000000000000000000000000000000000000000000000005f52601260045260245ffd5b5f611f7d82611431565b9150611f8883611431565b925082611f9857611f97611f46565b5b828206905092915050565b5f81549050611fb181611841565b9050919050565b5f819050815f5260205f209050919050565b818103611fd85750506120ad565b611fe182611fa3565b67ffffffffffffffff811115611ffa57611ff9611266565b5b6120048254611841565b61200f8282856119f3565b5f601f83116001811461203c575f841561202a578287015490505b6120348582611a61565b8655506120a6565b601f19841661204a87611fb8565b9650612055866118df565b5f5b8281101561207c57848901548255600182019150600185019450602081019050612057565b868310156120995784890154612095601f891682611a45565b8355505b6001600288020188555050505b5050505050505b565b7f47616d65206f7665722e20596f7520717569742e0000000000000000000000005f82015250565b5f6120e36014836113db565b91506120ee826120af565b602082019050919050565b5f6020820190508181035f830152612110816120d7565b9050919050565b5f61212182611431565b91507fffffffffffffffffffffffffffffffffffffffffffffffffffffffffffffffff820361215357612152611509565b5b600182019050919050565b5f61216882611431565b915061217383611431565b92508261218357612182611f46565b5b82820490509291505056fea264697066735822122010d9b17e96b6f6a0ec51073df61f65cbf206362a400608d146ea3a7ed32e3e5564736f6c634300081a0033",
					"opcodes": "PUSH1 0x80 PUSH1 0x40 MSTORE PUSH1 0x40 MLOAD DUP1 PUSH2 0x640 ADD PUSH1 0x40 MSTORE DUP1 PUSH1 0x40 MLOAD DUP1 PUSH1 0x40 ADD PUSH1 0x40 MSTORE DUP1 PUSH1 0x9 DUP2 MSTORE PUSH1 0x20 ADD PUSH32 0x6170706C65207069650000000000000000000000000000000000000000000000 DUP2 MSTORE POP DUP2 MSTORE PUSH1 0x20 ADD PUSH1 0x40 MLOAD DUP1 PUSH1 0x40 ADD PUSH1 0x40 MSTORE DUP1 PUSH1 0x9 DUP2 MSTORE PUSH1 0x20 ADD PUSH32 0x6861707079206361740000000000000000000000000000000000000000000000 DUP2 MSTORE POP DUP2 MSTORE PUSH1 0x20 ADD PUSH1 0x40 MLOAD DUP1 PUSH1 0x40 ADD PUSH1 0x40 MSTORE DUP1 PUSH1 0x8 DUP2 MSTORE PUSH1 0x20 ADD PUSH32 0x6269672062656172000000000000000000000000000000000000000000000000 DUP2 MSTORE POP DUP2 MSTORE PUSH1 0x20 ADD PUSH1 0x40 MLOAD DUP1 PUSH1 0x40 ADD PUSH1 0x40 MSTORE DUP1 PUSH1 0xB DUP2 MSTORE PUSH1 0x20 ADD PUSH32 0x7261696E626F7720736B79000000000000000000000000000000000000000000 DUP2 MSTORE POP DUP2 MSTORE PUSH1 0x20 ADD PUSH1 0x40 MLOAD DUP1 PUSH1 0x40 ADD PUSH1 0x40 MSTORE DUP1 PUSH1 0x9 DUP2 MSTORE PUSH1 0x20 ADD PUSH32 0x6D61676963206861740000000000000000000000000000000000000000000000 DUP2 MSTORE POP DUP2 MSTORE PUSH1 0x20 ADD PUSH1 0x40 MLOAD DUP1 PUSH1 0x40 ADD PUSH1 0x40 MSTORE DUP1 PUSH1 0x9 DUP2 MSTORE PUSH1 0x20 ADD PUSH32 0x73756E6E79206461790000000000000000000000000000000000000000000000 DUP2 MSTORE POP DUP2 MSTORE PUSH1 0x20 ADD PUSH1 0x40 MLOAD DUP1 PUSH1 0x40 ADD PUSH1 0x40 MSTORE DUP1 PUSH1 0xA DUP2 MSTORE PUSH1 0x20 ADD PUSH32 0x74696E7920686F75736500000000000000000000000000000000000000000000 DUP2 MSTORE POP DUP2 MSTORE PUSH1 0x20 ADD PUSH1 0x40 MLOAD DUP1 PUSH1 0x40 ADD PUSH1 0x40 MSTORE DUP1 PUSH1 0x9 DUP2 MSTORE PUSH1 0x20 ADD PUSH32 0x6C656D6F6E207465610000000000000000000000000000000000000000000000 DUP2 MSTORE POP DUP2 MSTORE PUSH1 0x20 ADD PUSH1 0x40 MLOAD DUP1 PUSH1 0x40 ADD PUSH1 0x40 MSTORE DUP1 PUSH1 0xA DUP2 MSTORE PUSH1 0x20 ADD PUSH32 0x7075707079206C6F766500000000000000000000000000000000000000000000 DUP2 MSTORE POP DUP2 MSTORE PUSH1 0x20 ADD PUSH1 0x40 MLOAD DUP1 PUSH1 0x40 ADD PUSH1 0x40 MSTORE DUP1 PUSH1 0x9 DUP2 MSTORE PUSH1 0x20 ADD PUSH32 0x77696C6420776573740000000000000000000000000000000000000000000000 DUP2 MSTORE POP DUP2 MSTORE PUSH1 0x20 ADD PUSH1 0x40 MLOAD DUP1 PUSH1 0x40 ADD PUSH1 0x40 MSTORE DUP1 PUSH1 0xB DUP2 MSTORE PUSH1 0x20 ADD PUSH32 0x6F72616E6765206D6F6F6E000000000000000000000000000000000000000000 DUP2 MSTORE POP DUP2 MSTORE PUSH1 0x20 ADD PUSH1 0x40 MLOAD DUP1 PUSH1 0x40 ADD PUSH1 0x40 MSTORE DUP1 PUSH1 0xB DUP2 MSTORE PUSH1 0x20 ADD PUSH32 0x73696C7665722073746172000000000000000000000000000000000000000000 DUP2 MSTORE POP DUP2 MSTORE PUSH1 0x20 ADD PUSH1 0x40 MLOAD DUP1 PUSH1 0x40 ADD PUSH1 0x40 MSTORE DUP1 PUSH1 0xC DUP2 MSTORE PUSH1 0x20 ADD PUSH32 0x6C61756768696E67206F776C0000000000000000000000000000000000000000 DUP2 MSTORE POP DUP2 MSTORE PUSH1 0x20 ADD PUSH1 0x40 MLOAD DUP1 PUSH1 0x40 ADD PUSH1 0x40 MSTORE DUP1 PUSH1 0xB DUP2 MSTORE PUSH1 0x20 ADD PUSH32 0x666F726573742070617468000000000000000000000000000000000000000000 DUP2 MSTORE POP DUP2 MSTORE PUSH1 0x20 ADD PUSH1 0x40 MLOAD DUP1 PUSH1 0x40 ADD PUSH1 0x40 MSTORE DUP1 PUSH1 0xB DUP2 MSTORE PUSH1 0x20 ADD PUSH32 0x666C79696E672066697368000000000000000000000000000000000000000000 DUP2 MSTORE POP DUP2 MSTORE PUSH1 0x20 ADD PUSH1 0x40 MLOAD DUP1 PUSH1 0x40 ADD PUSH1 0x40 MSTORE DUP1 PUSH1 0xC DUP2 MSTORE PUSH1 0x20 ADD PUSH32 0x636F74746F6E20636C6F75640000000000000000000000000000000000000000 DUP2 MSTORE POP DUP2 MSTORE PUSH1 0x20 ADD PUSH1 0x40 MLOAD DUP1 PUSH1 0x40 ADD PUSH1 0x40 MSTORE DUP1 PUSH1 0xB DUP2 MSTORE PUSH1 0x20 ADD PUSH32 0x6368657272792074726565000000000000000000000000000000000000000000 DUP2 MSTORE POP DUP2 MSTORE PUSH1 0x20 ADD PUSH1 0x40 MLOAD DUP1 PUSH1 0x40 ADD PUSH1 0x40 MSTORE DUP1 PUSH1 0xA DUP2 MSTORE PUSH1 0x20 ADD PUSH32 0x736563726574206B657900000000000000000000000000000000000000000000 DUP2 MSTORE POP DUP2 MSTORE PUSH1 0x20 ADD PUSH1 0x40 MLOAD DUP1 PUSH1 0x40 ADD PUSH1 0x40 MSTORE DUP1 PUSH1 0xC DUP2 MSTORE PUSH1 0x20 ADD PUSH32 0x6272617665206B6E696768740000000000000000000000000000000000000000 DUP2 MSTORE POP DUP2 MSTORE PUSH1 0x20 ADD PUSH1 0x40 MLOAD DUP1 PUSH1 0x40 ADD PUSH1 0x40 MSTORE DUP1 PUSH1 0xA DUP2 MSTORE PUSH1 0x20 ADD PUSH32 0x626C7565206F6365616E00000000000000000000000000000000000000000000 DUP2 MSTORE POP DUP2 MSTORE PUSH1 0x20 ADD PUSH1 0x40 MLOAD DUP1 PUSH1 0x40 ADD PUSH1 0x40 MSTORE DUP1 PUSH1 0xF DUP2 MSTORE PUSH1 0x20 ADD PUSH32 0x7477696E6B6C696E67206C696768740000000000000000000000000000000000 DUP2 MSTORE POP DUP2 MSTORE PUSH1 0x20 ADD PUSH1 0x40 MLOAD DUP1 PUSH1 0x40 ADD PUSH1 0x40 MSTORE DUP1 PUSH1 0xB DUP2 MSTORE PUSH1 0x20 ADD PUSH32 0x736E6F7779206E69676874000000000000000000000000000000000000000000 DUP2 MSTORE POP DUP2 MSTORE PUSH1 0x20 ADD PUSH1 0x40 MLOAD DUP1 PUSH1 0x40 ADD PUSH1 0x40 MSTORE DUP1 PUSH1 0xC DUP2 MSTORE PUSH1 0x20 ADD PUSH32 0x6769616E7420747572746C650000000000000000000000000000000000000000 DUP2 MSTORE POP DUP2 MSTORE PUSH1 0x20 ADD PUSH1 0x40 MLOAD DUP1 PUSH1 0x40 ADD PUSH1 0x40 MSTORE DUP1 PUSH1 0xA DUP2 MSTORE PUSH1 0x20 ADD PUSH32 0x66616972792074616C6500000000000000000000000000000000000000000000 DUP2 MSTORE POP DUP2 MSTORE PUSH1 0x20 ADD PUSH1 0x40 MLOAD DUP1 PUSH1 0x40 ADD PUSH1 0x40 MSTORE DUP1 PUSH1 0xF DUP2 MSTORE PUSH1 0x20 ADD PUSH32 0x68696464656E2074726561737572650000000000000000000000000000000000 DUP2 MSTORE POP DUP2 MSTORE PUSH1 0x20 ADD PUSH1 0x40 MLOAD DUP1 PUSH1 0x40 ADD PUSH1 0x40 MSTORE DUP1 PUSH1 0xC DUP2 MSTORE PUSH1 0x20 ADD PUSH32 0x73696C656E742072697665720000000000000000000000000000000000000000 DUP2 MSTORE POP DUP2 MSTORE PUSH1 0x20 ADD PUSH1 0x40 MLOAD DUP1 PUSH1 0x40 ADD PUSH1 0x40 MSTORE DUP1 PUSH1 0xC DUP2 MSTORE PUSH1 0x20 ADD PUSH32 0x637564646C792062756E6E790000000000000000000000000000000000000000 DUP2 MSTORE POP DUP2 MSTORE PUSH1 0x20 ADD PUSH1 0x40 MLOAD DUP1 PUSH1 0x40 ADD PUSH1 0x40 MSTORE DUP1 PUSH1 0xF DUP2 MSTORE PUSH1 0x20 ADD PUSH32 0x64616E63696E6720646F6C7068696E0000000000000000000000000000000000 DUP2 MSTORE POP DUP2 MSTORE PUSH1 0x20 ADD PUSH1 0x40 MLOAD DUP1 PUSH1 0x40 ADD PUSH1 0x40 MSTORE DUP1 PUSH1 0xB DUP2 MSTORE PUSH1 0x20 ADD PUSH32 0x66726F7A656E206C616B65000000000000000000000000000000000000000000 DUP2 MSTORE POP DUP2 MSTORE PUSH1 0x20 ADD PUSH1 0x40 MLOAD DUP1 PUSH1 0x40 ADD PUSH1 0x40 MSTORE DUP1 PUSH1 0xE DUP2 MSTORE PUSH1 0x20 ADD PUSH32 0x63686F636F6C6174652063616B65000000000000000000000000000000000000 DUP2 MSTORE POP DUP2 MSTORE PUSH1 0x20 ADD PUSH1 0x40 MLOAD DUP1 PUSH1 0x40 ADD PUSH1 0x40 MSTORE DUP1 PUSH1 0xE DUP2 MSTORE PUSH1 0x20 ADD PUSH32 0x667269656E646C792067686F7374000000000000000000000000000000000000 DUP2 MSTORE POP DUP2 MSTORE PUSH1 0x20 ADD PUSH1 0x40 MLOAD DUP1 PUSH1 0x40 ADD PUSH1 0x40 MSTORE DUP1 PUSH1 0xB DUP2 MSTORE PUSH1 0x20 ADD PUSH32 0x676F6C64656E2072696E67000000000000000000000000000000000000000000 DUP2 MSTORE POP DUP2 MSTORE PUSH1 0x20 ADD PUSH1 0x40 MLOAD DUP1 PUSH1 0x40 ADD PUSH1 0x40 MSTORE DUP1 PUSH1 0xF DUP2 MSTORE PUSH1 0x20 ADD PUSH32 0x706561636566756C2067617264656E0000000000000000000000000000000000 DUP2 MSTORE POP DUP2 MSTORE PUSH1 0x20 ADD PUSH1 0x40 MLOAD DUP1 PUSH1 0x40 ADD PUSH1 0x40 MSTORE DUP1 PUSH1 0xF DUP2 MSTORE PUSH1 0x20 ADD PUSH32 0x77686973706572696E672077696E640000000000000000000000000000000000 DUP2 MSTORE POP DUP2 MSTORE PUSH1 0x20 ADD PUSH1 0x40 MLOAD DUP1 PUSH1 0x40 ADD PUSH1 0x40 MSTORE DUP1 PUSH1 0xB DUP2 MSTORE PUSH1 0x20 ADD PUSH32 0x7368696E792070656E6E79000000000000000000000000000000000000000000 DUP2 MSTORE POP DUP2 MSTORE PUSH1 0x20 ADD PUSH1 0x40 MLOAD DUP1 PUSH1 0x40 ADD PUSH1 0x40 MSTORE DUP1 PUSH1 0xD DUP2 MSTORE PUSH1 0x20 ADD PUSH32 0x6D6F756E7461696E207065616B00000000000000000000000000000000000000 DUP2 MSTORE POP DUP2 MSTORE PUSH1 0x20 ADD PUSH1 0x40 MLOAD DUP1 PUSH1 0x40 ADD PUSH1 0x40 MSTORE DUP1 PUSH1 0xB DUP2 MSTORE PUSH1 0x20 ADD PUSH32 0x63616C6D20776174657273000000000000000000000000000000000000000000 DUP2 MSTORE POP DUP2 MSTORE PUSH1 0x20 ADD PUSH1 0x40 MLOAD DUP1 PUSH1 0x40 ADD PUSH1 0x40 MSTORE DUP1 PUSH1 0xA DUP2 MSTORE PUSH1 0x20 ADD PUSH32 0x6272696768742073756E00000000000000000000000000000000000000000000 DUP2 MSTORE POP DUP2 MSTORE PUSH1 0x20 ADD PUSH1 0x40 MLOAD DUP1 PUSH1 0x40 ADD PUSH1 0x40 MSTORE DUP1 PUSH1 0xA DUP2 MSTORE PUSH1 0x20 ADD PUSH32 0x736C6565707920666F7800000000000000000000000000000000000000000000 DUP2 MSTORE POP DUP2 MSTORE PUSH1 0x20 ADD PUSH1 0x40 MLOAD DUP1 PUSH1 0x40 ADD PUSH1 0x40 MSTORE DUP1 PUSH1 0xA DUP2 MSTORE PUSH1 0x20 ADD PUSH32 0x73746172727920736B7900000000000000000000000000000000000000000000 DUP2 MSTORE POP DUP2 MSTORE PUSH1 0x20 ADD PUSH1 0x40 MLOAD DUP1 PUSH1 0x40 ADD PUSH1 0x40 MSTORE DUP1 PUSH1 0xB DUP2 MSTORE PUSH1 0x20 ADD PUSH32 0x74696E7920666C6F776572000000000000000000000000000000000000000000 DUP2 MSTORE POP DUP2 MSTORE PUSH1 0x20 ADD PUSH1 0x40 MLOAD DUP1 PUSH1 0x40 ADD PUSH1 0x40 MSTORE DUP1 PUSH1 0xD DUP2 MSTORE PUSH1 0x20 ADD PUSH32 0x67656E746C6520627265657A6500000000000000000000000000000000000000 DUP2 MSTORE POP DUP2 MSTORE PUSH1 0x20 ADD PUSH1 0x40 MLOAD DUP1 PUSH1 0x40 ADD PUSH1 0x40 MSTORE DUP1 PUSH1 0xC DUP2 MSTORE PUSH1 0x20 ADD PUSH32 0x7261696E626F7720666973680000000000000000000000000000000000000000 DUP2 MSTORE POP DUP2 MSTORE PUSH1 0x20 ADD PUSH1 0x40 MLOAD DUP1 PUSH1 0x40 ADD PUSH1 0x40 MSTORE DUP1 PUSH1 0xC DUP2 MSTORE PUSH1 0x20 ADD PUSH32 0x73696E67696E6720626972640000000000000000000000000000000000000000 DUP2 MSTORE POP DUP2 MSTORE PUSH1 0x20 ADD PUSH1 0x40 MLOAD DUP1 PUSH1 0x40 ADD PUSH1 0x40 MSTORE DUP1 PUSH1 0xA DUP2 MSTORE PUSH1 0x20 ADD PUSH32 0x626F6C6420746967657200000000000000000000000000000000000000000000 DUP2 MSTORE POP DUP2 MSTORE PUSH1 0x20 ADD PUSH1 0x40 MLOAD DUP1 PUSH1 0x40 ADD PUSH1 0x40 MSTORE DUP1 PUSH1 0xE DUP2 MSTORE PUSH1 0x20 ADD PUSH32 0x7370696E6E696E6720776865656C000000000000000000000000000000000000 DUP2 MSTORE POP DUP2 MSTORE PUSH1 0x20 ADD PUSH1 0x40 MLOAD DUP1 PUSH1 0x40 ADD PUSH1 0x40 MSTORE DUP1 PUSH1 0xD DUP2 MSTORE PUSH1 0x20 ADD PUSH32 0x736861646F772070757070657400000000000000000000000000000000000000 DUP2 MSTORE POP DUP2 MSTORE PUSH1 0x20 ADD PUSH1 0x40 MLOAD DUP1 PUSH1 0x40 ADD PUSH1 0x40 MSTORE DUP1 PUSH1 0xC DUP2 MSTORE PUSH1 0x20 ADD PUSH32 0x677265656E2076616C6C65790000000000000000000000000000000000000000 DUP2 MSTORE POP DUP2 MSTORE PUSH1 0x20 ADD PUSH1 0x40 MLOAD DUP1 PUSH1 0x40 ADD PUSH1 0x40 MSTORE DUP1 PUSH1 0x14 DUP2 MSTORE PUSH1 0x20 ADD PUSH32 0x666C7574746572696E6720627574746572666C79000000000000000000000000 DUP2 MSTORE POP DUP2 MSTORE PUSH1 0x20 ADD PUSH1 0x40 MLOAD DUP1 PUSH1 0x40 ADD PUSH1 0x40 MSTORE DUP1 PUSH1 0xB DUP2 MSTORE PUSH1 0x20 ADD PUSH32 0x7365637265742063617665000000000000000000000000000000000000000000 DUP2 MSTORE POP DUP2 MSTORE POP PUSH0 SWAP1 PUSH1 0x32 PUSH2 0xBA3 SWAP3 SWAP2 SWAP1 PUSH2 0xDAD JUMP JUMPDEST POP PUSH1 0x3C PUSH1 0x38 SSTORE PUSH1 0x40 MLOAD DUP1 PUSH2 0x100 ADD PUSH1 0x40 MSTORE DUP1 PUSH1 0x40 MLOAD DUP1 PUSH1 0x40 ADD PUSH1 0x40 MSTORE DUP1 PUSH1 0x2 DUP2 MSTORE PUSH1 0x20 ADD PUSH32 0x207C000000000000000000000000000000000000000000000000000000000000 DUP2 MSTORE POP DUP2 MSTORE PUSH1 0x20 ADD PUSH1 0x40 MLOAD DUP1 PUSH1 0x40 ADD PUSH1 0x40 MSTORE DUP1 PUSH1 0x3 DUP2 MSTORE PUSH1 0x20 ADD PUSH32 0x207C2D0000000000000000000000000000000000000000000000000000000000 DUP2 MSTORE POP DUP2 MSTORE PUSH1 0x20 ADD PUSH1 0x40 MLOAD DUP1 PUSH1 0x40 ADD PUSH1 0x40 MSTORE DUP1 PUSH1 0x4 DUP2 MSTORE PUSH1 0x20 ADD PUSH32 0x207C2D6F00000000000000000000000000000000000000000000000000000000 DUP2 MSTORE POP DUP2 MSTORE PUSH1 0x20 ADD PUSH1 0x40 MLOAD DUP1 PUSH1 0x40 ADD PUSH1 0x40 MSTORE DUP1 PUSH1 0x5 DUP2 MSTORE PUSH1 0x20 ADD PUSH32 0x207C2D6F2D000000000000000000000000000000000000000000000000000000 DUP2 MSTORE POP DUP2 MSTORE PUSH1 0x20 ADD PUSH1 0x40 MLOAD DUP1 PUSH1 0x40 ADD PUSH1 0x40 MSTORE DUP1 PUSH1 0x5 DUP2 MSTORE PUSH1 0x20 ADD PUSH32 0x207C2D6F3C000000000000000000000000000000000000000000000000000000 DUP2 MSTORE POP DUP2 MSTORE PUSH1 0x20 ADD PUSH1 0x40 MLOAD DUP1 PUSH1 0x40 ADD PUSH1 0x40 MSTORE DUP1 PUSH1 0x6 DUP2 MSTORE PUSH1 0x20 ADD PUSH32 0x207C2D6F3C2D0000000000000000000000000000000000000000000000000000 DUP2 MSTORE POP DUP2 MSTORE PUSH1 0x20 ADD PUSH1 0x40 MLOAD DUP1 PUSH1 0x40 ADD PUSH1 0x40 MSTORE DUP1 PUSH1 0x7 DUP2 MSTORE PUSH1 0x20 ADD PUSH32 0x207C2D6F3C2D2D00000000000000000000000000000000000000000000000000 DUP2 MSTORE POP DUP2 MSTORE PUSH1 0x20 ADD PUSH1 0x40 MLOAD DUP1 PUSH1 0x40 ADD PUSH1 0x40 MSTORE DUP1 PUSH1 0x7 DUP2 MSTORE PUSH1 0x20 ADD PUSH32 0x207C2D6F3C2D3C00000000000000000000000000000000000000000000000000 DUP2 MSTORE POP DUP2 MSTORE POP PUSH1 0x39 SWAP1 PUSH1 0x8 PUSH2 0xD9B SWAP3 SWAP2 SWAP1 PUSH2 0xDF9 JUMP JUMPDEST POP CALLVALUE DUP1 ISZERO PUSH2 0xDA7 JUMPI PUSH0 DUP1 REVERT JUMPDEST POP PUSH2 0x11C9 JUMP JUMPDEST DUP3 PUSH1 0x32 DUP2 ADD SWAP3 DUP3 ISZERO PUSH2 0xDE8 JUMPI SWAP2 PUSH1 0x20 MUL DUP3 ADD JUMPDEST DUP3 DUP2 GT ISZERO PUSH2 0xDE7 JUMPI DUP3 MLOAD DUP3 SWAP1 DUP2 PUSH2 0xDD7 SWAP2 SWAP1 PUSH2 0x10FA JUMP JUMPDEST POP SWAP2 PUSH1 0x20 ADD SWAP2 SWAP1 PUSH1 0x1 ADD SWAP1 PUSH2 0xDC0 JUMP JUMPDEST JUMPDEST POP SWAP1 POP PUSH2 0xDF5 SWAP2 SWAP1 PUSH2 0xE45 JUMP JUMPDEST POP SWAP1 JUMP JUMPDEST DUP3 PUSH1 0x8 DUP2 ADD SWAP3 DUP3 ISZERO PUSH2 0xE34 JUMPI SWAP2 PUSH1 0x20 MUL DUP3 ADD JUMPDEST DUP3 DUP2 GT ISZERO PUSH2 0xE33 JUMPI DUP3 MLOAD DUP3 SWAP1 DUP2 PUSH2 0xE23 SWAP2 SWAP1 PUSH2 0x10FA JUMP JUMPDEST POP SWAP2 PUSH1 0x20 ADD SWAP2 SWAP1 PUSH1 0x1 ADD SWAP1 PUSH2 0xE0C JUMP JUMPDEST JUMPDEST POP SWAP1 POP PUSH2 0xE41 SWAP2 SWAP1 PUSH2 0xE45 JUMP JUMPDEST POP SWAP1 JUMP JUMPDEST JUMPDEST DUP1 DUP3 GT ISZERO PUSH2 0xE64 JUMPI PUSH0 DUP2 DUP2 PUSH2 0xE5B SWAP2 SWAP1 PUSH2 0xE68 JUMP JUMPDEST POP PUSH1 0x1 ADD PUSH2 0xE46 JUMP JUMPDEST POP SWAP1 JUMP JUMPDEST POP DUP1 SLOAD PUSH2 0xE74 SWAP1 PUSH2 0xF24 JUMP JUMPDEST PUSH0 DUP3 SSTORE DUP1 PUSH1 0x1F LT PUSH2 0xE85 JUMPI POP PUSH2 0xEA2 JUMP JUMPDEST PUSH1 0x1F ADD PUSH1 0x20 SWAP1 DIV SWAP1 PUSH0 MSTORE PUSH1 0x20 PUSH0 KECCAK256 SWAP1 DUP2 ADD SWAP1 PUSH2 0xEA1 SWAP2 SWAP1 PUSH2 0xEA5 JUMP JUMPDEST JUMPDEST POP JUMP JUMPDEST JUMPDEST DUP1 DUP3 GT ISZERO PUSH2 0xEBC JUMPI PUSH0 DUP2 PUSH0 SWAP1 SSTORE POP PUSH1 0x1 ADD PUSH2 0xEA6 JUMP JUMPDEST POP SWAP1 JUMP JUMPDEST PUSH0 DUP2 MLOAD SWAP1 POP SWAP2 SWAP1 POP JUMP JUMPDEST PUSH32 0x4E487B7100000000000000000000000000000000000000000000000000000000 PUSH0 MSTORE PUSH1 0x41 PUSH1 0x4 MSTORE PUSH1 0x24 PUSH0 REVERT JUMPDEST PUSH32 0x4E487B7100000000000000000000000000000000000000000000000000000000 PUSH0 MSTORE PUSH1 0x22 PUSH1 0x4 MSTORE PUSH1 0x24 PUSH0 REVERT JUMPDEST PUSH0 PUSH1 0x2 DUP3 DIV SWAP1 POP PUSH1 0x1 DUP3 AND DUP1 PUSH2 0xF3B JUMPI PUSH1 0x7F DUP3 AND SWAP2 POP JUMPDEST PUSH1 0x20 DUP3 LT DUP2 SUB PUSH2 0xF4E JUMPI PUSH2 0xF4D PUSH2 0xEF7 JUMP JUMPDEST JUMPDEST POP SWAP2 SWAP1 POP JUMP JUMPDEST PUSH0 DUP2 SWAP1 POP DUP2 PUSH0 MSTORE PUSH1 0x20 PUSH0 KECCAK256 SWAP1 POP SWAP2 SWAP1 POP JUMP JUMPDEST PUSH0 PUSH1 0x20 PUSH1 0x1F DUP4 ADD DIV SWAP1 POP SWAP2 SWAP1 POP JUMP JUMPDEST PUSH0 DUP3 DUP3 SHL SWAP1 POP SWAP3 SWAP2 POP POP JUMP JUMPDEST PUSH0 PUSH1 0x8 DUP4 MUL PUSH2 0xFB0 PUSH32 0xFFFFFFFFFFFFFFFFFFFFFFFFFFFFFFFFFFFFFFFFFFFFFFFFFFFFFFFFFFFFFFFF DUP3 PUSH2 0xF75 JUMP JUMPDEST PUSH2 0xFBA DUP7 DUP4 PUSH2 0xF75 JUMP JUMPDEST SWAP6 POP DUP1 NOT DUP5 AND SWAP4 POP DUP1 DUP7 AND DUP5 OR SWAP3 POP POP POP SWAP4 SWAP3 POP POP POP JUMP JUMPDEST PUSH0 DUP2 SWAP1 POP SWAP2 SWAP1 POP JUMP JUMPDEST PUSH0 DUP2 SWAP1 POP SWAP2 SWAP1 POP JUMP JUMPDEST PUSH0 PUSH2 0xFFE PUSH2 0xFF9 PUSH2 0xFF4 DUP5 PUSH2 0xFD2 JUMP JUMPDEST PUSH2 0xFDB JUMP JUMPDEST PUSH2 0xFD2 JUMP JUMPDEST SWAP1 POP SWAP2 SWAP1 POP JUMP JUMPDEST PUSH0 DUP2 SWAP1 POP SWAP2 SWAP1 POP JUMP JUMPDEST PUSH2 0x1017 DUP4 PUSH2 0xFE4 JUMP JUMPDEST PUSH2 0x102B PUSH2 0x1023 DUP3 PUSH2 0x1005 JUMP JUMPDEST DUP5 DUP5 SLOAD PUSH2 0xF81 JUMP JUMPDEST DUP3 SSTORE POP POP POP POP JUMP JUMPDEST PUSH0 SWAP1 JUMP JUMPDEST PUSH2 0x103F PUSH2 0x1033 JUMP JUMPDEST PUSH2 0x104A DUP2 DUP5 DUP5 PUSH2 0x100E JUMP JUMPDEST POP POP POP JUMP JUMPDEST JUMPDEST DUP2 DUP2 LT ISZERO PUSH2 0x106D JUMPI PUSH2 0x1062 PUSH0 DUP3 PUSH2 0x1037 JUMP JUMPDEST PUSH1 0x1 DUP2 ADD SWAP1 POP PUSH2 0x1050 JUMP JUMPDEST POP POP JUMP JUMPDEST PUSH1 0x1F DUP3 GT ISZERO PUSH2 0x10B2 JUMPI PUSH2 0x1083 DUP2 PUSH2 0xF54 JUMP JUMPDEST PUSH2 0x108C DUP5 PUSH2 0xF66 JUMP JUMPDEST DUP2 ADD PUSH1 0x20 DUP6 LT ISZERO PUSH2 0x109B JUMPI DUP2 SWAP1 POP JUMPDEST PUSH2 0x10AF PUSH2 0x10A7 DUP6 PUSH2 0xF66 JUMP JUMPDEST DUP4 ADD DUP3 PUSH2 0x104F JUMP JUMPDEST POP POP JUMPDEST POP POP POP JUMP JUMPDEST PUSH0 DUP3 DUP3 SHR SWAP1 POP SWAP3 SWAP2 POP POP JUMP JUMPDEST PUSH0 PUSH2 0x10D2 PUSH0 NOT DUP5 PUSH1 0x8 MUL PUSH2 0x10B7 JUMP JUMPDEST NOT DUP1 DUP4 AND SWAP2 POP POP SWAP3 SWAP2 POP POP JUMP JUMPDEST PUSH0 PUSH2 0x10EA DUP4 DUP4 PUSH2 0x10C3 JUMP JUMPDEST SWAP2 POP DUP3 PUSH1 0x2 MUL DUP3 OR SWAP1 POP SWAP3 SWAP2 POP POP JUMP JUMPDEST PUSH2 0x1103 DUP3 PUSH2 0xEC0 JUMP JUMPDEST PUSH8 0xFFFFFFFFFFFFFFFF DUP2 GT ISZERO PUSH2 0x111C JUMPI PUSH2 0x111B PUSH2 0xECA JUMP JUMPDEST JUMPDEST PUSH2 0x1126 DUP3 SLOAD PUSH2 0xF24 JUMP JUMPDEST PUSH2 0x1131 DUP3 DUP3 DUP6 PUSH2 0x1071 JUMP JUMPDEST PUSH0 PUSH1 0x20 SWAP1 POP PUSH1 0x1F DUP4 GT PUSH1 0x1 DUP2 EQ PUSH2 0x1162 JUMPI PUSH0 DUP5 ISZERO PUSH2 0x1150 JUMPI DUP3 DUP8 ADD MLOAD SWAP1 POP JUMPDEST PUSH2 0x115A DUP6 DUP3 PUSH2 0x10DF JUMP JUMPDEST DUP7 SSTORE POP PUSH2 0x11C1 JUMP JUMPDEST PUSH1 0x1F NOT DUP5 AND PUSH2 0x1170 DUP7 PUSH2 0xF54 JUMP JUMPDEST PUSH0 JUMPDEST DUP3 DUP2 LT ISZERO PUSH2 0x1197 JUMPI DUP5 DUP10 ADD MLOAD DUP3 SSTORE PUSH1 0x1 DUP3 ADD SWAP2 POP PUSH1 0x20 DUP6 ADD SWAP5 POP PUSH1 0x20 DUP2 ADD SWAP1 POP PUSH2 0x1172 JUMP JUMPDEST DUP7 DUP4 LT ISZERO PUSH2 0x11B4 JUMPI DUP5 DUP10 ADD MLOAD PUSH2 0x11B0 PUSH1 0x1F DUP10 AND DUP3 PUSH2 0x10C3 JUMP JUMPDEST DUP4 SSTORE POP JUMPDEST PUSH1 0x1 PUSH1 0x2 DUP9 MUL ADD DUP9 SSTORE POP POP POP JUMPDEST POP POP POP POP POP POP JUMP JUMPDEST PUSH2 0x21C4 DUP1 PUSH2 0x11D6 PUSH0 CODECOPY PUSH0 RETURN INVALID PUSH1 0x80 PUSH1 0x40 MSTORE CALLVALUE DUP1 ISZERO PUSH2 0xF JUMPI PUSH0 DUP1 REVERT JUMPDEST POP PUSH1 0x4 CALLDATASIZE LT PUSH2 0x55 JUMPI PUSH0 CALLDATALOAD PUSH1 0xE0 SHR DUP1 PUSH4 0x2B6055DF EQ PUSH2 0x59 JUMPI DUP1 PUSH4 0x4EEE59B3 EQ PUSH2 0x63 JUMPI DUP1 PUSH4 0xB7D0628B EQ PUSH2 0x96 JUMPI DUP1 PUSH4 0xD65AB5F2 EQ PUSH2 0xB7 JUMPI DUP1 PUSH4 0xFC2B8CC3 EQ PUSH2 0xC1 JUMPI JUMPDEST PUSH0 DUP1 REVERT JUMPDEST PUSH2 0x61 PUSH2 0xCB JUMP JUMPDEST STOP JUMPDEST PUSH2 0x7D PUSH1 0x4 DUP1 CALLDATASIZE SUB DUP2 ADD SWAP1 PUSH2 0x78 SWAP2 SWAP1 PUSH2 0x138A JUMP JUMPDEST PUSH2 0x236 JUMP JUMPDEST PUSH1 0x40 MLOAD PUSH2 0x8D SWAP5 SWAP4 SWAP3 SWAP2 SWAP1 PUSH2 0x1449 JUMP JUMPDEST PUSH1 0x40 MLOAD DUP1 SWAP2 SUB SWAP1 RETURN JUMPDEST PUSH2 0x9E PUSH2 0x8B4 JUMP JUMPDEST PUSH1 0x40 MLOAD PUSH2 0xAE SWAP5 SWAP4 SWAP3 SWAP2 SWAP1 PUSH2 0x1449 JUMP JUMPDEST PUSH1 0x40 MLOAD DUP1 SWAP2 SUB SWAP1 RETURN JUMPDEST PUSH2 0xBF PUSH2 0x9EB JUMP JUMPDEST STOP JUMPDEST PUSH2 0xC9 PUSH2 0xE6E JUMP JUMPDEST STOP JUMPDEST PUSH1 0x36 PUSH0 SWAP1 SLOAD SWAP1 PUSH2 0x100 EXP SWAP1 DIV PUSH1 0xFF AND PUSH2 0x119 JUMPI PUSH1 0x40 MLOAD PUSH32 0x8C379A000000000000000000000000000000000000000000000000000000000 DUP2 MSTORE PUSH1 0x4 ADD PUSH2 0x110 SWAP1 PUSH2 0x14EB JUMP JUMPDEST PUSH1 0x40 MLOAD DUP1 SWAP2 SUB SWAP1 REVERT JUMPDEST PUSH1 0x38 SLOAD PUSH1 0x37 SLOAD PUSH2 0x129 SWAP2 SWAP1 PUSH2 0x1536 JUMP JUMPDEST TIMESTAMP GT ISZERO PUSH2 0x1B7 JUMPI PUSH31 0xAF1ADE955695DD7CB8833B69AD71FC489F552ACA5609812E9F4567E5E45088 PUSH1 0x40 MLOAD PUSH2 0x15C SWAP1 PUSH2 0x15B3 JUMP JUMPDEST PUSH1 0x40 MLOAD DUP1 SWAP2 SUB SWAP1 LOG1 PUSH0 PUSH1 0x36 PUSH0 PUSH2 0x100 EXP DUP2 SLOAD DUP2 PUSH1 0xFF MUL NOT AND SWAP1 DUP4 ISZERO ISZERO MUL OR SWAP1 SSTORE POP PUSH32 0x56E3895424A85EF26C4C78D9988DEA28D97C77C140B919289906403E8017170 PUSH1 0x40 MLOAD PUSH2 0x1AA SWAP1 PUSH2 0x1641 JUMP JUMPDEST PUSH1 0x40 MLOAD DUP1 SWAP2 SUB SWAP1 LOG1 PUSH2 0x234 JUMP JUMPDEST PUSH0 TIMESTAMP PUSH1 0x38 SLOAD PUSH1 0x37 SLOAD PUSH2 0x1C9 SWAP2 SWAP1 PUSH2 0x1536 JUMP JUMPDEST PUSH2 0x1D3 SWAP2 SWAP1 PUSH2 0x165F JUMP JUMPDEST SWAP1 POP PUSH31 0xAF1ADE955695DD7CB8833B69AD71FC489F552ACA5609812E9F4567E5E45088 PUSH2 0x1FE DUP3 PUSH2 0xF0C JUMP JUMPDEST PUSH1 0x40 MLOAD PUSH1 0x20 ADD PUSH2 0x20E SWAP2 SWAP1 PUSH2 0x1760 JUMP JUMPDEST PUSH1 0x40 MLOAD PUSH1 0x20 DUP2 DUP4 SUB SUB DUP2 MSTORE SWAP1 PUSH1 0x40 MSTORE PUSH1 0x40 MLOAD PUSH2 0x22A SWAP2 SWAP1 PUSH2 0x178C JUMP JUMPDEST PUSH1 0x40 MLOAD DUP1 SWAP2 SUB SWAP1 LOG1 POP JUMPDEST JUMP JUMPDEST PUSH1 0x60 PUSH0 PUSH1 0x60 DUP1 PUSH0 DUP6 SWAP1 POP PUSH1 0x1 DUP2 MLOAD EQ PUSH2 0x284 JUMPI PUSH1 0x40 MLOAD PUSH32 0x8C379A000000000000000000000000000000000000000000000000000000000 DUP2 MSTORE PUSH1 0x4 ADD PUSH2 0x27B SWAP1 PUSH2 0x17F6 JUMP JUMPDEST PUSH1 0x40 MLOAD DUP1 SWAP2 SUB SWAP1 REVERT JUMPDEST PUSH0 DUP1 PUSH1 0x33 DUP1 SLOAD PUSH2 0x293 SWAP1 PUSH2 0x1841 JUMP JUMPDEST DUP1 PUSH1 0x1F ADD PUSH1 0x20 DUP1 SWAP2 DIV MUL PUSH1 0x20 ADD PUSH1 0x40 MLOAD SWAP1 DUP2 ADD PUSH1 0x40 MSTORE DUP1 SWAP3 SWAP2 SWAP1 DUP2 DUP2 MSTORE PUSH1 0x20 ADD DUP3 DUP1 SLOAD PUSH2 0x2BF SWAP1 PUSH2 0x1841 JUMP JUMPDEST DUP1 ISZERO PUSH2 0x30A JUMPI DUP1 PUSH1 0x1F LT PUSH2 0x2E1 JUMPI PUSH2 0x100 DUP1 DUP4 SLOAD DIV MUL DUP4 MSTORE SWAP2 PUSH1 0x20 ADD SWAP2 PUSH2 0x30A JUMP JUMPDEST DUP3 ADD SWAP2 SWAP1 PUSH0 MSTORE PUSH1 0x20 PUSH0 KECCAK256 SWAP1 JUMPDEST DUP2 SLOAD DUP2 MSTORE SWAP1 PUSH1 0x1 ADD SWAP1 PUSH1 0x20 ADD DUP1 DUP4 GT PUSH2 0x2ED JUMPI DUP3 SWAP1 SUB PUSH1 0x1F AND DUP3 ADD SWAP2 JUMPDEST POP POP POP POP POP SWAP1 POP PUSH0 JUMPDEST PUSH1 0x32 DUP1 SLOAD PUSH2 0x320 SWAP1 PUSH2 0x1841 JUMP JUMPDEST SWAP1 POP DUP2 LT ISZERO PUSH2 0x46D JUMPI DUP4 PUSH0 DUP2 MLOAD DUP2 LT PUSH2 0x33C JUMPI PUSH2 0x33B PUSH2 0x1871 JUMP JUMPDEST JUMPDEST PUSH1 0x20 ADD ADD MLOAD PUSH1 0xF8 SHR PUSH1 0xF8 SHL PUSH31 0xFFFFFFFFFFFFFFFFFFFFFFFFFFFFFFFFFFFFFFFFFFFFFFFFFFFFFFFFFFFFFF NOT AND PUSH1 0x32 DUP3 DUP2 SLOAD PUSH2 0x377 SWAP1 PUSH2 0x1841 JUMP JUMPDEST DUP2 LT PUSH2 0x386 JUMPI PUSH2 0x385 PUSH2 0x1871 JUMP JUMPDEST JUMPDEST DUP2 SLOAD PUSH1 0x1 AND ISZERO PUSH2 0x3A3 JUMPI SWAP1 PUSH0 MSTORE PUSH1 0x20 PUSH0 KECCAK256 SWAP1 PUSH1 0x20 SWAP2 DUP3 DUP3 DIV ADD SWAP2 SWAP1 MOD JUMPDEST SWAP1 SLOAD SWAP1 BYTE PUSH32 0x100000000000000000000000000000000000000000000000000000000000000 MUL PUSH31 0xFFFFFFFFFFFFFFFFFFFFFFFFFFFFFFFFFFFFFFFFFFFFFFFFFFFFFFFFFFFFFF NOT AND SUB PUSH2 0x460 JUMPI DUP4 PUSH0 DUP2 MLOAD DUP2 LT PUSH2 0x403 JUMPI PUSH2 0x402 PUSH2 0x1871 JUMP JUMPDEST JUMPDEST PUSH1 0x20 ADD ADD MLOAD PUSH1 0xF8 SHR PUSH1 0xF8 SHL DUP3 PUSH1 0x2 DUP4 PUSH2 0x41C SWAP2 SWAP1 PUSH2 0x189E JUMP JUMPDEST DUP2 MLOAD DUP2 LT PUSH2 0x42D JUMPI PUSH2 0x42C PUSH2 0x1871 JUMP JUMPDEST JUMPDEST PUSH1 0x20 ADD ADD SWAP1 PUSH31 0xFFFFFFFFFFFFFFFFFFFFFFFFFFFFFFFFFFFFFFFFFFFFFFFFFFFFFFFFFFFFFF NOT AND SWAP1 DUP2 PUSH0 BYTE SWAP1 MSTORE8 POP PUSH1 0x1 SWAP3 POP JUMPDEST DUP1 DUP1 PUSH1 0x1 ADD SWAP2 POP POP PUSH2 0x313 JUMP JUMPDEST POP DUP1 PUSH1 0x33 SWAP1 DUP2 PUSH2 0x47D SWAP2 SWAP1 PUSH2 0x1A7C JUMP JUMPDEST POP DUP2 PUSH2 0x736 JUMPI PUSH2 0x515 PUSH1 0x35 DUP1 SLOAD PUSH2 0x493 SWAP1 PUSH2 0x1841 JUMP JUMPDEST DUP1 PUSH1 0x1F ADD PUSH1 0x20 DUP1 SWAP2 DIV MUL PUSH1 0x20 ADD PUSH1 0x40 MLOAD SWAP1 DUP2 ADD PUSH1 0x40 MSTORE DUP1 SWAP3 SWAP2 SWAP1 DUP2 DUP2 MSTORE PUSH1 0x20 ADD DUP3 DUP1 SLOAD PUSH2 0x4BF SWAP1 PUSH2 0x1841 JUMP JUMPDEST DUP1 ISZERO PUSH2 0x50A JUMPI DUP1 PUSH1 0x1F LT PUSH2 0x4E1 JUMPI PUSH2 0x100 DUP1 DUP4 SLOAD DIV MUL DUP4 MSTORE SWAP2 PUSH1 0x20 ADD SWAP2 PUSH2 0x50A JUMP JUMPDEST DUP3 ADD SWAP2 SWAP1 PUSH0 MSTORE PUSH1 0x20 PUSH0 KECCAK256 SWAP1 JUMPDEST DUP2 SLOAD DUP2 MSTORE SWAP1 PUSH1 0x1 ADD SWAP1 PUSH1 0x20 ADD DUP1 DUP4 GT PUSH2 0x4ED JUMPI DUP3 SWAP1 SUB PUSH1 0x1F AND DUP3 ADD SWAP2 JUMPDEST POP POP POP POP POP DUP10 PUSH2 0x1064 JUMP JUMPDEST PUSH2 0x54C JUMPI PUSH1 0x35 DUP9 PUSH1 0x40 MLOAD PUSH1 0x20 ADD PUSH2 0x52D SWAP3 SWAP2 SWAP1 PUSH2 0x1C15 JUMP JUMPDEST PUSH1 0x40 MLOAD PUSH1 0x20 DUP2 DUP4 SUB SUB DUP2 MSTORE SWAP1 PUSH1 0x40 MSTORE PUSH1 0x35 SWAP1 DUP2 PUSH2 0x54A SWAP2 SWAP1 PUSH2 0x1A7C JUMP JUMPDEST POP JUMPDEST PUSH1 0x34 PUSH0 DUP2 SLOAD DUP1 SWAP3 SWAP2 SWAP1 PUSH2 0x55E SWAP1 PUSH2 0x1C43 JUMP JUMPDEST SWAP2 SWAP1 POP SSTORE POP PUSH0 PUSH1 0x34 SLOAD SUB PUSH2 0x735 JUMPI PUSH0 PUSH1 0x36 PUSH0 PUSH2 0x100 EXP DUP2 SLOAD DUP2 PUSH1 0xFF MUL NOT AND SWAP1 DUP4 ISZERO ISZERO MUL OR SWAP1 SSTORE POP PUSH32 0x1512161B9F23A85FD9CCEC12D9CD3ABEB7333BF293DC69250460C4C054A27FC6 PUSH1 0x33 PUSH1 0x34 SLOAD PUSH1 0x35 PUSH2 0x5B5 PUSH2 0x118C JUMP JUMPDEST PUSH1 0x40 MLOAD PUSH2 0x5C5 SWAP5 SWAP4 SWAP3 SWAP2 SWAP1 PUSH2 0x1CEB JUMP JUMPDEST PUSH1 0x40 MLOAD DUP1 SWAP2 SUB SWAP1 LOG1 PUSH32 0x56E3895424A85EF26C4C78D9988DEA28D97C77C140B919289906403E8017170 PUSH1 0x40 MLOAD PUSH2 0x5FA SWAP1 PUSH2 0x1DB3 JUMP JUMPDEST PUSH1 0x40 MLOAD DUP1 SWAP2 SUB SWAP1 LOG1 PUSH1 0x33 PUSH1 0x34 SLOAD PUSH1 0x35 PUSH2 0x611 PUSH2 0x118C JUMP JUMPDEST DUP4 DUP1 SLOAD PUSH2 0x61D SWAP1 PUSH2 0x1841 JUMP JUMPDEST DUP1 PUSH1 0x1F ADD PUSH1 0x20 DUP1 SWAP2 DIV MUL PUSH1 0x20 ADD PUSH1 0x40 MLOAD SWAP1 DUP2 ADD PUSH1 0x40 MSTORE DUP1 SWAP3 SWAP2 SWAP1 DUP2 DUP2 MSTORE PUSH1 0x20 ADD DUP3 DUP1 SLOAD PUSH2 0x649 SWAP1 PUSH2 0x1841 JUMP JUMPDEST DUP1 ISZERO PUSH2 0x694 JUMPI DUP1 PUSH1 0x1F LT PUSH2 0x66B JUMPI PUSH2 0x100 DUP1 DUP4 SLOAD DIV MUL DUP4 MSTORE SWAP2 PUSH1 0x20 ADD SWAP2 PUSH2 0x694 JUMP JUMPDEST DUP3 ADD SWAP2 SWAP1 PUSH0 MSTORE PUSH1 0x20 PUSH0 KECCAK256 SWAP1 JUMPDEST DUP2 SLOAD DUP2 MSTORE SWAP1 PUSH1 0x1 ADD SWAP1 PUSH1 0x20 ADD DUP1 DUP4 GT PUSH2 0x677 JUMPI DUP3 SWAP1 SUB PUSH1 0x1F AND DUP3 ADD SWAP2 JUMPDEST POP POP POP POP POP SWAP4 POP DUP2 DUP1 SLOAD PUSH2 0x6A7 SWAP1 PUSH2 0x1841 JUMP JUMPDEST DUP1 PUSH1 0x1F ADD PUSH1 0x20 DUP1 SWAP2 DIV MUL PUSH1 0x20 ADD PUSH1 0x40 MLOAD SWAP1 DUP2 ADD PUSH1 0x40 MSTORE DUP1 SWAP3 SWAP2 SWAP1 DUP2 DUP2 MSTORE PUSH1 0x20 ADD DUP3 DUP1 SLOAD PUSH2 0x6D3 SWAP1 PUSH2 0x1841 JUMP JUMPDEST DUP1 ISZERO PUSH2 0x71E JUMPI DUP1 PUSH1 0x1F LT PUSH2 0x6F5 JUMPI PUSH2 0x100 DUP1 DUP4 SLOAD DIV MUL DUP4 MSTORE SWAP2 PUSH1 0x20 ADD SWAP2 PUSH2 0x71E JUMP JUMPDEST DUP3 ADD SWAP2 SWAP1 PUSH0 MSTORE PUSH1 0x20 PUSH0 KECCAK256 SWAP1 JUMPDEST DUP2 SLOAD DUP2 MSTORE SWAP1 PUSH1 0x1 ADD SWAP1 PUSH1 0x20 ADD DUP1 DUP4 GT PUSH2 0x701 JUMPI DUP3 SWAP1 SUB PUSH1 0x1F AND DUP3 ADD SWAP2 JUMPDEST POP POP POP POP POP SWAP2 POP SWAP7 POP SWAP7 POP SWAP7 POP SWAP7 POP POP POP POP PUSH2 0x8AD JUMP JUMPDEST JUMPDEST PUSH32 0x1512161B9F23A85FD9CCEC12D9CD3ABEB7333BF293DC69250460C4C054A27FC6 PUSH1 0x33 PUSH1 0x34 SLOAD PUSH1 0x35 PUSH2 0x766 PUSH2 0x118C JUMP JUMPDEST PUSH1 0x40 MLOAD PUSH2 0x776 SWAP5 SWAP4 SWAP3 SWAP2 SWAP1 PUSH2 0x1CEB JUMP JUMPDEST PUSH1 0x40 MLOAD DUP1 SWAP2 SUB SWAP1 LOG1 PUSH1 0x33 PUSH1 0x34 SLOAD PUSH1 0x35 PUSH2 0x78D PUSH2 0x118C JUMP JUMPDEST DUP4 DUP1 SLOAD PUSH2 0x799 SWAP1 PUSH2 0x1841 JUMP JUMPDEST DUP1 PUSH1 0x1F ADD PUSH1 0x20 DUP1 SWAP2 DIV MUL PUSH1 0x20 ADD PUSH1 0x40 MLOAD SWAP1 DUP2 ADD PUSH1 0x40 MSTORE DUP1 SWAP3 SWAP2 SWAP1 DUP2 DUP2 MSTORE PUSH1 0x20 ADD DUP3 DUP1 SLOAD PUSH2 0x7C5 SWAP1 PUSH2 0x1841 JUMP JUMPDEST DUP1 ISZERO PUSH2 0x810 JUMPI DUP1 PUSH1 0x1F LT PUSH2 0x7E7 JUMPI PUSH2 0x100 DUP1 DUP4 SLOAD DIV MUL DUP4 MSTORE SWAP2 PUSH1 0x20 ADD SWAP2 PUSH2 0x810 JUMP JUMPDEST DUP3 ADD SWAP2 SWAP1 PUSH0 MSTORE PUSH1 0x20 PUSH0 KECCAK256 SWAP1 JUMPDEST DUP2 SLOAD DUP2 MSTORE SWAP1 PUSH1 0x1 ADD SWAP1 PUSH1 0x20 ADD DUP1 DUP4 GT PUSH2 0x7F3 JUMPI DUP3 SWAP1 SUB PUSH1 0x1F AND DUP3 ADD SWAP2 JUMPDEST POP POP POP POP POP SWAP4 POP DUP2 DUP1 SLOAD PUSH2 0x823 SWAP1 PUSH2 0x1841 JUMP JUMPDEST DUP1 PUSH1 0x1F ADD PUSH1 0x20 DUP1 SWAP2 DIV MUL PUSH1 0x20 ADD PUSH1 0x40 MLOAD SWAP1 DUP2 ADD PUSH1 0x40 MSTORE DUP1 SWAP3 SWAP2 SWAP1 DUP2 DUP2 MSTORE PUSH1 0x20 ADD DUP3 DUP1 SLOAD PUSH2 0x84F SWAP1 PUSH2 0x1841 JUMP JUMPDEST DUP1 ISZERO PUSH2 0x89A JUMPI DUP1 PUSH1 0x1F LT PUSH2 0x871 JUMPI PUSH2 0x100 DUP1 DUP4 SLOAD DIV MUL DUP4 MSTORE SWAP2 PUSH1 0x20 ADD SWAP2 PUSH2 0x89A JUMP JUMPDEST DUP3 ADD SWAP2 SWAP1 PUSH0 MSTORE PUSH1 0x20 PUSH0 KECCAK256 SWAP1 JUMPDEST DUP2 SLOAD DUP2 MSTORE SWAP1 PUSH1 0x1 ADD SWAP1 PUSH1 0x20 ADD DUP1 DUP4 GT PUSH2 0x87D JUMPI DUP3 SWAP1 SUB PUSH1 0x1F AND DUP3 ADD SWAP2 JUMPDEST POP POP POP POP POP SWAP2 POP SWAP7 POP SWAP7 POP SWAP7 POP SWAP7 POP POP POP POP JUMPDEST SWAP2 SWAP4 POP SWAP2 SWAP4 JUMP JUMPDEST PUSH1 0x60 PUSH0 PUSH1 0x60 DUP1 PUSH1 0x33 PUSH1 0x34 SLOAD PUSH1 0x35 PUSH2 0x8C9 PUSH2 0x118C JUMP JUMPDEST DUP4 DUP1 SLOAD PUSH2 0x8D5 SWAP1 PUSH2 0x1841 JUMP JUMPDEST DUP1 PUSH1 0x1F ADD PUSH1 0x20 DUP1 SWAP2 DIV MUL PUSH1 0x20 ADD PUSH1 0x40 MLOAD SWAP1 DUP2 ADD PUSH1 0x40 MSTORE DUP1 SWAP3 SWAP2 SWAP1 DUP2 DUP2 MSTORE PUSH1 0x20 ADD DUP3 DUP1 SLOAD PUSH2 0x901 SWAP1 PUSH2 0x1841 JUMP JUMPDEST DUP1 ISZERO PUSH2 0x94C JUMPI DUP1 PUSH1 0x1F LT PUSH2 0x923 JUMPI PUSH2 0x100 DUP1 DUP4 SLOAD DIV MUL DUP4 MSTORE SWAP2 PUSH1 0x20 ADD SWAP2 PUSH2 0x94C JUMP JUMPDEST DUP3 ADD SWAP2 SWAP1 PUSH0 MSTORE PUSH1 0x20 PUSH0 KECCAK256 SWAP1 JUMPDEST DUP2 SLOAD DUP2 MSTORE SWAP1 PUSH1 0x1 ADD SWAP1 PUSH1 0x20 ADD DUP1 DUP4 GT PUSH2 0x92F JUMPI DUP3 SWAP1 SUB PUSH1 0x1F AND DUP3 ADD SWAP2 JUMPDEST POP POP POP POP POP SWAP4 POP DUP2 DUP1 SLOAD PUSH2 0x95F SWAP1 PUSH2 0x1841 JUMP JUMPDEST DUP1 PUSH1 0x1F ADD PUSH1 0x20 DUP1 SWAP2 DIV MUL PUSH1 0x20 ADD PUSH1 0x40 MLOAD SWAP1 DUP2 ADD PUSH1 0x40 MSTORE DUP1 SWAP3 SWAP2 SWAP1 DUP2 DUP2 MSTORE PUSH1 0x20 ADD DUP3 DUP1 SLOAD PUSH2 0x98B SWAP1 PUSH2 0x1841 JUMP JUMPDEST DUP1 ISZERO PUSH2 0x9D6 JUMPI DUP1 PUSH1 0x1F LT PUSH2 0x9AD JUMPI PUSH2 0x100 DUP1 DUP4 SLOAD DIV MUL DUP4 MSTORE SWAP2 PUSH1 0x20 ADD SWAP2 PUSH2 0x9D6 JUMP JUMPDEST DUP3 ADD SWAP2 SWAP1 PUSH0 MSTORE PUSH1 0x20 PUSH0 KECCAK256 SWAP1 JUMPDEST DUP2 SLOAD DUP2 MSTORE SWAP1 PUSH1 0x1 ADD SWAP1 PUSH1 0x20 ADD DUP1 DUP4 GT PUSH2 0x9B9 JUMPI DUP3 SWAP1 SUB PUSH1 0x1F AND DUP3 ADD SWAP2 JUMPDEST POP POP POP POP POP SWAP2 POP SWAP4 POP SWAP4 POP SWAP4 POP SWAP4 POP SWAP1 SWAP2 SWAP3 SWAP4 JUMP JUMPDEST PUSH1 0x36 PUSH0 SWAP1 SLOAD SWAP1 PUSH2 0x100 EXP SWAP1 DIV PUSH1 0xFF AND ISZERO PUSH2 0xA3A JUMPI PUSH1 0x40 MLOAD PUSH32 0x8C379A000000000000000000000000000000000000000000000000000000000 DUP2 MSTORE PUSH1 0x4 ADD PUSH2 0xA31 SWAP1 PUSH2 0x1E41 JUMP JUMPDEST PUSH1 0x40 MLOAD DUP1 SWAP2 SUB SWAP1 REVERT JUMPDEST PUSH1 0x1 PUSH1 0x36 PUSH0 PUSH2 0x100 EXP DUP2 SLOAD DUP2 PUSH1 0xFF MUL NOT AND SWAP1 DUP4 ISZERO ISZERO MUL OR SWAP1 SSTORE POP TIMESTAMP PUSH1 0x37 DUP2 SWAP1 SSTORE POP PUSH32 0xA2DFAA3573B86004EC9D4D4ABE5068D942579C59DA4DA8CD0D9E45E71A393BC1 PUSH1 0x37 SLOAD PUSH1 0x38 SLOAD PUSH1 0x40 MLOAD PUSH2 0xA90 SWAP3 SWAP2 SWAP1 PUSH2 0x1E5F JUMP JUMPDEST PUSH1 0x40 MLOAD DUP1 SWAP2 SUB SWAP1 LOG1 PUSH0 PUSH1 0x32 TIMESTAMP CALLER PUSH1 0x40 MLOAD PUSH1 0x20 ADD PUSH2 0xAAE SWAP3 SWAP2 SWAP1 PUSH2 0x1F1B JUMP JUMPDEST PUSH1 0x40 MLOAD PUSH1 0x20 DUP2 DUP4 SUB SUB DUP2 MSTORE SWAP1 PUSH1 0x40 MSTORE DUP1 MLOAD SWAP1 PUSH1 0x20 ADD KECCAK256 PUSH0 SHR PUSH2 0xAD0 SWAP2 SWAP1 PUSH2 0x1F73 JUMP JUMPDEST SWAP1 POP PUSH0 DUP2 PUSH1 0x32 DUP2 LT PUSH2 0xAE5 JUMPI PUSH2 0xAE4 PUSH2 0x1871 JUMP JUMPDEST JUMPDEST ADD PUSH1 0x32 SWAP1 DUP2 PUSH2 0xAF4 SWAP2 SWAP1 PUSH2 0x1FCA JUMP JUMPDEST POP PUSH0 PUSH1 0x32 DUP1 SLOAD PUSH2 0xB03 SWAP1 PUSH2 0x1841 JUMP JUMPDEST DUP1 PUSH1 0x1F ADD PUSH1 0x20 DUP1 SWAP2 DIV MUL PUSH1 0x20 ADD PUSH1 0x40 MLOAD SWAP1 DUP2 ADD PUSH1 0x40 MSTORE DUP1 SWAP3 SWAP2 SWAP1 DUP2 DUP2 MSTORE PUSH1 0x20 ADD DUP3 DUP1 SLOAD PUSH2 0xB2F SWAP1 PUSH2 0x1841 JUMP JUMPDEST DUP1 ISZERO PUSH2 0xB7A JUMPI DUP1 PUSH1 0x1F LT PUSH2 0xB51 JUMPI PUSH2 0x100 DUP1 DUP4 SLOAD DIV MUL DUP4 MSTORE SWAP2 PUSH1 0x20 ADD SWAP2 PUSH2 0xB7A JUMP JUMPDEST DUP3 ADD SWAP2 SWAP1 PUSH0 MSTORE PUSH1 0x20 PUSH0 KECCAK256 SWAP1 JUMPDEST DUP2 SLOAD DUP2 MSTORE SWAP1 PUSH1 0x1 ADD SWAP1 PUSH1 0x20 ADD DUP1 DUP4 GT PUSH2 0xB5D JUMPI DUP3 SWAP1 SUB PUSH1 0x1F AND DUP3 ADD SWAP2 JUMPDEST POP POP POP POP POP SWAP1 POP PUSH0 PUSH1 0x2 DUP3 MLOAD PUSH2 0xB90 SWAP2 SWAP1 PUSH2 0x189E JUMP JUMPDEST PUSH8 0xFFFFFFFFFFFFFFFF DUP2 GT ISZERO PUSH2 0xBA9 JUMPI PUSH2 0xBA8 PUSH2 0x1266 JUMP JUMPDEST JUMPDEST PUSH1 0x40 MLOAD SWAP1 DUP1 DUP3 MSTORE DUP1 PUSH1 0x1F ADD PUSH1 0x1F NOT AND PUSH1 0x20 ADD DUP3 ADD PUSH1 0x40 MSTORE DUP1 ISZERO PUSH2 0xBDB JUMPI DUP2 PUSH1 0x20 ADD PUSH1 0x1 DUP3 MUL DUP1 CALLDATASIZE DUP4 CALLDATACOPY DUP1 DUP3 ADD SWAP2 POP POP SWAP1 POP JUMPDEST POP SWAP1 POP PUSH1 0x40 MLOAD DUP1 PUSH1 0x20 ADD PUSH1 0x40 MSTORE DUP1 PUSH0 DUP2 MSTORE POP PUSH1 0x35 SWAP1 DUP2 PUSH2 0xBFB SWAP2 SWAP1 PUSH2 0x1A7C JUMP JUMPDEST POP PUSH1 0x7 PUSH1 0x34 DUP2 SWAP1 SSTORE POP PUSH0 JUMPDEST DUP3 MLOAD DUP2 LT ISZERO PUSH2 0xE58 JUMPI PUSH32 0x2000000000000000000000000000000000000000000000000000000000000000 DUP4 DUP3 DUP2 MLOAD DUP2 LT PUSH2 0xC43 JUMPI PUSH2 0xC42 PUSH2 0x1871 JUMP JUMPDEST JUMPDEST PUSH1 0x20 ADD ADD MLOAD PUSH1 0xF8 SHR PUSH1 0xF8 SHL PUSH31 0xFFFFFFFFFFFFFFFFFFFFFFFFFFFFFFFFFFFFFFFFFFFFFFFFFFFFFFFFFFFFFF NOT AND SUB PUSH2 0xD62 JUMPI PUSH32 0x7C00000000000000000000000000000000000000000000000000000000000000 DUP3 PUSH1 0x2 DUP4 PUSH2 0xCA4 SWAP2 SWAP1 PUSH2 0x189E JUMP JUMPDEST DUP2 MLOAD DUP2 LT PUSH2 0xCB5 JUMPI PUSH2 0xCB4 PUSH2 0x1871 JUMP JUMPDEST JUMPDEST PUSH1 0x20 ADD ADD SWAP1 PUSH31 0xFFFFFFFFFFFFFFFFFFFFFFFFFFFFFFFFFFFFFFFFFFFFFFFFFFFFFFFFFFFFFF NOT AND SWAP1 DUP2 PUSH0 BYTE SWAP1 MSTORE8 POP PUSH32 0x7C00000000000000000000000000000000000000000000000000000000000000 DUP3 PUSH1 0x1 PUSH1 0x2 DUP5 PUSH2 0xD14 SWAP2 SWAP1 PUSH2 0x189E JUMP JUMPDEST PUSH2 0xD1E SWAP2 SWAP1 PUSH2 0x1536 JUMP JUMPDEST DUP2 MLOAD DUP2 LT PUSH2 0xD2F JUMPI PUSH2 0xD2E PUSH2 0x1871 JUMP JUMPDEST JUMPDEST PUSH1 0x20 ADD ADD SWAP1 PUSH31 0xFFFFFFFFFFFFFFFFFFFFFFFFFFFFFFFFFFFFFFFFFFFFFFFFFFFFFFFFFFFFFF NOT AND SWAP1 DUP2 PUSH0 BYTE SWAP1 MSTORE8 POP PUSH2 0xE4B JUMP JUMPDEST PUSH32 0x5F00000000000000000000000000000000000000000000000000000000000000 DUP3 PUSH1 0x2 DUP4 PUSH2 0xD91 SWAP2 SWAP1 PUSH2 0x189E JUMP JUMPDEST DUP2 MLOAD DUP2 LT PUSH2 0xDA2 JUMPI PUSH2 0xDA1 PUSH2 0x1871 JUMP JUMPDEST JUMPDEST PUSH1 0x20 ADD ADD SWAP1 PUSH31 0xFFFFFFFFFFFFFFFFFFFFFFFFFFFFFFFFFFFFFFFFFFFFFFFFFFFFFFFFFFFFFF NOT AND SWAP1 DUP2 PUSH0 BYTE SWAP1 MSTORE8 POP PUSH32 0x2000000000000000000000000000000000000000000000000000000000000000 DUP3 PUSH1 0x1 PUSH1 0x2 DUP5 PUSH2 0xE01 SWAP2 SWAP1 PUSH2 0x189E JUMP JUMPDEST PUSH2 0xE0B SWAP2 SWAP1 PUSH2 0x1536 JUMP JUMPDEST DUP2 MLOAD DUP2 LT PUSH2 0xE1C JUMPI PUSH2 0xE1B PUSH2 0x1871 JUMP JUMPDEST JUMPDEST PUSH1 0x20 ADD ADD SWAP1 PUSH31 0xFFFFFFFFFFFFFFFFFFFFFFFFFFFFFFFFFFFFFFFFFFFFFFFFFFFFFFFFFFFFFF NOT AND SWAP1 DUP2 PUSH0 BYTE SWAP1 MSTORE8 POP JUMPDEST DUP1 DUP1 PUSH1 0x1 ADD SWAP2 POP POP PUSH2 0xC06 JUMP JUMPDEST POP DUP1 PUSH1 0x33 SWAP1 DUP2 PUSH2 0xE68 SWAP2 SWAP1 PUSH2 0x1A7C JUMP JUMPDEST POP POP POP POP JUMP JUMPDEST PUSH1 0x36 PUSH0 SWAP1 SLOAD SWAP1 PUSH2 0x100 EXP SWAP1 DIV PUSH1 0xFF AND PUSH2 0xEBC JUMPI PUSH1 0x40 MLOAD PUSH32 0x8C379A000000000000000000000000000000000000000000000000000000000 DUP2 MSTORE PUSH1 0x4 ADD PUSH2 0xEB3 SWAP1 PUSH2 0x14EB JUMP JUMPDEST PUSH1 0x40 MLOAD DUP1 SWAP2 SUB SWAP1 REVERT JUMPDEST PUSH0 PUSH1 0x36 PUSH0 PUSH2 0x100 EXP DUP2 SLOAD DUP2 PUSH1 0xFF MUL NOT AND SWAP1 DUP4 ISZERO ISZERO MUL OR SWAP1 SSTORE POP PUSH32 0x56E3895424A85EF26C4C78D9988DEA28D97C77C140B919289906403E8017170 PUSH1 0x40 MLOAD PUSH2 0xF02 SWAP1 PUSH2 0x20F9 JUMP JUMPDEST PUSH1 0x40 MLOAD DUP1 SWAP2 SUB SWAP1 LOG1 JUMP JUMPDEST PUSH1 0x60 PUSH0 DUP3 SUB PUSH2 0xF52 JUMPI PUSH1 0x40 MLOAD DUP1 PUSH1 0x40 ADD PUSH1 0x40 MSTORE DUP1 PUSH1 0x1 DUP2 MSTORE PUSH1 0x20 ADD PUSH32 0x3000000000000000000000000000000000000000000000000000000000000000 DUP2 MSTORE POP SWAP1 POP PUSH2 0x105F JUMP JUMPDEST PUSH0 DUP3 SWAP1 POP PUSH0 JUMPDEST PUSH0 DUP3 EQ PUSH2 0xF81 JUMPI DUP1 DUP1 PUSH2 0xF6A SWAP1 PUSH2 0x2117 JUMP JUMPDEST SWAP2 POP POP PUSH1 0xA DUP3 PUSH2 0xF7A SWAP2 SWAP1 PUSH2 0x215E JUMP JUMPDEST SWAP2 POP PUSH2 0xF58 JUMP JUMPDEST PUSH0 DUP2 PUSH8 0xFFFFFFFFFFFFFFFF DUP2 GT ISZERO PUSH2 0xF9C JUMPI PUSH2 0xF9B PUSH2 0x1266 JUMP JUMPDEST JUMPDEST PUSH1 0x40 MLOAD SWAP1 DUP1 DUP3 MSTORE DUP1 PUSH1 0x1F ADD PUSH1 0x1F NOT AND PUSH1 0x20 ADD DUP3 ADD PUSH1 0x40 MSTORE DUP1 ISZERO PUSH2 0xFCE JUMPI DUP2 PUSH1 0x20 ADD PUSH1 0x1 DUP3 MUL DUP1 CALLDATASIZE DUP4 CALLDATACOPY DUP1 DUP3 ADD SWAP2 POP POP SWAP1 POP JUMPDEST POP SWAP1 POP JUMPDEST PUSH0 DUP6 EQ PUSH2 0x1058 JUMPI DUP2 DUP1 PUSH2 0xFE4 SWAP1 PUSH2 0x1C43 JUMP JUMPDEST SWAP3 POP POP PUSH1 0xA DUP6 PUSH2 0xFF4 SWAP2 SWAP1 PUSH2 0x1F73 JUMP JUMPDEST PUSH1 0x30 PUSH2 0x1000 SWAP2 SWAP1 PUSH2 0x1536 JUMP JUMPDEST PUSH1 0xF8 SHL DUP2 DUP4 DUP2 MLOAD DUP2 LT PUSH2 0x1016 JUMPI PUSH2 0x1015 PUSH2 0x1871 JUMP JUMPDEST JUMPDEST PUSH1 0x20 ADD ADD SWAP1 PUSH31 0xFFFFFFFFFFFFFFFFFFFFFFFFFFFFFFFFFFFFFFFFFFFFFFFFFFFFFFFFFFFFFF NOT AND SWAP1 DUP2 PUSH0 BYTE SWAP1 MSTORE8 POP PUSH1 0xA DUP6 PUSH2 0x1051 SWAP2 SWAP1 PUSH2 0x215E JUMP JUMPDEST SWAP5 POP PUSH2 0xFD2 JUMP JUMPDEST DUP1 SWAP4 POP POP POP POP JUMPDEST SWAP2 SWAP1 POP JUMP JUMPDEST PUSH0 DUP1 DUP4 SWAP1 POP PUSH0 DUP4 SWAP1 POP PUSH0 DUP2 MLOAD EQ DUP1 PUSH2 0x107D JUMPI POP DUP1 MLOAD DUP3 MLOAD LT JUMPDEST ISZERO PUSH2 0x108C JUMPI PUSH0 SWAP3 POP POP POP PUSH2 0x1186 JUMP JUMPDEST PUSH0 JUMPDEST DUP2 MLOAD DUP4 MLOAD PUSH2 0x109C SWAP2 SWAP1 PUSH2 0x165F JUMP JUMPDEST DUP2 GT PUSH2 0x117F JUMPI PUSH0 PUSH1 0x1 SWAP1 POP PUSH0 JUMPDEST DUP4 MLOAD DUP2 LT ISZERO PUSH2 0x1157 JUMPI DUP4 DUP2 DUP2 MLOAD DUP2 LT PUSH2 0x10C5 JUMPI PUSH2 0x10C4 PUSH2 0x1871 JUMP JUMPDEST JUMPDEST PUSH1 0x20 ADD ADD MLOAD PUSH1 0xF8 SHR PUSH1 0xF8 SHL PUSH31 0xFFFFFFFFFFFFFFFFFFFFFFFFFFFFFFFFFFFFFFFFFFFFFFFFFFFFFFFFFFFFFF NOT AND DUP6 DUP3 DUP6 PUSH2 0x10FF SWAP2 SWAP1 PUSH2 0x1536 JUMP JUMPDEST DUP2 MLOAD DUP2 LT PUSH2 0x1110 JUMPI PUSH2 0x110F PUSH2 0x1871 JUMP JUMPDEST JUMPDEST PUSH1 0x20 ADD ADD MLOAD PUSH1 0xF8 SHR PUSH1 0xF8 SHL PUSH31 0xFFFFFFFFFFFFFFFFFFFFFFFFFFFFFFFFFFFFFFFFFFFFFFFFFFFFFFFFFFFFFF NOT AND EQ PUSH2 0x114A JUMPI PUSH0 SWAP2 POP PUSH2 0x1157 JUMP JUMPDEST DUP1 DUP1 PUSH1 0x1 ADD SWAP2 POP POP PUSH2 0x10A9 JUMP JUMPDEST POP DUP1 ISZERO PUSH2 0x116B JUMPI PUSH1 0x1 SWAP5 POP POP POP POP POP PUSH2 0x1186 JUMP JUMPDEST POP DUP1 DUP1 PUSH2 0x1177 SWAP1 PUSH2 0x2117 JUMP JUMPDEST SWAP2 POP POP PUSH2 0x108E JUMP JUMPDEST POP PUSH0 SWAP3 POP POP POP JUMPDEST SWAP3 SWAP2 POP POP JUMP JUMPDEST PUSH1 0x60 PUSH1 0x39 PUSH1 0x34 SLOAD PUSH1 0x7 PUSH2 0x119F SWAP2 SWAP1 PUSH2 0x165F JUMP JUMPDEST PUSH1 0x8 DUP2 LT PUSH2 0x11B0 JUMPI PUSH2 0x11AF PUSH2 0x1871 JUMP JUMPDEST JUMPDEST ADD DUP1 SLOAD PUSH2 0x11BC SWAP1 PUSH2 0x1841 JUMP JUMPDEST DUP1 PUSH1 0x1F ADD PUSH1 0x20 DUP1 SWAP2 DIV MUL PUSH1 0x20 ADD PUSH1 0x40 MLOAD SWAP1 DUP2 ADD PUSH1 0x40 MSTORE DUP1 SWAP3 SWAP2 SWAP1 DUP2 DUP2 MSTORE PUSH1 0x20 ADD DUP3 DUP1 SLOAD PUSH2 0x11E8 SWAP1 PUSH2 0x1841 JUMP JUMPDEST DUP1 ISZERO PUSH2 0x1233 JUMPI DUP1 PUSH1 0x1F LT PUSH2 0x120A JUMPI PUSH2 0x100 DUP1 DUP4 SLOAD DIV MUL DUP4 MSTORE SWAP2 PUSH1 0x20 ADD SWAP2 PUSH2 0x1233 JUMP JUMPDEST DUP3 ADD SWAP2 SWAP1 PUSH0 MSTORE PUSH1 0x20 PUSH0 KECCAK256 SWAP1 JUMPDEST DUP2 SLOAD DUP2 MSTORE SWAP1 PUSH1 0x1 ADD SWAP1 PUSH1 0x20 ADD DUP1 DUP4 GT PUSH2 0x1216 JUMPI DUP3 SWAP1 SUB PUSH1 0x1F AND DUP3 ADD SWAP2 JUMPDEST POP POP POP POP POP SWAP1 POP SWAP1 JUMP JUMPDEST PUSH0 PUSH1 0x40 MLOAD SWAP1 POP SWAP1 JUMP JUMPDEST PUSH0 DUP1 REVERT JUMPDEST PUSH0 DUP1 REVERT JUMPDEST PUSH0 DUP1 REVERT JUMPDEST PUSH0 DUP1 REVERT JUMPDEST PUSH0 PUSH1 0x1F NOT PUSH1 0x1F DUP4 ADD AND SWAP1 POP SWAP2 SWAP1 POP JUMP JUMPDEST PUSH32 0x4E487B7100000000000000000000000000000000000000000000000000000000 PUSH0 MSTORE PUSH1 0x41 PUSH1 0x4 MSTORE PUSH1 0x24 PUSH0 REVERT JUMPDEST PUSH2 0x129C DUP3 PUSH2 0x1256 JUMP JUMPDEST DUP2 ADD DUP2 DUP2 LT PUSH8 0xFFFFFFFFFFFFFFFF DUP3 GT OR ISZERO PUSH2 0x12BB JUMPI PUSH2 0x12BA PUSH2 0x1266 JUMP JUMPDEST JUMPDEST DUP1 PUSH1 0x40 MSTORE POP POP POP JUMP JUMPDEST PUSH0 PUSH2 0x12CD PUSH2 0x123D JUMP JUMPDEST SWAP1 POP PUSH2 0x12D9 DUP3 DUP3 PUSH2 0x1293 JUMP JUMPDEST SWAP2 SWAP1 POP JUMP JUMPDEST PUSH0 PUSH8 0xFFFFFFFFFFFFFFFF DUP3 GT ISZERO PUSH2 0x12F8 JUMPI PUSH2 0x12F7 PUSH2 0x1266 JUMP JUMPDEST JUMPDEST PUSH2 0x1301 DUP3 PUSH2 0x1256 JUMP JUMPDEST SWAP1 POP PUSH1 0x20 DUP2 ADD SWAP1 POP SWAP2 SWAP1 POP JUMP JUMPDEST DUP3 DUP2 DUP4 CALLDATACOPY PUSH0 DUP4 DUP4 ADD MSTORE POP POP POP JUMP JUMPDEST PUSH0 PUSH2 0x132E PUSH2 0x1329 DUP5 PUSH2 0x12DE JUMP JUMPDEST PUSH2 0x12C4 JUMP JUMPDEST SWAP1 POP DUP3 DUP2 MSTORE PUSH1 0x20 DUP2 ADD DUP5 DUP5 DUP5 ADD GT ISZERO PUSH2 0x134A JUMPI PUSH2 0x1349 PUSH2 0x1252 JUMP JUMPDEST JUMPDEST PUSH2 0x1355 DUP5 DUP3 DUP6 PUSH2 0x130E JUMP JUMPDEST POP SWAP4 SWAP3 POP POP POP JUMP JUMPDEST PUSH0 DUP3 PUSH1 0x1F DUP4 ADD SLT PUSH2 0x1371 JUMPI PUSH2 0x1370 PUSH2 0x124E JUMP JUMPDEST JUMPDEST DUP2 CALLDATALOAD PUSH2 0x1381 DUP5 DUP3 PUSH1 0x20 DUP7 ADD PUSH2 0x131C JUMP JUMPDEST SWAP2 POP POP SWAP3 SWAP2 POP POP JUMP JUMPDEST PUSH0 PUSH1 0x20 DUP3 DUP5 SUB SLT ISZERO PUSH2 0x139F JUMPI PUSH2 0x139E PUSH2 0x1246 JUMP JUMPDEST JUMPDEST PUSH0 DUP3 ADD CALLDATALOAD PUSH8 0xFFFFFFFFFFFFFFFF DUP2 GT ISZERO PUSH2 0x13BC JUMPI PUSH2 0x13BB PUSH2 0x124A JUMP JUMPDEST JUMPDEST PUSH2 0x13C8 DUP5 DUP3 DUP6 ADD PUSH2 0x135D JUMP JUMPDEST SWAP2 POP POP SWAP3 SWAP2 POP POP JUMP JUMPDEST PUSH0 DUP2 MLOAD SWAP1 POP SWAP2 SWAP1 POP JUMP JUMPDEST PUSH0 DUP3 DUP3 MSTORE PUSH1 0x20 DUP3 ADD SWAP1 POP SWAP3 SWAP2 POP POP JUMP JUMPDEST DUP3 DUP2 DUP4 MCOPY PUSH0 DUP4 DUP4 ADD MSTORE POP POP POP JUMP JUMPDEST PUSH0 PUSH2 0x1403 DUP3 PUSH2 0x13D1 JUMP JUMPDEST PUSH2 0x140D DUP2 DUP6 PUSH2 0x13DB JUMP JUMPDEST SWAP4 POP PUSH2 0x141D DUP2 DUP6 PUSH1 0x20 DUP7 ADD PUSH2 0x13EB JUMP JUMPDEST PUSH2 0x1426 DUP2 PUSH2 0x1256 JUMP JUMPDEST DUP5 ADD SWAP2 POP POP SWAP3 SWAP2 POP POP JUMP JUMPDEST PUSH0 DUP2 SWAP1 POP SWAP2 SWAP1 POP JUMP JUMPDEST PUSH2 0x1443 DUP2 PUSH2 0x1431 JUMP JUMPDEST DUP3 MSTORE POP POP JUMP JUMPDEST PUSH0 PUSH1 0x80 DUP3 ADD SWAP1 POP DUP2 DUP2 SUB PUSH0 DUP4 ADD MSTORE PUSH2 0x1461 DUP2 DUP8 PUSH2 0x13F9 JUMP JUMPDEST SWAP1 POP PUSH2 0x1470 PUSH1 0x20 DUP4 ADD DUP7 PUSH2 0x143A JUMP JUMPDEST DUP2 DUP2 SUB PUSH1 0x40 DUP4 ADD MSTORE PUSH2 0x1482 DUP2 DUP6 PUSH2 0x13F9 JUMP JUMPDEST SWAP1 POP DUP2 DUP2 SUB PUSH1 0x60 DUP4 ADD MSTORE PUSH2 0x1496 DUP2 DUP5 PUSH2 0x13F9 JUMP JUMPDEST SWAP1 POP SWAP6 SWAP5 POP POP POP POP POP JUMP JUMPDEST PUSH32 0x4E6F206163746976652067616D6520746F20656E642E00000000000000000000 PUSH0 DUP3 ADD MSTORE POP JUMP JUMPDEST PUSH0 PUSH2 0x14D5 PUSH1 0x16 DUP4 PUSH2 0x13DB JUMP JUMPDEST SWAP2 POP PUSH2 0x14E0 DUP3 PUSH2 0x14A1 JUMP JUMPDEST PUSH1 0x20 DUP3 ADD SWAP1 POP SWAP2 SWAP1 POP JUMP JUMPDEST PUSH0 PUSH1 0x20 DUP3 ADD SWAP1 POP DUP2 DUP2 SUB PUSH0 DUP4 ADD MSTORE PUSH2 0x1502 DUP2 PUSH2 0x14C9 JUMP JUMPDEST SWAP1 POP SWAP2 SWAP1 POP JUMP JUMPDEST PUSH32 0x4E487B7100000000000000000000000000000000000000000000000000000000 PUSH0 MSTORE PUSH1 0x11 PUSH1 0x4 MSTORE PUSH1 0x24 PUSH0 REVERT JUMPDEST PUSH0 PUSH2 0x1540 DUP3 PUSH2 0x1431 JUMP JUMPDEST SWAP2 POP PUSH2 0x154B DUP4 PUSH2 0x1431 JUMP JUMPDEST SWAP3 POP DUP3 DUP3 ADD SWAP1 POP DUP1 DUP3 GT ISZERO PUSH2 0x1563 JUMPI PUSH2 0x1562 PUSH2 0x1509 JUMP JUMPDEST JUMPDEST SWAP3 SWAP2 POP POP JUMP JUMPDEST PUSH32 0x54696D65206C696D697420726561636865642E00000000000000000000000000 PUSH0 DUP3 ADD MSTORE POP JUMP JUMPDEST PUSH0 PUSH2 0x159D PUSH1 0x13 DUP4 PUSH2 0x13DB JUMP JUMPDEST SWAP2 POP PUSH2 0x15A8 DUP3 PUSH2 0x1569 JUMP JUMPDEST PUSH1 0x20 DUP3 ADD SWAP1 POP SWAP2 SWAP1 POP JUMP JUMPDEST PUSH0 PUSH1 0x20 DUP3 ADD SWAP1 POP DUP2 DUP2 SUB PUSH0 DUP4 ADD MSTORE PUSH2 0x15CA DUP2 PUSH2 0x1591 JUMP JUMPDEST SWAP1 POP SWAP2 SWAP1 POP JUMP JUMPDEST PUSH32 0x47616D65206F7665722E20596F75206469646E27742066696E69736820746865 PUSH0 DUP3 ADD MSTORE PUSH32 0x2067616D6520696E2074696D652E000000000000000000000000000000000000 PUSH1 0x20 DUP3 ADD MSTORE POP JUMP JUMPDEST PUSH0 PUSH2 0x162B PUSH1 0x2E DUP4 PUSH2 0x13DB JUMP JUMPDEST SWAP2 POP PUSH2 0x1636 DUP3 PUSH2 0x15D1 JUMP JUMPDEST PUSH1 0x40 DUP3 ADD SWAP1 POP SWAP2 SWAP1 POP JUMP JUMPDEST PUSH0 PUSH1 0x20 DUP3 ADD SWAP1 POP DUP2 DUP2 SUB PUSH0 DUP4 ADD MSTORE PUSH2 0x1658 DUP2 PUSH2 0x161F JUMP JUMPDEST SWAP1 POP SWAP2 SWAP1 POP JUMP JUMPDEST PUSH0 PUSH2 0x1669 DUP3 PUSH2 0x1431 JUMP JUMPDEST SWAP2 POP PUSH2 0x1674 DUP4 PUSH2 0x1431 JUMP JUMPDEST SWAP3 POP DUP3 DUP3 SUB SWAP1 POP DUP2 DUP2 GT ISZERO PUSH2 0x168C JUMPI PUSH2 0x168B PUSH2 0x1509 JUMP JUMPDEST JUMPDEST SWAP3 SWAP2 POP POP JUMP JUMPDEST PUSH0 DUP2 SWAP1 POP SWAP3 SWAP2 POP POP JUMP JUMPDEST PUSH32 0x596F752068617665200000000000000000000000000000000000000000000000 PUSH0 DUP3 ADD MSTORE POP JUMP JUMPDEST PUSH0 PUSH2 0x16D0 PUSH1 0x9 DUP4 PUSH2 0x1692 JUMP JUMPDEST SWAP2 POP PUSH2 0x16DB DUP3 PUSH2 0x169C JUMP JUMPDEST PUSH1 0x9 DUP3 ADD SWAP1 POP SWAP2 SWAP1 POP JUMP JUMPDEST PUSH0 PUSH2 0x16F0 DUP3 PUSH2 0x13D1 JUMP JUMPDEST PUSH2 0x16FA DUP2 DUP6 PUSH2 0x1692 JUMP JUMPDEST SWAP4 POP PUSH2 0x170A DUP2 DUP6 PUSH1 0x20 DUP7 ADD PUSH2 0x13EB JUMP JUMPDEST DUP1 DUP5 ADD SWAP2 POP POP SWAP3 SWAP2 POP POP JUMP JUMPDEST PUSH32 0x207365636F6E6473206C65667400000000000000000000000000000000000000 PUSH0 DUP3 ADD MSTORE POP JUMP JUMPDEST PUSH0 PUSH2 0x174A PUSH1 0xD DUP4 PUSH2 0x1692 JUMP JUMPDEST SWAP2 POP PUSH2 0x1755 DUP3 PUSH2 0x1716 JUMP JUMPDEST PUSH1 0xD DUP3 ADD SWAP1 POP SWAP2 SWAP1 POP JUMP JUMPDEST PUSH0 PUSH2 0x176A DUP3 PUSH2 0x16C4 JUMP JUMPDEST SWAP2 POP PUSH2 0x1776 DUP3 DUP5 PUSH2 0x16E6 JUMP JUMPDEST SWAP2 POP PUSH2 0x1781 DUP3 PUSH2 0x173E JUMP JUMPDEST SWAP2 POP DUP2 SWAP1 POP SWAP3 SWAP2 POP POP JUMP JUMPDEST PUSH0 PUSH1 0x20 DUP3 ADD SWAP1 POP DUP2 DUP2 SUB PUSH0 DUP4 ADD MSTORE PUSH2 0x17A4 DUP2 DUP5 PUSH2 0x13F9 JUMP JUMPDEST SWAP1 POP SWAP3 SWAP2 POP POP JUMP JUMPDEST PUSH32 0x496E707574206D75737420626520612073696E676C6520636861726163746572 PUSH0 DUP3 ADD MSTORE POP JUMP JUMPDEST PUSH0 PUSH2 0x17E0 PUSH1 0x20 DUP4 PUSH2 0x13DB JUMP JUMPDEST SWAP2 POP PUSH2 0x17EB DUP3 PUSH2 0x17AC JUMP JUMPDEST PUSH1 0x20 DUP3 ADD SWAP1 POP SWAP2 SWAP1 POP JUMP JUMPDEST PUSH0 PUSH1 0x20 DUP3 ADD SWAP1 POP DUP2 DUP2 SUB PUSH0 DUP4 ADD MSTORE PUSH2 0x180D DUP2 PUSH2 0x17D4 JUMP JUMPDEST SWAP1 POP SWAP2 SWAP1 POP JUMP JUMPDEST PUSH32 0x4E487B7100000000000000000000000000000000000000000000000000000000 PUSH0 MSTORE PUSH1 0x22 PUSH1 0x4 MSTORE PUSH1 0x24 PUSH0 REVERT JUMPDEST PUSH0 PUSH1 0x2 DUP3 DIV SWAP1 POP PUSH1 0x1 DUP3 AND DUP1 PUSH2 0x1858 JUMPI PUSH1 0x7F DUP3 AND SWAP2 POP JUMPDEST PUSH1 0x20 DUP3 LT DUP2 SUB PUSH2 0x186B JUMPI PUSH2 0x186A PUSH2 0x1814 JUMP JUMPDEST JUMPDEST POP SWAP2 SWAP1 POP JUMP JUMPDEST PUSH32 0x4E487B7100000000000000000000000000000000000000000000000000000000 PUSH0 MSTORE PUSH1 0x32 PUSH1 0x4 MSTORE PUSH1 0x24 PUSH0 REVERT JUMPDEST PUSH0 PUSH2 0x18A8 DUP3 PUSH2 0x1431 JUMP JUMPDEST SWAP2 POP PUSH2 0x18B3 DUP4 PUSH2 0x1431 JUMP JUMPDEST SWAP3 POP DUP3 DUP3 MUL PUSH2 0x18C1 DUP2 PUSH2 0x1431 JUMP JUMPDEST SWAP2 POP DUP3 DUP3 DIV DUP5 EQ DUP4 ISZERO OR PUSH2 0x18D8 JUMPI PUSH2 0x18D7 PUSH2 0x1509 JUMP JUMPDEST JUMPDEST POP SWAP3 SWAP2 POP POP JUMP JUMPDEST PUSH0 DUP2 SWAP1 POP DUP2 PUSH0 MSTORE PUSH1 0x20 PUSH0 KECCAK256 SWAP1 POP SWAP2 SWAP1 POP JUMP JUMPDEST PUSH0 PUSH1 0x20 PUSH1 0x1F DUP4 ADD DIV SWAP1 POP SWAP2 SWAP1 POP JUMP JUMPDEST PUSH0 DUP3 DUP3 SHL SWAP1 POP SWAP3 SWAP2 POP POP JUMP JUMPDEST PUSH0 PUSH1 0x8 DUP4 MUL PUSH2 0x193B PUSH32 0xFFFFFFFFFFFFFFFFFFFFFFFFFFFFFFFFFFFFFFFFFFFFFFFFFFFFFFFFFFFFFFFF DUP3 PUSH2 0x1900 JUMP JUMPDEST PUSH2 0x1945 DUP7 DUP4 PUSH2 0x1900 JUMP JUMPDEST SWAP6 POP DUP1 NOT DUP5 AND SWAP4 POP DUP1 DUP7 AND DUP5 OR SWAP3 POP POP POP SWAP4 SWAP3 POP POP POP JUMP JUMPDEST PUSH0 DUP2 SWAP1 POP SWAP2 SWAP1 POP JUMP JUMPDEST PUSH0 PUSH2 0x1980 PUSH2 0x197B PUSH2 0x1976 DUP5 PUSH2 0x1431 JUMP JUMPDEST PUSH2 0x195D JUMP JUMPDEST PUSH2 0x1431 JUMP JUMPDEST SWAP1 POP SWAP2 SWAP1 POP JUMP JUMPDEST PUSH0 DUP2 SWAP1 POP SWAP2 SWAP1 POP JUMP JUMPDEST PUSH2 0x1999 DUP4 PUSH2 0x1966 JUMP JUMPDEST PUSH2 0x19AD PUSH2 0x19A5 DUP3 PUSH2 0x1987 JUMP JUMPDEST DUP5 DUP5 SLOAD PUSH2 0x190C JUMP JUMPDEST DUP3 SSTORE POP POP POP POP JUMP JUMPDEST PUSH0 SWAP1 JUMP JUMPDEST PUSH2 0x19C1 PUSH2 0x19B5 JUMP JUMPDEST PUSH2 0x19CC DUP2 DUP5 DUP5 PUSH2 0x1990 JUMP JUMPDEST POP POP POP JUMP JUMPDEST JUMPDEST DUP2 DUP2 LT ISZERO PUSH2 0x19EF JUMPI PUSH2 0x19E4 PUSH0 DUP3 PUSH2 0x19B9 JUMP JUMPDEST PUSH1 0x1 DUP2 ADD SWAP1 POP PUSH2 0x19D2 JUMP JUMPDEST POP POP JUMP JUMPDEST PUSH1 0x1F DUP3 GT ISZERO PUSH2 0x1A34 JUMPI PUSH2 0x1A05 DUP2 PUSH2 0x18DF JUMP JUMPDEST PUSH2 0x1A0E DUP5 PUSH2 0x18F1 JUMP JUMPDEST DUP2 ADD PUSH1 0x20 DUP6 LT ISZERO PUSH2 0x1A1D JUMPI DUP2 SWAP1 POP JUMPDEST PUSH2 0x1A31 PUSH2 0x1A29 DUP6 PUSH2 0x18F1 JUMP JUMPDEST DUP4 ADD DUP3 PUSH2 0x19D1 JUMP JUMPDEST POP POP JUMPDEST POP POP POP JUMP JUMPDEST PUSH0 DUP3 DUP3 SHR SWAP1 POP SWAP3 SWAP2 POP POP JUMP JUMPDEST PUSH0 PUSH2 0x1A54 PUSH0 NOT DUP5 PUSH1 0x8 MUL PUSH2 0x1A39 JUMP JUMPDEST NOT DUP1 DUP4 AND SWAP2 POP POP SWAP3 SWAP2 POP POP JUMP JUMPDEST PUSH0 PUSH2 0x1A6C DUP4 DUP4 PUSH2 0x1A45 JUMP JUMPDEST SWAP2 POP DUP3 PUSH1 0x2 MUL DUP3 OR SWAP1 POP SWAP3 SWAP2 POP POP JUMP JUMPDEST PUSH2 0x1A85 DUP3 PUSH2 0x13D1 JUMP JUMPDEST PUSH8 0xFFFFFFFFFFFFFFFF DUP2 GT ISZERO PUSH2 0x1A9E JUMPI PUSH2 0x1A9D PUSH2 0x1266 JUMP JUMPDEST JUMPDEST PUSH2 0x1AA8 DUP3 SLOAD PUSH2 0x1841 JUMP JUMPDEST PUSH2 0x1AB3 DUP3 DUP3 DUP6 PUSH2 0x19F3 JUMP JUMPDEST PUSH0 PUSH1 0x20 SWAP1 POP PUSH1 0x1F DUP4 GT PUSH1 0x1 DUP2 EQ PUSH2 0x1AE4 JUMPI PUSH0 DUP5 ISZERO PUSH2 0x1AD2 JUMPI DUP3 DUP8 ADD MLOAD SWAP1 POP JUMPDEST PUSH2 0x1ADC DUP6 DUP3 PUSH2 0x1A61 JUMP JUMPDEST DUP7 SSTORE POP PUSH2 0x1B43 JUMP JUMPDEST PUSH1 0x1F NOT DUP5 AND PUSH2 0x1AF2 DUP7 PUSH2 0x18DF JUMP JUMPDEST PUSH0 JUMPDEST DUP3 DUP2 LT ISZERO PUSH2 0x1B19 JUMPI DUP5 DUP10 ADD MLOAD DUP3 SSTORE PUSH1 0x1 DUP3 ADD SWAP2 POP PUSH1 0x20 DUP6 ADD SWAP5 POP PUSH1 0x20 DUP2 ADD SWAP1 POP PUSH2 0x1AF4 JUMP JUMPDEST DUP7 DUP4 LT ISZERO PUSH2 0x1B36 JUMPI DUP5 DUP10 ADD MLOAD PUSH2 0x1B32 PUSH1 0x1F DUP10 AND DUP3 PUSH2 0x1A45 JUMP JUMPDEST DUP4 SSTORE POP JUMPDEST PUSH1 0x1 PUSH1 0x2 DUP9 MUL ADD DUP9 SSTORE POP POP POP JUMPDEST POP POP POP POP POP POP JUMP JUMPDEST PUSH0 DUP2 SLOAD PUSH2 0x1B57 DUP2 PUSH2 0x1841 JUMP JUMPDEST PUSH2 0x1B61 DUP2 DUP7 PUSH2 0x1692 JUMP JUMPDEST SWAP5 POP PUSH1 0x1 DUP3 AND PUSH0 DUP2 EQ PUSH2 0x1B7B JUMPI PUSH1 0x1 DUP2 EQ PUSH2 0x1B90 JUMPI PUSH2 0x1BC2 JUMP JUMPDEST PUSH1 0xFF NOT DUP4 AND DUP7 MSTORE DUP2 ISZERO ISZERO DUP3 MUL DUP7 ADD SWAP4 POP PUSH2 0x1BC2 JUMP JUMPDEST PUSH2 0x1B99 DUP6 PUSH2 0x18DF JUMP JUMPDEST PUSH0 JUMPDEST DUP4 DUP2 LT ISZERO PUSH2 0x1BBA JUMPI DUP2 SLOAD DUP2 DUP10 ADD MSTORE PUSH1 0x1 DUP3 ADD SWAP2 POP PUSH1 0x20 DUP2 ADD SWAP1 POP PUSH2 0x1B9B JUMP JUMPDEST DUP4 DUP9 ADD SWAP6 POP POP POP JUMPDEST POP POP POP SWAP3 SWAP2 POP POP JUMP JUMPDEST PUSH32 0x2000000000000000000000000000000000000000000000000000000000000000 PUSH0 DUP3 ADD MSTORE POP JUMP JUMPDEST PUSH0 PUSH2 0x1BFF PUSH1 0x1 DUP4 PUSH2 0x1692 JUMP JUMPDEST SWAP2 POP PUSH2 0x1C0A DUP3 PUSH2 0x1BCB JUMP JUMPDEST PUSH1 0x1 DUP3 ADD SWAP1 POP SWAP2 SWAP1 POP JUMP JUMPDEST PUSH0 PUSH2 0x1C20 DUP3 DUP6 PUSH2 0x1B4B JUMP JUMPDEST SWAP2 POP PUSH2 0x1C2C DUP3 DUP5 PUSH2 0x16E6 JUMP JUMPDEST SWAP2 POP PUSH2 0x1C37 DUP3 PUSH2 0x1BF3 JUMP JUMPDEST SWAP2 POP DUP2 SWAP1 POP SWAP4 SWAP3 POP POP POP JUMP JUMPDEST PUSH0 PUSH2 0x1C4D DUP3 PUSH2 0x1431 JUMP JUMPDEST SWAP2 POP PUSH0 DUP3 SUB PUSH2 0x1C5F JUMPI PUSH2 0x1C5E PUSH2 0x1509 JUMP JUMPDEST JUMPDEST PUSH1 0x1 DUP3 SUB SWAP1 POP SWAP2 SWAP1 POP JUMP JUMPDEST PUSH0 DUP2 SLOAD PUSH2 0x1C76 DUP2 PUSH2 0x1841 JUMP JUMPDEST PUSH2 0x1C80 DUP2 DUP7 PUSH2 0x13DB JUMP JUMPDEST SWAP5 POP PUSH1 0x1 DUP3 AND PUSH0 DUP2 EQ PUSH2 0x1C9A JUMPI PUSH1 0x1 DUP2 EQ PUSH2 0x1CB0 JUMPI PUSH2 0x1CE2 JUMP JUMPDEST PUSH1 0xFF NOT DUP4 AND DUP7 MSTORE DUP2 ISZERO ISZERO PUSH1 0x20 MUL DUP7 ADD SWAP4 POP PUSH2 0x1CE2 JUMP JUMPDEST PUSH2 0x1CB9 DUP6 PUSH2 0x18DF JUMP JUMPDEST PUSH0 JUMPDEST DUP4 DUP2 LT ISZERO PUSH2 0x1CDA JUMPI DUP2 SLOAD DUP2 DUP10 ADD MSTORE PUSH1 0x1 DUP3 ADD SWAP2 POP PUSH1 0x20 DUP2 ADD SWAP1 POP PUSH2 0x1CBB JUMP JUMPDEST DUP1 DUP9 ADD SWAP6 POP POP POP JUMPDEST POP POP POP SWAP3 SWAP2 POP POP JUMP JUMPDEST PUSH0 PUSH1 0x80 DUP3 ADD SWAP1 POP DUP2 DUP2 SUB PUSH0 DUP4 ADD MSTORE PUSH2 0x1D03 DUP2 DUP8 PUSH2 0x1C6A JUMP JUMPDEST SWAP1 POP PUSH2 0x1D12 PUSH1 0x20 DUP4 ADD DUP7 PUSH2 0x143A JUMP JUMPDEST DUP2 DUP2 SUB PUSH1 0x40 DUP4 ADD MSTORE PUSH2 0x1D24 DUP2 DUP6 PUSH2 0x1C6A JUMP JUMPDEST SWAP1 POP DUP2 DUP2 SUB PUSH1 0x60 DUP4 ADD MSTORE PUSH2 0x1D38 DUP2 DUP5 PUSH2 0x13F9 JUMP JUMPDEST SWAP1 POP SWAP6 SWAP5 POP POP POP POP POP JUMP JUMPDEST PUSH32 0x47616D65206F7665722E20596F7520646F6E2774206861766520616E79206174 PUSH0 DUP3 ADD MSTORE PUSH32 0x74656D707473206C6566742E0000000000000000000000000000000000000000 PUSH1 0x20 DUP3 ADD MSTORE POP JUMP JUMPDEST PUSH0 PUSH2 0x1D9D PUSH1 0x2C DUP4 PUSH2 0x13DB JUMP JUMPDEST SWAP2 POP PUSH2 0x1DA8 DUP3 PUSH2 0x1D43 JUMP JUMPDEST PUSH1 0x40 DUP3 ADD SWAP1 POP SWAP2 SWAP1 POP JUMP JUMPDEST PUSH0 PUSH1 0x20 DUP3 ADD SWAP1 POP DUP2 DUP2 SUB PUSH0 DUP4 ADD MSTORE PUSH2 0x1DCA DUP2 PUSH2 0x1D91 JUMP JUMPDEST SWAP1 POP SWAP2 SWAP1 POP JUMP JUMPDEST PUSH32 0x47616D6520616C726561647920696E2070726F67726573732E20456E64206974 PUSH0 DUP3 ADD MSTORE PUSH32 0x2066697273742E00000000000000000000000000000000000000000000000000 PUSH1 0x20 DUP3 ADD MSTORE POP JUMP JUMPDEST PUSH0 PUSH2 0x1E2B PUSH1 0x27 DUP4 PUSH2 0x13DB JUMP JUMPDEST SWAP2 POP PUSH2 0x1E36 DUP3 PUSH2 0x1DD1 JUMP JUMPDEST PUSH1 0x40 DUP3 ADD SWAP1 POP SWAP2 SWAP1 POP JUMP JUMPDEST PUSH0 PUSH1 0x20 DUP3 ADD SWAP1 POP DUP2 DUP2 SUB PUSH0 DUP4 ADD MSTORE PUSH2 0x1E58 DUP2 PUSH2 0x1E1F JUMP JUMPDEST SWAP1 POP SWAP2 SWAP1 POP JUMP JUMPDEST PUSH0 PUSH1 0x40 DUP3 ADD SWAP1 POP PUSH2 0x1E72 PUSH0 DUP4 ADD DUP6 PUSH2 0x143A JUMP JUMPDEST PUSH2 0x1E7F PUSH1 0x20 DUP4 ADD DUP5 PUSH2 0x143A JUMP JUMPDEST SWAP4 SWAP3 POP POP POP JUMP JUMPDEST PUSH0 DUP2 SWAP1 POP SWAP2 SWAP1 POP JUMP JUMPDEST PUSH2 0x1EA0 PUSH2 0x1E9B DUP3 PUSH2 0x1431 JUMP JUMPDEST PUSH2 0x1E86 JUMP JUMPDEST DUP3 MSTORE POP POP JUMP JUMPDEST PUSH0 PUSH20 0xFFFFFFFFFFFFFFFFFFFFFFFFFFFFFFFFFFFFFFFF DUP3 AND SWAP1 POP SWAP2 SWAP1 POP JUMP JUMPDEST PUSH0 PUSH2 0x1ECF DUP3 PUSH2 0x1EA6 JUMP JUMPDEST SWAP1 POP SWAP2 SWAP1 POP JUMP JUMPDEST PUSH0 DUP2 PUSH1 0x60 SHL SWAP1 POP SWAP2 SWAP1 POP JUMP JUMPDEST PUSH0 PUSH2 0x1EEC DUP3 PUSH2 0x1ED6 JUMP JUMPDEST SWAP1 POP SWAP2 SWAP1 POP JUMP JUMPDEST PUSH0 PUSH2 0x1EFD DUP3 PUSH2 0x1EE2 JUMP JUMPDEST SWAP1 POP SWAP2 SWAP1 POP JUMP JUMPDEST PUSH2 0x1F15 PUSH2 0x1F10 DUP3 PUSH2 0x1EC5 JUMP JUMPDEST PUSH2 0x1EF3 JUMP JUMPDEST DUP3 MSTORE POP POP JUMP JUMPDEST PUSH0 PUSH2 0x1F26 DUP3 DUP6 PUSH2 0x1E8F JUMP JUMPDEST PUSH1 0x20 DUP3 ADD SWAP2 POP PUSH2 0x1F36 DUP3 DUP5 PUSH2 0x1F04 JUMP JUMPDEST PUSH1 0x14 DUP3 ADD SWAP2 POP DUP2 SWAP1 POP SWAP4 SWAP3 POP POP POP JUMP JUMPDEST PUSH32 0x4E487B7100000000000000000000000000000000000000000000000000000000 PUSH0 MSTORE PUSH1 0x12 PUSH1 0x4 MSTORE PUSH1 0x24 PUSH0 REVERT JUMPDEST PUSH0 PUSH2 0x1F7D DUP3 PUSH2 0x1431 JUMP JUMPDEST SWAP2 POP PUSH2 0x1F88 DUP4 PUSH2 0x1431 JUMP JUMPDEST SWAP3 POP DUP3 PUSH2 0x1F98 JUMPI PUSH2 0x1F97 PUSH2 0x1F46 JUMP JUMPDEST JUMPDEST DUP3 DUP3 MOD SWAP1 POP SWAP3 SWAP2 POP POP JUMP JUMPDEST PUSH0 DUP2 SLOAD SWAP1 POP PUSH2 0x1FB1 DUP2 PUSH2 0x1841 JUMP JUMPDEST SWAP1 POP SWAP2 SWAP1 POP JUMP JUMPDEST PUSH0 DUP2 SWAP1 POP DUP2 PUSH0 MSTORE PUSH1 0x20 PUSH0 KECCAK256 SWAP1 POP SWAP2 SWAP1 POP JUMP JUMPDEST DUP2 DUP2 SUB PUSH2 0x1FD8 JUMPI POP POP PUSH2 0x20AD JUMP JUMPDEST PUSH2 0x1FE1 DUP3 PUSH2 0x1FA3 JUMP JUMPDEST PUSH8 0xFFFFFFFFFFFFFFFF DUP2 GT ISZERO PUSH2 0x1FFA JUMPI PUSH2 0x1FF9 PUSH2 0x1266 JUMP JUMPDEST JUMPDEST PUSH2 0x2004 DUP3 SLOAD PUSH2 0x1841 JUMP JUMPDEST PUSH2 0x200F DUP3 DUP3 DUP6 PUSH2 0x19F3 JUMP JUMPDEST PUSH0 PUSH1 0x1F DUP4 GT PUSH1 0x1 DUP2 EQ PUSH2 0x203C JUMPI PUSH0 DUP5 ISZERO PUSH2 0x202A JUMPI DUP3 DUP8 ADD SLOAD SWAP1 POP JUMPDEST PUSH2 0x2034 DUP6 DUP3 PUSH2 0x1A61 JUMP JUMPDEST DUP7 SSTORE POP PUSH2 0x20A6 JUMP JUMPDEST PUSH1 0x1F NOT DUP5 AND PUSH2 0x204A DUP8 PUSH2 0x1FB8 JUMP JUMPDEST SWAP7 POP PUSH2 0x2055 DUP7 PUSH2 0x18DF JUMP JUMPDEST PUSH0 JUMPDEST DUP3 DUP2 LT ISZERO PUSH2 0x207C JUMPI DUP5 DUP10 ADD SLOAD DUP3 SSTORE PUSH1 0x1 DUP3 ADD SWAP2 POP PUSH1 0x1 DUP6 ADD SWAP5 POP PUSH1 0x20 DUP2 ADD SWAP1 POP PUSH2 0x2057 JUMP JUMPDEST DUP7 DUP4 LT ISZERO PUSH2 0x2099 JUMPI DUP5 DUP10 ADD SLOAD PUSH2 0x2095 PUSH1 0x1F DUP10 AND DUP3 PUSH2 0x1A45 JUMP JUMPDEST DUP4 SSTORE POP JUMPDEST PUSH1 0x1 PUSH1 0x2 DUP9 MUL ADD DUP9 SSTORE POP POP POP JUMPDEST POP POP POP POP POP POP JUMPDEST JUMP JUMPDEST PUSH32 0x47616D65206F7665722E20596F7520717569742E000000000000000000000000 PUSH0 DUP3 ADD MSTORE POP JUMP JUMPDEST PUSH0 PUSH2 0x20E3 PUSH1 0x14 DUP4 PUSH2 0x13DB JUMP JUMPDEST SWAP2 POP PUSH2 0x20EE DUP3 PUSH2 0x20AF JUMP JUMPDEST PUSH1 0x20 DUP3 ADD SWAP1 POP SWAP2 SWAP1 POP JUMP JUMPDEST PUSH0 PUSH1 0x20 DUP3 ADD SWAP1 POP DUP2 DUP2 SUB PUSH0 DUP4 ADD MSTORE PUSH2 0x2110 DUP2 PUSH2 0x20D7 JUMP JUMPDEST SWAP1 POP SWAP2 SWAP1 POP JUMP JUMPDEST PUSH0 PUSH2 0x2121 DUP3 PUSH2 0x1431 JUMP JUMPDEST SWAP2 POP PUSH32 0xFFFFFFFFFFFFFFFFFFFFFFFFFFFFFFFFFFFFFFFFFFFFFFFFFFFFFFFFFFFFFFFF DUP3 SUB PUSH2 0x2153 JUMPI PUSH2 0x2152 PUSH2 0x1509 JUMP JUMPDEST JUMPDEST PUSH1 0x1 DUP3 ADD SWAP1 POP SWAP2 SWAP1 POP JUMP JUMPDEST PUSH0 PUSH2 0x2168 DUP3 PUSH2 0x1431 JUMP JUMPDEST SWAP2 POP PUSH2 0x2173 DUP4 PUSH2 0x1431 JUMP JUMPDEST SWAP3 POP DUP3 PUSH2 0x2183 JUMPI PUSH2 0x2182 PUSH2 0x1F46 JUMP JUMPDEST JUMPDEST DUP3 DUP3 DIV SWAP1 POP SWAP3 SWAP2 POP POP JUMP INVALID LOG2 PUSH5 0x6970667358 0x22 SLT KECCAK256 LT 0xD9 0xB1 PUSH31 0x96B6F6A0EC51073DF61F65CBF206362A400608D146EA3A7ED32E3E5564736F PUSH13 0x634300081A0033000000000000 "
				},
				"gasEstimates": {
					"creation": {
						"codeDepositCost": "1728800",
						"executionCost": "infinite",
						"totalCost": "infinite"
					},
					"external": {
						"checkGameTimeout()": "infinite",
						"getGameState()": "infinite",
						"guess(string)": "infinite",
						"quit()": "28423",
						"startGame()": "infinite"
					},
					"internal": {
						"contains(string memory,string memory)": "infinite",
						"getHangmanFigure()": "infinite",
						"uintToString(uint256)": "infinite"
					}
				},
				"methodIdentifiers": {
					"checkGameTimeout()": "2b6055df",
					"getGameState()": "b7d0628b",
					"guess(string)": "4eee59b3",
					"quit()": "fc2b8cc3",
					"startGame()": "d65ab5f2"
				}
			},
			"storageLayout": {
				"storage": [
					{
						"astId": 56,
						"contract": "contracts/hangman2.sol:Hangman",
						"label": "wordDict",
						"offset": 0,
						"slot": "0",
						"type": "t_array(t_string_storage)50_storage"
					},
					{
						"astId": 58,
						"contract": "contracts/hangman2.sol:Hangman",
						"label": "currWord",
						"offset": 0,
						"slot": "50",
						"type": "t_string_storage"
					},
					{
						"astId": 60,
						"contract": "contracts/hangman2.sol:Hangman",
						"label": "hangmanWord",
						"offset": 0,
						"slot": "51",
						"type": "t_string_storage"
					},
					{
						"astId": 62,
						"contract": "contracts/hangman2.sol:Hangman",
						"label": "attemptsLeft",
						"offset": 0,
						"slot": "52",
						"type": "t_uint256"
					},
					{
						"astId": 64,
						"contract": "contracts/hangman2.sol:Hangman",
						"label": "wrongGuesses",
						"offset": 0,
						"slot": "53",
						"type": "t_string_storage"
					},
					{
						"astId": 66,
						"contract": "contracts/hangman2.sol:Hangman",
						"label": "gameActive",
						"offset": 0,
						"slot": "54",
						"type": "t_bool"
					},
					{
						"astId": 68,
						"contract": "contracts/hangman2.sol:Hangman",
						"label": "gameStartTime",
						"offset": 0,
						"slot": "55",
						"type": "t_uint256"
					},
					{
						"astId": 71,
						"contract": "contracts/hangman2.sol:Hangman",
						"label": "gameDuration",
						"offset": 0,
						"slot": "56",
						"type": "t_uint256"
					},
					{
						"astId": 84,
						"contract": "contracts/hangman2.sol:Hangman",
						"label": "hangmanStages",
						"offset": 0,
						"slot": "57",
						"type": "t_array(t_string_storage)8_storage"
					}
				],
				"types": {
					"t_array(t_string_storage)50_storage": {
						"base": "t_string_storage",
						"encoding": "inplace",
						"label": "string[50]",
						"numberOfBytes": "1600"
					},
					"t_array(t_string_storage)8_storage": {
						"base": "t_string_storage",
						"encoding": "inplace",
						"label": "string[8]",
						"numberOfBytes": "256"
					},
					"t_bool": {
						"encoding": "inplace",
						"label": "bool",
						"numberOfBytes": "1"
					},
					"t_string_storage": {
						"encoding": "bytes",
						"label": "string",
						"numberOfBytes": "32"
					},
					"t_uint256": {
						"encoding": "inplace",
						"label": "uint256",
						"numberOfBytes": "32"
					}
				}
			},
			"userdoc": {
				"kind": "user",
				"methods": {},
				"version": 1
			}
		}
	}
}