{
	"contracts/hangman_final.sol": {
		"Hangman": {
			"abi": [
				{
					"anonymous": false,
					"inputs": [
						{
							"indexed": false,
							"internalType": "string",
							"name": "reason",
							"type": "string"
						}
					],
					"name": "GameEnded",
					"type": "event"
				},
				{
					"anonymous": false,
					"inputs": [
						{
							"indexed": false,
							"internalType": "uint256",
							"name": "startTime",
							"type": "uint256"
						},
						{
							"indexed": false,
							"internalType": "uint256",
							"name": "duration",
							"type": "uint256"
						}
					],
					"name": "GameStarted",
					"type": "event"
				},
				{
					"anonymous": false,
					"inputs": [
						{
							"indexed": false,
							"internalType": "string",
							"name": "reason",
							"type": "string"
						}
					],
					"name": "GameTimeLeft",
					"type": "event"
				},
				{
					"anonymous": false,
					"inputs": [
						{
							"indexed": false,
							"internalType": "string",
							"name": "hangmanWord",
							"type": "string"
						},
						{
							"indexed": false,
							"internalType": "uint256",
							"name": "attemptsLeft",
							"type": "uint256"
						},
						{
							"indexed": false,
							"internalType": "string",
							"name": "wrongGuesses",
							"type": "string"
						},
						{
							"indexed": false,
							"internalType": "string",
							"name": "hangmanFigure",
							"type": "string"
						}
					],
					"name": "GuessMade",
					"type": "event"
				},
				{
					"inputs": [],
					"name": "displayTimeLeft",
					"outputs": [
						{
							"internalType": "string",
							"name": "",
							"type": "string"
						}
					],
					"stateMutability": "view",
					"type": "function"
				},
				{
					"inputs": [],
					"name": "getGameState",
					"outputs": [
						{
							"internalType": "string",
							"name": "",
							"type": "string"
						},
						{
							"internalType": "uint256",
							"name": "",
							"type": "uint256"
						},
						{
							"internalType": "string",
							"name": "",
							"type": "string"
						},
						{
							"internalType": "string",
							"name": "",
							"type": "string"
						}
					],
					"stateMutability": "view",
					"type": "function"
				},
				{
					"inputs": [
						{
							"internalType": "string",
							"name": "input",
							"type": "string"
						}
					],
					"name": "guess",
					"outputs": [
						{
							"internalType": "string",
							"name": "",
							"type": "string"
						},
						{
							"internalType": "uint256",
							"name": "",
							"type": "uint256"
						},
						{
							"internalType": "string",
							"name": "",
							"type": "string"
						},
						{
							"internalType": "string",
							"name": "",
							"type": "string"
						}
					],
					"stateMutability": "nonpayable",
					"type": "function"
				},
				{
					"inputs": [],
					"name": "quit",
					"outputs": [],
					"stateMutability": "nonpayable",
					"type": "function"
				},
				{
					"inputs": [],
					"name": "startGame",
					"outputs": [],
					"stateMutability": "nonpayable",
					"type": "function"
				}
			],
			"devdoc": {
				"kind": "dev",
				"methods": {},
				"version": 1
			},
			"evm": {
				"assembly": "    /* \"contracts/hangman_final.sol\":61:6298  contract Hangman {... */\n  mstore(0x40, 0x80)\n    /* \"contracts/hangman_final.sol\":85:991  string[50] private wordDict = [... */\n  mload(0x40)\n  dup1\n  0x0640\n  add\n  0x40\n  mstore\n  dup1\n  mload(0x40)\n  dup1\n  0x40\n  add\n  0x40\n  mstore\n  dup1\n  0x09\n  dup2\n  mstore\n  0x20\n  add\n  0x6170706c65207069650000000000000000000000000000000000000000000000\n  dup2\n  mstore\n  pop\n  dup2\n  mstore\n  0x20\n  add\n  mload(0x40)\n  dup1\n  0x40\n  add\n  0x40\n  mstore\n  dup1\n  0x09\n  dup2\n  mstore\n  0x20\n  add\n  0x6861707079206361740000000000000000000000000000000000000000000000\n  dup2\n  mstore\n  pop\n  dup2\n  mstore\n  0x20\n  add\n  mload(0x40)\n  dup1\n  0x40\n  add\n  0x40\n  mstore\n  dup1\n  0x08\n  dup2\n  mstore\n  0x20\n  add\n  0x6269672062656172000000000000000000000000000000000000000000000000\n  dup2\n  mstore\n  pop\n  dup2\n  mstore\n  0x20\n  add\n  mload(0x40)\n  dup1\n  0x40\n  add\n  0x40\n  mstore\n  dup1\n  0x0b\n  dup2\n  mstore\n  0x20\n  add\n  0x7261696e626f7720736b79000000000000000000000000000000000000000000\n  dup2\n  mstore\n  pop\n  dup2\n  mstore\n  0x20\n  add\n  mload(0x40)\n  dup1\n  0x40\n  add\n  0x40\n  mstore\n  dup1\n  0x09\n  dup2\n  mstore\n  0x20\n  add\n  0x6d61676963206861740000000000000000000000000000000000000000000000\n  dup2\n  mstore\n  pop\n  dup2\n  mstore\n  0x20\n  add\n  mload(0x40)\n  dup1\n  0x40\n  add\n  0x40\n  mstore\n  dup1\n  0x09\n  dup2\n  mstore\n  0x20\n  add\n  0x73756e6e79206461790000000000000000000000000000000000000000000000\n  dup2\n  mstore\n  pop\n  dup2\n  mstore\n  0x20\n  add\n  mload(0x40)\n  dup1\n  0x40\n  add\n  0x40\n  mstore\n  dup1\n  0x0a\n  dup2\n  mstore\n  0x20\n  add\n  0x74696e7920686f75736500000000000000000000000000000000000000000000\n  dup2\n  mstore\n  pop\n  dup2\n  mstore\n  0x20\n  add\n  mload(0x40)\n  dup1\n  0x40\n  add\n  0x40\n  mstore\n  dup1\n  0x09\n  dup2\n  mstore\n  0x20\n  add\n  0x6c656d6f6e207465610000000000000000000000000000000000000000000000\n  dup2\n  mstore\n  pop\n  dup2\n  mstore\n  0x20\n  add\n  mload(0x40)\n  dup1\n  0x40\n  add\n  0x40\n  mstore\n  dup1\n  0x0a\n  dup2\n  mstore\n  0x20\n  add\n  0x7075707079206c6f766500000000000000000000000000000000000000000000\n  dup2\n  mstore\n  pop\n  dup2\n  mstore\n  0x20\n  add\n  mload(0x40)\n  dup1\n  0x40\n  add\n  0x40\n  mstore\n  dup1\n  0x09\n  dup2\n  mstore\n  0x20\n  add\n  0x77696c6420776573740000000000000000000000000000000000000000000000\n  dup2\n  mstore\n  pop\n  dup2\n  mstore\n  0x20\n  add\n  mload(0x40)\n  dup1\n  0x40\n  add\n  0x40\n  mstore\n  dup1\n  0x0b\n  dup2\n  mstore\n  0x20\n  add\n  0x6f72616e6765206d6f6f6e000000000000000000000000000000000000000000\n  dup2\n  mstore\n  pop\n  dup2\n  mstore\n  0x20\n  add\n  mload(0x40)\n  dup1\n  0x40\n  add\n  0x40\n  mstore\n  dup1\n  0x0b\n  dup2\n  mstore\n  0x20\n  add\n  0x73696c7665722073746172000000000000000000000000000000000000000000\n  dup2\n  mstore\n  pop\n  dup2\n  mstore\n  0x20\n  add\n  mload(0x40)\n  dup1\n  0x40\n  add\n  0x40\n  mstore\n  dup1\n  0x0c\n  dup2\n  mstore\n  0x20\n  add\n  0x6c61756768696e67206f776c0000000000000000000000000000000000000000\n  dup2\n  mstore\n  pop\n  dup2\n  mstore\n  0x20\n  add\n  mload(0x40)\n  dup1\n  0x40\n  add\n  0x40\n  mstore\n  dup1\n  0x0b\n  dup2\n  mstore\n  0x20\n  add\n  0x666f726573742070617468000000000000000000000000000000000000000000\n  dup2\n  mstore\n  pop\n  dup2\n  mstore\n  0x20\n  add\n  mload(0x40)\n  dup1\n  0x40\n  add\n  0x40\n  mstore\n  dup1\n  0x0b\n  dup2\n  mstore\n  0x20\n  add\n  0x666c79696e672066697368000000000000000000000000000000000000000000\n  dup2\n  mstore\n  pop\n  dup2\n  mstore\n  0x20\n  add\n  mload(0x40)\n  dup1\n  0x40\n  add\n  0x40\n  mstore\n  dup1\n  0x0c\n  dup2\n  mstore\n  0x20\n  add\n  0x636f74746f6e20636c6f75640000000000000000000000000000000000000000\n  dup2\n  mstore\n  pop\n  dup2\n  mstore\n  0x20\n  add\n  mload(0x40)\n  dup1\n  0x40\n  add\n  0x40\n  mstore\n  dup1\n  0x0b\n  dup2\n  mstore\n  0x20\n  add\n  0x6368657272792074726565000000000000000000000000000000000000000000\n  dup2\n  mstore\n  pop\n  dup2\n  mstore\n  0x20\n  add\n  mload(0x40)\n  dup1\n  0x40\n  add\n  0x40\n  mstore\n  dup1\n  0x0a\n  dup2\n  mstore\n  0x20\n  add\n  0x736563726574206b657900000000000000000000000000000000000000000000\n  dup2\n  mstore\n  pop\n  dup2\n  mstore\n  0x20\n  add\n  mload(0x40)\n  dup1\n  0x40\n  add\n  0x40\n  mstore\n  dup1\n  0x0c\n  dup2\n  mstore\n  0x20\n  add\n  0x6272617665206b6e696768740000000000000000000000000000000000000000\n  dup2\n  mstore\n  pop\n  dup2\n  mstore\n  0x20\n  add\n  mload(0x40)\n  dup1\n  0x40\n  add\n  0x40\n  mstore\n  dup1\n  0x0a\n  dup2\n  mstore\n  0x20\n  add\n  0x626c7565206f6365616e00000000000000000000000000000000000000000000\n  dup2\n  mstore\n  pop\n  dup2\n  mstore\n  0x20\n  add\n  mload(0x40)\n  dup1\n  0x40\n  add\n  0x40\n  mstore\n  dup1\n  0x0f\n  dup2\n  mstore\n  0x20\n  add\n  0x7477696e6b6c696e67206c696768740000000000000000000000000000000000\n  dup2\n  mstore\n  pop\n  dup2\n  mstore\n  0x20\n  add\n  mload(0x40)\n  dup1\n  0x40\n  add\n  0x40\n  mstore\n  dup1\n  0x0b\n  dup2\n  mstore\n  0x20\n  add\n  0x736e6f7779206e69676874000000000000000000000000000000000000000000\n  dup2\n  mstore\n  pop\n  dup2\n  mstore\n  0x20\n  add\n  mload(0x40)\n  dup1\n  0x40\n  add\n  0x40\n  mstore\n  dup1\n  0x0c\n  dup2\n  mstore\n  0x20\n  add\n  0x6769616e7420747572746c650000000000000000000000000000000000000000\n  dup2\n  mstore\n  pop\n  dup2\n  mstore\n  0x20\n  add\n  mload(0x40)\n  dup1\n  0x40\n  add\n  0x40\n  mstore\n  dup1\n  0x0a\n  dup2\n  mstore\n  0x20\n  add\n  0x66616972792074616c6500000000000000000000000000000000000000000000\n  dup2\n  mstore\n  pop\n  dup2\n  mstore\n  0x20\n  add\n  mload(0x40)\n  dup1\n  0x40\n  add\n  0x40\n  mstore\n  dup1\n  0x0f\n  dup2\n  mstore\n  0x20\n  add\n  0x68696464656e2074726561737572650000000000000000000000000000000000\n  dup2\n  mstore\n  pop\n  dup2\n  mstore\n  0x20\n  add\n  mload(0x40)\n  dup1\n  0x40\n  add\n  0x40\n  mstore\n  dup1\n  0x0c\n  dup2\n  mstore\n  0x20\n  add\n  0x73696c656e742072697665720000000000000000000000000000000000000000\n  dup2\n  mstore\n  pop\n  dup2\n  mstore\n  0x20\n  add\n  mload(0x40)\n  dup1\n  0x40\n  add\n  0x40\n  mstore\n  dup1\n  0x0c\n  dup2\n  mstore\n  0x20\n  add\n  0x637564646c792062756e6e790000000000000000000000000000000000000000\n  dup2\n  mstore\n  pop\n  dup2\n  mstore\n  0x20\n  add\n  mload(0x40)\n  dup1\n  0x40\n  add\n  0x40\n  mstore\n  dup1\n  0x0f\n  dup2\n  mstore\n  0x20\n  add\n  0x64616e63696e6720646f6c7068696e0000000000000000000000000000000000\n  dup2\n  mstore\n  pop\n  dup2\n  mstore\n  0x20\n  add\n  mload(0x40)\n  dup1\n  0x40\n  add\n  0x40\n  mstore\n  dup1\n  0x0b\n  dup2\n  mstore\n  0x20\n  add\n  0x66726f7a656e206c616b65000000000000000000000000000000000000000000\n  dup2\n  mstore\n  pop\n  dup2\n  mstore\n  0x20\n  add\n  mload(0x40)\n  dup1\n  0x40\n  add\n  0x40\n  mstore\n  dup1\n  0x0e\n  dup2\n  mstore\n  0x20\n  add\n  0x63686f636f6c6174652063616b65000000000000000000000000000000000000\n  dup2\n  mstore\n  pop\n  dup2\n  mstore\n  0x20\n  add\n  mload(0x40)\n  dup1\n  0x40\n  add\n  0x40\n  mstore\n  dup1\n  0x0e\n  dup2\n  mstore\n  0x20\n  add\n  0x667269656e646c792067686f7374000000000000000000000000000000000000\n  dup2\n  mstore\n  pop\n  dup2\n  mstore\n  0x20\n  add\n  mload(0x40)\n  dup1\n  0x40\n  add\n  0x40\n  mstore\n  dup1\n  0x0b\n  dup2\n  mstore\n  0x20\n  add\n  0x676f6c64656e2072696e67000000000000000000000000000000000000000000\n  dup2\n  mstore\n  pop\n  dup2\n  mstore\n  0x20\n  add\n  mload(0x40)\n  dup1\n  0x40\n  add\n  0x40\n  mstore\n  dup1\n  0x0f\n  dup2\n  mstore\n  0x20\n  add\n  0x706561636566756c2067617264656e0000000000000000000000000000000000\n  dup2\n  mstore\n  pop\n  dup2\n  mstore\n  0x20\n  add\n  mload(0x40)\n  dup1\n  0x40\n  add\n  0x40\n  mstore\n  dup1\n  0x0f\n  dup2\n  mstore\n  0x20\n  add\n  0x77686973706572696e672077696e640000000000000000000000000000000000\n  dup2\n  mstore\n  pop\n  dup2\n  mstore\n  0x20\n  add\n  mload(0x40)\n  dup1\n  0x40\n  add\n  0x40\n  mstore\n  dup1\n  0x0b\n  dup2\n  mstore\n  0x20\n  add\n  0x7368696e792070656e6e79000000000000000000000000000000000000000000\n  dup2\n  mstore\n  pop\n  dup2\n  mstore\n  0x20\n  add\n  mload(0x40)\n  dup1\n  0x40\n  add\n  0x40\n  mstore\n  dup1\n  0x0d\n  dup2\n  mstore\n  0x20\n  add\n  0x6d6f756e7461696e207065616b00000000000000000000000000000000000000\n  dup2\n  mstore\n  pop\n  dup2\n  mstore\n  0x20\n  add\n  mload(0x40)\n  dup1\n  0x40\n  add\n  0x40\n  mstore\n  dup1\n  0x0b\n  dup2\n  mstore\n  0x20\n  add\n  0x63616c6d20776174657273000000000000000000000000000000000000000000\n  dup2\n  mstore\n  pop\n  dup2\n  mstore\n  0x20\n  add\n  mload(0x40)\n  dup1\n  0x40\n  add\n  0x40\n  mstore\n  dup1\n  0x0a\n  dup2\n  mstore\n  0x20\n  add\n  0x6272696768742073756e00000000000000000000000000000000000000000000\n  dup2\n  mstore\n  pop\n  dup2\n  mstore\n  0x20\n  add\n  mload(0x40)\n  dup1\n  0x40\n  add\n  0x40\n  mstore\n  dup1\n  0x0a\n  dup2\n  mstore\n  0x20\n  add\n  0x736c6565707920666f7800000000000000000000000000000000000000000000\n  dup2\n  mstore\n  pop\n  dup2\n  mstore\n  0x20\n  add\n  mload(0x40)\n  dup1\n  0x40\n  add\n  0x40\n  mstore\n  dup1\n  0x0a\n  dup2\n  mstore\n  0x20\n  add\n  0x73746172727920736b7900000000000000000000000000000000000000000000\n  dup2\n  mstore\n  pop\n  dup2\n  mstore\n  0x20\n  add\n  mload(0x40)\n  dup1\n  0x40\n  add\n  0x40\n  mstore\n  dup1\n  0x0b\n  dup2\n  mstore\n  0x20\n  add\n  0x74696e7920666c6f776572000000000000000000000000000000000000000000\n  dup2\n  mstore\n  pop\n  dup2\n  mstore\n  0x20\n  add\n  mload(0x40)\n  dup1\n  0x40\n  add\n  0x40\n  mstore\n  dup1\n  0x0d\n  dup2\n  mstore\n  0x20\n  add\n  0x67656e746c6520627265657a6500000000000000000000000000000000000000\n  dup2\n  mstore\n  pop\n  dup2\n  mstore\n  0x20\n  add\n  mload(0x40)\n  dup1\n  0x40\n  add\n  0x40\n  mstore\n  dup1\n  0x0c\n  dup2\n  mstore\n  0x20\n  add\n  0x7261696e626f7720666973680000000000000000000000000000000000000000\n  dup2\n  mstore\n  pop\n  dup2\n  mstore\n  0x20\n  add\n  mload(0x40)\n  dup1\n  0x40\n  add\n  0x40\n  mstore\n  dup1\n  0x0c\n  dup2\n  mstore\n  0x20\n  add\n  0x73696e67696e6720626972640000000000000000000000000000000000000000\n  dup2\n  mstore\n  pop\n  dup2\n  mstore\n  0x20\n  add\n  mload(0x40)\n  dup1\n  0x40\n  add\n  0x40\n  mstore\n  dup1\n  0x0a\n  dup2\n  mstore\n  0x20\n  add\n  0x626f6c6420746967657200000000000000000000000000000000000000000000\n  dup2\n  mstore\n  pop\n  dup2\n  mstore\n  0x20\n  add\n  mload(0x40)\n  dup1\n  0x40\n  add\n  0x40\n  mstore\n  dup1\n  0x0e\n  dup2\n  mstore\n  0x20\n  add\n  0x7370696e6e696e6720776865656c000000000000000000000000000000000000\n  dup2\n  mstore\n  pop\n  dup2\n  mstore\n  0x20\n  add\n  mload(0x40)\n  dup1\n  0x40\n  add\n  0x40\n  mstore\n  dup1\n  0x0d\n  dup2\n  mstore\n  0x20\n  add\n  0x736861646f772070757070657400000000000000000000000000000000000000\n  dup2\n  mstore\n  pop\n  dup2\n  mstore\n  0x20\n  add\n  mload(0x40)\n  dup1\n  0x40\n  add\n  0x40\n  mstore\n  dup1\n  0x0c\n  dup2\n  mstore\n  0x20\n  add\n  0x677265656e2076616c6c65790000000000000000000000000000000000000000\n  dup2\n  mstore\n  pop\n  dup2\n  mstore\n  0x20\n  add\n  mload(0x40)\n  dup1\n  0x40\n  add\n  0x40\n  mstore\n  dup1\n  0x14\n  dup2\n  mstore\n  0x20\n  add\n  0x666c7574746572696e6720627574746572666c79000000000000000000000000\n  dup2\n  mstore\n  pop\n  dup2\n  mstore\n  0x20\n  add\n  mload(0x40)\n  dup1\n  0x40\n  add\n  0x40\n  mstore\n  dup1\n  0x0b\n  dup2\n  mstore\n  0x20\n  add\n  0x7365637265742063617665000000000000000000000000000000000000000000\n  dup2\n  mstore\n  pop\n  dup2\n  mstore\n  pop\n  0x00\n  swap1\n  0x32\n  tag_1\n  swap3\n  swap2\n  swap1\n  tag_2\n  jump\t// in\ntag_1:\n  pop\n    /* \"contracts/hangman_final.sol\":1272:1464  string[8] private hangmanStages = [... */\n  mload(0x40)\n  dup1\n  0x0100\n  add\n  0x40\n  mstore\n  dup1\n  mload(0x40)\n  dup1\n  0x40\n  add\n  0x40\n  mstore\n  dup1\n  0x03\n  dup2\n  mstore\n  0x20\n  add\n  0x207c2d0000000000000000000000000000000000000000000000000000000000\n  dup2\n  mstore\n  pop\n  dup2\n  mstore\n  0x20\n  add\n  mload(0x40)\n  dup1\n  0x40\n  add\n  0x40\n  mstore\n  dup1\n  0x04\n  dup2\n  mstore\n  0x20\n  add\n  0x207c2d6f00000000000000000000000000000000000000000000000000000000\n  dup2\n  mstore\n  pop\n  dup2\n  mstore\n  0x20\n  add\n  mload(0x40)\n  dup1\n  0x40\n  add\n  0x40\n  mstore\n  dup1\n  0x05\n  dup2\n  mstore\n  0x20\n  add\n  0x207c2d6f2d000000000000000000000000000000000000000000000000000000\n  dup2\n  mstore\n  pop\n  dup2\n  mstore\n  0x20\n  add\n  mload(0x40)\n  dup1\n  0x40\n  add\n  0x40\n  mstore\n  dup1\n  0x06\n  dup2\n  mstore\n  0x20\n  add\n  0x207c2d6f2d2d0000000000000000000000000000000000000000000000000000\n  dup2\n  mstore\n  pop\n  dup2\n  mstore\n  0x20\n  add\n  mload(0x40)\n  dup1\n  0x40\n  add\n  0x40\n  mstore\n  dup1\n  0x05\n  dup2\n  mstore\n  0x20\n  add\n  0x207c2d6f3c000000000000000000000000000000000000000000000000000000\n  dup2\n  mstore\n  pop\n  dup2\n  mstore\n  0x20\n  add\n  mload(0x40)\n  dup1\n  0x40\n  add\n  0x40\n  mstore\n  dup1\n  0x07\n  dup2\n  mstore\n  0x20\n  add\n  0x207c2d6f3c2d2d00000000000000000000000000000000000000000000000000\n  dup2\n  mstore\n  pop\n  dup2\n  mstore\n  0x20\n  add\n  mload(0x40)\n  dup1\n  0x40\n  add\n  0x40\n  mstore\n  dup1\n  0x07\n  dup2\n  mstore\n  0x20\n  add\n  0x207c2d6f3c2d3c00000000000000000000000000000000000000000000000000\n  dup2\n  mstore\n  pop\n  dup2\n  mstore\n  0x20\n  add\n  mload(0x40)\n  dup1\n  0x40\n  add\n  0x40\n  mstore\n  dup1\n  0x08\n  dup2\n  mstore\n  0x20\n  add\n  0x207c2d6f3c2d2d3c000000000000000000000000000000000000000000000000\n  dup2\n  mstore\n  pop\n  dup2\n  mstore\n  pop\n  0x38\n  swap1\n  0x08\n  tag_3\n  swap3\n  swap2\n  swap1\n  tag_4\n  jump\t// in\ntag_3:\n  pop\n    /* \"contracts/hangman_final.sol\":61:6298  contract Hangman {... */\n  callvalue\n  dup1\n  iszero\n  tag_5\n  jumpi\n  0x00\n  dup1\n  revert\ntag_5:\n  pop\n  jump(tag_6)\ntag_2:\n  dup3\n  0x32\n  dup2\n  add\n  swap3\n  dup3\n  iszero\n  tag_7\n  jumpi\n  swap2\n  0x20\n  mul\n  dup3\n  add\ntag_8:\n  dup3\n  dup2\n  gt\n  iszero\n  tag_9\n  jumpi\n  dup3\n  mload\n  dup3\n  swap1\n  dup2\n  tag_10\n  swap2\n  swap1\n  tag_11\n  jump\t// in\ntag_10:\n  pop\n  swap2\n  0x20\n  add\n  swap2\n  swap1\n  0x01\n  add\n  swap1\n  jump(tag_8)\ntag_9:\ntag_7:\n  pop\n  swap1\n  pop\n  tag_12\n  swap2\n  swap1\n  tag_13\n  jump\t// in\ntag_12:\n  pop\n  swap1\n  jump\t// out\ntag_4:\n  dup3\n  0x08\n  dup2\n  add\n  swap3\n  dup3\n  iszero\n  tag_14\n  jumpi\n  swap2\n  0x20\n  mul\n  dup3\n  add\ntag_15:\n  dup3\n  dup2\n  gt\n  iszero\n  tag_16\n  jumpi\n  dup3\n  mload\n  dup3\n  swap1\n  dup2\n  tag_17\n  swap2\n  swap1\n  tag_11\n  jump\t// in\ntag_17:\n  pop\n  swap2\n  0x20\n  add\n  swap2\n  swap1\n  0x01\n  add\n  swap1\n  jump(tag_15)\ntag_16:\ntag_14:\n  pop\n  swap1\n  pop\n  tag_18\n  swap2\n  swap1\n  tag_13\n  jump\t// in\ntag_18:\n  pop\n  swap1\n  jump\t// out\ntag_13:\ntag_19:\n  dup1\n  dup3\n  gt\n  iszero\n  tag_20\n  jumpi\n  0x00\n  dup2\n  dup2\n  tag_21\n  swap2\n  swap1\n  tag_22\n  jump\t// in\ntag_21:\n  pop\n  0x01\n  add\n  jump(tag_19)\ntag_20:\n  pop\n  swap1\n  jump\t// out\ntag_22:\n  pop\n  dup1\n  sload\n  tag_23\n  swap1\n  tag_24\n  jump\t// in\ntag_23:\n  0x00\n  dup3\n  sstore\n  dup1\n  0x1f\n  lt\n  tag_26\n  jumpi\n  pop\n  jump(tag_25)\ntag_26:\n  0x1f\n  add\n  0x20\n  swap1\n  div\n  swap1\n  0x00\n  mstore\n  keccak256(0x00, 0x20)\n  swap1\n  dup2\n  add\n  swap1\n  tag_27\n  swap2\n  swap1\n  tag_28\n  jump\t// in\ntag_27:\ntag_25:\n  pop\n  jump\t// out\ntag_28:\ntag_29:\n  dup1\n  dup3\n  gt\n  iszero\n  tag_30\n  jumpi\n  0x00\n  dup2\n  0x00\n  swap1\n  sstore\n  pop\n  0x01\n  add\n  jump(tag_29)\ntag_30:\n  pop\n  swap1\n  jump\t// out\n    /* \"#utility.yul\":7:106   */\ntag_31:\n    /* \"#utility.yul\":59:65   */\n  0x00\n    /* \"#utility.yul\":93:98   */\n  dup2\n    /* \"#utility.yul\":87:99   */\n  mload\n    /* \"#utility.yul\":77:99   */\n  swap1\n  pop\n    /* \"#utility.yul\":7:106   */\n  swap2\n  swap1\n  pop\n  jump\t// out\n    /* \"#utility.yul\":112:292   */\ntag_32:\n    /* \"#utility.yul\":160:237   */\n  0x4e487b7100000000000000000000000000000000000000000000000000000000\n    /* \"#utility.yul\":157:158   */\n  0x00\n    /* \"#utility.yul\":150:238   */\n  mstore\n    /* \"#utility.yul\":257:261   */\n  0x41\n    /* \"#utility.yul\":254:255   */\n  0x04\n    /* \"#utility.yul\":247:262   */\n  mstore\n    /* \"#utility.yul\":281:285   */\n  0x24\n    /* \"#utility.yul\":278:279   */\n  0x00\n    /* \"#utility.yul\":271:286   */\n  revert\n    /* \"#utility.yul\":298:478   */\ntag_33:\n    /* \"#utility.yul\":346:423   */\n  0x4e487b7100000000000000000000000000000000000000000000000000000000\n    /* \"#utility.yul\":343:344   */\n  0x00\n    /* \"#utility.yul\":336:424   */\n  mstore\n    /* \"#utility.yul\":443:447   */\n  0x22\n    /* \"#utility.yul\":440:441   */\n  0x04\n    /* \"#utility.yul\":433:448   */\n  mstore\n    /* \"#utility.yul\":467:471   */\n  0x24\n    /* \"#utility.yul\":464:465   */\n  0x00\n    /* \"#utility.yul\":457:472   */\n  revert\n    /* \"#utility.yul\":484:804   */\ntag_24:\n    /* \"#utility.yul\":528:534   */\n  0x00\n    /* \"#utility.yul\":565:566   */\n  0x02\n    /* \"#utility.yul\":559:563   */\n  dup3\n    /* \"#utility.yul\":555:567   */\n  div\n    /* \"#utility.yul\":545:567   */\n  swap1\n  pop\n    /* \"#utility.yul\":612:613   */\n  0x01\n    /* \"#utility.yul\":606:610   */\n  dup3\n    /* \"#utility.yul\":602:614   */\n  and\n    /* \"#utility.yul\":633:651   */\n  dup1\n    /* \"#utility.yul\":623:704   */\n  tag_55\n  jumpi\n    /* \"#utility.yul\":689:693   */\n  0x7f\n    /* \"#utility.yul\":681:687   */\n  dup3\n    /* \"#utility.yul\":677:694   */\n  and\n    /* \"#utility.yul\":667:694   */\n  swap2\n  pop\n    /* \"#utility.yul\":623:704   */\ntag_55:\n    /* \"#utility.yul\":751:753   */\n  0x20\n    /* \"#utility.yul\":743:749   */\n  dup3\n    /* \"#utility.yul\":740:754   */\n  lt\n    /* \"#utility.yul\":720:738   */\n  dup2\n    /* \"#utility.yul\":717:755   */\n  sub\n    /* \"#utility.yul\":714:798   */\n  tag_56\n  jumpi\n    /* \"#utility.yul\":770:788   */\n  tag_57\n  tag_33\n  jump\t// in\ntag_57:\n    /* \"#utility.yul\":714:798   */\ntag_56:\n    /* \"#utility.yul\":535:804   */\n  pop\n    /* \"#utility.yul\":484:804   */\n  swap2\n  swap1\n  pop\n  jump\t// out\n    /* \"#utility.yul\":810:951   */\ntag_34:\n    /* \"#utility.yul\":859:863   */\n  0x00\n    /* \"#utility.yul\":882:885   */\n  dup2\n    /* \"#utility.yul\":874:885   */\n  swap1\n  pop\n    /* \"#utility.yul\":905:908   */\n  dup2\n    /* \"#utility.yul\":902:903   */\n  0x00\n    /* \"#utility.yul\":895:909   */\n  mstore\n    /* \"#utility.yul\":939:943   */\n  0x20\n    /* \"#utility.yul\":936:937   */\n  0x00\n    /* \"#utility.yul\":926:944   */\n  keccak256\n    /* \"#utility.yul\":918:944   */\n  swap1\n  pop\n    /* \"#utility.yul\":810:951   */\n  swap2\n  swap1\n  pop\n  jump\t// out\n    /* \"#utility.yul\":957:1050   */\ntag_35:\n    /* \"#utility.yul\":994:1000   */\n  0x00\n    /* \"#utility.yul\":1041:1043   */\n  0x20\n    /* \"#utility.yul\":1036:1038   */\n  0x1f\n    /* \"#utility.yul\":1029:1034   */\n  dup4\n    /* \"#utility.yul\":1025:1039   */\n  add\n    /* \"#utility.yul\":1021:1044   */\n  div\n    /* \"#utility.yul\":1011:1044   */\n  swap1\n  pop\n    /* \"#utility.yul\":957:1050   */\n  swap2\n  swap1\n  pop\n  jump\t// out\n    /* \"#utility.yul\":1056:1163   */\ntag_36:\n    /* \"#utility.yul\":1100:1108   */\n  0x00\n    /* \"#utility.yul\":1150:1155   */\n  dup3\n    /* \"#utility.yul\":1144:1148   */\n  dup3\n    /* \"#utility.yul\":1140:1156   */\n  shl\n    /* \"#utility.yul\":1119:1156   */\n  swap1\n  pop\n    /* \"#utility.yul\":1056:1163   */\n  swap3\n  swap2\n  pop\n  pop\n  jump\t// out\n    /* \"#utility.yul\":1169:1562   */\ntag_37:\n    /* \"#utility.yul\":1238:1244   */\n  0x00\n    /* \"#utility.yul\":1288:1289   */\n  0x08\n    /* \"#utility.yul\":1276:1286   */\n  dup4\n    /* \"#utility.yul\":1272:1290   */\n  mul\n    /* \"#utility.yul\":1311:1408   */\n  tag_62\n    /* \"#utility.yul\":1341:1407   */\n  0xffffffffffffffffffffffffffffffffffffffffffffffffffffffffffffffff\n    /* \"#utility.yul\":1330:1339   */\n  dup3\n    /* \"#utility.yul\":1311:1408   */\n  tag_36\n  jump\t// in\ntag_62:\n    /* \"#utility.yul\":1429:1468   */\n  tag_63\n    /* \"#utility.yul\":1459:1467   */\n  dup7\n    /* \"#utility.yul\":1448:1457   */\n  dup4\n    /* \"#utility.yul\":1429:1468   */\n  tag_36\n  jump\t// in\ntag_63:\n    /* \"#utility.yul\":1417:1468   */\n  swap6\n  pop\n    /* \"#utility.yul\":1501:1505   */\n  dup1\n    /* \"#utility.yul\":1497:1506   */\n  not\n    /* \"#utility.yul\":1490:1495   */\n  dup5\n    /* \"#utility.yul\":1486:1507   */\n  and\n    /* \"#utility.yul\":1477:1507   */\n  swap4\n  pop\n    /* \"#utility.yul\":1550:1554   */\n  dup1\n    /* \"#utility.yul\":1540:1548   */\n  dup7\n    /* \"#utility.yul\":1536:1555   */\n  and\n    /* \"#utility.yul\":1529:1534   */\n  dup5\n    /* \"#utility.yul\":1526:1556   */\n  or\n    /* \"#utility.yul\":1516:1556   */\n  swap3\n  pop\n    /* \"#utility.yul\":1245:1562   */\n  pop\n  pop\n    /* \"#utility.yul\":1169:1562   */\n  swap4\n  swap3\n  pop\n  pop\n  pop\n  jump\t// out\n    /* \"#utility.yul\":1568:1645   */\ntag_38:\n    /* \"#utility.yul\":1605:1612   */\n  0x00\n    /* \"#utility.yul\":1634:1639   */\n  dup2\n    /* \"#utility.yul\":1623:1639   */\n  swap1\n  pop\n    /* \"#utility.yul\":1568:1645   */\n  swap2\n  swap1\n  pop\n  jump\t// out\n    /* \"#utility.yul\":1651:1711   */\ntag_39:\n    /* \"#utility.yul\":1679:1682   */\n  0x00\n    /* \"#utility.yul\":1700:1705   */\n  dup2\n    /* \"#utility.yul\":1693:1705   */\n  swap1\n  pop\n    /* \"#utility.yul\":1651:1711   */\n  swap2\n  swap1\n  pop\n  jump\t// out\n    /* \"#utility.yul\":1717:1859   */\ntag_40:\n    /* \"#utility.yul\":1767:1776   */\n  0x00\n    /* \"#utility.yul\":1800:1853   */\n  tag_67\n    /* \"#utility.yul\":1818:1852   */\n  tag_68\n    /* \"#utility.yul\":1827:1851   */\n  tag_69\n    /* \"#utility.yul\":1845:1850   */\n  dup5\n    /* \"#utility.yul\":1827:1851   */\n  tag_38\n  jump\t// in\ntag_69:\n    /* \"#utility.yul\":1818:1852   */\n  tag_39\n  jump\t// in\ntag_68:\n    /* \"#utility.yul\":1800:1853   */\n  tag_38\n  jump\t// in\ntag_67:\n    /* \"#utility.yul\":1787:1853   */\n  swap1\n  pop\n    /* \"#utility.yul\":1717:1859   */\n  swap2\n  swap1\n  pop\n  jump\t// out\n    /* \"#utility.yul\":1865:1940   */\ntag_41:\n    /* \"#utility.yul\":1908:1911   */\n  0x00\n    /* \"#utility.yul\":1929:1934   */\n  dup2\n    /* \"#utility.yul\":1922:1934   */\n  swap1\n  pop\n    /* \"#utility.yul\":1865:1940   */\n  swap2\n  swap1\n  pop\n  jump\t// out\n    /* \"#utility.yul\":1946:2215   */\ntag_42:\n    /* \"#utility.yul\":2056:2095   */\n  tag_72\n    /* \"#utility.yul\":2087:2094   */\n  dup4\n    /* \"#utility.yul\":2056:2095   */\n  tag_40\n  jump\t// in\ntag_72:\n    /* \"#utility.yul\":2117:2208   */\n  tag_73\n    /* \"#utility.yul\":2166:2207   */\n  tag_74\n    /* \"#utility.yul\":2190:2206   */\n  dup3\n    /* \"#utility.yul\":2166:2207   */\n  tag_41\n  jump\t// in\ntag_74:\n    /* \"#utility.yul\":2158:2164   */\n  dup5\n    /* \"#utility.yul\":2151:2155   */\n  dup5\n    /* \"#utility.yul\":2145:2156   */\n  sload\n    /* \"#utility.yul\":2117:2208   */\n  tag_37\n  jump\t// in\ntag_73:\n    /* \"#utility.yul\":2111:2115   */\n  dup3\n    /* \"#utility.yul\":2104:2209   */\n  sstore\n    /* \"#utility.yul\":2022:2215   */\n  pop\n    /* \"#utility.yul\":1946:2215   */\n  pop\n  pop\n  pop\n  jump\t// out\n    /* \"#utility.yul\":2221:2294   */\ntag_43:\n    /* \"#utility.yul\":2266:2269   */\n  0x00\n    /* \"#utility.yul\":2221:2294   */\n  swap1\n  jump\t// out\n    /* \"#utility.yul\":2300:2489   */\ntag_44:\n    /* \"#utility.yul\":2377:2409   */\n  tag_77\n  tag_43\n  jump\t// in\ntag_77:\n    /* \"#utility.yul\":2418:2483   */\n  tag_78\n    /* \"#utility.yul\":2476:2482   */\n  dup2\n    /* \"#utility.yul\":2468:2474   */\n  dup5\n    /* \"#utility.yul\":2462:2466   */\n  dup5\n    /* \"#utility.yul\":2418:2483   */\n  tag_42\n  jump\t// in\ntag_78:\n    /* \"#utility.yul\":2353:2489   */\n  pop\n    /* \"#utility.yul\":2300:2489   */\n  pop\n  pop\n  jump\t// out\n    /* \"#utility.yul\":2495:2681   */\ntag_45:\n    /* \"#utility.yul\":2555:2675   */\ntag_80:\n    /* \"#utility.yul\":2572:2575   */\n  dup2\n    /* \"#utility.yul\":2565:2570   */\n  dup2\n    /* \"#utility.yul\":2562:2576   */\n  lt\n    /* \"#utility.yul\":2555:2675   */\n  iszero\n  tag_82\n  jumpi\n    /* \"#utility.yul\":2626:2665   */\n  tag_83\n    /* \"#utility.yul\":2663:2664   */\n  0x00\n    /* \"#utility.yul\":2656:2661   */\n  dup3\n    /* \"#utility.yul\":2626:2665   */\n  tag_44\n  jump\t// in\ntag_83:\n    /* \"#utility.yul\":2599:2600   */\n  0x01\n    /* \"#utility.yul\":2592:2597   */\n  dup2\n    /* \"#utility.yul\":2588:2601   */\n  add\n    /* \"#utility.yul\":2579:2601   */\n  swap1\n  pop\n    /* \"#utility.yul\":2555:2675   */\n  jump(tag_80)\ntag_82:\n    /* \"#utility.yul\":2495:2681   */\n  pop\n  pop\n  jump\t// out\n    /* \"#utility.yul\":2687:3230   */\ntag_46:\n    /* \"#utility.yul\":2788:2790   */\n  0x1f\n    /* \"#utility.yul\":2783:2786   */\n  dup3\n    /* \"#utility.yul\":2780:2791   */\n  gt\n    /* \"#utility.yul\":2777:3223   */\n  iszero\n  tag_85\n  jumpi\n    /* \"#utility.yul\":2822:2860   */\n  tag_86\n    /* \"#utility.yul\":2854:2859   */\n  dup2\n    /* \"#utility.yul\":2822:2860   */\n  tag_34\n  jump\t// in\ntag_86:\n    /* \"#utility.yul\":2906:2935   */\n  tag_87\n    /* \"#utility.yul\":2924:2934   */\n  dup5\n    /* \"#utility.yul\":2906:2935   */\n  tag_35\n  jump\t// in\ntag_87:\n    /* \"#utility.yul\":2896:2904   */\n  dup2\n    /* \"#utility.yul\":2892:2936   */\n  add\n    /* \"#utility.yul\":3089:3091   */\n  0x20\n    /* \"#utility.yul\":3077:3087   */\n  dup6\n    /* \"#utility.yul\":3074:3092   */\n  lt\n    /* \"#utility.yul\":3071:3120   */\n  iszero\n  tag_88\n  jumpi\n    /* \"#utility.yul\":3110:3118   */\n  dup2\n    /* \"#utility.yul\":3095:3118   */\n  swap1\n  pop\n    /* \"#utility.yul\":3071:3120   */\ntag_88:\n    /* \"#utility.yul\":3133:3213   */\n  tag_89\n    /* \"#utility.yul\":3189:3211   */\n  tag_90\n    /* \"#utility.yul\":3207:3210   */\n  dup6\n    /* \"#utility.yul\":3189:3211   */\n  tag_35\n  jump\t// in\ntag_90:\n    /* \"#utility.yul\":3179:3187   */\n  dup4\n    /* \"#utility.yul\":3175:3212   */\n  add\n    /* \"#utility.yul\":3162:3173   */\n  dup3\n    /* \"#utility.yul\":3133:3213   */\n  tag_45\n  jump\t// in\ntag_89:\n    /* \"#utility.yul\":2792:3223   */\n  pop\n  pop\n    /* \"#utility.yul\":2777:3223   */\ntag_85:\n    /* \"#utility.yul\":2687:3230   */\n  pop\n  pop\n  pop\n  jump\t// out\n    /* \"#utility.yul\":3236:3353   */\ntag_47:\n    /* \"#utility.yul\":3290:3298   */\n  0x00\n    /* \"#utility.yul\":3340:3345   */\n  dup3\n    /* \"#utility.yul\":3334:3338   */\n  dup3\n    /* \"#utility.yul\":3330:3346   */\n  shr\n    /* \"#utility.yul\":3309:3346   */\n  swap1\n  pop\n    /* \"#utility.yul\":3236:3353   */\n  swap3\n  swap2\n  pop\n  pop\n  jump\t// out\n    /* \"#utility.yul\":3359:3528   */\ntag_48:\n    /* \"#utility.yul\":3403:3409   */\n  0x00\n    /* \"#utility.yul\":3436:3487   */\n  tag_93\n    /* \"#utility.yul\":3484:3485   */\n  0x00\n    /* \"#utility.yul\":3480:3486   */\n  not\n    /* \"#utility.yul\":3472:3477   */\n  dup5\n    /* \"#utility.yul\":3469:3470   */\n  0x08\n    /* \"#utility.yul\":3465:3478   */\n  mul\n    /* \"#utility.yul\":3436:3487   */\n  tag_47\n  jump\t// in\ntag_93:\n    /* \"#utility.yul\":3432:3488   */\n  not\n    /* \"#utility.yul\":3517:3521   */\n  dup1\n    /* \"#utility.yul\":3511:3515   */\n  dup4\n    /* \"#utility.yul\":3507:3522   */\n  and\n    /* \"#utility.yul\":3497:3522   */\n  swap2\n  pop\n    /* \"#utility.yul\":3410:3528   */\n  pop\n    /* \"#utility.yul\":3359:3528   */\n  swap3\n  swap2\n  pop\n  pop\n  jump\t// out\n    /* \"#utility.yul\":3533:3828   */\ntag_49:\n    /* \"#utility.yul\":3609:3613   */\n  0x00\n    /* \"#utility.yul\":3755:3784   */\n  tag_95\n    /* \"#utility.yul\":3780:3783   */\n  dup4\n    /* \"#utility.yul\":3774:3778   */\n  dup4\n    /* \"#utility.yul\":3755:3784   */\n  tag_48\n  jump\t// in\ntag_95:\n    /* \"#utility.yul\":3747:3784   */\n  swap2\n  pop\n    /* \"#utility.yul\":3817:3820   */\n  dup3\n    /* \"#utility.yul\":3814:3815   */\n  0x02\n    /* \"#utility.yul\":3810:3821   */\n  mul\n    /* \"#utility.yul\":3804:3808   */\n  dup3\n    /* \"#utility.yul\":3801:3822   */\n  or\n    /* \"#utility.yul\":3793:3822   */\n  swap1\n  pop\n    /* \"#utility.yul\":3533:3828   */\n  swap3\n  swap2\n  pop\n  pop\n  jump\t// out\n    /* \"#utility.yul\":3833:5228   */\ntag_11:\n    /* \"#utility.yul\":3950:3987   */\n  tag_97\n    /* \"#utility.yul\":3983:3986   */\n  dup3\n    /* \"#utility.yul\":3950:3987   */\n  tag_31\n  jump\t// in\ntag_97:\n    /* \"#utility.yul\":4052:4070   */\n  0xffffffffffffffff\n    /* \"#utility.yul\":4044:4050   */\n  dup2\n    /* \"#utility.yul\":4041:4071   */\n  gt\n    /* \"#utility.yul\":4038:4094   */\n  iszero\n  tag_98\n  jumpi\n    /* \"#utility.yul\":4074:4092   */\n  tag_99\n  tag_32\n  jump\t// in\ntag_99:\n    /* \"#utility.yul\":4038:4094   */\ntag_98:\n    /* \"#utility.yul\":4118:4156   */\n  tag_100\n    /* \"#utility.yul\":4150:4154   */\n  dup3\n    /* \"#utility.yul\":4144:4155   */\n  sload\n    /* \"#utility.yul\":4118:4156   */\n  tag_24\n  jump\t// in\ntag_100:\n    /* \"#utility.yul\":4203:4270   */\n  tag_101\n    /* \"#utility.yul\":4263:4269   */\n  dup3\n    /* \"#utility.yul\":4255:4261   */\n  dup3\n    /* \"#utility.yul\":4249:4253   */\n  dup6\n    /* \"#utility.yul\":4203:4270   */\n  tag_46\n  jump\t// in\ntag_101:\n    /* \"#utility.yul\":4297:4298   */\n  0x00\n    /* \"#utility.yul\":4321:4325   */\n  0x20\n    /* \"#utility.yul\":4308:4325   */\n  swap1\n  pop\n    /* \"#utility.yul\":4353:4355   */\n  0x1f\n    /* \"#utility.yul\":4345:4351   */\n  dup4\n    /* \"#utility.yul\":4342:4356   */\n  gt\n    /* \"#utility.yul\":4370:4371   */\n  0x01\n    /* \"#utility.yul\":4365:4983   */\n  dup2\n  eq\n  tag_103\n  jumpi\n    /* \"#utility.yul\":5027:5028   */\n  0x00\n    /* \"#utility.yul\":5044:5050   */\n  dup5\n    /* \"#utility.yul\":5041:5118   */\n  iszero\n  tag_104\n  jumpi\n    /* \"#utility.yul\":5093:5102   */\n  dup3\n    /* \"#utility.yul\":5088:5091   */\n  dup8\n    /* \"#utility.yul\":5084:5103   */\n  add\n    /* \"#utility.yul\":5078:5104   */\n  mload\n    /* \"#utility.yul\":5069:5104   */\n  swap1\n  pop\n    /* \"#utility.yul\":5041:5118   */\ntag_104:\n    /* \"#utility.yul\":5144:5211   */\n  tag_105\n    /* \"#utility.yul\":5204:5210   */\n  dup6\n    /* \"#utility.yul\":5197:5202   */\n  dup3\n    /* \"#utility.yul\":5144:5211   */\n  tag_49\n  jump\t// in\ntag_105:\n    /* \"#utility.yul\":5138:5142   */\n  dup7\n    /* \"#utility.yul\":5131:5212   */\n  sstore\n    /* \"#utility.yul\":5000:5222   */\n  pop\n    /* \"#utility.yul\":4335:5222   */\n  jump(tag_102)\n    /* \"#utility.yul\":4365:4983   */\ntag_103:\n    /* \"#utility.yul\":4417:4421   */\n  0x1f\n    /* \"#utility.yul\":4413:4422   */\n  not\n    /* \"#utility.yul\":4405:4411   */\n  dup5\n    /* \"#utility.yul\":4401:4423   */\n  and\n    /* \"#utility.yul\":4451:4488   */\n  tag_106\n    /* \"#utility.yul\":4483:4487   */\n  dup7\n    /* \"#utility.yul\":4451:4488   */\n  tag_34\n  jump\t// in\ntag_106:\n    /* \"#utility.yul\":4510:4511   */\n  0x00\n    /* \"#utility.yul\":4524:4732   */\ntag_107:\n    /* \"#utility.yul\":4538:4545   */\n  dup3\n    /* \"#utility.yul\":4535:4536   */\n  dup2\n    /* \"#utility.yul\":4532:4546   */\n  lt\n    /* \"#utility.yul\":4524:4732   */\n  iszero\n  tag_109\n  jumpi\n    /* \"#utility.yul\":4617:4626   */\n  dup5\n    /* \"#utility.yul\":4612:4615   */\n  dup10\n    /* \"#utility.yul\":4608:4627   */\n  add\n    /* \"#utility.yul\":4602:4628   */\n  mload\n    /* \"#utility.yul\":4594:4600   */\n  dup3\n    /* \"#utility.yul\":4587:4629   */\n  sstore\n    /* \"#utility.yul\":4668:4669   */\n  0x01\n    /* \"#utility.yul\":4660:4666   */\n  dup3\n    /* \"#utility.yul\":4656:4670   */\n  add\n    /* \"#utility.yul\":4646:4670   */\n  swap2\n  pop\n    /* \"#utility.yul\":4715:4717   */\n  0x20\n    /* \"#utility.yul\":4704:4713   */\n  dup6\n    /* \"#utility.yul\":4700:4718   */\n  add\n    /* \"#utility.yul\":4687:4718   */\n  swap5\n  pop\n    /* \"#utility.yul\":4561:4565   */\n  0x20\n    /* \"#utility.yul\":4558:4559   */\n  dup2\n    /* \"#utility.yul\":4554:4566   */\n  add\n    /* \"#utility.yul\":4549:4566   */\n  swap1\n  pop\n    /* \"#utility.yul\":4524:4732   */\n  jump(tag_107)\ntag_109:\n    /* \"#utility.yul\":4760:4766   */\n  dup7\n    /* \"#utility.yul\":4751:4758   */\n  dup4\n    /* \"#utility.yul\":4748:4767   */\n  lt\n    /* \"#utility.yul\":4745:4924   */\n  iszero\n  tag_110\n  jumpi\n    /* \"#utility.yul\":4818:4827   */\n  dup5\n    /* \"#utility.yul\":4813:4816   */\n  dup10\n    /* \"#utility.yul\":4809:4828   */\n  add\n    /* \"#utility.yul\":4803:4829   */\n  mload\n    /* \"#utility.yul\":4861:4909   */\n  tag_111\n    /* \"#utility.yul\":4903:4907   */\n  0x1f\n    /* \"#utility.yul\":4895:4901   */\n  dup10\n    /* \"#utility.yul\":4891:4908   */\n  and\n    /* \"#utility.yul\":4880:4889   */\n  dup3\n    /* \"#utility.yul\":4861:4909   */\n  tag_48\n  jump\t// in\ntag_111:\n    /* \"#utility.yul\":4853:4859   */\n  dup4\n    /* \"#utility.yul\":4846:4910   */\n  sstore\n    /* \"#utility.yul\":4768:4924   */\n  pop\n    /* \"#utility.yul\":4745:4924   */\ntag_110:\n    /* \"#utility.yul\":4970:4971   */\n  0x01\n    /* \"#utility.yul\":4966:4967   */\n  0x02\n    /* \"#utility.yul\":4958:4964   */\n  dup9\n    /* \"#utility.yul\":4954:4968   */\n  mul\n    /* \"#utility.yul\":4950:4972   */\n  add\n    /* \"#utility.yul\":4944:4948   */\n  dup9\n    /* \"#utility.yul\":4937:4973   */\n  sstore\n    /* \"#utility.yul\":4372:4983   */\n  pop\n  pop\n  pop\n    /* \"#utility.yul\":4335:5222   */\ntag_102:\n  pop\n    /* \"#utility.yul\":3925:5228   */\n  pop\n  pop\n  pop\n    /* \"#utility.yul\":3833:5228   */\n  pop\n  pop\n  jump\t// out\n    /* \"contracts/hangman_final.sol\":61:6298  contract Hangman {... */\ntag_6:\n  dataSize(sub_0)\n  dup1\n  dataOffset(sub_0)\n  0x00\n  codecopy\n  0x00\n  return\nstop\n\nsub_0: assembly {\n        /* \"contracts/hangman_final.sol\":61:6298  contract Hangman {... */\n      mstore(0x40, 0x80)\n      callvalue\n      dup1\n      iszero\n      tag_1\n      jumpi\n      0x00\n      dup1\n      revert\n    tag_1:\n      pop\n      jumpi(tag_2, lt(calldatasize, 0x04))\n      shr(0xe0, calldataload(0x00))\n      dup1\n      0x4eee59b3\n      eq\n      tag_3\n      jumpi\n      dup1\n      0xb7d0628b\n      eq\n      tag_4\n      jumpi\n      dup1\n      0xd1b9252e\n      eq\n      tag_5\n      jumpi\n      dup1\n      0xd65ab5f2\n      eq\n      tag_6\n      jumpi\n      dup1\n      0xfc2b8cc3\n      eq\n      tag_7\n      jumpi\n    tag_2:\n      0x00\n      dup1\n      revert\n        /* \"contracts/hangman_final.sol\":2891:4489  function guess(string memory input) public returns (string memory, uint, string memory, string memory) {... */\n    tag_3:\n      tag_8\n      0x04\n      dup1\n      calldatasize\n      sub\n      dup2\n      add\n      swap1\n      tag_9\n      swap2\n      swap1\n      tag_10\n      jump\t// in\n    tag_9:\n      tag_11\n      jump\t// in\n    tag_8:\n      mload(0x40)\n      tag_12\n      swap5\n      swap4\n      swap3\n      swap2\n      swap1\n      tag_13\n      jump\t// in\n    tag_12:\n      mload(0x40)\n      dup1\n      swap2\n      sub\n      swap1\n      return\n        /* \"contracts/hangman_final.sol\":2646:2883  function getGameState() public view returns (string memory, uint, string memory, string memory) {... */\n    tag_4:\n      tag_14\n      tag_15\n      jump\t// in\n    tag_14:\n      mload(0x40)\n      tag_16\n      swap5\n      swap4\n      swap3\n      swap2\n      swap1\n      tag_13\n      jump\t// in\n    tag_16:\n      mload(0x40)\n      dup1\n      swap2\n      sub\n      swap1\n      return\n        /* \"contracts/hangman_final.sol\":5066:5411  function displayTimeLeft() public view returns (string memory) {... */\n    tag_5:\n      tag_17\n      tag_18\n      jump\t// in\n    tag_17:\n      mload(0x40)\n      tag_19\n      swap2\n      swap1\n      tag_20\n      jump\t// in\n    tag_19:\n      mload(0x40)\n      dup1\n      swap2\n      sub\n      swap1\n      return\n        /* \"contracts/hangman_final.sol\":1717:2638  function startGame() public {... */\n    tag_6:\n      tag_21\n      tag_22\n      jump\t// in\n    tag_21:\n      stop\n        /* \"contracts/hangman_final.sol\":5419:5584  function quit() public {... */\n    tag_7:\n      tag_23\n      tag_24\n      jump\t// in\n    tag_23:\n      stop\n        /* \"contracts/hangman_final.sol\":2891:4489  function guess(string memory input) public returns (string memory, uint, string memory, string memory) {... */\n    tag_11:\n        /* \"contracts/hangman_final.sol\":2943:2956  string memory */\n      0x60\n        /* \"contracts/hangman_final.sol\":2958:2962  uint */\n      0x00\n        /* \"contracts/hangman_final.sol\":2964:2977  string memory */\n      0x60\n        /* \"contracts/hangman_final.sol\":2979:2992  string memory */\n      dup1\n        /* \"contracts/hangman_final.sol\":3013:3023  gameActive */\n      0x35\n      0x00\n      swap1\n      sload\n      swap1\n      0x0100\n      exp\n      swap1\n      div\n      0xff\n      and\n        /* \"contracts/hangman_final.sol\":3005:3043  require(gameActive, \"Game has ended.\") */\n      tag_26\n      jumpi\n      mload(0x40)\n      0x08c379a000000000000000000000000000000000000000000000000000000000\n      dup2\n      mstore\n      0x04\n      add\n      tag_27\n      swap1\n      tag_28\n      jump\t// in\n    tag_27:\n      mload(0x40)\n      dup1\n      swap2\n      sub\n      swap1\n      revert\n    tag_26:\n        /* \"contracts/hangman_final.sol\":3085:3086  1 */\n      0x01\n        /* \"contracts/hangman_final.sol\":3068:3073  input */\n      dup6\n        /* \"contracts/hangman_final.sol\":3062:3081  bytes(input).length */\n      mload\n        /* \"contracts/hangman_final.sol\":3062:3086  bytes(input).length == 1 */\n      eq\n        /* \"contracts/hangman_final.sol\":3054:3124  require(bytes(input).length == 1, \"Input must be a single character.\") */\n      tag_29\n      jumpi\n      mload(0x40)\n      0x08c379a000000000000000000000000000000000000000000000000000000000\n      dup2\n      mstore\n      0x04\n      add\n      tag_30\n      swap1\n      tag_31\n      jump\t// in\n    tag_30:\n      mload(0x40)\n      dup1\n      swap2\n      sub\n      swap1\n      revert\n    tag_29:\n        /* \"contracts/hangman_final.sol\":1201:1210  2 minutes */\n      0x78\n        /* \"contracts/hangman_final.sol\":3159:3172  gameStartTime */\n      sload(0x36)\n        /* \"contracts/hangman_final.sol\":3159:3187  gameStartTime + gameDuration */\n      tag_32\n      swap2\n      swap1\n      tag_33\n      jump\t// in\n    tag_32:\n        /* \"contracts/hangman_final.sol\":3141:3156  block.timestamp */\n      timestamp\n        /* \"contracts/hangman_final.sol\":3141:3187  block.timestamp > gameStartTime + gameDuration */\n      gt\n        /* \"contracts/hangman_final.sol\":3137:3447  if (block.timestamp > gameStartTime + gameDuration) {... */\n      iszero\n      tag_34\n      jumpi\n        /* \"contracts/hangman_final.sol\":3217:3222  false */\n      0x00\n        /* \"contracts/hangman_final.sol\":3204:3214  gameActive */\n      0x35\n      0x00\n        /* \"contracts/hangman_final.sol\":3204:3222  gameActive = false */\n      0x0100\n      exp\n      dup2\n      sload\n      dup2\n      0xff\n      mul\n      not\n      and\n      swap1\n      dup4\n      iszero\n      iszero\n      mul\n      or\n      swap1\n      sstore\n      pop\n        /* \"contracts/hangman_final.sol\":3242:3277  GameTimeLeft(\"Time limit reached.\") */\n      0xaf1ade955695dd7cb8833b69ad71fc489f552aca5609812e9f4567e5e45088\n      mload(0x40)\n      tag_35\n      swap1\n      tag_36\n      jump\t// in\n    tag_35:\n      mload(0x40)\n      dup1\n      swap2\n      sub\n      swap1\n      log1\n        /* \"contracts/hangman_final.sol\":3297:3347  GameEnded(\"Game over. You didn't finish in time.\") */\n      0x056e3895424a85ef26c4c78d9988dea28d97c77c140b919289906403e8017170\n      mload(0x40)\n      tag_37\n      swap1\n      tag_38\n      jump\t// in\n    tag_37:\n      mload(0x40)\n      dup1\n      swap2\n      sub\n      swap1\n      log1\n        /* \"contracts/hangman_final.sol\":3370:3381  hangmanWord */\n      0x33\n        /* \"contracts/hangman_final.sol\":3383:3395  attemptsLeft */\n      sload(0x34)\n        /* \"contracts/hangman_final.sol\":3397:3414  getWrongGuesses() */\n      tag_39\n        /* \"contracts/hangman_final.sol\":3397:3412  getWrongGuesses */\n      tag_40\n        /* \"contracts/hangman_final.sol\":3397:3414  getWrongGuesses() */\n      jump\t// in\n    tag_39:\n        /* \"contracts/hangman_final.sol\":3416:3434  getHangmanFigure() */\n      tag_41\n        /* \"contracts/hangman_final.sol\":3416:3432  getHangmanFigure */\n      tag_42\n        /* \"contracts/hangman_final.sol\":3416:3434  getHangmanFigure() */\n      jump\t// in\n    tag_41:\n        /* \"contracts/hangman_final.sol\":3362:3435  return (hangmanWord, attemptsLeft, getWrongGuesses(), getHangmanFigure()) */\n      dup4\n      dup1\n      sload\n      tag_43\n      swap1\n      tag_44\n      jump\t// in\n    tag_43:\n      dup1\n      0x1f\n      add\n      0x20\n      dup1\n      swap2\n      div\n      mul\n      0x20\n      add\n      mload(0x40)\n      swap1\n      dup2\n      add\n      0x40\n      mstore\n      dup1\n      swap3\n      swap2\n      swap1\n      dup2\n      dup2\n      mstore\n      0x20\n      add\n      dup3\n      dup1\n      sload\n      tag_45\n      swap1\n      tag_44\n      jump\t// in\n    tag_45:\n      dup1\n      iszero\n      tag_46\n      jumpi\n      dup1\n      0x1f\n      lt\n      tag_47\n      jumpi\n      0x0100\n      dup1\n      dup4\n      sload\n      div\n      mul\n      dup4\n      mstore\n      swap2\n      0x20\n      add\n      swap2\n      jump(tag_46)\n    tag_47:\n      dup3\n      add\n      swap2\n      swap1\n      0x00\n      mstore\n      keccak256(0x00, 0x20)\n      swap1\n    tag_48:\n      dup2\n      sload\n      dup2\n      mstore\n      swap1\n      0x01\n      add\n      swap1\n      0x20\n      add\n      dup1\n      dup4\n      gt\n      tag_48\n      jumpi\n      dup3\n      swap1\n      sub\n      0x1f\n      and\n      dup3\n      add\n      swap2\n    tag_46:\n      pop\n      pop\n      pop\n      pop\n      pop\n      swap4\n      pop\n      swap4\n      pop\n      swap4\n      pop\n      swap4\n      pop\n      swap4\n      pop\n      jump(tag_25)\n        /* \"contracts/hangman_final.sol\":3137:3447  if (block.timestamp > gameStartTime + gameDuration) {... */\n    tag_34:\n        /* \"contracts/hangman_final.sol\":3459:3479  bytes1 guessedLetter */\n      0x00\n        /* \"contracts/hangman_final.sol\":3482:3510  toLowerCase(bytes(input)[0]) */\n      tag_49\n        /* \"contracts/hangman_final.sol\":3500:3505  input */\n      dup7\n        /* \"contracts/hangman_final.sol\":3507:3508  0 */\n      0x00\n        /* \"contracts/hangman_final.sol\":3494:3509  bytes(input)[0] */\n      dup2\n      mload\n      dup2\n      lt\n      tag_50\n      jumpi\n      tag_51\n      tag_52\n      jump\t// in\n    tag_51:\n    tag_50:\n      0x20\n      add\n      add\n      mload\n      0xf8\n      shr\n      0xf8\n      shl\n        /* \"contracts/hangman_final.sol\":3482:3493  toLowerCase */\n      tag_53\n        /* \"contracts/hangman_final.sol\":3482:3510  toLowerCase(bytes(input)[0]) */\n      jump\t// in\n    tag_49:\n        /* \"contracts/hangman_final.sol\":3459:3510  bytes1 guessedLetter = toLowerCase(bytes(input)[0]) */\n      swap1\n      pop\n        /* \"contracts/hangman_final.sol\":3521:3538  bool correctGuess */\n      0x00\n        /* \"contracts/hangman_final.sol\":3557:3582  bytes memory hangmanBytes */\n      dup1\n        /* \"contracts/hangman_final.sol\":3591:3602  hangmanWord */\n      0x33\n        /* \"contracts/hangman_final.sol\":3557:3603  bytes memory hangmanBytes = bytes(hangmanWord) */\n      dup1\n      sload\n      tag_54\n      swap1\n      tag_44\n      jump\t// in\n    tag_54:\n      dup1\n      0x1f\n      add\n      0x20\n      dup1\n      swap2\n      div\n      mul\n      0x20\n      add\n      mload(0x40)\n      swap1\n      dup2\n      add\n      0x40\n      mstore\n      dup1\n      swap3\n      swap2\n      swap1\n      dup2\n      dup2\n      mstore\n      0x20\n      add\n      dup3\n      dup1\n      sload\n      tag_55\n      swap1\n      tag_44\n      jump\t// in\n    tag_55:\n      dup1\n      iszero\n      tag_56\n      jumpi\n      dup1\n      0x1f\n      lt\n      tag_57\n      jumpi\n      0x0100\n      dup1\n      dup4\n      sload\n      div\n      mul\n      dup4\n      mstore\n      swap2\n      0x20\n      add\n      swap2\n      jump(tag_56)\n    tag_57:\n      dup3\n      add\n      swap2\n      swap1\n      0x00\n      mstore\n      keccak256(0x00, 0x20)\n      swap1\n    tag_58:\n      dup2\n      sload\n      dup2\n      mstore\n      swap1\n      0x01\n      add\n      swap1\n      0x20\n      add\n      dup1\n      dup4\n      gt\n      tag_58\n      jumpi\n      dup3\n      swap1\n      sub\n      0x1f\n      and\n      dup3\n      add\n      swap2\n    tag_56:\n      pop\n      pop\n      pop\n      pop\n      pop\n      swap1\n      pop\n        /* \"contracts/hangman_final.sol\":3614:3636  bytes memory wordBytes */\n      0x00\n        /* \"contracts/hangman_final.sol\":3645:3653  currWord */\n      0x32\n        /* \"contracts/hangman_final.sol\":3614:3654  bytes memory wordBytes = bytes(currWord) */\n      dup1\n      sload\n      tag_59\n      swap1\n      tag_44\n      jump\t// in\n    tag_59:\n      dup1\n      0x1f\n      add\n      0x20\n      dup1\n      swap2\n      div\n      mul\n      0x20\n      add\n      mload(0x40)\n      swap1\n      dup2\n      add\n      0x40\n      mstore\n      dup1\n      swap3\n      swap2\n      swap1\n      dup2\n      dup2\n      mstore\n      0x20\n      add\n      dup3\n      dup1\n      sload\n      tag_60\n      swap1\n      tag_44\n      jump\t// in\n    tag_60:\n      dup1\n      iszero\n      tag_61\n      jumpi\n      dup1\n      0x1f\n      lt\n      tag_62\n      jumpi\n      0x0100\n      dup1\n      dup4\n      sload\n      div\n      mul\n      dup4\n      mstore\n      swap2\n      0x20\n      add\n      swap2\n      jump(tag_61)\n    tag_62:\n      dup3\n      add\n      swap2\n      swap1\n      0x00\n      mstore\n      keccak256(0x00, 0x20)\n      swap1\n    tag_63:\n      dup2\n      sload\n      dup2\n      mstore\n      swap1\n      0x01\n      add\n      swap1\n      0x20\n      add\n      dup1\n      dup4\n      gt\n      tag_63\n      jumpi\n      dup3\n      swap1\n      sub\n      0x1f\n      and\n      dup3\n      add\n      swap2\n    tag_61:\n      pop\n      pop\n      pop\n      pop\n      pop\n      swap1\n      pop\n        /* \"contracts/hangman_final.sol\":3672:3678  uint i */\n      0x00\n        /* \"contracts/hangman_final.sol\":3667:3892  for (uint i = 0; i < wordBytes.length; i++) {... */\n    tag_64:\n        /* \"contracts/hangman_final.sol\":3688:3697  wordBytes */\n      dup2\n        /* \"contracts/hangman_final.sol\":3688:3704  wordBytes.length */\n      mload\n        /* \"contracts/hangman_final.sol\":3684:3685  i */\n      dup2\n        /* \"contracts/hangman_final.sol\":3684:3704  i < wordBytes.length */\n      lt\n        /* \"contracts/hangman_final.sol\":3667:3892  for (uint i = 0; i < wordBytes.length; i++) {... */\n      iszero\n      tag_65\n      jumpi\n        /* \"contracts/hangman_final.sol\":3759:3772  guessedLetter */\n      dup5\n        /* \"contracts/hangman_final.sol\":3730:3772  toLowerCase(wordBytes[i]) == guessedLetter */\n      not(0xffffffffffffffffffffffffffffffffffffffffffffffffffffffffffffff)\n      and\n        /* \"contracts/hangman_final.sol\":3730:3755  toLowerCase(wordBytes[i]) */\n      tag_67\n        /* \"contracts/hangman_final.sol\":3742:3751  wordBytes */\n      dup4\n        /* \"contracts/hangman_final.sol\":3752:3753  i */\n      dup4\n        /* \"contracts/hangman_final.sol\":3742:3754  wordBytes[i] */\n      dup2\n      mload\n      dup2\n      lt\n      tag_68\n      jumpi\n      tag_69\n      tag_52\n      jump\t// in\n    tag_69:\n    tag_68:\n      0x20\n      add\n      add\n      mload\n      0xf8\n      shr\n      0xf8\n      shl\n        /* \"contracts/hangman_final.sol\":3730:3741  toLowerCase */\n      tag_53\n        /* \"contracts/hangman_final.sol\":3730:3755  toLowerCase(wordBytes[i]) */\n      jump\t// in\n    tag_67:\n        /* \"contracts/hangman_final.sol\":3730:3772  toLowerCase(wordBytes[i]) == guessedLetter */\n      not(0xffffffffffffffffffffffffffffffffffffffffffffffffffffffffffffff)\n      and\n      sub\n        /* \"contracts/hangman_final.sol\":3726:3881  if (toLowerCase(wordBytes[i]) == guessedLetter) {... */\n      tag_70\n      jumpi\n        /* \"contracts/hangman_final.sol\":3815:3824  wordBytes */\n      dup2\n        /* \"contracts/hangman_final.sol\":3825:3826  i */\n      dup2\n        /* \"contracts/hangman_final.sol\":3815:3827  wordBytes[i] */\n      dup2\n      mload\n      dup2\n      lt\n      tag_71\n      jumpi\n      tag_72\n      tag_52\n      jump\t// in\n    tag_72:\n    tag_71:\n      0x20\n      add\n      add\n      mload\n      0xf8\n      shr\n      0xf8\n      shl\n        /* \"contracts/hangman_final.sol\":3793:3805  hangmanBytes */\n      dup4\n        /* \"contracts/hangman_final.sol\":3810:3811  2 */\n      0x02\n        /* \"contracts/hangman_final.sol\":3806:3807  i */\n      dup4\n        /* \"contracts/hangman_final.sol\":3806:3811  i * 2 */\n      tag_73\n      swap2\n      swap1\n      tag_74\n      jump\t// in\n    tag_73:\n        /* \"contracts/hangman_final.sol\":3793:3812  hangmanBytes[i * 2] */\n      dup2\n      mload\n      dup2\n      lt\n      tag_75\n      jumpi\n      tag_76\n      tag_52\n      jump\t// in\n    tag_76:\n    tag_75:\n      0x20\n      add\n      add\n        /* \"contracts/hangman_final.sol\":3793:3827  hangmanBytes[i * 2] = wordBytes[i] */\n      swap1\n      not(0xffffffffffffffffffffffffffffffffffffffffffffffffffffffffffffff)\n      and\n      swap1\n      dup2\n      0x00\n      byte\n      swap1\n      mstore8\n      pop\n        /* \"contracts/hangman_final.sol\":3861:3865  true */\n      0x01\n        /* \"contracts/hangman_final.sol\":3846:3865  correctGuess = true */\n      swap4\n      pop\n        /* \"contracts/hangman_final.sol\":3726:3881  if (toLowerCase(wordBytes[i]) == guessedLetter) {... */\n    tag_70:\n        /* \"contracts/hangman_final.sol\":3706:3709  i++ */\n      dup1\n      dup1\n      0x01\n      add\n      swap2\n      pop\n      pop\n        /* \"contracts/hangman_final.sol\":3667:3892  for (uint i = 0; i < wordBytes.length; i++) {... */\n      jump(tag_64)\n    tag_65:\n      pop\n        /* \"contracts/hangman_final.sol\":3925:3937  hangmanBytes */\n      dup2\n        /* \"contracts/hangman_final.sol\":3904:3915  hangmanWord */\n      0x33\n        /* \"contracts/hangman_final.sol\":3904:3938  hangmanWord = string(hangmanBytes) */\n      swap1\n      dup2\n      tag_77\n      swap2\n      swap1\n      tag_78\n      jump\t// in\n    tag_77:\n      pop\n        /* \"contracts/hangman_final.sol\":3956:3968  correctGuess */\n      dup3\n        /* \"contracts/hangman_final.sol\":3951:4305  if (!correctGuess) {... */\n      tag_79\n      jumpi\n        /* \"contracts/hangman_final.sol\":3990:4002  wrongGuesses */\n      0x37\n        /* \"contracts/hangman_final.sol\":3990:4017  wrongGuesses[guessedLetter] */\n      0x00\n        /* \"contracts/hangman_final.sol\":4003:4016  guessedLetter */\n      dup6\n        /* \"contracts/hangman_final.sol\":3990:4017  wrongGuesses[guessedLetter] */\n      not(0xffffffffffffffffffffffffffffffffffffffffffffffffffffffffffffff)\n      and\n      not(0xffffffffffffffffffffffffffffffffffffffffffffffffffffffffffffff)\n      and\n      dup2\n      mstore\n      0x20\n      add\n      swap1\n      dup2\n      mstore\n      0x20\n      add\n      0x00\n      keccak256\n      0x00\n      swap1\n      sload\n      swap1\n      0x0100\n      exp\n      swap1\n      div\n      0xff\n      and\n        /* \"contracts/hangman_final.sol\":3985:4294  if (!wrongGuesses[guessedLetter]) {... */\n      tag_80\n      jumpi\n        /* \"contracts/hangman_final.sol\":4068:4072  true */\n      0x01\n        /* \"contracts/hangman_final.sol\":4038:4050  wrongGuesses */\n      0x37\n        /* \"contracts/hangman_final.sol\":4038:4065  wrongGuesses[guessedLetter] */\n      0x00\n        /* \"contracts/hangman_final.sol\":4051:4064  guessedLetter */\n      dup7\n        /* \"contracts/hangman_final.sol\":4038:4065  wrongGuesses[guessedLetter] */\n      not(0xffffffffffffffffffffffffffffffffffffffffffffffffffffffffffffff)\n      and\n      not(0xffffffffffffffffffffffffffffffffffffffffffffffffffffffffffffff)\n      and\n      dup2\n      mstore\n      0x20\n      add\n      swap1\n      dup2\n      mstore\n      0x20\n      add\n      0x00\n      keccak256\n      0x00\n        /* \"contracts/hangman_final.sol\":4038:4072  wrongGuesses[guessedLetter] = true */\n      0x0100\n      exp\n      dup2\n      sload\n      dup2\n      0xff\n      mul\n      not\n      and\n      swap1\n      dup4\n      iszero\n      iszero\n      mul\n      or\n      swap1\n      sstore\n      pop\n        /* \"contracts/hangman_final.sol\":4091:4103  attemptsLeft */\n      0x34\n      0x00\n        /* \"contracts/hangman_final.sol\":4091:4105  attemptsLeft-- */\n      dup2\n      sload\n      dup1\n      swap3\n      swap2\n      swap1\n      tag_81\n      swap1\n      tag_82\n      jump\t// in\n    tag_81:\n      swap2\n      swap1\n      pop\n      sstore\n      pop\n        /* \"contracts/hangman_final.sol\":4146:4147  0 */\n      0x00\n        /* \"contracts/hangman_final.sol\":4130:4142  attemptsLeft */\n      sload(0x34)\n        /* \"contracts/hangman_final.sol\":4130:4147  attemptsLeft == 0 */\n      sub\n        /* \"contracts/hangman_final.sol\":4126:4279  if (attemptsLeft == 0) {... */\n      tag_83\n      jumpi\n        /* \"contracts/hangman_final.sol\":4185:4190  false */\n      0x00\n        /* \"contracts/hangman_final.sol\":4172:4182  gameActive */\n      0x35\n      0x00\n        /* \"contracts/hangman_final.sol\":4172:4190  gameActive = false */\n      0x0100\n      exp\n      dup2\n      sload\n      dup2\n      0xff\n      mul\n      not\n      and\n      swap1\n      dup4\n      iszero\n      iszero\n      mul\n      or\n      swap1\n      sstore\n      pop\n        /* \"contracts/hangman_final.sol\":4218:4259  GameEnded(\"Game over. No attempts left.\") */\n      0x056e3895424a85ef26c4c78d9988dea28d97c77c140b919289906403e8017170\n      mload(0x40)\n      tag_84\n      swap1\n      tag_85\n      jump\t// in\n    tag_84:\n      mload(0x40)\n      dup1\n      swap2\n      sub\n      swap1\n      log1\n        /* \"contracts/hangman_final.sol\":4126:4279  if (attemptsLeft == 0) {... */\n    tag_83:\n        /* \"contracts/hangman_final.sol\":3985:4294  if (!wrongGuesses[guessedLetter]) {... */\n    tag_80:\n        /* \"contracts/hangman_final.sol\":3951:4305  if (!correctGuess) {... */\n    tag_79:\n        /* \"contracts/hangman_final.sol\":4322:4397  GuessMade(hangmanWord, attemptsLeft, getWrongGuesses(), getHangmanFigure()) */\n      0x1512161b9f23a85fd9ccec12d9cd3abeb7333bf293dc69250460c4c054a27fc6\n        /* \"contracts/hangman_final.sol\":4332:4343  hangmanWord */\n      0x33\n        /* \"contracts/hangman_final.sol\":4345:4357  attemptsLeft */\n      sload(0x34)\n        /* \"contracts/hangman_final.sol\":4359:4376  getWrongGuesses() */\n      tag_86\n        /* \"contracts/hangman_final.sol\":4359:4374  getWrongGuesses */\n      tag_40\n        /* \"contracts/hangman_final.sol\":4359:4376  getWrongGuesses() */\n      jump\t// in\n    tag_86:\n        /* \"contracts/hangman_final.sol\":4378:4396  getHangmanFigure() */\n      tag_87\n        /* \"contracts/hangman_final.sol\":4378:4394  getHangmanFigure */\n      tag_42\n        /* \"contracts/hangman_final.sol\":4378:4396  getHangmanFigure() */\n      jump\t// in\n    tag_87:\n        /* \"contracts/hangman_final.sol\":4322:4397  GuessMade(hangmanWord, attemptsLeft, getWrongGuesses(), getHangmanFigure()) */\n      mload(0x40)\n      tag_88\n      swap5\n      swap4\n      swap3\n      swap2\n      swap1\n      tag_89\n      jump\t// in\n    tag_88:\n      mload(0x40)\n      dup1\n      swap2\n      sub\n      swap1\n      log1\n        /* \"contracts/hangman_final.sol\":4416:4427  hangmanWord */\n      0x33\n        /* \"contracts/hangman_final.sol\":4429:4441  attemptsLeft */\n      sload(0x34)\n        /* \"contracts/hangman_final.sol\":4443:4460  getWrongGuesses() */\n      tag_90\n        /* \"contracts/hangman_final.sol\":4443:4458  getWrongGuesses */\n      tag_40\n        /* \"contracts/hangman_final.sol\":4443:4460  getWrongGuesses() */\n      jump\t// in\n    tag_90:\n        /* \"contracts/hangman_final.sol\":4462:4480  getHangmanFigure() */\n      tag_91\n        /* \"contracts/hangman_final.sol\":4462:4478  getHangmanFigure */\n      tag_42\n        /* \"contracts/hangman_final.sol\":4462:4480  getHangmanFigure() */\n      jump\t// in\n    tag_91:\n        /* \"contracts/hangman_final.sol\":4408:4481  return (hangmanWord, attemptsLeft, getWrongGuesses(), getHangmanFigure()) */\n      dup4\n      dup1\n      sload\n      tag_92\n      swap1\n      tag_44\n      jump\t// in\n    tag_92:\n      dup1\n      0x1f\n      add\n      0x20\n      dup1\n      swap2\n      div\n      mul\n      0x20\n      add\n      mload(0x40)\n      swap1\n      dup2\n      add\n      0x40\n      mstore\n      dup1\n      swap3\n      swap2\n      swap1\n      dup2\n      dup2\n      mstore\n      0x20\n      add\n      dup3\n      dup1\n      sload\n      tag_93\n      swap1\n      tag_44\n      jump\t// in\n    tag_93:\n      dup1\n      iszero\n      tag_94\n      jumpi\n      dup1\n      0x1f\n      lt\n      tag_95\n      jumpi\n      0x0100\n      dup1\n      dup4\n      sload\n      div\n      mul\n      dup4\n      mstore\n      swap2\n      0x20\n      add\n      swap2\n      jump(tag_94)\n    tag_95:\n      dup3\n      add\n      swap2\n      swap1\n      0x00\n      mstore\n      keccak256(0x00, 0x20)\n      swap1\n    tag_96:\n      dup2\n      sload\n      dup2\n      mstore\n      swap1\n      0x01\n      add\n      swap1\n      0x20\n      add\n      dup1\n      dup4\n      gt\n      tag_96\n      jumpi\n      dup3\n      swap1\n      sub\n      0x1f\n      and\n      dup3\n      add\n      swap2\n    tag_94:\n      pop\n      pop\n      pop\n      pop\n      pop\n      swap4\n      pop\n      swap8\n      pop\n      swap8\n      pop\n      swap8\n      pop\n      swap8\n      pop\n      pop\n      pop\n      pop\n      pop\n        /* \"contracts/hangman_final.sol\":2891:4489  function guess(string memory input) public returns (string memory, uint, string memory, string memory) {... */\n    tag_25:\n      swap2\n      swap4\n      pop\n      swap2\n      swap4\n      jump\t// out\n        /* \"contracts/hangman_final.sol\":2646:2883  function getGameState() public view returns (string memory, uint, string memory, string memory) {... */\n    tag_15:\n        /* \"contracts/hangman_final.sol\":2691:2704  string memory */\n      0x60\n        /* \"contracts/hangman_final.sol\":2706:2710  uint */\n      0x00\n        /* \"contracts/hangman_final.sol\":2712:2725  string memory */\n      0x60\n        /* \"contracts/hangman_final.sol\":2727:2740  string memory */\n      dup1\n        /* \"contracts/hangman_final.sol\":2761:2771  gameActive */\n      0x35\n      0x00\n      swap1\n      sload\n      swap1\n      0x0100\n      exp\n      swap1\n      div\n      0xff\n      and\n        /* \"contracts/hangman_final.sol\":2753:2791  require(gameActive, \"No active game.\") */\n      tag_98\n      jumpi\n      mload(0x40)\n      0x08c379a000000000000000000000000000000000000000000000000000000000\n      dup2\n      mstore\n      0x04\n      add\n      tag_99\n      swap1\n      tag_100\n      jump\t// in\n    tag_99:\n      mload(0x40)\n      dup1\n      swap2\n      sub\n      swap1\n      revert\n    tag_98:\n        /* \"contracts/hangman_final.sol\":2810:2821  hangmanWord */\n      0x33\n        /* \"contracts/hangman_final.sol\":2823:2835  attemptsLeft */\n      sload(0x34)\n        /* \"contracts/hangman_final.sol\":2837:2854  getWrongGuesses() */\n      tag_101\n        /* \"contracts/hangman_final.sol\":2837:2852  getWrongGuesses */\n      tag_40\n        /* \"contracts/hangman_final.sol\":2837:2854  getWrongGuesses() */\n      jump\t// in\n    tag_101:\n        /* \"contracts/hangman_final.sol\":2856:2874  getHangmanFigure() */\n      tag_102\n        /* \"contracts/hangman_final.sol\":2856:2872  getHangmanFigure */\n      tag_42\n        /* \"contracts/hangman_final.sol\":2856:2874  getHangmanFigure() */\n      jump\t// in\n    tag_102:\n        /* \"contracts/hangman_final.sol\":2802:2875  return (hangmanWord, attemptsLeft, getWrongGuesses(), getHangmanFigure()) */\n      dup4\n      dup1\n      sload\n      tag_103\n      swap1\n      tag_44\n      jump\t// in\n    tag_103:\n      dup1\n      0x1f\n      add\n      0x20\n      dup1\n      swap2\n      div\n      mul\n      0x20\n      add\n      mload(0x40)\n      swap1\n      dup2\n      add\n      0x40\n      mstore\n      dup1\n      swap3\n      swap2\n      swap1\n      dup2\n      dup2\n      mstore\n      0x20\n      add\n      dup3\n      dup1\n      sload\n      tag_104\n      swap1\n      tag_44\n      jump\t// in\n    tag_104:\n      dup1\n      iszero\n      tag_105\n      jumpi\n      dup1\n      0x1f\n      lt\n      tag_106\n      jumpi\n      0x0100\n      dup1\n      dup4\n      sload\n      div\n      mul\n      dup4\n      mstore\n      swap2\n      0x20\n      add\n      swap2\n      jump(tag_105)\n    tag_106:\n      dup3\n      add\n      swap2\n      swap1\n      0x00\n      mstore\n      keccak256(0x00, 0x20)\n      swap1\n    tag_107:\n      dup2\n      sload\n      dup2\n      mstore\n      swap1\n      0x01\n      add\n      swap1\n      0x20\n      add\n      dup1\n      dup4\n      gt\n      tag_107\n      jumpi\n      dup3\n      swap1\n      sub\n      0x1f\n      and\n      dup3\n      add\n      swap2\n    tag_105:\n      pop\n      pop\n      pop\n      pop\n      pop\n      swap4\n      pop\n      swap4\n      pop\n      swap4\n      pop\n      swap4\n      pop\n      swap4\n      pop\n        /* \"contracts/hangman_final.sol\":2646:2883  function getGameState() public view returns (string memory, uint, string memory, string memory) {... */\n      swap1\n      swap2\n      swap3\n      swap4\n      jump\t// out\n        /* \"contracts/hangman_final.sol\":5066:5411  function displayTimeLeft() public view returns (string memory) {... */\n    tag_18:\n        /* \"contracts/hangman_final.sol\":5114:5127  string memory */\n      0x60\n        /* \"contracts/hangman_final.sol\":5148:5158  gameActive */\n      0x35\n      0x00\n      swap1\n      sload\n      swap1\n      0x0100\n      exp\n      swap1\n      div\n      0xff\n      and\n        /* \"contracts/hangman_final.sol\":5140:5178  require(gameActive, \"No active game.\") */\n      tag_109\n      jumpi\n      mload(0x40)\n      0x08c379a000000000000000000000000000000000000000000000000000000000\n      dup2\n      mstore\n      0x04\n      add\n      tag_110\n      swap1\n      tag_100\n      jump\t// in\n    tag_110:\n      mload(0x40)\n      dup1\n      swap2\n      sub\n      swap1\n      revert\n    tag_109:\n        /* \"contracts/hangman_final.sol\":5189:5205  uint256 timeLeft */\n      0x00\n        /* \"contracts/hangman_final.sol\":5239:5254  block.timestamp */\n      timestamp\n        /* \"contracts/hangman_final.sol\":1201:1210  2 minutes */\n      0x78\n        /* \"contracts/hangman_final.sol\":5208:5221  gameStartTime */\n      sload(0x36)\n        /* \"contracts/hangman_final.sol\":5208:5236  gameStartTime + gameDuration */\n      tag_111\n      swap2\n      swap1\n      tag_33\n      jump\t// in\n    tag_111:\n        /* \"contracts/hangman_final.sol\":5208:5254  gameStartTime + gameDuration > block.timestamp */\n      gt\n        /* \"contracts/hangman_final.sol\":5208:5307  gameStartTime + gameDuration > block.timestamp ? gameStartTime + gameDuration - block.timestamp : 0 */\n      tag_112\n      jumpi\n        /* \"contracts/hangman_final.sol\":5306:5307  0 */\n      0x00\n        /* \"contracts/hangman_final.sol\":5208:5307  gameStartTime + gameDuration > block.timestamp ? gameStartTime + gameDuration - block.timestamp : 0 */\n      jump(tag_113)\n    tag_112:\n        /* \"contracts/hangman_final.sol\":5288:5303  block.timestamp */\n      timestamp\n        /* \"contracts/hangman_final.sol\":1201:1210  2 minutes */\n      0x78\n        /* \"contracts/hangman_final.sol\":5257:5270  gameStartTime */\n      sload(0x36)\n        /* \"contracts/hangman_final.sol\":5257:5285  gameStartTime + gameDuration */\n      tag_114\n      swap2\n      swap1\n      tag_33\n      jump\t// in\n    tag_114:\n        /* \"contracts/hangman_final.sol\":5257:5303  gameStartTime + gameDuration - block.timestamp */\n      tag_115\n      swap2\n      swap1\n      tag_116\n      jump\t// in\n    tag_115:\n        /* \"contracts/hangman_final.sol\":5208:5307  gameStartTime + gameDuration > block.timestamp ? gameStartTime + gameDuration - block.timestamp : 0 */\n    tag_113:\n        /* \"contracts/hangman_final.sol\":5189:5307  uint256 timeLeft = gameStartTime + gameDuration > block.timestamp ? gameStartTime + gameDuration - block.timestamp : 0 */\n      swap1\n      pop\n        /* \"contracts/hangman_final.sol\":5362:5384  uintToString(timeLeft) */\n      tag_117\n        /* \"contracts/hangman_final.sol\":5375:5383  timeLeft */\n      dup2\n        /* \"contracts/hangman_final.sol\":5362:5374  uintToString */\n      tag_118\n        /* \"contracts/hangman_final.sol\":5362:5384  uintToString(timeLeft) */\n      jump\t// in\n    tag_117:\n        /* \"contracts/hangman_final.sol\":5332:5402  abi.encodePacked(\"You have \", uintToString(timeLeft), \" seconds left\") */\n      add(0x20, mload(0x40))\n      tag_119\n      swap2\n      swap1\n      tag_120\n      jump\t// in\n    tag_119:\n      mload(0x40)\n      0x20\n      dup2\n      dup4\n      sub\n      sub\n      dup2\n      mstore\n      swap1\n      0x40\n      mstore\n        /* \"contracts/hangman_final.sol\":5318:5403  return string(abi.encodePacked(\"You have \", uintToString(timeLeft), \" seconds left\")) */\n      swap2\n      pop\n      pop\n        /* \"contracts/hangman_final.sol\":5066:5411  function displayTimeLeft() public view returns (string memory) {... */\n      swap1\n      jump\t// out\n        /* \"contracts/hangman_final.sol\":1717:2638  function startGame() public {... */\n    tag_22:\n        /* \"contracts/hangman_final.sol\":1765:1775  gameActive */\n      0x35\n      0x00\n      swap1\n      sload\n      swap1\n      0x0100\n      exp\n      swap1\n      div\n      0xff\n      and\n        /* \"contracts/hangman_final.sol\":1764:1775  !gameActive */\n      iszero\n        /* \"contracts/hangman_final.sol\":1756:1819  require(!gameActive, \"Game already in progress. End it first.\") */\n      tag_122\n      jumpi\n      mload(0x40)\n      0x08c379a000000000000000000000000000000000000000000000000000000000\n      dup2\n      mstore\n      0x04\n      add\n      tag_123\n      swap1\n      tag_124\n      jump\t// in\n    tag_123:\n      mload(0x40)\n      dup1\n      swap2\n      sub\n      swap1\n      revert\n    tag_122:\n        /* \"contracts/hangman_final.sol\":1843:1847  true */\n      0x01\n        /* \"contracts/hangman_final.sol\":1830:1840  gameActive */\n      0x35\n      0x00\n        /* \"contracts/hangman_final.sol\":1830:1847  gameActive = true */\n      0x0100\n      exp\n      dup2\n      sload\n      dup2\n      0xff\n      mul\n      not\n      and\n      swap1\n      dup4\n      iszero\n      iszero\n      mul\n      or\n      swap1\n      sstore\n      pop\n        /* \"contracts/hangman_final.sol\":1874:1889  block.timestamp */\n      timestamp\n        /* \"contracts/hangman_final.sol\":1858:1871  gameStartTime */\n      0x36\n        /* \"contracts/hangman_final.sol\":1858:1889  gameStartTime = block.timestamp */\n      dup2\n      swap1\n      sstore\n      pop\n        /* \"contracts/hangman_final.sol\":1905:1945  GameStarted(gameStartTime, gameDuration) */\n      0xa2dfaa3573b86004ec9d4d4abe5068d942579c59da4da8cd0d9e45e71a393bc1\n        /* \"contracts/hangman_final.sol\":1917:1930  gameStartTime */\n      sload(0x36)\n        /* \"contracts/hangman_final.sol\":1201:1210  2 minutes */\n      0x78\n        /* \"contracts/hangman_final.sol\":1905:1945  GameStarted(gameStartTime, gameDuration) */\n      mload(0x40)\n      tag_125\n      swap3\n      swap2\n      swap1\n      tag_126\n      jump\t// in\n    tag_125:\n      mload(0x40)\n      dup1\n      swap2\n      sub\n      swap1\n      log1\n        /* \"contracts/hangman_final.sol\":1958:1977  uint256 randomIndex */\n      0x00\n        /* \"contracts/hangman_final.sol\":2048:2063  wordDict.length */\n      0x32\n        /* \"contracts/hangman_final.sol\":2015:2030  block.timestamp */\n      timestamp\n        /* \"contracts/hangman_final.sol\":2032:2042  msg.sender */\n      caller\n        /* \"contracts/hangman_final.sol\":1998:2043  abi.encodePacked(block.timestamp, msg.sender) */\n      add(0x20, mload(0x40))\n      tag_127\n      swap3\n      swap2\n      swap1\n      tag_128\n      jump\t// in\n    tag_127:\n      mload(0x40)\n      0x20\n      dup2\n      dup4\n      sub\n      sub\n      dup2\n      mstore\n      swap1\n      0x40\n      mstore\n        /* \"contracts/hangman_final.sol\":1988:2044  keccak256(abi.encodePacked(block.timestamp, msg.sender)) */\n      dup1\n      mload\n      swap1\n      0x20\n      add\n      keccak256\n        /* \"contracts/hangman_final.sol\":1980:2045  uint256(keccak256(abi.encodePacked(block.timestamp, msg.sender))) */\n      0x00\n      shr\n        /* \"contracts/hangman_final.sol\":1980:2063  uint256(keccak256(abi.encodePacked(block.timestamp, msg.sender))) % wordDict.length */\n      tag_129\n      swap2\n      swap1\n      tag_130\n      jump\t// in\n    tag_129:\n        /* \"contracts/hangman_final.sol\":1958:2063  uint256 randomIndex = uint256(keccak256(abi.encodePacked(block.timestamp, msg.sender))) % wordDict.length */\n      swap1\n      pop\n        /* \"contracts/hangman_final.sol\":2085:2093  wordDict */\n      0x00\n        /* \"contracts/hangman_final.sol\":2094:2105  randomIndex */\n      dup2\n        /* \"contracts/hangman_final.sol\":2085:2106  wordDict[randomIndex] */\n      0x32\n      dup2\n      lt\n      tag_131\n      jumpi\n      tag_132\n      tag_52\n      jump\t// in\n    tag_132:\n    tag_131:\n      add\n        /* \"contracts/hangman_final.sol\":2074:2082  currWord */\n      0x32\n        /* \"contracts/hangman_final.sol\":2074:2106  currWord = wordDict[randomIndex] */\n      swap1\n      dup2\n      tag_134\n      swap2\n      swap1\n      tag_135\n      jump\t// in\n    tag_134:\n      pop\n        /* \"contracts/hangman_final.sol\":2119:2141  bytes memory wordBytes */\n      0x00\n        /* \"contracts/hangman_final.sol\":2150:2158  currWord */\n      0x32\n        /* \"contracts/hangman_final.sol\":2119:2159  bytes memory wordBytes = bytes(currWord) */\n      dup1\n      sload\n      tag_136\n      swap1\n      tag_44\n      jump\t// in\n    tag_136:\n      dup1\n      0x1f\n      add\n      0x20\n      dup1\n      swap2\n      div\n      mul\n      0x20\n      add\n      mload(0x40)\n      swap1\n      dup2\n      add\n      0x40\n      mstore\n      dup1\n      swap3\n      swap2\n      swap1\n      dup2\n      dup2\n      mstore\n      0x20\n      add\n      dup3\n      dup1\n      sload\n      tag_137\n      swap1\n      tag_44\n      jump\t// in\n    tag_137:\n      dup1\n      iszero\n      tag_138\n      jumpi\n      dup1\n      0x1f\n      lt\n      tag_139\n      jumpi\n      0x0100\n      dup1\n      dup4\n      sload\n      div\n      mul\n      dup4\n      mstore\n      swap2\n      0x20\n      add\n      swap2\n      jump(tag_138)\n    tag_139:\n      dup3\n      add\n      swap2\n      swap1\n      0x00\n      mstore\n      keccak256(0x00, 0x20)\n      swap1\n    tag_140:\n      dup2\n      sload\n      dup2\n      mstore\n      swap1\n      0x01\n      add\n      swap1\n      0x20\n      add\n      dup1\n      dup4\n      gt\n      tag_140\n      jumpi\n      dup3\n      swap1\n      sub\n      0x1f\n      and\n      dup3\n      add\n      swap2\n    tag_138:\n      pop\n      pop\n      pop\n      pop\n      pop\n      swap1\n      pop\n        /* \"contracts/hangman_final.sol\":2170:2195  bytes memory hangmanBytes */\n      0x00\n        /* \"contracts/hangman_final.sol\":2227:2228  2 */\n      0x02\n        /* \"contracts/hangman_final.sol\":2208:2217  wordBytes */\n      dup3\n        /* \"contracts/hangman_final.sol\":2208:2224  wordBytes.length */\n      mload\n        /* \"contracts/hangman_final.sol\":2208:2228  wordBytes.length * 2 */\n      tag_141\n      swap2\n      swap1\n      tag_74\n      jump\t// in\n    tag_141:\n        /* \"contracts/hangman_final.sol\":2198:2229  new bytes(wordBytes.length * 2) */\n      0xffffffffffffffff\n      dup2\n      gt\n      iszero\n      tag_142\n      jumpi\n      tag_143\n      tag_144\n      jump\t// in\n    tag_143:\n    tag_142:\n      mload(0x40)\n      swap1\n      dup1\n      dup3\n      mstore\n      dup1\n      0x1f\n      add\n      not(0x1f)\n      and\n      0x20\n      add\n      dup3\n      add\n      0x40\n      mstore\n      dup1\n      iszero\n      tag_145\n      jumpi\n      dup2\n      0x20\n      add\n      0x01\n      dup3\n      mul\n      dup1\n      calldatasize\n      dup4\n      calldatacopy\n      dup1\n      dup3\n      add\n      swap2\n      pop\n      pop\n      swap1\n      pop\n    tag_145:\n      pop\n        /* \"contracts/hangman_final.sol\":2170:2229  bytes memory hangmanBytes = new bytes(wordBytes.length * 2) */\n      swap1\n      pop\n        /* \"contracts/hangman_final.sol\":2255:2256  7 */\n      0x07\n        /* \"contracts/hangman_final.sol\":2240:2252  attemptsLeft */\n      0x34\n        /* \"contracts/hangman_final.sol\":2240:2256  attemptsLeft = 7 */\n      dup2\n      swap1\n      sstore\n      pop\n        /* \"contracts/hangman_final.sol\":2274:2280  uint i */\n      0x00\n        /* \"contracts/hangman_final.sol\":2269:2586  for (uint i = 0; i < wordBytes.length; i++) {... */\n    tag_146:\n        /* \"contracts/hangman_final.sol\":2290:2299  wordBytes */\n      dup3\n        /* \"contracts/hangman_final.sol\":2290:2306  wordBytes.length */\n      mload\n        /* \"contracts/hangman_final.sol\":2286:2287  i */\n      dup2\n        /* \"contracts/hangman_final.sol\":2286:2306  i < wordBytes.length */\n      lt\n        /* \"contracts/hangman_final.sol\":2269:2586  for (uint i = 0; i < wordBytes.length; i++) {... */\n      iszero\n      tag_147\n      jumpi\n        /* \"contracts/hangman_final.sol\":2332:2351  wordBytes[i] == \" \" */\n      0x2000000000000000000000000000000000000000000000000000000000000000\n        /* \"contracts/hangman_final.sol\":2332:2341  wordBytes */\n      dup4\n        /* \"contracts/hangman_final.sol\":2342:2343  i */\n      dup3\n        /* \"contracts/hangman_final.sol\":2332:2344  wordBytes[i] */\n      dup2\n      mload\n      dup2\n      lt\n      tag_149\n      jumpi\n      tag_150\n      tag_52\n      jump\t// in\n    tag_150:\n    tag_149:\n      0x20\n      add\n      add\n      mload\n      0xf8\n      shr\n      0xf8\n      shl\n        /* \"contracts/hangman_final.sol\":2332:2351  wordBytes[i] == \" \" */\n      not(0xffffffffffffffffffffffffffffffffffffffffffffffffffffffffffffff)\n      and\n      sub\n        /* \"contracts/hangman_final.sol\":2328:2575  if (wordBytes[i] == \" \") {... */\n      tag_151\n      jumpi\n        /* \"contracts/hangman_final.sol\":2372:2397  hangmanBytes[i * 2] = \"|\" */\n      0x7c00000000000000000000000000000000000000000000000000000000000000\n        /* \"contracts/hangman_final.sol\":2372:2384  hangmanBytes */\n      dup3\n        /* \"contracts/hangman_final.sol\":2389:2390  2 */\n      0x02\n        /* \"contracts/hangman_final.sol\":2385:2386  i */\n      dup4\n        /* \"contracts/hangman_final.sol\":2385:2390  i * 2 */\n      tag_152\n      swap2\n      swap1\n      tag_74\n      jump\t// in\n    tag_152:\n        /* \"contracts/hangman_final.sol\":2372:2391  hangmanBytes[i * 2] */\n      dup2\n      mload\n      dup2\n      lt\n      tag_153\n      jumpi\n      tag_154\n      tag_52\n      jump\t// in\n    tag_154:\n    tag_153:\n      0x20\n      add\n      add\n        /* \"contracts/hangman_final.sol\":2372:2397  hangmanBytes[i * 2] = \"|\" */\n      swap1\n      not(0xffffffffffffffffffffffffffffffffffffffffffffffffffffffffffffff)\n      and\n      swap1\n      dup2\n      0x00\n      byte\n      swap1\n      mstore8\n      pop\n        /* \"contracts/hangman_final.sol\":2416:2445  hangmanBytes[i * 2 + 1] = \"|\" */\n      0x7c00000000000000000000000000000000000000000000000000000000000000\n        /* \"contracts/hangman_final.sol\":2416:2428  hangmanBytes */\n      dup3\n        /* \"contracts/hangman_final.sol\":2437:2438  1 */\n      0x01\n        /* \"contracts/hangman_final.sol\":2433:2434  2 */\n      0x02\n        /* \"contracts/hangman_final.sol\":2429:2430  i */\n      dup5\n        /* \"contracts/hangman_final.sol\":2429:2434  i * 2 */\n      tag_155\n      swap2\n      swap1\n      tag_74\n      jump\t// in\n    tag_155:\n        /* \"contracts/hangman_final.sol\":2429:2438  i * 2 + 1 */\n      tag_156\n      swap2\n      swap1\n      tag_33\n      jump\t// in\n    tag_156:\n        /* \"contracts/hangman_final.sol\":2416:2439  hangmanBytes[i * 2 + 1] */\n      dup2\n      mload\n      dup2\n      lt\n      tag_157\n      jumpi\n      tag_158\n      tag_52\n      jump\t// in\n    tag_158:\n    tag_157:\n      0x20\n      add\n      add\n        /* \"contracts/hangman_final.sol\":2416:2445  hangmanBytes[i * 2 + 1] = \"|\" */\n      swap1\n      not(0xffffffffffffffffffffffffffffffffffffffffffffffffffffffffffffff)\n      and\n      swap1\n      dup2\n      0x00\n      byte\n      swap1\n      mstore8\n      pop\n        /* \"contracts/hangman_final.sol\":2328:2575  if (wordBytes[i] == \" \") {... */\n      jump(tag_159)\n    tag_151:\n        /* \"contracts/hangman_final.sol\":2486:2511  hangmanBytes[i * 2] = \"_\" */\n      0x5f00000000000000000000000000000000000000000000000000000000000000\n        /* \"contracts/hangman_final.sol\":2486:2498  hangmanBytes */\n      dup3\n        /* \"contracts/hangman_final.sol\":2503:2504  2 */\n      0x02\n        /* \"contracts/hangman_final.sol\":2499:2500  i */\n      dup4\n        /* \"contracts/hangman_final.sol\":2499:2504  i * 2 */\n      tag_160\n      swap2\n      swap1\n      tag_74\n      jump\t// in\n    tag_160:\n        /* \"contracts/hangman_final.sol\":2486:2505  hangmanBytes[i * 2] */\n      dup2\n      mload\n      dup2\n      lt\n      tag_161\n      jumpi\n      tag_162\n      tag_52\n      jump\t// in\n    tag_162:\n    tag_161:\n      0x20\n      add\n      add\n        /* \"contracts/hangman_final.sol\":2486:2511  hangmanBytes[i * 2] = \"_\" */\n      swap1\n      not(0xffffffffffffffffffffffffffffffffffffffffffffffffffffffffffffff)\n      and\n      swap1\n      dup2\n      0x00\n      byte\n      swap1\n      mstore8\n      pop\n        /* \"contracts/hangman_final.sol\":2530:2559  hangmanBytes[i * 2 + 1] = \" \" */\n      0x2000000000000000000000000000000000000000000000000000000000000000\n        /* \"contracts/hangman_final.sol\":2530:2542  hangmanBytes */\n      dup3\n        /* \"contracts/hangman_final.sol\":2551:2552  1 */\n      0x01\n        /* \"contracts/hangman_final.sol\":2547:2548  2 */\n      0x02\n        /* \"contracts/hangman_final.sol\":2543:2544  i */\n      dup5\n        /* \"contracts/hangman_final.sol\":2543:2548  i * 2 */\n      tag_163\n      swap2\n      swap1\n      tag_74\n      jump\t// in\n    tag_163:\n        /* \"contracts/hangman_final.sol\":2543:2552  i * 2 + 1 */\n      tag_164\n      swap2\n      swap1\n      tag_33\n      jump\t// in\n    tag_164:\n        /* \"contracts/hangman_final.sol\":2530:2553  hangmanBytes[i * 2 + 1] */\n      dup2\n      mload\n      dup2\n      lt\n      tag_165\n      jumpi\n      tag_166\n      tag_52\n      jump\t// in\n    tag_166:\n    tag_165:\n      0x20\n      add\n      add\n        /* \"contracts/hangman_final.sol\":2530:2559  hangmanBytes[i * 2 + 1] = \" \" */\n      swap1\n      not(0xffffffffffffffffffffffffffffffffffffffffffffffffffffffffffffff)\n      and\n      swap1\n      dup2\n      0x00\n      byte\n      swap1\n      mstore8\n      pop\n        /* \"contracts/hangman_final.sol\":2328:2575  if (wordBytes[i] == \" \") {... */\n    tag_159:\n        /* \"contracts/hangman_final.sol\":2308:2311  i++ */\n      dup1\n      dup1\n      0x01\n      add\n      swap2\n      pop\n      pop\n        /* \"contracts/hangman_final.sol\":2269:2586  for (uint i = 0; i < wordBytes.length; i++) {... */\n      jump(tag_146)\n    tag_147:\n      pop\n        /* \"contracts/hangman_final.sol\":2617:2629  hangmanBytes */\n      dup1\n        /* \"contracts/hangman_final.sol\":2596:2607  hangmanWord */\n      0x33\n        /* \"contracts/hangman_final.sol\":2596:2630  hangmanWord = string(hangmanBytes) */\n      swap1\n      dup2\n      tag_167\n      swap2\n      swap1\n      tag_78\n      jump\t// in\n    tag_167:\n      pop\n        /* \"contracts/hangman_final.sol\":1745:2638  {... */\n      pop\n      pop\n      pop\n        /* \"contracts/hangman_final.sol\":1717:2638  function startGame() public {... */\n      jump\t// out\n        /* \"contracts/hangman_final.sol\":5419:5584  function quit() public {... */\n    tag_24:\n        /* \"contracts/hangman_final.sol\":5461:5471  gameActive */\n      0x35\n      0x00\n      swap1\n      sload\n      swap1\n      0x0100\n      exp\n      swap1\n      div\n      0xff\n      and\n        /* \"contracts/hangman_final.sol\":5453:5498  require(gameActive, \"No active game to end.\") */\n      tag_169\n      jumpi\n      mload(0x40)\n      0x08c379a000000000000000000000000000000000000000000000000000000000\n      dup2\n      mstore\n      0x04\n      add\n      tag_170\n      swap1\n      tag_171\n      jump\t// in\n    tag_170:\n      mload(0x40)\n      dup1\n      swap2\n      sub\n      swap1\n      revert\n    tag_169:\n        /* \"contracts/hangman_final.sol\":5522:5527  false */\n      0x00\n        /* \"contracts/hangman_final.sol\":5509:5519  gameActive */\n      0x35\n      0x00\n        /* \"contracts/hangman_final.sol\":5509:5527  gameActive = false */\n      0x0100\n      exp\n      dup2\n      sload\n      dup2\n      0xff\n      mul\n      not\n      and\n      swap1\n      dup4\n      iszero\n      iszero\n      mul\n      or\n      swap1\n      sstore\n      pop\n        /* \"contracts/hangman_final.sol\":5543:5576  GameEnded(\"Game over. You quit.\") */\n      0x056e3895424a85ef26c4c78d9988dea28d97c77c140b919289906403e8017170\n      mload(0x40)\n      tag_172\n      swap1\n      tag_173\n      jump\t// in\n    tag_172:\n      mload(0x40)\n      dup1\n      swap2\n      sub\n      swap1\n      log1\n        /* \"contracts/hangman_final.sol\":5419:5584  function quit() public {... */\n      jump\t// out\n        /* \"contracts/hangman_final.sol\":4497:4888  function getWrongGuesses() internal view returns (string memory) {... */\n    tag_40:\n        /* \"contracts/hangman_final.sol\":4547:4560  string memory */\n      0x60\n        /* \"contracts/hangman_final.sol\":4573:4598  bytes memory guessedChars */\n      dup1\n        /* \"contracts/hangman_final.sol\":4616:4623  uint8 i */\n      0x00\n        /* \"contracts/hangman_final.sol\":4626:4628  97 */\n      0x61\n        /* \"contracts/hangman_final.sol\":4616:4628  uint8 i = 97 */\n      swap1\n      pop\n        /* \"contracts/hangman_final.sol\":4611:4796  for (uint8 i = 97; i <= 122; i++) {... */\n    tag_175:\n        /* \"contracts/hangman_final.sol\":4635:4638  122 */\n      0x7a\n        /* \"contracts/hangman_final.sol\":4630:4631  i */\n      dup2\n        /* \"contracts/hangman_final.sol\":4630:4638  i <= 122 */\n      0xff\n      and\n      gt\n        /* \"contracts/hangman_final.sol\":4611:4796  for (uint8 i = 97; i <= 122; i++) {... */\n      tag_176\n      jumpi\n        /* \"contracts/hangman_final.sol\":4664:4676  wrongGuesses */\n      0x37\n        /* \"contracts/hangman_final.sol\":4664:4687  wrongGuesses[bytes1(i)] */\n      0x00\n        /* \"contracts/hangman_final.sol\":4684:4685  i */\n      dup3\n        /* \"contracts/hangman_final.sol\":4677:4686  bytes1(i) */\n      0xf8\n      shl\n        /* \"contracts/hangman_final.sol\":4664:4687  wrongGuesses[bytes1(i)] */\n      not(0xffffffffffffffffffffffffffffffffffffffffffffffffffffffffffffff)\n      and\n      not(0xffffffffffffffffffffffffffffffffffffffffffffffffffffffffffffff)\n      and\n      dup2\n      mstore\n      0x20\n      add\n      swap1\n      dup2\n      mstore\n      0x20\n      add\n      0x00\n      keccak256\n      0x00\n      swap1\n      sload\n      swap1\n      0x0100\n      exp\n      swap1\n      div\n      0xff\n      and\n        /* \"contracts/hangman_final.sol\":4660:4785  if (wrongGuesses[bytes1(i)]) {... */\n      iszero\n      tag_178\n      jumpi\n        /* \"contracts/hangman_final.sol\":4740:4752  guessedChars */\n      dup2\n        /* \"contracts/hangman_final.sol\":4761:4762  i */\n      dup2\n        /* \"contracts/hangman_final.sol\":4754:4763  bytes1(i) */\n      0xf8\n      shl\n        /* \"contracts/hangman_final.sol\":4723:4769  abi.encodePacked(guessedChars, bytes1(i), \" \") */\n      add(0x20, mload(0x40))\n      tag_179\n      swap3\n      swap2\n      swap1\n      tag_180\n      jump\t// in\n    tag_179:\n      mload(0x40)\n      0x20\n      dup2\n      dup4\n      sub\n      sub\n      dup2\n      mstore\n      swap1\n      0x40\n      mstore\n        /* \"contracts/hangman_final.sol\":4708:4769  guessedChars = abi.encodePacked(guessedChars, bytes1(i), \" \") */\n      swap2\n      pop\n        /* \"contracts/hangman_final.sol\":4660:4785  if (wrongGuesses[bytes1(i)]) {... */\n    tag_178:\n        /* \"contracts/hangman_final.sol\":4640:4643  i++ */\n      dup1\n      dup1\n      tag_181\n      swap1\n      tag_182\n      jump\t// in\n    tag_181:\n      swap2\n      pop\n      pop\n        /* \"contracts/hangman_final.sol\":4611:4796  for (uint8 i = 97; i <= 122; i++) {... */\n      jump(tag_175)\n    tag_176:\n      pop\n        /* \"contracts/hangman_final.sol\":4865:4877  guessedChars */\n      dup1\n        /* \"contracts/hangman_final.sol\":4822:4879  abi.encodePacked(\"Wrong guesses: \", string(guessedChars)) */\n      add(0x20, mload(0x40))\n      tag_183\n      swap2\n      swap1\n      tag_184\n      jump\t// in\n    tag_183:\n      mload(0x40)\n      0x20\n      dup2\n      dup4\n      sub\n      sub\n      dup2\n      mstore\n      swap1\n      0x40\n      mstore\n        /* \"contracts/hangman_final.sol\":4808:4880  return string(abi.encodePacked(\"Wrong guesses: \", string(guessedChars))) */\n      swap2\n      pop\n      pop\n        /* \"contracts/hangman_final.sol\":4497:4888  function getWrongGuesses() internal view returns (string memory) {... */\n      swap1\n      jump\t// out\n        /* \"contracts/hangman_final.sol\":4896:5058  function getHangmanFigure() internal view returns (string memory) {... */\n    tag_42:\n        /* \"contracts/hangman_final.sol\":4947:4960  string memory */\n      0x60\n        /* \"contracts/hangman_final.sol\":5017:5030  hangmanStages */\n      0x38\n        /* \"contracts/hangman_final.sol\":5035:5047  attemptsLeft */\n      sload(0x34)\n        /* \"contracts/hangman_final.sol\":5031:5032  7 */\n      0x07\n        /* \"contracts/hangman_final.sol\":5031:5047  7 - attemptsLeft */\n      tag_186\n      swap2\n      swap1\n      tag_116\n      jump\t// in\n    tag_186:\n        /* \"contracts/hangman_final.sol\":5017:5048  hangmanStages[7 - attemptsLeft] */\n      0x08\n      dup2\n      lt\n      tag_187\n      jumpi\n      tag_188\n      tag_52\n      jump\t// in\n    tag_188:\n    tag_187:\n      add\n        /* \"contracts/hangman_final.sol\":4987:5049  abi.encodePacked(\"Hangman: \", hangmanStages[7 - attemptsLeft]) */\n      add(0x20, mload(0x40))\n      tag_190\n      swap2\n      swap1\n      tag_191\n      jump\t// in\n    tag_190:\n      mload(0x40)\n      0x20\n      dup2\n      dup4\n      sub\n      sub\n      dup2\n      mstore\n      swap1\n      0x40\n      mstore\n        /* \"contracts/hangman_final.sol\":4973:5050  return string(abi.encodePacked(\"Hangman: \", hangmanStages[7 - attemptsLeft])) */\n      swap1\n      pop\n        /* \"contracts/hangman_final.sol\":4896:5058  function getHangmanFigure() internal view returns (string memory) {... */\n      swap1\n      jump\t// out\n        /* \"contracts/hangman_final.sol\":6098:6295  function toLowerCase(bytes1 char) internal pure returns (bytes1) {... */\n    tag_53:\n        /* \"contracts/hangman_final.sol\":6155:6161  bytes1 */\n      0x00\n        /* \"contracts/hangman_final.sol\":6186:6190  0x41 */\n      0x41\n        /* \"contracts/hangman_final.sol\":6178:6190  char >= 0x41 */\n      0xf8\n      shl\n        /* \"contracts/hangman_final.sol\":6178:6182  char */\n      dup3\n        /* \"contracts/hangman_final.sol\":6178:6190  char >= 0x41 */\n      not(0xffffffffffffffffffffffffffffffffffffffffffffffffffffffffffffff)\n      and\n      lt\n      iszero\n        /* \"contracts/hangman_final.sol\":6178:6206  char >= 0x41 && char <= 0x5A */\n      dup1\n      iszero\n      tag_193\n      jumpi\n      pop\n        /* \"contracts/hangman_final.sol\":6202:6206  0x5A */\n      0x5a\n        /* \"contracts/hangman_final.sol\":6194:6206  char <= 0x5A */\n      0xf8\n      shl\n        /* \"contracts/hangman_final.sol\":6194:6198  char */\n      dup3\n        /* \"contracts/hangman_final.sol\":6194:6206  char <= 0x5A */\n      not(0xffffffffffffffffffffffffffffffffffffffffffffffffffffffffffffff)\n      and\n      gt\n      iszero\n        /* \"contracts/hangman_final.sol\":6178:6206  char >= 0x41 && char <= 0x5A */\n    tag_193:\n        /* \"contracts/hangman_final.sol\":6174:6266  if (char >= 0x41 && char <= 0x5A) {... */\n      iszero\n      tag_194\n      jumpi\n        /* \"contracts/hangman_final.sol\":6251:6253  32 */\n      0x20\n        /* \"contracts/hangman_final.sol\":6243:6247  char */\n      dup3\n        /* \"contracts/hangman_final.sol\":6237:6248  uint8(char) */\n      0xf8\n      shr\n        /* \"contracts/hangman_final.sol\":6237:6253  uint8(char) + 32 */\n      tag_195\n      swap2\n      swap1\n      tag_196\n      jump\t// in\n    tag_195:\n        /* \"contracts/hangman_final.sol\":6230:6254  bytes1(uint8(char) + 32) */\n      0xf8\n      shl\n        /* \"contracts/hangman_final.sol\":6223:6254  return bytes1(uint8(char) + 32) */\n      swap1\n      pop\n      jump(tag_192)\n        /* \"contracts/hangman_final.sol\":6174:6266  if (char >= 0x41 && char <= 0x5A) {... */\n    tag_194:\n        /* \"contracts/hangman_final.sol\":6283:6287  char */\n      dup2\n        /* \"contracts/hangman_final.sol\":6276:6287  return char */\n      swap1\n      pop\n        /* \"contracts/hangman_final.sol\":6098:6295  function toLowerCase(bytes1 char) internal pure returns (bytes1) {... */\n    tag_192:\n      swap2\n      swap1\n      pop\n      jump\t// out\n        /* \"contracts/hangman_final.sol\":5592:6090  function uintToString(uint256 value) internal pure returns (string memory) {... */\n    tag_118:\n        /* \"contracts/hangman_final.sol\":5652:5665  string memory */\n      0x60\n        /* \"contracts/hangman_final.sol\":5691:5692  0 */\n      0x00\n        /* \"contracts/hangman_final.sol\":5682:5687  value */\n      dup3\n        /* \"contracts/hangman_final.sol\":5682:5692  value == 0 */\n      sub\n        /* \"contracts/hangman_final.sol\":5678:5704  if (value == 0) return \"0\" */\n      tag_198\n      jumpi\n        /* \"contracts/hangman_final.sol\":5694:5704  return \"0\" */\n      mload(0x40)\n      dup1\n      0x40\n      add\n      0x40\n      mstore\n      dup1\n      0x01\n      dup2\n      mstore\n      0x20\n      add\n      0x3000000000000000000000000000000000000000000000000000000000000000\n      dup2\n      mstore\n      pop\n      swap1\n      pop\n      jump(tag_197)\n        /* \"contracts/hangman_final.sol\":5678:5704  if (value == 0) return \"0\" */\n    tag_198:\n        /* \"contracts/hangman_final.sol\":5715:5727  uint256 temp */\n      0x00\n        /* \"contracts/hangman_final.sol\":5730:5735  value */\n      dup3\n        /* \"contracts/hangman_final.sol\":5715:5735  uint256 temp = value */\n      swap1\n      pop\n        /* \"contracts/hangman_final.sol\":5746:5760  uint256 digits */\n      0x00\n        /* \"contracts/hangman_final.sol\":5771:5849  while (temp != 0) {... */\n    tag_199:\n        /* \"contracts/hangman_final.sol\":5786:5787  0 */\n      0x00\n        /* \"contracts/hangman_final.sol\":5778:5782  temp */\n      dup3\n        /* \"contracts/hangman_final.sol\":5778:5787  temp != 0 */\n      eq\n        /* \"contracts/hangman_final.sol\":5771:5849  while (temp != 0) {... */\n      tag_200\n      jumpi\n        /* \"contracts/hangman_final.sol\":5804:5812  digits++ */\n      dup1\n      dup1\n      tag_201\n      swap1\n      tag_202\n      jump\t// in\n    tag_201:\n      swap2\n      pop\n      pop\n        /* \"contracts/hangman_final.sol\":5835:5837  10 */\n      0x0a\n        /* \"contracts/hangman_final.sol\":5827:5837  temp /= 10 */\n      dup3\n      tag_203\n      swap2\n      swap1\n      tag_204\n      jump\t// in\n    tag_203:\n      swap2\n      pop\n        /* \"contracts/hangman_final.sol\":5771:5849  while (temp != 0) {... */\n      jump(tag_199)\n    tag_200:\n        /* \"contracts/hangman_final.sol\":5859:5878  bytes memory buffer */\n      0x00\n        /* \"contracts/hangman_final.sol\":5891:5897  digits */\n      dup2\n        /* \"contracts/hangman_final.sol\":5881:5898  new bytes(digits) */\n      0xffffffffffffffff\n      dup2\n      gt\n      iszero\n      tag_205\n      jumpi\n      tag_206\n      tag_144\n      jump\t// in\n    tag_206:\n    tag_205:\n      mload(0x40)\n      swap1\n      dup1\n      dup3\n      mstore\n      dup1\n      0x1f\n      add\n      not(0x1f)\n      and\n      0x20\n      add\n      dup3\n      add\n      0x40\n      mstore\n      dup1\n      iszero\n      tag_207\n      jumpi\n      dup2\n      0x20\n      add\n      0x01\n      dup3\n      mul\n      dup1\n      calldatasize\n      dup4\n      calldatacopy\n      dup1\n      dup3\n      add\n      swap2\n      pop\n      pop\n      swap1\n      pop\n    tag_207:\n      pop\n        /* \"contracts/hangman_final.sol\":5859:5898  bytes memory buffer = new bytes(digits) */\n      swap1\n      pop\n        /* \"contracts/hangman_final.sol\":5909:6051  while (value != 0) {... */\n    tag_208:\n        /* \"contracts/hangman_final.sol\":5925:5926  0 */\n      0x00\n        /* \"contracts/hangman_final.sol\":5916:5921  value */\n      dup6\n        /* \"contracts/hangman_final.sol\":5916:5926  value != 0 */\n      eq\n        /* \"contracts/hangman_final.sol\":5909:6051  while (value != 0) {... */\n      tag_209\n      jumpi\n        /* \"contracts/hangman_final.sol\":5943:5951  digits-- */\n      dup2\n      dup1\n      tag_210\n      swap1\n      tag_82\n      jump\t// in\n    tag_210:\n      swap3\n      pop\n      pop\n        /* \"contracts/hangman_final.sol\":6009:6011  10 */\n      0x0a\n        /* \"contracts/hangman_final.sol\":6001:6006  value */\n      dup6\n        /* \"contracts/hangman_final.sol\":6001:6011  value % 10 */\n      tag_211\n      swap2\n      swap1\n      tag_130\n      jump\t// in\n    tag_211:\n        /* \"contracts/hangman_final.sol\":5996:5998  48 */\n      0x30\n        /* \"contracts/hangman_final.sol\":5996:6011  48 + value % 10 */\n      tag_212\n      swap2\n      swap1\n      tag_33\n      jump\t// in\n    tag_212:\n        /* \"contracts/hangman_final.sol\":5983:6013  bytes1(uint8(48 + value % 10)) */\n      0xf8\n      shl\n        /* \"contracts/hangman_final.sol\":5966:5972  buffer */\n      dup2\n        /* \"contracts/hangman_final.sol\":5973:5979  digits */\n      dup4\n        /* \"contracts/hangman_final.sol\":5966:5980  buffer[digits] */\n      dup2\n      mload\n      dup2\n      lt\n      tag_213\n      jumpi\n      tag_214\n      tag_52\n      jump\t// in\n    tag_214:\n    tag_213:\n      0x20\n      add\n      add\n        /* \"contracts/hangman_final.sol\":5966:6013  buffer[digits] = bytes1(uint8(48 + value % 10)) */\n      swap1\n      not(0xffffffffffffffffffffffffffffffffffffffffffffffffffffffffffffff)\n      and\n      swap1\n      dup2\n      0x00\n      byte\n      swap1\n      mstore8\n      pop\n        /* \"contracts/hangman_final.sol\":6037:6039  10 */\n      0x0a\n        /* \"contracts/hangman_final.sol\":6028:6039  value /= 10 */\n      dup6\n      tag_215\n      swap2\n      swap1\n      tag_204\n      jump\t// in\n    tag_215:\n      swap5\n      pop\n        /* \"contracts/hangman_final.sol\":5909:6051  while (value != 0) {... */\n      jump(tag_208)\n    tag_209:\n        /* \"contracts/hangman_final.sol\":6075:6081  buffer */\n      dup1\n        /* \"contracts/hangman_final.sol\":6061:6082  return string(buffer) */\n      swap4\n      pop\n      pop\n      pop\n      pop\n        /* \"contracts/hangman_final.sol\":5592:6090  function uintToString(uint256 value) internal pure returns (string memory) {... */\n    tag_197:\n      swap2\n      swap1\n      pop\n      jump\t// out\n        /* \"#utility.yul\":7:82   */\n    tag_216:\n        /* \"#utility.yul\":40:46   */\n      0x00\n        /* \"#utility.yul\":73:75   */\n      0x40\n        /* \"#utility.yul\":67:76   */\n      mload\n        /* \"#utility.yul\":57:76   */\n      swap1\n      pop\n        /* \"#utility.yul\":7:82   */\n      swap1\n      jump\t// out\n        /* \"#utility.yul\":88:205   */\n    tag_217:\n        /* \"#utility.yul\":197:198   */\n      0x00\n        /* \"#utility.yul\":194:195   */\n      dup1\n        /* \"#utility.yul\":187:199   */\n      revert\n        /* \"#utility.yul\":211:328   */\n    tag_218:\n        /* \"#utility.yul\":320:321   */\n      0x00\n        /* \"#utility.yul\":317:318   */\n      dup1\n        /* \"#utility.yul\":310:322   */\n      revert\n        /* \"#utility.yul\":334:451   */\n    tag_219:\n        /* \"#utility.yul\":443:444   */\n      0x00\n        /* \"#utility.yul\":440:441   */\n      dup1\n        /* \"#utility.yul\":433:445   */\n      revert\n        /* \"#utility.yul\":457:574   */\n    tag_220:\n        /* \"#utility.yul\":566:567   */\n      0x00\n        /* \"#utility.yul\":563:564   */\n      dup1\n        /* \"#utility.yul\":556:568   */\n      revert\n        /* \"#utility.yul\":580:682   */\n    tag_221:\n        /* \"#utility.yul\":621:627   */\n      0x00\n        /* \"#utility.yul\":672:674   */\n      0x1f\n        /* \"#utility.yul\":668:675   */\n      not\n        /* \"#utility.yul\":663:665   */\n      0x1f\n        /* \"#utility.yul\":656:661   */\n      dup4\n        /* \"#utility.yul\":652:666   */\n      add\n        /* \"#utility.yul\":648:676   */\n      and\n        /* \"#utility.yul\":638:676   */\n      swap1\n      pop\n        /* \"#utility.yul\":580:682   */\n      swap2\n      swap1\n      pop\n      jump\t// out\n        /* \"#utility.yul\":688:868   */\n    tag_144:\n        /* \"#utility.yul\":736:813   */\n      0x4e487b7100000000000000000000000000000000000000000000000000000000\n        /* \"#utility.yul\":733:734   */\n      0x00\n        /* \"#utility.yul\":726:814   */\n      mstore\n        /* \"#utility.yul\":833:837   */\n      0x41\n        /* \"#utility.yul\":830:831   */\n      0x04\n        /* \"#utility.yul\":823:838   */\n      mstore\n        /* \"#utility.yul\":857:861   */\n      0x24\n        /* \"#utility.yul\":854:855   */\n      0x00\n        /* \"#utility.yul\":847:862   */\n      revert\n        /* \"#utility.yul\":874:1155   */\n    tag_222:\n        /* \"#utility.yul\":957:984   */\n      tag_310\n        /* \"#utility.yul\":979:983   */\n      dup3\n        /* \"#utility.yul\":957:984   */\n      tag_221\n      jump\t// in\n    tag_310:\n        /* \"#utility.yul\":949:955   */\n      dup2\n        /* \"#utility.yul\":945:985   */\n      add\n        /* \"#utility.yul\":1087:1093   */\n      dup2\n        /* \"#utility.yul\":1075:1085   */\n      dup2\n        /* \"#utility.yul\":1072:1094   */\n      lt\n        /* \"#utility.yul\":1051:1069   */\n      0xffffffffffffffff\n        /* \"#utility.yul\":1039:1049   */\n      dup3\n        /* \"#utility.yul\":1036:1070   */\n      gt\n        /* \"#utility.yul\":1033:1095   */\n      or\n        /* \"#utility.yul\":1030:1118   */\n      iszero\n      tag_311\n      jumpi\n        /* \"#utility.yul\":1098:1116   */\n      tag_312\n      tag_144\n      jump\t// in\n    tag_312:\n        /* \"#utility.yul\":1030:1118   */\n    tag_311:\n        /* \"#utility.yul\":1138:1148   */\n      dup1\n        /* \"#utility.yul\":1134:1136   */\n      0x40\n        /* \"#utility.yul\":1127:1149   */\n      mstore\n        /* \"#utility.yul\":917:1155   */\n      pop\n        /* \"#utility.yul\":874:1155   */\n      pop\n      pop\n      jump\t// out\n        /* \"#utility.yul\":1161:1290   */\n    tag_223:\n        /* \"#utility.yul\":1195:1201   */\n      0x00\n        /* \"#utility.yul\":1222:1242   */\n      tag_314\n      tag_216\n      jump\t// in\n    tag_314:\n        /* \"#utility.yul\":1212:1242   */\n      swap1\n      pop\n        /* \"#utility.yul\":1251:1284   */\n      tag_315\n        /* \"#utility.yul\":1279:1283   */\n      dup3\n        /* \"#utility.yul\":1271:1277   */\n      dup3\n        /* \"#utility.yul\":1251:1284   */\n      tag_222\n      jump\t// in\n    tag_315:\n        /* \"#utility.yul\":1161:1290   */\n      swap2\n      swap1\n      pop\n      jump\t// out\n        /* \"#utility.yul\":1296:1604   */\n    tag_224:\n        /* \"#utility.yul\":1358:1362   */\n      0x00\n        /* \"#utility.yul\":1448:1466   */\n      0xffffffffffffffff\n        /* \"#utility.yul\":1440:1446   */\n      dup3\n        /* \"#utility.yul\":1437:1467   */\n      gt\n        /* \"#utility.yul\":1434:1490   */\n      iszero\n      tag_317\n      jumpi\n        /* \"#utility.yul\":1470:1488   */\n      tag_318\n      tag_144\n      jump\t// in\n    tag_318:\n        /* \"#utility.yul\":1434:1490   */\n    tag_317:\n        /* \"#utility.yul\":1508:1537   */\n      tag_319\n        /* \"#utility.yul\":1530:1536   */\n      dup3\n        /* \"#utility.yul\":1508:1537   */\n      tag_221\n      jump\t// in\n    tag_319:\n        /* \"#utility.yul\":1500:1537   */\n      swap1\n      pop\n        /* \"#utility.yul\":1592:1596   */\n      0x20\n        /* \"#utility.yul\":1586:1590   */\n      dup2\n        /* \"#utility.yul\":1582:1597   */\n      add\n        /* \"#utility.yul\":1574:1597   */\n      swap1\n      pop\n        /* \"#utility.yul\":1296:1604   */\n      swap2\n      swap1\n      pop\n      jump\t// out\n        /* \"#utility.yul\":1610:1758   */\n    tag_225:\n        /* \"#utility.yul\":1708:1714   */\n      dup3\n        /* \"#utility.yul\":1703:1706   */\n      dup2\n        /* \"#utility.yul\":1698:1701   */\n      dup4\n        /* \"#utility.yul\":1685:1715   */\n      calldatacopy\n        /* \"#utility.yul\":1749:1750   */\n      0x00\n        /* \"#utility.yul\":1740:1746   */\n      dup4\n        /* \"#utility.yul\":1735:1738   */\n      dup4\n        /* \"#utility.yul\":1731:1747   */\n      add\n        /* \"#utility.yul\":1724:1751   */\n      mstore\n        /* \"#utility.yul\":1610:1758   */\n      pop\n      pop\n      pop\n      jump\t// out\n        /* \"#utility.yul\":1764:2189   */\n    tag_226:\n        /* \"#utility.yul\":1842:1847   */\n      0x00\n        /* \"#utility.yul\":1867:1933   */\n      tag_322\n        /* \"#utility.yul\":1883:1932   */\n      tag_323\n        /* \"#utility.yul\":1925:1931   */\n      dup5\n        /* \"#utility.yul\":1883:1932   */\n      tag_224\n      jump\t// in\n    tag_323:\n        /* \"#utility.yul\":1867:1933   */\n      tag_223\n      jump\t// in\n    tag_322:\n        /* \"#utility.yul\":1858:1933   */\n      swap1\n      pop\n        /* \"#utility.yul\":1956:1962   */\n      dup3\n        /* \"#utility.yul\":1949:1954   */\n      dup2\n        /* \"#utility.yul\":1942:1963   */\n      mstore\n        /* \"#utility.yul\":1994:1998   */\n      0x20\n        /* \"#utility.yul\":1987:1992   */\n      dup2\n        /* \"#utility.yul\":1983:1999   */\n      add\n        /* \"#utility.yul\":2032:2035   */\n      dup5\n        /* \"#utility.yul\":2023:2029   */\n      dup5\n        /* \"#utility.yul\":2018:2021   */\n      dup5\n        /* \"#utility.yul\":2014:2030   */\n      add\n        /* \"#utility.yul\":2011:2036   */\n      gt\n        /* \"#utility.yul\":2008:2120   */\n      iszero\n      tag_324\n      jumpi\n        /* \"#utility.yul\":2039:2118   */\n      tag_325\n      tag_220\n      jump\t// in\n    tag_325:\n        /* \"#utility.yul\":2008:2120   */\n    tag_324:\n        /* \"#utility.yul\":2129:2183   */\n      tag_326\n        /* \"#utility.yul\":2176:2182   */\n      dup5\n        /* \"#utility.yul\":2171:2174   */\n      dup3\n        /* \"#utility.yul\":2166:2169   */\n      dup6\n        /* \"#utility.yul\":2129:2183   */\n      tag_225\n      jump\t// in\n    tag_326:\n        /* \"#utility.yul\":1848:2189   */\n      pop\n        /* \"#utility.yul\":1764:2189   */\n      swap4\n      swap3\n      pop\n      pop\n      pop\n      jump\t// out\n        /* \"#utility.yul\":2209:2549   */\n    tag_227:\n        /* \"#utility.yul\":2265:2270   */\n      0x00\n        /* \"#utility.yul\":2314:2317   */\n      dup3\n        /* \"#utility.yul\":2307:2311   */\n      0x1f\n        /* \"#utility.yul\":2299:2305   */\n      dup4\n        /* \"#utility.yul\":2295:2312   */\n      add\n        /* \"#utility.yul\":2291:2318   */\n      slt\n        /* \"#utility.yul\":2281:2403   */\n      tag_328\n      jumpi\n        /* \"#utility.yul\":2322:2401   */\n      tag_329\n      tag_219\n      jump\t// in\n    tag_329:\n        /* \"#utility.yul\":2281:2403   */\n    tag_328:\n        /* \"#utility.yul\":2439:2445   */\n      dup2\n        /* \"#utility.yul\":2426:2446   */\n      calldataload\n        /* \"#utility.yul\":2464:2543   */\n      tag_330\n        /* \"#utility.yul\":2539:2542   */\n      dup5\n        /* \"#utility.yul\":2531:2537   */\n      dup3\n        /* \"#utility.yul\":2524:2528   */\n      0x20\n        /* \"#utility.yul\":2516:2522   */\n      dup7\n        /* \"#utility.yul\":2512:2529   */\n      add\n        /* \"#utility.yul\":2464:2543   */\n      tag_226\n      jump\t// in\n    tag_330:\n        /* \"#utility.yul\":2455:2543   */\n      swap2\n      pop\n        /* \"#utility.yul\":2271:2549   */\n      pop\n        /* \"#utility.yul\":2209:2549   */\n      swap3\n      swap2\n      pop\n      pop\n      jump\t// out\n        /* \"#utility.yul\":2555:3064   */\n    tag_10:\n        /* \"#utility.yul\":2624:2630   */\n      0x00\n        /* \"#utility.yul\":2673:2675   */\n      0x20\n        /* \"#utility.yul\":2661:2670   */\n      dup3\n        /* \"#utility.yul\":2652:2659   */\n      dup5\n        /* \"#utility.yul\":2648:2671   */\n      sub\n        /* \"#utility.yul\":2644:2676   */\n      slt\n        /* \"#utility.yul\":2641:2760   */\n      iszero\n      tag_332\n      jumpi\n        /* \"#utility.yul\":2679:2758   */\n      tag_333\n      tag_217\n      jump\t// in\n    tag_333:\n        /* \"#utility.yul\":2641:2760   */\n    tag_332:\n        /* \"#utility.yul\":2827:2828   */\n      0x00\n        /* \"#utility.yul\":2816:2825   */\n      dup3\n        /* \"#utility.yul\":2812:2829   */\n      add\n        /* \"#utility.yul\":2799:2830   */\n      calldataload\n        /* \"#utility.yul\":2857:2875   */\n      0xffffffffffffffff\n        /* \"#utility.yul\":2849:2855   */\n      dup2\n        /* \"#utility.yul\":2846:2876   */\n      gt\n        /* \"#utility.yul\":2843:2960   */\n      iszero\n      tag_334\n      jumpi\n        /* \"#utility.yul\":2879:2958   */\n      tag_335\n      tag_218\n      jump\t// in\n    tag_335:\n        /* \"#utility.yul\":2843:2960   */\n    tag_334:\n        /* \"#utility.yul\":2984:3047   */\n      tag_336\n        /* \"#utility.yul\":3039:3046   */\n      dup5\n        /* \"#utility.yul\":3030:3036   */\n      dup3\n        /* \"#utility.yul\":3019:3028   */\n      dup6\n        /* \"#utility.yul\":3015:3037   */\n      add\n        /* \"#utility.yul\":2984:3047   */\n      tag_227\n      jump\t// in\n    tag_336:\n        /* \"#utility.yul\":2974:3047   */\n      swap2\n      pop\n        /* \"#utility.yul\":2770:3057   */\n      pop\n        /* \"#utility.yul\":2555:3064   */\n      swap3\n      swap2\n      pop\n      pop\n      jump\t// out\n        /* \"#utility.yul\":3070:3169   */\n    tag_228:\n        /* \"#utility.yul\":3122:3128   */\n      0x00\n        /* \"#utility.yul\":3156:3161   */\n      dup2\n        /* \"#utility.yul\":3150:3162   */\n      mload\n        /* \"#utility.yul\":3140:3162   */\n      swap1\n      pop\n        /* \"#utility.yul\":3070:3169   */\n      swap2\n      swap1\n      pop\n      jump\t// out\n        /* \"#utility.yul\":3175:3344   */\n    tag_229:\n        /* \"#utility.yul\":3259:3270   */\n      0x00\n        /* \"#utility.yul\":3293:3299   */\n      dup3\n        /* \"#utility.yul\":3288:3291   */\n      dup3\n        /* \"#utility.yul\":3281:3300   */\n      mstore\n        /* \"#utility.yul\":3333:3337   */\n      0x20\n        /* \"#utility.yul\":3328:3331   */\n      dup3\n        /* \"#utility.yul\":3324:3338   */\n      add\n        /* \"#utility.yul\":3309:3338   */\n      swap1\n      pop\n        /* \"#utility.yul\":3175:3344   */\n      swap3\n      swap2\n      pop\n      pop\n      jump\t// out\n        /* \"#utility.yul\":3350:3489   */\n    tag_230:\n        /* \"#utility.yul\":3439:3445   */\n      dup3\n        /* \"#utility.yul\":3434:3437   */\n      dup2\n        /* \"#utility.yul\":3429:3432   */\n      dup4\n        /* \"#utility.yul\":3423:3446   */\n      mcopy\n        /* \"#utility.yul\":3480:3481   */\n      0x00\n        /* \"#utility.yul\":3471:3477   */\n      dup4\n        /* \"#utility.yul\":3466:3469   */\n      dup4\n        /* \"#utility.yul\":3462:3478   */\n      add\n        /* \"#utility.yul\":3455:3482   */\n      mstore\n        /* \"#utility.yul\":3350:3489   */\n      pop\n      pop\n      pop\n      jump\t// out\n        /* \"#utility.yul\":3495:3872   */\n    tag_231:\n        /* \"#utility.yul\":3583:3586   */\n      0x00\n        /* \"#utility.yul\":3611:3650   */\n      tag_341\n        /* \"#utility.yul\":3644:3649   */\n      dup3\n        /* \"#utility.yul\":3611:3650   */\n      tag_228\n      jump\t// in\n    tag_341:\n        /* \"#utility.yul\":3666:3737   */\n      tag_342\n        /* \"#utility.yul\":3730:3736   */\n      dup2\n        /* \"#utility.yul\":3725:3728   */\n      dup6\n        /* \"#utility.yul\":3666:3737   */\n      tag_229\n      jump\t// in\n    tag_342:\n        /* \"#utility.yul\":3659:3737   */\n      swap4\n      pop\n        /* \"#utility.yul\":3746:3811   */\n      tag_343\n        /* \"#utility.yul\":3804:3810   */\n      dup2\n        /* \"#utility.yul\":3799:3802   */\n      dup6\n        /* \"#utility.yul\":3792:3796   */\n      0x20\n        /* \"#utility.yul\":3785:3790   */\n      dup7\n        /* \"#utility.yul\":3781:3797   */\n      add\n        /* \"#utility.yul\":3746:3811   */\n      tag_230\n      jump\t// in\n    tag_343:\n        /* \"#utility.yul\":3836:3865   */\n      tag_344\n        /* \"#utility.yul\":3858:3864   */\n      dup2\n        /* \"#utility.yul\":3836:3865   */\n      tag_221\n      jump\t// in\n    tag_344:\n        /* \"#utility.yul\":3831:3834   */\n      dup5\n        /* \"#utility.yul\":3827:3866   */\n      add\n        /* \"#utility.yul\":3820:3866   */\n      swap2\n      pop\n        /* \"#utility.yul\":3587:3872   */\n      pop\n        /* \"#utility.yul\":3495:3872   */\n      swap3\n      swap2\n      pop\n      pop\n      jump\t// out\n        /* \"#utility.yul\":3878:3955   */\n    tag_232:\n        /* \"#utility.yul\":3915:3922   */\n      0x00\n        /* \"#utility.yul\":3944:3949   */\n      dup2\n        /* \"#utility.yul\":3933:3949   */\n      swap1\n      pop\n        /* \"#utility.yul\":3878:3955   */\n      swap2\n      swap1\n      pop\n      jump\t// out\n        /* \"#utility.yul\":3961:4079   */\n    tag_233:\n        /* \"#utility.yul\":4048:4072   */\n      tag_347\n        /* \"#utility.yul\":4066:4071   */\n      dup2\n        /* \"#utility.yul\":4048:4072   */\n      tag_232\n      jump\t// in\n    tag_347:\n        /* \"#utility.yul\":4043:4046   */\n      dup3\n        /* \"#utility.yul\":4036:4073   */\n      mstore\n        /* \"#utility.yul\":3961:4079   */\n      pop\n      pop\n      jump\t// out\n        /* \"#utility.yul\":4085:4911   */\n    tag_13:\n        /* \"#utility.yul\":4322:4326   */\n      0x00\n        /* \"#utility.yul\":4360:4363   */\n      0x80\n        /* \"#utility.yul\":4349:4358   */\n      dup3\n        /* \"#utility.yul\":4345:4364   */\n      add\n        /* \"#utility.yul\":4337:4364   */\n      swap1\n      pop\n        /* \"#utility.yul\":4410:4419   */\n      dup2\n        /* \"#utility.yul\":4404:4408   */\n      dup2\n        /* \"#utility.yul\":4400:4420   */\n      sub\n        /* \"#utility.yul\":4396:4397   */\n      0x00\n        /* \"#utility.yul\":4385:4394   */\n      dup4\n        /* \"#utility.yul\":4381:4398   */\n      add\n        /* \"#utility.yul\":4374:4421   */\n      mstore\n        /* \"#utility.yul\":4438:4516   */\n      tag_349\n        /* \"#utility.yul\":4511:4515   */\n      dup2\n        /* \"#utility.yul\":4502:4508   */\n      dup8\n        /* \"#utility.yul\":4438:4516   */\n      tag_231\n      jump\t// in\n    tag_349:\n        /* \"#utility.yul\":4430:4516   */\n      swap1\n      pop\n        /* \"#utility.yul\":4526:4598   */\n      tag_350\n        /* \"#utility.yul\":4594:4596   */\n      0x20\n        /* \"#utility.yul\":4583:4592   */\n      dup4\n        /* \"#utility.yul\":4579:4597   */\n      add\n        /* \"#utility.yul\":4570:4576   */\n      dup7\n        /* \"#utility.yul\":4526:4598   */\n      tag_233\n      jump\t// in\n    tag_350:\n        /* \"#utility.yul\":4645:4654   */\n      dup2\n        /* \"#utility.yul\":4639:4643   */\n      dup2\n        /* \"#utility.yul\":4635:4655   */\n      sub\n        /* \"#utility.yul\":4630:4632   */\n      0x40\n        /* \"#utility.yul\":4619:4628   */\n      dup4\n        /* \"#utility.yul\":4615:4633   */\n      add\n        /* \"#utility.yul\":4608:4656   */\n      mstore\n        /* \"#utility.yul\":4673:4751   */\n      tag_351\n        /* \"#utility.yul\":4746:4750   */\n      dup2\n        /* \"#utility.yul\":4737:4743   */\n      dup6\n        /* \"#utility.yul\":4673:4751   */\n      tag_231\n      jump\t// in\n    tag_351:\n        /* \"#utility.yul\":4665:4751   */\n      swap1\n      pop\n        /* \"#utility.yul\":4798:4807   */\n      dup2\n        /* \"#utility.yul\":4792:4796   */\n      dup2\n        /* \"#utility.yul\":4788:4808   */\n      sub\n        /* \"#utility.yul\":4783:4785   */\n      0x60\n        /* \"#utility.yul\":4772:4781   */\n      dup4\n        /* \"#utility.yul\":4768:4786   */\n      add\n        /* \"#utility.yul\":4761:4809   */\n      mstore\n        /* \"#utility.yul\":4826:4904   */\n      tag_352\n        /* \"#utility.yul\":4899:4903   */\n      dup2\n        /* \"#utility.yul\":4890:4896   */\n      dup5\n        /* \"#utility.yul\":4826:4904   */\n      tag_231\n      jump\t// in\n    tag_352:\n        /* \"#utility.yul\":4818:4904   */\n      swap1\n      pop\n        /* \"#utility.yul\":4085:4911   */\n      swap6\n      swap5\n      pop\n      pop\n      pop\n      pop\n      pop\n      jump\t// out\n        /* \"#utility.yul\":4917:5230   */\n    tag_20:\n        /* \"#utility.yul\":5030:5034   */\n      0x00\n        /* \"#utility.yul\":5068:5070   */\n      0x20\n        /* \"#utility.yul\":5057:5066   */\n      dup3\n        /* \"#utility.yul\":5053:5071   */\n      add\n        /* \"#utility.yul\":5045:5071   */\n      swap1\n      pop\n        /* \"#utility.yul\":5117:5126   */\n      dup2\n        /* \"#utility.yul\":5111:5115   */\n      dup2\n        /* \"#utility.yul\":5107:5127   */\n      sub\n        /* \"#utility.yul\":5103:5104   */\n      0x00\n        /* \"#utility.yul\":5092:5101   */\n      dup4\n        /* \"#utility.yul\":5088:5105   */\n      add\n        /* \"#utility.yul\":5081:5128   */\n      mstore\n        /* \"#utility.yul\":5145:5223   */\n      tag_354\n        /* \"#utility.yul\":5218:5222   */\n      dup2\n        /* \"#utility.yul\":5209:5215   */\n      dup5\n        /* \"#utility.yul\":5145:5223   */\n      tag_231\n      jump\t// in\n    tag_354:\n        /* \"#utility.yul\":5137:5223   */\n      swap1\n      pop\n        /* \"#utility.yul\":4917:5230   */\n      swap3\n      swap2\n      pop\n      pop\n      jump\t// out\n        /* \"#utility.yul\":5236:5401   */\n    tag_234:\n        /* \"#utility.yul\":5376:5393   */\n      0x47616d652068617320656e6465642e0000000000000000000000000000000000\n        /* \"#utility.yul\":5372:5373   */\n      0x00\n        /* \"#utility.yul\":5364:5370   */\n      dup3\n        /* \"#utility.yul\":5360:5374   */\n      add\n        /* \"#utility.yul\":5353:5394   */\n      mstore\n        /* \"#utility.yul\":5236:5401   */\n      pop\n      jump\t// out\n        /* \"#utility.yul\":5407:5773   */\n    tag_235:\n        /* \"#utility.yul\":5549:5552   */\n      0x00\n        /* \"#utility.yul\":5570:5637   */\n      tag_357\n        /* \"#utility.yul\":5634:5636   */\n      0x0f\n        /* \"#utility.yul\":5629:5632   */\n      dup4\n        /* \"#utility.yul\":5570:5637   */\n      tag_229\n      jump\t// in\n    tag_357:\n        /* \"#utility.yul\":5563:5637   */\n      swap2\n      pop\n        /* \"#utility.yul\":5646:5739   */\n      tag_358\n        /* \"#utility.yul\":5735:5738   */\n      dup3\n        /* \"#utility.yul\":5646:5739   */\n      tag_234\n      jump\t// in\n    tag_358:\n        /* \"#utility.yul\":5764:5766   */\n      0x20\n        /* \"#utility.yul\":5759:5762   */\n      dup3\n        /* \"#utility.yul\":5755:5767   */\n      add\n        /* \"#utility.yul\":5748:5767   */\n      swap1\n      pop\n        /* \"#utility.yul\":5407:5773   */\n      swap2\n      swap1\n      pop\n      jump\t// out\n        /* \"#utility.yul\":5779:6198   */\n    tag_28:\n        /* \"#utility.yul\":5945:5949   */\n      0x00\n        /* \"#utility.yul\":5983:5985   */\n      0x20\n        /* \"#utility.yul\":5972:5981   */\n      dup3\n        /* \"#utility.yul\":5968:5986   */\n      add\n        /* \"#utility.yul\":5960:5986   */\n      swap1\n      pop\n        /* \"#utility.yul\":6032:6041   */\n      dup2\n        /* \"#utility.yul\":6026:6030   */\n      dup2\n        /* \"#utility.yul\":6022:6042   */\n      sub\n        /* \"#utility.yul\":6018:6019   */\n      0x00\n        /* \"#utility.yul\":6007:6016   */\n      dup4\n        /* \"#utility.yul\":6003:6020   */\n      add\n        /* \"#utility.yul\":5996:6043   */\n      mstore\n        /* \"#utility.yul\":6060:6191   */\n      tag_360\n        /* \"#utility.yul\":6186:6190   */\n      dup2\n        /* \"#utility.yul\":6060:6191   */\n      tag_235\n      jump\t// in\n    tag_360:\n        /* \"#utility.yul\":6052:6191   */\n      swap1\n      pop\n        /* \"#utility.yul\":5779:6198   */\n      swap2\n      swap1\n      pop\n      jump\t// out\n        /* \"#utility.yul\":6204:6424   */\n    tag_236:\n        /* \"#utility.yul\":6344:6378   */\n      0x496e707574206d75737420626520612073696e676c6520636861726163746572\n        /* \"#utility.yul\":6340:6341   */\n      0x00\n        /* \"#utility.yul\":6332:6338   */\n      dup3\n        /* \"#utility.yul\":6328:6342   */\n      add\n        /* \"#utility.yul\":6321:6379   */\n      mstore\n        /* \"#utility.yul\":6413:6416   */\n      0x2e00000000000000000000000000000000000000000000000000000000000000\n        /* \"#utility.yul\":6408:6410   */\n      0x20\n        /* \"#utility.yul\":6400:6406   */\n      dup3\n        /* \"#utility.yul\":6396:6411   */\n      add\n        /* \"#utility.yul\":6389:6417   */\n      mstore\n        /* \"#utility.yul\":6204:6424   */\n      pop\n      jump\t// out\n        /* \"#utility.yul\":6430:6796   */\n    tag_237:\n        /* \"#utility.yul\":6572:6575   */\n      0x00\n        /* \"#utility.yul\":6593:6660   */\n      tag_363\n        /* \"#utility.yul\":6657:6659   */\n      0x21\n        /* \"#utility.yul\":6652:6655   */\n      dup4\n        /* \"#utility.yul\":6593:6660   */\n      tag_229\n      jump\t// in\n    tag_363:\n        /* \"#utility.yul\":6586:6660   */\n      swap2\n      pop\n        /* \"#utility.yul\":6669:6762   */\n      tag_364\n        /* \"#utility.yul\":6758:6761   */\n      dup3\n        /* \"#utility.yul\":6669:6762   */\n      tag_236\n      jump\t// in\n    tag_364:\n        /* \"#utility.yul\":6787:6789   */\n      0x40\n        /* \"#utility.yul\":6782:6785   */\n      dup3\n        /* \"#utility.yul\":6778:6790   */\n      add\n        /* \"#utility.yul\":6771:6790   */\n      swap1\n      pop\n        /* \"#utility.yul\":6430:6796   */\n      swap2\n      swap1\n      pop\n      jump\t// out\n        /* \"#utility.yul\":6802:7221   */\n    tag_31:\n        /* \"#utility.yul\":6968:6972   */\n      0x00\n        /* \"#utility.yul\":7006:7008   */\n      0x20\n        /* \"#utility.yul\":6995:7004   */\n      dup3\n        /* \"#utility.yul\":6991:7009   */\n      add\n        /* \"#utility.yul\":6983:7009   */\n      swap1\n      pop\n        /* \"#utility.yul\":7055:7064   */\n      dup2\n        /* \"#utility.yul\":7049:7053   */\n      dup2\n        /* \"#utility.yul\":7045:7065   */\n      sub\n        /* \"#utility.yul\":7041:7042   */\n      0x00\n        /* \"#utility.yul\":7030:7039   */\n      dup4\n        /* \"#utility.yul\":7026:7043   */\n      add\n        /* \"#utility.yul\":7019:7066   */\n      mstore\n        /* \"#utility.yul\":7083:7214   */\n      tag_366\n        /* \"#utility.yul\":7209:7213   */\n      dup2\n        /* \"#utility.yul\":7083:7214   */\n      tag_237\n      jump\t// in\n    tag_366:\n        /* \"#utility.yul\":7075:7214   */\n      swap1\n      pop\n        /* \"#utility.yul\":6802:7221   */\n      swap2\n      swap1\n      pop\n      jump\t// out\n        /* \"#utility.yul\":7227:7407   */\n    tag_238:\n        /* \"#utility.yul\":7275:7352   */\n      0x4e487b7100000000000000000000000000000000000000000000000000000000\n        /* \"#utility.yul\":7272:7273   */\n      0x00\n        /* \"#utility.yul\":7265:7353   */\n      mstore\n        /* \"#utility.yul\":7372:7376   */\n      0x11\n        /* \"#utility.yul\":7369:7370   */\n      0x04\n        /* \"#utility.yul\":7362:7377   */\n      mstore\n        /* \"#utility.yul\":7396:7400   */\n      0x24\n        /* \"#utility.yul\":7393:7394   */\n      0x00\n        /* \"#utility.yul\":7386:7401   */\n      revert\n        /* \"#utility.yul\":7413:7604   */\n    tag_33:\n        /* \"#utility.yul\":7453:7456   */\n      0x00\n        /* \"#utility.yul\":7472:7492   */\n      tag_369\n        /* \"#utility.yul\":7490:7491   */\n      dup3\n        /* \"#utility.yul\":7472:7492   */\n      tag_232\n      jump\t// in\n    tag_369:\n        /* \"#utility.yul\":7467:7492   */\n      swap2\n      pop\n        /* \"#utility.yul\":7506:7526   */\n      tag_370\n        /* \"#utility.yul\":7524:7525   */\n      dup4\n        /* \"#utility.yul\":7506:7526   */\n      tag_232\n      jump\t// in\n    tag_370:\n        /* \"#utility.yul\":7501:7526   */\n      swap3\n      pop\n        /* \"#utility.yul\":7549:7550   */\n      dup3\n        /* \"#utility.yul\":7546:7547   */\n      dup3\n        /* \"#utility.yul\":7542:7551   */\n      add\n        /* \"#utility.yul\":7535:7551   */\n      swap1\n      pop\n        /* \"#utility.yul\":7570:7573   */\n      dup1\n        /* \"#utility.yul\":7567:7568   */\n      dup3\n        /* \"#utility.yul\":7564:7574   */\n      gt\n        /* \"#utility.yul\":7561:7597   */\n      iszero\n      tag_371\n      jumpi\n        /* \"#utility.yul\":7577:7595   */\n      tag_372\n      tag_238\n      jump\t// in\n    tag_372:\n        /* \"#utility.yul\":7561:7597   */\n    tag_371:\n        /* \"#utility.yul\":7413:7604   */\n      swap3\n      swap2\n      pop\n      pop\n      jump\t// out\n        /* \"#utility.yul\":7610:7779   */\n    tag_239:\n        /* \"#utility.yul\":7750:7771   */\n      0x54696d65206c696d697420726561636865642e00000000000000000000000000\n        /* \"#utility.yul\":7746:7747   */\n      0x00\n        /* \"#utility.yul\":7738:7744   */\n      dup3\n        /* \"#utility.yul\":7734:7748   */\n      add\n        /* \"#utility.yul\":7727:7772   */\n      mstore\n        /* \"#utility.yul\":7610:7779   */\n      pop\n      jump\t// out\n        /* \"#utility.yul\":7785:8151   */\n    tag_240:\n        /* \"#utility.yul\":7927:7930   */\n      0x00\n        /* \"#utility.yul\":7948:8015   */\n      tag_375\n        /* \"#utility.yul\":8012:8014   */\n      0x13\n        /* \"#utility.yul\":8007:8010   */\n      dup4\n        /* \"#utility.yul\":7948:8015   */\n      tag_229\n      jump\t// in\n    tag_375:\n        /* \"#utility.yul\":7941:8015   */\n      swap2\n      pop\n        /* \"#utility.yul\":8024:8117   */\n      tag_376\n        /* \"#utility.yul\":8113:8116   */\n      dup3\n        /* \"#utility.yul\":8024:8117   */\n      tag_239\n      jump\t// in\n    tag_376:\n        /* \"#utility.yul\":8142:8144   */\n      0x20\n        /* \"#utility.yul\":8137:8140   */\n      dup3\n        /* \"#utility.yul\":8133:8145   */\n      add\n        /* \"#utility.yul\":8126:8145   */\n      swap1\n      pop\n        /* \"#utility.yul\":7785:8151   */\n      swap2\n      swap1\n      pop\n      jump\t// out\n        /* \"#utility.yul\":8157:8576   */\n    tag_36:\n        /* \"#utility.yul\":8323:8327   */\n      0x00\n        /* \"#utility.yul\":8361:8363   */\n      0x20\n        /* \"#utility.yul\":8350:8359   */\n      dup3\n        /* \"#utility.yul\":8346:8364   */\n      add\n        /* \"#utility.yul\":8338:8364   */\n      swap1\n      pop\n        /* \"#utility.yul\":8410:8419   */\n      dup2\n        /* \"#utility.yul\":8404:8408   */\n      dup2\n        /* \"#utility.yul\":8400:8420   */\n      sub\n        /* \"#utility.yul\":8396:8397   */\n      0x00\n        /* \"#utility.yul\":8385:8394   */\n      dup4\n        /* \"#utility.yul\":8381:8398   */\n      add\n        /* \"#utility.yul\":8374:8421   */\n      mstore\n        /* \"#utility.yul\":8438:8569   */\n      tag_378\n        /* \"#utility.yul\":8564:8568   */\n      dup2\n        /* \"#utility.yul\":8438:8569   */\n      tag_240\n      jump\t// in\n    tag_378:\n        /* \"#utility.yul\":8430:8569   */\n      swap1\n      pop\n        /* \"#utility.yul\":8157:8576   */\n      swap2\n      swap1\n      pop\n      jump\t// out\n        /* \"#utility.yul\":8582:8806   */\n    tag_241:\n        /* \"#utility.yul\":8722:8756   */\n      0x47616d65206f7665722e20596f75206469646e27742066696e69736820696e20\n        /* \"#utility.yul\":8718:8719   */\n      0x00\n        /* \"#utility.yul\":8710:8716   */\n      dup3\n        /* \"#utility.yul\":8706:8720   */\n      add\n        /* \"#utility.yul\":8699:8757   */\n      mstore\n        /* \"#utility.yul\":8791:8798   */\n      0x74696d652e000000000000000000000000000000000000000000000000000000\n        /* \"#utility.yul\":8786:8788   */\n      0x20\n        /* \"#utility.yul\":8778:8784   */\n      dup3\n        /* \"#utility.yul\":8774:8789   */\n      add\n        /* \"#utility.yul\":8767:8799   */\n      mstore\n        /* \"#utility.yul\":8582:8806   */\n      pop\n      jump\t// out\n        /* \"#utility.yul\":8812:9178   */\n    tag_242:\n        /* \"#utility.yul\":8954:8957   */\n      0x00\n        /* \"#utility.yul\":8975:9042   */\n      tag_381\n        /* \"#utility.yul\":9039:9041   */\n      0x25\n        /* \"#utility.yul\":9034:9037   */\n      dup4\n        /* \"#utility.yul\":8975:9042   */\n      tag_229\n      jump\t// in\n    tag_381:\n        /* \"#utility.yul\":8968:9042   */\n      swap2\n      pop\n        /* \"#utility.yul\":9051:9144   */\n      tag_382\n        /* \"#utility.yul\":9140:9143   */\n      dup3\n        /* \"#utility.yul\":9051:9144   */\n      tag_241\n      jump\t// in\n    tag_382:\n        /* \"#utility.yul\":9169:9171   */\n      0x40\n        /* \"#utility.yul\":9164:9167   */\n      dup3\n        /* \"#utility.yul\":9160:9172   */\n      add\n        /* \"#utility.yul\":9153:9172   */\n      swap1\n      pop\n        /* \"#utility.yul\":8812:9178   */\n      swap2\n      swap1\n      pop\n      jump\t// out\n        /* \"#utility.yul\":9184:9603   */\n    tag_38:\n        /* \"#utility.yul\":9350:9354   */\n      0x00\n        /* \"#utility.yul\":9388:9390   */\n      0x20\n        /* \"#utility.yul\":9377:9386   */\n      dup3\n        /* \"#utility.yul\":9373:9391   */\n      add\n        /* \"#utility.yul\":9365:9391   */\n      swap1\n      pop\n        /* \"#utility.yul\":9437:9446   */\n      dup2\n        /* \"#utility.yul\":9431:9435   */\n      dup2\n        /* \"#utility.yul\":9427:9447   */\n      sub\n        /* \"#utility.yul\":9423:9424   */\n      0x00\n        /* \"#utility.yul\":9412:9421   */\n      dup4\n        /* \"#utility.yul\":9408:9425   */\n      add\n        /* \"#utility.yul\":9401:9448   */\n      mstore\n        /* \"#utility.yul\":9465:9596   */\n      tag_384\n        /* \"#utility.yul\":9591:9595   */\n      dup2\n        /* \"#utility.yul\":9465:9596   */\n      tag_242\n      jump\t// in\n    tag_384:\n        /* \"#utility.yul\":9457:9596   */\n      swap1\n      pop\n        /* \"#utility.yul\":9184:9603   */\n      swap2\n      swap1\n      pop\n      jump\t// out\n        /* \"#utility.yul\":9609:9789   */\n    tag_243:\n        /* \"#utility.yul\":9657:9734   */\n      0x4e487b7100000000000000000000000000000000000000000000000000000000\n        /* \"#utility.yul\":9654:9655   */\n      0x00\n        /* \"#utility.yul\":9647:9735   */\n      mstore\n        /* \"#utility.yul\":9754:9758   */\n      0x22\n        /* \"#utility.yul\":9751:9752   */\n      0x04\n        /* \"#utility.yul\":9744:9759   */\n      mstore\n        /* \"#utility.yul\":9778:9782   */\n      0x24\n        /* \"#utility.yul\":9775:9776   */\n      0x00\n        /* \"#utility.yul\":9768:9783   */\n      revert\n        /* \"#utility.yul\":9795:10115   */\n    tag_44:\n        /* \"#utility.yul\":9839:9845   */\n      0x00\n        /* \"#utility.yul\":9876:9877   */\n      0x02\n        /* \"#utility.yul\":9870:9874   */\n      dup3\n        /* \"#utility.yul\":9866:9878   */\n      div\n        /* \"#utility.yul\":9856:9878   */\n      swap1\n      pop\n        /* \"#utility.yul\":9923:9924   */\n      0x01\n        /* \"#utility.yul\":9917:9921   */\n      dup3\n        /* \"#utility.yul\":9913:9925   */\n      and\n        /* \"#utility.yul\":9944:9962   */\n      dup1\n        /* \"#utility.yul\":9934:10015   */\n      tag_387\n      jumpi\n        /* \"#utility.yul\":10000:10004   */\n      0x7f\n        /* \"#utility.yul\":9992:9998   */\n      dup3\n        /* \"#utility.yul\":9988:10005   */\n      and\n        /* \"#utility.yul\":9978:10005   */\n      swap2\n      pop\n        /* \"#utility.yul\":9934:10015   */\n    tag_387:\n        /* \"#utility.yul\":10062:10064   */\n      0x20\n        /* \"#utility.yul\":10054:10060   */\n      dup3\n        /* \"#utility.yul\":10051:10065   */\n      lt\n        /* \"#utility.yul\":10031:10049   */\n      dup2\n        /* \"#utility.yul\":10028:10066   */\n      sub\n        /* \"#utility.yul\":10025:10109   */\n      tag_388\n      jumpi\n        /* \"#utility.yul\":10081:10099   */\n      tag_389\n      tag_243\n      jump\t// in\n    tag_389:\n        /* \"#utility.yul\":10025:10109   */\n    tag_388:\n        /* \"#utility.yul\":9846:10115   */\n      pop\n        /* \"#utility.yul\":9795:10115   */\n      swap2\n      swap1\n      pop\n      jump\t// out\n        /* \"#utility.yul\":10121:10301   */\n    tag_52:\n        /* \"#utility.yul\":10169:10246   */\n      0x4e487b7100000000000000000000000000000000000000000000000000000000\n        /* \"#utility.yul\":10166:10167   */\n      0x00\n        /* \"#utility.yul\":10159:10247   */\n      mstore\n        /* \"#utility.yul\":10266:10270   */\n      0x32\n        /* \"#utility.yul\":10263:10264   */\n      0x04\n        /* \"#utility.yul\":10256:10271   */\n      mstore\n        /* \"#utility.yul\":10290:10294   */\n      0x24\n        /* \"#utility.yul\":10287:10288   */\n      0x00\n        /* \"#utility.yul\":10280:10295   */\n      revert\n        /* \"#utility.yul\":10307:10717   */\n    tag_74:\n        /* \"#utility.yul\":10347:10354   */\n      0x00\n        /* \"#utility.yul\":10370:10390   */\n      tag_392\n        /* \"#utility.yul\":10388:10389   */\n      dup3\n        /* \"#utility.yul\":10370:10390   */\n      tag_232\n      jump\t// in\n    tag_392:\n        /* \"#utility.yul\":10365:10390   */\n      swap2\n      pop\n        /* \"#utility.yul\":10404:10424   */\n      tag_393\n        /* \"#utility.yul\":10422:10423   */\n      dup4\n        /* \"#utility.yul\":10404:10424   */\n      tag_232\n      jump\t// in\n    tag_393:\n        /* \"#utility.yul\":10399:10424   */\n      swap3\n      pop\n        /* \"#utility.yul\":10459:10460   */\n      dup3\n        /* \"#utility.yul\":10456:10457   */\n      dup3\n        /* \"#utility.yul\":10452:10461   */\n      mul\n        /* \"#utility.yul\":10481:10511   */\n      tag_394\n        /* \"#utility.yul\":10499:10510   */\n      dup2\n        /* \"#utility.yul\":10481:10511   */\n      tag_232\n      jump\t// in\n    tag_394:\n        /* \"#utility.yul\":10470:10511   */\n      swap2\n      pop\n        /* \"#utility.yul\":10660:10661   */\n      dup3\n        /* \"#utility.yul\":10651:10658   */\n      dup3\n        /* \"#utility.yul\":10647:10662   */\n      div\n        /* \"#utility.yul\":10644:10645   */\n      dup5\n        /* \"#utility.yul\":10641:10663   */\n      eq\n        /* \"#utility.yul\":10621:10622   */\n      dup4\n        /* \"#utility.yul\":10614:10623   */\n      iszero\n        /* \"#utility.yul\":10594:10677   */\n      or\n        /* \"#utility.yul\":10571:10710   */\n      tag_395\n      jumpi\n        /* \"#utility.yul\":10690:10708   */\n      tag_396\n      tag_238\n      jump\t// in\n    tag_396:\n        /* \"#utility.yul\":10571:10710   */\n    tag_395:\n        /* \"#utility.yul\":10355:10717   */\n      pop\n        /* \"#utility.yul\":10307:10717   */\n      swap3\n      swap2\n      pop\n      pop\n      jump\t// out\n        /* \"#utility.yul\":10723:10864   */\n    tag_244:\n        /* \"#utility.yul\":10772:10776   */\n      0x00\n        /* \"#utility.yul\":10795:10798   */\n      dup2\n        /* \"#utility.yul\":10787:10798   */\n      swap1\n      pop\n        /* \"#utility.yul\":10818:10821   */\n      dup2\n        /* \"#utility.yul\":10815:10816   */\n      0x00\n        /* \"#utility.yul\":10808:10822   */\n      mstore\n        /* \"#utility.yul\":10852:10856   */\n      0x20\n        /* \"#utility.yul\":10849:10850   */\n      0x00\n        /* \"#utility.yul\":10839:10857   */\n      keccak256\n        /* \"#utility.yul\":10831:10857   */\n      swap1\n      pop\n        /* \"#utility.yul\":10723:10864   */\n      swap2\n      swap1\n      pop\n      jump\t// out\n        /* \"#utility.yul\":10870:10963   */\n    tag_245:\n        /* \"#utility.yul\":10907:10913   */\n      0x00\n        /* \"#utility.yul\":10954:10956   */\n      0x20\n        /* \"#utility.yul\":10949:10951   */\n      0x1f\n        /* \"#utility.yul\":10942:10947   */\n      dup4\n        /* \"#utility.yul\":10938:10952   */\n      add\n        /* \"#utility.yul\":10934:10957   */\n      div\n        /* \"#utility.yul\":10924:10957   */\n      swap1\n      pop\n        /* \"#utility.yul\":10870:10963   */\n      swap2\n      swap1\n      pop\n      jump\t// out\n        /* \"#utility.yul\":10969:11076   */\n    tag_246:\n        /* \"#utility.yul\":11013:11021   */\n      0x00\n        /* \"#utility.yul\":11063:11068   */\n      dup3\n        /* \"#utility.yul\":11057:11061   */\n      dup3\n        /* \"#utility.yul\":11053:11069   */\n      shl\n        /* \"#utility.yul\":11032:11069   */\n      swap1\n      pop\n        /* \"#utility.yul\":10969:11076   */\n      swap3\n      swap2\n      pop\n      pop\n      jump\t// out\n        /* \"#utility.yul\":11082:11475   */\n    tag_247:\n        /* \"#utility.yul\":11151:11157   */\n      0x00\n        /* \"#utility.yul\":11201:11202   */\n      0x08\n        /* \"#utility.yul\":11189:11199   */\n      dup4\n        /* \"#utility.yul\":11185:11203   */\n      mul\n        /* \"#utility.yul\":11224:11321   */\n      tag_401\n        /* \"#utility.yul\":11254:11320   */\n      0xffffffffffffffffffffffffffffffffffffffffffffffffffffffffffffffff\n        /* \"#utility.yul\":11243:11252   */\n      dup3\n        /* \"#utility.yul\":11224:11321   */\n      tag_246\n      jump\t// in\n    tag_401:\n        /* \"#utility.yul\":11342:11381   */\n      tag_402\n        /* \"#utility.yul\":11372:11380   */\n      dup7\n        /* \"#utility.yul\":11361:11370   */\n      dup4\n        /* \"#utility.yul\":11342:11381   */\n      tag_246\n      jump\t// in\n    tag_402:\n        /* \"#utility.yul\":11330:11381   */\n      swap6\n      pop\n        /* \"#utility.yul\":11414:11418   */\n      dup1\n        /* \"#utility.yul\":11410:11419   */\n      not\n        /* \"#utility.yul\":11403:11408   */\n      dup5\n        /* \"#utility.yul\":11399:11420   */\n      and\n        /* \"#utility.yul\":11390:11420   */\n      swap4\n      pop\n        /* \"#utility.yul\":11463:11467   */\n      dup1\n        /* \"#utility.yul\":11453:11461   */\n      dup7\n        /* \"#utility.yul\":11449:11468   */\n      and\n        /* \"#utility.yul\":11442:11447   */\n      dup5\n        /* \"#utility.yul\":11439:11469   */\n      or\n        /* \"#utility.yul\":11429:11469   */\n      swap3\n      pop\n        /* \"#utility.yul\":11158:11475   */\n      pop\n      pop\n        /* \"#utility.yul\":11082:11475   */\n      swap4\n      swap3\n      pop\n      pop\n      pop\n      jump\t// out\n        /* \"#utility.yul\":11481:11541   */\n    tag_248:\n        /* \"#utility.yul\":11509:11512   */\n      0x00\n        /* \"#utility.yul\":11530:11535   */\n      dup2\n        /* \"#utility.yul\":11523:11535   */\n      swap1\n      pop\n        /* \"#utility.yul\":11481:11541   */\n      swap2\n      swap1\n      pop\n      jump\t// out\n        /* \"#utility.yul\":11547:11689   */\n    tag_249:\n        /* \"#utility.yul\":11597:11606   */\n      0x00\n        /* \"#utility.yul\":11630:11683   */\n      tag_405\n        /* \"#utility.yul\":11648:11682   */\n      tag_406\n        /* \"#utility.yul\":11657:11681   */\n      tag_407\n        /* \"#utility.yul\":11675:11680   */\n      dup5\n        /* \"#utility.yul\":11657:11681   */\n      tag_232\n      jump\t// in\n    tag_407:\n        /* \"#utility.yul\":11648:11682   */\n      tag_248\n      jump\t// in\n    tag_406:\n        /* \"#utility.yul\":11630:11683   */\n      tag_232\n      jump\t// in\n    tag_405:\n        /* \"#utility.yul\":11617:11683   */\n      swap1\n      pop\n        /* \"#utility.yul\":11547:11689   */\n      swap2\n      swap1\n      pop\n      jump\t// out\n        /* \"#utility.yul\":11695:11770   */\n    tag_250:\n        /* \"#utility.yul\":11738:11741   */\n      0x00\n        /* \"#utility.yul\":11759:11764   */\n      dup2\n        /* \"#utility.yul\":11752:11764   */\n      swap1\n      pop\n        /* \"#utility.yul\":11695:11770   */\n      swap2\n      swap1\n      pop\n      jump\t// out\n        /* \"#utility.yul\":11776:12045   */\n    tag_251:\n        /* \"#utility.yul\":11886:11925   */\n      tag_410\n        /* \"#utility.yul\":11917:11924   */\n      dup4\n        /* \"#utility.yul\":11886:11925   */\n      tag_249\n      jump\t// in\n    tag_410:\n        /* \"#utility.yul\":11947:12038   */\n      tag_411\n        /* \"#utility.yul\":11996:12037   */\n      tag_412\n        /* \"#utility.yul\":12020:12036   */\n      dup3\n        /* \"#utility.yul\":11996:12037   */\n      tag_250\n      jump\t// in\n    tag_412:\n        /* \"#utility.yul\":11988:11994   */\n      dup5\n        /* \"#utility.yul\":11981:11985   */\n      dup5\n        /* \"#utility.yul\":11975:11986   */\n      sload\n        /* \"#utility.yul\":11947:12038   */\n      tag_247\n      jump\t// in\n    tag_411:\n        /* \"#utility.yul\":11941:11945   */\n      dup3\n        /* \"#utility.yul\":11934:12039   */\n      sstore\n        /* \"#utility.yul\":11852:12045   */\n      pop\n        /* \"#utility.yul\":11776:12045   */\n      pop\n      pop\n      pop\n      jump\t// out\n        /* \"#utility.yul\":12051:12124   */\n    tag_252:\n        /* \"#utility.yul\":12096:12099   */\n      0x00\n        /* \"#utility.yul\":12051:12124   */\n      swap1\n      jump\t// out\n        /* \"#utility.yul\":12130:12319   */\n    tag_253:\n        /* \"#utility.yul\":12207:12239   */\n      tag_415\n      tag_252\n      jump\t// in\n    tag_415:\n        /* \"#utility.yul\":12248:12313   */\n      tag_416\n        /* \"#utility.yul\":12306:12312   */\n      dup2\n        /* \"#utility.yul\":12298:12304   */\n      dup5\n        /* \"#utility.yul\":12292:12296   */\n      dup5\n        /* \"#utility.yul\":12248:12313   */\n      tag_251\n      jump\t// in\n    tag_416:\n        /* \"#utility.yul\":12183:12319   */\n      pop\n        /* \"#utility.yul\":12130:12319   */\n      pop\n      pop\n      jump\t// out\n        /* \"#utility.yul\":12325:12511   */\n    tag_254:\n        /* \"#utility.yul\":12385:12505   */\n    tag_418:\n        /* \"#utility.yul\":12402:12405   */\n      dup2\n        /* \"#utility.yul\":12395:12400   */\n      dup2\n        /* \"#utility.yul\":12392:12406   */\n      lt\n        /* \"#utility.yul\":12385:12505   */\n      iszero\n      tag_420\n      jumpi\n        /* \"#utility.yul\":12456:12495   */\n      tag_421\n        /* \"#utility.yul\":12493:12494   */\n      0x00\n        /* \"#utility.yul\":12486:12491   */\n      dup3\n        /* \"#utility.yul\":12456:12495   */\n      tag_253\n      jump\t// in\n    tag_421:\n        /* \"#utility.yul\":12429:12430   */\n      0x01\n        /* \"#utility.yul\":12422:12427   */\n      dup2\n        /* \"#utility.yul\":12418:12431   */\n      add\n        /* \"#utility.yul\":12409:12431   */\n      swap1\n      pop\n        /* \"#utility.yul\":12385:12505   */\n      jump(tag_418)\n    tag_420:\n        /* \"#utility.yul\":12325:12511   */\n      pop\n      pop\n      jump\t// out\n        /* \"#utility.yul\":12517:13060   */\n    tag_255:\n        /* \"#utility.yul\":12618:12620   */\n      0x1f\n        /* \"#utility.yul\":12613:12616   */\n      dup3\n        /* \"#utility.yul\":12610:12621   */\n      gt\n        /* \"#utility.yul\":12607:13053   */\n      iszero\n      tag_423\n      jumpi\n        /* \"#utility.yul\":12652:12690   */\n      tag_424\n        /* \"#utility.yul\":12684:12689   */\n      dup2\n        /* \"#utility.yul\":12652:12690   */\n      tag_244\n      jump\t// in\n    tag_424:\n        /* \"#utility.yul\":12736:12765   */\n      tag_425\n        /* \"#utility.yul\":12754:12764   */\n      dup5\n        /* \"#utility.yul\":12736:12765   */\n      tag_245\n      jump\t// in\n    tag_425:\n        /* \"#utility.yul\":12726:12734   */\n      dup2\n        /* \"#utility.yul\":12722:12766   */\n      add\n        /* \"#utility.yul\":12919:12921   */\n      0x20\n        /* \"#utility.yul\":12907:12917   */\n      dup6\n        /* \"#utility.yul\":12904:12922   */\n      lt\n        /* \"#utility.yul\":12901:12950   */\n      iszero\n      tag_426\n      jumpi\n        /* \"#utility.yul\":12940:12948   */\n      dup2\n        /* \"#utility.yul\":12925:12948   */\n      swap1\n      pop\n        /* \"#utility.yul\":12901:12950   */\n    tag_426:\n        /* \"#utility.yul\":12963:13043   */\n      tag_427\n        /* \"#utility.yul\":13019:13041   */\n      tag_428\n        /* \"#utility.yul\":13037:13040   */\n      dup6\n        /* \"#utility.yul\":13019:13041   */\n      tag_245\n      jump\t// in\n    tag_428:\n        /* \"#utility.yul\":13009:13017   */\n      dup4\n        /* \"#utility.yul\":13005:13042   */\n      add\n        /* \"#utility.yul\":12992:13003   */\n      dup3\n        /* \"#utility.yul\":12963:13043   */\n      tag_254\n      jump\t// in\n    tag_427:\n        /* \"#utility.yul\":12622:13053   */\n      pop\n      pop\n        /* \"#utility.yul\":12607:13053   */\n    tag_423:\n        /* \"#utility.yul\":12517:13060   */\n      pop\n      pop\n      pop\n      jump\t// out\n        /* \"#utility.yul\":13066:13183   */\n    tag_256:\n        /* \"#utility.yul\":13120:13128   */\n      0x00\n        /* \"#utility.yul\":13170:13175   */\n      dup3\n        /* \"#utility.yul\":13164:13168   */\n      dup3\n        /* \"#utility.yul\":13160:13176   */\n      shr\n        /* \"#utility.yul\":13139:13176   */\n      swap1\n      pop\n        /* \"#utility.yul\":13066:13183   */\n      swap3\n      swap2\n      pop\n      pop\n      jump\t// out\n        /* \"#utility.yul\":13189:13358   */\n    tag_257:\n        /* \"#utility.yul\":13233:13239   */\n      0x00\n        /* \"#utility.yul\":13266:13317   */\n      tag_431\n        /* \"#utility.yul\":13314:13315   */\n      0x00\n        /* \"#utility.yul\":13310:13316   */\n      not\n        /* \"#utility.yul\":13302:13307   */\n      dup5\n        /* \"#utility.yul\":13299:13300   */\n      0x08\n        /* \"#utility.yul\":13295:13308   */\n      mul\n        /* \"#utility.yul\":13266:13317   */\n      tag_256\n      jump\t// in\n    tag_431:\n        /* \"#utility.yul\":13262:13318   */\n      not\n        /* \"#utility.yul\":13347:13351   */\n      dup1\n        /* \"#utility.yul\":13341:13345   */\n      dup4\n        /* \"#utility.yul\":13337:13352   */\n      and\n        /* \"#utility.yul\":13327:13352   */\n      swap2\n      pop\n        /* \"#utility.yul\":13240:13358   */\n      pop\n        /* \"#utility.yul\":13189:13358   */\n      swap3\n      swap2\n      pop\n      pop\n      jump\t// out\n        /* \"#utility.yul\":13363:13658   */\n    tag_258:\n        /* \"#utility.yul\":13439:13443   */\n      0x00\n        /* \"#utility.yul\":13585:13614   */\n      tag_433\n        /* \"#utility.yul\":13610:13613   */\n      dup4\n        /* \"#utility.yul\":13604:13608   */\n      dup4\n        /* \"#utility.yul\":13585:13614   */\n      tag_257\n      jump\t// in\n    tag_433:\n        /* \"#utility.yul\":13577:13614   */\n      swap2\n      pop\n        /* \"#utility.yul\":13647:13650   */\n      dup3\n        /* \"#utility.yul\":13644:13645   */\n      0x02\n        /* \"#utility.yul\":13640:13651   */\n      mul\n        /* \"#utility.yul\":13634:13638   */\n      dup3\n        /* \"#utility.yul\":13631:13652   */\n      or\n        /* \"#utility.yul\":13623:13652   */\n      swap1\n      pop\n        /* \"#utility.yul\":13363:13658   */\n      swap3\n      swap2\n      pop\n      pop\n      jump\t// out\n        /* \"#utility.yul\":13663:15058   */\n    tag_78:\n        /* \"#utility.yul\":13780:13817   */\n      tag_435\n        /* \"#utility.yul\":13813:13816   */\n      dup3\n        /* \"#utility.yul\":13780:13817   */\n      tag_228\n      jump\t// in\n    tag_435:\n        /* \"#utility.yul\":13882:13900   */\n      0xffffffffffffffff\n        /* \"#utility.yul\":13874:13880   */\n      dup2\n        /* \"#utility.yul\":13871:13901   */\n      gt\n        /* \"#utility.yul\":13868:13924   */\n      iszero\n      tag_436\n      jumpi\n        /* \"#utility.yul\":13904:13922   */\n      tag_437\n      tag_144\n      jump\t// in\n    tag_437:\n        /* \"#utility.yul\":13868:13924   */\n    tag_436:\n        /* \"#utility.yul\":13948:13986   */\n      tag_438\n        /* \"#utility.yul\":13980:13984   */\n      dup3\n        /* \"#utility.yul\":13974:13985   */\n      sload\n        /* \"#utility.yul\":13948:13986   */\n      tag_44\n      jump\t// in\n    tag_438:\n        /* \"#utility.yul\":14033:14100   */\n      tag_439\n        /* \"#utility.yul\":14093:14099   */\n      dup3\n        /* \"#utility.yul\":14085:14091   */\n      dup3\n        /* \"#utility.yul\":14079:14083   */\n      dup6\n        /* \"#utility.yul\":14033:14100   */\n      tag_255\n      jump\t// in\n    tag_439:\n        /* \"#utility.yul\":14127:14128   */\n      0x00\n        /* \"#utility.yul\":14151:14155   */\n      0x20\n        /* \"#utility.yul\":14138:14155   */\n      swap1\n      pop\n        /* \"#utility.yul\":14183:14185   */\n      0x1f\n        /* \"#utility.yul\":14175:14181   */\n      dup4\n        /* \"#utility.yul\":14172:14186   */\n      gt\n        /* \"#utility.yul\":14200:14201   */\n      0x01\n        /* \"#utility.yul\":14195:14813   */\n      dup2\n      eq\n      tag_441\n      jumpi\n        /* \"#utility.yul\":14857:14858   */\n      0x00\n        /* \"#utility.yul\":14874:14880   */\n      dup5\n        /* \"#utility.yul\":14871:14948   */\n      iszero\n      tag_442\n      jumpi\n        /* \"#utility.yul\":14923:14932   */\n      dup3\n        /* \"#utility.yul\":14918:14921   */\n      dup8\n        /* \"#utility.yul\":14914:14933   */\n      add\n        /* \"#utility.yul\":14908:14934   */\n      mload\n        /* \"#utility.yul\":14899:14934   */\n      swap1\n      pop\n        /* \"#utility.yul\":14871:14948   */\n    tag_442:\n        /* \"#utility.yul\":14974:15041   */\n      tag_443\n        /* \"#utility.yul\":15034:15040   */\n      dup6\n        /* \"#utility.yul\":15027:15032   */\n      dup3\n        /* \"#utility.yul\":14974:15041   */\n      tag_258\n      jump\t// in\n    tag_443:\n        /* \"#utility.yul\":14968:14972   */\n      dup7\n        /* \"#utility.yul\":14961:15042   */\n      sstore\n        /* \"#utility.yul\":14830:15052   */\n      pop\n        /* \"#utility.yul\":14165:15052   */\n      jump(tag_440)\n        /* \"#utility.yul\":14195:14813   */\n    tag_441:\n        /* \"#utility.yul\":14247:14251   */\n      0x1f\n        /* \"#utility.yul\":14243:14252   */\n      not\n        /* \"#utility.yul\":14235:14241   */\n      dup5\n        /* \"#utility.yul\":14231:14253   */\n      and\n        /* \"#utility.yul\":14281:14318   */\n      tag_444\n        /* \"#utility.yul\":14313:14317   */\n      dup7\n        /* \"#utility.yul\":14281:14318   */\n      tag_244\n      jump\t// in\n    tag_444:\n        /* \"#utility.yul\":14340:14341   */\n      0x00\n        /* \"#utility.yul\":14354:14562   */\n    tag_445:\n        /* \"#utility.yul\":14368:14375   */\n      dup3\n        /* \"#utility.yul\":14365:14366   */\n      dup2\n        /* \"#utility.yul\":14362:14376   */\n      lt\n        /* \"#utility.yul\":14354:14562   */\n      iszero\n      tag_447\n      jumpi\n        /* \"#utility.yul\":14447:14456   */\n      dup5\n        /* \"#utility.yul\":14442:14445   */\n      dup10\n        /* \"#utility.yul\":14438:14457   */\n      add\n        /* \"#utility.yul\":14432:14458   */\n      mload\n        /* \"#utility.yul\":14424:14430   */\n      dup3\n        /* \"#utility.yul\":14417:14459   */\n      sstore\n        /* \"#utility.yul\":14498:14499   */\n      0x01\n        /* \"#utility.yul\":14490:14496   */\n      dup3\n        /* \"#utility.yul\":14486:14500   */\n      add\n        /* \"#utility.yul\":14476:14500   */\n      swap2\n      pop\n        /* \"#utility.yul\":14545:14547   */\n      0x20\n        /* \"#utility.yul\":14534:14543   */\n      dup6\n        /* \"#utility.yul\":14530:14548   */\n      add\n        /* \"#utility.yul\":14517:14548   */\n      swap5\n      pop\n        /* \"#utility.yul\":14391:14395   */\n      0x20\n        /* \"#utility.yul\":14388:14389   */\n      dup2\n        /* \"#utility.yul\":14384:14396   */\n      add\n        /* \"#utility.yul\":14379:14396   */\n      swap1\n      pop\n        /* \"#utility.yul\":14354:14562   */\n      jump(tag_445)\n    tag_447:\n        /* \"#utility.yul\":14590:14596   */\n      dup7\n        /* \"#utility.yul\":14581:14588   */\n      dup4\n        /* \"#utility.yul\":14578:14597   */\n      lt\n        /* \"#utility.yul\":14575:14754   */\n      iszero\n      tag_448\n      jumpi\n        /* \"#utility.yul\":14648:14657   */\n      dup5\n        /* \"#utility.yul\":14643:14646   */\n      dup10\n        /* \"#utility.yul\":14639:14658   */\n      add\n        /* \"#utility.yul\":14633:14659   */\n      mload\n        /* \"#utility.yul\":14691:14739   */\n      tag_449\n        /* \"#utility.yul\":14733:14737   */\n      0x1f\n        /* \"#utility.yul\":14725:14731   */\n      dup10\n        /* \"#utility.yul\":14721:14738   */\n      and\n        /* \"#utility.yul\":14710:14719   */\n      dup3\n        /* \"#utility.yul\":14691:14739   */\n      tag_257\n      jump\t// in\n    tag_449:\n        /* \"#utility.yul\":14683:14689   */\n      dup4\n        /* \"#utility.yul\":14676:14740   */\n      sstore\n        /* \"#utility.yul\":14598:14754   */\n      pop\n        /* \"#utility.yul\":14575:14754   */\n    tag_448:\n        /* \"#utility.yul\":14800:14801   */\n      0x01\n        /* \"#utility.yul\":14796:14797   */\n      0x02\n        /* \"#utility.yul\":14788:14794   */\n      dup9\n        /* \"#utility.yul\":14784:14798   */\n      mul\n        /* \"#utility.yul\":14780:14802   */\n      add\n        /* \"#utility.yul\":14774:14778   */\n      dup9\n        /* \"#utility.yul\":14767:14803   */\n      sstore\n        /* \"#utility.yul\":14202:14813   */\n      pop\n      pop\n      pop\n        /* \"#utility.yul\":14165:15052   */\n    tag_440:\n      pop\n        /* \"#utility.yul\":13755:15058   */\n      pop\n      pop\n      pop\n        /* \"#utility.yul\":13663:15058   */\n      pop\n      pop\n      jump\t// out\n        /* \"#utility.yul\":15064:15235   */\n    tag_82:\n        /* \"#utility.yul\":15103:15106   */\n      0x00\n        /* \"#utility.yul\":15126:15150   */\n      tag_451\n        /* \"#utility.yul\":15144:15149   */\n      dup3\n        /* \"#utility.yul\":15126:15150   */\n      tag_232\n      jump\t// in\n    tag_451:\n        /* \"#utility.yul\":15117:15150   */\n      swap2\n      pop\n        /* \"#utility.yul\":15172:15176   */\n      0x00\n        /* \"#utility.yul\":15165:15170   */\n      dup3\n        /* \"#utility.yul\":15162:15177   */\n      sub\n        /* \"#utility.yul\":15159:15200   */\n      tag_452\n      jumpi\n        /* \"#utility.yul\":15180:15198   */\n      tag_453\n      tag_238\n      jump\t// in\n    tag_453:\n        /* \"#utility.yul\":15159:15200   */\n    tag_452:\n        /* \"#utility.yul\":15227:15228   */\n      0x01\n        /* \"#utility.yul\":15220:15225   */\n      dup3\n        /* \"#utility.yul\":15216:15229   */\n      sub\n        /* \"#utility.yul\":15209:15229   */\n      swap1\n      pop\n        /* \"#utility.yul\":15064:15235   */\n      swap2\n      swap1\n      pop\n      jump\t// out\n        /* \"#utility.yul\":15241:15419   */\n    tag_259:\n        /* \"#utility.yul\":15381:15411   */\n      0x47616d65206f7665722e204e6f20617474656d707473206c6566742e00000000\n        /* \"#utility.yul\":15377:15378   */\n      0x00\n        /* \"#utility.yul\":15369:15375   */\n      dup3\n        /* \"#utility.yul\":15365:15379   */\n      add\n        /* \"#utility.yul\":15358:15412   */\n      mstore\n        /* \"#utility.yul\":15241:15419   */\n      pop\n      jump\t// out\n        /* \"#utility.yul\":15425:15791   */\n    tag_260:\n        /* \"#utility.yul\":15567:15570   */\n      0x00\n        /* \"#utility.yul\":15588:15655   */\n      tag_456\n        /* \"#utility.yul\":15652:15654   */\n      0x1c\n        /* \"#utility.yul\":15647:15650   */\n      dup4\n        /* \"#utility.yul\":15588:15655   */\n      tag_229\n      jump\t// in\n    tag_456:\n        /* \"#utility.yul\":15581:15655   */\n      swap2\n      pop\n        /* \"#utility.yul\":15664:15757   */\n      tag_457\n        /* \"#utility.yul\":15753:15756   */\n      dup3\n        /* \"#utility.yul\":15664:15757   */\n      tag_259\n      jump\t// in\n    tag_457:\n        /* \"#utility.yul\":15782:15784   */\n      0x20\n        /* \"#utility.yul\":15777:15780   */\n      dup3\n        /* \"#utility.yul\":15773:15785   */\n      add\n        /* \"#utility.yul\":15766:15785   */\n      swap1\n      pop\n        /* \"#utility.yul\":15425:15791   */\n      swap2\n      swap1\n      pop\n      jump\t// out\n        /* \"#utility.yul\":15797:16216   */\n    tag_85:\n        /* \"#utility.yul\":15963:15967   */\n      0x00\n        /* \"#utility.yul\":16001:16003   */\n      0x20\n        /* \"#utility.yul\":15990:15999   */\n      dup3\n        /* \"#utility.yul\":15986:16004   */\n      add\n        /* \"#utility.yul\":15978:16004   */\n      swap1\n      pop\n        /* \"#utility.yul\":16050:16059   */\n      dup2\n        /* \"#utility.yul\":16044:16048   */\n      dup2\n        /* \"#utility.yul\":16040:16060   */\n      sub\n        /* \"#utility.yul\":16036:16037   */\n      0x00\n        /* \"#utility.yul\":16025:16034   */\n      dup4\n        /* \"#utility.yul\":16021:16038   */\n      add\n        /* \"#utility.yul\":16014:16061   */\n      mstore\n        /* \"#utility.yul\":16078:16209   */\n      tag_459\n        /* \"#utility.yul\":16204:16208   */\n      dup2\n        /* \"#utility.yul\":16078:16209   */\n      tag_260\n      jump\t// in\n    tag_459:\n        /* \"#utility.yul\":16070:16209   */\n      swap1\n      pop\n        /* \"#utility.yul\":15797:16216   */\n      swap2\n      swap1\n      pop\n      jump\t// out\n        /* \"#utility.yul\":16246:17077   */\n    tag_261:\n        /* \"#utility.yul\":16331:16334   */\n      0x00\n        /* \"#utility.yul\":16368:16373   */\n      dup2\n        /* \"#utility.yul\":16362:16374   */\n      sload\n        /* \"#utility.yul\":16397:16433   */\n      tag_461\n        /* \"#utility.yul\":16423:16432   */\n      dup2\n        /* \"#utility.yul\":16397:16433   */\n      tag_44\n      jump\t// in\n    tag_461:\n        /* \"#utility.yul\":16449:16520   */\n      tag_462\n        /* \"#utility.yul\":16513:16519   */\n      dup2\n        /* \"#utility.yul\":16508:16511   */\n      dup7\n        /* \"#utility.yul\":16449:16520   */\n      tag_229\n      jump\t// in\n    tag_462:\n        /* \"#utility.yul\":16442:16520   */\n      swap5\n      pop\n        /* \"#utility.yul\":16551:16552   */\n      0x01\n        /* \"#utility.yul\":16540:16549   */\n      dup3\n        /* \"#utility.yul\":16536:16553   */\n      and\n        /* \"#utility.yul\":16567:16568   */\n      0x00\n        /* \"#utility.yul\":16562:16726   */\n      dup2\n      eq\n      tag_464\n      jumpi\n        /* \"#utility.yul\":16740:16741   */\n      0x01\n        /* \"#utility.yul\":16735:17071   */\n      dup2\n      eq\n      tag_465\n      jumpi\n        /* \"#utility.yul\":16529:17071   */\n      jump(tag_463)\n        /* \"#utility.yul\":16562:16726   */\n    tag_464:\n        /* \"#utility.yul\":16646:16650   */\n      0xff\n        /* \"#utility.yul\":16642:16651   */\n      not\n        /* \"#utility.yul\":16631:16640   */\n      dup4\n        /* \"#utility.yul\":16627:16652   */\n      and\n        /* \"#utility.yul\":16622:16625   */\n      dup7\n        /* \"#utility.yul\":16615:16653   */\n      mstore\n        /* \"#utility.yul\":16706:16712   */\n      dup2\n        /* \"#utility.yul\":16699:16713   */\n      iszero\n        /* \"#utility.yul\":16692:16714   */\n      iszero\n        /* \"#utility.yul\":16686:16690   */\n      0x20\n        /* \"#utility.yul\":16682:16715   */\n      mul\n        /* \"#utility.yul\":16677:16680   */\n      dup7\n        /* \"#utility.yul\":16673:16716   */\n      add\n        /* \"#utility.yul\":16666:16716   */\n      swap4\n      pop\n        /* \"#utility.yul\":16562:16726   */\n      jump(tag_463)\n        /* \"#utility.yul\":16735:17071   */\n    tag_465:\n        /* \"#utility.yul\":16802:16840   */\n      tag_466\n        /* \"#utility.yul\":16834:16839   */\n      dup6\n        /* \"#utility.yul\":16802:16840   */\n      tag_244\n      jump\t// in\n    tag_466:\n        /* \"#utility.yul\":16862:16863   */\n      0x00\n        /* \"#utility.yul\":16876:17030   */\n    tag_467:\n        /* \"#utility.yul\":16890:16896   */\n      dup4\n        /* \"#utility.yul\":16887:16888   */\n      dup2\n        /* \"#utility.yul\":16884:16897   */\n      lt\n        /* \"#utility.yul\":16876:17030   */\n      iszero\n      tag_469\n      jumpi\n        /* \"#utility.yul\":16964:16971   */\n      dup2\n        /* \"#utility.yul\":16958:16972   */\n      sload\n        /* \"#utility.yul\":16954:16955   */\n      dup2\n        /* \"#utility.yul\":16949:16952   */\n      dup10\n        /* \"#utility.yul\":16945:16956   */\n      add\n        /* \"#utility.yul\":16938:16973   */\n      mstore\n        /* \"#utility.yul\":17014:17015   */\n      0x01\n        /* \"#utility.yul\":17005:17012   */\n      dup3\n        /* \"#utility.yul\":17001:17016   */\n      add\n        /* \"#utility.yul\":16990:17016   */\n      swap2\n      pop\n        /* \"#utility.yul\":16912:16916   */\n      0x20\n        /* \"#utility.yul\":16909:16910   */\n      dup2\n        /* \"#utility.yul\":16905:16917   */\n      add\n        /* \"#utility.yul\":16900:16917   */\n      swap1\n      pop\n        /* \"#utility.yul\":16876:17030   */\n      jump(tag_467)\n    tag_469:\n        /* \"#utility.yul\":17059:17060   */\n      dup1\n        /* \"#utility.yul\":17054:17057   */\n      dup9\n        /* \"#utility.yul\":17050:17061   */\n      add\n        /* \"#utility.yul\":17043:17061   */\n      swap6\n      pop\n        /* \"#utility.yul\":16742:17071   */\n      pop\n      pop\n        /* \"#utility.yul\":16529:17071   */\n    tag_463:\n      pop\n        /* \"#utility.yul\":16335:17077   */\n      pop\n      pop\n        /* \"#utility.yul\":16246:17077   */\n      swap3\n      swap2\n      pop\n      pop\n      jump\t// out\n        /* \"#utility.yul\":17083:17903   */\n    tag_89:\n        /* \"#utility.yul\":17317:17321   */\n      0x00\n        /* \"#utility.yul\":17355:17358   */\n      0x80\n        /* \"#utility.yul\":17344:17353   */\n      dup3\n        /* \"#utility.yul\":17340:17359   */\n      add\n        /* \"#utility.yul\":17332:17359   */\n      swap1\n      pop\n        /* \"#utility.yul\":17405:17414   */\n      dup2\n        /* \"#utility.yul\":17399:17403   */\n      dup2\n        /* \"#utility.yul\":17395:17415   */\n      sub\n        /* \"#utility.yul\":17391:17392   */\n      0x00\n        /* \"#utility.yul\":17380:17389   */\n      dup4\n        /* \"#utility.yul\":17376:17393   */\n      add\n        /* \"#utility.yul\":17369:17416   */\n      mstore\n        /* \"#utility.yul\":17433:17508   */\n      tag_471\n        /* \"#utility.yul\":17503:17507   */\n      dup2\n        /* \"#utility.yul\":17494:17500   */\n      dup8\n        /* \"#utility.yul\":17433:17508   */\n      tag_261\n      jump\t// in\n    tag_471:\n        /* \"#utility.yul\":17425:17508   */\n      swap1\n      pop\n        /* \"#utility.yul\":17518:17590   */\n      tag_472\n        /* \"#utility.yul\":17586:17588   */\n      0x20\n        /* \"#utility.yul\":17575:17584   */\n      dup4\n        /* \"#utility.yul\":17571:17589   */\n      add\n        /* \"#utility.yul\":17562:17568   */\n      dup7\n        /* \"#utility.yul\":17518:17590   */\n      tag_233\n      jump\t// in\n    tag_472:\n        /* \"#utility.yul\":17637:17646   */\n      dup2\n        /* \"#utility.yul\":17631:17635   */\n      dup2\n        /* \"#utility.yul\":17627:17647   */\n      sub\n        /* \"#utility.yul\":17622:17624   */\n      0x40\n        /* \"#utility.yul\":17611:17620   */\n      dup4\n        /* \"#utility.yul\":17607:17625   */\n      add\n        /* \"#utility.yul\":17600:17648   */\n      mstore\n        /* \"#utility.yul\":17665:17743   */\n      tag_473\n        /* \"#utility.yul\":17738:17742   */\n      dup2\n        /* \"#utility.yul\":17729:17735   */\n      dup6\n        /* \"#utility.yul\":17665:17743   */\n      tag_231\n      jump\t// in\n    tag_473:\n        /* \"#utility.yul\":17657:17743   */\n      swap1\n      pop\n        /* \"#utility.yul\":17790:17799   */\n      dup2\n        /* \"#utility.yul\":17784:17788   */\n      dup2\n        /* \"#utility.yul\":17780:17800   */\n      sub\n        /* \"#utility.yul\":17775:17777   */\n      0x60\n        /* \"#utility.yul\":17764:17773   */\n      dup4\n        /* \"#utility.yul\":17760:17778   */\n      add\n        /* \"#utility.yul\":17753:17801   */\n      mstore\n        /* \"#utility.yul\":17818:17896   */\n      tag_474\n        /* \"#utility.yul\":17891:17895   */\n      dup2\n        /* \"#utility.yul\":17882:17888   */\n      dup5\n        /* \"#utility.yul\":17818:17896   */\n      tag_231\n      jump\t// in\n    tag_474:\n        /* \"#utility.yul\":17810:17896   */\n      swap1\n      pop\n        /* \"#utility.yul\":17083:17903   */\n      swap6\n      swap5\n      pop\n      pop\n      pop\n      pop\n      pop\n      jump\t// out\n        /* \"#utility.yul\":17909:18074   */\n    tag_262:\n        /* \"#utility.yul\":18049:18066   */\n      0x4e6f206163746976652067616d652e0000000000000000000000000000000000\n        /* \"#utility.yul\":18045:18046   */\n      0x00\n        /* \"#utility.yul\":18037:18043   */\n      dup3\n        /* \"#utility.yul\":18033:18047   */\n      add\n        /* \"#utility.yul\":18026:18067   */\n      mstore\n        /* \"#utility.yul\":17909:18074   */\n      pop\n      jump\t// out\n        /* \"#utility.yul\":18080:18446   */\n    tag_263:\n        /* \"#utility.yul\":18222:18225   */\n      0x00\n        /* \"#utility.yul\":18243:18310   */\n      tag_477\n        /* \"#utility.yul\":18307:18309   */\n      0x0f\n        /* \"#utility.yul\":18302:18305   */\n      dup4\n        /* \"#utility.yul\":18243:18310   */\n      tag_229\n      jump\t// in\n    tag_477:\n        /* \"#utility.yul\":18236:18310   */\n      swap2\n      pop\n        /* \"#utility.yul\":18319:18412   */\n      tag_478\n        /* \"#utility.yul\":18408:18411   */\n      dup3\n        /* \"#utility.yul\":18319:18412   */\n      tag_262\n      jump\t// in\n    tag_478:\n        /* \"#utility.yul\":18437:18439   */\n      0x20\n        /* \"#utility.yul\":18432:18435   */\n      dup3\n        /* \"#utility.yul\":18428:18440   */\n      add\n        /* \"#utility.yul\":18421:18440   */\n      swap1\n      pop\n        /* \"#utility.yul\":18080:18446   */\n      swap2\n      swap1\n      pop\n      jump\t// out\n        /* \"#utility.yul\":18452:18871   */\n    tag_100:\n        /* \"#utility.yul\":18618:18622   */\n      0x00\n        /* \"#utility.yul\":18656:18658   */\n      0x20\n        /* \"#utility.yul\":18645:18654   */\n      dup3\n        /* \"#utility.yul\":18641:18659   */\n      add\n        /* \"#utility.yul\":18633:18659   */\n      swap1\n      pop\n        /* \"#utility.yul\":18705:18714   */\n      dup2\n        /* \"#utility.yul\":18699:18703   */\n      dup2\n        /* \"#utility.yul\":18695:18715   */\n      sub\n        /* \"#utility.yul\":18691:18692   */\n      0x00\n        /* \"#utility.yul\":18680:18689   */\n      dup4\n        /* \"#utility.yul\":18676:18693   */\n      add\n        /* \"#utility.yul\":18669:18716   */\n      mstore\n        /* \"#utility.yul\":18733:18864   */\n      tag_480\n        /* \"#utility.yul\":18859:18863   */\n      dup2\n        /* \"#utility.yul\":18733:18864   */\n      tag_263\n      jump\t// in\n    tag_480:\n        /* \"#utility.yul\":18725:18864   */\n      swap1\n      pop\n        /* \"#utility.yul\":18452:18871   */\n      swap2\n      swap1\n      pop\n      jump\t// out\n        /* \"#utility.yul\":18877:19071   */\n    tag_116:\n        /* \"#utility.yul\":18917:18921   */\n      0x00\n        /* \"#utility.yul\":18937:18957   */\n      tag_482\n        /* \"#utility.yul\":18955:18956   */\n      dup3\n        /* \"#utility.yul\":18937:18957   */\n      tag_232\n      jump\t// in\n    tag_482:\n        /* \"#utility.yul\":18932:18957   */\n      swap2\n      pop\n        /* \"#utility.yul\":18971:18991   */\n      tag_483\n        /* \"#utility.yul\":18989:18990   */\n      dup4\n        /* \"#utility.yul\":18971:18991   */\n      tag_232\n      jump\t// in\n    tag_483:\n        /* \"#utility.yul\":18966:18991   */\n      swap3\n      pop\n        /* \"#utility.yul\":19015:19016   */\n      dup3\n        /* \"#utility.yul\":19012:19013   */\n      dup3\n        /* \"#utility.yul\":19008:19017   */\n      sub\n        /* \"#utility.yul\":19000:19017   */\n      swap1\n      pop\n        /* \"#utility.yul\":19039:19040   */\n      dup2\n        /* \"#utility.yul\":19033:19037   */\n      dup2\n        /* \"#utility.yul\":19030:19041   */\n      gt\n        /* \"#utility.yul\":19027:19064   */\n      iszero\n      tag_484\n      jumpi\n        /* \"#utility.yul\":19044:19062   */\n      tag_485\n      tag_238\n      jump\t// in\n    tag_485:\n        /* \"#utility.yul\":19027:19064   */\n    tag_484:\n        /* \"#utility.yul\":18877:19071   */\n      swap3\n      swap2\n      pop\n      pop\n      jump\t// out\n        /* \"#utility.yul\":19077:19225   */\n    tag_264:\n        /* \"#utility.yul\":19179:19190   */\n      0x00\n        /* \"#utility.yul\":19216:19219   */\n      dup2\n        /* \"#utility.yul\":19201:19219   */\n      swap1\n      pop\n        /* \"#utility.yul\":19077:19225   */\n      swap3\n      swap2\n      pop\n      pop\n      jump\t// out\n        /* \"#utility.yul\":19231:19390   */\n    tag_265:\n        /* \"#utility.yul\":19371:19382   */\n      0x596f752068617665200000000000000000000000000000000000000000000000\n        /* \"#utility.yul\":19367:19368   */\n      0x00\n        /* \"#utility.yul\":19359:19365   */\n      dup3\n        /* \"#utility.yul\":19355:19369   */\n      add\n        /* \"#utility.yul\":19348:19383   */\n      mstore\n        /* \"#utility.yul\":19231:19390   */\n      pop\n      jump\t// out\n        /* \"#utility.yul\":19396:19796   */\n    tag_266:\n        /* \"#utility.yul\":19556:19559   */\n      0x00\n        /* \"#utility.yul\":19577:19661   */\n      tag_489\n        /* \"#utility.yul\":19659:19660   */\n      0x09\n        /* \"#utility.yul\":19654:19657   */\n      dup4\n        /* \"#utility.yul\":19577:19661   */\n      tag_264\n      jump\t// in\n    tag_489:\n        /* \"#utility.yul\":19570:19661   */\n      swap2\n      pop\n        /* \"#utility.yul\":19670:19763   */\n      tag_490\n        /* \"#utility.yul\":19759:19762   */\n      dup3\n        /* \"#utility.yul\":19670:19763   */\n      tag_265\n      jump\t// in\n    tag_490:\n        /* \"#utility.yul\":19788:19789   */\n      0x09\n        /* \"#utility.yul\":19783:19786   */\n      dup3\n        /* \"#utility.yul\":19779:19790   */\n      add\n        /* \"#utility.yul\":19772:19790   */\n      swap1\n      pop\n        /* \"#utility.yul\":19396:19796   */\n      swap2\n      swap1\n      pop\n      jump\t// out\n        /* \"#utility.yul\":19802:20192   */\n    tag_267:\n        /* \"#utility.yul\":19908:19911   */\n      0x00\n        /* \"#utility.yul\":19936:19975   */\n      tag_492\n        /* \"#utility.yul\":19969:19974   */\n      dup3\n        /* \"#utility.yul\":19936:19975   */\n      tag_228\n      jump\t// in\n    tag_492:\n        /* \"#utility.yul\":19991:20080   */\n      tag_493\n        /* \"#utility.yul\":20073:20079   */\n      dup2\n        /* \"#utility.yul\":20068:20071   */\n      dup6\n        /* \"#utility.yul\":19991:20080   */\n      tag_264\n      jump\t// in\n    tag_493:\n        /* \"#utility.yul\":19984:20080   */\n      swap4\n      pop\n        /* \"#utility.yul\":20089:20154   */\n      tag_494\n        /* \"#utility.yul\":20147:20153   */\n      dup2\n        /* \"#utility.yul\":20142:20145   */\n      dup6\n        /* \"#utility.yul\":20135:20139   */\n      0x20\n        /* \"#utility.yul\":20128:20133   */\n      dup7\n        /* \"#utility.yul\":20124:20140   */\n      add\n        /* \"#utility.yul\":20089:20154   */\n      tag_230\n      jump\t// in\n    tag_494:\n        /* \"#utility.yul\":20179:20185   */\n      dup1\n        /* \"#utility.yul\":20174:20177   */\n      dup5\n        /* \"#utility.yul\":20170:20186   */\n      add\n        /* \"#utility.yul\":20163:20186   */\n      swap2\n      pop\n        /* \"#utility.yul\":19912:20192   */\n      pop\n        /* \"#utility.yul\":19802:20192   */\n      swap3\n      swap2\n      pop\n      pop\n      jump\t// out\n        /* \"#utility.yul\":20198:20361   */\n    tag_268:\n        /* \"#utility.yul\":20338:20353   */\n      0x207365636f6e6473206c65667400000000000000000000000000000000000000\n        /* \"#utility.yul\":20334:20335   */\n      0x00\n        /* \"#utility.yul\":20326:20332   */\n      dup3\n        /* \"#utility.yul\":20322:20336   */\n      add\n        /* \"#utility.yul\":20315:20354   */\n      mstore\n        /* \"#utility.yul\":20198:20361   */\n      pop\n      jump\t// out\n        /* \"#utility.yul\":20367:20769   */\n    tag_269:\n        /* \"#utility.yul\":20527:20530   */\n      0x00\n        /* \"#utility.yul\":20548:20633   */\n      tag_497\n        /* \"#utility.yul\":20630:20632   */\n      0x0d\n        /* \"#utility.yul\":20625:20628   */\n      dup4\n        /* \"#utility.yul\":20548:20633   */\n      tag_264\n      jump\t// in\n    tag_497:\n        /* \"#utility.yul\":20541:20633   */\n      swap2\n      pop\n        /* \"#utility.yul\":20642:20735   */\n      tag_498\n        /* \"#utility.yul\":20731:20734   */\n      dup3\n        /* \"#utility.yul\":20642:20735   */\n      tag_268\n      jump\t// in\n    tag_498:\n        /* \"#utility.yul\":20760:20762   */\n      0x0d\n        /* \"#utility.yul\":20755:20758   */\n      dup3\n        /* \"#utility.yul\":20751:20763   */\n      add\n        /* \"#utility.yul\":20744:20763   */\n      swap1\n      pop\n        /* \"#utility.yul\":20367:20769   */\n      swap2\n      swap1\n      pop\n      jump\t// out\n        /* \"#utility.yul\":20775:21582   */\n    tag_120:\n        /* \"#utility.yul\":21109:21112   */\n      0x00\n        /* \"#utility.yul\":21131:21279   */\n      tag_500\n        /* \"#utility.yul\":21275:21278   */\n      dup3\n        /* \"#utility.yul\":21131:21279   */\n      tag_266\n      jump\t// in\n    tag_500:\n        /* \"#utility.yul\":21124:21279   */\n      swap2\n      pop\n        /* \"#utility.yul\":21296:21391   */\n      tag_501\n        /* \"#utility.yul\":21387:21390   */\n      dup3\n        /* \"#utility.yul\":21378:21384   */\n      dup5\n        /* \"#utility.yul\":21296:21391   */\n      tag_267\n      jump\t// in\n    tag_501:\n        /* \"#utility.yul\":21289:21391   */\n      swap2\n      pop\n        /* \"#utility.yul\":21408:21556   */\n      tag_502\n        /* \"#utility.yul\":21552:21555   */\n      dup3\n        /* \"#utility.yul\":21408:21556   */\n      tag_269\n      jump\t// in\n    tag_502:\n        /* \"#utility.yul\":21401:21556   */\n      swap2\n      pop\n        /* \"#utility.yul\":21573:21576   */\n      dup2\n        /* \"#utility.yul\":21566:21576   */\n      swap1\n      pop\n        /* \"#utility.yul\":20775:21582   */\n      swap3\n      swap2\n      pop\n      pop\n      jump\t// out\n        /* \"#utility.yul\":21588:21814   */\n    tag_270:\n        /* \"#utility.yul\":21728:21762   */\n      0x47616d6520616c726561647920696e2070726f67726573732e20456e64206974\n        /* \"#utility.yul\":21724:21725   */\n      0x00\n        /* \"#utility.yul\":21716:21722   */\n      dup3\n        /* \"#utility.yul\":21712:21726   */\n      add\n        /* \"#utility.yul\":21705:21763   */\n      mstore\n        /* \"#utility.yul\":21797:21806   */\n      0x2066697273742e00000000000000000000000000000000000000000000000000\n        /* \"#utility.yul\":21792:21794   */\n      0x20\n        /* \"#utility.yul\":21784:21790   */\n      dup3\n        /* \"#utility.yul\":21780:21795   */\n      add\n        /* \"#utility.yul\":21773:21807   */\n      mstore\n        /* \"#utility.yul\":21588:21814   */\n      pop\n      jump\t// out\n        /* \"#utility.yul\":21820:22186   */\n    tag_271:\n        /* \"#utility.yul\":21962:21965   */\n      0x00\n        /* \"#utility.yul\":21983:22050   */\n      tag_505\n        /* \"#utility.yul\":22047:22049   */\n      0x27\n        /* \"#utility.yul\":22042:22045   */\n      dup4\n        /* \"#utility.yul\":21983:22050   */\n      tag_229\n      jump\t// in\n    tag_505:\n        /* \"#utility.yul\":21976:22050   */\n      swap2\n      pop\n        /* \"#utility.yul\":22059:22152   */\n      tag_506\n        /* \"#utility.yul\":22148:22151   */\n      dup3\n        /* \"#utility.yul\":22059:22152   */\n      tag_270\n      jump\t// in\n    tag_506:\n        /* \"#utility.yul\":22177:22179   */\n      0x40\n        /* \"#utility.yul\":22172:22175   */\n      dup3\n        /* \"#utility.yul\":22168:22180   */\n      add\n        /* \"#utility.yul\":22161:22180   */\n      swap1\n      pop\n        /* \"#utility.yul\":21820:22186   */\n      swap2\n      swap1\n      pop\n      jump\t// out\n        /* \"#utility.yul\":22192:22611   */\n    tag_124:\n        /* \"#utility.yul\":22358:22362   */\n      0x00\n        /* \"#utility.yul\":22396:22398   */\n      0x20\n        /* \"#utility.yul\":22385:22394   */\n      dup3\n        /* \"#utility.yul\":22381:22399   */\n      add\n        /* \"#utility.yul\":22373:22399   */\n      swap1\n      pop\n        /* \"#utility.yul\":22445:22454   */\n      dup2\n        /* \"#utility.yul\":22439:22443   */\n      dup2\n        /* \"#utility.yul\":22435:22455   */\n      sub\n        /* \"#utility.yul\":22431:22432   */\n      0x00\n        /* \"#utility.yul\":22420:22429   */\n      dup4\n        /* \"#utility.yul\":22416:22433   */\n      add\n        /* \"#utility.yul\":22409:22456   */\n      mstore\n        /* \"#utility.yul\":22473:22604   */\n      tag_508\n        /* \"#utility.yul\":22599:22603   */\n      dup2\n        /* \"#utility.yul\":22473:22604   */\n      tag_271\n      jump\t// in\n    tag_508:\n        /* \"#utility.yul\":22465:22604   */\n      swap1\n      pop\n        /* \"#utility.yul\":22192:22611   */\n      swap2\n      swap1\n      pop\n      jump\t// out\n        /* \"#utility.yul\":22617:22949   */\n    tag_126:\n        /* \"#utility.yul\":22738:22742   */\n      0x00\n        /* \"#utility.yul\":22776:22778   */\n      0x40\n        /* \"#utility.yul\":22765:22774   */\n      dup3\n        /* \"#utility.yul\":22761:22779   */\n      add\n        /* \"#utility.yul\":22753:22779   */\n      swap1\n      pop\n        /* \"#utility.yul\":22789:22860   */\n      tag_510\n        /* \"#utility.yul\":22857:22858   */\n      0x00\n        /* \"#utility.yul\":22846:22855   */\n      dup4\n        /* \"#utility.yul\":22842:22859   */\n      add\n        /* \"#utility.yul\":22833:22839   */\n      dup6\n        /* \"#utility.yul\":22789:22860   */\n      tag_233\n      jump\t// in\n    tag_510:\n        /* \"#utility.yul\":22870:22942   */\n      tag_511\n        /* \"#utility.yul\":22938:22940   */\n      0x20\n        /* \"#utility.yul\":22927:22936   */\n      dup4\n        /* \"#utility.yul\":22923:22941   */\n      add\n        /* \"#utility.yul\":22914:22920   */\n      dup5\n        /* \"#utility.yul\":22870:22942   */\n      tag_233\n      jump\t// in\n    tag_511:\n        /* \"#utility.yul\":22617:22949   */\n      swap4\n      swap3\n      pop\n      pop\n      pop\n      jump\t// out\n        /* \"#utility.yul\":22955:23034   */\n    tag_272:\n        /* \"#utility.yul\":22994:23001   */\n      0x00\n        /* \"#utility.yul\":23023:23028   */\n      dup2\n        /* \"#utility.yul\":23012:23028   */\n      swap1\n      pop\n        /* \"#utility.yul\":22955:23034   */\n      swap2\n      swap1\n      pop\n      jump\t// out\n        /* \"#utility.yul\":23040:23197   */\n    tag_273:\n        /* \"#utility.yul\":23145:23190   */\n      tag_514\n        /* \"#utility.yul\":23165:23189   */\n      tag_515\n        /* \"#utility.yul\":23183:23188   */\n      dup3\n        /* \"#utility.yul\":23165:23189   */\n      tag_232\n      jump\t// in\n    tag_515:\n        /* \"#utility.yul\":23145:23190   */\n      tag_272\n      jump\t// in\n    tag_514:\n        /* \"#utility.yul\":23140:23143   */\n      dup3\n        /* \"#utility.yul\":23133:23191   */\n      mstore\n        /* \"#utility.yul\":23040:23197   */\n      pop\n      pop\n      jump\t// out\n        /* \"#utility.yul\":23203:23329   */\n    tag_274:\n        /* \"#utility.yul\":23240:23247   */\n      0x00\n        /* \"#utility.yul\":23280:23322   */\n      0xffffffffffffffffffffffffffffffffffffffff\n        /* \"#utility.yul\":23273:23278   */\n      dup3\n        /* \"#utility.yul\":23269:23323   */\n      and\n        /* \"#utility.yul\":23258:23323   */\n      swap1\n      pop\n        /* \"#utility.yul\":23203:23329   */\n      swap2\n      swap1\n      pop\n      jump\t// out\n        /* \"#utility.yul\":23335:23431   */\n    tag_275:\n        /* \"#utility.yul\":23372:23379   */\n      0x00\n        /* \"#utility.yul\":23401:23425   */\n      tag_518\n        /* \"#utility.yul\":23419:23424   */\n      dup3\n        /* \"#utility.yul\":23401:23425   */\n      tag_274\n      jump\t// in\n    tag_518:\n        /* \"#utility.yul\":23390:23425   */\n      swap1\n      pop\n        /* \"#utility.yul\":23335:23431   */\n      swap2\n      swap1\n      pop\n      jump\t// out\n        /* \"#utility.yul\":23437:23531   */\n    tag_276:\n        /* \"#utility.yul\":23470:23478   */\n      0x00\n        /* \"#utility.yul\":23518:23523   */\n      dup2\n        /* \"#utility.yul\":23514:23516   */\n      0x60\n        /* \"#utility.yul\":23510:23524   */\n      shl\n        /* \"#utility.yul\":23489:23524   */\n      swap1\n      pop\n        /* \"#utility.yul\":23437:23531   */\n      swap2\n      swap1\n      pop\n      jump\t// out\n        /* \"#utility.yul\":23537:23631   */\n    tag_277:\n        /* \"#utility.yul\":23576:23583   */\n      0x00\n        /* \"#utility.yul\":23605:23625   */\n      tag_521\n        /* \"#utility.yul\":23619:23624   */\n      dup3\n        /* \"#utility.yul\":23605:23625   */\n      tag_276\n      jump\t// in\n    tag_521:\n        /* \"#utility.yul\":23594:23625   */\n      swap1\n      pop\n        /* \"#utility.yul\":23537:23631   */\n      swap2\n      swap1\n      pop\n      jump\t// out\n        /* \"#utility.yul\":23637:23737   */\n    tag_278:\n        /* \"#utility.yul\":23676:23683   */\n      0x00\n        /* \"#utility.yul\":23705:23731   */\n      tag_523\n        /* \"#utility.yul\":23725:23730   */\n      dup3\n        /* \"#utility.yul\":23705:23731   */\n      tag_277\n      jump\t// in\n    tag_523:\n        /* \"#utility.yul\":23694:23731   */\n      swap1\n      pop\n        /* \"#utility.yul\":23637:23737   */\n      swap2\n      swap1\n      pop\n      jump\t// out\n        /* \"#utility.yul\":23743:23900   */\n    tag_279:\n        /* \"#utility.yul\":23848:23893   */\n      tag_525\n        /* \"#utility.yul\":23868:23892   */\n      tag_526\n        /* \"#utility.yul\":23886:23891   */\n      dup3\n        /* \"#utility.yul\":23868:23892   */\n      tag_275\n      jump\t// in\n    tag_526:\n        /* \"#utility.yul\":23848:23893   */\n      tag_278\n      jump\t// in\n    tag_525:\n        /* \"#utility.yul\":23843:23846   */\n      dup3\n        /* \"#utility.yul\":23836:23894   */\n      mstore\n        /* \"#utility.yul\":23743:23900   */\n      pop\n      pop\n      jump\t// out\n        /* \"#utility.yul\":23906:24303   */\n    tag_128:\n        /* \"#utility.yul\":24046:24049   */\n      0x00\n        /* \"#utility.yul\":24061:24136   */\n      tag_528\n        /* \"#utility.yul\":24132:24135   */\n      dup3\n        /* \"#utility.yul\":24123:24129   */\n      dup6\n        /* \"#utility.yul\":24061:24136   */\n      tag_273\n      jump\t// in\n    tag_528:\n        /* \"#utility.yul\":24161:24163   */\n      0x20\n        /* \"#utility.yul\":24156:24159   */\n      dup3\n        /* \"#utility.yul\":24152:24164   */\n      add\n        /* \"#utility.yul\":24145:24164   */\n      swap2\n      pop\n        /* \"#utility.yul\":24174:24249   */\n      tag_529\n        /* \"#utility.yul\":24245:24248   */\n      dup3\n        /* \"#utility.yul\":24236:24242   */\n      dup5\n        /* \"#utility.yul\":24174:24249   */\n      tag_279\n      jump\t// in\n    tag_529:\n        /* \"#utility.yul\":24274:24276   */\n      0x14\n        /* \"#utility.yul\":24269:24272   */\n      dup3\n        /* \"#utility.yul\":24265:24277   */\n      add\n        /* \"#utility.yul\":24258:24277   */\n      swap2\n      pop\n        /* \"#utility.yul\":24294:24297   */\n      dup2\n        /* \"#utility.yul\":24287:24297   */\n      swap1\n      pop\n        /* \"#utility.yul\":23906:24303   */\n      swap4\n      swap3\n      pop\n      pop\n      pop\n      jump\t// out\n        /* \"#utility.yul\":24309:24489   */\n    tag_280:\n        /* \"#utility.yul\":24357:24434   */\n      0x4e487b7100000000000000000000000000000000000000000000000000000000\n        /* \"#utility.yul\":24354:24355   */\n      0x00\n        /* \"#utility.yul\":24347:24435   */\n      mstore\n        /* \"#utility.yul\":24454:24458   */\n      0x12\n        /* \"#utility.yul\":24451:24452   */\n      0x04\n        /* \"#utility.yul\":24444:24459   */\n      mstore\n        /* \"#utility.yul\":24478:24482   */\n      0x24\n        /* \"#utility.yul\":24475:24476   */\n      0x00\n        /* \"#utility.yul\":24468:24483   */\n      revert\n        /* \"#utility.yul\":24495:24671   */\n    tag_130:\n        /* \"#utility.yul\":24527:24528   */\n      0x00\n        /* \"#utility.yul\":24544:24564   */\n      tag_532\n        /* \"#utility.yul\":24562:24563   */\n      dup3\n        /* \"#utility.yul\":24544:24564   */\n      tag_232\n      jump\t// in\n    tag_532:\n        /* \"#utility.yul\":24539:24564   */\n      swap2\n      pop\n        /* \"#utility.yul\":24578:24598   */\n      tag_533\n        /* \"#utility.yul\":24596:24597   */\n      dup4\n        /* \"#utility.yul\":24578:24598   */\n      tag_232\n      jump\t// in\n    tag_533:\n        /* \"#utility.yul\":24573:24598   */\n      swap3\n      pop\n        /* \"#utility.yul\":24617:24618   */\n      dup3\n        /* \"#utility.yul\":24607:24642   */\n      tag_534\n      jumpi\n        /* \"#utility.yul\":24622:24640   */\n      tag_535\n      tag_280\n      jump\t// in\n    tag_535:\n        /* \"#utility.yul\":24607:24642   */\n    tag_534:\n        /* \"#utility.yul\":24663:24664   */\n      dup3\n        /* \"#utility.yul\":24660:24661   */\n      dup3\n        /* \"#utility.yul\":24656:24665   */\n      mod\n        /* \"#utility.yul\":24651:24665   */\n      swap1\n      pop\n        /* \"#utility.yul\":24495:24671   */\n      swap3\n      swap2\n      pop\n      pop\n      jump\t// out\n        /* \"#utility.yul\":24677:24830   */\n    tag_281:\n        /* \"#utility.yul\":24730:24736   */\n      0x00\n        /* \"#utility.yul\":24764:24769   */\n      dup2\n        /* \"#utility.yul\":24758:24770   */\n      sload\n        /* \"#utility.yul\":24748:24770   */\n      swap1\n      pop\n        /* \"#utility.yul\":24790:24823   */\n      tag_537\n        /* \"#utility.yul\":24816:24822   */\n      dup2\n        /* \"#utility.yul\":24790:24823   */\n      tag_44\n      jump\t// in\n    tag_537:\n        /* \"#utility.yul\":24780:24823   */\n      swap1\n      pop\n        /* \"#utility.yul\":24677:24830   */\n      swap2\n      swap1\n      pop\n      jump\t// out\n        /* \"#utility.yul\":24836:24981   */\n    tag_282:\n        /* \"#utility.yul\":24889:24893   */\n      0x00\n        /* \"#utility.yul\":24912:24915   */\n      dup2\n        /* \"#utility.yul\":24904:24915   */\n      swap1\n      pop\n        /* \"#utility.yul\":24935:24938   */\n      dup2\n        /* \"#utility.yul\":24932:24933   */\n      0x00\n        /* \"#utility.yul\":24925:24939   */\n      mstore\n        /* \"#utility.yul\":24969:24973   */\n      0x20\n        /* \"#utility.yul\":24966:24967   */\n      0x00\n        /* \"#utility.yul\":24956:24974   */\n      keccak256\n        /* \"#utility.yul\":24948:24974   */\n      swap1\n      pop\n        /* \"#utility.yul\":24836:24981   */\n      swap2\n      swap1\n      pop\n      jump\t// out\n        /* \"#utility.yul\":24987:26450   */\n    tag_135:\n        /* \"#utility.yul\":25102:25105   */\n      dup2\n        /* \"#utility.yul\":25096:25100   */\n      dup2\n        /* \"#utility.yul\":25093:25106   */\n      sub\n        /* \"#utility.yul\":25090:25116   */\n      tag_540\n      jumpi\n        /* \"#utility.yul\":25109:25114   */\n      pop\n      pop\n      jump(tag_539)\n        /* \"#utility.yul\":25090:25116   */\n    tag_540:\n        /* \"#utility.yul\":25140:25178   */\n      tag_541\n        /* \"#utility.yul\":25174:25177   */\n      dup3\n        /* \"#utility.yul\":25140:25178   */\n      tag_281\n      jump\t// in\n    tag_541:\n        /* \"#utility.yul\":25243:25261   */\n      0xffffffffffffffff\n        /* \"#utility.yul\":25235:25241   */\n      dup2\n        /* \"#utility.yul\":25232:25262   */\n      gt\n        /* \"#utility.yul\":25229:25285   */\n      iszero\n      tag_542\n      jumpi\n        /* \"#utility.yul\":25265:25283   */\n      tag_543\n      tag_144\n      jump\t// in\n    tag_543:\n        /* \"#utility.yul\":25229:25285   */\n    tag_542:\n        /* \"#utility.yul\":25309:25347   */\n      tag_544\n        /* \"#utility.yul\":25341:25345   */\n      dup3\n        /* \"#utility.yul\":25335:25346   */\n      sload\n        /* \"#utility.yul\":25309:25347   */\n      tag_44\n      jump\t// in\n    tag_544:\n        /* \"#utility.yul\":25394:25461   */\n      tag_545\n        /* \"#utility.yul\":25454:25460   */\n      dup3\n        /* \"#utility.yul\":25446:25452   */\n      dup3\n        /* \"#utility.yul\":25440:25444   */\n      dup6\n        /* \"#utility.yul\":25394:25461   */\n      tag_255\n      jump\t// in\n    tag_545:\n        /* \"#utility.yul\":25488:25489   */\n      0x00\n        /* \"#utility.yul\":25517:25519   */\n      0x1f\n        /* \"#utility.yul\":25509:25515   */\n      dup4\n        /* \"#utility.yul\":25506:25520   */\n      gt\n        /* \"#utility.yul\":25534:25535   */\n      0x01\n        /* \"#utility.yul\":25529:26205   */\n      dup2\n      eq\n      tag_547\n      jumpi\n        /* \"#utility.yul\":26249:26250   */\n      0x00\n        /* \"#utility.yul\":26266:26272   */\n      dup5\n        /* \"#utility.yul\":26263:26340   */\n      iszero\n      tag_548\n      jumpi\n        /* \"#utility.yul\":26315:26324   */\n      dup3\n        /* \"#utility.yul\":26310:26313   */\n      dup8\n        /* \"#utility.yul\":26306:26325   */\n      add\n        /* \"#utility.yul\":26300:26326   */\n      sload\n        /* \"#utility.yul\":26291:26326   */\n      swap1\n      pop\n        /* \"#utility.yul\":26263:26340   */\n    tag_548:\n        /* \"#utility.yul\":26366:26433   */\n      tag_549\n        /* \"#utility.yul\":26426:26432   */\n      dup6\n        /* \"#utility.yul\":26419:26424   */\n      dup3\n        /* \"#utility.yul\":26366:26433   */\n      tag_258\n      jump\t// in\n    tag_549:\n        /* \"#utility.yul\":26360:26364   */\n      dup7\n        /* \"#utility.yul\":26353:26434   */\n      sstore\n        /* \"#utility.yul\":26222:26444   */\n      pop\n        /* \"#utility.yul\":25499:26444   */\n      jump(tag_546)\n        /* \"#utility.yul\":25529:26205   */\n    tag_547:\n        /* \"#utility.yul\":25581:25585   */\n      0x1f\n        /* \"#utility.yul\":25577:25586   */\n      not\n        /* \"#utility.yul\":25569:25575   */\n      dup5\n        /* \"#utility.yul\":25565:25587   */\n      and\n        /* \"#utility.yul\":25607:25647   */\n      tag_550\n        /* \"#utility.yul\":25643:25646   */\n      dup8\n        /* \"#utility.yul\":25607:25647   */\n      tag_282\n      jump\t// in\n    tag_550:\n        /* \"#utility.yul\":25600:25647   */\n      swap7\n      pop\n        /* \"#utility.yul\":25674:25711   */\n      tag_551\n        /* \"#utility.yul\":25706:25710   */\n      dup7\n        /* \"#utility.yul\":25674:25711   */\n      tag_244\n      jump\t// in\n    tag_551:\n        /* \"#utility.yul\":25733:25734   */\n      0x00\n        /* \"#utility.yul\":25747:25954   */\n    tag_552:\n        /* \"#utility.yul\":25761:25768   */\n      dup3\n        /* \"#utility.yul\":25758:25759   */\n      dup2\n        /* \"#utility.yul\":25755:25769   */\n      lt\n        /* \"#utility.yul\":25747:25954   */\n      iszero\n      tag_554\n      jumpi\n        /* \"#utility.yul\":25840:25849   */\n      dup5\n        /* \"#utility.yul\":25835:25838   */\n      dup10\n        /* \"#utility.yul\":25831:25850   */\n      add\n        /* \"#utility.yul\":25825:25851   */\n      sload\n        /* \"#utility.yul\":25817:25823   */\n      dup3\n        /* \"#utility.yul\":25810:25852   */\n      sstore\n        /* \"#utility.yul\":25891:25892   */\n      0x01\n        /* \"#utility.yul\":25883:25889   */\n      dup3\n        /* \"#utility.yul\":25879:25893   */\n      add\n        /* \"#utility.yul\":25869:25893   */\n      swap2\n      pop\n        /* \"#utility.yul\":25938:25939   */\n      0x01\n        /* \"#utility.yul\":25927:25936   */\n      dup6\n        /* \"#utility.yul\":25923:25940   */\n      add\n        /* \"#utility.yul\":25910:25940   */\n      swap5\n      pop\n        /* \"#utility.yul\":25784:25788   */\n      0x20\n        /* \"#utility.yul\":25781:25782   */\n      dup2\n        /* \"#utility.yul\":25777:25789   */\n      add\n        /* \"#utility.yul\":25772:25789   */\n      swap1\n      pop\n        /* \"#utility.yul\":25747:25954   */\n      jump(tag_552)\n    tag_554:\n        /* \"#utility.yul\":25982:25988   */\n      dup7\n        /* \"#utility.yul\":25973:25980   */\n      dup4\n        /* \"#utility.yul\":25970:25989   */\n      lt\n        /* \"#utility.yul\":25967:26146   */\n      iszero\n      tag_555\n      jumpi\n        /* \"#utility.yul\":26040:26049   */\n      dup5\n        /* \"#utility.yul\":26035:26038   */\n      dup10\n        /* \"#utility.yul\":26031:26050   */\n      add\n        /* \"#utility.yul\":26025:26051   */\n      sload\n        /* \"#utility.yul\":26083:26131   */\n      tag_556\n        /* \"#utility.yul\":26125:26129   */\n      0x1f\n        /* \"#utility.yul\":26117:26123   */\n      dup10\n        /* \"#utility.yul\":26113:26130   */\n      and\n        /* \"#utility.yul\":26102:26111   */\n      dup3\n        /* \"#utility.yul\":26083:26131   */\n      tag_257\n      jump\t// in\n    tag_556:\n        /* \"#utility.yul\":26075:26081   */\n      dup4\n        /* \"#utility.yul\":26068:26132   */\n      sstore\n        /* \"#utility.yul\":25990:26146   */\n      pop\n        /* \"#utility.yul\":25967:26146   */\n    tag_555:\n        /* \"#utility.yul\":26192:26193   */\n      0x01\n        /* \"#utility.yul\":26188:26189   */\n      0x02\n        /* \"#utility.yul\":26180:26186   */\n      dup9\n        /* \"#utility.yul\":26176:26190   */\n      mul\n        /* \"#utility.yul\":26172:26194   */\n      add\n        /* \"#utility.yul\":26166:26170   */\n      dup9\n        /* \"#utility.yul\":26159:26195   */\n      sstore\n        /* \"#utility.yul\":25536:26205   */\n      pop\n      pop\n      pop\n        /* \"#utility.yul\":25499:26444   */\n    tag_546:\n      pop\n        /* \"#utility.yul\":25080:26450   */\n      pop\n      pop\n      pop\n        /* \"#utility.yul\":24987:26450   */\n      pop\n      pop\n    tag_539:\n      jump\t// out\n        /* \"#utility.yul\":26456:26628   */\n    tag_283:\n        /* \"#utility.yul\":26596:26620   */\n      0x4e6f206163746976652067616d6520746f20656e642e00000000000000000000\n        /* \"#utility.yul\":26592:26593   */\n      0x00\n        /* \"#utility.yul\":26584:26590   */\n      dup3\n        /* \"#utility.yul\":26580:26594   */\n      add\n        /* \"#utility.yul\":26573:26621   */\n      mstore\n        /* \"#utility.yul\":26456:26628   */\n      pop\n      jump\t// out\n        /* \"#utility.yul\":26634:27000   */\n    tag_284:\n        /* \"#utility.yul\":26776:26779   */\n      0x00\n        /* \"#utility.yul\":26797:26864   */\n      tag_559\n        /* \"#utility.yul\":26861:26863   */\n      0x16\n        /* \"#utility.yul\":26856:26859   */\n      dup4\n        /* \"#utility.yul\":26797:26864   */\n      tag_229\n      jump\t// in\n    tag_559:\n        /* \"#utility.yul\":26790:26864   */\n      swap2\n      pop\n        /* \"#utility.yul\":26873:26966   */\n      tag_560\n        /* \"#utility.yul\":26962:26965   */\n      dup3\n        /* \"#utility.yul\":26873:26966   */\n      tag_283\n      jump\t// in\n    tag_560:\n        /* \"#utility.yul\":26991:26993   */\n      0x20\n        /* \"#utility.yul\":26986:26989   */\n      dup3\n        /* \"#utility.yul\":26982:26994   */\n      add\n        /* \"#utility.yul\":26975:26994   */\n      swap1\n      pop\n        /* \"#utility.yul\":26634:27000   */\n      swap2\n      swap1\n      pop\n      jump\t// out\n        /* \"#utility.yul\":27006:27425   */\n    tag_171:\n        /* \"#utility.yul\":27172:27176   */\n      0x00\n        /* \"#utility.yul\":27210:27212   */\n      0x20\n        /* \"#utility.yul\":27199:27208   */\n      dup3\n        /* \"#utility.yul\":27195:27213   */\n      add\n        /* \"#utility.yul\":27187:27213   */\n      swap1\n      pop\n        /* \"#utility.yul\":27259:27268   */\n      dup2\n        /* \"#utility.yul\":27253:27257   */\n      dup2\n        /* \"#utility.yul\":27249:27269   */\n      sub\n        /* \"#utility.yul\":27245:27246   */\n      0x00\n        /* \"#utility.yul\":27234:27243   */\n      dup4\n        /* \"#utility.yul\":27230:27247   */\n      add\n        /* \"#utility.yul\":27223:27270   */\n      mstore\n        /* \"#utility.yul\":27287:27418   */\n      tag_562\n        /* \"#utility.yul\":27413:27417   */\n      dup2\n        /* \"#utility.yul\":27287:27418   */\n      tag_284\n      jump\t// in\n    tag_562:\n        /* \"#utility.yul\":27279:27418   */\n      swap1\n      pop\n        /* \"#utility.yul\":27006:27425   */\n      swap2\n      swap1\n      pop\n      jump\t// out\n        /* \"#utility.yul\":27431:27601   */\n    tag_285:\n        /* \"#utility.yul\":27571:27593   */\n      0x47616d65206f7665722e20596f7520717569742e000000000000000000000000\n        /* \"#utility.yul\":27567:27568   */\n      0x00\n        /* \"#utility.yul\":27559:27565   */\n      dup3\n        /* \"#utility.yul\":27555:27569   */\n      add\n        /* \"#utility.yul\":27548:27594   */\n      mstore\n        /* \"#utility.yul\":27431:27601   */\n      pop\n      jump\t// out\n        /* \"#utility.yul\":27607:27973   */\n    tag_286:\n        /* \"#utility.yul\":27749:27752   */\n      0x00\n        /* \"#utility.yul\":27770:27837   */\n      tag_565\n        /* \"#utility.yul\":27834:27836   */\n      0x14\n        /* \"#utility.yul\":27829:27832   */\n      dup4\n        /* \"#utility.yul\":27770:27837   */\n      tag_229\n      jump\t// in\n    tag_565:\n        /* \"#utility.yul\":27763:27837   */\n      swap2\n      pop\n        /* \"#utility.yul\":27846:27939   */\n      tag_566\n        /* \"#utility.yul\":27935:27938   */\n      dup3\n        /* \"#utility.yul\":27846:27939   */\n      tag_285\n      jump\t// in\n    tag_566:\n        /* \"#utility.yul\":27964:27966   */\n      0x20\n        /* \"#utility.yul\":27959:27962   */\n      dup3\n        /* \"#utility.yul\":27955:27967   */\n      add\n        /* \"#utility.yul\":27948:27967   */\n      swap1\n      pop\n        /* \"#utility.yul\":27607:27973   */\n      swap2\n      swap1\n      pop\n      jump\t// out\n        /* \"#utility.yul\":27979:28398   */\n    tag_173:\n        /* \"#utility.yul\":28145:28149   */\n      0x00\n        /* \"#utility.yul\":28183:28185   */\n      0x20\n        /* \"#utility.yul\":28172:28181   */\n      dup3\n        /* \"#utility.yul\":28168:28186   */\n      add\n        /* \"#utility.yul\":28160:28186   */\n      swap1\n      pop\n        /* \"#utility.yul\":28232:28241   */\n      dup2\n        /* \"#utility.yul\":28226:28230   */\n      dup2\n        /* \"#utility.yul\":28222:28242   */\n      sub\n        /* \"#utility.yul\":28218:28219   */\n      0x00\n        /* \"#utility.yul\":28207:28216   */\n      dup4\n        /* \"#utility.yul\":28203:28220   */\n      add\n        /* \"#utility.yul\":28196:28243   */\n      mstore\n        /* \"#utility.yul\":28260:28391   */\n      tag_568\n        /* \"#utility.yul\":28386:28390   */\n      dup2\n        /* \"#utility.yul\":28260:28391   */\n      tag_286\n      jump\t// in\n    tag_568:\n        /* \"#utility.yul\":28252:28391   */\n      swap1\n      pop\n        /* \"#utility.yul\":27979:28398   */\n      swap2\n      swap1\n      pop\n      jump\t// out\n        /* \"#utility.yul\":28404:28502   */\n    tag_287:\n        /* \"#utility.yul\":28455:28461   */\n      0x00\n        /* \"#utility.yul\":28489:28494   */\n      dup2\n        /* \"#utility.yul\":28483:28495   */\n      mload\n        /* \"#utility.yul\":28473:28495   */\n      swap1\n      pop\n        /* \"#utility.yul\":28404:28502   */\n      swap2\n      swap1\n      pop\n      jump\t// out\n        /* \"#utility.yul\":28508:28655   */\n    tag_288:\n        /* \"#utility.yul\":28609:28620   */\n      0x00\n        /* \"#utility.yul\":28646:28649   */\n      dup2\n        /* \"#utility.yul\":28631:28649   */\n      swap1\n      pop\n        /* \"#utility.yul\":28508:28655   */\n      swap3\n      swap2\n      pop\n      pop\n      jump\t// out\n        /* \"#utility.yul\":28661:29047   */\n    tag_289:\n        /* \"#utility.yul\":28765:28768   */\n      0x00\n        /* \"#utility.yul\":28793:28831   */\n      tag_572\n        /* \"#utility.yul\":28825:28830   */\n      dup3\n        /* \"#utility.yul\":28793:28831   */\n      tag_287\n      jump\t// in\n    tag_572:\n        /* \"#utility.yul\":28847:28935   */\n      tag_573\n        /* \"#utility.yul\":28928:28934   */\n      dup2\n        /* \"#utility.yul\":28923:28926   */\n      dup6\n        /* \"#utility.yul\":28847:28935   */\n      tag_288\n      jump\t// in\n    tag_573:\n        /* \"#utility.yul\":28840:28935   */\n      swap4\n      pop\n        /* \"#utility.yul\":28944:29009   */\n      tag_574\n        /* \"#utility.yul\":29002:29008   */\n      dup2\n        /* \"#utility.yul\":28997:29000   */\n      dup6\n        /* \"#utility.yul\":28990:28994   */\n      0x20\n        /* \"#utility.yul\":28983:28988   */\n      dup7\n        /* \"#utility.yul\":28979:28995   */\n      add\n        /* \"#utility.yul\":28944:29009   */\n      tag_230\n      jump\t// in\n    tag_574:\n        /* \"#utility.yul\":29034:29040   */\n      dup1\n        /* \"#utility.yul\":29029:29032   */\n      dup5\n        /* \"#utility.yul\":29025:29041   */\n      add\n        /* \"#utility.yul\":29018:29041   */\n      swap2\n      pop\n        /* \"#utility.yul\":28769:29047   */\n      pop\n        /* \"#utility.yul\":28661:29047   */\n      swap3\n      swap2\n      pop\n      pop\n      jump\t// out\n        /* \"#utility.yul\":29053:29202   */\n    tag_290:\n        /* \"#utility.yul\":29089:29096   */\n      0x00\n        /* \"#utility.yul\":29129:29195   */\n      0xff00000000000000000000000000000000000000000000000000000000000000\n        /* \"#utility.yul\":29122:29127   */\n      dup3\n        /* \"#utility.yul\":29118:29196   */\n      and\n        /* \"#utility.yul\":29107:29196   */\n      swap1\n      pop\n        /* \"#utility.yul\":29053:29202   */\n      swap2\n      swap1\n      pop\n      jump\t// out\n        /* \"#utility.yul\":29208:29286   */\n    tag_291:\n        /* \"#utility.yul\":29246:29253   */\n      0x00\n        /* \"#utility.yul\":29275:29280   */\n      dup2\n        /* \"#utility.yul\":29264:29280   */\n      swap1\n      pop\n        /* \"#utility.yul\":29208:29286   */\n      swap2\n      swap1\n      pop\n      jump\t// out\n        /* \"#utility.yul\":29292:29445   */\n    tag_292:\n        /* \"#utility.yul\":29395:29438   */\n      tag_578\n        /* \"#utility.yul\":29414:29437   */\n      tag_579\n        /* \"#utility.yul\":29431:29436   */\n      dup3\n        /* \"#utility.yul\":29414:29437   */\n      tag_290\n      jump\t// in\n    tag_579:\n        /* \"#utility.yul\":29395:29438   */\n      tag_291\n      jump\t// in\n    tag_578:\n        /* \"#utility.yul\":29390:29393   */\n      dup3\n        /* \"#utility.yul\":29383:29439   */\n      mstore\n        /* \"#utility.yul\":29292:29445   */\n      pop\n      pop\n      jump\t// out\n        /* \"#utility.yul\":29451:29602   */\n    tag_293:\n        /* \"#utility.yul\":29591:29594   */\n      0x2000000000000000000000000000000000000000000000000000000000000000\n        /* \"#utility.yul\":29587:29588   */\n      0x00\n        /* \"#utility.yul\":29579:29585   */\n      dup3\n        /* \"#utility.yul\":29575:29589   */\n      add\n        /* \"#utility.yul\":29568:29595   */\n      mstore\n        /* \"#utility.yul\":29451:29602   */\n      pop\n      jump\t// out\n        /* \"#utility.yul\":29608:30008   */\n    tag_294:\n        /* \"#utility.yul\":29768:29771   */\n      0x00\n        /* \"#utility.yul\":29789:29873   */\n      tag_582\n        /* \"#utility.yul\":29871:29872   */\n      0x01\n        /* \"#utility.yul\":29866:29869   */\n      dup4\n        /* \"#utility.yul\":29789:29873   */\n      tag_264\n      jump\t// in\n    tag_582:\n        /* \"#utility.yul\":29782:29873   */\n      swap2\n      pop\n        /* \"#utility.yul\":29882:29975   */\n      tag_583\n        /* \"#utility.yul\":29971:29974   */\n      dup3\n        /* \"#utility.yul\":29882:29975   */\n      tag_293\n      jump\t// in\n    tag_583:\n        /* \"#utility.yul\":30000:30001   */\n      0x01\n        /* \"#utility.yul\":29995:29998   */\n      dup3\n        /* \"#utility.yul\":29991:30002   */\n      add\n        /* \"#utility.yul\":29984:30002   */\n      swap1\n      pop\n        /* \"#utility.yul\":29608:30008   */\n      swap2\n      swap1\n      pop\n      jump\t// out\n        /* \"#utility.yul\":30014:30687   */\n    tag_180:\n        /* \"#utility.yul\":30271:30274   */\n      0x00\n        /* \"#utility.yul\":30293:30386   */\n      tag_585\n        /* \"#utility.yul\":30382:30385   */\n      dup3\n        /* \"#utility.yul\":30373:30379   */\n      dup6\n        /* \"#utility.yul\":30293:30386   */\n      tag_289\n      jump\t// in\n    tag_585:\n        /* \"#utility.yul\":30286:30386   */\n      swap2\n      pop\n        /* \"#utility.yul\":30396:30469   */\n      tag_586\n        /* \"#utility.yul\":30465:30468   */\n      dup3\n        /* \"#utility.yul\":30456:30462   */\n      dup5\n        /* \"#utility.yul\":30396:30469   */\n      tag_292\n      jump\t// in\n    tag_586:\n        /* \"#utility.yul\":30494:30495   */\n      0x01\n        /* \"#utility.yul\":30489:30492   */\n      dup3\n        /* \"#utility.yul\":30485:30496   */\n      add\n        /* \"#utility.yul\":30478:30496   */\n      swap2\n      pop\n        /* \"#utility.yul\":30513:30661   */\n      tag_587\n        /* \"#utility.yul\":30657:30660   */\n      dup3\n        /* \"#utility.yul\":30513:30661   */\n      tag_294\n      jump\t// in\n    tag_587:\n        /* \"#utility.yul\":30506:30661   */\n      swap2\n      pop\n        /* \"#utility.yul\":30678:30681   */\n      dup2\n        /* \"#utility.yul\":30671:30681   */\n      swap1\n      pop\n        /* \"#utility.yul\":30014:30687   */\n      swap4\n      swap3\n      pop\n      pop\n      pop\n      jump\t// out\n        /* \"#utility.yul\":30693:30779   */\n    tag_295:\n        /* \"#utility.yul\":30728:30735   */\n      0x00\n        /* \"#utility.yul\":30768:30772   */\n      0xff\n        /* \"#utility.yul\":30761:30766   */\n      dup3\n        /* \"#utility.yul\":30757:30773   */\n      and\n        /* \"#utility.yul\":30746:30773   */\n      swap1\n      pop\n        /* \"#utility.yul\":30693:30779   */\n      swap2\n      swap1\n      pop\n      jump\t// out\n        /* \"#utility.yul\":30785:30952   */\n    tag_182:\n        /* \"#utility.yul\":30822:30825   */\n      0x00\n        /* \"#utility.yul\":30845:30867   */\n      tag_590\n        /* \"#utility.yul\":30861:30866   */\n      dup3\n        /* \"#utility.yul\":30845:30867   */\n      tag_295\n      jump\t// in\n    tag_590:\n        /* \"#utility.yul\":30836:30867   */\n      swap2\n      pop\n        /* \"#utility.yul\":30889:30893   */\n      0xff\n        /* \"#utility.yul\":30882:30887   */\n      dup3\n        /* \"#utility.yul\":30879:30894   */\n      sub\n        /* \"#utility.yul\":30876:30917   */\n      tag_591\n      jumpi\n        /* \"#utility.yul\":30897:30915   */\n      tag_592\n      tag_238\n      jump\t// in\n    tag_592:\n        /* \"#utility.yul\":30876:30917   */\n    tag_591:\n        /* \"#utility.yul\":30944:30945   */\n      0x01\n        /* \"#utility.yul\":30937:30942   */\n      dup3\n        /* \"#utility.yul\":30933:30946   */\n      add\n        /* \"#utility.yul\":30926:30946   */\n      swap1\n      pop\n        /* \"#utility.yul\":30785:30952   */\n      swap2\n      swap1\n      pop\n      jump\t// out\n        /* \"#utility.yul\":30958:31123   */\n    tag_296:\n        /* \"#utility.yul\":31098:31115   */\n      0x57726f6e6720677565737365733a200000000000000000000000000000000000\n        /* \"#utility.yul\":31094:31095   */\n      0x00\n        /* \"#utility.yul\":31086:31092   */\n      dup3\n        /* \"#utility.yul\":31082:31096   */\n      add\n        /* \"#utility.yul\":31075:31116   */\n      mstore\n        /* \"#utility.yul\":30958:31123   */\n      pop\n      jump\t// out\n        /* \"#utility.yul\":31129:31531   */\n    tag_297:\n        /* \"#utility.yul\":31289:31292   */\n      0x00\n        /* \"#utility.yul\":31310:31395   */\n      tag_595\n        /* \"#utility.yul\":31392:31394   */\n      0x0f\n        /* \"#utility.yul\":31387:31390   */\n      dup4\n        /* \"#utility.yul\":31310:31395   */\n      tag_264\n      jump\t// in\n    tag_595:\n        /* \"#utility.yul\":31303:31395   */\n      swap2\n      pop\n        /* \"#utility.yul\":31404:31497   */\n      tag_596\n        /* \"#utility.yul\":31493:31496   */\n      dup3\n        /* \"#utility.yul\":31404:31497   */\n      tag_296\n      jump\t// in\n    tag_596:\n        /* \"#utility.yul\":31522:31524   */\n      0x0f\n        /* \"#utility.yul\":31517:31520   */\n      dup3\n        /* \"#utility.yul\":31513:31525   */\n      add\n        /* \"#utility.yul\":31506:31525   */\n      swap1\n      pop\n        /* \"#utility.yul\":31129:31531   */\n      swap2\n      swap1\n      pop\n      jump\t// out\n        /* \"#utility.yul\":31537:32078   */\n    tag_184:\n        /* \"#utility.yul\":31770:31773   */\n      0x00\n        /* \"#utility.yul\":31792:31940   */\n      tag_598\n        /* \"#utility.yul\":31936:31939   */\n      dup3\n        /* \"#utility.yul\":31792:31940   */\n      tag_297\n      jump\t// in\n    tag_598:\n        /* \"#utility.yul\":31785:31940   */\n      swap2\n      pop\n        /* \"#utility.yul\":31957:32052   */\n      tag_599\n        /* \"#utility.yul\":32048:32051   */\n      dup3\n        /* \"#utility.yul\":32039:32045   */\n      dup5\n        /* \"#utility.yul\":31957:32052   */\n      tag_267\n      jump\t// in\n    tag_599:\n        /* \"#utility.yul\":31950:32052   */\n      swap2\n      pop\n        /* \"#utility.yul\":32069:32072   */\n      dup2\n        /* \"#utility.yul\":32062:32072   */\n      swap1\n      pop\n        /* \"#utility.yul\":31537:32078   */\n      swap3\n      swap2\n      pop\n      pop\n      jump\t// out\n        /* \"#utility.yul\":32084:32243   */\n    tag_298:\n        /* \"#utility.yul\":32224:32235   */\n      0x48616e676d616e3a200000000000000000000000000000000000000000000000\n        /* \"#utility.yul\":32220:32221   */\n      0x00\n        /* \"#utility.yul\":32212:32218   */\n      dup3\n        /* \"#utility.yul\":32208:32222   */\n      add\n        /* \"#utility.yul\":32201:32236   */\n      mstore\n        /* \"#utility.yul\":32084:32243   */\n      pop\n      jump\t// out\n        /* \"#utility.yul\":32249:32649   */\n    tag_299:\n        /* \"#utility.yul\":32409:32412   */\n      0x00\n        /* \"#utility.yul\":32430:32514   */\n      tag_602\n        /* \"#utility.yul\":32512:32513   */\n      0x09\n        /* \"#utility.yul\":32507:32510   */\n      dup4\n        /* \"#utility.yul\":32430:32514   */\n      tag_264\n      jump\t// in\n    tag_602:\n        /* \"#utility.yul\":32423:32514   */\n      swap2\n      pop\n        /* \"#utility.yul\":32523:32616   */\n      tag_603\n        /* \"#utility.yul\":32612:32615   */\n      dup3\n        /* \"#utility.yul\":32523:32616   */\n      tag_298\n      jump\t// in\n    tag_603:\n        /* \"#utility.yul\":32641:32642   */\n      0x09\n        /* \"#utility.yul\":32636:32639   */\n      dup3\n        /* \"#utility.yul\":32632:32643   */\n      add\n        /* \"#utility.yul\":32625:32643   */\n      swap1\n      pop\n        /* \"#utility.yul\":32249:32649   */\n      swap2\n      swap1\n      pop\n      jump\t// out\n        /* \"#utility.yul\":32679:33553   */\n    tag_300:\n        /* \"#utility.yul\":32782:32785   */\n      0x00\n        /* \"#utility.yul\":32819:32824   */\n      dup2\n        /* \"#utility.yul\":32813:32825   */\n      sload\n        /* \"#utility.yul\":32848:32884   */\n      tag_605\n        /* \"#utility.yul\":32874:32883   */\n      dup2\n        /* \"#utility.yul\":32848:32884   */\n      tag_44\n      jump\t// in\n    tag_605:\n        /* \"#utility.yul\":32900:32989   */\n      tag_606\n        /* \"#utility.yul\":32982:32988   */\n      dup2\n        /* \"#utility.yul\":32977:32980   */\n      dup7\n        /* \"#utility.yul\":32900:32989   */\n      tag_264\n      jump\t// in\n    tag_606:\n        /* \"#utility.yul\":32893:32989   */\n      swap5\n      pop\n        /* \"#utility.yul\":33020:33021   */\n      0x01\n        /* \"#utility.yul\":33009:33018   */\n      dup3\n        /* \"#utility.yul\":33005:33022   */\n      and\n        /* \"#utility.yul\":33036:33037   */\n      0x00\n        /* \"#utility.yul\":33031:33197   */\n      dup2\n      eq\n      tag_608\n      jumpi\n        /* \"#utility.yul\":33211:33212   */\n      0x01\n        /* \"#utility.yul\":33206:33547   */\n      dup2\n      eq\n      tag_609\n      jumpi\n        /* \"#utility.yul\":32998:33547   */\n      jump(tag_607)\n        /* \"#utility.yul\":33031:33197   */\n    tag_608:\n        /* \"#utility.yul\":33115:33119   */\n      0xff\n        /* \"#utility.yul\":33111:33120   */\n      not\n        /* \"#utility.yul\":33100:33109   */\n      dup4\n        /* \"#utility.yul\":33096:33121   */\n      and\n        /* \"#utility.yul\":33091:33094   */\n      dup7\n        /* \"#utility.yul\":33084:33122   */\n      mstore\n        /* \"#utility.yul\":33177:33183   */\n      dup2\n        /* \"#utility.yul\":33170:33184   */\n      iszero\n        /* \"#utility.yul\":33163:33185   */\n      iszero\n        /* \"#utility.yul\":33155:33161   */\n      dup3\n        /* \"#utility.yul\":33151:33186   */\n      mul\n        /* \"#utility.yul\":33146:33149   */\n      dup7\n        /* \"#utility.yul\":33142:33187   */\n      add\n        /* \"#utility.yul\":33135:33187   */\n      swap4\n      pop\n        /* \"#utility.yul\":33031:33197   */\n      jump(tag_607)\n        /* \"#utility.yul\":33206:33547   */\n    tag_609:\n        /* \"#utility.yul\":33273:33311   */\n      tag_610\n        /* \"#utility.yul\":33305:33310   */\n      dup6\n        /* \"#utility.yul\":33273:33311   */\n      tag_244\n      jump\t// in\n    tag_610:\n        /* \"#utility.yul\":33333:33334   */\n      0x00\n        /* \"#utility.yul\":33347:33501   */\n    tag_611:\n        /* \"#utility.yul\":33361:33367   */\n      dup4\n        /* \"#utility.yul\":33358:33359   */\n      dup2\n        /* \"#utility.yul\":33355:33368   */\n      lt\n        /* \"#utility.yul\":33347:33501   */\n      iszero\n      tag_613\n      jumpi\n        /* \"#utility.yul\":33435:33442   */\n      dup2\n        /* \"#utility.yul\":33429:33443   */\n      sload\n        /* \"#utility.yul\":33425:33426   */\n      dup2\n        /* \"#utility.yul\":33420:33423   */\n      dup10\n        /* \"#utility.yul\":33416:33427   */\n      add\n        /* \"#utility.yul\":33409:33444   */\n      mstore\n        /* \"#utility.yul\":33485:33486   */\n      0x01\n        /* \"#utility.yul\":33476:33483   */\n      dup3\n        /* \"#utility.yul\":33472:33487   */\n      add\n        /* \"#utility.yul\":33461:33487   */\n      swap2\n      pop\n        /* \"#utility.yul\":33383:33387   */\n      0x20\n        /* \"#utility.yul\":33380:33381   */\n      dup2\n        /* \"#utility.yul\":33376:33388   */\n      add\n        /* \"#utility.yul\":33371:33388   */\n      swap1\n      pop\n        /* \"#utility.yul\":33347:33501   */\n      jump(tag_611)\n    tag_613:\n        /* \"#utility.yul\":33530:33536   */\n      dup4\n        /* \"#utility.yul\":33525:33528   */\n      dup9\n        /* \"#utility.yul\":33521:33537   */\n      add\n        /* \"#utility.yul\":33514:33537   */\n      swap6\n      pop\n        /* \"#utility.yul\":33213:33547   */\n      pop\n      pop\n        /* \"#utility.yul\":32998:33547   */\n    tag_607:\n      pop\n        /* \"#utility.yul\":32786:33553   */\n      pop\n      pop\n        /* \"#utility.yul\":32679:33553   */\n      swap3\n      swap2\n      pop\n      pop\n      jump\t// out\n        /* \"#utility.yul\":33559:34094   */\n    tag_191:\n        /* \"#utility.yul\":33789:33792   */\n      0x00\n        /* \"#utility.yul\":33811:33959   */\n      tag_615\n        /* \"#utility.yul\":33955:33958   */\n      dup3\n        /* \"#utility.yul\":33811:33959   */\n      tag_299\n      jump\t// in\n    tag_615:\n        /* \"#utility.yul\":33804:33959   */\n      swap2\n      pop\n        /* \"#utility.yul\":33976:34068   */\n      tag_616\n        /* \"#utility.yul\":34064:34067   */\n      dup3\n        /* \"#utility.yul\":34055:34061   */\n      dup5\n        /* \"#utility.yul\":33976:34068   */\n      tag_300\n      jump\t// in\n    tag_616:\n        /* \"#utility.yul\":33969:34068   */\n      swap2\n      pop\n        /* \"#utility.yul\":34085:34088   */\n      dup2\n        /* \"#utility.yul\":34078:34088   */\n      swap1\n      pop\n        /* \"#utility.yul\":33559:34094   */\n      swap3\n      swap2\n      pop\n      pop\n      jump\t// out\n        /* \"#utility.yul\":34100:34288   */\n    tag_196:\n        /* \"#utility.yul\":34138:34141   */\n      0x00\n        /* \"#utility.yul\":34157:34175   */\n      tag_618\n        /* \"#utility.yul\":34173:34174   */\n      dup3\n        /* \"#utility.yul\":34157:34175   */\n      tag_295\n      jump\t// in\n    tag_618:\n        /* \"#utility.yul\":34152:34175   */\n      swap2\n      pop\n        /* \"#utility.yul\":34189:34207   */\n      tag_619\n        /* \"#utility.yul\":34205:34206   */\n      dup4\n        /* \"#utility.yul\":34189:34207   */\n      tag_295\n      jump\t// in\n    tag_619:\n        /* \"#utility.yul\":34184:34207   */\n      swap3\n      pop\n        /* \"#utility.yul\":34230:34231   */\n      dup3\n        /* \"#utility.yul\":34227:34228   */\n      dup3\n        /* \"#utility.yul\":34223:34232   */\n      add\n        /* \"#utility.yul\":34216:34232   */\n      swap1\n      pop\n        /* \"#utility.yul\":34253:34257   */\n      0xff\n        /* \"#utility.yul\":34248:34251   */\n      dup2\n        /* \"#utility.yul\":34245:34258   */\n      gt\n        /* \"#utility.yul\":34242:34281   */\n      iszero\n      tag_620\n      jumpi\n        /* \"#utility.yul\":34261:34279   */\n      tag_621\n      tag_238\n      jump\t// in\n    tag_621:\n        /* \"#utility.yul\":34242:34281   */\n    tag_620:\n        /* \"#utility.yul\":34100:34288   */\n      swap3\n      swap2\n      pop\n      pop\n      jump\t// out\n        /* \"#utility.yul\":34294:34527   */\n    tag_202:\n        /* \"#utility.yul\":34333:34336   */\n      0x00\n        /* \"#utility.yul\":34356:34380   */\n      tag_623\n        /* \"#utility.yul\":34374:34379   */\n      dup3\n        /* \"#utility.yul\":34356:34380   */\n      tag_232\n      jump\t// in\n    tag_623:\n        /* \"#utility.yul\":34347:34380   */\n      swap2\n      pop\n        /* \"#utility.yul\":34402:34468   */\n      0xffffffffffffffffffffffffffffffffffffffffffffffffffffffffffffffff\n        /* \"#utility.yul\":34395:34400   */\n      dup3\n        /* \"#utility.yul\":34392:34469   */\n      sub\n        /* \"#utility.yul\":34389:34492   */\n      tag_624\n      jumpi\n        /* \"#utility.yul\":34472:34490   */\n      tag_625\n      tag_238\n      jump\t// in\n    tag_625:\n        /* \"#utility.yul\":34389:34492   */\n    tag_624:\n        /* \"#utility.yul\":34519:34520   */\n      0x01\n        /* \"#utility.yul\":34512:34517   */\n      dup3\n        /* \"#utility.yul\":34508:34521   */\n      add\n        /* \"#utility.yul\":34501:34521   */\n      swap1\n      pop\n        /* \"#utility.yul\":34294:34527   */\n      swap2\n      swap1\n      pop\n      jump\t// out\n        /* \"#utility.yul\":34533:34718   */\n    tag_204:\n        /* \"#utility.yul\":34573:34574   */\n      0x00\n        /* \"#utility.yul\":34590:34610   */\n      tag_627\n        /* \"#utility.yul\":34608:34609   */\n      dup3\n        /* \"#utility.yul\":34590:34610   */\n      tag_232\n      jump\t// in\n    tag_627:\n        /* \"#utility.yul\":34585:34610   */\n      swap2\n      pop\n        /* \"#utility.yul\":34624:34644   */\n      tag_628\n        /* \"#utility.yul\":34642:34643   */\n      dup4\n        /* \"#utility.yul\":34624:34644   */\n      tag_232\n      jump\t// in\n    tag_628:\n        /* \"#utility.yul\":34619:34644   */\n      swap3\n      pop\n        /* \"#utility.yul\":34663:34664   */\n      dup3\n        /* \"#utility.yul\":34653:34688   */\n      tag_629\n      jumpi\n        /* \"#utility.yul\":34668:34686   */\n      tag_630\n      tag_280\n      jump\t// in\n    tag_630:\n        /* \"#utility.yul\":34653:34688   */\n    tag_629:\n        /* \"#utility.yul\":34710:34711   */\n      dup3\n        /* \"#utility.yul\":34707:34708   */\n      dup3\n        /* \"#utility.yul\":34703:34712   */\n      div\n        /* \"#utility.yul\":34698:34712   */\n      swap1\n      pop\n        /* \"#utility.yul\":34533:34718   */\n      swap3\n      swap2\n      pop\n      pop\n      jump\t// out\n\n    auxdata: 0xa26469706673582212204d2499e487682eb07cc64691d572493a67b1d1a2fd5d437ee3fac6800a0f277464736f6c634300081a0033\n}\n",
				"bytecode": {
					"linkReferences": {},
					"object": "60806040526040518061064001604052806040518060400160405280600981526020017f6170706c6520706965000000000000000000000000000000000000000000000081525081526020016040518060400160405280600981526020017f686170707920636174000000000000000000000000000000000000000000000081525081526020016040518060400160405280600881526020017f626967206265617200000000000000000000000000000000000000000000000081525081526020016040518060400160405280600b81526020017f7261696e626f7720736b7900000000000000000000000000000000000000000081525081526020016040518060400160405280600981526020017f6d6167696320686174000000000000000000000000000000000000000000000081525081526020016040518060400160405280600981526020017f73756e6e7920646179000000000000000000000000000000000000000000000081525081526020016040518060400160405280600a81526020017f74696e7920686f7573650000000000000000000000000000000000000000000081525081526020016040518060400160405280600981526020017f6c656d6f6e20746561000000000000000000000000000000000000000000000081525081526020016040518060400160405280600a81526020017f7075707079206c6f76650000000000000000000000000000000000000000000081525081526020016040518060400160405280600981526020017f77696c642077657374000000000000000000000000000000000000000000000081525081526020016040518060400160405280600b81526020017f6f72616e6765206d6f6f6e00000000000000000000000000000000000000000081525081526020016040518060400160405280600b81526020017f73696c766572207374617200000000000000000000000000000000000000000081525081526020016040518060400160405280600c81526020017f6c61756768696e67206f776c000000000000000000000000000000000000000081525081526020016040518060400160405280600b81526020017f666f72657374207061746800000000000000000000000000000000000000000081525081526020016040518060400160405280600b81526020017f666c79696e67206669736800000000000000000000000000000000000000000081525081526020016040518060400160405280600c81526020017f636f74746f6e20636c6f7564000000000000000000000000000000000000000081525081526020016040518060400160405280600b81526020017f636865727279207472656500000000000000000000000000000000000000000081525081526020016040518060400160405280600a81526020017f736563726574206b65790000000000000000000000000000000000000000000081525081526020016040518060400160405280600c81526020017f6272617665206b6e69676874000000000000000000000000000000000000000081525081526020016040518060400160405280600a81526020017f626c7565206f6365616e0000000000000000000000000000000000000000000081525081526020016040518060400160405280600f81526020017f7477696e6b6c696e67206c69676874000000000000000000000000000000000081525081526020016040518060400160405280600b81526020017f736e6f7779206e6967687400000000000000000000000000000000000000000081525081526020016040518060400160405280600c81526020017f6769616e7420747572746c65000000000000000000000000000000000000000081525081526020016040518060400160405280600a81526020017f66616972792074616c650000000000000000000000000000000000000000000081525081526020016040518060400160405280600f81526020017f68696464656e207472656173757265000000000000000000000000000000000081525081526020016040518060400160405280600c81526020017f73696c656e74207269766572000000000000000000000000000000000000000081525081526020016040518060400160405280600c81526020017f637564646c792062756e6e79000000000000000000000000000000000000000081525081526020016040518060400160405280600f81526020017f64616e63696e6720646f6c7068696e000000000000000000000000000000000081525081526020016040518060400160405280600b81526020017f66726f7a656e206c616b6500000000000000000000000000000000000000000081525081526020016040518060400160405280600e81526020017f63686f636f6c6174652063616b6500000000000000000000000000000000000081525081526020016040518060400160405280600e81526020017f667269656e646c792067686f737400000000000000000000000000000000000081525081526020016040518060400160405280600b81526020017f676f6c64656e2072696e6700000000000000000000000000000000000000000081525081526020016040518060400160405280600f81526020017f706561636566756c2067617264656e000000000000000000000000000000000081525081526020016040518060400160405280600f81526020017f77686973706572696e672077696e64000000000000000000000000000000000081525081526020016040518060400160405280600b81526020017f7368696e792070656e6e7900000000000000000000000000000000000000000081525081526020016040518060400160405280600d81526020017f6d6f756e7461696e207065616b0000000000000000000000000000000000000081525081526020016040518060400160405280600b81526020017f63616c6d2077617465727300000000000000000000000000000000000000000081525081526020016040518060400160405280600a81526020017f6272696768742073756e0000000000000000000000000000000000000000000081525081526020016040518060400160405280600a81526020017f736c6565707920666f780000000000000000000000000000000000000000000081525081526020016040518060400160405280600a81526020017f73746172727920736b790000000000000000000000000000000000000000000081525081526020016040518060400160405280600b81526020017f74696e7920666c6f77657200000000000000000000000000000000000000000081525081526020016040518060400160405280600d81526020017f67656e746c6520627265657a650000000000000000000000000000000000000081525081526020016040518060400160405280600c81526020017f7261696e626f772066697368000000000000000000000000000000000000000081525081526020016040518060400160405280600c81526020017f73696e67696e672062697264000000000000000000000000000000000000000081525081526020016040518060400160405280600a81526020017f626f6c642074696765720000000000000000000000000000000000000000000081525081526020016040518060400160405280600e81526020017f7370696e6e696e6720776865656c00000000000000000000000000000000000081525081526020016040518060400160405280600d81526020017f736861646f77207075707065740000000000000000000000000000000000000081525081526020016040518060400160405280600c81526020017f677265656e2076616c6c6579000000000000000000000000000000000000000081525081526020016040518060400160405280601481526020017f666c7574746572696e6720627574746572666c7900000000000000000000000081525081526020016040518060400160405280600b81526020017f73656372657420636176650000000000000000000000000000000000000000008152508152505f906032610ba3929190610da8565b506040518061010001604052806040518060400160405280600381526020017f207c2d000000000000000000000000000000000000000000000000000000000081525081526020016040518060400160405280600481526020017f207c2d6f0000000000000000000000000000000000000000000000000000000081525081526020016040518060400160405280600581526020017f207c2d6f2d00000000000000000000000000000000000000000000000000000081525081526020016040518060400160405280600681526020017f207c2d6f2d2d000000000000000000000000000000000000000000000000000081525081526020016040518060400160405280600581526020017f207c2d6f3c00000000000000000000000000000000000000000000000000000081525081526020016040518060400160405280600781526020017f207c2d6f3c2d2d0000000000000000000000000000000000000000000000000081525081526020016040518060400160405280600781526020017f207c2d6f3c2d3c0000000000000000000000000000000000000000000000000081525081526020016040518060400160405280600881526020017f207c2d6f3c2d2d3c0000000000000000000000000000000000000000000000008152508152506038906008610d96929190610df4565b50348015610da2575f80fd5b506111c4565b8260328101928215610de3579160200282015b82811115610de2578251829081610dd291906110f5565b5091602001919060010190610dbb565b5b509050610df09190610e40565b5090565b8260088101928215610e2f579160200282015b82811115610e2e578251829081610e1e91906110f5565b5091602001919060010190610e07565b5b509050610e3c9190610e40565b5090565b5b80821115610e5f575f8181610e569190610e63565b50600101610e41565b5090565b508054610e6f90610f1f565b5f825580601f10610e805750610e9d565b601f0160209004905f5260205f2090810190610e9c9190610ea0565b5b50565b5b80821115610eb7575f815f905550600101610ea1565b5090565b5f81519050919050565b7f4e487b71000000000000000000000000000000000000000000000000000000005f52604160045260245ffd5b7f4e487b71000000000000000000000000000000000000000000000000000000005f52602260045260245ffd5b5f6002820490506001821680610f3657607f821691505b602082108103610f4957610f48610ef2565b5b50919050565b5f819050815f5260205f209050919050565b5f6020601f8301049050919050565b5f82821b905092915050565b5f60088302610fab7fffffffffffffffffffffffffffffffffffffffffffffffffffffffffffffffff82610f70565b610fb58683610f70565b95508019841693508086168417925050509392505050565b5f819050919050565b5f819050919050565b5f610ff9610ff4610fef84610fcd565b610fd6565b610fcd565b9050919050565b5f819050919050565b61101283610fdf565b61102661101e82611000565b848454610f7c565b825550505050565b5f90565b61103a61102e565b611045818484611009565b505050565b5b818110156110685761105d5f82611032565b60018101905061104b565b5050565b601f8211156110ad5761107e81610f4f565b61108784610f61565b81016020851015611096578190505b6110aa6110a285610f61565b83018261104a565b50505b505050565b5f82821c905092915050565b5f6110cd5f19846008026110b2565b1980831691505092915050565b5f6110e583836110be565b9150826002028217905092915050565b6110fe82610ebb565b67ffffffffffffffff81111561111757611116610ec5565b5b6111218254610f1f565b61112c82828561106c565b5f60209050601f83116001811461115d575f841561114b578287015190505b61115585826110da565b8655506111bc565b601f19841661116b86610f4f565b5f5b828110156111925784890151825560018201915060208501945060208101905061116d565b868310156111af57848901516111ab601f8916826110be565b8355505b6001600288020188555050505b505050505050565b612338806111d15f395ff3fe608060405234801561000f575f80fd5b5060043610610055575f3560e01c80634eee59b314610059578063b7d0628b1461008c578063d1b9252e146100ad578063d65ab5f2146100cb578063fc2b8cc3146100d5575b5f80fd5b610073600480360381019061006e919061125d565b6100df565b604051610083949392919061131c565b60405180910390f35b610094610750565b6040516100a4949392919061131c565b60405180910390f35b6100b5610851565b6040516100c29190611374565b60405180910390f35b6100d3610908565b005b6100dd610d6c565b005b60605f60608060355f9054906101000a900460ff16610133576040517f08c379a000000000000000000000000000000000000000000000000000000000815260040161012a906113de565b60405180910390fd5b6001855114610177576040517f08c379a000000000000000000000000000000000000000000000000000000000815260040161016e9061146c565b60405180910390fd5b607860365461018691906114b7565b4211156102bb575f60355f6101000a81548160ff0219169083151502179055507eaf1ade955695dd7cb8833b69ad71fc489f552aca5609812e9f4567e5e450886040516101d290611534565b60405180910390a17f056e3895424a85ef26c4c78d9988dea28d97c77c140b919289906403e8017170604051610207906115c2565b60405180910390a1603360345461021c610e0a565b610224610eea565b8380546102309061160d565b80601f016020809104026020016040519081016040528092919081815260200182805461025c9061160d565b80156102a75780601f1061027e576101008083540402835291602001916102a7565b820191905f5260205f20905b81548152906001019060200180831161028a57829003601f168201915b505050505093509350935093509350610749565b5f6102e2865f815181106102d2576102d161163d565b5b602001015160f81c60f81b610f33565b90505f80603380546102f39061160d565b80601f016020809104026020016040519081016040528092919081815260200182805461031f9061160d565b801561036a5780601f106103415761010080835404028352916020019161036a565b820191905f5260205f20905b81548152906001019060200180831161034d57829003601f168201915b505050505090505f6032805461037f9061160d565b80601f01602080910402602001604051908101604052809291908181526020018280546103ab9061160d565b80156103f65780601f106103cd576101008083540402835291602001916103f6565b820191905f5260205f20905b8154815290600101906020018083116103d957829003601f168201915b505050505090505f5b81518110156104f557847effffffffffffffffffffffffffffffffffffffffffffffffffffffffffffff19166104518383815181106104415761044061163d565b5b602001015160f81c60f81b610f33565b7effffffffffffffffffffffffffffffffffffffffffffffffffffffffffffff1916036104e85781818151811061048b5761048a61163d565b5b602001015160f81c60f81b836002836104a4919061166a565b815181106104b5576104b461163d565b5b60200101907effffffffffffffffffffffffffffffffffffffffffffffffffffffffffffff191690815f1a905350600193505b80806001019150506103ff565b5081603390816105059190611848565b508261064f5760375f857effffffffffffffffffffffffffffffffffffffffffffffffffffffffffffff19167effffffffffffffffffffffffffffffffffffffffffffffffffffffffffffff191681526020019081526020015f205f9054906101000a900460ff1661064e57600160375f867effffffffffffffffffffffffffffffffffffffffffffffffffffffffffffff19167effffffffffffffffffffffffffffffffffffffffffffffffffffffffffffff191681526020019081526020015f205f6101000a81548160ff02191690831515021790555060345f8154809291906105f090611917565b91905055505f6034540361064d575f60355f6101000a81548160ff0219169083151502179055507f056e3895424a85ef26c4c78d9988dea28d97c77c140b919289906403e801717060405161064490611988565b60405180910390a15b5b5b7f1512161b9f23a85fd9ccec12d9cd3abeb7333bf293dc69250460c4c054a27fc6603360345461067d610e0a565b610685610eea565b6040516106959493929190611a27565b60405180910390a160336034546106aa610e0a565b6106b2610eea565b8380546106be9061160d565b80601f01602080910402602001604051908101604052809291908181526020018280546106ea9061160d565b80156107355780601f1061070c57610100808354040283529160200191610735565b820191905f5260205f20905b81548152906001019060200180831161071857829003601f168201915b505050505093509750975097509750505050505b9193509193565b60605f60608060355f9054906101000a900460ff166107a4576040517f08c379a000000000000000000000000000000000000000000000000000000000815260040161079b90611ac9565b60405180910390fd5b60336034546107b1610e0a565b6107b9610eea565b8380546107c59061160d565b80601f01602080910402602001604051908101604052809291908181526020018280546107f19061160d565b801561083c5780601f106108135761010080835404028352916020019161083c565b820191905f5260205f20905b81548152906001019060200180831161081f57829003601f168201915b50505050509350935093509350935090919293565b606060355f9054906101000a900460ff166108a1576040517f08c379a000000000000000000000000000000000000000000000000000000000815260040161089890611ac9565b60405180910390fd5b5f4260786036546108b291906114b7565b116108bd575f6108d8565b4260786036546108cd91906114b7565b6108d79190611ae7565b5b90506108e381610fb8565b6040516020016108f39190611be8565b60405160208183030381529060405291505090565b60355f9054906101000a900460ff1615610957576040517f08c379a000000000000000000000000000000000000000000000000000000000815260040161094e90611c84565b60405180910390fd5b600160355f6101000a81548160ff021916908315150217905550426036819055507fa2dfaa3573b86004ec9d4d4abe5068d942579c59da4da8cd0d9e45e71a393bc160365460786040516109ac929190611ca2565b60405180910390a15f603242336040516020016109ca929190611d5e565b604051602081830303815290604052805190602001205f1c6109ec9190611db6565b90505f8160328110610a0157610a0061163d565b5b0160329081610a109190611e0d565b505f60328054610a1f9061160d565b80601f0160208091040260200160405190810160405280929190818152602001828054610a4b9061160d565b8015610a965780601f10610a6d57610100808354040283529160200191610a96565b820191905f5260205f20905b815481529060010190602001808311610a7957829003601f168201915b505050505090505f60028251610aac919061166a565b67ffffffffffffffff811115610ac557610ac4611139565b5b6040519080825280601f01601f191660200182016040528015610af75781602001600182028036833780820191505090505b50905060076034819055505f5b8251811015610d56577f2000000000000000000000000000000000000000000000000000000000000000838281518110610b4157610b4061163d565b5b602001015160f81c60f81b7effffffffffffffffffffffffffffffffffffffffffffffffffffffffffffff191603610c60577f7c0000000000000000000000000000000000000000000000000000000000000082600283610ba2919061166a565b81518110610bb357610bb261163d565b5b60200101907effffffffffffffffffffffffffffffffffffffffffffffffffffffffffffff191690815f1a9053507f7c00000000000000000000000000000000000000000000000000000000000000826001600284610c12919061166a565b610c1c91906114b7565b81518110610c2d57610c2c61163d565b5b60200101907effffffffffffffffffffffffffffffffffffffffffffffffffffffffffffff191690815f1a905350610d49565b7f5f0000000000000000000000000000000000000000000000000000000000000082600283610c8f919061166a565b81518110610ca057610c9f61163d565b5b60200101907effffffffffffffffffffffffffffffffffffffffffffffffffffffffffffff191690815f1a9053507f2000000000000000000000000000000000000000000000000000000000000000826001600284610cff919061166a565b610d0991906114b7565b81518110610d1a57610d1961163d565b5b60200101907effffffffffffffffffffffffffffffffffffffffffffffffffffffffffffff191690815f1a9053505b8080600101915050610b04565b508060339081610d669190611848565b50505050565b60355f9054906101000a900460ff16610dba576040517f08c379a0000000000000000000000000000000000000000000000000000000008152600401610db190611f3c565b60405180910390fd5b5f60355f6101000a81548160ff0219169083151502179055507f056e3895424a85ef26c4c78d9988dea28d97c77c140b919289906403e8017170604051610e0090611fa4565b60405180910390a1565b6060805f606190505b607a8160ff1611610ec35760375f8260f81b7effffffffffffffffffffffffffffffffffffffffffffffffffffffffffffff19167effffffffffffffffffffffffffffffffffffffffffffffffffffffffffffff191681526020019081526020015f205f9054906101000a900460ff1615610eb057818160f81b604051602001610e9e92919061209b565b60405160208183030381529060405291505b8080610ebb906120d9565b915050610e13565b5080604051602001610ed5919061214b565b60405160208183030381529060405291505090565b606060386034546007610efd9190611ae7565b60088110610f0e57610f0d61163d565b5b01604051602001610f1f9190612236565b604051602081830303815290604052905090565b5f604160f81b827effffffffffffffffffffffffffffffffffffffffffffffffffffffffffffff191610158015610f905750605a60f81b827effffffffffffffffffffffffffffffffffffffffffffffffffffffffffffff191611155b15610faf5760208260f81c610fa59190612257565b60f81b9050610fb3565b8190505b919050565b60605f8203610ffe576040518060400160405280600181526020017f3000000000000000000000000000000000000000000000000000000000000000815250905061110b565b5f8290505f5b5f821461102d5780806110169061228b565b915050600a8261102691906122d2565b9150611004565b5f8167ffffffffffffffff81111561104857611047611139565b5b6040519080825280601f01601f19166020018201604052801561107a5781602001600182028036833780820191505090505b5090505b5f851461110457818061109090611917565b925050600a856110a09190611db6565b60306110ac91906114b7565b60f81b8183815181106110c2576110c161163d565b5b60200101907effffffffffffffffffffffffffffffffffffffffffffffffffffffffffffff191690815f1a905350600a856110fd91906122d2565b945061107e565b8093505050505b919050565b5f604051905090565b5f80fd5b5f80fd5b5f80fd5b5f80fd5b5f601f19601f8301169050919050565b7f4e487b71000000000000000000000000000000000000000000000000000000005f52604160045260245ffd5b61116f82611129565b810181811067ffffffffffffffff8211171561118e5761118d611139565b5b80604052505050565b5f6111a0611110565b90506111ac8282611166565b919050565b5f67ffffffffffffffff8211156111cb576111ca611139565b5b6111d482611129565b9050602081019050919050565b828183375f83830152505050565b5f6112016111fc846111b1565b611197565b90508281526020810184848401111561121d5761121c611125565b5b6112288482856111e1565b509392505050565b5f82601f83011261124457611243611121565b5b81356112548482602086016111ef565b91505092915050565b5f6020828403121561127257611271611119565b5b5f82013567ffffffffffffffff81111561128f5761128e61111d565b5b61129b84828501611230565b91505092915050565b5f81519050919050565b5f82825260208201905092915050565b8281835e5f83830152505050565b5f6112d6826112a4565b6112e081856112ae565b93506112f08185602086016112be565b6112f981611129565b840191505092915050565b5f819050919050565b61131681611304565b82525050565b5f6080820190508181035f83015261133481876112cc565b9050611343602083018661130d565b818103604083015261135581856112cc565b9050818103606083015261136981846112cc565b905095945050505050565b5f6020820190508181035f83015261138c81846112cc565b905092915050565b7f47616d652068617320656e6465642e00000000000000000000000000000000005f82015250565b5f6113c8600f836112ae565b91506113d382611394565b602082019050919050565b5f6020820190508181035f8301526113f5816113bc565b9050919050565b7f496e707574206d75737420626520612073696e676c65206368617261637465725f8201527f2e00000000000000000000000000000000000000000000000000000000000000602082015250565b5f6114566021836112ae565b9150611461826113fc565b604082019050919050565b5f6020820190508181035f8301526114838161144a565b9050919050565b7f4e487b71000000000000000000000000000000000000000000000000000000005f52601160045260245ffd5b5f6114c182611304565b91506114cc83611304565b92508282019050808211156114e4576114e361148a565b5b92915050565b7f54696d65206c696d697420726561636865642e000000000000000000000000005f82015250565b5f61151e6013836112ae565b9150611529826114ea565b602082019050919050565b5f6020820190508181035f83015261154b81611512565b9050919050565b7f47616d65206f7665722e20596f75206469646e27742066696e69736820696e205f8201527f74696d652e000000000000000000000000000000000000000000000000000000602082015250565b5f6115ac6025836112ae565b91506115b782611552565b604082019050919050565b5f6020820190508181035f8301526115d9816115a0565b9050919050565b7f4e487b71000000000000000000000000000000000000000000000000000000005f52602260045260245ffd5b5f600282049050600182168061162457607f821691505b602082108103611637576116366115e0565b5b50919050565b7f4e487b71000000000000000000000000000000000000000000000000000000005f52603260045260245ffd5b5f61167482611304565b915061167f83611304565b925082820261168d81611304565b915082820484148315176116a4576116a361148a565b5b5092915050565b5f819050815f5260205f209050919050565b5f6020601f8301049050919050565b5f82821b905092915050565b5f600883026117077fffffffffffffffffffffffffffffffffffffffffffffffffffffffffffffffff826116cc565b61171186836116cc565b95508019841693508086168417925050509392505050565b5f819050919050565b5f61174c61174761174284611304565b611729565b611304565b9050919050565b5f819050919050565b61176583611732565b61177961177182611753565b8484546116d8565b825550505050565b5f90565b61178d611781565b61179881848461175c565b505050565b5b818110156117bb576117b05f82611785565b60018101905061179e565b5050565b601f821115611800576117d1816116ab565b6117da846116bd565b810160208510156117e9578190505b6117fd6117f5856116bd565b83018261179d565b50505b505050565b5f82821c905092915050565b5f6118205f1984600802611805565b1980831691505092915050565b5f6118388383611811565b9150826002028217905092915050565b611851826112a4565b67ffffffffffffffff81111561186a57611869611139565b5b611874825461160d565b61187f8282856117bf565b5f60209050601f8311600181146118b0575f841561189e578287015190505b6118a8858261182d565b86555061190f565b601f1984166118be866116ab565b5f5b828110156118e5578489015182556001820191506020850194506020810190506118c0565b8683101561190257848901516118fe601f891682611811565b8355505b6001600288020188555050505b505050505050565b5f61192182611304565b91505f82036119335761193261148a565b5b600182039050919050565b7f47616d65206f7665722e204e6f20617474656d707473206c6566742e000000005f82015250565b5f611972601c836112ae565b915061197d8261193e565b602082019050919050565b5f6020820190508181035f83015261199f81611966565b9050919050565b5f81546119b28161160d565b6119bc81866112ae565b9450600182165f81146119d657600181146119ec57611a1e565b60ff198316865281151560200286019350611a1e565b6119f5856116ab565b5f5b83811015611a16578154818901526001820191506020810190506119f7565b808801955050505b50505092915050565b5f6080820190508181035f830152611a3f81876119a6565b9050611a4e602083018661130d565b8181036040830152611a6081856112cc565b90508181036060830152611a7481846112cc565b905095945050505050565b7f4e6f206163746976652067616d652e00000000000000000000000000000000005f82015250565b5f611ab3600f836112ae565b9150611abe82611a7f565b602082019050919050565b5f6020820190508181035f830152611ae081611aa7565b9050919050565b5f611af182611304565b9150611afc83611304565b9250828203905081811115611b1457611b1361148a565b5b92915050565b5f81905092915050565b7f596f7520686176652000000000000000000000000000000000000000000000005f82015250565b5f611b58600983611b1a565b9150611b6382611b24565b600982019050919050565b5f611b78826112a4565b611b828185611b1a565b9350611b928185602086016112be565b80840191505092915050565b7f207365636f6e6473206c656674000000000000000000000000000000000000005f82015250565b5f611bd2600d83611b1a565b9150611bdd82611b9e565b600d82019050919050565b5f611bf282611b4c565b9150611bfe8284611b6e565b9150611c0982611bc6565b915081905092915050565b7f47616d6520616c726561647920696e2070726f67726573732e20456e642069745f8201527f2066697273742e00000000000000000000000000000000000000000000000000602082015250565b5f611c6e6027836112ae565b9150611c7982611c14565b604082019050919050565b5f6020820190508181035f830152611c9b81611c62565b9050919050565b5f604082019050611cb55f83018561130d565b611cc2602083018461130d565b9392505050565b5f819050919050565b611ce3611cde82611304565b611cc9565b82525050565b5f73ffffffffffffffffffffffffffffffffffffffff82169050919050565b5f611d1282611ce9565b9050919050565b5f8160601b9050919050565b5f611d2f82611d19565b9050919050565b5f611d4082611d25565b9050919050565b611d58611d5382611d08565b611d36565b82525050565b5f611d698285611cd2565b602082019150611d798284611d47565b6014820191508190509392505050565b7f4e487b71000000000000000000000000000000000000000000000000000000005f52601260045260245ffd5b5f611dc082611304565b9150611dcb83611304565b925082611ddb57611dda611d89565b5b828206905092915050565b5f81549050611df48161160d565b9050919050565b5f819050815f5260205f209050919050565b818103611e1b575050611ef0565b611e2482611de6565b67ffffffffffffffff811115611e3d57611e3c611139565b5b611e47825461160d565b611e528282856117bf565b5f601f831160018114611e7f575f8415611e6d578287015490505b611e77858261182d565b865550611ee9565b601f198416611e8d87611dfb565b9650611e98866116ab565b5f5b82811015611ebf57848901548255600182019150600185019450602081019050611e9a565b86831015611edc5784890154611ed8601f891682611811565b8355505b6001600288020188555050505b5050505050505b565b7f4e6f206163746976652067616d6520746f20656e642e000000000000000000005f82015250565b5f611f266016836112ae565b9150611f3182611ef2565b602082019050919050565b5f6020820190508181035f830152611f5381611f1a565b9050919050565b7f47616d65206f7665722e20596f7520717569742e0000000000000000000000005f82015250565b5f611f8e6014836112ae565b9150611f9982611f5a565b602082019050919050565b5f6020820190508181035f830152611fbb81611f82565b9050919050565b5f81519050919050565b5f81905092915050565b5f611fe082611fc2565b611fea8185611fcc565b9350611ffa8185602086016112be565b80840191505092915050565b5f7fff0000000000000000000000000000000000000000000000000000000000000082169050919050565b5f819050919050565b61204b61204682612006565b612031565b82525050565b7f20000000000000000000000000000000000000000000000000000000000000005f82015250565b5f612085600183611b1a565b915061209082612051565b600182019050919050565b5f6120a68285611fd6565b91506120b2828461203a565b6001820191506120c182612079565b91508190509392505050565b5f60ff82169050919050565b5f6120e3826120cd565b915060ff82036120f6576120f561148a565b5b600182019050919050565b7f57726f6e6720677565737365733a2000000000000000000000000000000000005f82015250565b5f612135600f83611b1a565b915061214082612101565b600f82019050919050565b5f61215582612129565b91506121618284611b6e565b915081905092915050565b7f48616e676d616e3a2000000000000000000000000000000000000000000000005f82015250565b5f6121a0600983611b1a565b91506121ab8261216c565b600982019050919050565b5f81546121c28161160d565b6121cc8186611b1a565b9450600182165f81146121e657600181146121fb5761222d565b60ff198316865281151582028601935061222d565b612204856116ab565b5f5b8381101561222557815481890152600182019150602081019050612206565b838801955050505b50505092915050565b5f61224082612194565b915061224c82846121b6565b915081905092915050565b5f612261826120cd565b915061226c836120cd565b9250828201905060ff8111156122855761228461148a565b5b92915050565b5f61229582611304565b91507fffffffffffffffffffffffffffffffffffffffffffffffffffffffffffffffff82036122c7576122c661148a565b5b600182019050919050565b5f6122dc82611304565b91506122e783611304565b9250826122f7576122f6611d89565b5b82820490509291505056fea26469706673582212204d2499e487682eb07cc64691d572493a67b1d1a2fd5d437ee3fac6800a0f277464736f6c634300081a0033",
					"opcodes": "PUSH1 0x80 PUSH1 0x40 MSTORE PUSH1 0x40 MLOAD DUP1 PUSH2 0x640 ADD PUSH1 0x40 MSTORE DUP1 PUSH1 0x40 MLOAD DUP1 PUSH1 0x40 ADD PUSH1 0x40 MSTORE DUP1 PUSH1 0x9 DUP2 MSTORE PUSH1 0x20 ADD PUSH32 0x6170706C65207069650000000000000000000000000000000000000000000000 DUP2 MSTORE POP DUP2 MSTORE PUSH1 0x20 ADD PUSH1 0x40 MLOAD DUP1 PUSH1 0x40 ADD PUSH1 0x40 MSTORE DUP1 PUSH1 0x9 DUP2 MSTORE PUSH1 0x20 ADD PUSH32 0x6861707079206361740000000000000000000000000000000000000000000000 DUP2 MSTORE POP DUP2 MSTORE PUSH1 0x20 ADD PUSH1 0x40 MLOAD DUP1 PUSH1 0x40 ADD PUSH1 0x40 MSTORE DUP1 PUSH1 0x8 DUP2 MSTORE PUSH1 0x20 ADD PUSH32 0x6269672062656172000000000000000000000000000000000000000000000000 DUP2 MSTORE POP DUP2 MSTORE PUSH1 0x20 ADD PUSH1 0x40 MLOAD DUP1 PUSH1 0x40 ADD PUSH1 0x40 MSTORE DUP1 PUSH1 0xB DUP2 MSTORE PUSH1 0x20 ADD PUSH32 0x7261696E626F7720736B79000000000000000000000000000000000000000000 DUP2 MSTORE POP DUP2 MSTORE PUSH1 0x20 ADD PUSH1 0x40 MLOAD DUP1 PUSH1 0x40 ADD PUSH1 0x40 MSTORE DUP1 PUSH1 0x9 DUP2 MSTORE PUSH1 0x20 ADD PUSH32 0x6D61676963206861740000000000000000000000000000000000000000000000 DUP2 MSTORE POP DUP2 MSTORE PUSH1 0x20 ADD PUSH1 0x40 MLOAD DUP1 PUSH1 0x40 ADD PUSH1 0x40 MSTORE DUP1 PUSH1 0x9 DUP2 MSTORE PUSH1 0x20 ADD PUSH32 0x73756E6E79206461790000000000000000000000000000000000000000000000 DUP2 MSTORE POP DUP2 MSTORE PUSH1 0x20 ADD PUSH1 0x40 MLOAD DUP1 PUSH1 0x40 ADD PUSH1 0x40 MSTORE DUP1 PUSH1 0xA DUP2 MSTORE PUSH1 0x20 ADD PUSH32 0x74696E7920686F75736500000000000000000000000000000000000000000000 DUP2 MSTORE POP DUP2 MSTORE PUSH1 0x20 ADD PUSH1 0x40 MLOAD DUP1 PUSH1 0x40 ADD PUSH1 0x40 MSTORE DUP1 PUSH1 0x9 DUP2 MSTORE PUSH1 0x20 ADD PUSH32 0x6C656D6F6E207465610000000000000000000000000000000000000000000000 DUP2 MSTORE POP DUP2 MSTORE PUSH1 0x20 ADD PUSH1 0x40 MLOAD DUP1 PUSH1 0x40 ADD PUSH1 0x40 MSTORE DUP1 PUSH1 0xA DUP2 MSTORE PUSH1 0x20 ADD PUSH32 0x7075707079206C6F766500000000000000000000000000000000000000000000 DUP2 MSTORE POP DUP2 MSTORE PUSH1 0x20 ADD PUSH1 0x40 MLOAD DUP1 PUSH1 0x40 ADD PUSH1 0x40 MSTORE DUP1 PUSH1 0x9 DUP2 MSTORE PUSH1 0x20 ADD PUSH32 0x77696C6420776573740000000000000000000000000000000000000000000000 DUP2 MSTORE POP DUP2 MSTORE PUSH1 0x20 ADD PUSH1 0x40 MLOAD DUP1 PUSH1 0x40 ADD PUSH1 0x40 MSTORE DUP1 PUSH1 0xB DUP2 MSTORE PUSH1 0x20 ADD PUSH32 0x6F72616E6765206D6F6F6E000000000000000000000000000000000000000000 DUP2 MSTORE POP DUP2 MSTORE PUSH1 0x20 ADD PUSH1 0x40 MLOAD DUP1 PUSH1 0x40 ADD PUSH1 0x40 MSTORE DUP1 PUSH1 0xB DUP2 MSTORE PUSH1 0x20 ADD PUSH32 0x73696C7665722073746172000000000000000000000000000000000000000000 DUP2 MSTORE POP DUP2 MSTORE PUSH1 0x20 ADD PUSH1 0x40 MLOAD DUP1 PUSH1 0x40 ADD PUSH1 0x40 MSTORE DUP1 PUSH1 0xC DUP2 MSTORE PUSH1 0x20 ADD PUSH32 0x6C61756768696E67206F776C0000000000000000000000000000000000000000 DUP2 MSTORE POP DUP2 MSTORE PUSH1 0x20 ADD PUSH1 0x40 MLOAD DUP1 PUSH1 0x40 ADD PUSH1 0x40 MSTORE DUP1 PUSH1 0xB DUP2 MSTORE PUSH1 0x20 ADD PUSH32 0x666F726573742070617468000000000000000000000000000000000000000000 DUP2 MSTORE POP DUP2 MSTORE PUSH1 0x20 ADD PUSH1 0x40 MLOAD DUP1 PUSH1 0x40 ADD PUSH1 0x40 MSTORE DUP1 PUSH1 0xB DUP2 MSTORE PUSH1 0x20 ADD PUSH32 0x666C79696E672066697368000000000000000000000000000000000000000000 DUP2 MSTORE POP DUP2 MSTORE PUSH1 0x20 ADD PUSH1 0x40 MLOAD DUP1 PUSH1 0x40 ADD PUSH1 0x40 MSTORE DUP1 PUSH1 0xC DUP2 MSTORE PUSH1 0x20 ADD PUSH32 0x636F74746F6E20636C6F75640000000000000000000000000000000000000000 DUP2 MSTORE POP DUP2 MSTORE PUSH1 0x20 ADD PUSH1 0x40 MLOAD DUP1 PUSH1 0x40 ADD PUSH1 0x40 MSTORE DUP1 PUSH1 0xB DUP2 MSTORE PUSH1 0x20 ADD PUSH32 0x6368657272792074726565000000000000000000000000000000000000000000 DUP2 MSTORE POP DUP2 MSTORE PUSH1 0x20 ADD PUSH1 0x40 MLOAD DUP1 PUSH1 0x40 ADD PUSH1 0x40 MSTORE DUP1 PUSH1 0xA DUP2 MSTORE PUSH1 0x20 ADD PUSH32 0x736563726574206B657900000000000000000000000000000000000000000000 DUP2 MSTORE POP DUP2 MSTORE PUSH1 0x20 ADD PUSH1 0x40 MLOAD DUP1 PUSH1 0x40 ADD PUSH1 0x40 MSTORE DUP1 PUSH1 0xC DUP2 MSTORE PUSH1 0x20 ADD PUSH32 0x6272617665206B6E696768740000000000000000000000000000000000000000 DUP2 MSTORE POP DUP2 MSTORE PUSH1 0x20 ADD PUSH1 0x40 MLOAD DUP1 PUSH1 0x40 ADD PUSH1 0x40 MSTORE DUP1 PUSH1 0xA DUP2 MSTORE PUSH1 0x20 ADD PUSH32 0x626C7565206F6365616E00000000000000000000000000000000000000000000 DUP2 MSTORE POP DUP2 MSTORE PUSH1 0x20 ADD PUSH1 0x40 MLOAD DUP1 PUSH1 0x40 ADD PUSH1 0x40 MSTORE DUP1 PUSH1 0xF DUP2 MSTORE PUSH1 0x20 ADD PUSH32 0x7477696E6B6C696E67206C696768740000000000000000000000000000000000 DUP2 MSTORE POP DUP2 MSTORE PUSH1 0x20 ADD PUSH1 0x40 MLOAD DUP1 PUSH1 0x40 ADD PUSH1 0x40 MSTORE DUP1 PUSH1 0xB DUP2 MSTORE PUSH1 0x20 ADD PUSH32 0x736E6F7779206E69676874000000000000000000000000000000000000000000 DUP2 MSTORE POP DUP2 MSTORE PUSH1 0x20 ADD PUSH1 0x40 MLOAD DUP1 PUSH1 0x40 ADD PUSH1 0x40 MSTORE DUP1 PUSH1 0xC DUP2 MSTORE PUSH1 0x20 ADD PUSH32 0x6769616E7420747572746C650000000000000000000000000000000000000000 DUP2 MSTORE POP DUP2 MSTORE PUSH1 0x20 ADD PUSH1 0x40 MLOAD DUP1 PUSH1 0x40 ADD PUSH1 0x40 MSTORE DUP1 PUSH1 0xA DUP2 MSTORE PUSH1 0x20 ADD PUSH32 0x66616972792074616C6500000000000000000000000000000000000000000000 DUP2 MSTORE POP DUP2 MSTORE PUSH1 0x20 ADD PUSH1 0x40 MLOAD DUP1 PUSH1 0x40 ADD PUSH1 0x40 MSTORE DUP1 PUSH1 0xF DUP2 MSTORE PUSH1 0x20 ADD PUSH32 0x68696464656E2074726561737572650000000000000000000000000000000000 DUP2 MSTORE POP DUP2 MSTORE PUSH1 0x20 ADD PUSH1 0x40 MLOAD DUP1 PUSH1 0x40 ADD PUSH1 0x40 MSTORE DUP1 PUSH1 0xC DUP2 MSTORE PUSH1 0x20 ADD PUSH32 0x73696C656E742072697665720000000000000000000000000000000000000000 DUP2 MSTORE POP DUP2 MSTORE PUSH1 0x20 ADD PUSH1 0x40 MLOAD DUP1 PUSH1 0x40 ADD PUSH1 0x40 MSTORE DUP1 PUSH1 0xC DUP2 MSTORE PUSH1 0x20 ADD PUSH32 0x637564646C792062756E6E790000000000000000000000000000000000000000 DUP2 MSTORE POP DUP2 MSTORE PUSH1 0x20 ADD PUSH1 0x40 MLOAD DUP1 PUSH1 0x40 ADD PUSH1 0x40 MSTORE DUP1 PUSH1 0xF DUP2 MSTORE PUSH1 0x20 ADD PUSH32 0x64616E63696E6720646F6C7068696E0000000000000000000000000000000000 DUP2 MSTORE POP DUP2 MSTORE PUSH1 0x20 ADD PUSH1 0x40 MLOAD DUP1 PUSH1 0x40 ADD PUSH1 0x40 MSTORE DUP1 PUSH1 0xB DUP2 MSTORE PUSH1 0x20 ADD PUSH32 0x66726F7A656E206C616B65000000000000000000000000000000000000000000 DUP2 MSTORE POP DUP2 MSTORE PUSH1 0x20 ADD PUSH1 0x40 MLOAD DUP1 PUSH1 0x40 ADD PUSH1 0x40 MSTORE DUP1 PUSH1 0xE DUP2 MSTORE PUSH1 0x20 ADD PUSH32 0x63686F636F6C6174652063616B65000000000000000000000000000000000000 DUP2 MSTORE POP DUP2 MSTORE PUSH1 0x20 ADD PUSH1 0x40 MLOAD DUP1 PUSH1 0x40 ADD PUSH1 0x40 MSTORE DUP1 PUSH1 0xE DUP2 MSTORE PUSH1 0x20 ADD PUSH32 0x667269656E646C792067686F7374000000000000000000000000000000000000 DUP2 MSTORE POP DUP2 MSTORE PUSH1 0x20 ADD PUSH1 0x40 MLOAD DUP1 PUSH1 0x40 ADD PUSH1 0x40 MSTORE DUP1 PUSH1 0xB DUP2 MSTORE PUSH1 0x20 ADD PUSH32 0x676F6C64656E2072696E67000000000000000000000000000000000000000000 DUP2 MSTORE POP DUP2 MSTORE PUSH1 0x20 ADD PUSH1 0x40 MLOAD DUP1 PUSH1 0x40 ADD PUSH1 0x40 MSTORE DUP1 PUSH1 0xF DUP2 MSTORE PUSH1 0x20 ADD PUSH32 0x706561636566756C2067617264656E0000000000000000000000000000000000 DUP2 MSTORE POP DUP2 MSTORE PUSH1 0x20 ADD PUSH1 0x40 MLOAD DUP1 PUSH1 0x40 ADD PUSH1 0x40 MSTORE DUP1 PUSH1 0xF DUP2 MSTORE PUSH1 0x20 ADD PUSH32 0x77686973706572696E672077696E640000000000000000000000000000000000 DUP2 MSTORE POP DUP2 MSTORE PUSH1 0x20 ADD PUSH1 0x40 MLOAD DUP1 PUSH1 0x40 ADD PUSH1 0x40 MSTORE DUP1 PUSH1 0xB DUP2 MSTORE PUSH1 0x20 ADD PUSH32 0x7368696E792070656E6E79000000000000000000000000000000000000000000 DUP2 MSTORE POP DUP2 MSTORE PUSH1 0x20 ADD PUSH1 0x40 MLOAD DUP1 PUSH1 0x40 ADD PUSH1 0x40 MSTORE DUP1 PUSH1 0xD DUP2 MSTORE PUSH1 0x20 ADD PUSH32 0x6D6F756E7461696E207065616B00000000000000000000000000000000000000 DUP2 MSTORE POP DUP2 MSTORE PUSH1 0x20 ADD PUSH1 0x40 MLOAD DUP1 PUSH1 0x40 ADD PUSH1 0x40 MSTORE DUP1 PUSH1 0xB DUP2 MSTORE PUSH1 0x20 ADD PUSH32 0x63616C6D20776174657273000000000000000000000000000000000000000000 DUP2 MSTORE POP DUP2 MSTORE PUSH1 0x20 ADD PUSH1 0x40 MLOAD DUP1 PUSH1 0x40 ADD PUSH1 0x40 MSTORE DUP1 PUSH1 0xA DUP2 MSTORE PUSH1 0x20 ADD PUSH32 0x6272696768742073756E00000000000000000000000000000000000000000000 DUP2 MSTORE POP DUP2 MSTORE PUSH1 0x20 ADD PUSH1 0x40 MLOAD DUP1 PUSH1 0x40 ADD PUSH1 0x40 MSTORE DUP1 PUSH1 0xA DUP2 MSTORE PUSH1 0x20 ADD PUSH32 0x736C6565707920666F7800000000000000000000000000000000000000000000 DUP2 MSTORE POP DUP2 MSTORE PUSH1 0x20 ADD PUSH1 0x40 MLOAD DUP1 PUSH1 0x40 ADD PUSH1 0x40 MSTORE DUP1 PUSH1 0xA DUP2 MSTORE PUSH1 0x20 ADD PUSH32 0x73746172727920736B7900000000000000000000000000000000000000000000 DUP2 MSTORE POP DUP2 MSTORE PUSH1 0x20 ADD PUSH1 0x40 MLOAD DUP1 PUSH1 0x40 ADD PUSH1 0x40 MSTORE DUP1 PUSH1 0xB DUP2 MSTORE PUSH1 0x20 ADD PUSH32 0x74696E7920666C6F776572000000000000000000000000000000000000000000 DUP2 MSTORE POP DUP2 MSTORE PUSH1 0x20 ADD PUSH1 0x40 MLOAD DUP1 PUSH1 0x40 ADD PUSH1 0x40 MSTORE DUP1 PUSH1 0xD DUP2 MSTORE PUSH1 0x20 ADD PUSH32 0x67656E746C6520627265657A6500000000000000000000000000000000000000 DUP2 MSTORE POP DUP2 MSTORE PUSH1 0x20 ADD PUSH1 0x40 MLOAD DUP1 PUSH1 0x40 ADD PUSH1 0x40 MSTORE DUP1 PUSH1 0xC DUP2 MSTORE PUSH1 0x20 ADD PUSH32 0x7261696E626F7720666973680000000000000000000000000000000000000000 DUP2 MSTORE POP DUP2 MSTORE PUSH1 0x20 ADD PUSH1 0x40 MLOAD DUP1 PUSH1 0x40 ADD PUSH1 0x40 MSTORE DUP1 PUSH1 0xC DUP2 MSTORE PUSH1 0x20 ADD PUSH32 0x73696E67696E6720626972640000000000000000000000000000000000000000 DUP2 MSTORE POP DUP2 MSTORE PUSH1 0x20 ADD PUSH1 0x40 MLOAD DUP1 PUSH1 0x40 ADD PUSH1 0x40 MSTORE DUP1 PUSH1 0xA DUP2 MSTORE PUSH1 0x20 ADD PUSH32 0x626F6C6420746967657200000000000000000000000000000000000000000000 DUP2 MSTORE POP DUP2 MSTORE PUSH1 0x20 ADD PUSH1 0x40 MLOAD DUP1 PUSH1 0x40 ADD PUSH1 0x40 MSTORE DUP1 PUSH1 0xE DUP2 MSTORE PUSH1 0x20 ADD PUSH32 0x7370696E6E696E6720776865656C000000000000000000000000000000000000 DUP2 MSTORE POP DUP2 MSTORE PUSH1 0x20 ADD PUSH1 0x40 MLOAD DUP1 PUSH1 0x40 ADD PUSH1 0x40 MSTORE DUP1 PUSH1 0xD DUP2 MSTORE PUSH1 0x20 ADD PUSH32 0x736861646F772070757070657400000000000000000000000000000000000000 DUP2 MSTORE POP DUP2 MSTORE PUSH1 0x20 ADD PUSH1 0x40 MLOAD DUP1 PUSH1 0x40 ADD PUSH1 0x40 MSTORE DUP1 PUSH1 0xC DUP2 MSTORE PUSH1 0x20 ADD PUSH32 0x677265656E2076616C6C65790000000000000000000000000000000000000000 DUP2 MSTORE POP DUP2 MSTORE PUSH1 0x20 ADD PUSH1 0x40 MLOAD DUP1 PUSH1 0x40 ADD PUSH1 0x40 MSTORE DUP1 PUSH1 0x14 DUP2 MSTORE PUSH1 0x20 ADD PUSH32 0x666C7574746572696E6720627574746572666C79000000000000000000000000 DUP2 MSTORE POP DUP2 MSTORE PUSH1 0x20 ADD PUSH1 0x40 MLOAD DUP1 PUSH1 0x40 ADD PUSH1 0x40 MSTORE DUP1 PUSH1 0xB DUP2 MSTORE PUSH1 0x20 ADD PUSH32 0x7365637265742063617665000000000000000000000000000000000000000000 DUP2 MSTORE POP DUP2 MSTORE POP PUSH0 SWAP1 PUSH1 0x32 PUSH2 0xBA3 SWAP3 SWAP2 SWAP1 PUSH2 0xDA8 JUMP JUMPDEST POP PUSH1 0x40 MLOAD DUP1 PUSH2 0x100 ADD PUSH1 0x40 MSTORE DUP1 PUSH1 0x40 MLOAD DUP1 PUSH1 0x40 ADD PUSH1 0x40 MSTORE DUP1 PUSH1 0x3 DUP2 MSTORE PUSH1 0x20 ADD PUSH32 0x207C2D0000000000000000000000000000000000000000000000000000000000 DUP2 MSTORE POP DUP2 MSTORE PUSH1 0x20 ADD PUSH1 0x40 MLOAD DUP1 PUSH1 0x40 ADD PUSH1 0x40 MSTORE DUP1 PUSH1 0x4 DUP2 MSTORE PUSH1 0x20 ADD PUSH32 0x207C2D6F00000000000000000000000000000000000000000000000000000000 DUP2 MSTORE POP DUP2 MSTORE PUSH1 0x20 ADD PUSH1 0x40 MLOAD DUP1 PUSH1 0x40 ADD PUSH1 0x40 MSTORE DUP1 PUSH1 0x5 DUP2 MSTORE PUSH1 0x20 ADD PUSH32 0x207C2D6F2D000000000000000000000000000000000000000000000000000000 DUP2 MSTORE POP DUP2 MSTORE PUSH1 0x20 ADD PUSH1 0x40 MLOAD DUP1 PUSH1 0x40 ADD PUSH1 0x40 MSTORE DUP1 PUSH1 0x6 DUP2 MSTORE PUSH1 0x20 ADD PUSH32 0x207C2D6F2D2D0000000000000000000000000000000000000000000000000000 DUP2 MSTORE POP DUP2 MSTORE PUSH1 0x20 ADD PUSH1 0x40 MLOAD DUP1 PUSH1 0x40 ADD PUSH1 0x40 MSTORE DUP1 PUSH1 0x5 DUP2 MSTORE PUSH1 0x20 ADD PUSH32 0x207C2D6F3C000000000000000000000000000000000000000000000000000000 DUP2 MSTORE POP DUP2 MSTORE PUSH1 0x20 ADD PUSH1 0x40 MLOAD DUP1 PUSH1 0x40 ADD PUSH1 0x40 MSTORE DUP1 PUSH1 0x7 DUP2 MSTORE PUSH1 0x20 ADD PUSH32 0x207C2D6F3C2D2D00000000000000000000000000000000000000000000000000 DUP2 MSTORE POP DUP2 MSTORE PUSH1 0x20 ADD PUSH1 0x40 MLOAD DUP1 PUSH1 0x40 ADD PUSH1 0x40 MSTORE DUP1 PUSH1 0x7 DUP2 MSTORE PUSH1 0x20 ADD PUSH32 0x207C2D6F3C2D3C00000000000000000000000000000000000000000000000000 DUP2 MSTORE POP DUP2 MSTORE PUSH1 0x20 ADD PUSH1 0x40 MLOAD DUP1 PUSH1 0x40 ADD PUSH1 0x40 MSTORE DUP1 PUSH1 0x8 DUP2 MSTORE PUSH1 0x20 ADD PUSH32 0x207C2D6F3C2D2D3C000000000000000000000000000000000000000000000000 DUP2 MSTORE POP DUP2 MSTORE POP PUSH1 0x38 SWAP1 PUSH1 0x8 PUSH2 0xD96 SWAP3 SWAP2 SWAP1 PUSH2 0xDF4 JUMP JUMPDEST POP CALLVALUE DUP1 ISZERO PUSH2 0xDA2 JUMPI PUSH0 DUP1 REVERT JUMPDEST POP PUSH2 0x11C4 JUMP JUMPDEST DUP3 PUSH1 0x32 DUP2 ADD SWAP3 DUP3 ISZERO PUSH2 0xDE3 JUMPI SWAP2 PUSH1 0x20 MUL DUP3 ADD JUMPDEST DUP3 DUP2 GT ISZERO PUSH2 0xDE2 JUMPI DUP3 MLOAD DUP3 SWAP1 DUP2 PUSH2 0xDD2 SWAP2 SWAP1 PUSH2 0x10F5 JUMP JUMPDEST POP SWAP2 PUSH1 0x20 ADD SWAP2 SWAP1 PUSH1 0x1 ADD SWAP1 PUSH2 0xDBB JUMP JUMPDEST JUMPDEST POP SWAP1 POP PUSH2 0xDF0 SWAP2 SWAP1 PUSH2 0xE40 JUMP JUMPDEST POP SWAP1 JUMP JUMPDEST DUP3 PUSH1 0x8 DUP2 ADD SWAP3 DUP3 ISZERO PUSH2 0xE2F JUMPI SWAP2 PUSH1 0x20 MUL DUP3 ADD JUMPDEST DUP3 DUP2 GT ISZERO PUSH2 0xE2E JUMPI DUP3 MLOAD DUP3 SWAP1 DUP2 PUSH2 0xE1E SWAP2 SWAP1 PUSH2 0x10F5 JUMP JUMPDEST POP SWAP2 PUSH1 0x20 ADD SWAP2 SWAP1 PUSH1 0x1 ADD SWAP1 PUSH2 0xE07 JUMP JUMPDEST JUMPDEST POP SWAP1 POP PUSH2 0xE3C SWAP2 SWAP1 PUSH2 0xE40 JUMP JUMPDEST POP SWAP1 JUMP JUMPDEST JUMPDEST DUP1 DUP3 GT ISZERO PUSH2 0xE5F JUMPI PUSH0 DUP2 DUP2 PUSH2 0xE56 SWAP2 SWAP1 PUSH2 0xE63 JUMP JUMPDEST POP PUSH1 0x1 ADD PUSH2 0xE41 JUMP JUMPDEST POP SWAP1 JUMP JUMPDEST POP DUP1 SLOAD PUSH2 0xE6F SWAP1 PUSH2 0xF1F JUMP JUMPDEST PUSH0 DUP3 SSTORE DUP1 PUSH1 0x1F LT PUSH2 0xE80 JUMPI POP PUSH2 0xE9D JUMP JUMPDEST PUSH1 0x1F ADD PUSH1 0x20 SWAP1 DIV SWAP1 PUSH0 MSTORE PUSH1 0x20 PUSH0 KECCAK256 SWAP1 DUP2 ADD SWAP1 PUSH2 0xE9C SWAP2 SWAP1 PUSH2 0xEA0 JUMP JUMPDEST JUMPDEST POP JUMP JUMPDEST JUMPDEST DUP1 DUP3 GT ISZERO PUSH2 0xEB7 JUMPI PUSH0 DUP2 PUSH0 SWAP1 SSTORE POP PUSH1 0x1 ADD PUSH2 0xEA1 JUMP JUMPDEST POP SWAP1 JUMP JUMPDEST PUSH0 DUP2 MLOAD SWAP1 POP SWAP2 SWAP1 POP JUMP JUMPDEST PUSH32 0x4E487B7100000000000000000000000000000000000000000000000000000000 PUSH0 MSTORE PUSH1 0x41 PUSH1 0x4 MSTORE PUSH1 0x24 PUSH0 REVERT JUMPDEST PUSH32 0x4E487B7100000000000000000000000000000000000000000000000000000000 PUSH0 MSTORE PUSH1 0x22 PUSH1 0x4 MSTORE PUSH1 0x24 PUSH0 REVERT JUMPDEST PUSH0 PUSH1 0x2 DUP3 DIV SWAP1 POP PUSH1 0x1 DUP3 AND DUP1 PUSH2 0xF36 JUMPI PUSH1 0x7F DUP3 AND SWAP2 POP JUMPDEST PUSH1 0x20 DUP3 LT DUP2 SUB PUSH2 0xF49 JUMPI PUSH2 0xF48 PUSH2 0xEF2 JUMP JUMPDEST JUMPDEST POP SWAP2 SWAP1 POP JUMP JUMPDEST PUSH0 DUP2 SWAP1 POP DUP2 PUSH0 MSTORE PUSH1 0x20 PUSH0 KECCAK256 SWAP1 POP SWAP2 SWAP1 POP JUMP JUMPDEST PUSH0 PUSH1 0x20 PUSH1 0x1F DUP4 ADD DIV SWAP1 POP SWAP2 SWAP1 POP JUMP JUMPDEST PUSH0 DUP3 DUP3 SHL SWAP1 POP SWAP3 SWAP2 POP POP JUMP JUMPDEST PUSH0 PUSH1 0x8 DUP4 MUL PUSH2 0xFAB PUSH32 0xFFFFFFFFFFFFFFFFFFFFFFFFFFFFFFFFFFFFFFFFFFFFFFFFFFFFFFFFFFFFFFFF DUP3 PUSH2 0xF70 JUMP JUMPDEST PUSH2 0xFB5 DUP7 DUP4 PUSH2 0xF70 JUMP JUMPDEST SWAP6 POP DUP1 NOT DUP5 AND SWAP4 POP DUP1 DUP7 AND DUP5 OR SWAP3 POP POP POP SWAP4 SWAP3 POP POP POP JUMP JUMPDEST PUSH0 DUP2 SWAP1 POP SWAP2 SWAP1 POP JUMP JUMPDEST PUSH0 DUP2 SWAP1 POP SWAP2 SWAP1 POP JUMP JUMPDEST PUSH0 PUSH2 0xFF9 PUSH2 0xFF4 PUSH2 0xFEF DUP5 PUSH2 0xFCD JUMP JUMPDEST PUSH2 0xFD6 JUMP JUMPDEST PUSH2 0xFCD JUMP JUMPDEST SWAP1 POP SWAP2 SWAP1 POP JUMP JUMPDEST PUSH0 DUP2 SWAP1 POP SWAP2 SWAP1 POP JUMP JUMPDEST PUSH2 0x1012 DUP4 PUSH2 0xFDF JUMP JUMPDEST PUSH2 0x1026 PUSH2 0x101E DUP3 PUSH2 0x1000 JUMP JUMPDEST DUP5 DUP5 SLOAD PUSH2 0xF7C JUMP JUMPDEST DUP3 SSTORE POP POP POP POP JUMP JUMPDEST PUSH0 SWAP1 JUMP JUMPDEST PUSH2 0x103A PUSH2 0x102E JUMP JUMPDEST PUSH2 0x1045 DUP2 DUP5 DUP5 PUSH2 0x1009 JUMP JUMPDEST POP POP POP JUMP JUMPDEST JUMPDEST DUP2 DUP2 LT ISZERO PUSH2 0x1068 JUMPI PUSH2 0x105D PUSH0 DUP3 PUSH2 0x1032 JUMP JUMPDEST PUSH1 0x1 DUP2 ADD SWAP1 POP PUSH2 0x104B JUMP JUMPDEST POP POP JUMP JUMPDEST PUSH1 0x1F DUP3 GT ISZERO PUSH2 0x10AD JUMPI PUSH2 0x107E DUP2 PUSH2 0xF4F JUMP JUMPDEST PUSH2 0x1087 DUP5 PUSH2 0xF61 JUMP JUMPDEST DUP2 ADD PUSH1 0x20 DUP6 LT ISZERO PUSH2 0x1096 JUMPI DUP2 SWAP1 POP JUMPDEST PUSH2 0x10AA PUSH2 0x10A2 DUP6 PUSH2 0xF61 JUMP JUMPDEST DUP4 ADD DUP3 PUSH2 0x104A JUMP JUMPDEST POP POP JUMPDEST POP POP POP JUMP JUMPDEST PUSH0 DUP3 DUP3 SHR SWAP1 POP SWAP3 SWAP2 POP POP JUMP JUMPDEST PUSH0 PUSH2 0x10CD PUSH0 NOT DUP5 PUSH1 0x8 MUL PUSH2 0x10B2 JUMP JUMPDEST NOT DUP1 DUP4 AND SWAP2 POP POP SWAP3 SWAP2 POP POP JUMP JUMPDEST PUSH0 PUSH2 0x10E5 DUP4 DUP4 PUSH2 0x10BE JUMP JUMPDEST SWAP2 POP DUP3 PUSH1 0x2 MUL DUP3 OR SWAP1 POP SWAP3 SWAP2 POP POP JUMP JUMPDEST PUSH2 0x10FE DUP3 PUSH2 0xEBB JUMP JUMPDEST PUSH8 0xFFFFFFFFFFFFFFFF DUP2 GT ISZERO PUSH2 0x1117 JUMPI PUSH2 0x1116 PUSH2 0xEC5 JUMP JUMPDEST JUMPDEST PUSH2 0x1121 DUP3 SLOAD PUSH2 0xF1F JUMP JUMPDEST PUSH2 0x112C DUP3 DUP3 DUP6 PUSH2 0x106C JUMP JUMPDEST PUSH0 PUSH1 0x20 SWAP1 POP PUSH1 0x1F DUP4 GT PUSH1 0x1 DUP2 EQ PUSH2 0x115D JUMPI PUSH0 DUP5 ISZERO PUSH2 0x114B JUMPI DUP3 DUP8 ADD MLOAD SWAP1 POP JUMPDEST PUSH2 0x1155 DUP6 DUP3 PUSH2 0x10DA JUMP JUMPDEST DUP7 SSTORE POP PUSH2 0x11BC JUMP JUMPDEST PUSH1 0x1F NOT DUP5 AND PUSH2 0x116B DUP7 PUSH2 0xF4F JUMP JUMPDEST PUSH0 JUMPDEST DUP3 DUP2 LT ISZERO PUSH2 0x1192 JUMPI DUP5 DUP10 ADD MLOAD DUP3 SSTORE PUSH1 0x1 DUP3 ADD SWAP2 POP PUSH1 0x20 DUP6 ADD SWAP5 POP PUSH1 0x20 DUP2 ADD SWAP1 POP PUSH2 0x116D JUMP JUMPDEST DUP7 DUP4 LT ISZERO PUSH2 0x11AF JUMPI DUP5 DUP10 ADD MLOAD PUSH2 0x11AB PUSH1 0x1F DUP10 AND DUP3 PUSH2 0x10BE JUMP JUMPDEST DUP4 SSTORE POP JUMPDEST PUSH1 0x1 PUSH1 0x2 DUP9 MUL ADD DUP9 SSTORE POP POP POP JUMPDEST POP POP POP POP POP POP JUMP JUMPDEST PUSH2 0x2338 DUP1 PUSH2 0x11D1 PUSH0 CODECOPY PUSH0 RETURN INVALID PUSH1 0x80 PUSH1 0x40 MSTORE CALLVALUE DUP1 ISZERO PUSH2 0xF JUMPI PUSH0 DUP1 REVERT JUMPDEST POP PUSH1 0x4 CALLDATASIZE LT PUSH2 0x55 JUMPI PUSH0 CALLDATALOAD PUSH1 0xE0 SHR DUP1 PUSH4 0x4EEE59B3 EQ PUSH2 0x59 JUMPI DUP1 PUSH4 0xB7D0628B EQ PUSH2 0x8C JUMPI DUP1 PUSH4 0xD1B9252E EQ PUSH2 0xAD JUMPI DUP1 PUSH4 0xD65AB5F2 EQ PUSH2 0xCB JUMPI DUP1 PUSH4 0xFC2B8CC3 EQ PUSH2 0xD5 JUMPI JUMPDEST PUSH0 DUP1 REVERT JUMPDEST PUSH2 0x73 PUSH1 0x4 DUP1 CALLDATASIZE SUB DUP2 ADD SWAP1 PUSH2 0x6E SWAP2 SWAP1 PUSH2 0x125D JUMP JUMPDEST PUSH2 0xDF JUMP JUMPDEST PUSH1 0x40 MLOAD PUSH2 0x83 SWAP5 SWAP4 SWAP3 SWAP2 SWAP1 PUSH2 0x131C JUMP JUMPDEST PUSH1 0x40 MLOAD DUP1 SWAP2 SUB SWAP1 RETURN JUMPDEST PUSH2 0x94 PUSH2 0x750 JUMP JUMPDEST PUSH1 0x40 MLOAD PUSH2 0xA4 SWAP5 SWAP4 SWAP3 SWAP2 SWAP1 PUSH2 0x131C JUMP JUMPDEST PUSH1 0x40 MLOAD DUP1 SWAP2 SUB SWAP1 RETURN JUMPDEST PUSH2 0xB5 PUSH2 0x851 JUMP JUMPDEST PUSH1 0x40 MLOAD PUSH2 0xC2 SWAP2 SWAP1 PUSH2 0x1374 JUMP JUMPDEST PUSH1 0x40 MLOAD DUP1 SWAP2 SUB SWAP1 RETURN JUMPDEST PUSH2 0xD3 PUSH2 0x908 JUMP JUMPDEST STOP JUMPDEST PUSH2 0xDD PUSH2 0xD6C JUMP JUMPDEST STOP JUMPDEST PUSH1 0x60 PUSH0 PUSH1 0x60 DUP1 PUSH1 0x35 PUSH0 SWAP1 SLOAD SWAP1 PUSH2 0x100 EXP SWAP1 DIV PUSH1 0xFF AND PUSH2 0x133 JUMPI PUSH1 0x40 MLOAD PUSH32 0x8C379A000000000000000000000000000000000000000000000000000000000 DUP2 MSTORE PUSH1 0x4 ADD PUSH2 0x12A SWAP1 PUSH2 0x13DE JUMP JUMPDEST PUSH1 0x40 MLOAD DUP1 SWAP2 SUB SWAP1 REVERT JUMPDEST PUSH1 0x1 DUP6 MLOAD EQ PUSH2 0x177 JUMPI PUSH1 0x40 MLOAD PUSH32 0x8C379A000000000000000000000000000000000000000000000000000000000 DUP2 MSTORE PUSH1 0x4 ADD PUSH2 0x16E SWAP1 PUSH2 0x146C JUMP JUMPDEST PUSH1 0x40 MLOAD DUP1 SWAP2 SUB SWAP1 REVERT JUMPDEST PUSH1 0x78 PUSH1 0x36 SLOAD PUSH2 0x186 SWAP2 SWAP1 PUSH2 0x14B7 JUMP JUMPDEST TIMESTAMP GT ISZERO PUSH2 0x2BB JUMPI PUSH0 PUSH1 0x35 PUSH0 PUSH2 0x100 EXP DUP2 SLOAD DUP2 PUSH1 0xFF MUL NOT AND SWAP1 DUP4 ISZERO ISZERO MUL OR SWAP1 SSTORE POP PUSH31 0xAF1ADE955695DD7CB8833B69AD71FC489F552ACA5609812E9F4567E5E45088 PUSH1 0x40 MLOAD PUSH2 0x1D2 SWAP1 PUSH2 0x1534 JUMP JUMPDEST PUSH1 0x40 MLOAD DUP1 SWAP2 SUB SWAP1 LOG1 PUSH32 0x56E3895424A85EF26C4C78D9988DEA28D97C77C140B919289906403E8017170 PUSH1 0x40 MLOAD PUSH2 0x207 SWAP1 PUSH2 0x15C2 JUMP JUMPDEST PUSH1 0x40 MLOAD DUP1 SWAP2 SUB SWAP1 LOG1 PUSH1 0x33 PUSH1 0x34 SLOAD PUSH2 0x21C PUSH2 0xE0A JUMP JUMPDEST PUSH2 0x224 PUSH2 0xEEA JUMP JUMPDEST DUP4 DUP1 SLOAD PUSH2 0x230 SWAP1 PUSH2 0x160D JUMP JUMPDEST DUP1 PUSH1 0x1F ADD PUSH1 0x20 DUP1 SWAP2 DIV MUL PUSH1 0x20 ADD PUSH1 0x40 MLOAD SWAP1 DUP2 ADD PUSH1 0x40 MSTORE DUP1 SWAP3 SWAP2 SWAP1 DUP2 DUP2 MSTORE PUSH1 0x20 ADD DUP3 DUP1 SLOAD PUSH2 0x25C SWAP1 PUSH2 0x160D JUMP JUMPDEST DUP1 ISZERO PUSH2 0x2A7 JUMPI DUP1 PUSH1 0x1F LT PUSH2 0x27E JUMPI PUSH2 0x100 DUP1 DUP4 SLOAD DIV MUL DUP4 MSTORE SWAP2 PUSH1 0x20 ADD SWAP2 PUSH2 0x2A7 JUMP JUMPDEST DUP3 ADD SWAP2 SWAP1 PUSH0 MSTORE PUSH1 0x20 PUSH0 KECCAK256 SWAP1 JUMPDEST DUP2 SLOAD DUP2 MSTORE SWAP1 PUSH1 0x1 ADD SWAP1 PUSH1 0x20 ADD DUP1 DUP4 GT PUSH2 0x28A JUMPI DUP3 SWAP1 SUB PUSH1 0x1F AND DUP3 ADD SWAP2 JUMPDEST POP POP POP POP POP SWAP4 POP SWAP4 POP SWAP4 POP SWAP4 POP SWAP4 POP PUSH2 0x749 JUMP JUMPDEST PUSH0 PUSH2 0x2E2 DUP7 PUSH0 DUP2 MLOAD DUP2 LT PUSH2 0x2D2 JUMPI PUSH2 0x2D1 PUSH2 0x163D JUMP JUMPDEST JUMPDEST PUSH1 0x20 ADD ADD MLOAD PUSH1 0xF8 SHR PUSH1 0xF8 SHL PUSH2 0xF33 JUMP JUMPDEST SWAP1 POP PUSH0 DUP1 PUSH1 0x33 DUP1 SLOAD PUSH2 0x2F3 SWAP1 PUSH2 0x160D JUMP JUMPDEST DUP1 PUSH1 0x1F ADD PUSH1 0x20 DUP1 SWAP2 DIV MUL PUSH1 0x20 ADD PUSH1 0x40 MLOAD SWAP1 DUP2 ADD PUSH1 0x40 MSTORE DUP1 SWAP3 SWAP2 SWAP1 DUP2 DUP2 MSTORE PUSH1 0x20 ADD DUP3 DUP1 SLOAD PUSH2 0x31F SWAP1 PUSH2 0x160D JUMP JUMPDEST DUP1 ISZERO PUSH2 0x36A JUMPI DUP1 PUSH1 0x1F LT PUSH2 0x341 JUMPI PUSH2 0x100 DUP1 DUP4 SLOAD DIV MUL DUP4 MSTORE SWAP2 PUSH1 0x20 ADD SWAP2 PUSH2 0x36A JUMP JUMPDEST DUP3 ADD SWAP2 SWAP1 PUSH0 MSTORE PUSH1 0x20 PUSH0 KECCAK256 SWAP1 JUMPDEST DUP2 SLOAD DUP2 MSTORE SWAP1 PUSH1 0x1 ADD SWAP1 PUSH1 0x20 ADD DUP1 DUP4 GT PUSH2 0x34D JUMPI DUP3 SWAP1 SUB PUSH1 0x1F AND DUP3 ADD SWAP2 JUMPDEST POP POP POP POP POP SWAP1 POP PUSH0 PUSH1 0x32 DUP1 SLOAD PUSH2 0x37F SWAP1 PUSH2 0x160D JUMP JUMPDEST DUP1 PUSH1 0x1F ADD PUSH1 0x20 DUP1 SWAP2 DIV MUL PUSH1 0x20 ADD PUSH1 0x40 MLOAD SWAP1 DUP2 ADD PUSH1 0x40 MSTORE DUP1 SWAP3 SWAP2 SWAP1 DUP2 DUP2 MSTORE PUSH1 0x20 ADD DUP3 DUP1 SLOAD PUSH2 0x3AB SWAP1 PUSH2 0x160D JUMP JUMPDEST DUP1 ISZERO PUSH2 0x3F6 JUMPI DUP1 PUSH1 0x1F LT PUSH2 0x3CD JUMPI PUSH2 0x100 DUP1 DUP4 SLOAD DIV MUL DUP4 MSTORE SWAP2 PUSH1 0x20 ADD SWAP2 PUSH2 0x3F6 JUMP JUMPDEST DUP3 ADD SWAP2 SWAP1 PUSH0 MSTORE PUSH1 0x20 PUSH0 KECCAK256 SWAP1 JUMPDEST DUP2 SLOAD DUP2 MSTORE SWAP1 PUSH1 0x1 ADD SWAP1 PUSH1 0x20 ADD DUP1 DUP4 GT PUSH2 0x3D9 JUMPI DUP3 SWAP1 SUB PUSH1 0x1F AND DUP3 ADD SWAP2 JUMPDEST POP POP POP POP POP SWAP1 POP PUSH0 JUMPDEST DUP2 MLOAD DUP2 LT ISZERO PUSH2 0x4F5 JUMPI DUP5 PUSH31 0xFFFFFFFFFFFFFFFFFFFFFFFFFFFFFFFFFFFFFFFFFFFFFFFFFFFFFFFFFFFFFF NOT AND PUSH2 0x451 DUP4 DUP4 DUP2 MLOAD DUP2 LT PUSH2 0x441 JUMPI PUSH2 0x440 PUSH2 0x163D JUMP JUMPDEST JUMPDEST PUSH1 0x20 ADD ADD MLOAD PUSH1 0xF8 SHR PUSH1 0xF8 SHL PUSH2 0xF33 JUMP JUMPDEST PUSH31 0xFFFFFFFFFFFFFFFFFFFFFFFFFFFFFFFFFFFFFFFFFFFFFFFFFFFFFFFFFFFFFF NOT AND SUB PUSH2 0x4E8 JUMPI DUP2 DUP2 DUP2 MLOAD DUP2 LT PUSH2 0x48B JUMPI PUSH2 0x48A PUSH2 0x163D JUMP JUMPDEST JUMPDEST PUSH1 0x20 ADD ADD MLOAD PUSH1 0xF8 SHR PUSH1 0xF8 SHL DUP4 PUSH1 0x2 DUP4 PUSH2 0x4A4 SWAP2 SWAP1 PUSH2 0x166A JUMP JUMPDEST DUP2 MLOAD DUP2 LT PUSH2 0x4B5 JUMPI PUSH2 0x4B4 PUSH2 0x163D JUMP JUMPDEST JUMPDEST PUSH1 0x20 ADD ADD SWAP1 PUSH31 0xFFFFFFFFFFFFFFFFFFFFFFFFFFFFFFFFFFFFFFFFFFFFFFFFFFFFFFFFFFFFFF NOT AND SWAP1 DUP2 PUSH0 BYTE SWAP1 MSTORE8 POP PUSH1 0x1 SWAP4 POP JUMPDEST DUP1 DUP1 PUSH1 0x1 ADD SWAP2 POP POP PUSH2 0x3FF JUMP JUMPDEST POP DUP2 PUSH1 0x33 SWAP1 DUP2 PUSH2 0x505 SWAP2 SWAP1 PUSH2 0x1848 JUMP JUMPDEST POP DUP3 PUSH2 0x64F JUMPI PUSH1 0x37 PUSH0 DUP6 PUSH31 0xFFFFFFFFFFFFFFFFFFFFFFFFFFFFFFFFFFFFFFFFFFFFFFFFFFFFFFFFFFFFFF NOT AND PUSH31 0xFFFFFFFFFFFFFFFFFFFFFFFFFFFFFFFFFFFFFFFFFFFFFFFFFFFFFFFFFFFFFF NOT AND DUP2 MSTORE PUSH1 0x20 ADD SWAP1 DUP2 MSTORE PUSH1 0x20 ADD PUSH0 KECCAK256 PUSH0 SWAP1 SLOAD SWAP1 PUSH2 0x100 EXP SWAP1 DIV PUSH1 0xFF AND PUSH2 0x64E JUMPI PUSH1 0x1 PUSH1 0x37 PUSH0 DUP7 PUSH31 0xFFFFFFFFFFFFFFFFFFFFFFFFFFFFFFFFFFFFFFFFFFFFFFFFFFFFFFFFFFFFFF NOT AND PUSH31 0xFFFFFFFFFFFFFFFFFFFFFFFFFFFFFFFFFFFFFFFFFFFFFFFFFFFFFFFFFFFFFF NOT AND DUP2 MSTORE PUSH1 0x20 ADD SWAP1 DUP2 MSTORE PUSH1 0x20 ADD PUSH0 KECCAK256 PUSH0 PUSH2 0x100 EXP DUP2 SLOAD DUP2 PUSH1 0xFF MUL NOT AND SWAP1 DUP4 ISZERO ISZERO MUL OR SWAP1 SSTORE POP PUSH1 0x34 PUSH0 DUP2 SLOAD DUP1 SWAP3 SWAP2 SWAP1 PUSH2 0x5F0 SWAP1 PUSH2 0x1917 JUMP JUMPDEST SWAP2 SWAP1 POP SSTORE POP PUSH0 PUSH1 0x34 SLOAD SUB PUSH2 0x64D JUMPI PUSH0 PUSH1 0x35 PUSH0 PUSH2 0x100 EXP DUP2 SLOAD DUP2 PUSH1 0xFF MUL NOT AND SWAP1 DUP4 ISZERO ISZERO MUL OR SWAP1 SSTORE POP PUSH32 0x56E3895424A85EF26C4C78D9988DEA28D97C77C140B919289906403E8017170 PUSH1 0x40 MLOAD PUSH2 0x644 SWAP1 PUSH2 0x1988 JUMP JUMPDEST PUSH1 0x40 MLOAD DUP1 SWAP2 SUB SWAP1 LOG1 JUMPDEST JUMPDEST JUMPDEST PUSH32 0x1512161B9F23A85FD9CCEC12D9CD3ABEB7333BF293DC69250460C4C054A27FC6 PUSH1 0x33 PUSH1 0x34 SLOAD PUSH2 0x67D PUSH2 0xE0A JUMP JUMPDEST PUSH2 0x685 PUSH2 0xEEA JUMP JUMPDEST PUSH1 0x40 MLOAD PUSH2 0x695 SWAP5 SWAP4 SWAP3 SWAP2 SWAP1 PUSH2 0x1A27 JUMP JUMPDEST PUSH1 0x40 MLOAD DUP1 SWAP2 SUB SWAP1 LOG1 PUSH1 0x33 PUSH1 0x34 SLOAD PUSH2 0x6AA PUSH2 0xE0A JUMP JUMPDEST PUSH2 0x6B2 PUSH2 0xEEA JUMP JUMPDEST DUP4 DUP1 SLOAD PUSH2 0x6BE SWAP1 PUSH2 0x160D JUMP JUMPDEST DUP1 PUSH1 0x1F ADD PUSH1 0x20 DUP1 SWAP2 DIV MUL PUSH1 0x20 ADD PUSH1 0x40 MLOAD SWAP1 DUP2 ADD PUSH1 0x40 MSTORE DUP1 SWAP3 SWAP2 SWAP1 DUP2 DUP2 MSTORE PUSH1 0x20 ADD DUP3 DUP1 SLOAD PUSH2 0x6EA SWAP1 PUSH2 0x160D JUMP JUMPDEST DUP1 ISZERO PUSH2 0x735 JUMPI DUP1 PUSH1 0x1F LT PUSH2 0x70C JUMPI PUSH2 0x100 DUP1 DUP4 SLOAD DIV MUL DUP4 MSTORE SWAP2 PUSH1 0x20 ADD SWAP2 PUSH2 0x735 JUMP JUMPDEST DUP3 ADD SWAP2 SWAP1 PUSH0 MSTORE PUSH1 0x20 PUSH0 KECCAK256 SWAP1 JUMPDEST DUP2 SLOAD DUP2 MSTORE SWAP1 PUSH1 0x1 ADD SWAP1 PUSH1 0x20 ADD DUP1 DUP4 GT PUSH2 0x718 JUMPI DUP3 SWAP1 SUB PUSH1 0x1F AND DUP3 ADD SWAP2 JUMPDEST POP POP POP POP POP SWAP4 POP SWAP8 POP SWAP8 POP SWAP8 POP SWAP8 POP POP POP POP POP JUMPDEST SWAP2 SWAP4 POP SWAP2 SWAP4 JUMP JUMPDEST PUSH1 0x60 PUSH0 PUSH1 0x60 DUP1 PUSH1 0x35 PUSH0 SWAP1 SLOAD SWAP1 PUSH2 0x100 EXP SWAP1 DIV PUSH1 0xFF AND PUSH2 0x7A4 JUMPI PUSH1 0x40 MLOAD PUSH32 0x8C379A000000000000000000000000000000000000000000000000000000000 DUP2 MSTORE PUSH1 0x4 ADD PUSH2 0x79B SWAP1 PUSH2 0x1AC9 JUMP JUMPDEST PUSH1 0x40 MLOAD DUP1 SWAP2 SUB SWAP1 REVERT JUMPDEST PUSH1 0x33 PUSH1 0x34 SLOAD PUSH2 0x7B1 PUSH2 0xE0A JUMP JUMPDEST PUSH2 0x7B9 PUSH2 0xEEA JUMP JUMPDEST DUP4 DUP1 SLOAD PUSH2 0x7C5 SWAP1 PUSH2 0x160D JUMP JUMPDEST DUP1 PUSH1 0x1F ADD PUSH1 0x20 DUP1 SWAP2 DIV MUL PUSH1 0x20 ADD PUSH1 0x40 MLOAD SWAP1 DUP2 ADD PUSH1 0x40 MSTORE DUP1 SWAP3 SWAP2 SWAP1 DUP2 DUP2 MSTORE PUSH1 0x20 ADD DUP3 DUP1 SLOAD PUSH2 0x7F1 SWAP1 PUSH2 0x160D JUMP JUMPDEST DUP1 ISZERO PUSH2 0x83C JUMPI DUP1 PUSH1 0x1F LT PUSH2 0x813 JUMPI PUSH2 0x100 DUP1 DUP4 SLOAD DIV MUL DUP4 MSTORE SWAP2 PUSH1 0x20 ADD SWAP2 PUSH2 0x83C JUMP JUMPDEST DUP3 ADD SWAP2 SWAP1 PUSH0 MSTORE PUSH1 0x20 PUSH0 KECCAK256 SWAP1 JUMPDEST DUP2 SLOAD DUP2 MSTORE SWAP1 PUSH1 0x1 ADD SWAP1 PUSH1 0x20 ADD DUP1 DUP4 GT PUSH2 0x81F JUMPI DUP3 SWAP1 SUB PUSH1 0x1F AND DUP3 ADD SWAP2 JUMPDEST POP POP POP POP POP SWAP4 POP SWAP4 POP SWAP4 POP SWAP4 POP SWAP4 POP SWAP1 SWAP2 SWAP3 SWAP4 JUMP JUMPDEST PUSH1 0x60 PUSH1 0x35 PUSH0 SWAP1 SLOAD SWAP1 PUSH2 0x100 EXP SWAP1 DIV PUSH1 0xFF AND PUSH2 0x8A1 JUMPI PUSH1 0x40 MLOAD PUSH32 0x8C379A000000000000000000000000000000000000000000000000000000000 DUP2 MSTORE PUSH1 0x4 ADD PUSH2 0x898 SWAP1 PUSH2 0x1AC9 JUMP JUMPDEST PUSH1 0x40 MLOAD DUP1 SWAP2 SUB SWAP1 REVERT JUMPDEST PUSH0 TIMESTAMP PUSH1 0x78 PUSH1 0x36 SLOAD PUSH2 0x8B2 SWAP2 SWAP1 PUSH2 0x14B7 JUMP JUMPDEST GT PUSH2 0x8BD JUMPI PUSH0 PUSH2 0x8D8 JUMP JUMPDEST TIMESTAMP PUSH1 0x78 PUSH1 0x36 SLOAD PUSH2 0x8CD SWAP2 SWAP1 PUSH2 0x14B7 JUMP JUMPDEST PUSH2 0x8D7 SWAP2 SWAP1 PUSH2 0x1AE7 JUMP JUMPDEST JUMPDEST SWAP1 POP PUSH2 0x8E3 DUP2 PUSH2 0xFB8 JUMP JUMPDEST PUSH1 0x40 MLOAD PUSH1 0x20 ADD PUSH2 0x8F3 SWAP2 SWAP1 PUSH2 0x1BE8 JUMP JUMPDEST PUSH1 0x40 MLOAD PUSH1 0x20 DUP2 DUP4 SUB SUB DUP2 MSTORE SWAP1 PUSH1 0x40 MSTORE SWAP2 POP POP SWAP1 JUMP JUMPDEST PUSH1 0x35 PUSH0 SWAP1 SLOAD SWAP1 PUSH2 0x100 EXP SWAP1 DIV PUSH1 0xFF AND ISZERO PUSH2 0x957 JUMPI PUSH1 0x40 MLOAD PUSH32 0x8C379A000000000000000000000000000000000000000000000000000000000 DUP2 MSTORE PUSH1 0x4 ADD PUSH2 0x94E SWAP1 PUSH2 0x1C84 JUMP JUMPDEST PUSH1 0x40 MLOAD DUP1 SWAP2 SUB SWAP1 REVERT JUMPDEST PUSH1 0x1 PUSH1 0x35 PUSH0 PUSH2 0x100 EXP DUP2 SLOAD DUP2 PUSH1 0xFF MUL NOT AND SWAP1 DUP4 ISZERO ISZERO MUL OR SWAP1 SSTORE POP TIMESTAMP PUSH1 0x36 DUP2 SWAP1 SSTORE POP PUSH32 0xA2DFAA3573B86004EC9D4D4ABE5068D942579C59DA4DA8CD0D9E45E71A393BC1 PUSH1 0x36 SLOAD PUSH1 0x78 PUSH1 0x40 MLOAD PUSH2 0x9AC SWAP3 SWAP2 SWAP1 PUSH2 0x1CA2 JUMP JUMPDEST PUSH1 0x40 MLOAD DUP1 SWAP2 SUB SWAP1 LOG1 PUSH0 PUSH1 0x32 TIMESTAMP CALLER PUSH1 0x40 MLOAD PUSH1 0x20 ADD PUSH2 0x9CA SWAP3 SWAP2 SWAP1 PUSH2 0x1D5E JUMP JUMPDEST PUSH1 0x40 MLOAD PUSH1 0x20 DUP2 DUP4 SUB SUB DUP2 MSTORE SWAP1 PUSH1 0x40 MSTORE DUP1 MLOAD SWAP1 PUSH1 0x20 ADD KECCAK256 PUSH0 SHR PUSH2 0x9EC SWAP2 SWAP1 PUSH2 0x1DB6 JUMP JUMPDEST SWAP1 POP PUSH0 DUP2 PUSH1 0x32 DUP2 LT PUSH2 0xA01 JUMPI PUSH2 0xA00 PUSH2 0x163D JUMP JUMPDEST JUMPDEST ADD PUSH1 0x32 SWAP1 DUP2 PUSH2 0xA10 SWAP2 SWAP1 PUSH2 0x1E0D JUMP JUMPDEST POP PUSH0 PUSH1 0x32 DUP1 SLOAD PUSH2 0xA1F SWAP1 PUSH2 0x160D JUMP JUMPDEST DUP1 PUSH1 0x1F ADD PUSH1 0x20 DUP1 SWAP2 DIV MUL PUSH1 0x20 ADD PUSH1 0x40 MLOAD SWAP1 DUP2 ADD PUSH1 0x40 MSTORE DUP1 SWAP3 SWAP2 SWAP1 DUP2 DUP2 MSTORE PUSH1 0x20 ADD DUP3 DUP1 SLOAD PUSH2 0xA4B SWAP1 PUSH2 0x160D JUMP JUMPDEST DUP1 ISZERO PUSH2 0xA96 JUMPI DUP1 PUSH1 0x1F LT PUSH2 0xA6D JUMPI PUSH2 0x100 DUP1 DUP4 SLOAD DIV MUL DUP4 MSTORE SWAP2 PUSH1 0x20 ADD SWAP2 PUSH2 0xA96 JUMP JUMPDEST DUP3 ADD SWAP2 SWAP1 PUSH0 MSTORE PUSH1 0x20 PUSH0 KECCAK256 SWAP1 JUMPDEST DUP2 SLOAD DUP2 MSTORE SWAP1 PUSH1 0x1 ADD SWAP1 PUSH1 0x20 ADD DUP1 DUP4 GT PUSH2 0xA79 JUMPI DUP3 SWAP1 SUB PUSH1 0x1F AND DUP3 ADD SWAP2 JUMPDEST POP POP POP POP POP SWAP1 POP PUSH0 PUSH1 0x2 DUP3 MLOAD PUSH2 0xAAC SWAP2 SWAP1 PUSH2 0x166A JUMP JUMPDEST PUSH8 0xFFFFFFFFFFFFFFFF DUP2 GT ISZERO PUSH2 0xAC5 JUMPI PUSH2 0xAC4 PUSH2 0x1139 JUMP JUMPDEST JUMPDEST PUSH1 0x40 MLOAD SWAP1 DUP1 DUP3 MSTORE DUP1 PUSH1 0x1F ADD PUSH1 0x1F NOT AND PUSH1 0x20 ADD DUP3 ADD PUSH1 0x40 MSTORE DUP1 ISZERO PUSH2 0xAF7 JUMPI DUP2 PUSH1 0x20 ADD PUSH1 0x1 DUP3 MUL DUP1 CALLDATASIZE DUP4 CALLDATACOPY DUP1 DUP3 ADD SWAP2 POP POP SWAP1 POP JUMPDEST POP SWAP1 POP PUSH1 0x7 PUSH1 0x34 DUP2 SWAP1 SSTORE POP PUSH0 JUMPDEST DUP3 MLOAD DUP2 LT ISZERO PUSH2 0xD56 JUMPI PUSH32 0x2000000000000000000000000000000000000000000000000000000000000000 DUP4 DUP3 DUP2 MLOAD DUP2 LT PUSH2 0xB41 JUMPI PUSH2 0xB40 PUSH2 0x163D JUMP JUMPDEST JUMPDEST PUSH1 0x20 ADD ADD MLOAD PUSH1 0xF8 SHR PUSH1 0xF8 SHL PUSH31 0xFFFFFFFFFFFFFFFFFFFFFFFFFFFFFFFFFFFFFFFFFFFFFFFFFFFFFFFFFFFFFF NOT AND SUB PUSH2 0xC60 JUMPI PUSH32 0x7C00000000000000000000000000000000000000000000000000000000000000 DUP3 PUSH1 0x2 DUP4 PUSH2 0xBA2 SWAP2 SWAP1 PUSH2 0x166A JUMP JUMPDEST DUP2 MLOAD DUP2 LT PUSH2 0xBB3 JUMPI PUSH2 0xBB2 PUSH2 0x163D JUMP JUMPDEST JUMPDEST PUSH1 0x20 ADD ADD SWAP1 PUSH31 0xFFFFFFFFFFFFFFFFFFFFFFFFFFFFFFFFFFFFFFFFFFFFFFFFFFFFFFFFFFFFFF NOT AND SWAP1 DUP2 PUSH0 BYTE SWAP1 MSTORE8 POP PUSH32 0x7C00000000000000000000000000000000000000000000000000000000000000 DUP3 PUSH1 0x1 PUSH1 0x2 DUP5 PUSH2 0xC12 SWAP2 SWAP1 PUSH2 0x166A JUMP JUMPDEST PUSH2 0xC1C SWAP2 SWAP1 PUSH2 0x14B7 JUMP JUMPDEST DUP2 MLOAD DUP2 LT PUSH2 0xC2D JUMPI PUSH2 0xC2C PUSH2 0x163D JUMP JUMPDEST JUMPDEST PUSH1 0x20 ADD ADD SWAP1 PUSH31 0xFFFFFFFFFFFFFFFFFFFFFFFFFFFFFFFFFFFFFFFFFFFFFFFFFFFFFFFFFFFFFF NOT AND SWAP1 DUP2 PUSH0 BYTE SWAP1 MSTORE8 POP PUSH2 0xD49 JUMP JUMPDEST PUSH32 0x5F00000000000000000000000000000000000000000000000000000000000000 DUP3 PUSH1 0x2 DUP4 PUSH2 0xC8F SWAP2 SWAP1 PUSH2 0x166A JUMP JUMPDEST DUP2 MLOAD DUP2 LT PUSH2 0xCA0 JUMPI PUSH2 0xC9F PUSH2 0x163D JUMP JUMPDEST JUMPDEST PUSH1 0x20 ADD ADD SWAP1 PUSH31 0xFFFFFFFFFFFFFFFFFFFFFFFFFFFFFFFFFFFFFFFFFFFFFFFFFFFFFFFFFFFFFF NOT AND SWAP1 DUP2 PUSH0 BYTE SWAP1 MSTORE8 POP PUSH32 0x2000000000000000000000000000000000000000000000000000000000000000 DUP3 PUSH1 0x1 PUSH1 0x2 DUP5 PUSH2 0xCFF SWAP2 SWAP1 PUSH2 0x166A JUMP JUMPDEST PUSH2 0xD09 SWAP2 SWAP1 PUSH2 0x14B7 JUMP JUMPDEST DUP2 MLOAD DUP2 LT PUSH2 0xD1A JUMPI PUSH2 0xD19 PUSH2 0x163D JUMP JUMPDEST JUMPDEST PUSH1 0x20 ADD ADD SWAP1 PUSH31 0xFFFFFFFFFFFFFFFFFFFFFFFFFFFFFFFFFFFFFFFFFFFFFFFFFFFFFFFFFFFFFF NOT AND SWAP1 DUP2 PUSH0 BYTE SWAP1 MSTORE8 POP JUMPDEST DUP1 DUP1 PUSH1 0x1 ADD SWAP2 POP POP PUSH2 0xB04 JUMP JUMPDEST POP DUP1 PUSH1 0x33 SWAP1 DUP2 PUSH2 0xD66 SWAP2 SWAP1 PUSH2 0x1848 JUMP JUMPDEST POP POP POP POP JUMP JUMPDEST PUSH1 0x35 PUSH0 SWAP1 SLOAD SWAP1 PUSH2 0x100 EXP SWAP1 DIV PUSH1 0xFF AND PUSH2 0xDBA JUMPI PUSH1 0x40 MLOAD PUSH32 0x8C379A000000000000000000000000000000000000000000000000000000000 DUP2 MSTORE PUSH1 0x4 ADD PUSH2 0xDB1 SWAP1 PUSH2 0x1F3C JUMP JUMPDEST PUSH1 0x40 MLOAD DUP1 SWAP2 SUB SWAP1 REVERT JUMPDEST PUSH0 PUSH1 0x35 PUSH0 PUSH2 0x100 EXP DUP2 SLOAD DUP2 PUSH1 0xFF MUL NOT AND SWAP1 DUP4 ISZERO ISZERO MUL OR SWAP1 SSTORE POP PUSH32 0x56E3895424A85EF26C4C78D9988DEA28D97C77C140B919289906403E8017170 PUSH1 0x40 MLOAD PUSH2 0xE00 SWAP1 PUSH2 0x1FA4 JUMP JUMPDEST PUSH1 0x40 MLOAD DUP1 SWAP2 SUB SWAP1 LOG1 JUMP JUMPDEST PUSH1 0x60 DUP1 PUSH0 PUSH1 0x61 SWAP1 POP JUMPDEST PUSH1 0x7A DUP2 PUSH1 0xFF AND GT PUSH2 0xEC3 JUMPI PUSH1 0x37 PUSH0 DUP3 PUSH1 0xF8 SHL PUSH31 0xFFFFFFFFFFFFFFFFFFFFFFFFFFFFFFFFFFFFFFFFFFFFFFFFFFFFFFFFFFFFFF NOT AND PUSH31 0xFFFFFFFFFFFFFFFFFFFFFFFFFFFFFFFFFFFFFFFFFFFFFFFFFFFFFFFFFFFFFF NOT AND DUP2 MSTORE PUSH1 0x20 ADD SWAP1 DUP2 MSTORE PUSH1 0x20 ADD PUSH0 KECCAK256 PUSH0 SWAP1 SLOAD SWAP1 PUSH2 0x100 EXP SWAP1 DIV PUSH1 0xFF AND ISZERO PUSH2 0xEB0 JUMPI DUP2 DUP2 PUSH1 0xF8 SHL PUSH1 0x40 MLOAD PUSH1 0x20 ADD PUSH2 0xE9E SWAP3 SWAP2 SWAP1 PUSH2 0x209B JUMP JUMPDEST PUSH1 0x40 MLOAD PUSH1 0x20 DUP2 DUP4 SUB SUB DUP2 MSTORE SWAP1 PUSH1 0x40 MSTORE SWAP2 POP JUMPDEST DUP1 DUP1 PUSH2 0xEBB SWAP1 PUSH2 0x20D9 JUMP JUMPDEST SWAP2 POP POP PUSH2 0xE13 JUMP JUMPDEST POP DUP1 PUSH1 0x40 MLOAD PUSH1 0x20 ADD PUSH2 0xED5 SWAP2 SWAP1 PUSH2 0x214B JUMP JUMPDEST PUSH1 0x40 MLOAD PUSH1 0x20 DUP2 DUP4 SUB SUB DUP2 MSTORE SWAP1 PUSH1 0x40 MSTORE SWAP2 POP POP SWAP1 JUMP JUMPDEST PUSH1 0x60 PUSH1 0x38 PUSH1 0x34 SLOAD PUSH1 0x7 PUSH2 0xEFD SWAP2 SWAP1 PUSH2 0x1AE7 JUMP JUMPDEST PUSH1 0x8 DUP2 LT PUSH2 0xF0E JUMPI PUSH2 0xF0D PUSH2 0x163D JUMP JUMPDEST JUMPDEST ADD PUSH1 0x40 MLOAD PUSH1 0x20 ADD PUSH2 0xF1F SWAP2 SWAP1 PUSH2 0x2236 JUMP JUMPDEST PUSH1 0x40 MLOAD PUSH1 0x20 DUP2 DUP4 SUB SUB DUP2 MSTORE SWAP1 PUSH1 0x40 MSTORE SWAP1 POP SWAP1 JUMP JUMPDEST PUSH0 PUSH1 0x41 PUSH1 0xF8 SHL DUP3 PUSH31 0xFFFFFFFFFFFFFFFFFFFFFFFFFFFFFFFFFFFFFFFFFFFFFFFFFFFFFFFFFFFFFF NOT AND LT ISZERO DUP1 ISZERO PUSH2 0xF90 JUMPI POP PUSH1 0x5A PUSH1 0xF8 SHL DUP3 PUSH31 0xFFFFFFFFFFFFFFFFFFFFFFFFFFFFFFFFFFFFFFFFFFFFFFFFFFFFFFFFFFFFFF NOT AND GT ISZERO JUMPDEST ISZERO PUSH2 0xFAF JUMPI PUSH1 0x20 DUP3 PUSH1 0xF8 SHR PUSH2 0xFA5 SWAP2 SWAP1 PUSH2 0x2257 JUMP JUMPDEST PUSH1 0xF8 SHL SWAP1 POP PUSH2 0xFB3 JUMP JUMPDEST DUP2 SWAP1 POP JUMPDEST SWAP2 SWAP1 POP JUMP JUMPDEST PUSH1 0x60 PUSH0 DUP3 SUB PUSH2 0xFFE JUMPI PUSH1 0x40 MLOAD DUP1 PUSH1 0x40 ADD PUSH1 0x40 MSTORE DUP1 PUSH1 0x1 DUP2 MSTORE PUSH1 0x20 ADD PUSH32 0x3000000000000000000000000000000000000000000000000000000000000000 DUP2 MSTORE POP SWAP1 POP PUSH2 0x110B JUMP JUMPDEST PUSH0 DUP3 SWAP1 POP PUSH0 JUMPDEST PUSH0 DUP3 EQ PUSH2 0x102D JUMPI DUP1 DUP1 PUSH2 0x1016 SWAP1 PUSH2 0x228B JUMP JUMPDEST SWAP2 POP POP PUSH1 0xA DUP3 PUSH2 0x1026 SWAP2 SWAP1 PUSH2 0x22D2 JUMP JUMPDEST SWAP2 POP PUSH2 0x1004 JUMP JUMPDEST PUSH0 DUP2 PUSH8 0xFFFFFFFFFFFFFFFF DUP2 GT ISZERO PUSH2 0x1048 JUMPI PUSH2 0x1047 PUSH2 0x1139 JUMP JUMPDEST JUMPDEST PUSH1 0x40 MLOAD SWAP1 DUP1 DUP3 MSTORE DUP1 PUSH1 0x1F ADD PUSH1 0x1F NOT AND PUSH1 0x20 ADD DUP3 ADD PUSH1 0x40 MSTORE DUP1 ISZERO PUSH2 0x107A JUMPI DUP2 PUSH1 0x20 ADD PUSH1 0x1 DUP3 MUL DUP1 CALLDATASIZE DUP4 CALLDATACOPY DUP1 DUP3 ADD SWAP2 POP POP SWAP1 POP JUMPDEST POP SWAP1 POP JUMPDEST PUSH0 DUP6 EQ PUSH2 0x1104 JUMPI DUP2 DUP1 PUSH2 0x1090 SWAP1 PUSH2 0x1917 JUMP JUMPDEST SWAP3 POP POP PUSH1 0xA DUP6 PUSH2 0x10A0 SWAP2 SWAP1 PUSH2 0x1DB6 JUMP JUMPDEST PUSH1 0x30 PUSH2 0x10AC SWAP2 SWAP1 PUSH2 0x14B7 JUMP JUMPDEST PUSH1 0xF8 SHL DUP2 DUP4 DUP2 MLOAD DUP2 LT PUSH2 0x10C2 JUMPI PUSH2 0x10C1 PUSH2 0x163D JUMP JUMPDEST JUMPDEST PUSH1 0x20 ADD ADD SWAP1 PUSH31 0xFFFFFFFFFFFFFFFFFFFFFFFFFFFFFFFFFFFFFFFFFFFFFFFFFFFFFFFFFFFFFF NOT AND SWAP1 DUP2 PUSH0 BYTE SWAP1 MSTORE8 POP PUSH1 0xA DUP6 PUSH2 0x10FD SWAP2 SWAP1 PUSH2 0x22D2 JUMP JUMPDEST SWAP5 POP PUSH2 0x107E JUMP JUMPDEST DUP1 SWAP4 POP POP POP POP JUMPDEST SWAP2 SWAP1 POP JUMP JUMPDEST PUSH0 PUSH1 0x40 MLOAD SWAP1 POP SWAP1 JUMP JUMPDEST PUSH0 DUP1 REVERT JUMPDEST PUSH0 DUP1 REVERT JUMPDEST PUSH0 DUP1 REVERT JUMPDEST PUSH0 DUP1 REVERT JUMPDEST PUSH0 PUSH1 0x1F NOT PUSH1 0x1F DUP4 ADD AND SWAP1 POP SWAP2 SWAP1 POP JUMP JUMPDEST PUSH32 0x4E487B7100000000000000000000000000000000000000000000000000000000 PUSH0 MSTORE PUSH1 0x41 PUSH1 0x4 MSTORE PUSH1 0x24 PUSH0 REVERT JUMPDEST PUSH2 0x116F DUP3 PUSH2 0x1129 JUMP JUMPDEST DUP2 ADD DUP2 DUP2 LT PUSH8 0xFFFFFFFFFFFFFFFF DUP3 GT OR ISZERO PUSH2 0x118E JUMPI PUSH2 0x118D PUSH2 0x1139 JUMP JUMPDEST JUMPDEST DUP1 PUSH1 0x40 MSTORE POP POP POP JUMP JUMPDEST PUSH0 PUSH2 0x11A0 PUSH2 0x1110 JUMP JUMPDEST SWAP1 POP PUSH2 0x11AC DUP3 DUP3 PUSH2 0x1166 JUMP JUMPDEST SWAP2 SWAP1 POP JUMP JUMPDEST PUSH0 PUSH8 0xFFFFFFFFFFFFFFFF DUP3 GT ISZERO PUSH2 0x11CB JUMPI PUSH2 0x11CA PUSH2 0x1139 JUMP JUMPDEST JUMPDEST PUSH2 0x11D4 DUP3 PUSH2 0x1129 JUMP JUMPDEST SWAP1 POP PUSH1 0x20 DUP2 ADD SWAP1 POP SWAP2 SWAP1 POP JUMP JUMPDEST DUP3 DUP2 DUP4 CALLDATACOPY PUSH0 DUP4 DUP4 ADD MSTORE POP POP POP JUMP JUMPDEST PUSH0 PUSH2 0x1201 PUSH2 0x11FC DUP5 PUSH2 0x11B1 JUMP JUMPDEST PUSH2 0x1197 JUMP JUMPDEST SWAP1 POP DUP3 DUP2 MSTORE PUSH1 0x20 DUP2 ADD DUP5 DUP5 DUP5 ADD GT ISZERO PUSH2 0x121D JUMPI PUSH2 0x121C PUSH2 0x1125 JUMP JUMPDEST JUMPDEST PUSH2 0x1228 DUP5 DUP3 DUP6 PUSH2 0x11E1 JUMP JUMPDEST POP SWAP4 SWAP3 POP POP POP JUMP JUMPDEST PUSH0 DUP3 PUSH1 0x1F DUP4 ADD SLT PUSH2 0x1244 JUMPI PUSH2 0x1243 PUSH2 0x1121 JUMP JUMPDEST JUMPDEST DUP2 CALLDATALOAD PUSH2 0x1254 DUP5 DUP3 PUSH1 0x20 DUP7 ADD PUSH2 0x11EF JUMP JUMPDEST SWAP2 POP POP SWAP3 SWAP2 POP POP JUMP JUMPDEST PUSH0 PUSH1 0x20 DUP3 DUP5 SUB SLT ISZERO PUSH2 0x1272 JUMPI PUSH2 0x1271 PUSH2 0x1119 JUMP JUMPDEST JUMPDEST PUSH0 DUP3 ADD CALLDATALOAD PUSH8 0xFFFFFFFFFFFFFFFF DUP2 GT ISZERO PUSH2 0x128F JUMPI PUSH2 0x128E PUSH2 0x111D JUMP JUMPDEST JUMPDEST PUSH2 0x129B DUP5 DUP3 DUP6 ADD PUSH2 0x1230 JUMP JUMPDEST SWAP2 POP POP SWAP3 SWAP2 POP POP JUMP JUMPDEST PUSH0 DUP2 MLOAD SWAP1 POP SWAP2 SWAP1 POP JUMP JUMPDEST PUSH0 DUP3 DUP3 MSTORE PUSH1 0x20 DUP3 ADD SWAP1 POP SWAP3 SWAP2 POP POP JUMP JUMPDEST DUP3 DUP2 DUP4 MCOPY PUSH0 DUP4 DUP4 ADD MSTORE POP POP POP JUMP JUMPDEST PUSH0 PUSH2 0x12D6 DUP3 PUSH2 0x12A4 JUMP JUMPDEST PUSH2 0x12E0 DUP2 DUP6 PUSH2 0x12AE JUMP JUMPDEST SWAP4 POP PUSH2 0x12F0 DUP2 DUP6 PUSH1 0x20 DUP7 ADD PUSH2 0x12BE JUMP JUMPDEST PUSH2 0x12F9 DUP2 PUSH2 0x1129 JUMP JUMPDEST DUP5 ADD SWAP2 POP POP SWAP3 SWAP2 POP POP JUMP JUMPDEST PUSH0 DUP2 SWAP1 POP SWAP2 SWAP1 POP JUMP JUMPDEST PUSH2 0x1316 DUP2 PUSH2 0x1304 JUMP JUMPDEST DUP3 MSTORE POP POP JUMP JUMPDEST PUSH0 PUSH1 0x80 DUP3 ADD SWAP1 POP DUP2 DUP2 SUB PUSH0 DUP4 ADD MSTORE PUSH2 0x1334 DUP2 DUP8 PUSH2 0x12CC JUMP JUMPDEST SWAP1 POP PUSH2 0x1343 PUSH1 0x20 DUP4 ADD DUP7 PUSH2 0x130D JUMP JUMPDEST DUP2 DUP2 SUB PUSH1 0x40 DUP4 ADD MSTORE PUSH2 0x1355 DUP2 DUP6 PUSH2 0x12CC JUMP JUMPDEST SWAP1 POP DUP2 DUP2 SUB PUSH1 0x60 DUP4 ADD MSTORE PUSH2 0x1369 DUP2 DUP5 PUSH2 0x12CC JUMP JUMPDEST SWAP1 POP SWAP6 SWAP5 POP POP POP POP POP JUMP JUMPDEST PUSH0 PUSH1 0x20 DUP3 ADD SWAP1 POP DUP2 DUP2 SUB PUSH0 DUP4 ADD MSTORE PUSH2 0x138C DUP2 DUP5 PUSH2 0x12CC JUMP JUMPDEST SWAP1 POP SWAP3 SWAP2 POP POP JUMP JUMPDEST PUSH32 0x47616D652068617320656E6465642E0000000000000000000000000000000000 PUSH0 DUP3 ADD MSTORE POP JUMP JUMPDEST PUSH0 PUSH2 0x13C8 PUSH1 0xF DUP4 PUSH2 0x12AE JUMP JUMPDEST SWAP2 POP PUSH2 0x13D3 DUP3 PUSH2 0x1394 JUMP JUMPDEST PUSH1 0x20 DUP3 ADD SWAP1 POP SWAP2 SWAP1 POP JUMP JUMPDEST PUSH0 PUSH1 0x20 DUP3 ADD SWAP1 POP DUP2 DUP2 SUB PUSH0 DUP4 ADD MSTORE PUSH2 0x13F5 DUP2 PUSH2 0x13BC JUMP JUMPDEST SWAP1 POP SWAP2 SWAP1 POP JUMP JUMPDEST PUSH32 0x496E707574206D75737420626520612073696E676C6520636861726163746572 PUSH0 DUP3 ADD MSTORE PUSH32 0x2E00000000000000000000000000000000000000000000000000000000000000 PUSH1 0x20 DUP3 ADD MSTORE POP JUMP JUMPDEST PUSH0 PUSH2 0x1456 PUSH1 0x21 DUP4 PUSH2 0x12AE JUMP JUMPDEST SWAP2 POP PUSH2 0x1461 DUP3 PUSH2 0x13FC JUMP JUMPDEST PUSH1 0x40 DUP3 ADD SWAP1 POP SWAP2 SWAP1 POP JUMP JUMPDEST PUSH0 PUSH1 0x20 DUP3 ADD SWAP1 POP DUP2 DUP2 SUB PUSH0 DUP4 ADD MSTORE PUSH2 0x1483 DUP2 PUSH2 0x144A JUMP JUMPDEST SWAP1 POP SWAP2 SWAP1 POP JUMP JUMPDEST PUSH32 0x4E487B7100000000000000000000000000000000000000000000000000000000 PUSH0 MSTORE PUSH1 0x11 PUSH1 0x4 MSTORE PUSH1 0x24 PUSH0 REVERT JUMPDEST PUSH0 PUSH2 0x14C1 DUP3 PUSH2 0x1304 JUMP JUMPDEST SWAP2 POP PUSH2 0x14CC DUP4 PUSH2 0x1304 JUMP JUMPDEST SWAP3 POP DUP3 DUP3 ADD SWAP1 POP DUP1 DUP3 GT ISZERO PUSH2 0x14E4 JUMPI PUSH2 0x14E3 PUSH2 0x148A JUMP JUMPDEST JUMPDEST SWAP3 SWAP2 POP POP JUMP JUMPDEST PUSH32 0x54696D65206C696D697420726561636865642E00000000000000000000000000 PUSH0 DUP3 ADD MSTORE POP JUMP JUMPDEST PUSH0 PUSH2 0x151E PUSH1 0x13 DUP4 PUSH2 0x12AE JUMP JUMPDEST SWAP2 POP PUSH2 0x1529 DUP3 PUSH2 0x14EA JUMP JUMPDEST PUSH1 0x20 DUP3 ADD SWAP1 POP SWAP2 SWAP1 POP JUMP JUMPDEST PUSH0 PUSH1 0x20 DUP3 ADD SWAP1 POP DUP2 DUP2 SUB PUSH0 DUP4 ADD MSTORE PUSH2 0x154B DUP2 PUSH2 0x1512 JUMP JUMPDEST SWAP1 POP SWAP2 SWAP1 POP JUMP JUMPDEST PUSH32 0x47616D65206F7665722E20596F75206469646E27742066696E69736820696E20 PUSH0 DUP3 ADD MSTORE PUSH32 0x74696D652E000000000000000000000000000000000000000000000000000000 PUSH1 0x20 DUP3 ADD MSTORE POP JUMP JUMPDEST PUSH0 PUSH2 0x15AC PUSH1 0x25 DUP4 PUSH2 0x12AE JUMP JUMPDEST SWAP2 POP PUSH2 0x15B7 DUP3 PUSH2 0x1552 JUMP JUMPDEST PUSH1 0x40 DUP3 ADD SWAP1 POP SWAP2 SWAP1 POP JUMP JUMPDEST PUSH0 PUSH1 0x20 DUP3 ADD SWAP1 POP DUP2 DUP2 SUB PUSH0 DUP4 ADD MSTORE PUSH2 0x15D9 DUP2 PUSH2 0x15A0 JUMP JUMPDEST SWAP1 POP SWAP2 SWAP1 POP JUMP JUMPDEST PUSH32 0x4E487B7100000000000000000000000000000000000000000000000000000000 PUSH0 MSTORE PUSH1 0x22 PUSH1 0x4 MSTORE PUSH1 0x24 PUSH0 REVERT JUMPDEST PUSH0 PUSH1 0x2 DUP3 DIV SWAP1 POP PUSH1 0x1 DUP3 AND DUP1 PUSH2 0x1624 JUMPI PUSH1 0x7F DUP3 AND SWAP2 POP JUMPDEST PUSH1 0x20 DUP3 LT DUP2 SUB PUSH2 0x1637 JUMPI PUSH2 0x1636 PUSH2 0x15E0 JUMP JUMPDEST JUMPDEST POP SWAP2 SWAP1 POP JUMP JUMPDEST PUSH32 0x4E487B7100000000000000000000000000000000000000000000000000000000 PUSH0 MSTORE PUSH1 0x32 PUSH1 0x4 MSTORE PUSH1 0x24 PUSH0 REVERT JUMPDEST PUSH0 PUSH2 0x1674 DUP3 PUSH2 0x1304 JUMP JUMPDEST SWAP2 POP PUSH2 0x167F DUP4 PUSH2 0x1304 JUMP JUMPDEST SWAP3 POP DUP3 DUP3 MUL PUSH2 0x168D DUP2 PUSH2 0x1304 JUMP JUMPDEST SWAP2 POP DUP3 DUP3 DIV DUP5 EQ DUP4 ISZERO OR PUSH2 0x16A4 JUMPI PUSH2 0x16A3 PUSH2 0x148A JUMP JUMPDEST JUMPDEST POP SWAP3 SWAP2 POP POP JUMP JUMPDEST PUSH0 DUP2 SWAP1 POP DUP2 PUSH0 MSTORE PUSH1 0x20 PUSH0 KECCAK256 SWAP1 POP SWAP2 SWAP1 POP JUMP JUMPDEST PUSH0 PUSH1 0x20 PUSH1 0x1F DUP4 ADD DIV SWAP1 POP SWAP2 SWAP1 POP JUMP JUMPDEST PUSH0 DUP3 DUP3 SHL SWAP1 POP SWAP3 SWAP2 POP POP JUMP JUMPDEST PUSH0 PUSH1 0x8 DUP4 MUL PUSH2 0x1707 PUSH32 0xFFFFFFFFFFFFFFFFFFFFFFFFFFFFFFFFFFFFFFFFFFFFFFFFFFFFFFFFFFFFFFFF DUP3 PUSH2 0x16CC JUMP JUMPDEST PUSH2 0x1711 DUP7 DUP4 PUSH2 0x16CC JUMP JUMPDEST SWAP6 POP DUP1 NOT DUP5 AND SWAP4 POP DUP1 DUP7 AND DUP5 OR SWAP3 POP POP POP SWAP4 SWAP3 POP POP POP JUMP JUMPDEST PUSH0 DUP2 SWAP1 POP SWAP2 SWAP1 POP JUMP JUMPDEST PUSH0 PUSH2 0x174C PUSH2 0x1747 PUSH2 0x1742 DUP5 PUSH2 0x1304 JUMP JUMPDEST PUSH2 0x1729 JUMP JUMPDEST PUSH2 0x1304 JUMP JUMPDEST SWAP1 POP SWAP2 SWAP1 POP JUMP JUMPDEST PUSH0 DUP2 SWAP1 POP SWAP2 SWAP1 POP JUMP JUMPDEST PUSH2 0x1765 DUP4 PUSH2 0x1732 JUMP JUMPDEST PUSH2 0x1779 PUSH2 0x1771 DUP3 PUSH2 0x1753 JUMP JUMPDEST DUP5 DUP5 SLOAD PUSH2 0x16D8 JUMP JUMPDEST DUP3 SSTORE POP POP POP POP JUMP JUMPDEST PUSH0 SWAP1 JUMP JUMPDEST PUSH2 0x178D PUSH2 0x1781 JUMP JUMPDEST PUSH2 0x1798 DUP2 DUP5 DUP5 PUSH2 0x175C JUMP JUMPDEST POP POP POP JUMP JUMPDEST JUMPDEST DUP2 DUP2 LT ISZERO PUSH2 0x17BB JUMPI PUSH2 0x17B0 PUSH0 DUP3 PUSH2 0x1785 JUMP JUMPDEST PUSH1 0x1 DUP2 ADD SWAP1 POP PUSH2 0x179E JUMP JUMPDEST POP POP JUMP JUMPDEST PUSH1 0x1F DUP3 GT ISZERO PUSH2 0x1800 JUMPI PUSH2 0x17D1 DUP2 PUSH2 0x16AB JUMP JUMPDEST PUSH2 0x17DA DUP5 PUSH2 0x16BD JUMP JUMPDEST DUP2 ADD PUSH1 0x20 DUP6 LT ISZERO PUSH2 0x17E9 JUMPI DUP2 SWAP1 POP JUMPDEST PUSH2 0x17FD PUSH2 0x17F5 DUP6 PUSH2 0x16BD JUMP JUMPDEST DUP4 ADD DUP3 PUSH2 0x179D JUMP JUMPDEST POP POP JUMPDEST POP POP POP JUMP JUMPDEST PUSH0 DUP3 DUP3 SHR SWAP1 POP SWAP3 SWAP2 POP POP JUMP JUMPDEST PUSH0 PUSH2 0x1820 PUSH0 NOT DUP5 PUSH1 0x8 MUL PUSH2 0x1805 JUMP JUMPDEST NOT DUP1 DUP4 AND SWAP2 POP POP SWAP3 SWAP2 POP POP JUMP JUMPDEST PUSH0 PUSH2 0x1838 DUP4 DUP4 PUSH2 0x1811 JUMP JUMPDEST SWAP2 POP DUP3 PUSH1 0x2 MUL DUP3 OR SWAP1 POP SWAP3 SWAP2 POP POP JUMP JUMPDEST PUSH2 0x1851 DUP3 PUSH2 0x12A4 JUMP JUMPDEST PUSH8 0xFFFFFFFFFFFFFFFF DUP2 GT ISZERO PUSH2 0x186A JUMPI PUSH2 0x1869 PUSH2 0x1139 JUMP JUMPDEST JUMPDEST PUSH2 0x1874 DUP3 SLOAD PUSH2 0x160D JUMP JUMPDEST PUSH2 0x187F DUP3 DUP3 DUP6 PUSH2 0x17BF JUMP JUMPDEST PUSH0 PUSH1 0x20 SWAP1 POP PUSH1 0x1F DUP4 GT PUSH1 0x1 DUP2 EQ PUSH2 0x18B0 JUMPI PUSH0 DUP5 ISZERO PUSH2 0x189E JUMPI DUP3 DUP8 ADD MLOAD SWAP1 POP JUMPDEST PUSH2 0x18A8 DUP6 DUP3 PUSH2 0x182D JUMP JUMPDEST DUP7 SSTORE POP PUSH2 0x190F JUMP JUMPDEST PUSH1 0x1F NOT DUP5 AND PUSH2 0x18BE DUP7 PUSH2 0x16AB JUMP JUMPDEST PUSH0 JUMPDEST DUP3 DUP2 LT ISZERO PUSH2 0x18E5 JUMPI DUP5 DUP10 ADD MLOAD DUP3 SSTORE PUSH1 0x1 DUP3 ADD SWAP2 POP PUSH1 0x20 DUP6 ADD SWAP5 POP PUSH1 0x20 DUP2 ADD SWAP1 POP PUSH2 0x18C0 JUMP JUMPDEST DUP7 DUP4 LT ISZERO PUSH2 0x1902 JUMPI DUP5 DUP10 ADD MLOAD PUSH2 0x18FE PUSH1 0x1F DUP10 AND DUP3 PUSH2 0x1811 JUMP JUMPDEST DUP4 SSTORE POP JUMPDEST PUSH1 0x1 PUSH1 0x2 DUP9 MUL ADD DUP9 SSTORE POP POP POP JUMPDEST POP POP POP POP POP POP JUMP JUMPDEST PUSH0 PUSH2 0x1921 DUP3 PUSH2 0x1304 JUMP JUMPDEST SWAP2 POP PUSH0 DUP3 SUB PUSH2 0x1933 JUMPI PUSH2 0x1932 PUSH2 0x148A JUMP JUMPDEST JUMPDEST PUSH1 0x1 DUP3 SUB SWAP1 POP SWAP2 SWAP1 POP JUMP JUMPDEST PUSH32 0x47616D65206F7665722E204E6F20617474656D707473206C6566742E00000000 PUSH0 DUP3 ADD MSTORE POP JUMP JUMPDEST PUSH0 PUSH2 0x1972 PUSH1 0x1C DUP4 PUSH2 0x12AE JUMP JUMPDEST SWAP2 POP PUSH2 0x197D DUP3 PUSH2 0x193E JUMP JUMPDEST PUSH1 0x20 DUP3 ADD SWAP1 POP SWAP2 SWAP1 POP JUMP JUMPDEST PUSH0 PUSH1 0x20 DUP3 ADD SWAP1 POP DUP2 DUP2 SUB PUSH0 DUP4 ADD MSTORE PUSH2 0x199F DUP2 PUSH2 0x1966 JUMP JUMPDEST SWAP1 POP SWAP2 SWAP1 POP JUMP JUMPDEST PUSH0 DUP2 SLOAD PUSH2 0x19B2 DUP2 PUSH2 0x160D JUMP JUMPDEST PUSH2 0x19BC DUP2 DUP7 PUSH2 0x12AE JUMP JUMPDEST SWAP5 POP PUSH1 0x1 DUP3 AND PUSH0 DUP2 EQ PUSH2 0x19D6 JUMPI PUSH1 0x1 DUP2 EQ PUSH2 0x19EC JUMPI PUSH2 0x1A1E JUMP JUMPDEST PUSH1 0xFF NOT DUP4 AND DUP7 MSTORE DUP2 ISZERO ISZERO PUSH1 0x20 MUL DUP7 ADD SWAP4 POP PUSH2 0x1A1E JUMP JUMPDEST PUSH2 0x19F5 DUP6 PUSH2 0x16AB JUMP JUMPDEST PUSH0 JUMPDEST DUP4 DUP2 LT ISZERO PUSH2 0x1A16 JUMPI DUP2 SLOAD DUP2 DUP10 ADD MSTORE PUSH1 0x1 DUP3 ADD SWAP2 POP PUSH1 0x20 DUP2 ADD SWAP1 POP PUSH2 0x19F7 JUMP JUMPDEST DUP1 DUP9 ADD SWAP6 POP POP POP JUMPDEST POP POP POP SWAP3 SWAP2 POP POP JUMP JUMPDEST PUSH0 PUSH1 0x80 DUP3 ADD SWAP1 POP DUP2 DUP2 SUB PUSH0 DUP4 ADD MSTORE PUSH2 0x1A3F DUP2 DUP8 PUSH2 0x19A6 JUMP JUMPDEST SWAP1 POP PUSH2 0x1A4E PUSH1 0x20 DUP4 ADD DUP7 PUSH2 0x130D JUMP JUMPDEST DUP2 DUP2 SUB PUSH1 0x40 DUP4 ADD MSTORE PUSH2 0x1A60 DUP2 DUP6 PUSH2 0x12CC JUMP JUMPDEST SWAP1 POP DUP2 DUP2 SUB PUSH1 0x60 DUP4 ADD MSTORE PUSH2 0x1A74 DUP2 DUP5 PUSH2 0x12CC JUMP JUMPDEST SWAP1 POP SWAP6 SWAP5 POP POP POP POP POP JUMP JUMPDEST PUSH32 0x4E6F206163746976652067616D652E0000000000000000000000000000000000 PUSH0 DUP3 ADD MSTORE POP JUMP JUMPDEST PUSH0 PUSH2 0x1AB3 PUSH1 0xF DUP4 PUSH2 0x12AE JUMP JUMPDEST SWAP2 POP PUSH2 0x1ABE DUP3 PUSH2 0x1A7F JUMP JUMPDEST PUSH1 0x20 DUP3 ADD SWAP1 POP SWAP2 SWAP1 POP JUMP JUMPDEST PUSH0 PUSH1 0x20 DUP3 ADD SWAP1 POP DUP2 DUP2 SUB PUSH0 DUP4 ADD MSTORE PUSH2 0x1AE0 DUP2 PUSH2 0x1AA7 JUMP JUMPDEST SWAP1 POP SWAP2 SWAP1 POP JUMP JUMPDEST PUSH0 PUSH2 0x1AF1 DUP3 PUSH2 0x1304 JUMP JUMPDEST SWAP2 POP PUSH2 0x1AFC DUP4 PUSH2 0x1304 JUMP JUMPDEST SWAP3 POP DUP3 DUP3 SUB SWAP1 POP DUP2 DUP2 GT ISZERO PUSH2 0x1B14 JUMPI PUSH2 0x1B13 PUSH2 0x148A JUMP JUMPDEST JUMPDEST SWAP3 SWAP2 POP POP JUMP JUMPDEST PUSH0 DUP2 SWAP1 POP SWAP3 SWAP2 POP POP JUMP JUMPDEST PUSH32 0x596F752068617665200000000000000000000000000000000000000000000000 PUSH0 DUP3 ADD MSTORE POP JUMP JUMPDEST PUSH0 PUSH2 0x1B58 PUSH1 0x9 DUP4 PUSH2 0x1B1A JUMP JUMPDEST SWAP2 POP PUSH2 0x1B63 DUP3 PUSH2 0x1B24 JUMP JUMPDEST PUSH1 0x9 DUP3 ADD SWAP1 POP SWAP2 SWAP1 POP JUMP JUMPDEST PUSH0 PUSH2 0x1B78 DUP3 PUSH2 0x12A4 JUMP JUMPDEST PUSH2 0x1B82 DUP2 DUP6 PUSH2 0x1B1A JUMP JUMPDEST SWAP4 POP PUSH2 0x1B92 DUP2 DUP6 PUSH1 0x20 DUP7 ADD PUSH2 0x12BE JUMP JUMPDEST DUP1 DUP5 ADD SWAP2 POP POP SWAP3 SWAP2 POP POP JUMP JUMPDEST PUSH32 0x207365636F6E6473206C65667400000000000000000000000000000000000000 PUSH0 DUP3 ADD MSTORE POP JUMP JUMPDEST PUSH0 PUSH2 0x1BD2 PUSH1 0xD DUP4 PUSH2 0x1B1A JUMP JUMPDEST SWAP2 POP PUSH2 0x1BDD DUP3 PUSH2 0x1B9E JUMP JUMPDEST PUSH1 0xD DUP3 ADD SWAP1 POP SWAP2 SWAP1 POP JUMP JUMPDEST PUSH0 PUSH2 0x1BF2 DUP3 PUSH2 0x1B4C JUMP JUMPDEST SWAP2 POP PUSH2 0x1BFE DUP3 DUP5 PUSH2 0x1B6E JUMP JUMPDEST SWAP2 POP PUSH2 0x1C09 DUP3 PUSH2 0x1BC6 JUMP JUMPDEST SWAP2 POP DUP2 SWAP1 POP SWAP3 SWAP2 POP POP JUMP JUMPDEST PUSH32 0x47616D6520616C726561647920696E2070726F67726573732E20456E64206974 PUSH0 DUP3 ADD MSTORE PUSH32 0x2066697273742E00000000000000000000000000000000000000000000000000 PUSH1 0x20 DUP3 ADD MSTORE POP JUMP JUMPDEST PUSH0 PUSH2 0x1C6E PUSH1 0x27 DUP4 PUSH2 0x12AE JUMP JUMPDEST SWAP2 POP PUSH2 0x1C79 DUP3 PUSH2 0x1C14 JUMP JUMPDEST PUSH1 0x40 DUP3 ADD SWAP1 POP SWAP2 SWAP1 POP JUMP JUMPDEST PUSH0 PUSH1 0x20 DUP3 ADD SWAP1 POP DUP2 DUP2 SUB PUSH0 DUP4 ADD MSTORE PUSH2 0x1C9B DUP2 PUSH2 0x1C62 JUMP JUMPDEST SWAP1 POP SWAP2 SWAP1 POP JUMP JUMPDEST PUSH0 PUSH1 0x40 DUP3 ADD SWAP1 POP PUSH2 0x1CB5 PUSH0 DUP4 ADD DUP6 PUSH2 0x130D JUMP JUMPDEST PUSH2 0x1CC2 PUSH1 0x20 DUP4 ADD DUP5 PUSH2 0x130D JUMP JUMPDEST SWAP4 SWAP3 POP POP POP JUMP JUMPDEST PUSH0 DUP2 SWAP1 POP SWAP2 SWAP1 POP JUMP JUMPDEST PUSH2 0x1CE3 PUSH2 0x1CDE DUP3 PUSH2 0x1304 JUMP JUMPDEST PUSH2 0x1CC9 JUMP JUMPDEST DUP3 MSTORE POP POP JUMP JUMPDEST PUSH0 PUSH20 0xFFFFFFFFFFFFFFFFFFFFFFFFFFFFFFFFFFFFFFFF DUP3 AND SWAP1 POP SWAP2 SWAP1 POP JUMP JUMPDEST PUSH0 PUSH2 0x1D12 DUP3 PUSH2 0x1CE9 JUMP JUMPDEST SWAP1 POP SWAP2 SWAP1 POP JUMP JUMPDEST PUSH0 DUP2 PUSH1 0x60 SHL SWAP1 POP SWAP2 SWAP1 POP JUMP JUMPDEST PUSH0 PUSH2 0x1D2F DUP3 PUSH2 0x1D19 JUMP JUMPDEST SWAP1 POP SWAP2 SWAP1 POP JUMP JUMPDEST PUSH0 PUSH2 0x1D40 DUP3 PUSH2 0x1D25 JUMP JUMPDEST SWAP1 POP SWAP2 SWAP1 POP JUMP JUMPDEST PUSH2 0x1D58 PUSH2 0x1D53 DUP3 PUSH2 0x1D08 JUMP JUMPDEST PUSH2 0x1D36 JUMP JUMPDEST DUP3 MSTORE POP POP JUMP JUMPDEST PUSH0 PUSH2 0x1D69 DUP3 DUP6 PUSH2 0x1CD2 JUMP JUMPDEST PUSH1 0x20 DUP3 ADD SWAP2 POP PUSH2 0x1D79 DUP3 DUP5 PUSH2 0x1D47 JUMP JUMPDEST PUSH1 0x14 DUP3 ADD SWAP2 POP DUP2 SWAP1 POP SWAP4 SWAP3 POP POP POP JUMP JUMPDEST PUSH32 0x4E487B7100000000000000000000000000000000000000000000000000000000 PUSH0 MSTORE PUSH1 0x12 PUSH1 0x4 MSTORE PUSH1 0x24 PUSH0 REVERT JUMPDEST PUSH0 PUSH2 0x1DC0 DUP3 PUSH2 0x1304 JUMP JUMPDEST SWAP2 POP PUSH2 0x1DCB DUP4 PUSH2 0x1304 JUMP JUMPDEST SWAP3 POP DUP3 PUSH2 0x1DDB JUMPI PUSH2 0x1DDA PUSH2 0x1D89 JUMP JUMPDEST JUMPDEST DUP3 DUP3 MOD SWAP1 POP SWAP3 SWAP2 POP POP JUMP JUMPDEST PUSH0 DUP2 SLOAD SWAP1 POP PUSH2 0x1DF4 DUP2 PUSH2 0x160D JUMP JUMPDEST SWAP1 POP SWAP2 SWAP1 POP JUMP JUMPDEST PUSH0 DUP2 SWAP1 POP DUP2 PUSH0 MSTORE PUSH1 0x20 PUSH0 KECCAK256 SWAP1 POP SWAP2 SWAP1 POP JUMP JUMPDEST DUP2 DUP2 SUB PUSH2 0x1E1B JUMPI POP POP PUSH2 0x1EF0 JUMP JUMPDEST PUSH2 0x1E24 DUP3 PUSH2 0x1DE6 JUMP JUMPDEST PUSH8 0xFFFFFFFFFFFFFFFF DUP2 GT ISZERO PUSH2 0x1E3D JUMPI PUSH2 0x1E3C PUSH2 0x1139 JUMP JUMPDEST JUMPDEST PUSH2 0x1E47 DUP3 SLOAD PUSH2 0x160D JUMP JUMPDEST PUSH2 0x1E52 DUP3 DUP3 DUP6 PUSH2 0x17BF JUMP JUMPDEST PUSH0 PUSH1 0x1F DUP4 GT PUSH1 0x1 DUP2 EQ PUSH2 0x1E7F JUMPI PUSH0 DUP5 ISZERO PUSH2 0x1E6D JUMPI DUP3 DUP8 ADD SLOAD SWAP1 POP JUMPDEST PUSH2 0x1E77 DUP6 DUP3 PUSH2 0x182D JUMP JUMPDEST DUP7 SSTORE POP PUSH2 0x1EE9 JUMP JUMPDEST PUSH1 0x1F NOT DUP5 AND PUSH2 0x1E8D DUP8 PUSH2 0x1DFB JUMP JUMPDEST SWAP7 POP PUSH2 0x1E98 DUP7 PUSH2 0x16AB JUMP JUMPDEST PUSH0 JUMPDEST DUP3 DUP2 LT ISZERO PUSH2 0x1EBF JUMPI DUP5 DUP10 ADD SLOAD DUP3 SSTORE PUSH1 0x1 DUP3 ADD SWAP2 POP PUSH1 0x1 DUP6 ADD SWAP5 POP PUSH1 0x20 DUP2 ADD SWAP1 POP PUSH2 0x1E9A JUMP JUMPDEST DUP7 DUP4 LT ISZERO PUSH2 0x1EDC JUMPI DUP5 DUP10 ADD SLOAD PUSH2 0x1ED8 PUSH1 0x1F DUP10 AND DUP3 PUSH2 0x1811 JUMP JUMPDEST DUP4 SSTORE POP JUMPDEST PUSH1 0x1 PUSH1 0x2 DUP9 MUL ADD DUP9 SSTORE POP POP POP JUMPDEST POP POP POP POP POP POP JUMPDEST JUMP JUMPDEST PUSH32 0x4E6F206163746976652067616D6520746F20656E642E00000000000000000000 PUSH0 DUP3 ADD MSTORE POP JUMP JUMPDEST PUSH0 PUSH2 0x1F26 PUSH1 0x16 DUP4 PUSH2 0x12AE JUMP JUMPDEST SWAP2 POP PUSH2 0x1F31 DUP3 PUSH2 0x1EF2 JUMP JUMPDEST PUSH1 0x20 DUP3 ADD SWAP1 POP SWAP2 SWAP1 POP JUMP JUMPDEST PUSH0 PUSH1 0x20 DUP3 ADD SWAP1 POP DUP2 DUP2 SUB PUSH0 DUP4 ADD MSTORE PUSH2 0x1F53 DUP2 PUSH2 0x1F1A JUMP JUMPDEST SWAP1 POP SWAP2 SWAP1 POP JUMP JUMPDEST PUSH32 0x47616D65206F7665722E20596F7520717569742E000000000000000000000000 PUSH0 DUP3 ADD MSTORE POP JUMP JUMPDEST PUSH0 PUSH2 0x1F8E PUSH1 0x14 DUP4 PUSH2 0x12AE JUMP JUMPDEST SWAP2 POP PUSH2 0x1F99 DUP3 PUSH2 0x1F5A JUMP JUMPDEST PUSH1 0x20 DUP3 ADD SWAP1 POP SWAP2 SWAP1 POP JUMP JUMPDEST PUSH0 PUSH1 0x20 DUP3 ADD SWAP1 POP DUP2 DUP2 SUB PUSH0 DUP4 ADD MSTORE PUSH2 0x1FBB DUP2 PUSH2 0x1F82 JUMP JUMPDEST SWAP1 POP SWAP2 SWAP1 POP JUMP JUMPDEST PUSH0 DUP2 MLOAD SWAP1 POP SWAP2 SWAP1 POP JUMP JUMPDEST PUSH0 DUP2 SWAP1 POP SWAP3 SWAP2 POP POP JUMP JUMPDEST PUSH0 PUSH2 0x1FE0 DUP3 PUSH2 0x1FC2 JUMP JUMPDEST PUSH2 0x1FEA DUP2 DUP6 PUSH2 0x1FCC JUMP JUMPDEST SWAP4 POP PUSH2 0x1FFA DUP2 DUP6 PUSH1 0x20 DUP7 ADD PUSH2 0x12BE JUMP JUMPDEST DUP1 DUP5 ADD SWAP2 POP POP SWAP3 SWAP2 POP POP JUMP JUMPDEST PUSH0 PUSH32 0xFF00000000000000000000000000000000000000000000000000000000000000 DUP3 AND SWAP1 POP SWAP2 SWAP1 POP JUMP JUMPDEST PUSH0 DUP2 SWAP1 POP SWAP2 SWAP1 POP JUMP JUMPDEST PUSH2 0x204B PUSH2 0x2046 DUP3 PUSH2 0x2006 JUMP JUMPDEST PUSH2 0x2031 JUMP JUMPDEST DUP3 MSTORE POP POP JUMP JUMPDEST PUSH32 0x2000000000000000000000000000000000000000000000000000000000000000 PUSH0 DUP3 ADD MSTORE POP JUMP JUMPDEST PUSH0 PUSH2 0x2085 PUSH1 0x1 DUP4 PUSH2 0x1B1A JUMP JUMPDEST SWAP2 POP PUSH2 0x2090 DUP3 PUSH2 0x2051 JUMP JUMPDEST PUSH1 0x1 DUP3 ADD SWAP1 POP SWAP2 SWAP1 POP JUMP JUMPDEST PUSH0 PUSH2 0x20A6 DUP3 DUP6 PUSH2 0x1FD6 JUMP JUMPDEST SWAP2 POP PUSH2 0x20B2 DUP3 DUP5 PUSH2 0x203A JUMP JUMPDEST PUSH1 0x1 DUP3 ADD SWAP2 POP PUSH2 0x20C1 DUP3 PUSH2 0x2079 JUMP JUMPDEST SWAP2 POP DUP2 SWAP1 POP SWAP4 SWAP3 POP POP POP JUMP JUMPDEST PUSH0 PUSH1 0xFF DUP3 AND SWAP1 POP SWAP2 SWAP1 POP JUMP JUMPDEST PUSH0 PUSH2 0x20E3 DUP3 PUSH2 0x20CD JUMP JUMPDEST SWAP2 POP PUSH1 0xFF DUP3 SUB PUSH2 0x20F6 JUMPI PUSH2 0x20F5 PUSH2 0x148A JUMP JUMPDEST JUMPDEST PUSH1 0x1 DUP3 ADD SWAP1 POP SWAP2 SWAP1 POP JUMP JUMPDEST PUSH32 0x57726F6E6720677565737365733A200000000000000000000000000000000000 PUSH0 DUP3 ADD MSTORE POP JUMP JUMPDEST PUSH0 PUSH2 0x2135 PUSH1 0xF DUP4 PUSH2 0x1B1A JUMP JUMPDEST SWAP2 POP PUSH2 0x2140 DUP3 PUSH2 0x2101 JUMP JUMPDEST PUSH1 0xF DUP3 ADD SWAP1 POP SWAP2 SWAP1 POP JUMP JUMPDEST PUSH0 PUSH2 0x2155 DUP3 PUSH2 0x2129 JUMP JUMPDEST SWAP2 POP PUSH2 0x2161 DUP3 DUP5 PUSH2 0x1B6E JUMP JUMPDEST SWAP2 POP DUP2 SWAP1 POP SWAP3 SWAP2 POP POP JUMP JUMPDEST PUSH32 0x48616E676D616E3A200000000000000000000000000000000000000000000000 PUSH0 DUP3 ADD MSTORE POP JUMP JUMPDEST PUSH0 PUSH2 0x21A0 PUSH1 0x9 DUP4 PUSH2 0x1B1A JUMP JUMPDEST SWAP2 POP PUSH2 0x21AB DUP3 PUSH2 0x216C JUMP JUMPDEST PUSH1 0x9 DUP3 ADD SWAP1 POP SWAP2 SWAP1 POP JUMP JUMPDEST PUSH0 DUP2 SLOAD PUSH2 0x21C2 DUP2 PUSH2 0x160D JUMP JUMPDEST PUSH2 0x21CC DUP2 DUP7 PUSH2 0x1B1A JUMP JUMPDEST SWAP5 POP PUSH1 0x1 DUP3 AND PUSH0 DUP2 EQ PUSH2 0x21E6 JUMPI PUSH1 0x1 DUP2 EQ PUSH2 0x21FB JUMPI PUSH2 0x222D JUMP JUMPDEST PUSH1 0xFF NOT DUP4 AND DUP7 MSTORE DUP2 ISZERO ISZERO DUP3 MUL DUP7 ADD SWAP4 POP PUSH2 0x222D JUMP JUMPDEST PUSH2 0x2204 DUP6 PUSH2 0x16AB JUMP JUMPDEST PUSH0 JUMPDEST DUP4 DUP2 LT ISZERO PUSH2 0x2225 JUMPI DUP2 SLOAD DUP2 DUP10 ADD MSTORE PUSH1 0x1 DUP3 ADD SWAP2 POP PUSH1 0x20 DUP2 ADD SWAP1 POP PUSH2 0x2206 JUMP JUMPDEST DUP4 DUP9 ADD SWAP6 POP POP POP JUMPDEST POP POP POP SWAP3 SWAP2 POP POP JUMP JUMPDEST PUSH0 PUSH2 0x2240 DUP3 PUSH2 0x2194 JUMP JUMPDEST SWAP2 POP PUSH2 0x224C DUP3 DUP5 PUSH2 0x21B6 JUMP JUMPDEST SWAP2 POP DUP2 SWAP1 POP SWAP3 SWAP2 POP POP JUMP JUMPDEST PUSH0 PUSH2 0x2261 DUP3 PUSH2 0x20CD JUMP JUMPDEST SWAP2 POP PUSH2 0x226C DUP4 PUSH2 0x20CD JUMP JUMPDEST SWAP3 POP DUP3 DUP3 ADD SWAP1 POP PUSH1 0xFF DUP2 GT ISZERO PUSH2 0x2285 JUMPI PUSH2 0x2284 PUSH2 0x148A JUMP JUMPDEST JUMPDEST SWAP3 SWAP2 POP POP JUMP JUMPDEST PUSH0 PUSH2 0x2295 DUP3 PUSH2 0x1304 JUMP JUMPDEST SWAP2 POP PUSH32 0xFFFFFFFFFFFFFFFFFFFFFFFFFFFFFFFFFFFFFFFFFFFFFFFFFFFFFFFFFFFFFFFF DUP3 SUB PUSH2 0x22C7 JUMPI PUSH2 0x22C6 PUSH2 0x148A JUMP JUMPDEST JUMPDEST PUSH1 0x1 DUP3 ADD SWAP1 POP SWAP2 SWAP1 POP JUMP JUMPDEST PUSH0 PUSH2 0x22DC DUP3 PUSH2 0x1304 JUMP JUMPDEST SWAP2 POP PUSH2 0x22E7 DUP4 PUSH2 0x1304 JUMP JUMPDEST SWAP3 POP DUP3 PUSH2 0x22F7 JUMPI PUSH2 0x22F6 PUSH2 0x1D89 JUMP JUMPDEST JUMPDEST DUP3 DUP3 DIV SWAP1 POP SWAP3 SWAP2 POP POP JUMP INVALID LOG2 PUSH5 0x6970667358 0x22 SLT KECCAK256 0x4D 0x24 SWAP10 0xE4 DUP8 PUSH9 0x2EB07CC64691D57249 GASPRICE PUSH8 0xB1D1A2FD5D437EE3 STATICCALL 0xC6 DUP1 EXP 0xF 0x27 PUSH21 0x64736F6C634300081A003300000000000000000000 "
				},
				"gasEstimates": {
					"creation": {
						"codeDepositCost": "1803200",
						"executionCost": "infinite",
						"totalCost": "infinite"
					},
					"external": {
						"displayTimeLeft()": "infinite",
						"getGameState()": "infinite",
						"guess(string)": "infinite",
						"quit()": "28423",
						"startGame()": "infinite"
					},
					"internal": {
						"getHangmanFigure()": "infinite",
						"getWrongGuesses()": "infinite",
						"toLowerCase(bytes1)": "infinite",
						"uintToString(uint256)": "infinite"
					}
				},
				"methodIdentifiers": {
					"displayTimeLeft()": "d1b9252e",
					"getGameState()": "b7d0628b",
					"guess(string)": "4eee59b3",
					"quit()": "fc2b8cc3",
					"startGame()": "d65ab5f2"
				}
			},
			"storageLayout": {
				"storage": [
					{
						"astId": 56,
						"contract": "contracts/hangman_final.sol:Hangman",
						"label": "wordDict",
						"offset": 0,
						"slot": "0",
						"type": "t_array(t_string_storage)50_storage"
					},
					{
						"astId": 58,
						"contract": "contracts/hangman_final.sol:Hangman",
						"label": "currWord",
						"offset": 0,
						"slot": "50",
						"type": "t_string_storage"
					},
					{
						"astId": 60,
						"contract": "contracts/hangman_final.sol:Hangman",
						"label": "hangmanWord",
						"offset": 0,
						"slot": "51",
						"type": "t_string_storage"
					},
					{
						"astId": 62,
						"contract": "contracts/hangman_final.sol:Hangman",
						"label": "attemptsLeft",
						"offset": 0,
						"slot": "52",
						"type": "t_uint256"
					},
					{
						"astId": 64,
						"contract": "contracts/hangman_final.sol:Hangman",
						"label": "gameActive",
						"offset": 0,
						"slot": "53",
						"type": "t_bool"
					},
					{
						"astId": 66,
						"contract": "contracts/hangman_final.sol:Hangman",
						"label": "gameStartTime",
						"offset": 0,
						"slot": "54",
						"type": "t_uint256"
					},
					{
						"astId": 73,
						"contract": "contracts/hangman_final.sol:Hangman",
						"label": "wrongGuesses",
						"offset": 0,
						"slot": "55",
						"type": "t_mapping(t_bytes1,t_bool)"
					},
					{
						"astId": 86,
						"contract": "contracts/hangman_final.sol:Hangman",
						"label": "hangmanStages",
						"offset": 0,
						"slot": "56",
						"type": "t_array(t_string_storage)8_storage"
					}
				],
				"types": {
					"t_array(t_string_storage)50_storage": {
						"base": "t_string_storage",
						"encoding": "inplace",
						"label": "string[50]",
						"numberOfBytes": "1600"
					},
					"t_array(t_string_storage)8_storage": {
						"base": "t_string_storage",
						"encoding": "inplace",
						"label": "string[8]",
						"numberOfBytes": "256"
					},
					"t_bool": {
						"encoding": "inplace",
						"label": "bool",
						"numberOfBytes": "1"
					},
					"t_bytes1": {
						"encoding": "inplace",
						"label": "bytes1",
						"numberOfBytes": "1"
					},
					"t_mapping(t_bytes1,t_bool)": {
						"encoding": "mapping",
						"key": "t_bytes1",
						"label": "mapping(bytes1 => bool)",
						"numberOfBytes": "32",
						"value": "t_bool"
					},
					"t_string_storage": {
						"encoding": "bytes",
						"label": "string",
						"numberOfBytes": "32"
					},
					"t_uint256": {
						"encoding": "inplace",
						"label": "uint256",
						"numberOfBytes": "32"
					}
				}
			},
			"userdoc": {
				"kind": "user",
				"methods": {},
				"version": 1
			}
		}
	}
}