{
	"data": {
		"bytecode": {
			"linkReferences": {},
			"object": "60806040526040518061010001604052806040518060400160405280600281526020017f207c00000000000000000000000000000000000000000000000000000000000081525081526020016040518060400160405280600381526020017f207c2d000000000000000000000000000000000000000000000000000000000081525081526020016040518060400160405280600481526020017f207c2d6f0000000000000000000000000000000000000000000000000000000081525081526020016040518060400160405280600581526020017f207c2d6f2d00000000000000000000000000000000000000000000000000000081525081526020016040518060400160405280600581526020017f207c2d6f3c00000000000000000000000000000000000000000000000000000081525081526020016040518060400160405280600681526020017f207c2d6f3c2d000000000000000000000000000000000000000000000000000081525081526020016040518060400160405280600781526020017f207c2d6f3c2d2d0000000000000000000000000000000000000000000000000081525081526020016040518060400160405280600781526020017f207c2d6f3c2d3c0000000000000000000000000000000000000000000000000081525081525060059060086101f6929190610208565b50348015610202575f80fd5b506105d8565b8260088101928215610243579160200282015b828111156102425782518290816102329190610509565b509160200191906001019061021b565b5b5090506102509190610254565b5090565b5b80821115610273575f818161026a9190610277565b50600101610255565b5090565b50805461028390610333565b5f825580601f1061029457506102b1565b601f0160209004905f5260205f20908101906102b091906102b4565b5b50565b5b808211156102cb575f815f9055506001016102b5565b5090565b5f81519050919050565b7f4e487b71000000000000000000000000000000000000000000000000000000005f52604160045260245ffd5b7f4e487b71000000000000000000000000000000000000000000000000000000005f52602260045260245ffd5b5f600282049050600182168061034a57607f821691505b60208210810361035d5761035c610306565b5b50919050565b5f819050815f5260205f209050919050565b5f6020601f8301049050919050565b5f82821b905092915050565b5f600883026103bf7fffffffffffffffffffffffffffffffffffffffffffffffffffffffffffffffff82610384565b6103c98683610384565b95508019841693508086168417925050509392505050565b5f819050919050565b5f819050919050565b5f61040d610408610403846103e1565b6103ea565b6103e1565b9050919050565b5f819050919050565b610426836103f3565b61043a61043282610414565b848454610390565b825550505050565b5f90565b61044e610442565b61045981848461041d565b505050565b5b8181101561047c576104715f82610446565b60018101905061045f565b5050565b601f8211156104c15761049281610363565b61049b84610375565b810160208510156104aa578190505b6104be6104b685610375565b83018261045e565b50505b505050565b5f82821c905092915050565b5f6104e15f19846008026104c6565b1980831691505092915050565b5f6104f983836104d2565b9150826002028217905092915050565b610512826102cf565b67ffffffffffffffff81111561052b5761052a6102d9565b5b6105358254610333565b610540828285610480565b5f60209050601f831160018114610571575f841561055f578287015190505b61056985826104ee565b8655506105d0565b601f19841661057f86610363565b5f5b828110156105a657848901518255600182019150602085019450602081019050610581565b868310156105c357848901516105bf601f8916826104d2565b8355505b6001600288020188555050505b505050505050565b611301806105e55f395ff3fe608060405234801561000f575f80fd5b506004361061004a575f3560e01c806304d15a8d1461004e5780634eee59b31461006c578063610cbea61461009f578063b7d0628b146100bd575b5f80fd5b6100566100de565b6040516100639190610a4d565b60405180910390f35b61008660048036038101906100819190610baa565b61018f565b6040516100969493929190610c09565b60405180910390f35b6100a76106bf565b6040516100b49190610a4d565b60405180910390f35b6100c561086d565b6040516100d59493929190610c09565b60405180910390f35b6060600560025460076100f19190610c8e565b6008811061010257610101610cc1565b5b01805461010e90610d1b565b80601f016020809104026020016040519081016040528092919081815260200182805461013a90610d1b565b80156101855780601f1061015c57610100808354040283529160200191610185565b820191905f5260205f20905b81548152906001019060200180831161016857829003601f168201915b5050505050905090565b60605f60608060018551146101d9576040517f08c379a00000000000000000000000000000000000000000000000000000000081526004016101d090610d95565b60405180910390fd5b60045f9054906101000a900460ff16610227576040517f08c379a000000000000000000000000000000000000000000000000000000000815260040161021e90610dfd565b60405180910390fd5b5f61024e865f8151811061023e5761023d610cc1565b5b602001015160f81c60f81b610920565b90505f806001805461025f90610d1b565b80601f016020809104026020016040519081016040528092919081815260200182805461028b90610d1b565b80156102d65780601f106102ad576101008083540402835291602001916102d6565b820191905f5260205f20905b8154815290600101906020018083116102b957829003601f168201915b505050505090505f8080546102ea90610d1b565b80601f016020809104026020016040519081016040528092919081815260200182805461031690610d1b565b80156103615780601f1061033857610100808354040283529160200191610361565b820191905f5260205f20905b81548152906001019060200180831161034457829003601f168201915b505050505090505f5b815181101561046057847effffffffffffffffffffffffffffffffffffffffffffffffffffffffffffff19166103bc8383815181106103ac576103ab610cc1565b5b602001015160f81c60f81b610920565b7effffffffffffffffffffffffffffffffffffffffffffffffffffffffffffff191603610453578181815181106103f6576103f5610cc1565b5b602001015160f81c60f81b8360028361040f9190610e1b565b815181106104205761041f610cc1565b5b60200101907effffffffffffffffffffffffffffffffffffffffffffffffffffffffffffff191690815f1a905350600193505b808060010191505061036a565b5081600190816104709190610ff9565b50826105bf5760035f857effffffffffffffffffffffffffffffffffffffffffffffffffffffffffffff19167effffffffffffffffffffffffffffffffffffffffffffffffffffffffffffff191681526020019081526020015f205f9054906101000a900460ff166105be57600160035f867effffffffffffffffffffffffffffffffffffffffffffffffffffffffffffff19167effffffffffffffffffffffffffffffffffffffffffffffffffffffffffffff191681526020019081526020015f205f6101000a81548160ff02191690831515021790555060025f81548092919061055b906110c8565b91905055505f600254036105bd575f60045f6101000a81548160ff0219169083151502179055506040517f08c379a00000000000000000000000000000000000000000000000000000000081526004016105b490611139565b60405180910390fd5b5b5b7f1512161b9f23a85fd9ccec12d9cd3abeb7333bf293dc69250460c4c054a27fc660016002546105ed6106bf565b6105f56100de565b60405161060594939291906111d8565b60405180910390a1600160025461061a6106bf565b6106226100de565b83805461062e90610d1b565b80601f016020809104026020016040519081016040528092919081815260200182805461065a90610d1b565b80156106a55780601f1061067c576101008083540402835291602001916106a5565b820191905f5260205f20905b81548152906001019060200180831161068857829003601f168201915b505050505093509750975097509750505050509193509193565b60605f603467ffffffffffffffff8111156106dd576106dc610a86565b5b6040519080825280601f01601f19166020018201604052801561070f5781602001600182028036833780820191505090505b5090505f80606190505b607a8160ff16116108645760035f8260f81b7effffffffffffffffffffffffffffffffffffffffffffffffffffffffffffff19167effffffffffffffffffffffffffffffffffffffffffffffffffffffffffffff191681526020019081526020015f205f9054906101000a900460ff1615610851578060f81b8383815181106107a5576107a4610cc1565b5b60200101907effffffffffffffffffffffffffffffffffffffffffffffffffffffffffffff191690815f1a9053507f2000000000000000000000000000000000000000000000000000000000000000836001846108029190611230565b8151811061081357610812610cc1565b5b60200101907effffffffffffffffffffffffffffffffffffffffffffffffffffffffffffff191690815f1a90535060028261084e9190611230565b91505b808061085c9061126f565b915050610719565b50819250505090565b60605f60608060016002546108806106bf565b6108886100de565b83805461089490610d1b565b80601f01602080910402602001604051908101604052809291908181526020018280546108c090610d1b565b801561090b5780601f106108e25761010080835404028352916020019161090b565b820191905f5260205f20905b8154815290600101906020018083116108ee57829003601f168201915b50505050509350935093509350935090919293565b5f7f4100000000000000000000000000000000000000000000000000000000000000827effffffffffffffffffffffffffffffffffffffffffffffffffffffffffffff1916101580156109b557507f5a00000000000000000000000000000000000000000000000000000000000000827effffffffffffffffffffffffffffffffffffffffffffffffffffffffffffff191611155b156109d45760208260f81c6109ca9190611297565b60f81b90506109d8565b8190505b919050565b5f81519050919050565b5f82825260208201905092915050565b8281835e5f83830152505050565b5f601f19601f8301169050919050565b5f610a1f826109dd565b610a2981856109e7565b9350610a398185602086016109f7565b610a4281610a05565b840191505092915050565b5f6020820190508181035f830152610a658184610a15565b905092915050565b5f604051905090565b5f80fd5b5f80fd5b5f80fd5b5f80fd5b7f4e487b71000000000000000000000000000000000000000000000000000000005f52604160045260245ffd5b610abc82610a05565b810181811067ffffffffffffffff82111715610adb57610ada610a86565b5b80604052505050565b5f610aed610a6d565b9050610af98282610ab3565b919050565b5f67ffffffffffffffff821115610b1857610b17610a86565b5b610b2182610a05565b9050602081019050919050565b828183375f83830152505050565b5f610b4e610b4984610afe565b610ae4565b905082815260208101848484011115610b6a57610b69610a82565b5b610b75848285610b2e565b509392505050565b5f82601f830112610b9157610b90610a7e565b5b8135610ba1848260208601610b3c565b91505092915050565b5f60208284031215610bbf57610bbe610a76565b5b5f82013567ffffffffffffffff811115610bdc57610bdb610a7a565b5b610be884828501610b7d565b91505092915050565b5f819050919050565b610c0381610bf1565b82525050565b5f6080820190508181035f830152610c218187610a15565b9050610c306020830186610bfa565b8181036040830152610c428185610a15565b90508181036060830152610c568184610a15565b905095945050505050565b7f4e487b71000000000000000000000000000000000000000000000000000000005f52601160045260245ffd5b5f610c9882610bf1565b9150610ca383610bf1565b9250828203905081811115610cbb57610cba610c61565b5b92915050565b7f4e487b71000000000000000000000000000000000000000000000000000000005f52603260045260245ffd5b7f4e487b71000000000000000000000000000000000000000000000000000000005f52602260045260245ffd5b5f6002820490506001821680610d3257607f821691505b602082108103610d4557610d44610cee565b5b50919050565b7f496e707574206d75737420626520612073696e676c65206368617261637465725f82015250565b5f610d7f6020836109e7565b9150610d8a82610d4b565b602082019050919050565b5f6020820190508181035f830152610dac81610d73565b9050919050565b7f4e6f206163746976652067616d652e2053746172742061206e6577206f6e652e5f82015250565b5f610de76020836109e7565b9150610df282610db3565b602082019050919050565b5f6020820190508181035f830152610e1481610ddb565b9050919050565b5f610e2582610bf1565b9150610e3083610bf1565b9250828202610e3e81610bf1565b91508282048414831517610e5557610e54610c61565b5b5092915050565b5f819050815f5260205f209050919050565b5f6020601f8301049050919050565b5f82821b905092915050565b5f60088302610eb87fffffffffffffffffffffffffffffffffffffffffffffffffffffffffffffffff82610e7d565b610ec28683610e7d565b95508019841693508086168417925050509392505050565b5f819050919050565b5f610efd610ef8610ef384610bf1565b610eda565b610bf1565b9050919050565b5f819050919050565b610f1683610ee3565b610f2a610f2282610f04565b848454610e89565b825550505050565b5f90565b610f3e610f32565b610f49818484610f0d565b505050565b5b81811015610f6c57610f615f82610f36565b600181019050610f4f565b5050565b601f821115610fb157610f8281610e5c565b610f8b84610e6e565b81016020851015610f9a578190505b610fae610fa685610e6e565b830182610f4e565b50505b505050565b5f82821c905092915050565b5f610fd15f1984600802610fb6565b1980831691505092915050565b5f610fe98383610fc2565b9150826002028217905092915050565b611002826109dd565b67ffffffffffffffff81111561101b5761101a610a86565b5b6110258254610d1b565b611030828285610f70565b5f60209050601f831160018114611061575f841561104f578287015190505b6110598582610fde565b8655506110c0565b601f19841661106f86610e5c565b5f5b8281101561109657848901518255600182019150602085019450602081019050611071565b868310156110b357848901516110af601f891682610fc2565b8355505b6001600288020188555050505b505050505050565b5f6110d282610bf1565b91505f82036110e4576110e3610c61565b5b600182039050919050565b7f47616d65204f7665723a204e6f20617474656d707473206c6566742e000000005f82015250565b5f611123601c836109e7565b915061112e826110ef565b602082019050919050565b5f6020820190508181035f83015261115081611117565b9050919050565b5f815461116381610d1b565b61116d81866109e7565b9450600182165f8114611187576001811461119d576111cf565b60ff1983168652811515602002860193506111cf565b6111a685610e5c565b5f5b838110156111c7578154818901526001820191506020810190506111a8565b808801955050505b50505092915050565b5f6080820190508181035f8301526111f08187611157565b90506111ff6020830186610bfa565b81810360408301526112118185610a15565b905081810360608301526112258184610a15565b905095945050505050565b5f61123a82610bf1565b915061124583610bf1565b925082820190508082111561125d5761125c610c61565b5b92915050565b5f60ff82169050919050565b5f61127982611263565b915060ff820361128c5761128b610c61565b5b600182019050919050565b5f6112a182611263565b91506112ac83611263565b9250828201905060ff8111156112c5576112c4610c61565b5b9291505056fea2646970667358221220b85683b882228d804327cc19810143a89af6165f5bd813cdb35ac1b7d4c9e76e64736f6c634300081a0033",
			"opcodes": "PUSH1 0x80 PUSH1 0x40 MSTORE PUSH1 0x40 MLOAD DUP1 PUSH2 0x100 ADD PUSH1 0x40 MSTORE DUP1 PUSH1 0x40 MLOAD DUP1 PUSH1 0x40 ADD PUSH1 0x40 MSTORE DUP1 PUSH1 0x2 DUP2 MSTORE PUSH1 0x20 ADD PUSH32 0x207C000000000000000000000000000000000000000000000000000000000000 DUP2 MSTORE POP DUP2 MSTORE PUSH1 0x20 ADD PUSH1 0x40 MLOAD DUP1 PUSH1 0x40 ADD PUSH1 0x40 MSTORE DUP1 PUSH1 0x3 DUP2 MSTORE PUSH1 0x20 ADD PUSH32 0x207C2D0000000000000000000000000000000000000000000000000000000000 DUP2 MSTORE POP DUP2 MSTORE PUSH1 0x20 ADD PUSH1 0x40 MLOAD DUP1 PUSH1 0x40 ADD PUSH1 0x40 MSTORE DUP1 PUSH1 0x4 DUP2 MSTORE PUSH1 0x20 ADD PUSH32 0x207C2D6F00000000000000000000000000000000000000000000000000000000 DUP2 MSTORE POP DUP2 MSTORE PUSH1 0x20 ADD PUSH1 0x40 MLOAD DUP1 PUSH1 0x40 ADD PUSH1 0x40 MSTORE DUP1 PUSH1 0x5 DUP2 MSTORE PUSH1 0x20 ADD PUSH32 0x207C2D6F2D000000000000000000000000000000000000000000000000000000 DUP2 MSTORE POP DUP2 MSTORE PUSH1 0x20 ADD PUSH1 0x40 MLOAD DUP1 PUSH1 0x40 ADD PUSH1 0x40 MSTORE DUP1 PUSH1 0x5 DUP2 MSTORE PUSH1 0x20 ADD PUSH32 0x207C2D6F3C000000000000000000000000000000000000000000000000000000 DUP2 MSTORE POP DUP2 MSTORE PUSH1 0x20 ADD PUSH1 0x40 MLOAD DUP1 PUSH1 0x40 ADD PUSH1 0x40 MSTORE DUP1 PUSH1 0x6 DUP2 MSTORE PUSH1 0x20 ADD PUSH32 0x207C2D6F3C2D0000000000000000000000000000000000000000000000000000 DUP2 MSTORE POP DUP2 MSTORE PUSH1 0x20 ADD PUSH1 0x40 MLOAD DUP1 PUSH1 0x40 ADD PUSH1 0x40 MSTORE DUP1 PUSH1 0x7 DUP2 MSTORE PUSH1 0x20 ADD PUSH32 0x207C2D6F3C2D2D00000000000000000000000000000000000000000000000000 DUP2 MSTORE POP DUP2 MSTORE PUSH1 0x20 ADD PUSH1 0x40 MLOAD DUP1 PUSH1 0x40 ADD PUSH1 0x40 MSTORE DUP1 PUSH1 0x7 DUP2 MSTORE PUSH1 0x20 ADD PUSH32 0x207C2D6F3C2D3C00000000000000000000000000000000000000000000000000 DUP2 MSTORE POP DUP2 MSTORE POP PUSH1 0x5 SWAP1 PUSH1 0x8 PUSH2 0x1F6 SWAP3 SWAP2 SWAP1 PUSH2 0x208 JUMP JUMPDEST POP CALLVALUE DUP1 ISZERO PUSH2 0x202 JUMPI PUSH0 DUP1 REVERT JUMPDEST POP PUSH2 0x5D8 JUMP JUMPDEST DUP3 PUSH1 0x8 DUP2 ADD SWAP3 DUP3 ISZERO PUSH2 0x243 JUMPI SWAP2 PUSH1 0x20 MUL DUP3 ADD JUMPDEST DUP3 DUP2 GT ISZERO PUSH2 0x242 JUMPI DUP3 MLOAD DUP3 SWAP1 DUP2 PUSH2 0x232 SWAP2 SWAP1 PUSH2 0x509 JUMP JUMPDEST POP SWAP2 PUSH1 0x20 ADD SWAP2 SWAP1 PUSH1 0x1 ADD SWAP1 PUSH2 0x21B JUMP JUMPDEST JUMPDEST POP SWAP1 POP PUSH2 0x250 SWAP2 SWAP1 PUSH2 0x254 JUMP JUMPDEST POP SWAP1 JUMP JUMPDEST JUMPDEST DUP1 DUP3 GT ISZERO PUSH2 0x273 JUMPI PUSH0 DUP2 DUP2 PUSH2 0x26A SWAP2 SWAP1 PUSH2 0x277 JUMP JUMPDEST POP PUSH1 0x1 ADD PUSH2 0x255 JUMP JUMPDEST POP SWAP1 JUMP JUMPDEST POP DUP1 SLOAD PUSH2 0x283 SWAP1 PUSH2 0x333 JUMP JUMPDEST PUSH0 DUP3 SSTORE DUP1 PUSH1 0x1F LT PUSH2 0x294 JUMPI POP PUSH2 0x2B1 JUMP JUMPDEST PUSH1 0x1F ADD PUSH1 0x20 SWAP1 DIV SWAP1 PUSH0 MSTORE PUSH1 0x20 PUSH0 KECCAK256 SWAP1 DUP2 ADD SWAP1 PUSH2 0x2B0 SWAP2 SWAP1 PUSH2 0x2B4 JUMP JUMPDEST JUMPDEST POP JUMP JUMPDEST JUMPDEST DUP1 DUP3 GT ISZERO PUSH2 0x2CB JUMPI PUSH0 DUP2 PUSH0 SWAP1 SSTORE POP PUSH1 0x1 ADD PUSH2 0x2B5 JUMP JUMPDEST POP SWAP1 JUMP JUMPDEST PUSH0 DUP2 MLOAD SWAP1 POP SWAP2 SWAP1 POP JUMP JUMPDEST PUSH32 0x4E487B7100000000000000000000000000000000000000000000000000000000 PUSH0 MSTORE PUSH1 0x41 PUSH1 0x4 MSTORE PUSH1 0x24 PUSH0 REVERT JUMPDEST PUSH32 0x4E487B7100000000000000000000000000000000000000000000000000000000 PUSH0 MSTORE PUSH1 0x22 PUSH1 0x4 MSTORE PUSH1 0x24 PUSH0 REVERT JUMPDEST PUSH0 PUSH1 0x2 DUP3 DIV SWAP1 POP PUSH1 0x1 DUP3 AND DUP1 PUSH2 0x34A JUMPI PUSH1 0x7F DUP3 AND SWAP2 POP JUMPDEST PUSH1 0x20 DUP3 LT DUP2 SUB PUSH2 0x35D JUMPI PUSH2 0x35C PUSH2 0x306 JUMP JUMPDEST JUMPDEST POP SWAP2 SWAP1 POP JUMP JUMPDEST PUSH0 DUP2 SWAP1 POP DUP2 PUSH0 MSTORE PUSH1 0x20 PUSH0 KECCAK256 SWAP1 POP SWAP2 SWAP1 POP JUMP JUMPDEST PUSH0 PUSH1 0x20 PUSH1 0x1F DUP4 ADD DIV SWAP1 POP SWAP2 SWAP1 POP JUMP JUMPDEST PUSH0 DUP3 DUP3 SHL SWAP1 POP SWAP3 SWAP2 POP POP JUMP JUMPDEST PUSH0 PUSH1 0x8 DUP4 MUL PUSH2 0x3BF PUSH32 0xFFFFFFFFFFFFFFFFFFFFFFFFFFFFFFFFFFFFFFFFFFFFFFFFFFFFFFFFFFFFFFFF DUP3 PUSH2 0x384 JUMP JUMPDEST PUSH2 0x3C9 DUP7 DUP4 PUSH2 0x384 JUMP JUMPDEST SWAP6 POP DUP1 NOT DUP5 AND SWAP4 POP DUP1 DUP7 AND DUP5 OR SWAP3 POP POP POP SWAP4 SWAP3 POP POP POP JUMP JUMPDEST PUSH0 DUP2 SWAP1 POP SWAP2 SWAP1 POP JUMP JUMPDEST PUSH0 DUP2 SWAP1 POP SWAP2 SWAP1 POP JUMP JUMPDEST PUSH0 PUSH2 0x40D PUSH2 0x408 PUSH2 0x403 DUP5 PUSH2 0x3E1 JUMP JUMPDEST PUSH2 0x3EA JUMP JUMPDEST PUSH2 0x3E1 JUMP JUMPDEST SWAP1 POP SWAP2 SWAP1 POP JUMP JUMPDEST PUSH0 DUP2 SWAP1 POP SWAP2 SWAP1 POP JUMP JUMPDEST PUSH2 0x426 DUP4 PUSH2 0x3F3 JUMP JUMPDEST PUSH2 0x43A PUSH2 0x432 DUP3 PUSH2 0x414 JUMP JUMPDEST DUP5 DUP5 SLOAD PUSH2 0x390 JUMP JUMPDEST DUP3 SSTORE POP POP POP POP JUMP JUMPDEST PUSH0 SWAP1 JUMP JUMPDEST PUSH2 0x44E PUSH2 0x442 JUMP JUMPDEST PUSH2 0x459 DUP2 DUP5 DUP5 PUSH2 0x41D JUMP JUMPDEST POP POP POP JUMP JUMPDEST JUMPDEST DUP2 DUP2 LT ISZERO PUSH2 0x47C JUMPI PUSH2 0x471 PUSH0 DUP3 PUSH2 0x446 JUMP JUMPDEST PUSH1 0x1 DUP2 ADD SWAP1 POP PUSH2 0x45F JUMP JUMPDEST POP POP JUMP JUMPDEST PUSH1 0x1F DUP3 GT ISZERO PUSH2 0x4C1 JUMPI PUSH2 0x492 DUP2 PUSH2 0x363 JUMP JUMPDEST PUSH2 0x49B DUP5 PUSH2 0x375 JUMP JUMPDEST DUP2 ADD PUSH1 0x20 DUP6 LT ISZERO PUSH2 0x4AA JUMPI DUP2 SWAP1 POP JUMPDEST PUSH2 0x4BE PUSH2 0x4B6 DUP6 PUSH2 0x375 JUMP JUMPDEST DUP4 ADD DUP3 PUSH2 0x45E JUMP JUMPDEST POP POP JUMPDEST POP POP POP JUMP JUMPDEST PUSH0 DUP3 DUP3 SHR SWAP1 POP SWAP3 SWAP2 POP POP JUMP JUMPDEST PUSH0 PUSH2 0x4E1 PUSH0 NOT DUP5 PUSH1 0x8 MUL PUSH2 0x4C6 JUMP JUMPDEST NOT DUP1 DUP4 AND SWAP2 POP POP SWAP3 SWAP2 POP POP JUMP JUMPDEST PUSH0 PUSH2 0x4F9 DUP4 DUP4 PUSH2 0x4D2 JUMP JUMPDEST SWAP2 POP DUP3 PUSH1 0x2 MUL DUP3 OR SWAP1 POP SWAP3 SWAP2 POP POP JUMP JUMPDEST PUSH2 0x512 DUP3 PUSH2 0x2CF JUMP JUMPDEST PUSH8 0xFFFFFFFFFFFFFFFF DUP2 GT ISZERO PUSH2 0x52B JUMPI PUSH2 0x52A PUSH2 0x2D9 JUMP JUMPDEST JUMPDEST PUSH2 0x535 DUP3 SLOAD PUSH2 0x333 JUMP JUMPDEST PUSH2 0x540 DUP3 DUP3 DUP6 PUSH2 0x480 JUMP JUMPDEST PUSH0 PUSH1 0x20 SWAP1 POP PUSH1 0x1F DUP4 GT PUSH1 0x1 DUP2 EQ PUSH2 0x571 JUMPI PUSH0 DUP5 ISZERO PUSH2 0x55F JUMPI DUP3 DUP8 ADD MLOAD SWAP1 POP JUMPDEST PUSH2 0x569 DUP6 DUP3 PUSH2 0x4EE JUMP JUMPDEST DUP7 SSTORE POP PUSH2 0x5D0 JUMP JUMPDEST PUSH1 0x1F NOT DUP5 AND PUSH2 0x57F DUP7 PUSH2 0x363 JUMP JUMPDEST PUSH0 JUMPDEST DUP3 DUP2 LT ISZERO PUSH2 0x5A6 JUMPI DUP5 DUP10 ADD MLOAD DUP3 SSTORE PUSH1 0x1 DUP3 ADD SWAP2 POP PUSH1 0x20 DUP6 ADD SWAP5 POP PUSH1 0x20 DUP2 ADD SWAP1 POP PUSH2 0x581 JUMP JUMPDEST DUP7 DUP4 LT ISZERO PUSH2 0x5C3 JUMPI DUP5 DUP10 ADD MLOAD PUSH2 0x5BF PUSH1 0x1F DUP10 AND DUP3 PUSH2 0x4D2 JUMP JUMPDEST DUP4 SSTORE POP JUMPDEST PUSH1 0x1 PUSH1 0x2 DUP9 MUL ADD DUP9 SSTORE POP POP POP JUMPDEST POP POP POP POP POP POP JUMP JUMPDEST PUSH2 0x1301 DUP1 PUSH2 0x5E5 PUSH0 CODECOPY PUSH0 RETURN INVALID PUSH1 0x80 PUSH1 0x40 MSTORE CALLVALUE DUP1 ISZERO PUSH2 0xF JUMPI PUSH0 DUP1 REVERT JUMPDEST POP PUSH1 0x4 CALLDATASIZE LT PUSH2 0x4A JUMPI PUSH0 CALLDATALOAD PUSH1 0xE0 SHR DUP1 PUSH4 0x4D15A8D EQ PUSH2 0x4E JUMPI DUP1 PUSH4 0x4EEE59B3 EQ PUSH2 0x6C JUMPI DUP1 PUSH4 0x610CBEA6 EQ PUSH2 0x9F JUMPI DUP1 PUSH4 0xB7D0628B EQ PUSH2 0xBD JUMPI JUMPDEST PUSH0 DUP1 REVERT JUMPDEST PUSH2 0x56 PUSH2 0xDE JUMP JUMPDEST PUSH1 0x40 MLOAD PUSH2 0x63 SWAP2 SWAP1 PUSH2 0xA4D JUMP JUMPDEST PUSH1 0x40 MLOAD DUP1 SWAP2 SUB SWAP1 RETURN JUMPDEST PUSH2 0x86 PUSH1 0x4 DUP1 CALLDATASIZE SUB DUP2 ADD SWAP1 PUSH2 0x81 SWAP2 SWAP1 PUSH2 0xBAA JUMP JUMPDEST PUSH2 0x18F JUMP JUMPDEST PUSH1 0x40 MLOAD PUSH2 0x96 SWAP5 SWAP4 SWAP3 SWAP2 SWAP1 PUSH2 0xC09 JUMP JUMPDEST PUSH1 0x40 MLOAD DUP1 SWAP2 SUB SWAP1 RETURN JUMPDEST PUSH2 0xA7 PUSH2 0x6BF JUMP JUMPDEST PUSH1 0x40 MLOAD PUSH2 0xB4 SWAP2 SWAP1 PUSH2 0xA4D JUMP JUMPDEST PUSH1 0x40 MLOAD DUP1 SWAP2 SUB SWAP1 RETURN JUMPDEST PUSH2 0xC5 PUSH2 0x86D JUMP JUMPDEST PUSH1 0x40 MLOAD PUSH2 0xD5 SWAP5 SWAP4 SWAP3 SWAP2 SWAP1 PUSH2 0xC09 JUMP JUMPDEST PUSH1 0x40 MLOAD DUP1 SWAP2 SUB SWAP1 RETURN JUMPDEST PUSH1 0x60 PUSH1 0x5 PUSH1 0x2 SLOAD PUSH1 0x7 PUSH2 0xF1 SWAP2 SWAP1 PUSH2 0xC8E JUMP JUMPDEST PUSH1 0x8 DUP2 LT PUSH2 0x102 JUMPI PUSH2 0x101 PUSH2 0xCC1 JUMP JUMPDEST JUMPDEST ADD DUP1 SLOAD PUSH2 0x10E SWAP1 PUSH2 0xD1B JUMP JUMPDEST DUP1 PUSH1 0x1F ADD PUSH1 0x20 DUP1 SWAP2 DIV MUL PUSH1 0x20 ADD PUSH1 0x40 MLOAD SWAP1 DUP2 ADD PUSH1 0x40 MSTORE DUP1 SWAP3 SWAP2 SWAP1 DUP2 DUP2 MSTORE PUSH1 0x20 ADD DUP3 DUP1 SLOAD PUSH2 0x13A SWAP1 PUSH2 0xD1B JUMP JUMPDEST DUP1 ISZERO PUSH2 0x185 JUMPI DUP1 PUSH1 0x1F LT PUSH2 0x15C JUMPI PUSH2 0x100 DUP1 DUP4 SLOAD DIV MUL DUP4 MSTORE SWAP2 PUSH1 0x20 ADD SWAP2 PUSH2 0x185 JUMP JUMPDEST DUP3 ADD SWAP2 SWAP1 PUSH0 MSTORE PUSH1 0x20 PUSH0 KECCAK256 SWAP1 JUMPDEST DUP2 SLOAD DUP2 MSTORE SWAP1 PUSH1 0x1 ADD SWAP1 PUSH1 0x20 ADD DUP1 DUP4 GT PUSH2 0x168 JUMPI DUP3 SWAP1 SUB PUSH1 0x1F AND DUP3 ADD SWAP2 JUMPDEST POP POP POP POP POP SWAP1 POP SWAP1 JUMP JUMPDEST PUSH1 0x60 PUSH0 PUSH1 0x60 DUP1 PUSH1 0x1 DUP6 MLOAD EQ PUSH2 0x1D9 JUMPI PUSH1 0x40 MLOAD PUSH32 0x8C379A000000000000000000000000000000000000000000000000000000000 DUP2 MSTORE PUSH1 0x4 ADD PUSH2 0x1D0 SWAP1 PUSH2 0xD95 JUMP JUMPDEST PUSH1 0x40 MLOAD DUP1 SWAP2 SUB SWAP1 REVERT JUMPDEST PUSH1 0x4 PUSH0 SWAP1 SLOAD SWAP1 PUSH2 0x100 EXP SWAP1 DIV PUSH1 0xFF AND PUSH2 0x227 JUMPI PUSH1 0x40 MLOAD PUSH32 0x8C379A000000000000000000000000000000000000000000000000000000000 DUP2 MSTORE PUSH1 0x4 ADD PUSH2 0x21E SWAP1 PUSH2 0xDFD JUMP JUMPDEST PUSH1 0x40 MLOAD DUP1 SWAP2 SUB SWAP1 REVERT JUMPDEST PUSH0 PUSH2 0x24E DUP7 PUSH0 DUP2 MLOAD DUP2 LT PUSH2 0x23E JUMPI PUSH2 0x23D PUSH2 0xCC1 JUMP JUMPDEST JUMPDEST PUSH1 0x20 ADD ADD MLOAD PUSH1 0xF8 SHR PUSH1 0xF8 SHL PUSH2 0x920 JUMP JUMPDEST SWAP1 POP PUSH0 DUP1 PUSH1 0x1 DUP1 SLOAD PUSH2 0x25F SWAP1 PUSH2 0xD1B JUMP JUMPDEST DUP1 PUSH1 0x1F ADD PUSH1 0x20 DUP1 SWAP2 DIV MUL PUSH1 0x20 ADD PUSH1 0x40 MLOAD SWAP1 DUP2 ADD PUSH1 0x40 MSTORE DUP1 SWAP3 SWAP2 SWAP1 DUP2 DUP2 MSTORE PUSH1 0x20 ADD DUP3 DUP1 SLOAD PUSH2 0x28B SWAP1 PUSH2 0xD1B JUMP JUMPDEST DUP1 ISZERO PUSH2 0x2D6 JUMPI DUP1 PUSH1 0x1F LT PUSH2 0x2AD JUMPI PUSH2 0x100 DUP1 DUP4 SLOAD DIV MUL DUP4 MSTORE SWAP2 PUSH1 0x20 ADD SWAP2 PUSH2 0x2D6 JUMP JUMPDEST DUP3 ADD SWAP2 SWAP1 PUSH0 MSTORE PUSH1 0x20 PUSH0 KECCAK256 SWAP1 JUMPDEST DUP2 SLOAD DUP2 MSTORE SWAP1 PUSH1 0x1 ADD SWAP1 PUSH1 0x20 ADD DUP1 DUP4 GT PUSH2 0x2B9 JUMPI DUP3 SWAP1 SUB PUSH1 0x1F AND DUP3 ADD SWAP2 JUMPDEST POP POP POP POP POP SWAP1 POP PUSH0 DUP1 DUP1 SLOAD PUSH2 0x2EA SWAP1 PUSH2 0xD1B JUMP JUMPDEST DUP1 PUSH1 0x1F ADD PUSH1 0x20 DUP1 SWAP2 DIV MUL PUSH1 0x20 ADD PUSH1 0x40 MLOAD SWAP1 DUP2 ADD PUSH1 0x40 MSTORE DUP1 SWAP3 SWAP2 SWAP1 DUP2 DUP2 MSTORE PUSH1 0x20 ADD DUP3 DUP1 SLOAD PUSH2 0x316 SWAP1 PUSH2 0xD1B JUMP JUMPDEST DUP1 ISZERO PUSH2 0x361 JUMPI DUP1 PUSH1 0x1F LT PUSH2 0x338 JUMPI PUSH2 0x100 DUP1 DUP4 SLOAD DIV MUL DUP4 MSTORE SWAP2 PUSH1 0x20 ADD SWAP2 PUSH2 0x361 JUMP JUMPDEST DUP3 ADD SWAP2 SWAP1 PUSH0 MSTORE PUSH1 0x20 PUSH0 KECCAK256 SWAP1 JUMPDEST DUP2 SLOAD DUP2 MSTORE SWAP1 PUSH1 0x1 ADD SWAP1 PUSH1 0x20 ADD DUP1 DUP4 GT PUSH2 0x344 JUMPI DUP3 SWAP1 SUB PUSH1 0x1F AND DUP3 ADD SWAP2 JUMPDEST POP POP POP POP POP SWAP1 POP PUSH0 JUMPDEST DUP2 MLOAD DUP2 LT ISZERO PUSH2 0x460 JUMPI DUP5 PUSH31 0xFFFFFFFFFFFFFFFFFFFFFFFFFFFFFFFFFFFFFFFFFFFFFFFFFFFFFFFFFFFFFF NOT AND PUSH2 0x3BC DUP4 DUP4 DUP2 MLOAD DUP2 LT PUSH2 0x3AC JUMPI PUSH2 0x3AB PUSH2 0xCC1 JUMP JUMPDEST JUMPDEST PUSH1 0x20 ADD ADD MLOAD PUSH1 0xF8 SHR PUSH1 0xF8 SHL PUSH2 0x920 JUMP JUMPDEST PUSH31 0xFFFFFFFFFFFFFFFFFFFFFFFFFFFFFFFFFFFFFFFFFFFFFFFFFFFFFFFFFFFFFF NOT AND SUB PUSH2 0x453 JUMPI DUP2 DUP2 DUP2 MLOAD DUP2 LT PUSH2 0x3F6 JUMPI PUSH2 0x3F5 PUSH2 0xCC1 JUMP JUMPDEST JUMPDEST PUSH1 0x20 ADD ADD MLOAD PUSH1 0xF8 SHR PUSH1 0xF8 SHL DUP4 PUSH1 0x2 DUP4 PUSH2 0x40F SWAP2 SWAP1 PUSH2 0xE1B JUMP JUMPDEST DUP2 MLOAD DUP2 LT PUSH2 0x420 JUMPI PUSH2 0x41F PUSH2 0xCC1 JUMP JUMPDEST JUMPDEST PUSH1 0x20 ADD ADD SWAP1 PUSH31 0xFFFFFFFFFFFFFFFFFFFFFFFFFFFFFFFFFFFFFFFFFFFFFFFFFFFFFFFFFFFFFF NOT AND SWAP1 DUP2 PUSH0 BYTE SWAP1 MSTORE8 POP PUSH1 0x1 SWAP4 POP JUMPDEST DUP1 DUP1 PUSH1 0x1 ADD SWAP2 POP POP PUSH2 0x36A JUMP JUMPDEST POP DUP2 PUSH1 0x1 SWAP1 DUP2 PUSH2 0x470 SWAP2 SWAP1 PUSH2 0xFF9 JUMP JUMPDEST POP DUP3 PUSH2 0x5BF JUMPI PUSH1 0x3 PUSH0 DUP6 PUSH31 0xFFFFFFFFFFFFFFFFFFFFFFFFFFFFFFFFFFFFFFFFFFFFFFFFFFFFFFFFFFFFFF NOT AND PUSH31 0xFFFFFFFFFFFFFFFFFFFFFFFFFFFFFFFFFFFFFFFFFFFFFFFFFFFFFFFFFFFFFF NOT AND DUP2 MSTORE PUSH1 0x20 ADD SWAP1 DUP2 MSTORE PUSH1 0x20 ADD PUSH0 KECCAK256 PUSH0 SWAP1 SLOAD SWAP1 PUSH2 0x100 EXP SWAP1 DIV PUSH1 0xFF AND PUSH2 0x5BE JUMPI PUSH1 0x1 PUSH1 0x3 PUSH0 DUP7 PUSH31 0xFFFFFFFFFFFFFFFFFFFFFFFFFFFFFFFFFFFFFFFFFFFFFFFFFFFFFFFFFFFFFF NOT AND PUSH31 0xFFFFFFFFFFFFFFFFFFFFFFFFFFFFFFFFFFFFFFFFFFFFFFFFFFFFFFFFFFFFFF NOT AND DUP2 MSTORE PUSH1 0x20 ADD SWAP1 DUP2 MSTORE PUSH1 0x20 ADD PUSH0 KECCAK256 PUSH0 PUSH2 0x100 EXP DUP2 SLOAD DUP2 PUSH1 0xFF MUL NOT AND SWAP1 DUP4 ISZERO ISZERO MUL OR SWAP1 SSTORE POP PUSH1 0x2 PUSH0 DUP2 SLOAD DUP1 SWAP3 SWAP2 SWAP1 PUSH2 0x55B SWAP1 PUSH2 0x10C8 JUMP JUMPDEST SWAP2 SWAP1 POP SSTORE POP PUSH0 PUSH1 0x2 SLOAD SUB PUSH2 0x5BD JUMPI PUSH0 PUSH1 0x4 PUSH0 PUSH2 0x100 EXP DUP2 SLOAD DUP2 PUSH1 0xFF MUL NOT AND SWAP1 DUP4 ISZERO ISZERO MUL OR SWAP1 SSTORE POP PUSH1 0x40 MLOAD PUSH32 0x8C379A000000000000000000000000000000000000000000000000000000000 DUP2 MSTORE PUSH1 0x4 ADD PUSH2 0x5B4 SWAP1 PUSH2 0x1139 JUMP JUMPDEST PUSH1 0x40 MLOAD DUP1 SWAP2 SUB SWAP1 REVERT JUMPDEST JUMPDEST JUMPDEST PUSH32 0x1512161B9F23A85FD9CCEC12D9CD3ABEB7333BF293DC69250460C4C054A27FC6 PUSH1 0x1 PUSH1 0x2 SLOAD PUSH2 0x5ED PUSH2 0x6BF JUMP JUMPDEST PUSH2 0x5F5 PUSH2 0xDE JUMP JUMPDEST PUSH1 0x40 MLOAD PUSH2 0x605 SWAP5 SWAP4 SWAP3 SWAP2 SWAP1 PUSH2 0x11D8 JUMP JUMPDEST PUSH1 0x40 MLOAD DUP1 SWAP2 SUB SWAP1 LOG1 PUSH1 0x1 PUSH1 0x2 SLOAD PUSH2 0x61A PUSH2 0x6BF JUMP JUMPDEST PUSH2 0x622 PUSH2 0xDE JUMP JUMPDEST DUP4 DUP1 SLOAD PUSH2 0x62E SWAP1 PUSH2 0xD1B JUMP JUMPDEST DUP1 PUSH1 0x1F ADD PUSH1 0x20 DUP1 SWAP2 DIV MUL PUSH1 0x20 ADD PUSH1 0x40 MLOAD SWAP1 DUP2 ADD PUSH1 0x40 MSTORE DUP1 SWAP3 SWAP2 SWAP1 DUP2 DUP2 MSTORE PUSH1 0x20 ADD DUP3 DUP1 SLOAD PUSH2 0x65A SWAP1 PUSH2 0xD1B JUMP JUMPDEST DUP1 ISZERO PUSH2 0x6A5 JUMPI DUP1 PUSH1 0x1F LT PUSH2 0x67C JUMPI PUSH2 0x100 DUP1 DUP4 SLOAD DIV MUL DUP4 MSTORE SWAP2 PUSH1 0x20 ADD SWAP2 PUSH2 0x6A5 JUMP JUMPDEST DUP3 ADD SWAP2 SWAP1 PUSH0 MSTORE PUSH1 0x20 PUSH0 KECCAK256 SWAP1 JUMPDEST DUP2 SLOAD DUP2 MSTORE SWAP1 PUSH1 0x1 ADD SWAP1 PUSH1 0x20 ADD DUP1 DUP4 GT PUSH2 0x688 JUMPI DUP3 SWAP1 SUB PUSH1 0x1F AND DUP3 ADD SWAP2 JUMPDEST POP POP POP POP POP SWAP4 POP SWAP8 POP SWAP8 POP SWAP8 POP SWAP8 POP POP POP POP POP SWAP2 SWAP4 POP SWAP2 SWAP4 JUMP JUMPDEST PUSH1 0x60 PUSH0 PUSH1 0x34 PUSH8 0xFFFFFFFFFFFFFFFF DUP2 GT ISZERO PUSH2 0x6DD JUMPI PUSH2 0x6DC PUSH2 0xA86 JUMP JUMPDEST JUMPDEST PUSH1 0x40 MLOAD SWAP1 DUP1 DUP3 MSTORE DUP1 PUSH1 0x1F ADD PUSH1 0x1F NOT AND PUSH1 0x20 ADD DUP3 ADD PUSH1 0x40 MSTORE DUP1 ISZERO PUSH2 0x70F JUMPI DUP2 PUSH1 0x20 ADD PUSH1 0x1 DUP3 MUL DUP1 CALLDATASIZE DUP4 CALLDATACOPY DUP1 DUP3 ADD SWAP2 POP POP SWAP1 POP JUMPDEST POP SWAP1 POP PUSH0 DUP1 PUSH1 0x61 SWAP1 POP JUMPDEST PUSH1 0x7A DUP2 PUSH1 0xFF AND GT PUSH2 0x864 JUMPI PUSH1 0x3 PUSH0 DUP3 PUSH1 0xF8 SHL PUSH31 0xFFFFFFFFFFFFFFFFFFFFFFFFFFFFFFFFFFFFFFFFFFFFFFFFFFFFFFFFFFFFFF NOT AND PUSH31 0xFFFFFFFFFFFFFFFFFFFFFFFFFFFFFFFFFFFFFFFFFFFFFFFFFFFFFFFFFFFFFF NOT AND DUP2 MSTORE PUSH1 0x20 ADD SWAP1 DUP2 MSTORE PUSH1 0x20 ADD PUSH0 KECCAK256 PUSH0 SWAP1 SLOAD SWAP1 PUSH2 0x100 EXP SWAP1 DIV PUSH1 0xFF AND ISZERO PUSH2 0x851 JUMPI DUP1 PUSH1 0xF8 SHL DUP4 DUP4 DUP2 MLOAD DUP2 LT PUSH2 0x7A5 JUMPI PUSH2 0x7A4 PUSH2 0xCC1 JUMP JUMPDEST JUMPDEST PUSH1 0x20 ADD ADD SWAP1 PUSH31 0xFFFFFFFFFFFFFFFFFFFFFFFFFFFFFFFFFFFFFFFFFFFFFFFFFFFFFFFFFFFFFF NOT AND SWAP1 DUP2 PUSH0 BYTE SWAP1 MSTORE8 POP PUSH32 0x2000000000000000000000000000000000000000000000000000000000000000 DUP4 PUSH1 0x1 DUP5 PUSH2 0x802 SWAP2 SWAP1 PUSH2 0x1230 JUMP JUMPDEST DUP2 MLOAD DUP2 LT PUSH2 0x813 JUMPI PUSH2 0x812 PUSH2 0xCC1 JUMP JUMPDEST JUMPDEST PUSH1 0x20 ADD ADD SWAP1 PUSH31 0xFFFFFFFFFFFFFFFFFFFFFFFFFFFFFFFFFFFFFFFFFFFFFFFFFFFFFFFFFFFFFF NOT AND SWAP1 DUP2 PUSH0 BYTE SWAP1 MSTORE8 POP PUSH1 0x2 DUP3 PUSH2 0x84E SWAP2 SWAP1 PUSH2 0x1230 JUMP JUMPDEST SWAP2 POP JUMPDEST DUP1 DUP1 PUSH2 0x85C SWAP1 PUSH2 0x126F JUMP JUMPDEST SWAP2 POP POP PUSH2 0x719 JUMP JUMPDEST POP DUP2 SWAP3 POP POP POP SWAP1 JUMP JUMPDEST PUSH1 0x60 PUSH0 PUSH1 0x60 DUP1 PUSH1 0x1 PUSH1 0x2 SLOAD PUSH2 0x880 PUSH2 0x6BF JUMP JUMPDEST PUSH2 0x888 PUSH2 0xDE JUMP JUMPDEST DUP4 DUP1 SLOAD PUSH2 0x894 SWAP1 PUSH2 0xD1B JUMP JUMPDEST DUP1 PUSH1 0x1F ADD PUSH1 0x20 DUP1 SWAP2 DIV MUL PUSH1 0x20 ADD PUSH1 0x40 MLOAD SWAP1 DUP2 ADD PUSH1 0x40 MSTORE DUP1 SWAP3 SWAP2 SWAP1 DUP2 DUP2 MSTORE PUSH1 0x20 ADD DUP3 DUP1 SLOAD PUSH2 0x8C0 SWAP1 PUSH2 0xD1B JUMP JUMPDEST DUP1 ISZERO PUSH2 0x90B JUMPI DUP1 PUSH1 0x1F LT PUSH2 0x8E2 JUMPI PUSH2 0x100 DUP1 DUP4 SLOAD DIV MUL DUP4 MSTORE SWAP2 PUSH1 0x20 ADD SWAP2 PUSH2 0x90B JUMP JUMPDEST DUP3 ADD SWAP2 SWAP1 PUSH0 MSTORE PUSH1 0x20 PUSH0 KECCAK256 SWAP1 JUMPDEST DUP2 SLOAD DUP2 MSTORE SWAP1 PUSH1 0x1 ADD SWAP1 PUSH1 0x20 ADD DUP1 DUP4 GT PUSH2 0x8EE JUMPI DUP3 SWAP1 SUB PUSH1 0x1F AND DUP3 ADD SWAP2 JUMPDEST POP POP POP POP POP SWAP4 POP SWAP4 POP SWAP4 POP SWAP4 POP SWAP4 POP SWAP1 SWAP2 SWAP3 SWAP4 JUMP JUMPDEST PUSH0 PUSH32 0x4100000000000000000000000000000000000000000000000000000000000000 DUP3 PUSH31 0xFFFFFFFFFFFFFFFFFFFFFFFFFFFFFFFFFFFFFFFFFFFFFFFFFFFFFFFFFFFFFF NOT AND LT ISZERO DUP1 ISZERO PUSH2 0x9B5 JUMPI POP PUSH32 0x5A00000000000000000000000000000000000000000000000000000000000000 DUP3 PUSH31 0xFFFFFFFFFFFFFFFFFFFFFFFFFFFFFFFFFFFFFFFFFFFFFFFFFFFFFFFFFFFFFF NOT AND GT ISZERO JUMPDEST ISZERO PUSH2 0x9D4 JUMPI PUSH1 0x20 DUP3 PUSH1 0xF8 SHR PUSH2 0x9CA SWAP2 SWAP1 PUSH2 0x1297 JUMP JUMPDEST PUSH1 0xF8 SHL SWAP1 POP PUSH2 0x9D8 JUMP JUMPDEST DUP2 SWAP1 POP JUMPDEST SWAP2 SWAP1 POP JUMP JUMPDEST PUSH0 DUP2 MLOAD SWAP1 POP SWAP2 SWAP1 POP JUMP JUMPDEST PUSH0 DUP3 DUP3 MSTORE PUSH1 0x20 DUP3 ADD SWAP1 POP SWAP3 SWAP2 POP POP JUMP JUMPDEST DUP3 DUP2 DUP4 MCOPY PUSH0 DUP4 DUP4 ADD MSTORE POP POP POP JUMP JUMPDEST PUSH0 PUSH1 0x1F NOT PUSH1 0x1F DUP4 ADD AND SWAP1 POP SWAP2 SWAP1 POP JUMP JUMPDEST PUSH0 PUSH2 0xA1F DUP3 PUSH2 0x9DD JUMP JUMPDEST PUSH2 0xA29 DUP2 DUP6 PUSH2 0x9E7 JUMP JUMPDEST SWAP4 POP PUSH2 0xA39 DUP2 DUP6 PUSH1 0x20 DUP7 ADD PUSH2 0x9F7 JUMP JUMPDEST PUSH2 0xA42 DUP2 PUSH2 0xA05 JUMP JUMPDEST DUP5 ADD SWAP2 POP POP SWAP3 SWAP2 POP POP JUMP JUMPDEST PUSH0 PUSH1 0x20 DUP3 ADD SWAP1 POP DUP2 DUP2 SUB PUSH0 DUP4 ADD MSTORE PUSH2 0xA65 DUP2 DUP5 PUSH2 0xA15 JUMP JUMPDEST SWAP1 POP SWAP3 SWAP2 POP POP JUMP JUMPDEST PUSH0 PUSH1 0x40 MLOAD SWAP1 POP SWAP1 JUMP JUMPDEST PUSH0 DUP1 REVERT JUMPDEST PUSH0 DUP1 REVERT JUMPDEST PUSH0 DUP1 REVERT JUMPDEST PUSH0 DUP1 REVERT JUMPDEST PUSH32 0x4E487B7100000000000000000000000000000000000000000000000000000000 PUSH0 MSTORE PUSH1 0x41 PUSH1 0x4 MSTORE PUSH1 0x24 PUSH0 REVERT JUMPDEST PUSH2 0xABC DUP3 PUSH2 0xA05 JUMP JUMPDEST DUP2 ADD DUP2 DUP2 LT PUSH8 0xFFFFFFFFFFFFFFFF DUP3 GT OR ISZERO PUSH2 0xADB JUMPI PUSH2 0xADA PUSH2 0xA86 JUMP JUMPDEST JUMPDEST DUP1 PUSH1 0x40 MSTORE POP POP POP JUMP JUMPDEST PUSH0 PUSH2 0xAED PUSH2 0xA6D JUMP JUMPDEST SWAP1 POP PUSH2 0xAF9 DUP3 DUP3 PUSH2 0xAB3 JUMP JUMPDEST SWAP2 SWAP1 POP JUMP JUMPDEST PUSH0 PUSH8 0xFFFFFFFFFFFFFFFF DUP3 GT ISZERO PUSH2 0xB18 JUMPI PUSH2 0xB17 PUSH2 0xA86 JUMP JUMPDEST JUMPDEST PUSH2 0xB21 DUP3 PUSH2 0xA05 JUMP JUMPDEST SWAP1 POP PUSH1 0x20 DUP2 ADD SWAP1 POP SWAP2 SWAP1 POP JUMP JUMPDEST DUP3 DUP2 DUP4 CALLDATACOPY PUSH0 DUP4 DUP4 ADD MSTORE POP POP POP JUMP JUMPDEST PUSH0 PUSH2 0xB4E PUSH2 0xB49 DUP5 PUSH2 0xAFE JUMP JUMPDEST PUSH2 0xAE4 JUMP JUMPDEST SWAP1 POP DUP3 DUP2 MSTORE PUSH1 0x20 DUP2 ADD DUP5 DUP5 DUP5 ADD GT ISZERO PUSH2 0xB6A JUMPI PUSH2 0xB69 PUSH2 0xA82 JUMP JUMPDEST JUMPDEST PUSH2 0xB75 DUP5 DUP3 DUP6 PUSH2 0xB2E JUMP JUMPDEST POP SWAP4 SWAP3 POP POP POP JUMP JUMPDEST PUSH0 DUP3 PUSH1 0x1F DUP4 ADD SLT PUSH2 0xB91 JUMPI PUSH2 0xB90 PUSH2 0xA7E JUMP JUMPDEST JUMPDEST DUP2 CALLDATALOAD PUSH2 0xBA1 DUP5 DUP3 PUSH1 0x20 DUP7 ADD PUSH2 0xB3C JUMP JUMPDEST SWAP2 POP POP SWAP3 SWAP2 POP POP JUMP JUMPDEST PUSH0 PUSH1 0x20 DUP3 DUP5 SUB SLT ISZERO PUSH2 0xBBF JUMPI PUSH2 0xBBE PUSH2 0xA76 JUMP JUMPDEST JUMPDEST PUSH0 DUP3 ADD CALLDATALOAD PUSH8 0xFFFFFFFFFFFFFFFF DUP2 GT ISZERO PUSH2 0xBDC JUMPI PUSH2 0xBDB PUSH2 0xA7A JUMP JUMPDEST JUMPDEST PUSH2 0xBE8 DUP5 DUP3 DUP6 ADD PUSH2 0xB7D JUMP JUMPDEST SWAP2 POP POP SWAP3 SWAP2 POP POP JUMP JUMPDEST PUSH0 DUP2 SWAP1 POP SWAP2 SWAP1 POP JUMP JUMPDEST PUSH2 0xC03 DUP2 PUSH2 0xBF1 JUMP JUMPDEST DUP3 MSTORE POP POP JUMP JUMPDEST PUSH0 PUSH1 0x80 DUP3 ADD SWAP1 POP DUP2 DUP2 SUB PUSH0 DUP4 ADD MSTORE PUSH2 0xC21 DUP2 DUP8 PUSH2 0xA15 JUMP JUMPDEST SWAP1 POP PUSH2 0xC30 PUSH1 0x20 DUP4 ADD DUP7 PUSH2 0xBFA JUMP JUMPDEST DUP2 DUP2 SUB PUSH1 0x40 DUP4 ADD MSTORE PUSH2 0xC42 DUP2 DUP6 PUSH2 0xA15 JUMP JUMPDEST SWAP1 POP DUP2 DUP2 SUB PUSH1 0x60 DUP4 ADD MSTORE PUSH2 0xC56 DUP2 DUP5 PUSH2 0xA15 JUMP JUMPDEST SWAP1 POP SWAP6 SWAP5 POP POP POP POP POP JUMP JUMPDEST PUSH32 0x4E487B7100000000000000000000000000000000000000000000000000000000 PUSH0 MSTORE PUSH1 0x11 PUSH1 0x4 MSTORE PUSH1 0x24 PUSH0 REVERT JUMPDEST PUSH0 PUSH2 0xC98 DUP3 PUSH2 0xBF1 JUMP JUMPDEST SWAP2 POP PUSH2 0xCA3 DUP4 PUSH2 0xBF1 JUMP JUMPDEST SWAP3 POP DUP3 DUP3 SUB SWAP1 POP DUP2 DUP2 GT ISZERO PUSH2 0xCBB JUMPI PUSH2 0xCBA PUSH2 0xC61 JUMP JUMPDEST JUMPDEST SWAP3 SWAP2 POP POP JUMP JUMPDEST PUSH32 0x4E487B7100000000000000000000000000000000000000000000000000000000 PUSH0 MSTORE PUSH1 0x32 PUSH1 0x4 MSTORE PUSH1 0x24 PUSH0 REVERT JUMPDEST PUSH32 0x4E487B7100000000000000000000000000000000000000000000000000000000 PUSH0 MSTORE PUSH1 0x22 PUSH1 0x4 MSTORE PUSH1 0x24 PUSH0 REVERT JUMPDEST PUSH0 PUSH1 0x2 DUP3 DIV SWAP1 POP PUSH1 0x1 DUP3 AND DUP1 PUSH2 0xD32 JUMPI PUSH1 0x7F DUP3 AND SWAP2 POP JUMPDEST PUSH1 0x20 DUP3 LT DUP2 SUB PUSH2 0xD45 JUMPI PUSH2 0xD44 PUSH2 0xCEE JUMP JUMPDEST JUMPDEST POP SWAP2 SWAP1 POP JUMP JUMPDEST PUSH32 0x496E707574206D75737420626520612073696E676C6520636861726163746572 PUSH0 DUP3 ADD MSTORE POP JUMP JUMPDEST PUSH0 PUSH2 0xD7F PUSH1 0x20 DUP4 PUSH2 0x9E7 JUMP JUMPDEST SWAP2 POP PUSH2 0xD8A DUP3 PUSH2 0xD4B JUMP JUMPDEST PUSH1 0x20 DUP3 ADD SWAP1 POP SWAP2 SWAP1 POP JUMP JUMPDEST PUSH0 PUSH1 0x20 DUP3 ADD SWAP1 POP DUP2 DUP2 SUB PUSH0 DUP4 ADD MSTORE PUSH2 0xDAC DUP2 PUSH2 0xD73 JUMP JUMPDEST SWAP1 POP SWAP2 SWAP1 POP JUMP JUMPDEST PUSH32 0x4E6F206163746976652067616D652E2053746172742061206E6577206F6E652E PUSH0 DUP3 ADD MSTORE POP JUMP JUMPDEST PUSH0 PUSH2 0xDE7 PUSH1 0x20 DUP4 PUSH2 0x9E7 JUMP JUMPDEST SWAP2 POP PUSH2 0xDF2 DUP3 PUSH2 0xDB3 JUMP JUMPDEST PUSH1 0x20 DUP3 ADD SWAP1 POP SWAP2 SWAP1 POP JUMP JUMPDEST PUSH0 PUSH1 0x20 DUP3 ADD SWAP1 POP DUP2 DUP2 SUB PUSH0 DUP4 ADD MSTORE PUSH2 0xE14 DUP2 PUSH2 0xDDB JUMP JUMPDEST SWAP1 POP SWAP2 SWAP1 POP JUMP JUMPDEST PUSH0 PUSH2 0xE25 DUP3 PUSH2 0xBF1 JUMP JUMPDEST SWAP2 POP PUSH2 0xE30 DUP4 PUSH2 0xBF1 JUMP JUMPDEST SWAP3 POP DUP3 DUP3 MUL PUSH2 0xE3E DUP2 PUSH2 0xBF1 JUMP JUMPDEST SWAP2 POP DUP3 DUP3 DIV DUP5 EQ DUP4 ISZERO OR PUSH2 0xE55 JUMPI PUSH2 0xE54 PUSH2 0xC61 JUMP JUMPDEST JUMPDEST POP SWAP3 SWAP2 POP POP JUMP JUMPDEST PUSH0 DUP2 SWAP1 POP DUP2 PUSH0 MSTORE PUSH1 0x20 PUSH0 KECCAK256 SWAP1 POP SWAP2 SWAP1 POP JUMP JUMPDEST PUSH0 PUSH1 0x20 PUSH1 0x1F DUP4 ADD DIV SWAP1 POP SWAP2 SWAP1 POP JUMP JUMPDEST PUSH0 DUP3 DUP3 SHL SWAP1 POP SWAP3 SWAP2 POP POP JUMP JUMPDEST PUSH0 PUSH1 0x8 DUP4 MUL PUSH2 0xEB8 PUSH32 0xFFFFFFFFFFFFFFFFFFFFFFFFFFFFFFFFFFFFFFFFFFFFFFFFFFFFFFFFFFFFFFFF DUP3 PUSH2 0xE7D JUMP JUMPDEST PUSH2 0xEC2 DUP7 DUP4 PUSH2 0xE7D JUMP JUMPDEST SWAP6 POP DUP1 NOT DUP5 AND SWAP4 POP DUP1 DUP7 AND DUP5 OR SWAP3 POP POP POP SWAP4 SWAP3 POP POP POP JUMP JUMPDEST PUSH0 DUP2 SWAP1 POP SWAP2 SWAP1 POP JUMP JUMPDEST PUSH0 PUSH2 0xEFD PUSH2 0xEF8 PUSH2 0xEF3 DUP5 PUSH2 0xBF1 JUMP JUMPDEST PUSH2 0xEDA JUMP JUMPDEST PUSH2 0xBF1 JUMP JUMPDEST SWAP1 POP SWAP2 SWAP1 POP JUMP JUMPDEST PUSH0 DUP2 SWAP1 POP SWAP2 SWAP1 POP JUMP JUMPDEST PUSH2 0xF16 DUP4 PUSH2 0xEE3 JUMP JUMPDEST PUSH2 0xF2A PUSH2 0xF22 DUP3 PUSH2 0xF04 JUMP JUMPDEST DUP5 DUP5 SLOAD PUSH2 0xE89 JUMP JUMPDEST DUP3 SSTORE POP POP POP POP JUMP JUMPDEST PUSH0 SWAP1 JUMP JUMPDEST PUSH2 0xF3E PUSH2 0xF32 JUMP JUMPDEST PUSH2 0xF49 DUP2 DUP5 DUP5 PUSH2 0xF0D JUMP JUMPDEST POP POP POP JUMP JUMPDEST JUMPDEST DUP2 DUP2 LT ISZERO PUSH2 0xF6C JUMPI PUSH2 0xF61 PUSH0 DUP3 PUSH2 0xF36 JUMP JUMPDEST PUSH1 0x1 DUP2 ADD SWAP1 POP PUSH2 0xF4F JUMP JUMPDEST POP POP JUMP JUMPDEST PUSH1 0x1F DUP3 GT ISZERO PUSH2 0xFB1 JUMPI PUSH2 0xF82 DUP2 PUSH2 0xE5C JUMP JUMPDEST PUSH2 0xF8B DUP5 PUSH2 0xE6E JUMP JUMPDEST DUP2 ADD PUSH1 0x20 DUP6 LT ISZERO PUSH2 0xF9A JUMPI DUP2 SWAP1 POP JUMPDEST PUSH2 0xFAE PUSH2 0xFA6 DUP6 PUSH2 0xE6E JUMP JUMPDEST DUP4 ADD DUP3 PUSH2 0xF4E JUMP JUMPDEST POP POP JUMPDEST POP POP POP JUMP JUMPDEST PUSH0 DUP3 DUP3 SHR SWAP1 POP SWAP3 SWAP2 POP POP JUMP JUMPDEST PUSH0 PUSH2 0xFD1 PUSH0 NOT DUP5 PUSH1 0x8 MUL PUSH2 0xFB6 JUMP JUMPDEST NOT DUP1 DUP4 AND SWAP2 POP POP SWAP3 SWAP2 POP POP JUMP JUMPDEST PUSH0 PUSH2 0xFE9 DUP4 DUP4 PUSH2 0xFC2 JUMP JUMPDEST SWAP2 POP DUP3 PUSH1 0x2 MUL DUP3 OR SWAP1 POP SWAP3 SWAP2 POP POP JUMP JUMPDEST PUSH2 0x1002 DUP3 PUSH2 0x9DD JUMP JUMPDEST PUSH8 0xFFFFFFFFFFFFFFFF DUP2 GT ISZERO PUSH2 0x101B JUMPI PUSH2 0x101A PUSH2 0xA86 JUMP JUMPDEST JUMPDEST PUSH2 0x1025 DUP3 SLOAD PUSH2 0xD1B JUMP JUMPDEST PUSH2 0x1030 DUP3 DUP3 DUP6 PUSH2 0xF70 JUMP JUMPDEST PUSH0 PUSH1 0x20 SWAP1 POP PUSH1 0x1F DUP4 GT PUSH1 0x1 DUP2 EQ PUSH2 0x1061 JUMPI PUSH0 DUP5 ISZERO PUSH2 0x104F JUMPI DUP3 DUP8 ADD MLOAD SWAP1 POP JUMPDEST PUSH2 0x1059 DUP6 DUP3 PUSH2 0xFDE JUMP JUMPDEST DUP7 SSTORE POP PUSH2 0x10C0 JUMP JUMPDEST PUSH1 0x1F NOT DUP5 AND PUSH2 0x106F DUP7 PUSH2 0xE5C JUMP JUMPDEST PUSH0 JUMPDEST DUP3 DUP2 LT ISZERO PUSH2 0x1096 JUMPI DUP5 DUP10 ADD MLOAD DUP3 SSTORE PUSH1 0x1 DUP3 ADD SWAP2 POP PUSH1 0x20 DUP6 ADD SWAP5 POP PUSH1 0x20 DUP2 ADD SWAP1 POP PUSH2 0x1071 JUMP JUMPDEST DUP7 DUP4 LT ISZERO PUSH2 0x10B3 JUMPI DUP5 DUP10 ADD MLOAD PUSH2 0x10AF PUSH1 0x1F DUP10 AND DUP3 PUSH2 0xFC2 JUMP JUMPDEST DUP4 SSTORE POP JUMPDEST PUSH1 0x1 PUSH1 0x2 DUP9 MUL ADD DUP9 SSTORE POP POP POP JUMPDEST POP POP POP POP POP POP JUMP JUMPDEST PUSH0 PUSH2 0x10D2 DUP3 PUSH2 0xBF1 JUMP JUMPDEST SWAP2 POP PUSH0 DUP3 SUB PUSH2 0x10E4 JUMPI PUSH2 0x10E3 PUSH2 0xC61 JUMP JUMPDEST JUMPDEST PUSH1 0x1 DUP3 SUB SWAP1 POP SWAP2 SWAP1 POP JUMP JUMPDEST PUSH32 0x47616D65204F7665723A204E6F20617474656D707473206C6566742E00000000 PUSH0 DUP3 ADD MSTORE POP JUMP JUMPDEST PUSH0 PUSH2 0x1123 PUSH1 0x1C DUP4 PUSH2 0x9E7 JUMP JUMPDEST SWAP2 POP PUSH2 0x112E DUP3 PUSH2 0x10EF JUMP JUMPDEST PUSH1 0x20 DUP3 ADD SWAP1 POP SWAP2 SWAP1 POP JUMP JUMPDEST PUSH0 PUSH1 0x20 DUP3 ADD SWAP1 POP DUP2 DUP2 SUB PUSH0 DUP4 ADD MSTORE PUSH2 0x1150 DUP2 PUSH2 0x1117 JUMP JUMPDEST SWAP1 POP SWAP2 SWAP1 POP JUMP JUMPDEST PUSH0 DUP2 SLOAD PUSH2 0x1163 DUP2 PUSH2 0xD1B JUMP JUMPDEST PUSH2 0x116D DUP2 DUP7 PUSH2 0x9E7 JUMP JUMPDEST SWAP5 POP PUSH1 0x1 DUP3 AND PUSH0 DUP2 EQ PUSH2 0x1187 JUMPI PUSH1 0x1 DUP2 EQ PUSH2 0x119D JUMPI PUSH2 0x11CF JUMP JUMPDEST PUSH1 0xFF NOT DUP4 AND DUP7 MSTORE DUP2 ISZERO ISZERO PUSH1 0x20 MUL DUP7 ADD SWAP4 POP PUSH2 0x11CF JUMP JUMPDEST PUSH2 0x11A6 DUP6 PUSH2 0xE5C JUMP JUMPDEST PUSH0 JUMPDEST DUP4 DUP2 LT ISZERO PUSH2 0x11C7 JUMPI DUP2 SLOAD DUP2 DUP10 ADD MSTORE PUSH1 0x1 DUP3 ADD SWAP2 POP PUSH1 0x20 DUP2 ADD SWAP1 POP PUSH2 0x11A8 JUMP JUMPDEST DUP1 DUP9 ADD SWAP6 POP POP POP JUMPDEST POP POP POP SWAP3 SWAP2 POP POP JUMP JUMPDEST PUSH0 PUSH1 0x80 DUP3 ADD SWAP1 POP DUP2 DUP2 SUB PUSH0 DUP4 ADD MSTORE PUSH2 0x11F0 DUP2 DUP8 PUSH2 0x1157 JUMP JUMPDEST SWAP1 POP PUSH2 0x11FF PUSH1 0x20 DUP4 ADD DUP7 PUSH2 0xBFA JUMP JUMPDEST DUP2 DUP2 SUB PUSH1 0x40 DUP4 ADD MSTORE PUSH2 0x1211 DUP2 DUP6 PUSH2 0xA15 JUMP JUMPDEST SWAP1 POP DUP2 DUP2 SUB PUSH1 0x60 DUP4 ADD MSTORE PUSH2 0x1225 DUP2 DUP5 PUSH2 0xA15 JUMP JUMPDEST SWAP1 POP SWAP6 SWAP5 POP POP POP POP POP JUMP JUMPDEST PUSH0 PUSH2 0x123A DUP3 PUSH2 0xBF1 JUMP JUMPDEST SWAP2 POP PUSH2 0x1245 DUP4 PUSH2 0xBF1 JUMP JUMPDEST SWAP3 POP DUP3 DUP3 ADD SWAP1 POP DUP1 DUP3 GT ISZERO PUSH2 0x125D JUMPI PUSH2 0x125C PUSH2 0xC61 JUMP JUMPDEST JUMPDEST SWAP3 SWAP2 POP POP JUMP JUMPDEST PUSH0 PUSH1 0xFF DUP3 AND SWAP1 POP SWAP2 SWAP1 POP JUMP JUMPDEST PUSH0 PUSH2 0x1279 DUP3 PUSH2 0x1263 JUMP JUMPDEST SWAP2 POP PUSH1 0xFF DUP3 SUB PUSH2 0x128C JUMPI PUSH2 0x128B PUSH2 0xC61 JUMP JUMPDEST JUMPDEST PUSH1 0x1 DUP3 ADD SWAP1 POP SWAP2 SWAP1 POP JUMP JUMPDEST PUSH0 PUSH2 0x12A1 DUP3 PUSH2 0x1263 JUMP JUMPDEST SWAP2 POP PUSH2 0x12AC DUP4 PUSH2 0x1263 JUMP JUMPDEST SWAP3 POP DUP3 DUP3 ADD SWAP1 POP PUSH1 0xFF DUP2 GT ISZERO PUSH2 0x12C5 JUMPI PUSH2 0x12C4 PUSH2 0xC61 JUMP JUMPDEST JUMPDEST SWAP3 SWAP2 POP POP JUMP INVALID LOG2 PUSH5 0x6970667358 0x22 SLT KECCAK256 0xB8 JUMP DUP4 0xB8 DUP3 0x22 DUP14 DUP1 NUMBER 0x27 0xCC NOT DUP2 ADD NUMBER 0xA8 SWAP11 0xF6 AND PUSH0 JUMPDEST 0xD8 SGT 0xCD 0xB3 GAS 0xC1 0xB7 0xD4 0xC9 0xE7 PUSH15 0x64736F6C634300081A003300000000 "
		},
		"gasEstimates": {
			"creation": {
				"codeDepositCost": "973000",
				"executionCost": "infinite",
				"totalCost": "infinite"
			},
			"external": {
				"getGameState()": "infinite",
				"getHangmanFigure()": "infinite",
				"getWrongGuesses()": "infinite",
				"guess(string)": "infinite"
			},
			"internal": {
				"toLowerCase(bytes1)": "infinite"
			}
		},
		"methodIdentifiers": {
			"getGameState()": "b7d0628b",
			"getHangmanFigure()": "04d15a8d",
			"getWrongGuesses()": "610cbea6",
			"guess(string)": "4eee59b3"
		}
	},
	"abi": [
		{
			"anonymous": false,
			"inputs": [
				{
					"indexed": false,
					"internalType": "string",
					"name": "hangmanWord",
					"type": "string"
				},
				{
					"indexed": false,
					"internalType": "uint256",
					"name": "attemptsLeft",
					"type": "uint256"
				},
				{
					"indexed": false,
					"internalType": "string",
					"name": "wrongGuesses",
					"type": "string"
				},
				{
					"indexed": false,
					"internalType": "string",
					"name": "hangmanFigure",
					"type": "string"
				}
			],
			"name": "GuessMade",
			"type": "event"
		},
		{
			"inputs": [],
			"name": "getGameState",
			"outputs": [
				{
					"internalType": "string",
					"name": "",
					"type": "string"
				},
				{
					"internalType": "uint256",
					"name": "",
					"type": "uint256"
				},
				{
					"internalType": "string",
					"name": "",
					"type": "string"
				},
				{
					"internalType": "string",
					"name": "",
					"type": "string"
				}
			],
			"stateMutability": "view",
			"type": "function"
		},
		{
			"inputs": [],
			"name": "getHangmanFigure",
			"outputs": [
				{
					"internalType": "string",
					"name": "",
					"type": "string"
				}
			],
			"stateMutability": "view",
			"type": "function"
		},
		{
			"inputs": [],
			"name": "getWrongGuesses",
			"outputs": [
				{
					"internalType": "string",
					"name": "",
					"type": "string"
				}
			],
			"stateMutability": "view",
			"type": "function"
		},
		{
			"inputs": [
				{
					"internalType": "string",
					"name": "input",
					"type": "string"
				}
			],
			"name": "guess",
			"outputs": [
				{
					"internalType": "string",
					"name": "",
					"type": "string"
				},
				{
					"internalType": "uint256",
					"name": "",
					"type": "uint256"
				},
				{
					"internalType": "string",
					"name": "",
					"type": "string"
				},
				{
					"internalType": "string",
					"name": "",
					"type": "string"
				}
			],
			"stateMutability": "nonpayable",
			"type": "function"
		}
	]
}