{
	"data": {
		"bytecode": {
			"linkReferences": {},
			"object": "60806040526040518061064001604052806040518060400160405280600981526020017f6170706c6520706965000000000000000000000000000000000000000000000081525081526020016040518060400160405280600981526020017f686170707920636174000000000000000000000000000000000000000000000081525081526020016040518060400160405280600881526020017f626967206265617200000000000000000000000000000000000000000000000081525081526020016040518060400160405280600b81526020017f7261696e626f7720736b7900000000000000000000000000000000000000000081525081526020016040518060400160405280600981526020017f6d6167696320686174000000000000000000000000000000000000000000000081525081526020016040518060400160405280600981526020017f73756e6e7920646179000000000000000000000000000000000000000000000081525081526020016040518060400160405280600a81526020017f74696e7920686f7573650000000000000000000000000000000000000000000081525081526020016040518060400160405280600981526020017f6c656d6f6e20746561000000000000000000000000000000000000000000000081525081526020016040518060400160405280600a81526020017f7075707079206c6f76650000000000000000000000000000000000000000000081525081526020016040518060400160405280600981526020017f77696c642077657374000000000000000000000000000000000000000000000081525081526020016040518060400160405280600b81526020017f6f72616e6765206d6f6f6e00000000000000000000000000000000000000000081525081526020016040518060400160405280600b81526020017f73696c766572207374617200000000000000000000000000000000000000000081525081526020016040518060400160405280600c81526020017f6c61756768696e67206f776c000000000000000000000000000000000000000081525081526020016040518060400160405280600b81526020017f666f72657374207061746800000000000000000000000000000000000000000081525081526020016040518060400160405280600b81526020017f666c79696e67206669736800000000000000000000000000000000000000000081525081526020016040518060400160405280600c81526020017f636f74746f6e20636c6f7564000000000000000000000000000000000000000081525081526020016040518060400160405280600b81526020017f636865727279207472656500000000000000000000000000000000000000000081525081526020016040518060400160405280600a81526020017f736563726574206b65790000000000000000000000000000000000000000000081525081526020016040518060400160405280600c81526020017f6272617665206b6e69676874000000000000000000000000000000000000000081525081526020016040518060400160405280600a81526020017f626c7565206f6365616e0000000000000000000000000000000000000000000081525081526020016040518060400160405280600f81526020017f7477696e6b6c696e67206c69676874000000000000000000000000000000000081525081526020016040518060400160405280600b81526020017f736e6f7779206e6967687400000000000000000000000000000000000000000081525081526020016040518060400160405280600c81526020017f6769616e7420747572746c65000000000000000000000000000000000000000081525081526020016040518060400160405280600a81526020017f66616972792074616c650000000000000000000000000000000000000000000081525081526020016040518060400160405280600f81526020017f68696464656e207472656173757265000000000000000000000000000000000081525081526020016040518060400160405280600c81526020017f73696c656e74207269766572000000000000000000000000000000000000000081525081526020016040518060400160405280600c81526020017f637564646c792062756e6e79000000000000000000000000000000000000000081525081526020016040518060400160405280600f81526020017f64616e63696e6720646f6c7068696e000000000000000000000000000000000081525081526020016040518060400160405280600b81526020017f66726f7a656e206c616b6500000000000000000000000000000000000000000081525081526020016040518060400160405280600e81526020017f63686f636f6c6174652063616b6500000000000000000000000000000000000081525081526020016040518060400160405280600e81526020017f667269656e646c792067686f737400000000000000000000000000000000000081525081526020016040518060400160405280600b81526020017f676f6c64656e2072696e6700000000000000000000000000000000000000000081525081526020016040518060400160405280600f81526020017f706561636566756c2067617264656e000000000000000000000000000000000081525081526020016040518060400160405280600f81526020017f77686973706572696e672077696e64000000000000000000000000000000000081525081526020016040518060400160405280600b81526020017f7368696e792070656e6e7900000000000000000000000000000000000000000081525081526020016040518060400160405280600d81526020017f6d6f756e7461696e207065616b0000000000000000000000000000000000000081525081526020016040518060400160405280600b81526020017f63616c6d2077617465727300000000000000000000000000000000000000000081525081526020016040518060400160405280600a81526020017f6272696768742073756e0000000000000000000000000000000000000000000081525081526020016040518060400160405280600a81526020017f736c6565707920666f780000000000000000000000000000000000000000000081525081526020016040518060400160405280600a81526020017f73746172727920736b790000000000000000000000000000000000000000000081525081526020016040518060400160405280600b81526020017f74696e7920666c6f77657200000000000000000000000000000000000000000081525081526020016040518060400160405280600d81526020017f67656e746c6520627265657a650000000000000000000000000000000000000081525081526020016040518060400160405280600c81526020017f7261696e626f772066697368000000000000000000000000000000000000000081525081526020016040518060400160405280600c81526020017f73696e67696e672062697264000000000000000000000000000000000000000081525081526020016040518060400160405280600a81526020017f626f6c642074696765720000000000000000000000000000000000000000000081525081526020016040518060400160405280600e81526020017f7370696e6e696e6720776865656c00000000000000000000000000000000000081525081526020016040518060400160405280600d81526020017f736861646f77207075707065740000000000000000000000000000000000000081525081526020016040518060400160405280600c81526020017f677265656e2076616c6c6579000000000000000000000000000000000000000081525081526020016040518060400160405280601481526020017f666c7574746572696e6720627574746572666c7900000000000000000000000081525081526020016040518060400160405280600b81526020017f73656372657420636176650000000000000000000000000000000000000000008152508152505f906032610ba3929190610cc5565b506040518061010001604052806040518060600160405280602c81526020016130fc602c913981526020016040518060600160405280603181526020016130956031913981526020016040518060600160405280603681526020016130c66036913981526020016040518060600160405280603781526020016130226037913981526020016040518060600160405280603c8152602001613059603c913981526020016040518060600160405280603c8152602001613059603c91398152602001604051806060016040528060408152602001613128604091398152602001604051806080016040528060428152602001613168604291398152506032906008610cae929190610d11565b50603c604055348015610cbf575f80fd5b506110e1565b8260328101928215610d00579160200282015b82811115610cff578251829081610cef9190611012565b5091602001919060010190610cd8565b5b509050610d0d9190610d5d565b5090565b8260088101928215610d4c579160200282015b82811115610d4b578251829081610d3b9190611012565b5091602001919060010190610d24565b5b509050610d599190610d5d565b5090565b5b80821115610d7c575f8181610d739190610d80565b50600101610d5e565b5090565b508054610d8c90610e3c565b5f825580601f10610d9d5750610dba565b601f0160209004905f5260205f2090810190610db99190610dbd565b5b50565b5b80821115610dd4575f815f905550600101610dbe565b5090565b5f81519050919050565b7f4e487b71000000000000000000000000000000000000000000000000000000005f52604160045260245ffd5b7f4e487b71000000000000000000000000000000000000000000000000000000005f52602260045260245ffd5b5f6002820490506001821680610e5357607f821691505b602082108103610e6657610e65610e0f565b5b50919050565b5f819050815f5260205f209050919050565b5f6020601f8301049050919050565b5f82821b905092915050565b5f60088302610ec87fffffffffffffffffffffffffffffffffffffffffffffffffffffffffffffffff82610e8d565b610ed28683610e8d565b95508019841693508086168417925050509392505050565b5f819050919050565b5f819050919050565b5f610f16610f11610f0c84610eea565b610ef3565b610eea565b9050919050565b5f819050919050565b610f2f83610efc565b610f43610f3b82610f1d565b848454610e99565b825550505050565b5f90565b610f57610f4b565b610f62818484610f26565b505050565b5b81811015610f8557610f7a5f82610f4f565b600181019050610f68565b5050565b601f821115610fca57610f9b81610e6c565b610fa484610e7e565b81016020851015610fb3578190505b610fc7610fbf85610e7e565b830182610f67565b50505b505050565b5f82821c905092915050565b5f610fea5f1984600802610fcf565b1980831691505092915050565b5f6110028383610fdb565b9150826002028217905092915050565b61101b82610dd8565b67ffffffffffffffff81111561103457611033610de2565b5b61103e8254610e3c565b611049828285610f89565b5f60209050601f83116001811461107a575f8415611068578287015190505b6110728582610ff7565b8655506110d9565b601f19841661108886610e6c565b5f5b828110156110af5784890151825560018201915060208501945060208101905061108a565b868310156110cc57848901516110c8601f891682610fdb565b8355505b6001600288020188555050505b505050505050565b611f34806110ee5f395ff3fe608060405234801561000f575f80fd5b5060043610610060575f3560e01c806304d15a8d146100645780632b6055df146100825780634eee59b31461008c578063b7d0628b146100be578063d65ab5f2146100de578063fc2b8cc3146100e8575b5f80fd5b61006c6100f2565b6040516100799190611163565b60405180910390f35b61008a6101a3565b005b6100a660048036038101906100a191906112c0565b610305565b6040516100b59392919061131f565b60405180910390f35b6100c66107e0565b6040516100d59392919061131f565b60405180910390f35b6100e661090b565b005b6100f0610ddd565b005b60606032603c546007610105919061138f565b60088110610116576101156113c2565b5b0180546101229061141c565b80601f016020809104026020016040519081016040528092919081815260200182805461014e9061141c565b80156101995780601f1061017057610100808354040283529160200191610199565b820191905f5260205f20905b81548152906001019060200180831161017c57829003601f168201915b5050505050905090565b603e5f9054906101000a900460ff166101f1576040517f08c379a00000000000000000000000000000000000000000000000000000000081526004016101e890611496565b60405180910390fd5b604054603f5461020191906114b4565b421115610286577eaf1ade955695dd7cb8833b69ad71fc489f552aca5609812e9f4567e5e4508860405161023490611531565b60405180910390a15f603e5f6101000a81548160ff0219169083151502179055507f1084d47e99647565312e58bba004b0fc3088c683fa22f3925f1cf5fb0955402960405160405180910390a1610303565b5f42604054603f5461029891906114b4565b6102a2919061138f565b90507eaf1ade955695dd7cb8833b69ad71fc489f552aca5609812e9f4567e5e450886102cd82610e72565b6040516020016102dd919061161d565b6040516020818303038152906040526040516102f99190611163565b60405180910390a1505b565b60605f60605f8490506001815114610352576040517f08c379a000000000000000000000000000000000000000000000000000000000815260040161034990611693565b60405180910390fd5b5f80603b80546103619061141c565b80601f016020809104026020016040519081016040528092919081815260200182805461038d9061141c565b80156103d85780601f106103af576101008083540402835291602001916103d8565b820191905f5260205f20905b8154815290600101906020018083116103bb57829003601f168201915b505050505090505f5b603a80546103ee9061141c565b905081101561053b57875f8151811061040a576104096113c2565b5b602001015160f81c60f81b7effffffffffffffffffffffffffffffffffffffffffffffffffffffffffffff1916603a8281546104459061141c565b8110610454576104536113c2565b5b81546001161561047157905f5260205f2090602091828204019190065b9054901a7f0100000000000000000000000000000000000000000000000000000000000000027effffffffffffffffffffffffffffffffffffffffffffffffffffffffffffff19160361052e57875f815181106104d1576104d06113c2565b5b602001015160f81c60f81b826002836104ea91906116b1565b815181106104fb576104fa6113c2565b5b60200101907effffffffffffffffffffffffffffffffffffffffffffffffffffffffffffff191690815f1a905350600192505b80806001019150506103e1565b5080603b908161054b919061188f565b5081610676576105e3603d80546105619061141c565b80601f016020809104026020016040519081016040528092919081815260200182805461058d9061141c565b80156105d85780601f106105af576101008083540402835291602001916105d8565b820191905f5260205f20905b8154815290600101906020018083116105bb57829003601f168201915b505050505088610fcb565b61061a57603d876040516020016105fb929190611a28565b604051602081830303815290604052603d9081610618919061188f565b505b603c5f81548092919061062c90611a56565b91905055505f603c5403610675576040517f08c379a000000000000000000000000000000000000000000000000000000000815260040161066c90611ac7565b60405180910390fd5b5b7f28ad9c398005f7e09e1bb9ffd65dac5f1faecd15f724eb37b779f56521e9cc3a603b603c54603d6040516106ad93929190611b66565b60405180910390a1603b603c54603d8280546106c89061141c565b80601f01602080910402602001604051908101604052809291908181526020018280546106f49061141c565b801561073f5780601f106107165761010080835404028352916020019161073f565b820191905f5260205f20905b81548152906001019060200180831161072257829003601f168201915b505050505092508080546107529061141c565b80601f016020809104026020016040519081016040528092919081815260200182805461077e9061141c565b80156107c95780601f106107a0576101008083540402835291602001916107c9565b820191905f5260205f20905b8154815290600101906020018083116107ac57829003601f168201915b505050505090509550955095505050509193909250565b60605f6060603b603c54603d8280546107f89061141c565b80601f01602080910402602001604051908101604052809291908181526020018280546108249061141c565b801561086f5780601f106108465761010080835404028352916020019161086f565b820191905f5260205f20905b81548152906001019060200180831161085257829003601f168201915b505050505092508080546108829061141c565b80601f01602080910402602001604051908101604052809291908181526020018280546108ae9061141c565b80156108f95780601f106108d0576101008083540402835291602001916108f9565b820191905f5260205f20905b8154815290600101906020018083116108dc57829003601f168201915b50505050509050925092509250909192565b603e5f9054906101000a900460ff161561095a576040517f08c379a000000000000000000000000000000000000000000000000000000000815260040161095190611c19565b60405180910390fd5b6001603e5f6101000a81548160ff02191690831515021790555042603f819055507fa2dfaa3573b86004ec9d4d4abe5068d942579c59da4da8cd0d9e45e71a393bc1603f546040546040516109b0929190611c37565b60405180910390a15f603242336040516020016109ce929190611cf3565b604051602081830303815290604052805190602001205f1c6109f09190611d4b565b90505f8160328110610a0557610a046113c2565b5b01603a9081610a149190611da2565b505f603a8054610a239061141c565b80601f0160208091040260200160405190810160405280929190818152602001828054610a4f9061141c565b8015610a9a5780601f10610a7157610100808354040283529160200191610a9a565b820191905f5260205f20905b815481529060010190602001808311610a7d57829003601f168201915b505050505090505f60028251610ab091906116b1565b67ffffffffffffffff811115610ac957610ac861119c565b5b6040519080825280601f01601f191660200182016040528015610afb5781602001600182028036833780820191505090505b50905060405180602001604052805f815250603d9081610b1b919061188f565b506007603c819055505f5b603a8054610b339061141c565b9050811015610dc7577f2000000000000000000000000000000000000000000000000000000000000000603a828154610b6b9061141c565b8110610b7a57610b796113c2565b5b815460011615610b9757905f5260205f2090602091828204019190065b9054901a7f0100000000000000000000000000000000000000000000000000000000000000027effffffffffffffffffffffffffffffffffffffffffffffffffffffffffffff191603610cd1577f7c0000000000000000000000000000000000000000000000000000000000000082600283610c1391906116b1565b81518110610c2457610c236113c2565b5b60200101907effffffffffffffffffffffffffffffffffffffffffffffffffffffffffffff191690815f1a9053507f7c00000000000000000000000000000000000000000000000000000000000000826001600284610c8391906116b1565b610c8d91906114b4565b81518110610c9e57610c9d6113c2565b5b60200101907effffffffffffffffffffffffffffffffffffffffffffffffffffffffffffff191690815f1a905350610dba565b7f5f0000000000000000000000000000000000000000000000000000000000000082600283610d0091906116b1565b81518110610d1157610d106113c2565b5b60200101907effffffffffffffffffffffffffffffffffffffffffffffffffffffffffffff191690815f1a9053507f2000000000000000000000000000000000000000000000000000000000000000826001600284610d7091906116b1565b610d7a91906114b4565b81518110610d8b57610d8a6113c2565b5b60200101907effffffffffffffffffffffffffffffffffffffffffffffffffffffffffffff191690815f1a9053505b8080600101915050610b26565b5080603b9081610dd7919061188f565b50505050565b603e5f9054906101000a900460ff16610e2b576040517f08c379a0000000000000000000000000000000000000000000000000000000008152600401610e2290611496565b60405180910390fd5b5f603e5f6101000a81548160ff0219169083151502179055507f1084d47e99647565312e58bba004b0fc3088c683fa22f3925f1cf5fb0955402960405160405180910390a1565b60605f8203610eb8576040518060400160405280600181526020017f30000000000000000000000000000000000000000000000000000000000000008152509050610fc6565b5f8290505f5b5f8214610ee7578080610ed090611e87565b915050600a82610ee09190611ece565b9150610ebe565b5f8167ffffffffffffffff811115610f0257610f0161119c565b5b6040519080825280601f01601f191660200182016040528015610f345781602001600182028036833780820191505090505b5090505b5f8514610fbf57600182610f4c919061138f565b9150600a85610f5b9190611d4b565b6030610f6791906114b4565b60f81b818381518110610f7d57610f7c6113c2565b5b60200101907effffffffffffffffffffffffffffffffffffffffffffffffffffffffffffff191690815f1a905350600a85610fb89190611ece565b9450610f38565b8093505050505b919050565b5f808390505f8390505f81511480610fe4575080518251105b15610ff3575f925050506110ed565b5f5b81518351611003919061138f565b81116110e6575f600190505f5b83518110156110be5783818151811061102c5761102b6113c2565b5b602001015160f81c60f81b7effffffffffffffffffffffffffffffffffffffffffffffffffffffffffffff191685828561106691906114b4565b81518110611077576110766113c2565b5b602001015160f81c60f81b7effffffffffffffffffffffffffffffffffffffffffffffffffffffffffffff1916146110b1575f91506110be565b8080600101915050611010565b5080156110d25760019450505050506110ed565b5080806110de90611e87565b915050610ff5565b505f925050505b92915050565b5f81519050919050565b5f82825260208201905092915050565b8281835e5f83830152505050565b5f601f19601f8301169050919050565b5f611135826110f3565b61113f81856110fd565b935061114f81856020860161110d565b6111588161111b565b840191505092915050565b5f6020820190508181035f83015261117b818461112b565b905092915050565b5f604051905090565b5f80fd5b5f80fd5b5f80fd5b5f80fd5b7f4e487b71000000000000000000000000000000000000000000000000000000005f52604160045260245ffd5b6111d28261111b565b810181811067ffffffffffffffff821117156111f1576111f061119c565b5b80604052505050565b5f611203611183565b905061120f82826111c9565b919050565b5f67ffffffffffffffff82111561122e5761122d61119c565b5b6112378261111b565b9050602081019050919050565b828183375f83830152505050565b5f61126461125f84611214565b6111fa565b9050828152602081018484840111156112805761127f611198565b5b61128b848285611244565b509392505050565b5f82601f8301126112a7576112a6611194565b5b81356112b7848260208601611252565b91505092915050565b5f602082840312156112d5576112d461118c565b5b5f82013567ffffffffffffffff8111156112f2576112f1611190565b5b6112fe84828501611293565b91505092915050565b5f819050919050565b61131981611307565b82525050565b5f6060820190508181035f830152611337818661112b565b90506113466020830185611310565b8181036040830152611358818461112b565b9050949350505050565b7f4e487b71000000000000000000000000000000000000000000000000000000005f52601160045260245ffd5b5f61139982611307565b91506113a483611307565b92508282039050818111156113bc576113bb611362565b5b92915050565b7f4e487b71000000000000000000000000000000000000000000000000000000005f52603260045260245ffd5b7f4e487b71000000000000000000000000000000000000000000000000000000005f52602260045260245ffd5b5f600282049050600182168061143357607f821691505b602082108103611446576114456113ef565b5b50919050565b7f4e6f206163746976652067616d6520746f20656e642e000000000000000000005f82015250565b5f6114806016836110fd565b915061148b8261144c565b602082019050919050565b5f6020820190508181035f8301526114ad81611474565b9050919050565b5f6114be82611307565b91506114c983611307565b92508282019050808211156114e1576114e0611362565b5b92915050565b7f54696d65206c696d697420726561636865642e000000000000000000000000005f82015250565b5f61151b6013836110fd565b9150611526826114e7565b602082019050919050565b5f6020820190508181035f8301526115488161150f565b9050919050565b5f81905092915050565b7f596f7520686176652000000000000000000000000000000000000000000000005f82015250565b5f61158d60098361154f565b915061159882611559565b600982019050919050565b5f6115ad826110f3565b6115b7818561154f565b93506115c781856020860161110d565b80840191505092915050565b7f207365636f6e6473206c656674000000000000000000000000000000000000005f82015250565b5f611607600d8361154f565b9150611612826115d3565b600d82019050919050565b5f61162782611581565b915061163382846115a3565b915061163e826115fb565b915081905092915050565b7f496e707574206d75737420626520612073696e676c65206368617261637465725f82015250565b5f61167d6020836110fd565b915061168882611649565b602082019050919050565b5f6020820190508181035f8301526116aa81611671565b9050919050565b5f6116bb82611307565b91506116c683611307565b92508282026116d481611307565b915082820484148315176116eb576116ea611362565b5b5092915050565b5f819050815f5260205f209050919050565b5f6020601f8301049050919050565b5f82821b905092915050565b5f6008830261174e7fffffffffffffffffffffffffffffffffffffffffffffffffffffffffffffffff82611713565b6117588683611713565b95508019841693508086168417925050509392505050565b5f819050919050565b5f61179361178e61178984611307565b611770565b611307565b9050919050565b5f819050919050565b6117ac83611779565b6117c06117b88261179a565b84845461171f565b825550505050565b5f90565b6117d46117c8565b6117df8184846117a3565b505050565b5b81811015611802576117f75f826117cc565b6001810190506117e5565b5050565b601f82111561184757611818816116f2565b61182184611704565b81016020851015611830578190505b61184461183c85611704565b8301826117e4565b50505b505050565b5f82821c905092915050565b5f6118675f198460080261184c565b1980831691505092915050565b5f61187f8383611858565b9150826002028217905092915050565b611898826110f3565b67ffffffffffffffff8111156118b1576118b061119c565b5b6118bb825461141c565b6118c6828285611806565b5f60209050601f8311600181146118f7575f84156118e5578287015190505b6118ef8582611874565b865550611956565b601f198416611905866116f2565b5f5b8281101561192c57848901518255600182019150602085019450602081019050611907565b868310156119495784890151611945601f891682611858565b8355505b6001600288020188555050505b505050505050565b5f815461196a8161141c565b611974818661154f565b9450600182165f811461198e57600181146119a3576119d5565b60ff19831686528115158202860193506119d5565b6119ac856116f2565b5f5b838110156119cd578154818901526001820191506020810190506119ae565b838801955050505b50505092915050565b7f20000000000000000000000000000000000000000000000000000000000000005f82015250565b5f611a1260018361154f565b9150611a1d826119de565b600182019050919050565b5f611a33828561195e565b9150611a3f82846115a3565b9150611a4a82611a06565b91508190509392505050565b5f611a6082611307565b91505f8203611a7257611a71611362565b5b600182039050919050565b7f47616d65204f7665723a204e6f20617474656d707473206c6566742e000000005f82015250565b5f611ab1601c836110fd565b9150611abc82611a7d565b602082019050919050565b5f6020820190508181035f830152611ade81611aa5565b9050919050565b5f8154611af18161141c565b611afb81866110fd565b9450600182165f8114611b155760018114611b2b57611b5d565b60ff198316865281151560200286019350611b5d565b611b34856116f2565b5f5b83811015611b5557815481890152600182019150602081019050611b36565b808801955050505b50505092915050565b5f6060820190508181035f830152611b7e8186611ae5565b9050611b8d6020830185611310565b8181036040830152611b9f8184611ae5565b9050949350505050565b7f47616d6520616c726561647920696e2070726f67726573732e20456e642069745f8201527f2066697273742e00000000000000000000000000000000000000000000000000602082015250565b5f611c036027836110fd565b9150611c0e82611ba9565b604082019050919050565b5f6020820190508181035f830152611c3081611bf7565b9050919050565b5f604082019050611c4a5f830185611310565b611c576020830184611310565b9392505050565b5f819050919050565b611c78611c7382611307565b611c5e565b82525050565b5f73ffffffffffffffffffffffffffffffffffffffff82169050919050565b5f611ca782611c7e565b9050919050565b5f8160601b9050919050565b5f611cc482611cae565b9050919050565b5f611cd582611cba565b9050919050565b611ced611ce882611c9d565b611ccb565b82525050565b5f611cfe8285611c67565b602082019150611d0e8284611cdc565b6014820191508190509392505050565b7f4e487b71000000000000000000000000000000000000000000000000000000005f52601260045260245ffd5b5f611d5582611307565b9150611d6083611307565b925082611d7057611d6f611d1e565b5b828206905092915050565b5f81549050611d898161141c565b9050919050565b5f819050815f5260205f209050919050565b818103611db0575050611e85565b611db982611d7b565b67ffffffffffffffff811115611dd257611dd161119c565b5b611ddc825461141c565b611de7828285611806565b5f601f831160018114611e14575f8415611e02578287015490505b611e0c8582611874565b865550611e7e565b601f198416611e2287611d90565b9650611e2d866116f2565b5f5b82811015611e5457848901548255600182019150600185019450602081019050611e2f565b86831015611e715784890154611e6d601f891682611858565b8355505b6001600288020188555050505b5050505050505b565b5f611e9182611307565b91507fffffffffffffffffffffffffffffffffffffffffffffffffffffffffffffffff8203611ec357611ec2611362565b5b600182019050919050565b5f611ed882611307565b9150611ee383611307565b925082611ef357611ef2611d1e565b5b82820490509291505056fea264697066735822122014d046be0dbf4a7c58c710879475ed4c35e694d5af057dc144b98e9ce859f9d264736f6c634300081a00332020205f5f5f5f0a2020207c202020207c0a2020207c202020204f0a2020207c2020205c7c2f0a2020207c0a2020207c0a20202f205c0a2020205f5f5f5f0a2020207c202020207c0a2020207c202020204f0a2020207c2020205c7c2f0a2020207c202020207c0a2020207c0a20202f205c0a2020205f5f5f5f0a2020207c202020207c0a2020207c202020204f0a2020207c0a2020207c0a2020207c0a20202f205c0a2020205f5f5f5f0a2020207c202020207c0a2020207c202020204f0a2020207c202020207c0a2020207c0a2020207c0a20202f205c0a2020205f5f5f5f0a2020207c202020207c0a2020207c0a2020207c0a2020207c0a2020207c0a20202f205c0a2020205f5f5f5f0a2020207c202020207c0a2020207c202020204f0a2020207c2020205c7c2f0a2020207c202020207c0a2020207c2020202f0a20202f205c0a2020205f5f5f5f0a2020207c202020207c0a2020207c202020204f0a2020207c2020205c7c2f0a2020207c202020207c0a2020207c2020202f205c0a20202f205c0a",
			"opcodes": "PUSH1 0x80 PUSH1 0x40 MSTORE PUSH1 0x40 MLOAD DUP1 PUSH2 0x640 ADD PUSH1 0x40 MSTORE DUP1 PUSH1 0x40 MLOAD DUP1 PUSH1 0x40 ADD PUSH1 0x40 MSTORE DUP1 PUSH1 0x9 DUP2 MSTORE PUSH1 0x20 ADD PUSH32 0x6170706C65207069650000000000000000000000000000000000000000000000 DUP2 MSTORE POP DUP2 MSTORE PUSH1 0x20 ADD PUSH1 0x40 MLOAD DUP1 PUSH1 0x40 ADD PUSH1 0x40 MSTORE DUP1 PUSH1 0x9 DUP2 MSTORE PUSH1 0x20 ADD PUSH32 0x6861707079206361740000000000000000000000000000000000000000000000 DUP2 MSTORE POP DUP2 MSTORE PUSH1 0x20 ADD PUSH1 0x40 MLOAD DUP1 PUSH1 0x40 ADD PUSH1 0x40 MSTORE DUP1 PUSH1 0x8 DUP2 MSTORE PUSH1 0x20 ADD PUSH32 0x6269672062656172000000000000000000000000000000000000000000000000 DUP2 MSTORE POP DUP2 MSTORE PUSH1 0x20 ADD PUSH1 0x40 MLOAD DUP1 PUSH1 0x40 ADD PUSH1 0x40 MSTORE DUP1 PUSH1 0xB DUP2 MSTORE PUSH1 0x20 ADD PUSH32 0x7261696E626F7720736B79000000000000000000000000000000000000000000 DUP2 MSTORE POP DUP2 MSTORE PUSH1 0x20 ADD PUSH1 0x40 MLOAD DUP1 PUSH1 0x40 ADD PUSH1 0x40 MSTORE DUP1 PUSH1 0x9 DUP2 MSTORE PUSH1 0x20 ADD PUSH32 0x6D61676963206861740000000000000000000000000000000000000000000000 DUP2 MSTORE POP DUP2 MSTORE PUSH1 0x20 ADD PUSH1 0x40 MLOAD DUP1 PUSH1 0x40 ADD PUSH1 0x40 MSTORE DUP1 PUSH1 0x9 DUP2 MSTORE PUSH1 0x20 ADD PUSH32 0x73756E6E79206461790000000000000000000000000000000000000000000000 DUP2 MSTORE POP DUP2 MSTORE PUSH1 0x20 ADD PUSH1 0x40 MLOAD DUP1 PUSH1 0x40 ADD PUSH1 0x40 MSTORE DUP1 PUSH1 0xA DUP2 MSTORE PUSH1 0x20 ADD PUSH32 0x74696E7920686F75736500000000000000000000000000000000000000000000 DUP2 MSTORE POP DUP2 MSTORE PUSH1 0x20 ADD PUSH1 0x40 MLOAD DUP1 PUSH1 0x40 ADD PUSH1 0x40 MSTORE DUP1 PUSH1 0x9 DUP2 MSTORE PUSH1 0x20 ADD PUSH32 0x6C656D6F6E207465610000000000000000000000000000000000000000000000 DUP2 MSTORE POP DUP2 MSTORE PUSH1 0x20 ADD PUSH1 0x40 MLOAD DUP1 PUSH1 0x40 ADD PUSH1 0x40 MSTORE DUP1 PUSH1 0xA DUP2 MSTORE PUSH1 0x20 ADD PUSH32 0x7075707079206C6F766500000000000000000000000000000000000000000000 DUP2 MSTORE POP DUP2 MSTORE PUSH1 0x20 ADD PUSH1 0x40 MLOAD DUP1 PUSH1 0x40 ADD PUSH1 0x40 MSTORE DUP1 PUSH1 0x9 DUP2 MSTORE PUSH1 0x20 ADD PUSH32 0x77696C6420776573740000000000000000000000000000000000000000000000 DUP2 MSTORE POP DUP2 MSTORE PUSH1 0x20 ADD PUSH1 0x40 MLOAD DUP1 PUSH1 0x40 ADD PUSH1 0x40 MSTORE DUP1 PUSH1 0xB DUP2 MSTORE PUSH1 0x20 ADD PUSH32 0x6F72616E6765206D6F6F6E000000000000000000000000000000000000000000 DUP2 MSTORE POP DUP2 MSTORE PUSH1 0x20 ADD PUSH1 0x40 MLOAD DUP1 PUSH1 0x40 ADD PUSH1 0x40 MSTORE DUP1 PUSH1 0xB DUP2 MSTORE PUSH1 0x20 ADD PUSH32 0x73696C7665722073746172000000000000000000000000000000000000000000 DUP2 MSTORE POP DUP2 MSTORE PUSH1 0x20 ADD PUSH1 0x40 MLOAD DUP1 PUSH1 0x40 ADD PUSH1 0x40 MSTORE DUP1 PUSH1 0xC DUP2 MSTORE PUSH1 0x20 ADD PUSH32 0x6C61756768696E67206F776C0000000000000000000000000000000000000000 DUP2 MSTORE POP DUP2 MSTORE PUSH1 0x20 ADD PUSH1 0x40 MLOAD DUP1 PUSH1 0x40 ADD PUSH1 0x40 MSTORE DUP1 PUSH1 0xB DUP2 MSTORE PUSH1 0x20 ADD PUSH32 0x666F726573742070617468000000000000000000000000000000000000000000 DUP2 MSTORE POP DUP2 MSTORE PUSH1 0x20 ADD PUSH1 0x40 MLOAD DUP1 PUSH1 0x40 ADD PUSH1 0x40 MSTORE DUP1 PUSH1 0xB DUP2 MSTORE PUSH1 0x20 ADD PUSH32 0x666C79696E672066697368000000000000000000000000000000000000000000 DUP2 MSTORE POP DUP2 MSTORE PUSH1 0x20 ADD PUSH1 0x40 MLOAD DUP1 PUSH1 0x40 ADD PUSH1 0x40 MSTORE DUP1 PUSH1 0xC DUP2 MSTORE PUSH1 0x20 ADD PUSH32 0x636F74746F6E20636C6F75640000000000000000000000000000000000000000 DUP2 MSTORE POP DUP2 MSTORE PUSH1 0x20 ADD PUSH1 0x40 MLOAD DUP1 PUSH1 0x40 ADD PUSH1 0x40 MSTORE DUP1 PUSH1 0xB DUP2 MSTORE PUSH1 0x20 ADD PUSH32 0x6368657272792074726565000000000000000000000000000000000000000000 DUP2 MSTORE POP DUP2 MSTORE PUSH1 0x20 ADD PUSH1 0x40 MLOAD DUP1 PUSH1 0x40 ADD PUSH1 0x40 MSTORE DUP1 PUSH1 0xA DUP2 MSTORE PUSH1 0x20 ADD PUSH32 0x736563726574206B657900000000000000000000000000000000000000000000 DUP2 MSTORE POP DUP2 MSTORE PUSH1 0x20 ADD PUSH1 0x40 MLOAD DUP1 PUSH1 0x40 ADD PUSH1 0x40 MSTORE DUP1 PUSH1 0xC DUP2 MSTORE PUSH1 0x20 ADD PUSH32 0x6272617665206B6E696768740000000000000000000000000000000000000000 DUP2 MSTORE POP DUP2 MSTORE PUSH1 0x20 ADD PUSH1 0x40 MLOAD DUP1 PUSH1 0x40 ADD PUSH1 0x40 MSTORE DUP1 PUSH1 0xA DUP2 MSTORE PUSH1 0x20 ADD PUSH32 0x626C7565206F6365616E00000000000000000000000000000000000000000000 DUP2 MSTORE POP DUP2 MSTORE PUSH1 0x20 ADD PUSH1 0x40 MLOAD DUP1 PUSH1 0x40 ADD PUSH1 0x40 MSTORE DUP1 PUSH1 0xF DUP2 MSTORE PUSH1 0x20 ADD PUSH32 0x7477696E6B6C696E67206C696768740000000000000000000000000000000000 DUP2 MSTORE POP DUP2 MSTORE PUSH1 0x20 ADD PUSH1 0x40 MLOAD DUP1 PUSH1 0x40 ADD PUSH1 0x40 MSTORE DUP1 PUSH1 0xB DUP2 MSTORE PUSH1 0x20 ADD PUSH32 0x736E6F7779206E69676874000000000000000000000000000000000000000000 DUP2 MSTORE POP DUP2 MSTORE PUSH1 0x20 ADD PUSH1 0x40 MLOAD DUP1 PUSH1 0x40 ADD PUSH1 0x40 MSTORE DUP1 PUSH1 0xC DUP2 MSTORE PUSH1 0x20 ADD PUSH32 0x6769616E7420747572746C650000000000000000000000000000000000000000 DUP2 MSTORE POP DUP2 MSTORE PUSH1 0x20 ADD PUSH1 0x40 MLOAD DUP1 PUSH1 0x40 ADD PUSH1 0x40 MSTORE DUP1 PUSH1 0xA DUP2 MSTORE PUSH1 0x20 ADD PUSH32 0x66616972792074616C6500000000000000000000000000000000000000000000 DUP2 MSTORE POP DUP2 MSTORE PUSH1 0x20 ADD PUSH1 0x40 MLOAD DUP1 PUSH1 0x40 ADD PUSH1 0x40 MSTORE DUP1 PUSH1 0xF DUP2 MSTORE PUSH1 0x20 ADD PUSH32 0x68696464656E2074726561737572650000000000000000000000000000000000 DUP2 MSTORE POP DUP2 MSTORE PUSH1 0x20 ADD PUSH1 0x40 MLOAD DUP1 PUSH1 0x40 ADD PUSH1 0x40 MSTORE DUP1 PUSH1 0xC DUP2 MSTORE PUSH1 0x20 ADD PUSH32 0x73696C656E742072697665720000000000000000000000000000000000000000 DUP2 MSTORE POP DUP2 MSTORE PUSH1 0x20 ADD PUSH1 0x40 MLOAD DUP1 PUSH1 0x40 ADD PUSH1 0x40 MSTORE DUP1 PUSH1 0xC DUP2 MSTORE PUSH1 0x20 ADD PUSH32 0x637564646C792062756E6E790000000000000000000000000000000000000000 DUP2 MSTORE POP DUP2 MSTORE PUSH1 0x20 ADD PUSH1 0x40 MLOAD DUP1 PUSH1 0x40 ADD PUSH1 0x40 MSTORE DUP1 PUSH1 0xF DUP2 MSTORE PUSH1 0x20 ADD PUSH32 0x64616E63696E6720646F6C7068696E0000000000000000000000000000000000 DUP2 MSTORE POP DUP2 MSTORE PUSH1 0x20 ADD PUSH1 0x40 MLOAD DUP1 PUSH1 0x40 ADD PUSH1 0x40 MSTORE DUP1 PUSH1 0xB DUP2 MSTORE PUSH1 0x20 ADD PUSH32 0x66726F7A656E206C616B65000000000000000000000000000000000000000000 DUP2 MSTORE POP DUP2 MSTORE PUSH1 0x20 ADD PUSH1 0x40 MLOAD DUP1 PUSH1 0x40 ADD PUSH1 0x40 MSTORE DUP1 PUSH1 0xE DUP2 MSTORE PUSH1 0x20 ADD PUSH32 0x63686F636F6C6174652063616B65000000000000000000000000000000000000 DUP2 MSTORE POP DUP2 MSTORE PUSH1 0x20 ADD PUSH1 0x40 MLOAD DUP1 PUSH1 0x40 ADD PUSH1 0x40 MSTORE DUP1 PUSH1 0xE DUP2 MSTORE PUSH1 0x20 ADD PUSH32 0x667269656E646C792067686F7374000000000000000000000000000000000000 DUP2 MSTORE POP DUP2 MSTORE PUSH1 0x20 ADD PUSH1 0x40 MLOAD DUP1 PUSH1 0x40 ADD PUSH1 0x40 MSTORE DUP1 PUSH1 0xB DUP2 MSTORE PUSH1 0x20 ADD PUSH32 0x676F6C64656E2072696E67000000000000000000000000000000000000000000 DUP2 MSTORE POP DUP2 MSTORE PUSH1 0x20 ADD PUSH1 0x40 MLOAD DUP1 PUSH1 0x40 ADD PUSH1 0x40 MSTORE DUP1 PUSH1 0xF DUP2 MSTORE PUSH1 0x20 ADD PUSH32 0x706561636566756C2067617264656E0000000000000000000000000000000000 DUP2 MSTORE POP DUP2 MSTORE PUSH1 0x20 ADD PUSH1 0x40 MLOAD DUP1 PUSH1 0x40 ADD PUSH1 0x40 MSTORE DUP1 PUSH1 0xF DUP2 MSTORE PUSH1 0x20 ADD PUSH32 0x77686973706572696E672077696E640000000000000000000000000000000000 DUP2 MSTORE POP DUP2 MSTORE PUSH1 0x20 ADD PUSH1 0x40 MLOAD DUP1 PUSH1 0x40 ADD PUSH1 0x40 MSTORE DUP1 PUSH1 0xB DUP2 MSTORE PUSH1 0x20 ADD PUSH32 0x7368696E792070656E6E79000000000000000000000000000000000000000000 DUP2 MSTORE POP DUP2 MSTORE PUSH1 0x20 ADD PUSH1 0x40 MLOAD DUP1 PUSH1 0x40 ADD PUSH1 0x40 MSTORE DUP1 PUSH1 0xD DUP2 MSTORE PUSH1 0x20 ADD PUSH32 0x6D6F756E7461696E207065616B00000000000000000000000000000000000000 DUP2 MSTORE POP DUP2 MSTORE PUSH1 0x20 ADD PUSH1 0x40 MLOAD DUP1 PUSH1 0x40 ADD PUSH1 0x40 MSTORE DUP1 PUSH1 0xB DUP2 MSTORE PUSH1 0x20 ADD PUSH32 0x63616C6D20776174657273000000000000000000000000000000000000000000 DUP2 MSTORE POP DUP2 MSTORE PUSH1 0x20 ADD PUSH1 0x40 MLOAD DUP1 PUSH1 0x40 ADD PUSH1 0x40 MSTORE DUP1 PUSH1 0xA DUP2 MSTORE PUSH1 0x20 ADD PUSH32 0x6272696768742073756E00000000000000000000000000000000000000000000 DUP2 MSTORE POP DUP2 MSTORE PUSH1 0x20 ADD PUSH1 0x40 MLOAD DUP1 PUSH1 0x40 ADD PUSH1 0x40 MSTORE DUP1 PUSH1 0xA DUP2 MSTORE PUSH1 0x20 ADD PUSH32 0x736C6565707920666F7800000000000000000000000000000000000000000000 DUP2 MSTORE POP DUP2 MSTORE PUSH1 0x20 ADD PUSH1 0x40 MLOAD DUP1 PUSH1 0x40 ADD PUSH1 0x40 MSTORE DUP1 PUSH1 0xA DUP2 MSTORE PUSH1 0x20 ADD PUSH32 0x73746172727920736B7900000000000000000000000000000000000000000000 DUP2 MSTORE POP DUP2 MSTORE PUSH1 0x20 ADD PUSH1 0x40 MLOAD DUP1 PUSH1 0x40 ADD PUSH1 0x40 MSTORE DUP1 PUSH1 0xB DUP2 MSTORE PUSH1 0x20 ADD PUSH32 0x74696E7920666C6F776572000000000000000000000000000000000000000000 DUP2 MSTORE POP DUP2 MSTORE PUSH1 0x20 ADD PUSH1 0x40 MLOAD DUP1 PUSH1 0x40 ADD PUSH1 0x40 MSTORE DUP1 PUSH1 0xD DUP2 MSTORE PUSH1 0x20 ADD PUSH32 0x67656E746C6520627265657A6500000000000000000000000000000000000000 DUP2 MSTORE POP DUP2 MSTORE PUSH1 0x20 ADD PUSH1 0x40 MLOAD DUP1 PUSH1 0x40 ADD PUSH1 0x40 MSTORE DUP1 PUSH1 0xC DUP2 MSTORE PUSH1 0x20 ADD PUSH32 0x7261696E626F7720666973680000000000000000000000000000000000000000 DUP2 MSTORE POP DUP2 MSTORE PUSH1 0x20 ADD PUSH1 0x40 MLOAD DUP1 PUSH1 0x40 ADD PUSH1 0x40 MSTORE DUP1 PUSH1 0xC DUP2 MSTORE PUSH1 0x20 ADD PUSH32 0x73696E67696E6720626972640000000000000000000000000000000000000000 DUP2 MSTORE POP DUP2 MSTORE PUSH1 0x20 ADD PUSH1 0x40 MLOAD DUP1 PUSH1 0x40 ADD PUSH1 0x40 MSTORE DUP1 PUSH1 0xA DUP2 MSTORE PUSH1 0x20 ADD PUSH32 0x626F6C6420746967657200000000000000000000000000000000000000000000 DUP2 MSTORE POP DUP2 MSTORE PUSH1 0x20 ADD PUSH1 0x40 MLOAD DUP1 PUSH1 0x40 ADD PUSH1 0x40 MSTORE DUP1 PUSH1 0xE DUP2 MSTORE PUSH1 0x20 ADD PUSH32 0x7370696E6E696E6720776865656C000000000000000000000000000000000000 DUP2 MSTORE POP DUP2 MSTORE PUSH1 0x20 ADD PUSH1 0x40 MLOAD DUP1 PUSH1 0x40 ADD PUSH1 0x40 MSTORE DUP1 PUSH1 0xD DUP2 MSTORE PUSH1 0x20 ADD PUSH32 0x736861646F772070757070657400000000000000000000000000000000000000 DUP2 MSTORE POP DUP2 MSTORE PUSH1 0x20 ADD PUSH1 0x40 MLOAD DUP1 PUSH1 0x40 ADD PUSH1 0x40 MSTORE DUP1 PUSH1 0xC DUP2 MSTORE PUSH1 0x20 ADD PUSH32 0x677265656E2076616C6C65790000000000000000000000000000000000000000 DUP2 MSTORE POP DUP2 MSTORE PUSH1 0x20 ADD PUSH1 0x40 MLOAD DUP1 PUSH1 0x40 ADD PUSH1 0x40 MSTORE DUP1 PUSH1 0x14 DUP2 MSTORE PUSH1 0x20 ADD PUSH32 0x666C7574746572696E6720627574746572666C79000000000000000000000000 DUP2 MSTORE POP DUP2 MSTORE PUSH1 0x20 ADD PUSH1 0x40 MLOAD DUP1 PUSH1 0x40 ADD PUSH1 0x40 MSTORE DUP1 PUSH1 0xB DUP2 MSTORE PUSH1 0x20 ADD PUSH32 0x7365637265742063617665000000000000000000000000000000000000000000 DUP2 MSTORE POP DUP2 MSTORE POP PUSH0 SWAP1 PUSH1 0x32 PUSH2 0xBA3 SWAP3 SWAP2 SWAP1 PUSH2 0xCC5 JUMP JUMPDEST POP PUSH1 0x40 MLOAD DUP1 PUSH2 0x100 ADD PUSH1 0x40 MSTORE DUP1 PUSH1 0x40 MLOAD DUP1 PUSH1 0x60 ADD PUSH1 0x40 MSTORE DUP1 PUSH1 0x2C DUP2 MSTORE PUSH1 0x20 ADD PUSH2 0x30FC PUSH1 0x2C SWAP2 CODECOPY DUP2 MSTORE PUSH1 0x20 ADD PUSH1 0x40 MLOAD DUP1 PUSH1 0x60 ADD PUSH1 0x40 MSTORE DUP1 PUSH1 0x31 DUP2 MSTORE PUSH1 0x20 ADD PUSH2 0x3095 PUSH1 0x31 SWAP2 CODECOPY DUP2 MSTORE PUSH1 0x20 ADD PUSH1 0x40 MLOAD DUP1 PUSH1 0x60 ADD PUSH1 0x40 MSTORE DUP1 PUSH1 0x36 DUP2 MSTORE PUSH1 0x20 ADD PUSH2 0x30C6 PUSH1 0x36 SWAP2 CODECOPY DUP2 MSTORE PUSH1 0x20 ADD PUSH1 0x40 MLOAD DUP1 PUSH1 0x60 ADD PUSH1 0x40 MSTORE DUP1 PUSH1 0x37 DUP2 MSTORE PUSH1 0x20 ADD PUSH2 0x3022 PUSH1 0x37 SWAP2 CODECOPY DUP2 MSTORE PUSH1 0x20 ADD PUSH1 0x40 MLOAD DUP1 PUSH1 0x60 ADD PUSH1 0x40 MSTORE DUP1 PUSH1 0x3C DUP2 MSTORE PUSH1 0x20 ADD PUSH2 0x3059 PUSH1 0x3C SWAP2 CODECOPY DUP2 MSTORE PUSH1 0x20 ADD PUSH1 0x40 MLOAD DUP1 PUSH1 0x60 ADD PUSH1 0x40 MSTORE DUP1 PUSH1 0x3C DUP2 MSTORE PUSH1 0x20 ADD PUSH2 0x3059 PUSH1 0x3C SWAP2 CODECOPY DUP2 MSTORE PUSH1 0x20 ADD PUSH1 0x40 MLOAD DUP1 PUSH1 0x60 ADD PUSH1 0x40 MSTORE DUP1 PUSH1 0x40 DUP2 MSTORE PUSH1 0x20 ADD PUSH2 0x3128 PUSH1 0x40 SWAP2 CODECOPY DUP2 MSTORE PUSH1 0x20 ADD PUSH1 0x40 MLOAD DUP1 PUSH1 0x80 ADD PUSH1 0x40 MSTORE DUP1 PUSH1 0x42 DUP2 MSTORE PUSH1 0x20 ADD PUSH2 0x3168 PUSH1 0x42 SWAP2 CODECOPY DUP2 MSTORE POP PUSH1 0x32 SWAP1 PUSH1 0x8 PUSH2 0xCAE SWAP3 SWAP2 SWAP1 PUSH2 0xD11 JUMP JUMPDEST POP PUSH1 0x3C PUSH1 0x40 SSTORE CALLVALUE DUP1 ISZERO PUSH2 0xCBF JUMPI PUSH0 DUP1 REVERT JUMPDEST POP PUSH2 0x10E1 JUMP JUMPDEST DUP3 PUSH1 0x32 DUP2 ADD SWAP3 DUP3 ISZERO PUSH2 0xD00 JUMPI SWAP2 PUSH1 0x20 MUL DUP3 ADD JUMPDEST DUP3 DUP2 GT ISZERO PUSH2 0xCFF JUMPI DUP3 MLOAD DUP3 SWAP1 DUP2 PUSH2 0xCEF SWAP2 SWAP1 PUSH2 0x1012 JUMP JUMPDEST POP SWAP2 PUSH1 0x20 ADD SWAP2 SWAP1 PUSH1 0x1 ADD SWAP1 PUSH2 0xCD8 JUMP JUMPDEST JUMPDEST POP SWAP1 POP PUSH2 0xD0D SWAP2 SWAP1 PUSH2 0xD5D JUMP JUMPDEST POP SWAP1 JUMP JUMPDEST DUP3 PUSH1 0x8 DUP2 ADD SWAP3 DUP3 ISZERO PUSH2 0xD4C JUMPI SWAP2 PUSH1 0x20 MUL DUP3 ADD JUMPDEST DUP3 DUP2 GT ISZERO PUSH2 0xD4B JUMPI DUP3 MLOAD DUP3 SWAP1 DUP2 PUSH2 0xD3B SWAP2 SWAP1 PUSH2 0x1012 JUMP JUMPDEST POP SWAP2 PUSH1 0x20 ADD SWAP2 SWAP1 PUSH1 0x1 ADD SWAP1 PUSH2 0xD24 JUMP JUMPDEST JUMPDEST POP SWAP1 POP PUSH2 0xD59 SWAP2 SWAP1 PUSH2 0xD5D JUMP JUMPDEST POP SWAP1 JUMP JUMPDEST JUMPDEST DUP1 DUP3 GT ISZERO PUSH2 0xD7C JUMPI PUSH0 DUP2 DUP2 PUSH2 0xD73 SWAP2 SWAP1 PUSH2 0xD80 JUMP JUMPDEST POP PUSH1 0x1 ADD PUSH2 0xD5E JUMP JUMPDEST POP SWAP1 JUMP JUMPDEST POP DUP1 SLOAD PUSH2 0xD8C SWAP1 PUSH2 0xE3C JUMP JUMPDEST PUSH0 DUP3 SSTORE DUP1 PUSH1 0x1F LT PUSH2 0xD9D JUMPI POP PUSH2 0xDBA JUMP JUMPDEST PUSH1 0x1F ADD PUSH1 0x20 SWAP1 DIV SWAP1 PUSH0 MSTORE PUSH1 0x20 PUSH0 KECCAK256 SWAP1 DUP2 ADD SWAP1 PUSH2 0xDB9 SWAP2 SWAP1 PUSH2 0xDBD JUMP JUMPDEST JUMPDEST POP JUMP JUMPDEST JUMPDEST DUP1 DUP3 GT ISZERO PUSH2 0xDD4 JUMPI PUSH0 DUP2 PUSH0 SWAP1 SSTORE POP PUSH1 0x1 ADD PUSH2 0xDBE JUMP JUMPDEST POP SWAP1 JUMP JUMPDEST PUSH0 DUP2 MLOAD SWAP1 POP SWAP2 SWAP1 POP JUMP JUMPDEST PUSH32 0x4E487B7100000000000000000000000000000000000000000000000000000000 PUSH0 MSTORE PUSH1 0x41 PUSH1 0x4 MSTORE PUSH1 0x24 PUSH0 REVERT JUMPDEST PUSH32 0x4E487B7100000000000000000000000000000000000000000000000000000000 PUSH0 MSTORE PUSH1 0x22 PUSH1 0x4 MSTORE PUSH1 0x24 PUSH0 REVERT JUMPDEST PUSH0 PUSH1 0x2 DUP3 DIV SWAP1 POP PUSH1 0x1 DUP3 AND DUP1 PUSH2 0xE53 JUMPI PUSH1 0x7F DUP3 AND SWAP2 POP JUMPDEST PUSH1 0x20 DUP3 LT DUP2 SUB PUSH2 0xE66 JUMPI PUSH2 0xE65 PUSH2 0xE0F JUMP JUMPDEST JUMPDEST POP SWAP2 SWAP1 POP JUMP JUMPDEST PUSH0 DUP2 SWAP1 POP DUP2 PUSH0 MSTORE PUSH1 0x20 PUSH0 KECCAK256 SWAP1 POP SWAP2 SWAP1 POP JUMP JUMPDEST PUSH0 PUSH1 0x20 PUSH1 0x1F DUP4 ADD DIV SWAP1 POP SWAP2 SWAP1 POP JUMP JUMPDEST PUSH0 DUP3 DUP3 SHL SWAP1 POP SWAP3 SWAP2 POP POP JUMP JUMPDEST PUSH0 PUSH1 0x8 DUP4 MUL PUSH2 0xEC8 PUSH32 0xFFFFFFFFFFFFFFFFFFFFFFFFFFFFFFFFFFFFFFFFFFFFFFFFFFFFFFFFFFFFFFFF DUP3 PUSH2 0xE8D JUMP JUMPDEST PUSH2 0xED2 DUP7 DUP4 PUSH2 0xE8D JUMP JUMPDEST SWAP6 POP DUP1 NOT DUP5 AND SWAP4 POP DUP1 DUP7 AND DUP5 OR SWAP3 POP POP POP SWAP4 SWAP3 POP POP POP JUMP JUMPDEST PUSH0 DUP2 SWAP1 POP SWAP2 SWAP1 POP JUMP JUMPDEST PUSH0 DUP2 SWAP1 POP SWAP2 SWAP1 POP JUMP JUMPDEST PUSH0 PUSH2 0xF16 PUSH2 0xF11 PUSH2 0xF0C DUP5 PUSH2 0xEEA JUMP JUMPDEST PUSH2 0xEF3 JUMP JUMPDEST PUSH2 0xEEA JUMP JUMPDEST SWAP1 POP SWAP2 SWAP1 POP JUMP JUMPDEST PUSH0 DUP2 SWAP1 POP SWAP2 SWAP1 POP JUMP JUMPDEST PUSH2 0xF2F DUP4 PUSH2 0xEFC JUMP JUMPDEST PUSH2 0xF43 PUSH2 0xF3B DUP3 PUSH2 0xF1D JUMP JUMPDEST DUP5 DUP5 SLOAD PUSH2 0xE99 JUMP JUMPDEST DUP3 SSTORE POP POP POP POP JUMP JUMPDEST PUSH0 SWAP1 JUMP JUMPDEST PUSH2 0xF57 PUSH2 0xF4B JUMP JUMPDEST PUSH2 0xF62 DUP2 DUP5 DUP5 PUSH2 0xF26 JUMP JUMPDEST POP POP POP JUMP JUMPDEST JUMPDEST DUP2 DUP2 LT ISZERO PUSH2 0xF85 JUMPI PUSH2 0xF7A PUSH0 DUP3 PUSH2 0xF4F JUMP JUMPDEST PUSH1 0x1 DUP2 ADD SWAP1 POP PUSH2 0xF68 JUMP JUMPDEST POP POP JUMP JUMPDEST PUSH1 0x1F DUP3 GT ISZERO PUSH2 0xFCA JUMPI PUSH2 0xF9B DUP2 PUSH2 0xE6C JUMP JUMPDEST PUSH2 0xFA4 DUP5 PUSH2 0xE7E JUMP JUMPDEST DUP2 ADD PUSH1 0x20 DUP6 LT ISZERO PUSH2 0xFB3 JUMPI DUP2 SWAP1 POP JUMPDEST PUSH2 0xFC7 PUSH2 0xFBF DUP6 PUSH2 0xE7E JUMP JUMPDEST DUP4 ADD DUP3 PUSH2 0xF67 JUMP JUMPDEST POP POP JUMPDEST POP POP POP JUMP JUMPDEST PUSH0 DUP3 DUP3 SHR SWAP1 POP SWAP3 SWAP2 POP POP JUMP JUMPDEST PUSH0 PUSH2 0xFEA PUSH0 NOT DUP5 PUSH1 0x8 MUL PUSH2 0xFCF JUMP JUMPDEST NOT DUP1 DUP4 AND SWAP2 POP POP SWAP3 SWAP2 POP POP JUMP JUMPDEST PUSH0 PUSH2 0x1002 DUP4 DUP4 PUSH2 0xFDB JUMP JUMPDEST SWAP2 POP DUP3 PUSH1 0x2 MUL DUP3 OR SWAP1 POP SWAP3 SWAP2 POP POP JUMP JUMPDEST PUSH2 0x101B DUP3 PUSH2 0xDD8 JUMP JUMPDEST PUSH8 0xFFFFFFFFFFFFFFFF DUP2 GT ISZERO PUSH2 0x1034 JUMPI PUSH2 0x1033 PUSH2 0xDE2 JUMP JUMPDEST JUMPDEST PUSH2 0x103E DUP3 SLOAD PUSH2 0xE3C JUMP JUMPDEST PUSH2 0x1049 DUP3 DUP3 DUP6 PUSH2 0xF89 JUMP JUMPDEST PUSH0 PUSH1 0x20 SWAP1 POP PUSH1 0x1F DUP4 GT PUSH1 0x1 DUP2 EQ PUSH2 0x107A JUMPI PUSH0 DUP5 ISZERO PUSH2 0x1068 JUMPI DUP3 DUP8 ADD MLOAD SWAP1 POP JUMPDEST PUSH2 0x1072 DUP6 DUP3 PUSH2 0xFF7 JUMP JUMPDEST DUP7 SSTORE POP PUSH2 0x10D9 JUMP JUMPDEST PUSH1 0x1F NOT DUP5 AND PUSH2 0x1088 DUP7 PUSH2 0xE6C JUMP JUMPDEST PUSH0 JUMPDEST DUP3 DUP2 LT ISZERO PUSH2 0x10AF JUMPI DUP5 DUP10 ADD MLOAD DUP3 SSTORE PUSH1 0x1 DUP3 ADD SWAP2 POP PUSH1 0x20 DUP6 ADD SWAP5 POP PUSH1 0x20 DUP2 ADD SWAP1 POP PUSH2 0x108A JUMP JUMPDEST DUP7 DUP4 LT ISZERO PUSH2 0x10CC JUMPI DUP5 DUP10 ADD MLOAD PUSH2 0x10C8 PUSH1 0x1F DUP10 AND DUP3 PUSH2 0xFDB JUMP JUMPDEST DUP4 SSTORE POP JUMPDEST PUSH1 0x1 PUSH1 0x2 DUP9 MUL ADD DUP9 SSTORE POP POP POP JUMPDEST POP POP POP POP POP POP JUMP JUMPDEST PUSH2 0x1F34 DUP1 PUSH2 0x10EE PUSH0 CODECOPY PUSH0 RETURN INVALID PUSH1 0x80 PUSH1 0x40 MSTORE CALLVALUE DUP1 ISZERO PUSH2 0xF JUMPI PUSH0 DUP1 REVERT JUMPDEST POP PUSH1 0x4 CALLDATASIZE LT PUSH2 0x60 JUMPI PUSH0 CALLDATALOAD PUSH1 0xE0 SHR DUP1 PUSH4 0x4D15A8D EQ PUSH2 0x64 JUMPI DUP1 PUSH4 0x2B6055DF EQ PUSH2 0x82 JUMPI DUP1 PUSH4 0x4EEE59B3 EQ PUSH2 0x8C JUMPI DUP1 PUSH4 0xB7D0628B EQ PUSH2 0xBE JUMPI DUP1 PUSH4 0xD65AB5F2 EQ PUSH2 0xDE JUMPI DUP1 PUSH4 0xFC2B8CC3 EQ PUSH2 0xE8 JUMPI JUMPDEST PUSH0 DUP1 REVERT JUMPDEST PUSH2 0x6C PUSH2 0xF2 JUMP JUMPDEST PUSH1 0x40 MLOAD PUSH2 0x79 SWAP2 SWAP1 PUSH2 0x1163 JUMP JUMPDEST PUSH1 0x40 MLOAD DUP1 SWAP2 SUB SWAP1 RETURN JUMPDEST PUSH2 0x8A PUSH2 0x1A3 JUMP JUMPDEST STOP JUMPDEST PUSH2 0xA6 PUSH1 0x4 DUP1 CALLDATASIZE SUB DUP2 ADD SWAP1 PUSH2 0xA1 SWAP2 SWAP1 PUSH2 0x12C0 JUMP JUMPDEST PUSH2 0x305 JUMP JUMPDEST PUSH1 0x40 MLOAD PUSH2 0xB5 SWAP4 SWAP3 SWAP2 SWAP1 PUSH2 0x131F JUMP JUMPDEST PUSH1 0x40 MLOAD DUP1 SWAP2 SUB SWAP1 RETURN JUMPDEST PUSH2 0xC6 PUSH2 0x7E0 JUMP JUMPDEST PUSH1 0x40 MLOAD PUSH2 0xD5 SWAP4 SWAP3 SWAP2 SWAP1 PUSH2 0x131F JUMP JUMPDEST PUSH1 0x40 MLOAD DUP1 SWAP2 SUB SWAP1 RETURN JUMPDEST PUSH2 0xE6 PUSH2 0x90B JUMP JUMPDEST STOP JUMPDEST PUSH2 0xF0 PUSH2 0xDDD JUMP JUMPDEST STOP JUMPDEST PUSH1 0x60 PUSH1 0x32 PUSH1 0x3C SLOAD PUSH1 0x7 PUSH2 0x105 SWAP2 SWAP1 PUSH2 0x138F JUMP JUMPDEST PUSH1 0x8 DUP2 LT PUSH2 0x116 JUMPI PUSH2 0x115 PUSH2 0x13C2 JUMP JUMPDEST JUMPDEST ADD DUP1 SLOAD PUSH2 0x122 SWAP1 PUSH2 0x141C JUMP JUMPDEST DUP1 PUSH1 0x1F ADD PUSH1 0x20 DUP1 SWAP2 DIV MUL PUSH1 0x20 ADD PUSH1 0x40 MLOAD SWAP1 DUP2 ADD PUSH1 0x40 MSTORE DUP1 SWAP3 SWAP2 SWAP1 DUP2 DUP2 MSTORE PUSH1 0x20 ADD DUP3 DUP1 SLOAD PUSH2 0x14E SWAP1 PUSH2 0x141C JUMP JUMPDEST DUP1 ISZERO PUSH2 0x199 JUMPI DUP1 PUSH1 0x1F LT PUSH2 0x170 JUMPI PUSH2 0x100 DUP1 DUP4 SLOAD DIV MUL DUP4 MSTORE SWAP2 PUSH1 0x20 ADD SWAP2 PUSH2 0x199 JUMP JUMPDEST DUP3 ADD SWAP2 SWAP1 PUSH0 MSTORE PUSH1 0x20 PUSH0 KECCAK256 SWAP1 JUMPDEST DUP2 SLOAD DUP2 MSTORE SWAP1 PUSH1 0x1 ADD SWAP1 PUSH1 0x20 ADD DUP1 DUP4 GT PUSH2 0x17C JUMPI DUP3 SWAP1 SUB PUSH1 0x1F AND DUP3 ADD SWAP2 JUMPDEST POP POP POP POP POP SWAP1 POP SWAP1 JUMP JUMPDEST PUSH1 0x3E PUSH0 SWAP1 SLOAD SWAP1 PUSH2 0x100 EXP SWAP1 DIV PUSH1 0xFF AND PUSH2 0x1F1 JUMPI PUSH1 0x40 MLOAD PUSH32 0x8C379A000000000000000000000000000000000000000000000000000000000 DUP2 MSTORE PUSH1 0x4 ADD PUSH2 0x1E8 SWAP1 PUSH2 0x1496 JUMP JUMPDEST PUSH1 0x40 MLOAD DUP1 SWAP2 SUB SWAP1 REVERT JUMPDEST PUSH1 0x40 SLOAD PUSH1 0x3F SLOAD PUSH2 0x201 SWAP2 SWAP1 PUSH2 0x14B4 JUMP JUMPDEST TIMESTAMP GT ISZERO PUSH2 0x286 JUMPI PUSH31 0xAF1ADE955695DD7CB8833B69AD71FC489F552ACA5609812E9F4567E5E45088 PUSH1 0x40 MLOAD PUSH2 0x234 SWAP1 PUSH2 0x1531 JUMP JUMPDEST PUSH1 0x40 MLOAD DUP1 SWAP2 SUB SWAP1 LOG1 PUSH0 PUSH1 0x3E PUSH0 PUSH2 0x100 EXP DUP2 SLOAD DUP2 PUSH1 0xFF MUL NOT AND SWAP1 DUP4 ISZERO ISZERO MUL OR SWAP1 SSTORE POP PUSH32 0x1084D47E99647565312E58BBA004B0FC3088C683FA22F3925F1CF5FB09554029 PUSH1 0x40 MLOAD PUSH1 0x40 MLOAD DUP1 SWAP2 SUB SWAP1 LOG1 PUSH2 0x303 JUMP JUMPDEST PUSH0 TIMESTAMP PUSH1 0x40 SLOAD PUSH1 0x3F SLOAD PUSH2 0x298 SWAP2 SWAP1 PUSH2 0x14B4 JUMP JUMPDEST PUSH2 0x2A2 SWAP2 SWAP1 PUSH2 0x138F JUMP JUMPDEST SWAP1 POP PUSH31 0xAF1ADE955695DD7CB8833B69AD71FC489F552ACA5609812E9F4567E5E45088 PUSH2 0x2CD DUP3 PUSH2 0xE72 JUMP JUMPDEST PUSH1 0x40 MLOAD PUSH1 0x20 ADD PUSH2 0x2DD SWAP2 SWAP1 PUSH2 0x161D JUMP JUMPDEST PUSH1 0x40 MLOAD PUSH1 0x20 DUP2 DUP4 SUB SUB DUP2 MSTORE SWAP1 PUSH1 0x40 MSTORE PUSH1 0x40 MLOAD PUSH2 0x2F9 SWAP2 SWAP1 PUSH2 0x1163 JUMP JUMPDEST PUSH1 0x40 MLOAD DUP1 SWAP2 SUB SWAP1 LOG1 POP JUMPDEST JUMP JUMPDEST PUSH1 0x60 PUSH0 PUSH1 0x60 PUSH0 DUP5 SWAP1 POP PUSH1 0x1 DUP2 MLOAD EQ PUSH2 0x352 JUMPI PUSH1 0x40 MLOAD PUSH32 0x8C379A000000000000000000000000000000000000000000000000000000000 DUP2 MSTORE PUSH1 0x4 ADD PUSH2 0x349 SWAP1 PUSH2 0x1693 JUMP JUMPDEST PUSH1 0x40 MLOAD DUP1 SWAP2 SUB SWAP1 REVERT JUMPDEST PUSH0 DUP1 PUSH1 0x3B DUP1 SLOAD PUSH2 0x361 SWAP1 PUSH2 0x141C JUMP JUMPDEST DUP1 PUSH1 0x1F ADD PUSH1 0x20 DUP1 SWAP2 DIV MUL PUSH1 0x20 ADD PUSH1 0x40 MLOAD SWAP1 DUP2 ADD PUSH1 0x40 MSTORE DUP1 SWAP3 SWAP2 SWAP1 DUP2 DUP2 MSTORE PUSH1 0x20 ADD DUP3 DUP1 SLOAD PUSH2 0x38D SWAP1 PUSH2 0x141C JUMP JUMPDEST DUP1 ISZERO PUSH2 0x3D8 JUMPI DUP1 PUSH1 0x1F LT PUSH2 0x3AF JUMPI PUSH2 0x100 DUP1 DUP4 SLOAD DIV MUL DUP4 MSTORE SWAP2 PUSH1 0x20 ADD SWAP2 PUSH2 0x3D8 JUMP JUMPDEST DUP3 ADD SWAP2 SWAP1 PUSH0 MSTORE PUSH1 0x20 PUSH0 KECCAK256 SWAP1 JUMPDEST DUP2 SLOAD DUP2 MSTORE SWAP1 PUSH1 0x1 ADD SWAP1 PUSH1 0x20 ADD DUP1 DUP4 GT PUSH2 0x3BB JUMPI DUP3 SWAP1 SUB PUSH1 0x1F AND DUP3 ADD SWAP2 JUMPDEST POP POP POP POP POP SWAP1 POP PUSH0 JUMPDEST PUSH1 0x3A DUP1 SLOAD PUSH2 0x3EE SWAP1 PUSH2 0x141C JUMP JUMPDEST SWAP1 POP DUP2 LT ISZERO PUSH2 0x53B JUMPI DUP8 PUSH0 DUP2 MLOAD DUP2 LT PUSH2 0x40A JUMPI PUSH2 0x409 PUSH2 0x13C2 JUMP JUMPDEST JUMPDEST PUSH1 0x20 ADD ADD MLOAD PUSH1 0xF8 SHR PUSH1 0xF8 SHL PUSH31 0xFFFFFFFFFFFFFFFFFFFFFFFFFFFFFFFFFFFFFFFFFFFFFFFFFFFFFFFFFFFFFF NOT AND PUSH1 0x3A DUP3 DUP2 SLOAD PUSH2 0x445 SWAP1 PUSH2 0x141C JUMP JUMPDEST DUP2 LT PUSH2 0x454 JUMPI PUSH2 0x453 PUSH2 0x13C2 JUMP JUMPDEST JUMPDEST DUP2 SLOAD PUSH1 0x1 AND ISZERO PUSH2 0x471 JUMPI SWAP1 PUSH0 MSTORE PUSH1 0x20 PUSH0 KECCAK256 SWAP1 PUSH1 0x20 SWAP2 DUP3 DUP3 DIV ADD SWAP2 SWAP1 MOD JUMPDEST SWAP1 SLOAD SWAP1 BYTE PUSH32 0x100000000000000000000000000000000000000000000000000000000000000 MUL PUSH31 0xFFFFFFFFFFFFFFFFFFFFFFFFFFFFFFFFFFFFFFFFFFFFFFFFFFFFFFFFFFFFFF NOT AND SUB PUSH2 0x52E JUMPI DUP8 PUSH0 DUP2 MLOAD DUP2 LT PUSH2 0x4D1 JUMPI PUSH2 0x4D0 PUSH2 0x13C2 JUMP JUMPDEST JUMPDEST PUSH1 0x20 ADD ADD MLOAD PUSH1 0xF8 SHR PUSH1 0xF8 SHL DUP3 PUSH1 0x2 DUP4 PUSH2 0x4EA SWAP2 SWAP1 PUSH2 0x16B1 JUMP JUMPDEST DUP2 MLOAD DUP2 LT PUSH2 0x4FB JUMPI PUSH2 0x4FA PUSH2 0x13C2 JUMP JUMPDEST JUMPDEST PUSH1 0x20 ADD ADD SWAP1 PUSH31 0xFFFFFFFFFFFFFFFFFFFFFFFFFFFFFFFFFFFFFFFFFFFFFFFFFFFFFFFFFFFFFF NOT AND SWAP1 DUP2 PUSH0 BYTE SWAP1 MSTORE8 POP PUSH1 0x1 SWAP3 POP JUMPDEST DUP1 DUP1 PUSH1 0x1 ADD SWAP2 POP POP PUSH2 0x3E1 JUMP JUMPDEST POP DUP1 PUSH1 0x3B SWAP1 DUP2 PUSH2 0x54B SWAP2 SWAP1 PUSH2 0x188F JUMP JUMPDEST POP DUP2 PUSH2 0x676 JUMPI PUSH2 0x5E3 PUSH1 0x3D DUP1 SLOAD PUSH2 0x561 SWAP1 PUSH2 0x141C JUMP JUMPDEST DUP1 PUSH1 0x1F ADD PUSH1 0x20 DUP1 SWAP2 DIV MUL PUSH1 0x20 ADD PUSH1 0x40 MLOAD SWAP1 DUP2 ADD PUSH1 0x40 MSTORE DUP1 SWAP3 SWAP2 SWAP1 DUP2 DUP2 MSTORE PUSH1 0x20 ADD DUP3 DUP1 SLOAD PUSH2 0x58D SWAP1 PUSH2 0x141C JUMP JUMPDEST DUP1 ISZERO PUSH2 0x5D8 JUMPI DUP1 PUSH1 0x1F LT PUSH2 0x5AF JUMPI PUSH2 0x100 DUP1 DUP4 SLOAD DIV MUL DUP4 MSTORE SWAP2 PUSH1 0x20 ADD SWAP2 PUSH2 0x5D8 JUMP JUMPDEST DUP3 ADD SWAP2 SWAP1 PUSH0 MSTORE PUSH1 0x20 PUSH0 KECCAK256 SWAP1 JUMPDEST DUP2 SLOAD DUP2 MSTORE SWAP1 PUSH1 0x1 ADD SWAP1 PUSH1 0x20 ADD DUP1 DUP4 GT PUSH2 0x5BB JUMPI DUP3 SWAP1 SUB PUSH1 0x1F AND DUP3 ADD SWAP2 JUMPDEST POP POP POP POP POP DUP9 PUSH2 0xFCB JUMP JUMPDEST PUSH2 0x61A JUMPI PUSH1 0x3D DUP8 PUSH1 0x40 MLOAD PUSH1 0x20 ADD PUSH2 0x5FB SWAP3 SWAP2 SWAP1 PUSH2 0x1A28 JUMP JUMPDEST PUSH1 0x40 MLOAD PUSH1 0x20 DUP2 DUP4 SUB SUB DUP2 MSTORE SWAP1 PUSH1 0x40 MSTORE PUSH1 0x3D SWAP1 DUP2 PUSH2 0x618 SWAP2 SWAP1 PUSH2 0x188F JUMP JUMPDEST POP JUMPDEST PUSH1 0x3C PUSH0 DUP2 SLOAD DUP1 SWAP3 SWAP2 SWAP1 PUSH2 0x62C SWAP1 PUSH2 0x1A56 JUMP JUMPDEST SWAP2 SWAP1 POP SSTORE POP PUSH0 PUSH1 0x3C SLOAD SUB PUSH2 0x675 JUMPI PUSH1 0x40 MLOAD PUSH32 0x8C379A000000000000000000000000000000000000000000000000000000000 DUP2 MSTORE PUSH1 0x4 ADD PUSH2 0x66C SWAP1 PUSH2 0x1AC7 JUMP JUMPDEST PUSH1 0x40 MLOAD DUP1 SWAP2 SUB SWAP1 REVERT JUMPDEST JUMPDEST PUSH32 0x28AD9C398005F7E09E1BB9FFD65DAC5F1FAECD15F724EB37B779F56521E9CC3A PUSH1 0x3B PUSH1 0x3C SLOAD PUSH1 0x3D PUSH1 0x40 MLOAD PUSH2 0x6AD SWAP4 SWAP3 SWAP2 SWAP1 PUSH2 0x1B66 JUMP JUMPDEST PUSH1 0x40 MLOAD DUP1 SWAP2 SUB SWAP1 LOG1 PUSH1 0x3B PUSH1 0x3C SLOAD PUSH1 0x3D DUP3 DUP1 SLOAD PUSH2 0x6C8 SWAP1 PUSH2 0x141C JUMP JUMPDEST DUP1 PUSH1 0x1F ADD PUSH1 0x20 DUP1 SWAP2 DIV MUL PUSH1 0x20 ADD PUSH1 0x40 MLOAD SWAP1 DUP2 ADD PUSH1 0x40 MSTORE DUP1 SWAP3 SWAP2 SWAP1 DUP2 DUP2 MSTORE PUSH1 0x20 ADD DUP3 DUP1 SLOAD PUSH2 0x6F4 SWAP1 PUSH2 0x141C JUMP JUMPDEST DUP1 ISZERO PUSH2 0x73F JUMPI DUP1 PUSH1 0x1F LT PUSH2 0x716 JUMPI PUSH2 0x100 DUP1 DUP4 SLOAD DIV MUL DUP4 MSTORE SWAP2 PUSH1 0x20 ADD SWAP2 PUSH2 0x73F JUMP JUMPDEST DUP3 ADD SWAP2 SWAP1 PUSH0 MSTORE PUSH1 0x20 PUSH0 KECCAK256 SWAP1 JUMPDEST DUP2 SLOAD DUP2 MSTORE SWAP1 PUSH1 0x1 ADD SWAP1 PUSH1 0x20 ADD DUP1 DUP4 GT PUSH2 0x722 JUMPI DUP3 SWAP1 SUB PUSH1 0x1F AND DUP3 ADD SWAP2 JUMPDEST POP POP POP POP POP SWAP3 POP DUP1 DUP1 SLOAD PUSH2 0x752 SWAP1 PUSH2 0x141C JUMP JUMPDEST DUP1 PUSH1 0x1F ADD PUSH1 0x20 DUP1 SWAP2 DIV MUL PUSH1 0x20 ADD PUSH1 0x40 MLOAD SWAP1 DUP2 ADD PUSH1 0x40 MSTORE DUP1 SWAP3 SWAP2 SWAP1 DUP2 DUP2 MSTORE PUSH1 0x20 ADD DUP3 DUP1 SLOAD PUSH2 0x77E SWAP1 PUSH2 0x141C JUMP JUMPDEST DUP1 ISZERO PUSH2 0x7C9 JUMPI DUP1 PUSH1 0x1F LT PUSH2 0x7A0 JUMPI PUSH2 0x100 DUP1 DUP4 SLOAD DIV MUL DUP4 MSTORE SWAP2 PUSH1 0x20 ADD SWAP2 PUSH2 0x7C9 JUMP JUMPDEST DUP3 ADD SWAP2 SWAP1 PUSH0 MSTORE PUSH1 0x20 PUSH0 KECCAK256 SWAP1 JUMPDEST DUP2 SLOAD DUP2 MSTORE SWAP1 PUSH1 0x1 ADD SWAP1 PUSH1 0x20 ADD DUP1 DUP4 GT PUSH2 0x7AC JUMPI DUP3 SWAP1 SUB PUSH1 0x1F AND DUP3 ADD SWAP2 JUMPDEST POP POP POP POP POP SWAP1 POP SWAP6 POP SWAP6 POP SWAP6 POP POP POP POP SWAP2 SWAP4 SWAP1 SWAP3 POP JUMP JUMPDEST PUSH1 0x60 PUSH0 PUSH1 0x60 PUSH1 0x3B PUSH1 0x3C SLOAD PUSH1 0x3D DUP3 DUP1 SLOAD PUSH2 0x7F8 SWAP1 PUSH2 0x141C JUMP JUMPDEST DUP1 PUSH1 0x1F ADD PUSH1 0x20 DUP1 SWAP2 DIV MUL PUSH1 0x20 ADD PUSH1 0x40 MLOAD SWAP1 DUP2 ADD PUSH1 0x40 MSTORE DUP1 SWAP3 SWAP2 SWAP1 DUP2 DUP2 MSTORE PUSH1 0x20 ADD DUP3 DUP1 SLOAD PUSH2 0x824 SWAP1 PUSH2 0x141C JUMP JUMPDEST DUP1 ISZERO PUSH2 0x86F JUMPI DUP1 PUSH1 0x1F LT PUSH2 0x846 JUMPI PUSH2 0x100 DUP1 DUP4 SLOAD DIV MUL DUP4 MSTORE SWAP2 PUSH1 0x20 ADD SWAP2 PUSH2 0x86F JUMP JUMPDEST DUP3 ADD SWAP2 SWAP1 PUSH0 MSTORE PUSH1 0x20 PUSH0 KECCAK256 SWAP1 JUMPDEST DUP2 SLOAD DUP2 MSTORE SWAP1 PUSH1 0x1 ADD SWAP1 PUSH1 0x20 ADD DUP1 DUP4 GT PUSH2 0x852 JUMPI DUP3 SWAP1 SUB PUSH1 0x1F AND DUP3 ADD SWAP2 JUMPDEST POP POP POP POP POP SWAP3 POP DUP1 DUP1 SLOAD PUSH2 0x882 SWAP1 PUSH2 0x141C JUMP JUMPDEST DUP1 PUSH1 0x1F ADD PUSH1 0x20 DUP1 SWAP2 DIV MUL PUSH1 0x20 ADD PUSH1 0x40 MLOAD SWAP1 DUP2 ADD PUSH1 0x40 MSTORE DUP1 SWAP3 SWAP2 SWAP1 DUP2 DUP2 MSTORE PUSH1 0x20 ADD DUP3 DUP1 SLOAD PUSH2 0x8AE SWAP1 PUSH2 0x141C JUMP JUMPDEST DUP1 ISZERO PUSH2 0x8F9 JUMPI DUP1 PUSH1 0x1F LT PUSH2 0x8D0 JUMPI PUSH2 0x100 DUP1 DUP4 SLOAD DIV MUL DUP4 MSTORE SWAP2 PUSH1 0x20 ADD SWAP2 PUSH2 0x8F9 JUMP JUMPDEST DUP3 ADD SWAP2 SWAP1 PUSH0 MSTORE PUSH1 0x20 PUSH0 KECCAK256 SWAP1 JUMPDEST DUP2 SLOAD DUP2 MSTORE SWAP1 PUSH1 0x1 ADD SWAP1 PUSH1 0x20 ADD DUP1 DUP4 GT PUSH2 0x8DC JUMPI DUP3 SWAP1 SUB PUSH1 0x1F AND DUP3 ADD SWAP2 JUMPDEST POP POP POP POP POP SWAP1 POP SWAP3 POP SWAP3 POP SWAP3 POP SWAP1 SWAP2 SWAP3 JUMP JUMPDEST PUSH1 0x3E PUSH0 SWAP1 SLOAD SWAP1 PUSH2 0x100 EXP SWAP1 DIV PUSH1 0xFF AND ISZERO PUSH2 0x95A JUMPI PUSH1 0x40 MLOAD PUSH32 0x8C379A000000000000000000000000000000000000000000000000000000000 DUP2 MSTORE PUSH1 0x4 ADD PUSH2 0x951 SWAP1 PUSH2 0x1C19 JUMP JUMPDEST PUSH1 0x40 MLOAD DUP1 SWAP2 SUB SWAP1 REVERT JUMPDEST PUSH1 0x1 PUSH1 0x3E PUSH0 PUSH2 0x100 EXP DUP2 SLOAD DUP2 PUSH1 0xFF MUL NOT AND SWAP1 DUP4 ISZERO ISZERO MUL OR SWAP1 SSTORE POP TIMESTAMP PUSH1 0x3F DUP2 SWAP1 SSTORE POP PUSH32 0xA2DFAA3573B86004EC9D4D4ABE5068D942579C59DA4DA8CD0D9E45E71A393BC1 PUSH1 0x3F SLOAD PUSH1 0x40 SLOAD PUSH1 0x40 MLOAD PUSH2 0x9B0 SWAP3 SWAP2 SWAP1 PUSH2 0x1C37 JUMP JUMPDEST PUSH1 0x40 MLOAD DUP1 SWAP2 SUB SWAP1 LOG1 PUSH0 PUSH1 0x32 TIMESTAMP CALLER PUSH1 0x40 MLOAD PUSH1 0x20 ADD PUSH2 0x9CE SWAP3 SWAP2 SWAP1 PUSH2 0x1CF3 JUMP JUMPDEST PUSH1 0x40 MLOAD PUSH1 0x20 DUP2 DUP4 SUB SUB DUP2 MSTORE SWAP1 PUSH1 0x40 MSTORE DUP1 MLOAD SWAP1 PUSH1 0x20 ADD KECCAK256 PUSH0 SHR PUSH2 0x9F0 SWAP2 SWAP1 PUSH2 0x1D4B JUMP JUMPDEST SWAP1 POP PUSH0 DUP2 PUSH1 0x32 DUP2 LT PUSH2 0xA05 JUMPI PUSH2 0xA04 PUSH2 0x13C2 JUMP JUMPDEST JUMPDEST ADD PUSH1 0x3A SWAP1 DUP2 PUSH2 0xA14 SWAP2 SWAP1 PUSH2 0x1DA2 JUMP JUMPDEST POP PUSH0 PUSH1 0x3A DUP1 SLOAD PUSH2 0xA23 SWAP1 PUSH2 0x141C JUMP JUMPDEST DUP1 PUSH1 0x1F ADD PUSH1 0x20 DUP1 SWAP2 DIV MUL PUSH1 0x20 ADD PUSH1 0x40 MLOAD SWAP1 DUP2 ADD PUSH1 0x40 MSTORE DUP1 SWAP3 SWAP2 SWAP1 DUP2 DUP2 MSTORE PUSH1 0x20 ADD DUP3 DUP1 SLOAD PUSH2 0xA4F SWAP1 PUSH2 0x141C JUMP JUMPDEST DUP1 ISZERO PUSH2 0xA9A JUMPI DUP1 PUSH1 0x1F LT PUSH2 0xA71 JUMPI PUSH2 0x100 DUP1 DUP4 SLOAD DIV MUL DUP4 MSTORE SWAP2 PUSH1 0x20 ADD SWAP2 PUSH2 0xA9A JUMP JUMPDEST DUP3 ADD SWAP2 SWAP1 PUSH0 MSTORE PUSH1 0x20 PUSH0 KECCAK256 SWAP1 JUMPDEST DUP2 SLOAD DUP2 MSTORE SWAP1 PUSH1 0x1 ADD SWAP1 PUSH1 0x20 ADD DUP1 DUP4 GT PUSH2 0xA7D JUMPI DUP3 SWAP1 SUB PUSH1 0x1F AND DUP3 ADD SWAP2 JUMPDEST POP POP POP POP POP SWAP1 POP PUSH0 PUSH1 0x2 DUP3 MLOAD PUSH2 0xAB0 SWAP2 SWAP1 PUSH2 0x16B1 JUMP JUMPDEST PUSH8 0xFFFFFFFFFFFFFFFF DUP2 GT ISZERO PUSH2 0xAC9 JUMPI PUSH2 0xAC8 PUSH2 0x119C JUMP JUMPDEST JUMPDEST PUSH1 0x40 MLOAD SWAP1 DUP1 DUP3 MSTORE DUP1 PUSH1 0x1F ADD PUSH1 0x1F NOT AND PUSH1 0x20 ADD DUP3 ADD PUSH1 0x40 MSTORE DUP1 ISZERO PUSH2 0xAFB JUMPI DUP2 PUSH1 0x20 ADD PUSH1 0x1 DUP3 MUL DUP1 CALLDATASIZE DUP4 CALLDATACOPY DUP1 DUP3 ADD SWAP2 POP POP SWAP1 POP JUMPDEST POP SWAP1 POP PUSH1 0x40 MLOAD DUP1 PUSH1 0x20 ADD PUSH1 0x40 MSTORE DUP1 PUSH0 DUP2 MSTORE POP PUSH1 0x3D SWAP1 DUP2 PUSH2 0xB1B SWAP2 SWAP1 PUSH2 0x188F JUMP JUMPDEST POP PUSH1 0x7 PUSH1 0x3C DUP2 SWAP1 SSTORE POP PUSH0 JUMPDEST PUSH1 0x3A DUP1 SLOAD PUSH2 0xB33 SWAP1 PUSH2 0x141C JUMP JUMPDEST SWAP1 POP DUP2 LT ISZERO PUSH2 0xDC7 JUMPI PUSH32 0x2000000000000000000000000000000000000000000000000000000000000000 PUSH1 0x3A DUP3 DUP2 SLOAD PUSH2 0xB6B SWAP1 PUSH2 0x141C JUMP JUMPDEST DUP2 LT PUSH2 0xB7A JUMPI PUSH2 0xB79 PUSH2 0x13C2 JUMP JUMPDEST JUMPDEST DUP2 SLOAD PUSH1 0x1 AND ISZERO PUSH2 0xB97 JUMPI SWAP1 PUSH0 MSTORE PUSH1 0x20 PUSH0 KECCAK256 SWAP1 PUSH1 0x20 SWAP2 DUP3 DUP3 DIV ADD SWAP2 SWAP1 MOD JUMPDEST SWAP1 SLOAD SWAP1 BYTE PUSH32 0x100000000000000000000000000000000000000000000000000000000000000 MUL PUSH31 0xFFFFFFFFFFFFFFFFFFFFFFFFFFFFFFFFFFFFFFFFFFFFFFFFFFFFFFFFFFFFFF NOT AND SUB PUSH2 0xCD1 JUMPI PUSH32 0x7C00000000000000000000000000000000000000000000000000000000000000 DUP3 PUSH1 0x2 DUP4 PUSH2 0xC13 SWAP2 SWAP1 PUSH2 0x16B1 JUMP JUMPDEST DUP2 MLOAD DUP2 LT PUSH2 0xC24 JUMPI PUSH2 0xC23 PUSH2 0x13C2 JUMP JUMPDEST JUMPDEST PUSH1 0x20 ADD ADD SWAP1 PUSH31 0xFFFFFFFFFFFFFFFFFFFFFFFFFFFFFFFFFFFFFFFFFFFFFFFFFFFFFFFFFFFFFF NOT AND SWAP1 DUP2 PUSH0 BYTE SWAP1 MSTORE8 POP PUSH32 0x7C00000000000000000000000000000000000000000000000000000000000000 DUP3 PUSH1 0x1 PUSH1 0x2 DUP5 PUSH2 0xC83 SWAP2 SWAP1 PUSH2 0x16B1 JUMP JUMPDEST PUSH2 0xC8D SWAP2 SWAP1 PUSH2 0x14B4 JUMP JUMPDEST DUP2 MLOAD DUP2 LT PUSH2 0xC9E JUMPI PUSH2 0xC9D PUSH2 0x13C2 JUMP JUMPDEST JUMPDEST PUSH1 0x20 ADD ADD SWAP1 PUSH31 0xFFFFFFFFFFFFFFFFFFFFFFFFFFFFFFFFFFFFFFFFFFFFFFFFFFFFFFFFFFFFFF NOT AND SWAP1 DUP2 PUSH0 BYTE SWAP1 MSTORE8 POP PUSH2 0xDBA JUMP JUMPDEST PUSH32 0x5F00000000000000000000000000000000000000000000000000000000000000 DUP3 PUSH1 0x2 DUP4 PUSH2 0xD00 SWAP2 SWAP1 PUSH2 0x16B1 JUMP JUMPDEST DUP2 MLOAD DUP2 LT PUSH2 0xD11 JUMPI PUSH2 0xD10 PUSH2 0x13C2 JUMP JUMPDEST JUMPDEST PUSH1 0x20 ADD ADD SWAP1 PUSH31 0xFFFFFFFFFFFFFFFFFFFFFFFFFFFFFFFFFFFFFFFFFFFFFFFFFFFFFFFFFFFFFF NOT AND SWAP1 DUP2 PUSH0 BYTE SWAP1 MSTORE8 POP PUSH32 0x2000000000000000000000000000000000000000000000000000000000000000 DUP3 PUSH1 0x1 PUSH1 0x2 DUP5 PUSH2 0xD70 SWAP2 SWAP1 PUSH2 0x16B1 JUMP JUMPDEST PUSH2 0xD7A SWAP2 SWAP1 PUSH2 0x14B4 JUMP JUMPDEST DUP2 MLOAD DUP2 LT PUSH2 0xD8B JUMPI PUSH2 0xD8A PUSH2 0x13C2 JUMP JUMPDEST JUMPDEST PUSH1 0x20 ADD ADD SWAP1 PUSH31 0xFFFFFFFFFFFFFFFFFFFFFFFFFFFFFFFFFFFFFFFFFFFFFFFFFFFFFFFFFFFFFF NOT AND SWAP1 DUP2 PUSH0 BYTE SWAP1 MSTORE8 POP JUMPDEST DUP1 DUP1 PUSH1 0x1 ADD SWAP2 POP POP PUSH2 0xB26 JUMP JUMPDEST POP DUP1 PUSH1 0x3B SWAP1 DUP2 PUSH2 0xDD7 SWAP2 SWAP1 PUSH2 0x188F JUMP JUMPDEST POP POP POP POP JUMP JUMPDEST PUSH1 0x3E PUSH0 SWAP1 SLOAD SWAP1 PUSH2 0x100 EXP SWAP1 DIV PUSH1 0xFF AND PUSH2 0xE2B JUMPI PUSH1 0x40 MLOAD PUSH32 0x8C379A000000000000000000000000000000000000000000000000000000000 DUP2 MSTORE PUSH1 0x4 ADD PUSH2 0xE22 SWAP1 PUSH2 0x1496 JUMP JUMPDEST PUSH1 0x40 MLOAD DUP1 SWAP2 SUB SWAP1 REVERT JUMPDEST PUSH0 PUSH1 0x3E PUSH0 PUSH2 0x100 EXP DUP2 SLOAD DUP2 PUSH1 0xFF MUL NOT AND SWAP1 DUP4 ISZERO ISZERO MUL OR SWAP1 SSTORE POP PUSH32 0x1084D47E99647565312E58BBA004B0FC3088C683FA22F3925F1CF5FB09554029 PUSH1 0x40 MLOAD PUSH1 0x40 MLOAD DUP1 SWAP2 SUB SWAP1 LOG1 JUMP JUMPDEST PUSH1 0x60 PUSH0 DUP3 SUB PUSH2 0xEB8 JUMPI PUSH1 0x40 MLOAD DUP1 PUSH1 0x40 ADD PUSH1 0x40 MSTORE DUP1 PUSH1 0x1 DUP2 MSTORE PUSH1 0x20 ADD PUSH32 0x3000000000000000000000000000000000000000000000000000000000000000 DUP2 MSTORE POP SWAP1 POP PUSH2 0xFC6 JUMP JUMPDEST PUSH0 DUP3 SWAP1 POP PUSH0 JUMPDEST PUSH0 DUP3 EQ PUSH2 0xEE7 JUMPI DUP1 DUP1 PUSH2 0xED0 SWAP1 PUSH2 0x1E87 JUMP JUMPDEST SWAP2 POP POP PUSH1 0xA DUP3 PUSH2 0xEE0 SWAP2 SWAP1 PUSH2 0x1ECE JUMP JUMPDEST SWAP2 POP PUSH2 0xEBE JUMP JUMPDEST PUSH0 DUP2 PUSH8 0xFFFFFFFFFFFFFFFF DUP2 GT ISZERO PUSH2 0xF02 JUMPI PUSH2 0xF01 PUSH2 0x119C JUMP JUMPDEST JUMPDEST PUSH1 0x40 MLOAD SWAP1 DUP1 DUP3 MSTORE DUP1 PUSH1 0x1F ADD PUSH1 0x1F NOT AND PUSH1 0x20 ADD DUP3 ADD PUSH1 0x40 MSTORE DUP1 ISZERO PUSH2 0xF34 JUMPI DUP2 PUSH1 0x20 ADD PUSH1 0x1 DUP3 MUL DUP1 CALLDATASIZE DUP4 CALLDATACOPY DUP1 DUP3 ADD SWAP2 POP POP SWAP1 POP JUMPDEST POP SWAP1 POP JUMPDEST PUSH0 DUP6 EQ PUSH2 0xFBF JUMPI PUSH1 0x1 DUP3 PUSH2 0xF4C SWAP2 SWAP1 PUSH2 0x138F JUMP JUMPDEST SWAP2 POP PUSH1 0xA DUP6 PUSH2 0xF5B SWAP2 SWAP1 PUSH2 0x1D4B JUMP JUMPDEST PUSH1 0x30 PUSH2 0xF67 SWAP2 SWAP1 PUSH2 0x14B4 JUMP JUMPDEST PUSH1 0xF8 SHL DUP2 DUP4 DUP2 MLOAD DUP2 LT PUSH2 0xF7D JUMPI PUSH2 0xF7C PUSH2 0x13C2 JUMP JUMPDEST JUMPDEST PUSH1 0x20 ADD ADD SWAP1 PUSH31 0xFFFFFFFFFFFFFFFFFFFFFFFFFFFFFFFFFFFFFFFFFFFFFFFFFFFFFFFFFFFFFF NOT AND SWAP1 DUP2 PUSH0 BYTE SWAP1 MSTORE8 POP PUSH1 0xA DUP6 PUSH2 0xFB8 SWAP2 SWAP1 PUSH2 0x1ECE JUMP JUMPDEST SWAP5 POP PUSH2 0xF38 JUMP JUMPDEST DUP1 SWAP4 POP POP POP POP JUMPDEST SWAP2 SWAP1 POP JUMP JUMPDEST PUSH0 DUP1 DUP4 SWAP1 POP PUSH0 DUP4 SWAP1 POP PUSH0 DUP2 MLOAD EQ DUP1 PUSH2 0xFE4 JUMPI POP DUP1 MLOAD DUP3 MLOAD LT JUMPDEST ISZERO PUSH2 0xFF3 JUMPI PUSH0 SWAP3 POP POP POP PUSH2 0x10ED JUMP JUMPDEST PUSH0 JUMPDEST DUP2 MLOAD DUP4 MLOAD PUSH2 0x1003 SWAP2 SWAP1 PUSH2 0x138F JUMP JUMPDEST DUP2 GT PUSH2 0x10E6 JUMPI PUSH0 PUSH1 0x1 SWAP1 POP PUSH0 JUMPDEST DUP4 MLOAD DUP2 LT ISZERO PUSH2 0x10BE JUMPI DUP4 DUP2 DUP2 MLOAD DUP2 LT PUSH2 0x102C JUMPI PUSH2 0x102B PUSH2 0x13C2 JUMP JUMPDEST JUMPDEST PUSH1 0x20 ADD ADD MLOAD PUSH1 0xF8 SHR PUSH1 0xF8 SHL PUSH31 0xFFFFFFFFFFFFFFFFFFFFFFFFFFFFFFFFFFFFFFFFFFFFFFFFFFFFFFFFFFFFFF NOT AND DUP6 DUP3 DUP6 PUSH2 0x1066 SWAP2 SWAP1 PUSH2 0x14B4 JUMP JUMPDEST DUP2 MLOAD DUP2 LT PUSH2 0x1077 JUMPI PUSH2 0x1076 PUSH2 0x13C2 JUMP JUMPDEST JUMPDEST PUSH1 0x20 ADD ADD MLOAD PUSH1 0xF8 SHR PUSH1 0xF8 SHL PUSH31 0xFFFFFFFFFFFFFFFFFFFFFFFFFFFFFFFFFFFFFFFFFFFFFFFFFFFFFFFFFFFFFF NOT AND EQ PUSH2 0x10B1 JUMPI PUSH0 SWAP2 POP PUSH2 0x10BE JUMP JUMPDEST DUP1 DUP1 PUSH1 0x1 ADD SWAP2 POP POP PUSH2 0x1010 JUMP JUMPDEST POP DUP1 ISZERO PUSH2 0x10D2 JUMPI PUSH1 0x1 SWAP5 POP POP POP POP POP PUSH2 0x10ED JUMP JUMPDEST POP DUP1 DUP1 PUSH2 0x10DE SWAP1 PUSH2 0x1E87 JUMP JUMPDEST SWAP2 POP POP PUSH2 0xFF5 JUMP JUMPDEST POP PUSH0 SWAP3 POP POP POP JUMPDEST SWAP3 SWAP2 POP POP JUMP JUMPDEST PUSH0 DUP2 MLOAD SWAP1 POP SWAP2 SWAP1 POP JUMP JUMPDEST PUSH0 DUP3 DUP3 MSTORE PUSH1 0x20 DUP3 ADD SWAP1 POP SWAP3 SWAP2 POP POP JUMP JUMPDEST DUP3 DUP2 DUP4 MCOPY PUSH0 DUP4 DUP4 ADD MSTORE POP POP POP JUMP JUMPDEST PUSH0 PUSH1 0x1F NOT PUSH1 0x1F DUP4 ADD AND SWAP1 POP SWAP2 SWAP1 POP JUMP JUMPDEST PUSH0 PUSH2 0x1135 DUP3 PUSH2 0x10F3 JUMP JUMPDEST PUSH2 0x113F DUP2 DUP6 PUSH2 0x10FD JUMP JUMPDEST SWAP4 POP PUSH2 0x114F DUP2 DUP6 PUSH1 0x20 DUP7 ADD PUSH2 0x110D JUMP JUMPDEST PUSH2 0x1158 DUP2 PUSH2 0x111B JUMP JUMPDEST DUP5 ADD SWAP2 POP POP SWAP3 SWAP2 POP POP JUMP JUMPDEST PUSH0 PUSH1 0x20 DUP3 ADD SWAP1 POP DUP2 DUP2 SUB PUSH0 DUP4 ADD MSTORE PUSH2 0x117B DUP2 DUP5 PUSH2 0x112B JUMP JUMPDEST SWAP1 POP SWAP3 SWAP2 POP POP JUMP JUMPDEST PUSH0 PUSH1 0x40 MLOAD SWAP1 POP SWAP1 JUMP JUMPDEST PUSH0 DUP1 REVERT JUMPDEST PUSH0 DUP1 REVERT JUMPDEST PUSH0 DUP1 REVERT JUMPDEST PUSH0 DUP1 REVERT JUMPDEST PUSH32 0x4E487B7100000000000000000000000000000000000000000000000000000000 PUSH0 MSTORE PUSH1 0x41 PUSH1 0x4 MSTORE PUSH1 0x24 PUSH0 REVERT JUMPDEST PUSH2 0x11D2 DUP3 PUSH2 0x111B JUMP JUMPDEST DUP2 ADD DUP2 DUP2 LT PUSH8 0xFFFFFFFFFFFFFFFF DUP3 GT OR ISZERO PUSH2 0x11F1 JUMPI PUSH2 0x11F0 PUSH2 0x119C JUMP JUMPDEST JUMPDEST DUP1 PUSH1 0x40 MSTORE POP POP POP JUMP JUMPDEST PUSH0 PUSH2 0x1203 PUSH2 0x1183 JUMP JUMPDEST SWAP1 POP PUSH2 0x120F DUP3 DUP3 PUSH2 0x11C9 JUMP JUMPDEST SWAP2 SWAP1 POP JUMP JUMPDEST PUSH0 PUSH8 0xFFFFFFFFFFFFFFFF DUP3 GT ISZERO PUSH2 0x122E JUMPI PUSH2 0x122D PUSH2 0x119C JUMP JUMPDEST JUMPDEST PUSH2 0x1237 DUP3 PUSH2 0x111B JUMP JUMPDEST SWAP1 POP PUSH1 0x20 DUP2 ADD SWAP1 POP SWAP2 SWAP1 POP JUMP JUMPDEST DUP3 DUP2 DUP4 CALLDATACOPY PUSH0 DUP4 DUP4 ADD MSTORE POP POP POP JUMP JUMPDEST PUSH0 PUSH2 0x1264 PUSH2 0x125F DUP5 PUSH2 0x1214 JUMP JUMPDEST PUSH2 0x11FA JUMP JUMPDEST SWAP1 POP DUP3 DUP2 MSTORE PUSH1 0x20 DUP2 ADD DUP5 DUP5 DUP5 ADD GT ISZERO PUSH2 0x1280 JUMPI PUSH2 0x127F PUSH2 0x1198 JUMP JUMPDEST JUMPDEST PUSH2 0x128B DUP5 DUP3 DUP6 PUSH2 0x1244 JUMP JUMPDEST POP SWAP4 SWAP3 POP POP POP JUMP JUMPDEST PUSH0 DUP3 PUSH1 0x1F DUP4 ADD SLT PUSH2 0x12A7 JUMPI PUSH2 0x12A6 PUSH2 0x1194 JUMP JUMPDEST JUMPDEST DUP2 CALLDATALOAD PUSH2 0x12B7 DUP5 DUP3 PUSH1 0x20 DUP7 ADD PUSH2 0x1252 JUMP JUMPDEST SWAP2 POP POP SWAP3 SWAP2 POP POP JUMP JUMPDEST PUSH0 PUSH1 0x20 DUP3 DUP5 SUB SLT ISZERO PUSH2 0x12D5 JUMPI PUSH2 0x12D4 PUSH2 0x118C JUMP JUMPDEST JUMPDEST PUSH0 DUP3 ADD CALLDATALOAD PUSH8 0xFFFFFFFFFFFFFFFF DUP2 GT ISZERO PUSH2 0x12F2 JUMPI PUSH2 0x12F1 PUSH2 0x1190 JUMP JUMPDEST JUMPDEST PUSH2 0x12FE DUP5 DUP3 DUP6 ADD PUSH2 0x1293 JUMP JUMPDEST SWAP2 POP POP SWAP3 SWAP2 POP POP JUMP JUMPDEST PUSH0 DUP2 SWAP1 POP SWAP2 SWAP1 POP JUMP JUMPDEST PUSH2 0x1319 DUP2 PUSH2 0x1307 JUMP JUMPDEST DUP3 MSTORE POP POP JUMP JUMPDEST PUSH0 PUSH1 0x60 DUP3 ADD SWAP1 POP DUP2 DUP2 SUB PUSH0 DUP4 ADD MSTORE PUSH2 0x1337 DUP2 DUP7 PUSH2 0x112B JUMP JUMPDEST SWAP1 POP PUSH2 0x1346 PUSH1 0x20 DUP4 ADD DUP6 PUSH2 0x1310 JUMP JUMPDEST DUP2 DUP2 SUB PUSH1 0x40 DUP4 ADD MSTORE PUSH2 0x1358 DUP2 DUP5 PUSH2 0x112B JUMP JUMPDEST SWAP1 POP SWAP5 SWAP4 POP POP POP POP JUMP JUMPDEST PUSH32 0x4E487B7100000000000000000000000000000000000000000000000000000000 PUSH0 MSTORE PUSH1 0x11 PUSH1 0x4 MSTORE PUSH1 0x24 PUSH0 REVERT JUMPDEST PUSH0 PUSH2 0x1399 DUP3 PUSH2 0x1307 JUMP JUMPDEST SWAP2 POP PUSH2 0x13A4 DUP4 PUSH2 0x1307 JUMP JUMPDEST SWAP3 POP DUP3 DUP3 SUB SWAP1 POP DUP2 DUP2 GT ISZERO PUSH2 0x13BC JUMPI PUSH2 0x13BB PUSH2 0x1362 JUMP JUMPDEST JUMPDEST SWAP3 SWAP2 POP POP JUMP JUMPDEST PUSH32 0x4E487B7100000000000000000000000000000000000000000000000000000000 PUSH0 MSTORE PUSH1 0x32 PUSH1 0x4 MSTORE PUSH1 0x24 PUSH0 REVERT JUMPDEST PUSH32 0x4E487B7100000000000000000000000000000000000000000000000000000000 PUSH0 MSTORE PUSH1 0x22 PUSH1 0x4 MSTORE PUSH1 0x24 PUSH0 REVERT JUMPDEST PUSH0 PUSH1 0x2 DUP3 DIV SWAP1 POP PUSH1 0x1 DUP3 AND DUP1 PUSH2 0x1433 JUMPI PUSH1 0x7F DUP3 AND SWAP2 POP JUMPDEST PUSH1 0x20 DUP3 LT DUP2 SUB PUSH2 0x1446 JUMPI PUSH2 0x1445 PUSH2 0x13EF JUMP JUMPDEST JUMPDEST POP SWAP2 SWAP1 POP JUMP JUMPDEST PUSH32 0x4E6F206163746976652067616D6520746F20656E642E00000000000000000000 PUSH0 DUP3 ADD MSTORE POP JUMP JUMPDEST PUSH0 PUSH2 0x1480 PUSH1 0x16 DUP4 PUSH2 0x10FD JUMP JUMPDEST SWAP2 POP PUSH2 0x148B DUP3 PUSH2 0x144C JUMP JUMPDEST PUSH1 0x20 DUP3 ADD SWAP1 POP SWAP2 SWAP1 POP JUMP JUMPDEST PUSH0 PUSH1 0x20 DUP3 ADD SWAP1 POP DUP2 DUP2 SUB PUSH0 DUP4 ADD MSTORE PUSH2 0x14AD DUP2 PUSH2 0x1474 JUMP JUMPDEST SWAP1 POP SWAP2 SWAP1 POP JUMP JUMPDEST PUSH0 PUSH2 0x14BE DUP3 PUSH2 0x1307 JUMP JUMPDEST SWAP2 POP PUSH2 0x14C9 DUP4 PUSH2 0x1307 JUMP JUMPDEST SWAP3 POP DUP3 DUP3 ADD SWAP1 POP DUP1 DUP3 GT ISZERO PUSH2 0x14E1 JUMPI PUSH2 0x14E0 PUSH2 0x1362 JUMP JUMPDEST JUMPDEST SWAP3 SWAP2 POP POP JUMP JUMPDEST PUSH32 0x54696D65206C696D697420726561636865642E00000000000000000000000000 PUSH0 DUP3 ADD MSTORE POP JUMP JUMPDEST PUSH0 PUSH2 0x151B PUSH1 0x13 DUP4 PUSH2 0x10FD JUMP JUMPDEST SWAP2 POP PUSH2 0x1526 DUP3 PUSH2 0x14E7 JUMP JUMPDEST PUSH1 0x20 DUP3 ADD SWAP1 POP SWAP2 SWAP1 POP JUMP JUMPDEST PUSH0 PUSH1 0x20 DUP3 ADD SWAP1 POP DUP2 DUP2 SUB PUSH0 DUP4 ADD MSTORE PUSH2 0x1548 DUP2 PUSH2 0x150F JUMP JUMPDEST SWAP1 POP SWAP2 SWAP1 POP JUMP JUMPDEST PUSH0 DUP2 SWAP1 POP SWAP3 SWAP2 POP POP JUMP JUMPDEST PUSH32 0x596F752068617665200000000000000000000000000000000000000000000000 PUSH0 DUP3 ADD MSTORE POP JUMP JUMPDEST PUSH0 PUSH2 0x158D PUSH1 0x9 DUP4 PUSH2 0x154F JUMP JUMPDEST SWAP2 POP PUSH2 0x1598 DUP3 PUSH2 0x1559 JUMP JUMPDEST PUSH1 0x9 DUP3 ADD SWAP1 POP SWAP2 SWAP1 POP JUMP JUMPDEST PUSH0 PUSH2 0x15AD DUP3 PUSH2 0x10F3 JUMP JUMPDEST PUSH2 0x15B7 DUP2 DUP6 PUSH2 0x154F JUMP JUMPDEST SWAP4 POP PUSH2 0x15C7 DUP2 DUP6 PUSH1 0x20 DUP7 ADD PUSH2 0x110D JUMP JUMPDEST DUP1 DUP5 ADD SWAP2 POP POP SWAP3 SWAP2 POP POP JUMP JUMPDEST PUSH32 0x207365636F6E6473206C65667400000000000000000000000000000000000000 PUSH0 DUP3 ADD MSTORE POP JUMP JUMPDEST PUSH0 PUSH2 0x1607 PUSH1 0xD DUP4 PUSH2 0x154F JUMP JUMPDEST SWAP2 POP PUSH2 0x1612 DUP3 PUSH2 0x15D3 JUMP JUMPDEST PUSH1 0xD DUP3 ADD SWAP1 POP SWAP2 SWAP1 POP JUMP JUMPDEST PUSH0 PUSH2 0x1627 DUP3 PUSH2 0x1581 JUMP JUMPDEST SWAP2 POP PUSH2 0x1633 DUP3 DUP5 PUSH2 0x15A3 JUMP JUMPDEST SWAP2 POP PUSH2 0x163E DUP3 PUSH2 0x15FB JUMP JUMPDEST SWAP2 POP DUP2 SWAP1 POP SWAP3 SWAP2 POP POP JUMP JUMPDEST PUSH32 0x496E707574206D75737420626520612073696E676C6520636861726163746572 PUSH0 DUP3 ADD MSTORE POP JUMP JUMPDEST PUSH0 PUSH2 0x167D PUSH1 0x20 DUP4 PUSH2 0x10FD JUMP JUMPDEST SWAP2 POP PUSH2 0x1688 DUP3 PUSH2 0x1649 JUMP JUMPDEST PUSH1 0x20 DUP3 ADD SWAP1 POP SWAP2 SWAP1 POP JUMP JUMPDEST PUSH0 PUSH1 0x20 DUP3 ADD SWAP1 POP DUP2 DUP2 SUB PUSH0 DUP4 ADD MSTORE PUSH2 0x16AA DUP2 PUSH2 0x1671 JUMP JUMPDEST SWAP1 POP SWAP2 SWAP1 POP JUMP JUMPDEST PUSH0 PUSH2 0x16BB DUP3 PUSH2 0x1307 JUMP JUMPDEST SWAP2 POP PUSH2 0x16C6 DUP4 PUSH2 0x1307 JUMP JUMPDEST SWAP3 POP DUP3 DUP3 MUL PUSH2 0x16D4 DUP2 PUSH2 0x1307 JUMP JUMPDEST SWAP2 POP DUP3 DUP3 DIV DUP5 EQ DUP4 ISZERO OR PUSH2 0x16EB JUMPI PUSH2 0x16EA PUSH2 0x1362 JUMP JUMPDEST JUMPDEST POP SWAP3 SWAP2 POP POP JUMP JUMPDEST PUSH0 DUP2 SWAP1 POP DUP2 PUSH0 MSTORE PUSH1 0x20 PUSH0 KECCAK256 SWAP1 POP SWAP2 SWAP1 POP JUMP JUMPDEST PUSH0 PUSH1 0x20 PUSH1 0x1F DUP4 ADD DIV SWAP1 POP SWAP2 SWAP1 POP JUMP JUMPDEST PUSH0 DUP3 DUP3 SHL SWAP1 POP SWAP3 SWAP2 POP POP JUMP JUMPDEST PUSH0 PUSH1 0x8 DUP4 MUL PUSH2 0x174E PUSH32 0xFFFFFFFFFFFFFFFFFFFFFFFFFFFFFFFFFFFFFFFFFFFFFFFFFFFFFFFFFFFFFFFF DUP3 PUSH2 0x1713 JUMP JUMPDEST PUSH2 0x1758 DUP7 DUP4 PUSH2 0x1713 JUMP JUMPDEST SWAP6 POP DUP1 NOT DUP5 AND SWAP4 POP DUP1 DUP7 AND DUP5 OR SWAP3 POP POP POP SWAP4 SWAP3 POP POP POP JUMP JUMPDEST PUSH0 DUP2 SWAP1 POP SWAP2 SWAP1 POP JUMP JUMPDEST PUSH0 PUSH2 0x1793 PUSH2 0x178E PUSH2 0x1789 DUP5 PUSH2 0x1307 JUMP JUMPDEST PUSH2 0x1770 JUMP JUMPDEST PUSH2 0x1307 JUMP JUMPDEST SWAP1 POP SWAP2 SWAP1 POP JUMP JUMPDEST PUSH0 DUP2 SWAP1 POP SWAP2 SWAP1 POP JUMP JUMPDEST PUSH2 0x17AC DUP4 PUSH2 0x1779 JUMP JUMPDEST PUSH2 0x17C0 PUSH2 0x17B8 DUP3 PUSH2 0x179A JUMP JUMPDEST DUP5 DUP5 SLOAD PUSH2 0x171F JUMP JUMPDEST DUP3 SSTORE POP POP POP POP JUMP JUMPDEST PUSH0 SWAP1 JUMP JUMPDEST PUSH2 0x17D4 PUSH2 0x17C8 JUMP JUMPDEST PUSH2 0x17DF DUP2 DUP5 DUP5 PUSH2 0x17A3 JUMP JUMPDEST POP POP POP JUMP JUMPDEST JUMPDEST DUP2 DUP2 LT ISZERO PUSH2 0x1802 JUMPI PUSH2 0x17F7 PUSH0 DUP3 PUSH2 0x17CC JUMP JUMPDEST PUSH1 0x1 DUP2 ADD SWAP1 POP PUSH2 0x17E5 JUMP JUMPDEST POP POP JUMP JUMPDEST PUSH1 0x1F DUP3 GT ISZERO PUSH2 0x1847 JUMPI PUSH2 0x1818 DUP2 PUSH2 0x16F2 JUMP JUMPDEST PUSH2 0x1821 DUP5 PUSH2 0x1704 JUMP JUMPDEST DUP2 ADD PUSH1 0x20 DUP6 LT ISZERO PUSH2 0x1830 JUMPI DUP2 SWAP1 POP JUMPDEST PUSH2 0x1844 PUSH2 0x183C DUP6 PUSH2 0x1704 JUMP JUMPDEST DUP4 ADD DUP3 PUSH2 0x17E4 JUMP JUMPDEST POP POP JUMPDEST POP POP POP JUMP JUMPDEST PUSH0 DUP3 DUP3 SHR SWAP1 POP SWAP3 SWAP2 POP POP JUMP JUMPDEST PUSH0 PUSH2 0x1867 PUSH0 NOT DUP5 PUSH1 0x8 MUL PUSH2 0x184C JUMP JUMPDEST NOT DUP1 DUP4 AND SWAP2 POP POP SWAP3 SWAP2 POP POP JUMP JUMPDEST PUSH0 PUSH2 0x187F DUP4 DUP4 PUSH2 0x1858 JUMP JUMPDEST SWAP2 POP DUP3 PUSH1 0x2 MUL DUP3 OR SWAP1 POP SWAP3 SWAP2 POP POP JUMP JUMPDEST PUSH2 0x1898 DUP3 PUSH2 0x10F3 JUMP JUMPDEST PUSH8 0xFFFFFFFFFFFFFFFF DUP2 GT ISZERO PUSH2 0x18B1 JUMPI PUSH2 0x18B0 PUSH2 0x119C JUMP JUMPDEST JUMPDEST PUSH2 0x18BB DUP3 SLOAD PUSH2 0x141C JUMP JUMPDEST PUSH2 0x18C6 DUP3 DUP3 DUP6 PUSH2 0x1806 JUMP JUMPDEST PUSH0 PUSH1 0x20 SWAP1 POP PUSH1 0x1F DUP4 GT PUSH1 0x1 DUP2 EQ PUSH2 0x18F7 JUMPI PUSH0 DUP5 ISZERO PUSH2 0x18E5 JUMPI DUP3 DUP8 ADD MLOAD SWAP1 POP JUMPDEST PUSH2 0x18EF DUP6 DUP3 PUSH2 0x1874 JUMP JUMPDEST DUP7 SSTORE POP PUSH2 0x1956 JUMP JUMPDEST PUSH1 0x1F NOT DUP5 AND PUSH2 0x1905 DUP7 PUSH2 0x16F2 JUMP JUMPDEST PUSH0 JUMPDEST DUP3 DUP2 LT ISZERO PUSH2 0x192C JUMPI DUP5 DUP10 ADD MLOAD DUP3 SSTORE PUSH1 0x1 DUP3 ADD SWAP2 POP PUSH1 0x20 DUP6 ADD SWAP5 POP PUSH1 0x20 DUP2 ADD SWAP1 POP PUSH2 0x1907 JUMP JUMPDEST DUP7 DUP4 LT ISZERO PUSH2 0x1949 JUMPI DUP5 DUP10 ADD MLOAD PUSH2 0x1945 PUSH1 0x1F DUP10 AND DUP3 PUSH2 0x1858 JUMP JUMPDEST DUP4 SSTORE POP JUMPDEST PUSH1 0x1 PUSH1 0x2 DUP9 MUL ADD DUP9 SSTORE POP POP POP JUMPDEST POP POP POP POP POP POP JUMP JUMPDEST PUSH0 DUP2 SLOAD PUSH2 0x196A DUP2 PUSH2 0x141C JUMP JUMPDEST PUSH2 0x1974 DUP2 DUP7 PUSH2 0x154F JUMP JUMPDEST SWAP5 POP PUSH1 0x1 DUP3 AND PUSH0 DUP2 EQ PUSH2 0x198E JUMPI PUSH1 0x1 DUP2 EQ PUSH2 0x19A3 JUMPI PUSH2 0x19D5 JUMP JUMPDEST PUSH1 0xFF NOT DUP4 AND DUP7 MSTORE DUP2 ISZERO ISZERO DUP3 MUL DUP7 ADD SWAP4 POP PUSH2 0x19D5 JUMP JUMPDEST PUSH2 0x19AC DUP6 PUSH2 0x16F2 JUMP JUMPDEST PUSH0 JUMPDEST DUP4 DUP2 LT ISZERO PUSH2 0x19CD JUMPI DUP2 SLOAD DUP2 DUP10 ADD MSTORE PUSH1 0x1 DUP3 ADD SWAP2 POP PUSH1 0x20 DUP2 ADD SWAP1 POP PUSH2 0x19AE JUMP JUMPDEST DUP4 DUP9 ADD SWAP6 POP POP POP JUMPDEST POP POP POP SWAP3 SWAP2 POP POP JUMP JUMPDEST PUSH32 0x2000000000000000000000000000000000000000000000000000000000000000 PUSH0 DUP3 ADD MSTORE POP JUMP JUMPDEST PUSH0 PUSH2 0x1A12 PUSH1 0x1 DUP4 PUSH2 0x154F JUMP JUMPDEST SWAP2 POP PUSH2 0x1A1D DUP3 PUSH2 0x19DE JUMP JUMPDEST PUSH1 0x1 DUP3 ADD SWAP1 POP SWAP2 SWAP1 POP JUMP JUMPDEST PUSH0 PUSH2 0x1A33 DUP3 DUP6 PUSH2 0x195E JUMP JUMPDEST SWAP2 POP PUSH2 0x1A3F DUP3 DUP5 PUSH2 0x15A3 JUMP JUMPDEST SWAP2 POP PUSH2 0x1A4A DUP3 PUSH2 0x1A06 JUMP JUMPDEST SWAP2 POP DUP2 SWAP1 POP SWAP4 SWAP3 POP POP POP JUMP JUMPDEST PUSH0 PUSH2 0x1A60 DUP3 PUSH2 0x1307 JUMP JUMPDEST SWAP2 POP PUSH0 DUP3 SUB PUSH2 0x1A72 JUMPI PUSH2 0x1A71 PUSH2 0x1362 JUMP JUMPDEST JUMPDEST PUSH1 0x1 DUP3 SUB SWAP1 POP SWAP2 SWAP1 POP JUMP JUMPDEST PUSH32 0x47616D65204F7665723A204E6F20617474656D707473206C6566742E00000000 PUSH0 DUP3 ADD MSTORE POP JUMP JUMPDEST PUSH0 PUSH2 0x1AB1 PUSH1 0x1C DUP4 PUSH2 0x10FD JUMP JUMPDEST SWAP2 POP PUSH2 0x1ABC DUP3 PUSH2 0x1A7D JUMP JUMPDEST PUSH1 0x20 DUP3 ADD SWAP1 POP SWAP2 SWAP1 POP JUMP JUMPDEST PUSH0 PUSH1 0x20 DUP3 ADD SWAP1 POP DUP2 DUP2 SUB PUSH0 DUP4 ADD MSTORE PUSH2 0x1ADE DUP2 PUSH2 0x1AA5 JUMP JUMPDEST SWAP1 POP SWAP2 SWAP1 POP JUMP JUMPDEST PUSH0 DUP2 SLOAD PUSH2 0x1AF1 DUP2 PUSH2 0x141C JUMP JUMPDEST PUSH2 0x1AFB DUP2 DUP7 PUSH2 0x10FD JUMP JUMPDEST SWAP5 POP PUSH1 0x1 DUP3 AND PUSH0 DUP2 EQ PUSH2 0x1B15 JUMPI PUSH1 0x1 DUP2 EQ PUSH2 0x1B2B JUMPI PUSH2 0x1B5D JUMP JUMPDEST PUSH1 0xFF NOT DUP4 AND DUP7 MSTORE DUP2 ISZERO ISZERO PUSH1 0x20 MUL DUP7 ADD SWAP4 POP PUSH2 0x1B5D JUMP JUMPDEST PUSH2 0x1B34 DUP6 PUSH2 0x16F2 JUMP JUMPDEST PUSH0 JUMPDEST DUP4 DUP2 LT ISZERO PUSH2 0x1B55 JUMPI DUP2 SLOAD DUP2 DUP10 ADD MSTORE PUSH1 0x1 DUP3 ADD SWAP2 POP PUSH1 0x20 DUP2 ADD SWAP1 POP PUSH2 0x1B36 JUMP JUMPDEST DUP1 DUP9 ADD SWAP6 POP POP POP JUMPDEST POP POP POP SWAP3 SWAP2 POP POP JUMP JUMPDEST PUSH0 PUSH1 0x60 DUP3 ADD SWAP1 POP DUP2 DUP2 SUB PUSH0 DUP4 ADD MSTORE PUSH2 0x1B7E DUP2 DUP7 PUSH2 0x1AE5 JUMP JUMPDEST SWAP1 POP PUSH2 0x1B8D PUSH1 0x20 DUP4 ADD DUP6 PUSH2 0x1310 JUMP JUMPDEST DUP2 DUP2 SUB PUSH1 0x40 DUP4 ADD MSTORE PUSH2 0x1B9F DUP2 DUP5 PUSH2 0x1AE5 JUMP JUMPDEST SWAP1 POP SWAP5 SWAP4 POP POP POP POP JUMP JUMPDEST PUSH32 0x47616D6520616C726561647920696E2070726F67726573732E20456E64206974 PUSH0 DUP3 ADD MSTORE PUSH32 0x2066697273742E00000000000000000000000000000000000000000000000000 PUSH1 0x20 DUP3 ADD MSTORE POP JUMP JUMPDEST PUSH0 PUSH2 0x1C03 PUSH1 0x27 DUP4 PUSH2 0x10FD JUMP JUMPDEST SWAP2 POP PUSH2 0x1C0E DUP3 PUSH2 0x1BA9 JUMP JUMPDEST PUSH1 0x40 DUP3 ADD SWAP1 POP SWAP2 SWAP1 POP JUMP JUMPDEST PUSH0 PUSH1 0x20 DUP3 ADD SWAP1 POP DUP2 DUP2 SUB PUSH0 DUP4 ADD MSTORE PUSH2 0x1C30 DUP2 PUSH2 0x1BF7 JUMP JUMPDEST SWAP1 POP SWAP2 SWAP1 POP JUMP JUMPDEST PUSH0 PUSH1 0x40 DUP3 ADD SWAP1 POP PUSH2 0x1C4A PUSH0 DUP4 ADD DUP6 PUSH2 0x1310 JUMP JUMPDEST PUSH2 0x1C57 PUSH1 0x20 DUP4 ADD DUP5 PUSH2 0x1310 JUMP JUMPDEST SWAP4 SWAP3 POP POP POP JUMP JUMPDEST PUSH0 DUP2 SWAP1 POP SWAP2 SWAP1 POP JUMP JUMPDEST PUSH2 0x1C78 PUSH2 0x1C73 DUP3 PUSH2 0x1307 JUMP JUMPDEST PUSH2 0x1C5E JUMP JUMPDEST DUP3 MSTORE POP POP JUMP JUMPDEST PUSH0 PUSH20 0xFFFFFFFFFFFFFFFFFFFFFFFFFFFFFFFFFFFFFFFF DUP3 AND SWAP1 POP SWAP2 SWAP1 POP JUMP JUMPDEST PUSH0 PUSH2 0x1CA7 DUP3 PUSH2 0x1C7E JUMP JUMPDEST SWAP1 POP SWAP2 SWAP1 POP JUMP JUMPDEST PUSH0 DUP2 PUSH1 0x60 SHL SWAP1 POP SWAP2 SWAP1 POP JUMP JUMPDEST PUSH0 PUSH2 0x1CC4 DUP3 PUSH2 0x1CAE JUMP JUMPDEST SWAP1 POP SWAP2 SWAP1 POP JUMP JUMPDEST PUSH0 PUSH2 0x1CD5 DUP3 PUSH2 0x1CBA JUMP JUMPDEST SWAP1 POP SWAP2 SWAP1 POP JUMP JUMPDEST PUSH2 0x1CED PUSH2 0x1CE8 DUP3 PUSH2 0x1C9D JUMP JUMPDEST PUSH2 0x1CCB JUMP JUMPDEST DUP3 MSTORE POP POP JUMP JUMPDEST PUSH0 PUSH2 0x1CFE DUP3 DUP6 PUSH2 0x1C67 JUMP JUMPDEST PUSH1 0x20 DUP3 ADD SWAP2 POP PUSH2 0x1D0E DUP3 DUP5 PUSH2 0x1CDC JUMP JUMPDEST PUSH1 0x14 DUP3 ADD SWAP2 POP DUP2 SWAP1 POP SWAP4 SWAP3 POP POP POP JUMP JUMPDEST PUSH32 0x4E487B7100000000000000000000000000000000000000000000000000000000 PUSH0 MSTORE PUSH1 0x12 PUSH1 0x4 MSTORE PUSH1 0x24 PUSH0 REVERT JUMPDEST PUSH0 PUSH2 0x1D55 DUP3 PUSH2 0x1307 JUMP JUMPDEST SWAP2 POP PUSH2 0x1D60 DUP4 PUSH2 0x1307 JUMP JUMPDEST SWAP3 POP DUP3 PUSH2 0x1D70 JUMPI PUSH2 0x1D6F PUSH2 0x1D1E JUMP JUMPDEST JUMPDEST DUP3 DUP3 MOD SWAP1 POP SWAP3 SWAP2 POP POP JUMP JUMPDEST PUSH0 DUP2 SLOAD SWAP1 POP PUSH2 0x1D89 DUP2 PUSH2 0x141C JUMP JUMPDEST SWAP1 POP SWAP2 SWAP1 POP JUMP JUMPDEST PUSH0 DUP2 SWAP1 POP DUP2 PUSH0 MSTORE PUSH1 0x20 PUSH0 KECCAK256 SWAP1 POP SWAP2 SWAP1 POP JUMP JUMPDEST DUP2 DUP2 SUB PUSH2 0x1DB0 JUMPI POP POP PUSH2 0x1E85 JUMP JUMPDEST PUSH2 0x1DB9 DUP3 PUSH2 0x1D7B JUMP JUMPDEST PUSH8 0xFFFFFFFFFFFFFFFF DUP2 GT ISZERO PUSH2 0x1DD2 JUMPI PUSH2 0x1DD1 PUSH2 0x119C JUMP JUMPDEST JUMPDEST PUSH2 0x1DDC DUP3 SLOAD PUSH2 0x141C JUMP JUMPDEST PUSH2 0x1DE7 DUP3 DUP3 DUP6 PUSH2 0x1806 JUMP JUMPDEST PUSH0 PUSH1 0x1F DUP4 GT PUSH1 0x1 DUP2 EQ PUSH2 0x1E14 JUMPI PUSH0 DUP5 ISZERO PUSH2 0x1E02 JUMPI DUP3 DUP8 ADD SLOAD SWAP1 POP JUMPDEST PUSH2 0x1E0C DUP6 DUP3 PUSH2 0x1874 JUMP JUMPDEST DUP7 SSTORE POP PUSH2 0x1E7E JUMP JUMPDEST PUSH1 0x1F NOT DUP5 AND PUSH2 0x1E22 DUP8 PUSH2 0x1D90 JUMP JUMPDEST SWAP7 POP PUSH2 0x1E2D DUP7 PUSH2 0x16F2 JUMP JUMPDEST PUSH0 JUMPDEST DUP3 DUP2 LT ISZERO PUSH2 0x1E54 JUMPI DUP5 DUP10 ADD SLOAD DUP3 SSTORE PUSH1 0x1 DUP3 ADD SWAP2 POP PUSH1 0x1 DUP6 ADD SWAP5 POP PUSH1 0x20 DUP2 ADD SWAP1 POP PUSH2 0x1E2F JUMP JUMPDEST DUP7 DUP4 LT ISZERO PUSH2 0x1E71 JUMPI DUP5 DUP10 ADD SLOAD PUSH2 0x1E6D PUSH1 0x1F DUP10 AND DUP3 PUSH2 0x1858 JUMP JUMPDEST DUP4 SSTORE POP JUMPDEST PUSH1 0x1 PUSH1 0x2 DUP9 MUL ADD DUP9 SSTORE POP POP POP JUMPDEST POP POP POP POP POP POP JUMPDEST JUMP JUMPDEST PUSH0 PUSH2 0x1E91 DUP3 PUSH2 0x1307 JUMP JUMPDEST SWAP2 POP PUSH32 0xFFFFFFFFFFFFFFFFFFFFFFFFFFFFFFFFFFFFFFFFFFFFFFFFFFFFFFFFFFFFFFFF DUP3 SUB PUSH2 0x1EC3 JUMPI PUSH2 0x1EC2 PUSH2 0x1362 JUMP JUMPDEST JUMPDEST PUSH1 0x1 DUP3 ADD SWAP1 POP SWAP2 SWAP1 POP JUMP JUMPDEST PUSH0 PUSH2 0x1ED8 DUP3 PUSH2 0x1307 JUMP JUMPDEST SWAP2 POP PUSH2 0x1EE3 DUP4 PUSH2 0x1307 JUMP JUMPDEST SWAP3 POP DUP3 PUSH2 0x1EF3 JUMPI PUSH2 0x1EF2 PUSH2 0x1D1E JUMP JUMPDEST JUMPDEST DUP3 DUP3 DIV SWAP1 POP SWAP3 SWAP2 POP POP JUMP INVALID LOG2 PUSH5 0x6970667358 0x22 SLT KECCAK256 EQ 0xD0 CHAINID 0xBE 0xD 0xBF BLOBBASEFEE PUSH29 0x58C710879475ED4C35E694D5AF057DC144B98E9CE859F9D264736F6C63 NUMBER STOP ADDMOD BYTE STOP CALLER KECCAK256 KECCAK256 KECCAK256 PUSH0 PUSH0 PUSH0 PUSH0 EXP KECCAK256 KECCAK256 KECCAK256 PUSH29 0x202020207C0A2020207C202020204F0A2020207C2020205C7C2F0A2020 KECCAK256 PUSH29 0xA2020207C0A20202F205C0A2020205F5F5F5F0A2020207C202020207C EXP KECCAK256 KECCAK256 KECCAK256 PUSH29 0x202020204F0A2020207C2020205C7C2F0A2020207C202020207C0A2020 KECCAK256 PUSH29 0xA20202F205C0A2020205F5F5F5F0A2020207C202020207C0A2020207C KECCAK256 KECCAK256 KECCAK256 KECCAK256 0x4F EXP KECCAK256 KECCAK256 KECCAK256 PUSH29 0xA2020207C0A2020207C0A20202F205C0A2020205F5F5F5F0A2020207C KECCAK256 KECCAK256 KECCAK256 KECCAK256 PUSH29 0xA2020207C202020204F0A2020207C202020207C0A2020207C0A202020 PUSH29 0xA20202F205C0A2020205F5F5F5F0A2020207C202020207C0A2020207C EXP KECCAK256 KECCAK256 KECCAK256 PUSH29 0xA2020207C0A2020207C0A20202F205C0A2020205F5F5F5F0A2020207C KECCAK256 KECCAK256 KECCAK256 KECCAK256 PUSH29 0xA2020207C202020204F0A2020207C2020205C7C2F0A2020207C202020 KECCAK256 PUSH29 0xA2020207C2020202F0A20202F205C0A2020205F5F5F5F0A2020207C20 KECCAK256 KECCAK256 KECCAK256 PUSH29 0xA2020207C202020204F0A2020207C2020205C7C2F0A2020207C202020 KECCAK256 PUSH29 0xA2020207C2020202F205C0A20202F205C0A0000000000000000000000 "
		},
		"gasEstimates": {
			"creation": {
				"codeDepositCost": "1597600",
				"executionCost": "infinite",
				"totalCost": "infinite"
			},
			"external": {
				"checkGameTimeout()": "infinite",
				"getGameState()": "infinite",
				"getHangmanFigure()": "infinite",
				"guess(string)": "infinite",
				"quit()": "27425",
				"startGame()": "infinite"
			},
			"internal": {
				"contains(string memory,string memory)": "infinite",
				"uintToString(uint256)": "infinite"
			}
		},
		"methodIdentifiers": {
			"checkGameTimeout()": "2b6055df",
			"getGameState()": "b7d0628b",
			"getHangmanFigure()": "04d15a8d",
			"guess(string)": "4eee59b3",
			"quit()": "fc2b8cc3",
			"startGame()": "d65ab5f2"
		}
	},
	"abi": [
		{
			"anonymous": false,
			"inputs": [],
			"name": "GameEnded",
			"type": "event"
		},
		{
			"anonymous": false,
			"inputs": [
				{
					"indexed": false,
					"internalType": "uint256",
					"name": "startTime",
					"type": "uint256"
				},
				{
					"indexed": false,
					"internalType": "uint256",
					"name": "duration",
					"type": "uint256"
				}
			],
			"name": "GameStarted",
			"type": "event"
		},
		{
			"anonymous": false,
			"inputs": [
				{
					"indexed": false,
					"internalType": "string",
					"name": "reason",
					"type": "string"
				}
			],
			"name": "GameTimeLeft",
			"type": "event"
		},
		{
			"anonymous": false,
			"inputs": [
				{
					"indexed": false,
					"internalType": "string",
					"name": "hangmanWord",
					"type": "string"
				},
				{
					"indexed": false,
					"internalType": "uint256",
					"name": "attemptsLeft",
					"type": "uint256"
				},
				{
					"indexed": false,
					"internalType": "string",
					"name": "wrongGuesses",
					"type": "string"
				}
			],
			"name": "GuessMade",
			"type": "event"
		},
		{
			"inputs": [],
			"name": "checkGameTimeout",
			"outputs": [],
			"stateMutability": "nonpayable",
			"type": "function"
		},
		{
			"inputs": [],
			"name": "getGameState",
			"outputs": [
				{
					"internalType": "string",
					"name": "",
					"type": "string"
				},
				{
					"internalType": "uint256",
					"name": "",
					"type": "uint256"
				},
				{
					"internalType": "string",
					"name": "",
					"type": "string"
				}
			],
			"stateMutability": "view",
			"type": "function"
		},
		{
			"inputs": [],
			"name": "getHangmanFigure",
			"outputs": [
				{
					"internalType": "string",
					"name": "",
					"type": "string"
				}
			],
			"stateMutability": "view",
			"type": "function"
		},
		{
			"inputs": [
				{
					"internalType": "string",
					"name": "input",
					"type": "string"
				}
			],
			"name": "guess",
			"outputs": [
				{
					"internalType": "string",
					"name": "",
					"type": "string"
				},
				{
					"internalType": "uint256",
					"name": "",
					"type": "uint256"
				},
				{
					"internalType": "string",
					"name": "",
					"type": "string"
				}
			],
			"stateMutability": "nonpayable",
			"type": "function"
		},
		{
			"inputs": [],
			"name": "quit",
			"outputs": [],
			"stateMutability": "nonpayable",
			"type": "function"
		},
		{
			"inputs": [],
			"name": "startGame",
			"outputs": [],
			"stateMutability": "nonpayable",
			"type": "function"
		}
	]
}